:100000000C9413010C945A010C945A010C945A014B
:100010000C945A010C945A010C945A010C945A01F4
:100020000C945A010C945A010C947B1E0C944E1F94
:100030000C949C190C945A010C945A010C945A017A
:100040000C945A010C945A010C945A010C945A01C4
:100050000C945A010C94071A0C945A010C945A01EE
:100060000C945A010C945A010C945A010C945A01A4
:100070000C945A010C945A010C945A010C945A0194
:100080000C945A010C945A010C945A010C945A0184
:100090000C945A010C945A010C945A010C945A0174
:1000A0000C945A010C945A010C945A010400050056
:1000B000200012036B006500790062006F00610090
:1000C000720064000000160371006D006B00620096
:1000D000750069006C006400650072000000040394
:1000E000090409023B00020100A0FA090400000112
:1000F00003010100092111010001224000070581CF
:100100000308000A0904010001030000000921118D
:1001100001000122B6000705820320000A12010037
:100120000200000008EDFE60600100010200010510
:10013000010902A10185020901A10005091901298E
:10014000081500250195087501810205010930098E
:10015000311581257F95027508810609381581259D
:100160007F950175088106050C0A38021581257FE7
:10017000950175088106C0C005010980A1018503AC
:1001800019012AB700150126B700950175108100E5
:10019000C0050C0901A101850419012AA00215015D
:1001A00026A002950175108100C005010906A10174
:1001B0008505050719E029E7150025019508750152
:1001C00081020507190029EF1500250195F0750139
:1001D000810205081901290595057501910295010E
:1001E00075039101C005010906A101050719E02960
:1001F000E7150025019508750181029501750881B3
:10020000010507190029FF150026FF00950675084E
:1002100081000508190129059505750191029501CF
:1002200075039101C00011241FBECFEFDAE0DEBFDD
:10023000CDBF04B603FE27C08091420290914302D5
:10024000A0914402B09145028730904BA740B04B3B
:10025000D1F4109242021092430210924402109282
:10026000450214BE84B7877F84BF0FB6F894A89563
:1002700080916000886180936000109260000FBEE2
:10028000E0E0F8E3099511E0A0E0B1E0E2E1F4E498
:1002900002C005900D92A437B107D9F722E0A4E778
:1002A000B1E001C01D92A234B207E1F70E943612FC
:1002B0000C94BF210C94000090E080E00895089514
:1002C000089581E00895089581E008950C946101F6
:1002D00008950C9468011F93CF93DF9300D000D052
:1002E0000F92CDB7DEB749835A836B833091760185
:1002F00089819A8131111DC06623B9F02223A9F0AA
:100300000E94BC08182F682F89819A810E94670873
:1003100069817A81812F0F900F900F900F900F902D
:10032000DF91CF911F910C94D80E0E949408182F42
:10033000EFCF0E94BC0869817A81EDCFFC01262FA6
:10034000408151816281738184810C946B0181E0D1
:100350000895CF93DF93D82FC92F60E00E949E01AC
:100360006D2F7C2FDF91CF910C9469010E940111B8
:100370000E942E020E943E160C9439110C943B11DF
:1003800008950E9440060E94C0012FEF84E39CE084
:10039000215080409040E1F700C000000C942B1ADF
:1003A0000F931F93CF93DF938C0161E00E949E0116
:1003B000EC01B8010E9466018823D9F1B801CE0191
:1003C0000E9498158823A9F1B801CE010E94BA169F
:1003D000882379F1B801CE010E940F17882349F1D3
:1003E000B801CE010E94F817882319F1F801828123
:1003F000882361F0CB35FDE5DF0721F170F4C115ED
:10040000ECE5DE07A1F0CF3DDC45C9F0C801DF9186
:10041000CF911F910F910C946401CC358DE5D807D5
:10042000A1F0CD35DD4591F70E94970CEFCF0E94EA
:10043000C10180E0DF91CF911F910F9108950E943B
:10044000110EF7CF0E94A00CE1CF0E94A30CDECFCB
:100450000C94630181E008950C942A020895CF93CF
:10046000C82F0E9428028C2FCF910C942C02EF925F
:10047000FF920F931F93CF93DF93CDB7DEB72B97E8
:100480000FB6F894DEBF0FBECDBF042F4F83152FDC
:10049000588769877A878B87EA84FB8461110E9479
:1004A000C80C1E8285E0FE013796DE011196019090
:1004B0000D928A95E1F7EF28A9F449815A816B8161
:1004C0007C818D819E810E94C60B2B960FB6F8947D
:1004D000DEBF0FBECDBFDF91CF911F910F91FF9077
:1004E000EF90089510231F3F41F3CE0101960E9423
:1004F000A7018111E2CFE9CFFC01808191810C94A9
:10050000FE08CF93C82F882309F48AC08238C1F42B
:100510000E94271881FD84C089E30E94600C0E941C
:10052000F90C2FEF31EE84E0215030408040E1F7AC
:1005300000C0000089E30E94670CCF910C94F90C75
:100540008338A1F40E94271880FD6AC083E50E94C9
:10055000600C0E94F90C9FEF21EE34E09150204096
:100560003040E1F700C0000083E5E5CF8438A1F416
:100570000E94271882FD54C087E40E94600C0E94EC
:10058000F90C8FEF91EE24E0815090402040E1F78C
:1005900000C0000087E4CFCF8CEF8C0F813A90F43D
:1005A0006C2F80910001909101010E949D18882379
:1005B00029F08C2F0E94670C0E94F90C8C2F0E944E
:1005C000600CBBCF80E28C0F883048F4C77081E0AC
:1005D00001C0880FCA95EAF70E94A90CAECF8BE53F
:1005E0008C0F833038F42C2F2452330BC901CF9158
:1005F0000C945D18E8E5EC0FE73150F4F0E0EE0FF5
:10060000FF1FEB5EFE4F80819181CF910C94731898
:10061000CD3E30F08C2F0E94C412CF910C948613E3
:10062000CF910895882309F452C0823871F40E9452
:10063000271881FF4CC089E30E94600C0E94F90CCE
:1006400089E30E94670C0C94F90C833859F40E94DA
:10065000271880FF3CC083E50E94600C0E94F90CC3
:1006600083E5EFCF843859F40E94271882FF2FC00A
:1006700087E40E94600C0E94F90C87E4E2CF9CEFB3
:10068000980F913AF0F290E2980F983050F48770FA
:1006900091E001C0990F8A95EAF7892F0E94AF0C6B
:1006A000D2CF9BE5980F933020F490E080E00C943B
:1006B0005D1898E5980F973120F490E080E00C9455
:1006C00073188D3E20F00E940D130C94861308952C
:1006D0001F93CF93DF93182FEB010E948102209785
:1006E00031F4812FDF91CF911F910C9412038FE988
:1006F0009FE00197F1F700C000002197F0CF70E074
:1007000060E0893311F460E570E00C94680388239D
:1007100021F00E94A90C0C94F90C0895882321F073
:100720000E94AF0C0C94F90C0895AF92BF92CF9237
:10073000DF92EF92FF920F931F93CF93DF9300D03E
:1007400000D00F92CDB7DEB76C016D837983FC01C9
:100750001281058102950F700E947E0CE82E88237D
:10076000A1F0E12E112389F08981807F803429F066
:100770008D81805EE12C883040F082E00E944A0D3D
:100780000E947E0C91E0E82EE926A980A2949FE0C9
:10079000A922B12CF501EF53FE4D0C945D21098186
:1007A0000F70F981F07F11F00295007F1123B1F0F5
:1007B000002361F08D81805E883018F01D81111159
:1007C00009C0802F0E94A90C0E94F90C8D810E9403
:1007D000810215C0802F0E94BA0CF6CF8D810E9435
:1007E0001203002361F08D81805E883018F01D8136
:1007F000111133C0802F0E94AF0C0E94F90C98E0B9
:10080000A91AB108E4E0AE16B10420F40E9427183A
:100810000E942F02EE2009F4CEC10E947A0C80FDC6
:10082000CAC1F60112820E94740C0E945707C601C9
:100830000E9402060E94740C0F900F900F900F9070
:100840000F90DF91CF911F910F91FF90EF90DF906C
:10085000CF90BF90AF900C948807802F0E94C00C5F
:10086000CCCF29812F70F22E3981307F303219F0B0
:10087000F29480EFF8228D81882369F0813049F16C
:10088000112391F1002351F1F601858180FF9ECF64
:100890008F70858323C0112381F0011106C00E944F
:1008A000DC0C8F290E948703AACF0130C1F70E9478
:1008B000DC0C8F290E94E20CA2CF011106C00E941D
:1008C000EF0C8F2D0E948E039ACF013009F497CF41
:1008D000F6CF112329F0063008F091CF8F2DE2CF0B
:1008E000053008F08CCFEDCF002359F30D8109338B
:1008F00049F41FEF27EE33E0115020403040E1F77C
:1009000000C000008D810E94120379CF89818695F5
:100910008695837069F0813009F071CF8D8199815E
:100920009370111102C090E080E00E94731867CFAD
:100930008D8199819370111102C090E080E00E9436
:100940005D185DCF8D81112329F00E94C4120E9491
:10095000861355CF0E940D13FACF8981837009F059
:1009600050C011114CCF2D81229526952770220F52
:10097000220F4D814F7050E070E060E0022E04C005
:10098000440F551F661F771F0A94D2F70D8180E030
:1009900090E0DC0104FF0FC08FE090E0A0E0B0E049
:1009A00004C0880F991FAA1FBB1F2A95D2F78095F4
:1009B0009095A095B09519811695169513701D8385
:1009C0008C019D01042B152B262B372B09831A83B1
:1009D0002B833C831D8169817A818B819C811230BC
:1009E00051F0133059F0113019F00E94CD0607CFA5
:1009F0000E94A50604CF0E94F50601CF0E94A3061F
:100A0000FECE112309F448C0098100FFF8CE2D81E4
:100A1000229526952770220F220F4D814F7050E0AE
:100A200070E060E0022E04C0440F551F661F771F60
:100A30000A94D2F70D8180E090E0DC0104FF0FC042
:100A40008FE090E0A0E0B0E004C0880F991FAA1FDB
:100A5000BB1F2A95D2F780959095A095B0951981E6
:100A60001695169513701D838C019D01042B152B73
:100A7000262B372B09831A832B833C831D816981A5
:100A80007A818B819C81123071F0133079F01130B2
:100A900039F00E941608B3CE198111FFB0CEB7CF3E
:100AA0000E94EE07ACCE0E943E08A9CE0E9421070C
:100AB000A6CE09810F700983112329F0802F0E948F
:100AC00057078D81EFCE8D810E948E0389810E9410
:100AD000880795CE2D81223FA1F160F4203FE1F0FF
:100AE000213F41F1112309F445C001116FCE8981E5
:100AF0008F7124C03D81333F49F1343F99F7112371
:100B000079F109810F710983802F0E94570763E0F3
:100B100089810E942F0D73CE112341F0053008F01A
:100B20006ECE89818F710E94BD0769CE063008F0B4
:100B300066CEF7CF89818F71112349F20E94570742
:100B40005ECE89818F711123C9F3C1CF112329F0A2
:100B500089818F710E94320752CE0E942D074FCE9D
:100B600081E00E944A0D023008F449CE82E00E94E2
:100B70004A0D45CE002361F01D81193309F0C2CE24
:100B80002FEF37EE83E0215030408040E1F7B8CEC0
:100B900089818F719CCF49814F706D81C6010E9400
:100BA0005C010E9434092BCE49814F706D81C601D2
:100BB0000E94D70E24CE0F900F900F900F900F90A1
:100BC000DF91CF911F910F91FF90EF90DF90CF9029
:100BD000BF90AF9008950F931F93CF93DF93EC01D5
:100BE000688179818A810E940A098C010E946608C5
:100BF0000E94A206B801CE01DF91CF911F910F9103
:100C00000C949503CF93DF93EC01988189812B811C
:100C10003C81232B19F089238F3F59F4DF91CF9129
:100C20000895CE010E94EB05CE01DF91CF910C9487
:100C3000A901CE010E94D0018111F3CF0E947E0C48
:100C4000882361F38A81882349F382E0DF91CF9181
:100C50000C944A0D90E080E00E945D1890E080E0E6
:100C60000E9473180E94C80C0E94D90C0E94F90CB3
:100C70000E94B1140C9486130E946E0C0C942A06E8
:100C80000E94B70C0C943C06282F892F82958F70F8
:100C9000903C80F48A30B0F4843020F4823090F4B8
:100CA00080E008958630E1F781E0283E88F0213F1A
:100CB000B9F70EC08C3011F08F3091F793FB882775
:100CC00080F9089581E0203F39F018F4283E40F77C
:100CD0000895243F29F7FCCF0895FC01808191817C
:100CE0000E94FE080C944406CF93DF9300D000D0FE
:100CF0000F92CDB7DEB70F900F900F900F900F901F
:100D0000DF91CF910895CF93DF9300D000D000D032
:100D1000CDB7DEB726960FB6F894DEBF0FBECDBFB7
:100D2000DF91CF91089508950C9493060E94940644
:100D3000609380017093810180938201909383017D
:100D40000C942A0608950C949606CF93DF9300D056
:100D500000D0CDB7DEB769837A838B839C83809183
:100D6000800190918101A0918201B091830129813C
:100D70003A814B815C81282B392B4A2B5B2B2983B1
:100D80003A834B835C83CA01B9010F900F900F9097
:100D90000F90DF91CF910C949606CF93DF9300D004
:100DA00000D0CDB7DEB769837A838B839C83809133
:100DB000800190918101A0918201B09183012981EC
:100DC0003A814B815C81282339234A235B23298381
:100DD0003A834B835C83CA01B9010F900F900F9047
:100DE0000F90DF91CF910C949606CF93DF9300D0B4
:100DF00000D0CDB7DEB769837A838B839C838091E3
:100E0000800190918101A0918201B091830129819B
:100E10003A814B815C81282739274A275B27298320
:100E20003A834B835C83CA01B9010F900F900F90F6
:100E30000F90DF91CF910C9496060C9493060C942E
:100E40001D070E941F0760937C0170937D018093B2
:100E50007E0190937F010C942A0660E070E0CB0144
:100E60000C9421070F931F93CF93DF9300D000D0F2
:100E7000CDB7DEB741E050E060E070E08A019B0151
:100E800004C0000F111F221F331F8A95D2F7098358
:100E90001A832B833C83C901B8010F900F900F90E8
:100EA0000F90DF91CF911F910F910C9421070F9319
:100EB0001F93CF93DF9300D000D0CDB7DEB741E0D2
:100EC00050E060E070E004C0440F551F661F771FBC
:100ED0008A95D2F780917C0190917D01A0917E014D
:100EE000B0917F018A019B01082B192B2A2B3B2BE8
:100EF00009831A832B833C83C901B8010F900F909B
:100F00000F900F90DF91CF911F910F910C942107BB
:100F10000F931F93CF93DF9300D000D0CDB7DEB7F0
:100F200041E050E060E070E004C0440F551F661FD0
:100F3000771F8A95D2F7409550956095709580916E
:100F40007C0190917D01A0917E01B0917F018A0189
:100F50009B01082319232A233B2309831A832B830C
:100F60003C83C901B8010F900F900F900F90DF9153
:100F7000CF911F910F910C9421070F931F93CF9343
:100F8000DF9300D000D0CDB7DEB741E050E060E0A5
:100F900070E004C0440F551F661F771F8A95D2F773
:100FA00080917C0190917D01A0917E01B0917F01A3
:100FB0008A019B01082719272A273B2709831A83BF
:100FC0002B833C83C901B8010F900F900F900F90B5
:100FD000DF91CF911F910F910C942107CF93DF9355
:100FE00000D000D0CDB7DEB769837A838B839C8332
:100FF00080917C0190917D01A0917E01B0917F0153
:1010000029813A814B815C81282B392B4A2B5B2B20
:1010100029833A834B835C83CA01B9010F900F90F7
:101020000F900F90DF91CF910C942107CF93DF9316
:1010300000D000D0CDB7DEB769837A838B839C83E1
:1010400080917C0190917D01A0917E01B0917F0102
:1010500029813A814B815C81282339234A235B23F0
:1010600029833A834B835C83CA01B9010F900F90A7
:101070000F900F90DF91CF910C942107CF93DF93C6
:1010800000D000D0CDB7DEB769837A838B839C8391
:1010900080917C0190917D01A0917E01B0917F01B2
:1010A00029813A814B815C81282739274A275B2790
:1010B00029833A834B835C83CA01B9010F900F9057
:1010C0000F900F90DF91CF910C9421070895E92F95
:1010D000EE0FE90FE80F8E2F877041E001C0440F3B
:1010E0008A95EAF7E695E695E69585E0E89FF001B2
:1010F0001124E958FE4F30E020E070E05191DF010B
:101100001197CB01022E02C0969587950A94E2F7BB
:10111000817081958527842385278C932F5F3F4F8E
:101120002530310559F70895E92FEE0FE90FE80F43
:101130009E2F9770E695E695E69585E0E89FF0018D
:101140001124E958FE4F50E040E080E0219130E06A
:10115000092E02C0369527950A94E2F721703327AD
:10116000042E01C0220F0A94EAF7822B4F5F5F4FD3
:101170004530510559F70895BF92CF92DF92EF9213
:10118000FF920F931F93CF93DF938C01C0907C014C
:10119000D0907D01E0907E01F0907F0180918001F0
:1011A00090918101A0918201B0918301C82AD92A2E
:1011B000EA2AFB2ACFE1D0E0BC2ED701C6010C2ED3
:1011C00004C0B695A795979587950A94D2F780FDA8
:1011D0000EC0219788F7B12C8B2DDF91CF911F91F5
:1011E0000F91FF90EF90DF90CF90BF900895B801DE
:1011F0008C2F0E940510019761F3EECFCF93DF9300
:10120000D82FC92F0E94BC086D2F7C2FDF91CF9162
:101210000C9405101F93CF93DF93162FD72F909127
:101220007601992339F0862F972FDF91CF911F9167
:101230000C94FE08882391F0862F972F0E94BC08FB
:10124000C82F682F812F9D2F0E946708612F7D2F47
:101250008C2FDF91CF911F910C940510862F972F23
:101260000E949408C82FF2CFEF92FF920F931F9322
:10127000CF93DF938C01892B89F0F12CEE24E3943A
:10128000E8012196F8018491843709F458C0A0F44C
:10129000823009F43FC048F48130D1F0DF91CF9122
:1012A0001F910F91FF90EF9008959CEF980F90374A
:1012B000A8F70E9481020AC0853709F44EC09CE756
:1012C000980F903758F78F770E9412038E0116C03F
:1012D0000E5F1F4FFE01849190E2980F983060F4EA
:1012E0008770FE2D01C0FF0F8A95EAF78F2F0E94AD
:1012F000CB0C0E94F90C02C00E9481028F2D882322
:1013000009F4BECFEFE9FFE03197F1F700C000002C
:101310008150F5CF0E5F1F4FFE01849190E2980F30
:10132000983050F48770FE2D01C0FF0F8A95EAF7C0
:101330008F2F0E94D10CDDCF0E941203DFCF0E5FF2
:101340001F4FFE01C491CC23C9F28FE99FE00197A2
:10135000F1F700C00000C150F6CF0E5F1F4FFE0135
:10136000F490CCCF1F93CF93DF93E091840116E0EC
:10137000809185018E1304C0DF91CF911F91089554
:10138000CE2FD0E01E9FF0011124EA57FE4F40817E
:10139000518162817381848195810E9483062196A7
:1013A000EC2FE770E5CF4091B6015091B701609105
:1013B000B8017091B9018091BA019091BB010C9470
:1013C00083061F93CF93DF938091BB01807FA9F4A5
:1013D0008091B801882389F080918401C0918501B2
:1013E0007091B6016091B701A091B901B091BA01B5
:1013F000D62FD72316E0C81304C0DF91CF911F91D9
:10140000089590E0109711F0DF3F19F4019687706E
:10141000F2CF189F9001199F300D1124F901EA575E
:10142000FE4F41816413F2CF40814713EFCF4281D9
:101430004111ECCF438154814A1B5B0B483C510561
:1014400028F78091BB018F7080618093BB01F90107
:10145000E557FE4F80818F708061808386EB91E03D
:101460000E940206DF91CF911F910C94B209AF92B6
:10147000BF92CF92DF92EF92FF920F931F93CF9381
:10148000DF93CDB7DEB72B970FB6F894DEBF0FBE54
:10149000CDBF8C0185E0F801DE01179601900D9219
:1014A0008A95E1F7F801E280C380D48086EBA82E0C
:1014B00081E0B82E2091B6019091B7014091B90119
:1014C0005091BA014115510529F0892F82238F3F90
:1014D00009F049C1EE2009F455C1C8010E946D060A
:1014E000F82E882309F44EC186E0F801A6EBB1E09E
:1014F00001900D928A95E1F786EB91E00E947C02C3
:101500000E94E10900C18091BB01682F607F483CC7
:10151000510508F0A8C0F80131816111E0C0FE2C2E
:10152000391325C09081921322C0E11020C08F7022
:1015300080618093BB010E94D30986EB91E00E94F9
:1015400002068091BB01F80185838F2D2B960FB683
:10155000F894DEBF0FBECDBFDF91CF911F910F91E9
:10156000FF90EF90DF90CF90BF90AF9008952F81C4
:10157000CD2829F0832F82238F3F09F0ADC080E072
:10158000F82FF170DF2EE09184014091850156E043
:1015900080FD1CC0EE20C9F28091BB018160809368
:1015A000BB01F12CD2CF8E2F90E05E9FF001112471
:1015B000EA57FE4F6181361306C06081621303C093
:1015C0006281E612E7CF0196E82FE770E413EBCFD4
:1015D0008F8198850E94FE08292F22952F709032C6
:1015E00060F0225F2F70223078F49F7051F0F80184
:1015F0009581907F31F4D12C0AC09F7011F088231F
:10160000D1F3805E8830B8F3C8010E940206FD2C39
:101610009CCFC8010E946D06882309F4B3C0EE2058
:1016200009F4B0C08091BB01803270F02091B60106
:101630003091B7013A8329831B82DD82CC828E836D
:10164000CE0101960E94020686E0F801A6EBB1E009
:1016500001900D928A95E1F70E94E1090E94D30959
:10166000FF24F39472CF611151C04F815885698571
:101670007A858B850E94740686EB91E00E940206B3
:1016800086E0F50111928A95E9F70E94D30989CF86
:1016900086E0F801A6EBB1E001900D928A95E1F7A2
:1016A00054CFC8010E946D068111CECF8091BB013D
:1016B00081608093BB01C8010E94020646CF4F8122
:1016C000588569857A858B850E94740686E0F501C8
:1016D00011928A95E9F717C081E08E2551CF391311
:1016E00098CFF8019081921394CFE11092CF858327
:1016F000C8010E94020686E0F801A6EBB1E0019065
:101700000D928A95E1F70E94D3091FCFF80131812C
:1017100093137FCFF801908192137BCFE11079CFA3
:101720008583C8010E94020686E0F50111928A9520
:10173000E9F70BCFF80181819813B3CFF8018081CD
:101740008213AFCF8091BB0180FDA2CF982F907FF5
:1017500009F49ECF8583903F59F2982F907F905F38
:101760008F70892BC4CFF090B801B601641B750B44
:10177000AB01F110C8CE483C510508F0A0CFFE2CBB
:10178000E110D8CFC8010E9402066ACF1F93CF9301
:10179000DF93CDB7DEB72C970FB6F894DEBF0FBE40
:1017A000CDBF4F83588769877A878B879C87CE0107
:1017B00007960E94370A882369F08A859B85892BC2
:1017C00039F058854F81852F84238F3F09F071C0F0
:1017D00016E05FC086E0FE013796DE0111960190AB
:1017E0000D928A95E1F78F8198852091850140912E
:1017F00084016A857B85672B59F389238F3F41F3E9
:1018000030E0C9010196877099274817190671F4CD
:101810000E944006109285011092840186E0E6EB5A
:10182000F1E0DF011D928A95E9F7D2CF96E0929F11
:10183000D001939FB00D1124AA57BE4FFE013196DF
:1018400001900D929A95E1F7809385010E94B2096B
:10185000BFCF819FC00111248A579E4F0E94370A33
:101860008823E9F0E09184011E9FF0011124EA57DA
:10187000FE4F4081518162817381848195810E94F4
:1018800083068091840190E0019687709927809368
:10189000840180918401909185018913DACF2C967F
:1018A0000FB6F894DEBF0FBECDBFDF91CF911F9171
:1018B000089569857A858B859C850E94830688CFEB
:1018C000682F80910001909101010C942119682FDB
:1018D00080910001909101010C942C1980910001DC
:1018E000909101010C9437198091BC0185958595E3
:1018F000859508958091BC01877008959091BC01F1
:10190000977081E009F480E0089590912D0292FB98
:10191000222720F9281751F080FB92F990932D028D
:1019200080912C0290912D020C948D0D0895809140
:101930002D0282FB882780F991E089270C94850C81
:1019400081E00C94850C80E00C94850C8091E00182
:1019500008959091E001982B9093E0010895982FBD
:1019600090958091E00189238093E0010895109281
:10197000E00108959091DF01982B9093DF01089585
:10198000982F90958091DF0189238093DF0108953E
:101990001092DF0108959091DE01982B9093DE0163
:1019A0000895982F90958091DE0189238093DE0120
:1019B00008951092DE0108958091BD010895089563
:1019C0000C94DF0C90912D0292FD08C09091BD0106
:1019D000981721F08093BD010C94E00C089580913C
:1019E000BD01882329F01092BD0180E00C94E00C29
:1019F0000895E0910001F09101018091E001808360
:101A0000E0910001F091010180819091DF01892B2B
:101A10008083E0910001F091010180819091DE01CD
:101A2000892B80839091BD01992381F0E091000181
:101A3000F09101018081892B808380910001909138
:101A400001010E94891881110E94EF0C8091000110
:101A5000909101010C94331808950C942C0D9091E1
:101A60002D0292FD10C098E0899F90011124622BF5
:101A70006093BC010E9457078091BC0185958595B4
:101A800085950C942D0D0C9457071092BC0180E0A5
:101A90000C942D0D9091BC01809589238093BC01FD
:101AA000282F277039F4282F082E000C330B92179B
:101AB000130621F490912D0292FF07C0859585951C
:101AC00085950E9488070C94450D08956FEF7FEF70
:101AD00090E080E00C94A92190E080E00E948521B4
:101AE0009C0181E0293E3E4F09F080E0089582E0AC
:101AF00090E00C947D2183E090E00C947D21CF93C5
:101B000084E090E00E947D21C82F82E290E00E9454
:101B10007D21982F8C2FCF910895CF93682FC92FB7
:101B200084E090E00E948B216C2F82E290E0CF91C4
:101B30000C948B21AB01BC018FE090E00C949D21B3
:101B4000AB01BC0183E190E00C949D2160E070E06A
:101B5000CB010C94A00D60E070E0CB010E949A0DC7
:101B60000C94A60D69EE7EEF90E080E00E94A92122
:101B700060E082E090E00E948B2160E083E090E0F2
:101B80000E948B211092800110928101109282019B
:101B90001092830160E084E090E00E948B2160E07D
:101BA00082E290E00E948B2160E085E090E00E945C
:101BB0008B2160E086E090E00E948B216FEF87E050
:101BC00090E00E948B2140E050E0BA0188E090E074
:101BD0000E949D2160E08DE090E00E948B2140E01A
:101BE00050E0BA0188E190E00E949D2160E087E129
:101BF00090E00E948B2140E050E0BA018CE190E03F
:101C00000E949D2170E060E080E290E00E94A921A6
:101C100040E050E0BA0188E190E00E949D210C94E0
:101C2000AB0D0C94B20D682F8EE090E00C948B21DC
:101C30000E94D8196093E7017093E8018093E9014D
:101C40009093EA016093E3017093E4018093E501CE
:101C50009093E601089585B7806885BF85B7806851
:101C600085BF0895089508950C94320E08950C943C
:101C7000360E0E942B0E84EE90E10E944F1A0E94B5
:101C8000330E0C94340E81E008950C94430E0895A5
:101C900008950E94470E0C94480E0E94C3190E949A
:101CA000C4110E94D0140C94370EFF920F931F930F
:101CB000CF93DF9300D000D00F92CDB7DEB70E9454
:101CC000CF1181110E94180E80E00E943D11182F43
:101CD0008091E201082F0127811311C08FEF8983C2
:101CE0008A831B820E94CC198160782F9D838C830C
:101CF00049815A816B81892F0E9437022DC08091C2
:101D0000EB0181FD0E944311802F8170F82E00FDB0
:101D10003DC001FD3DC002FFE1CF02E094E0F92E9D
:101D20000E94450E882399F009831A821F2181E0C1
:101D300009F480E08B830E94CC198160782F9D8309
:101D40008C8349815A816B81892F0E94370280914F
:101D5000E2018F258093E2010E943D160E94A013AC
:101D60000E9427189091E1018917B1F00E9427186D
:101D70008093E1010F900F900F900F900F90DF91E3
:101D8000CF911F910F91FF900C942F0200E0C8CFCC
:101D900001E082E0F82EC4CF0F900F900F900F90CB
:101DA0000F90DF91CF911F910F91FF9008950895AB
:101DB000272F280F3327331FC901F901EE0FFF1F0B
:101DC000E80FF91FE60FF11DEE0FFF1FE455FF4F5F
:101DD000859194910895FC01EE0FFF1FEE54FF4F83
:101DE000859194910895CF93DF930E940910EC019F
:101DF000811520E5920708F043C0811530E4930770
:101E000008F0B2C0803E9105E8F4803C910508F0EE
:101E1000A0C0883A910578F4853A910508F08BC006
:101E20008130910521F00497813A910540F4CE016B
:101E3000DF91CF9108958F3B910509F07FC0D0E0ED
:101E4000C0E0F5CFC11580E2D80770F4CF3FD105CF
:101E500009F068F7C83ED10550F3CE018D5E9109B7
:101E6000D065439720F3EBCFCE01C11520E3D20715
:101E700008F475C09927D3FD74C0EC01D06CD7CF9E
:101E8000811535E5930760F5C11584E5D80708F09D
:101E90009EC0C11523E5D20778F4C11532E5D307FA
:101EA00008F082C0C11581E5D80708F460C0DC2FB6
:101EB000CC27C16FD06ABBCF9E012370332781E04E
:101EC00090E002C0880F991F2A95E2F7C695C69543
:101ED00020E2C29FE0011124C82BD92BDA68A7CFDA
:101EE00081153AE59307B0F4C11589E5D80708F0E4
:101EF0007EC0C11526E5D20708F46EC0CE01985504
:101F00008F3F910511F008F09ACFDC2FCC27C06FDE
:101F1000D06A8DCF90568115904208F090CF8D2FCA
:101F20008F710E94A11090E0982F882788279F71B9
:101F30008C2BEC015AC0A497D06479CFC85AD0E05A
:101F4000CC0FDD1FCD5BDE4F0990D881C02DD4644E
:101F50006ECF805C91090E94EB0EEC0168CF9F7000
:101F6000FACFEC01D86C63CFDF70D06A60CF9E01EE
:101F700074E0369527957A95E1F723708C2F869536
:101F80008695837030E2839FC0011124922BC37029
:101F900021E030E002C0220F331FCA95E2F7822B06
:101FA000932BEC01DC6843CF9E012370332781E043
:101FB00090E002C0880F991F2A95E2F7C695C69552
:101FC00020E2C29FE0011124C82BD92BEBCFDC2FDC
:101FD000CC27C46FD06A2BCF8C2F0E94A110C82FA2
:101FE000D0E0DC2FCC27CC27DF71D06220CF8C2F24
:101FF0008F700E94A11034E0D695C7953A95E1F70D
:10200000CF709C2FEC01D06912CF0E94D80E0C9497
:10201000F30E803E910599F1C8F48133910509F4DE
:1020200076C048F48932910509F46AC08A32910574
:1020300009F474C0089589339105D1F0823891056F
:10204000B9F08533910509F454C00895843E910593
:1020500099F138F4823E9105F9F0833E910509F13A
:102060000895863E910599F1873E9105B9F108954D
:1020700020912C022370A1F080EE90E00895209131
:102080002C0220FD52C030912D0230FF09C024FFE8
:102090004FC090E080E004C020912C0222FDF7CFD9
:1020A000089520912C0222FD46C030912D0230FD72
:1020B000E3CF24FFF5CFEDCF20912D0221FFF0CF0C
:1020C00080912C0284FDE5CF87EE90E00895209169
:1020D0002C0223FFE5CF24FDDCCFF6CF20912C028C
:1020E00023FD2CC030912D0231FFE3CF84EE90E030
:1020F000089520912C0225FFD3CF89E290E0089526
:1021000020912C0225FFCCCF85E390E0089520910B
:102110002C0226FFC5CF8AE290E0089520912C0280
:1021200026FFBECF81E390E0089589E390E0089513
:1021300083EE90E0089582EE90E0089586EE90E0C0
:10214000089590912C0292FF06C0282F2871283004
:10215000F9F4877F846093FF06C0282F2871283107
:10216000F1F4877E846120912D0220FF06C0382F74
:1021700038713830D9F4877F816021FF06C0282F5D
:1021800028712831D1F4877E816194FD877E08957E
:10219000282F24712430F9F68B7F8860DCCF282F1C
:1021A0002471243101F78B7E8861DDCF382F3171A6
:1021B000313019F78E7F8860E0CF282F21712131CF
:1021C00021F78E7E8861E1CF80E008950C94660D42
:1021D0000E94CF112FEF86E791E021508040904080
:1021E000E1F700C000000E94CF1180E00E943D1185
:1021F00080FF04C00E94E6100C942B1A08950C94E2
:10220000E810CF93DF9300D000D0CDB7DEB70E94A7
:102210006C0D811102C00E94110E0E94770D8093F7
:10222000EB010E947F0D90932D0280932C020E945F
:10223000FF100E947B0D282F30E050E040E0CA01E3
:10224000B9010E94A30680917C0190917D01A0912B
:102250007E01B0917F0189839A83AB83BC83BC01EB
:10226000CD010F900F900F900F90DF91CF910C94B4
:102270001F070C945F010C946001E82FF0E0E15D12
:10228000FD4F80810895089580EA8A95F1F70895B9
:1022900000C008950C944411F894E82FE295EF7073
:1022A000F0E041A18F7021E030E0B90102C0660F7B
:1022B000771F8A95E2F7CB01962F9095942391A3EF
:1022C00092A1892B82A37894089582E90E944C11EF
:1022D00081E90E944C1180E90E944C1184E90C9420
:1022E0004C11DF92EF92FF920F931F93CF93DF93E6
:1022F0007C01D62E062F10E00F581E4FF80180816A
:102300008F3FD1F1F894E82FE295EF70F0E091A1C2
:102310008F70C1E0D0E09E0101C0220F8A95EAF7DC
:10232000892F822B81A382A12095282322A3789430
:102330000E9448110D2C01C0CC0F0A94EAF7F70156
:1023400080814C9915C08C2BC1E0F7018083F80186
:1023500080818F3F11F00E944C116C2F8D2DDF91E9
:10236000CF911F910F91FF90EF90DF900C944A1145
:10237000C0958C23C0E0E9CFDF91CF911F910F91E1
:10238000FF90EF90DF9008950E94651110922E0249
:1023900010922F0281E00E94FF110C94B6011F934E
:1023A000CF93DF930F92CDB7DEB7198260E0CE01F5
:1023B00001960E94711161E0CE0101960E94711197
:1023C00062E0CE0101960E94711190912E028981E6
:1023D00011E0981301C010E0981380932E02212F72
:1023E00041E06FE272E08EE292E00E9400120E94F1
:1023F000BE01812F0F90DF91CF911F910895089515
:10240000FF920F931F93CF93DF93F82E092F162F70
:10241000D72FC42F222349F081E08093EE010E9440
:10242000CC199093ED018093EC018091EE0188230B
:10243000A1F08091EC019091ED010E94F8190597AF
:1024400060F0EF2DF02FA12FBD2FCF018C0F911D2C
:10245000E817F90741F41092EE01DF91CF911F9137
:102460000F91FF90089521912D93F2CF0E94491969
:102470000E94C01B0E94D91B0E94EB1B0E94490EA8
:10248000FBCF8091F50180FF12C06091070185E0CC
:10249000689FB001112475956795759567956038AB
:1024A0007105A8F561157105A1F1862F089581FFC9
:1024B00009C06091070185E0689FB00111247595FE
:1024C0006795EDCF6091070182FD0AC02091F4016C
:1024D0002223D1F09091060160910701291728F07D
:1024E00085E0689FB0011124DACF269F9001112466
:1024F00085E0829FA001839F500D1124692F70E019
:10250000CA010E942721CBCF65E070E0CECF8FE7D4
:10251000089581E008958091F50180FF0CC06091DD
:10252000030170E07595679575956795611571055F
:1025300049F1862F089581FF06C06091030170E084
:1025400075956795F3CF6091030182FD0BC0909163
:10255000F3019923A1F06091020180910301961784
:1025600038F0682F70E06038710500F38FE7089548
:10257000899FC001112470E00E942721F4CF61E0FF
:1025800070E0D7CF81E00895E3E1E80FE331E0F5B3
:10259000F0E0EF52FE4D0C945D210E9441128195B6
:1025A0008093F90108950E944112FACF0E944112CE
:1025B00081958093F80108950E944112FACF0E94FC
:1025C0008B128093FA0108950E948B128195F9CFA6
:1025D0000E948B1281958093FB0108950E948B12BB
:1025E000FACF815F990B21E030E001C0220F8A957C
:1025F000EAF78091F701822B8093F701089580918B
:10260000F50181608093F50108958091F501826064
:10261000F9CF8091F5018460F5CF4091F8018D3EAE
:1026200059F48091F90187FF0DC01092F901411111
:102630000BC01092F40108C08E3E81F48091F90124
:1026400018169CF3442381F08091FA019091FB01CC
:10265000892B09F05AC01092F30108958F3E49F476
:1026600047FFF0CF1092F8018091F9018111ECCF72
:10267000E0CF803F19F41416ACF3E4CF9091FA0147
:10268000893F29F41916F4F61092FA01DBCF8A3F3C
:1026900019F497FFD7CFF8CF9091FB018B3F29F426
:1026A00097FFD0CF1092FB01CDCF8C3F19F41916B4
:1026B000CCF3C8CF9FE0980F983090F4815F990BCE
:1026C00021E030E0B90102C0660F771F8A95E2F77A
:1026D000CB0180959091F70189238093F701B2CFC8
:1026E0008D3F31F48091F5018E7F8093F501AACF63
:1026F0008E3F21F48091F5018D7FF7CF8F3F09F058
:10270000A1CF8091F5018B7FF0CF08950E94CC1965
:102710002091F8013091F901232B21F08093F101F0
:102720009093F2012091FA013091FB01232B21F0CB
:102730008093EF019093F00186EF91E00C944E1896
:10274000CF92DF92EF92FF920F931F93CF93DF937D
:1027500000D000D000D0CDB7DEB726E0E6EFF1E044
:10276000CE010196DC0101900D922A95E1F7C0900F
:10277000F801D090F901E090FA01F090FB0110927D
:10278000F8011092F9011092FA011092FB012C2D20
:102790002D298C0191F08091F1019091F2010E941C
:1027A000F8199C018091F401882309F440C09091AC
:1027B00008019217130608F448C08E2D8F2991F056
:1027C0008091EF019091F0010E94F8199C01809195
:1027D000F301882309F478C090910401921713063D
:1027E00008F480C08091F8019091F901892B9091B3
:1027F000FA01892B9091FB01892B11F00E9486131D
:1028000086E0F801A6EFB1E001900D928A95E1F71C
:1028100026960FB6F894DEBF0FBECDBFDF91CF91E5
:102820001F910F91FF90EF90DF90CF90089540910E
:1028300009019AE0499FA00111244217530708F0AB
:10284000BCCF8F5F8093F40102C08F3FD1F7CC20C3
:1028500059F00E9441129FEF1C140CF491E0899FE3
:10286000802D11248093F801DD2059F00E9441123F
:102870009FEF1D140CF491E0899F802D112480930B
:10288000F9013091F801332309F497CF2091F90130
:10289000222309F492CF45EB3403C001112499237C
:1028A00059F09093F80145EB240390011124332350
:1028B00039F03093F90181CF81E08093F801F3CFB3
:1028C00081E08093F90179CF409105019AE0499F19
:1028D000A00111244217530708F084CF8F5F809323
:1028E000F30102C08F3FD1F7EE2059F00E948B1206
:1028F0009FEF1E140CF491E0899F802D112480938A
:10290000FA01FF2059F00E948B129FEF1F140CF464
:1029100091E0899F802D11248093FB013091FA0171
:102920002091FB01332309F45DCF222309F45ACF10
:1029300045EB3403C0011124992359F09093FA0117
:1029400045EB240390011124332339F03093FB012C
:1029500049CF81E08093FA01F3CF81E08093FB01BE
:1029600041CF86E0E6EFF1E0DF011D928A95E9F7BD
:102970001092F4011092F3011092F501089586E08F
:1029800090E00C947D21682F86E090E00C948B21E0
:10299000E0E3F2E080818470896180830C94C31449
:1029A0000E946C0D811104C00E94110E0E94C81477
:1029B0000E94BF1480933002803220F087708861BB
:1029C0008093300290913002892F817090FF04C073
:1029D000892F8695869586950C94D0158091300226
:1029E000982F969596959695883140F49F5F990F0C
:1029F000990F990F8770892B809330028091300254
:102A00008160809330020E94C314809130028695C9
:102A1000869586950C94D01580913002982F987FDA
:102A200079F0885080933002887F91E009F490E03B
:102A30008091300290FB80F9809330020E94C31491
:102A4000809130028695869586950C94D01580915C
:102A5000300280FD13C0816080933002813019F410
:102A600089E080933002809130020E94C3148091EB
:102A700030028695869586950C94D01508958091A0
:102A8000300280FF08C08E7F809330020E94C31402
:102A900080E00C94D01508958091300280FD0C9454
:102AA0003F150C94271590913002892F86958695B5
:102AB00086958F5F8F719770843020F4880F880F10
:102AC000880F982B9093300280913002887F91E09C
:102AD00009F490E08091300290FB80F980933002FD
:102AE0000E94C314809130028695869586950C9439
:102AF000D015843008F083E0909130029770282F31
:102B0000220F220F220F922B90933002987F21E008
:102B100009F420E09091300220FB90F9909330026C
:102B20000C94D0150E947915809130020C94C31436
:102B30009C01FB018281882361F12F3BFCE53F076B
:102B4000F9F060F42D3BECE53E07A9F02E3BFCE5E7
:102B50003F0799F02C3B3C4549F00895203CECE5BB
:102B60003E0789F0213C3C4589F0089583E00E94AE
:102B7000921580E0089580E0FACF0E940C15F9CFFD
:102B80000E94EE14F6CF0E944C15F3CF0E9453150D
:102B9000F0CF81E00895269A2E9808952E980895F2
:102BA000CF93DF93CDB7DEB728970FB6F894DEBF8B
:102BB0000FBECDBF8983843060F581112CC0809118
:102BC00080008F7D809380000E94CE154981242F44
:102BD00030E0AFEFBFEF0E94632123E030E040E040
:102BE00050E00E943B21C9012C3764E13607C8F44C
:102BF00069E070E00E94132170938B0060938A005B
:102C000028960FB6F894DEBF0FBECDBFDF91CF91EF
:102C1000089523E029838091800080628093800062
:102C2000D5CF2A50374D4F4F5F4FB42FA32F922F40
:102C30008827BC01CD0125EF38E241E050E00E9439
:102C40003B2129833A834B835C83CA01B9010E94EB
:102C500003219B01AC0169817A818B819C810E9457
:102C60000321BB27A92F982F872FBC010097A140D4
:102C7000B10511F66FEF7FEFBFCF08950E94CB151E
:102C800082E28093800089E1809381008FEF9FEF43
:102C900090938700809386000C94D0140F931F9319
:102CA000CF93DF93C42FD22FFC0182818823C9F0F8
:102CB0004093FE010E94CC199093FD018093FC018A
:102CC00080E28C0F883008F050C0C77081E001C0EE
:102CD000880FCA95EAF7DF91CF911F910F910C945D
:102CE00087031091FE01141335C08091FC0190916F
:102CF000FD010E94F819883C910560F5C0E2CD0FF6
:102D00001D17B9F080E2810F883040F4177081E020
:102D100001C0880F1A95EAF70E948E03C83048F464
:102D200081E09D2F977001C0880F9A95EAF70E9465
:102D30008703802F0E947F03C830B8F4D77081E0EA
:102D400001C0880FDA95EAF7DF91CF911F910F91BB
:102D50000C948E0380E28C0F883038F4C77081E0C9
:102D600001C0880FCA95EAF7EFCFDF91CF911F918D
:102D70000F9108950F939C01CB01243F4CE534073C
:102D8000A1F190F4293DFCE53F0749F12A3D4CE5CE
:102D90003407E9F1283D3C45C1F0FC0182818823DC
:102DA000E1F11092FE0119C0263FFCE53F0719F141
:102DB000273F4CE5340729F1253F3C4571F707E2F1
:102DC00025EE44EE65EF7CE505C006E221EE41EE1E
:102DD00068ED7CE50E944E1680E00F91089507E2B1
:102DE00025EE45EE69ED7CE5F5CF06E221EE40EEFD
:102DF00064EF7CE5EFCF06E221EE42EE66EF7CE584
:102E0000E9CF07E225EE46EE67EF7CE5E3CF08E287
:102E100021E045EE6AED7CE5DDCF81E0DECFCF93AA
:102E2000DF93EC01FB018281882309F4DFC0C43009
:102E3000FDE5DF0710F5CB3F9CE5D90730F49E0197
:102E400022503C4524313105E0F40E947F0D9093DF
:102E50002D0280932C02C631FCE5DF0710F5C2304D
:102E60008CE5D80788F480912C0290912D020E9465
:102E70008D0D0E94400680E004C0C236EDE5DE07FD
:102E800021F3DF91CF910895FE01E350FC4580913D
:102E90002C028160E331F10518F5EC51FE4D0C94E4
:102EA0005D21C4309DE5D90770F4CB3FECE5DE072A
:102EB000D0F2FE01EC5FFC45E830F105E0F4E950AA
:102EC000FE4D0C945D21C236DD4569F690912C02D1
:102ED000892F8F7E94FF806103C080912C028260D5
:102EE00080932C02C0CF80912C028460F9CF809116
:102EF0002C028860F5CF80912D02816080932D0295
:102F0000B2CF80912D028260F9CF80912C02806136
:102F1000E7CF80912C028062E3CF80912C02806405
:102F2000DFCF0E94400680912C028068D9CF80912B
:102F30002C028C60D5CF80912D028360DFCF8091F1
:102F40002C028E7FCDCF80912C028D7FC9CF8091B6
:102F50002C028B7FC5CF80912C02877FC1CF8091BF
:102F60002D028E7FCBCF80912D028D7FC7CF809198
:102F70002C028F7EB5CF80912C028F7DB1CF8091B6
:102F80002C028F7BADCF0E94400680912C028F7760
:102F9000A7CF80912C02837FA3CF80912D028C7FBD
:102FA000ADCF80912C0282FB992790F921E09227E6
:102FB00090FB82F990FB83F993CF80912D02982F9B
:102FC000909591708E7F892B90FB81F997CF0E940D
:102FD000400690912C02892F97FB87F9805880CF6B
:102FE00081E00E94130E3FCF80E0FBCF81E049CF0C
:102FF000CF93DF93EB0186319C4511F50E94A60C1F
:103000009A81992399F08A7A91E009F490E090935B
:10301000FF01811109C089E20E94600C0E94F90C35
:1030200080E0DF91CF91089585E3F6CF8091FF0195
:10303000811104C089E20E94670CF0CF85E3FBCFC9
:1030400081E0EFCF90930502809304020895E09110
:103050000402F0910502309721F00190F081E02DFB
:10306000099480E00895DC01E0910402F0910502EA
:10307000309799F080911401882351F080912C02AF
:1030800087FF06C08C9111968C93119785E08C93E5
:103090000280F381E02DCD0109940895DC01E091D7
:1030A0000402F0910502309739F082E08C9304809D
:1030B000F581E02DCD01099408952091020230910F
:1030C00003022817390771F09093030280930202DC
:1030D000E0910402F0910502309721F00680F7811B
:1030E000E02D0994089520910002309101022817E3
:1030F000390771F09093010280930002E09104027D
:10310000F0910502309721F00084F185E02D0994BB
:103110000895FC01329680911401882321F080915A
:103120002C029EE187FF96E080E0915008F408951C
:1031300021912223D1F38F5FF8CF9C01662301F107
:10314000809114018823F1F080912C0287FF1AC02E
:10315000462F469546954695603F90F4677081E00E
:1031600090E002C0880F991F6A95E2F7240F311D85
:10317000F901228130E02823392381E0232B71F4E7
:1031800080E00895F9013296285F3F4F81918617BC
:1031900021F0E217F307D1F7F3CF81E008959C0106
:1031A000FC0132968FEF90E04191461751F08F3F2E
:1031B00019F4411101C0892F9F5F9630A9F78F3F05
:1031C00009F40895280F311D87FD3A95F9016283AE
:1031D00008959C01FC013296285F3F4F8191861330
:1031E00003C0DF0111971C92E217F307B9F70895A6
:1031F000FC01862F869586958695603F60F4E80FE2
:10320000F11D677021E030E001C0220F6A95EAF7F6
:103210008281822B82830895FC01862F8695869574
:103220008695603F68F4E80FF11D677081E090E0DB
:1032300001C0880F6A95EAF780959281892382837D
:10324000089520911401222329F020912C0227FDBA
:103250000C94F8180C94CF1820911401222329F013
:1032600020912C0227FD0C940C190C94E918FC01F8
:10327000329680911401882351F080912C0287FFAF
:1032800006C08EE1DF011D928A95E9F7089586E078
:10329000F9CF0895089508950C944B19809139023F
:1032A000843061F10E944C1980E00E94D01580E0CA
:1032B0000E942F021092060288E190E020E40FB6EF
:1032C000F894A895809360000FBE2093600083B7A8
:1032D000817F846083BF83B7816083BF7894889542
:1032E00083B78E7F83BF0FB6F894A8958091600056
:1032F000886180936000109260000FBE0895089569
:103300000E944A190E94CF110E947F1980E00E94FA
:103310003D11982F81E0911101C080E0089508953A
:103320000C948F190E9440060E94D0140E94271806
:103330000E942F020C9490191F921FB61F92112405
:103340008F939F93AF93BF9380910602811113C017
:103350008091310290913202A0913302B0913402F7
:103360004196A11DB11D8093310290933202A0932A
:103370003302B0933402BF91AF919F918F911F9010
:103380001FBE1F90189582E084BD93E095BD9AEF13
:1033900097BD80936E0008952FB7F8948091310205
:1033A00090913202A0913302B09134022FBF089560
:1033B000CF93DF9300D000D0CDB7DEB78FB7F894AE
:1033C0002091310230913202409133025091340207
:1033D00029833A834B835C838FBF69817A818B8198
:1033E0009C810F900F900F900F90DF91CF910895D7
:1033F0009C014FB7F8948091310290913202A091D4
:103400003302B09134024FBF821B930B089578941E
:103410001F921FB61F9211248F939F93AF93BF9358
:103420008091310290913202A0913302B091340226
:103430000196A11DB11D8093310290933202A09399
:103440003302B0933402BF91AF919F918F911F903F
:103450001FBE1F90189581E08093E00080E280936A
:10346000D8001092C9008FE19EE40197F1F700C0E7
:10347000000087E090EBDC018093420290934302CE
:10348000A0934402B093450288E19CE00FB6F89403
:10349000A895809360000FBE90936000FFCF90933B
:1034A000750180937401089580912A020895909186
:1034B0003902943031F580930702609308027093CB
:1034C000090282E08093E9008FEF9091E80081503B
:1034D00095FD06C095ED9A95F1F700008111F5CFA5
:1034E0008091E80085FF0DC050E040E063E070E0AF
:1034F00087E092E00E94781C8091E8008E778093AC
:10350000E8000895BC0184E00C94571ABC0183E0E4
:103510000C94571A22E02093E9002FEF3091E80035
:10352000215035FD06C035ED3A95F1F70000211127
:10353000F5CF2091E80025FF0BC050E040E066E0A9
:1035400070E00E94781C8091E8008E778093E800FC
:103550000895CF93DF93D82FC92F8091140188232A
:10356000C1F180912C0287FF34C060E282E0809339
:10357000E9008FEF9091E800815095FD06C095ED30
:103580009A95F1F700008111F5CF8091E80085FF51
:103590001DC08091140170E050E040E0811104C032
:1035A00050E040E068E070E08D2F9C2F0E94781C76
:1035B0008091E8008E778093E80080E2ED2FFC2F69
:1035C000AAE0B2E001900D928A95E1F7DF91CF91E8
:1035D000089568E081E0CBCF80913802811109C065
:1035E0000E94001E0E945D1E8091E2008460809314
:1035F000E2000895109238020895089508950895FC
:1036000042E061EC81E00E947C1D42E261EC82E0DC
:103610000C947C1D80913B02893089F148F4823002
:1036200009F49DC0833009F458C0813041F00895F9
:103630008A3009F484C08B3009F46AC008958091FF
:103640003A02813A09F048C08091E800877F809370
:10365000E80080913E0290913F02892B61F460E284
:103660008AE092E070E00E94C71C8091E8008B77AE
:103670008093E800089560E090E080E0F3CF8091CF
:103680003A02813249F580913E0290913F020297C1
:1036900018F58091E800877F8093E8008091E8002A
:1036A00082FF16C09091F3008091F200029729F4F6
:1036B0008091F1008B7F813021F48091F100809323
:1036C0002A028091E8008B778093E8000C94B01D6B
:1036D000809139028111E2CF089580913A02813AB6
:1036E000D9F780913E0290913F02892BA9F78091F2
:1036F000E800877F8093E8008091E80080FFFCCF9E
:10370000809114018093F1008091E8008E77DCCFE6
:1037100080913A02813201F780913E0290913F02FE
:10372000892BD1F68091E800877F8093E8000E9482
:10373000B01D80913C02809314010C94400680914E
:103740003A02813249F68091E800877F8093E80051
:103750000E94B01D80913D0280932B0208958091BC
:103760003A02813A09F0B8CF8091E800877F8093D0
:10377000E8008091E80080FFFCCF80912B02C2CF4F
:1037800084B7877F84BF0FB6F894A89580916000B6
:10379000886180936000109260000FBE80E890E026
:1037A0000FB6F89480936100909361000FBE0C9463
:1037B000390E0E94001E0E945D1EE2EEF0E0808144
:1037C0008460808378940E94E9200E944D0E8AE0F4
:1037D00091E00C94221880913902853031F4809167
:1037E0003902853021F00E9492190C94550E0E94E6
:1037F0004E1980913702882391F30E948019882303
:1038000071F30E94621C0E944006E9CF0C94081CD0
:10381000FC01CB01DA012F2F332723303105D1F002
:1038200070F42130310509F43EC02230310569F4CD
:103830008BE390E022EE30E02D933C93089521320B
:103840003105E9F02232310521F190E080E030E0ED
:1038500020E0F2CFCF019927E13059F08230910575
:1038600059F0EEEDF0E0892B81F7849190E09F0113
:10387000E3CFE6ECF0E0F9CFE2EBF0E0F6CF892B16
:10388000B9F06130710509F789E090E02DE031E091
:10389000D3CF892B91F061307105B9F686EB90E0BA
:1038A0002FE231E0C9CF82E190E02DE131E0C4CFD9
:1038B00089E090E024EF30E0BFCF80E490E025EE97
:1038C00031E0BACF80E189BD82E189BD09B400FE53
:1038D000FDCF8091D8008F7D8093D8008091E0004B
:1038E00082608093E0008091E00081FDFCCF08952C
:1038F000AF92BF92CF92DF92FF920F931F93CF931D
:10390000DF936C01EB018A010E94CF1DF82E81111B
:1039100023C00115110539F0F80180819181C81B80
:10392000D90BC80ED91EB12CA12C2097A9F08091DB
:10393000E80085FD22C08091E8008E778093E80042
:1039400001151105A1F0F801808191818A0D9B1D5F
:103950009183808385E0F82E8F2DDF91CF911F9189
:103960000F91FF90DF90CF90BF90AF9008950E948D
:10397000CF1D8823D1F2F82EEFCFF60181916F0190
:103980008093F1002197FFEFAF1ABF0ACECFFC0161
:10399000CB0120914002309141022617370790F069
:1039A000009729F42091E8002E772093E80040E06A
:1039B000009751F4411108C08091E80082FF31C0A6
:1039C00080E00895C901F3CF209139022223A9F1A3
:1039D0002530A9F12091E80023FD2DC02091E800B9
:1039E00022FDEACF2091E80020FFE2CF3091F300E2
:1039F0002091F200009719F02830310558F041E08D
:103A00002830310509F040E02091E8002E7720931E
:103A1000E800CECF41914093F10001972F5F3F4FD7
:103A2000E9CF80913902882341F0853041F08091BF
:103A3000E80083FFC1CF81E0089582E0089583E02C
:103A40000895FC01CB0120914002309141022617DC
:103A5000370790F0009729F42091E8002E77209303
:103A6000E80040E0009751F4411108C08091E8005F
:103A700082FF32C080E00895C901F3CF209139025E
:103A80002223B1F12530B1F12091E80023FD2EC0B1
:103A90002091E80022FDEACF2091E80020FFE2CF4C
:103AA0003091F3002091F200009719F02830310591
:103AB00058F041E02830310509F040E02091E8005D
:103AC0002E772093E800CECF44914093F1003196B9
:103AD00001972F5F3F4FE8CF80913902882341F053
:103AE000853041F08091E80083FFC0CF81E00895E8
:103AF00082E0089583E00895982F973028F08F7022
:103B00008093E90081E008959093E900242F762FB7
:103B100050E0981731F07091EC002091ED00509139
:103B2000F00021FD02C09F5FE8CF3091EB003E7FA7
:103B30003093EB003091ED003D7F3093ED003091FC
:103B4000EB0031603093EB007093EC002093ED00BC
:103B50005093F0002091EE0027FDE5CF80E008951E
:103B600080913A0287FF13C08091E80082FF06C06F
:103B70008091E8008B778093E80004C0809139023F
:103B80008111F2CF0895809139028823D9F3809171
:103B9000E80080FFF8CF8091E8008E77ECCF20918D
:103BA000E4003091E50095E6A9012091EC00822F18
:103BB000817020FF06C08091E80080FF06C080E091
:103BC00008952091E80022FD1AC0809139028823CF
:103BD00089F0853089F08091EB0085FD0FC0209140
:103BE000E4003091E50042175307F9F29150E1F6F5
:103BF00084E0089582E0089583E0089581E00895C7
:103C00000E946E1E0E94761EE0EEF0E080818160D0
:103C10008083E8EDF0E080818F77808319BCA7ED89
:103C2000B0E08C918E7F8C9380818F7E8083109208
:103C3000380208950F931F93CF93DF930E946E1E57
:103C40000E94761EC8EDD0E088818F7788838881B6
:103C50008068888388818F7D888319BC109239029F
:103C600010923502109237021092360200EE10E0E8
:103C7000F80180818B7F808388818160888342E026
:103C800060E080E00E947C1DE1EEF0E080818E7FAC
:103C90008083E2EEF0E080818160808380818860B3
:103CA0008083F80180818E7F808388818061888312
:103CB000DF91CF911F910F910895E8EDF0E08081A1
:103CC0008F7E8083E7EDF0E080818160808384E0F7
:103CD00082BF81E0809338020C941A1EE8EDF0E078
:103CE00080818E7F80831092E20008951092DA0026
:103CF0001092E10008951F920F920FB60F921124B7
:103D00002F933F934F935F936F937F938F939F93E3
:103D1000AF93BF93EF93FF938091E10082FF0BC0BD
:103D20008091E20082FF07C08091E1008B7F809349
:103D3000E1000E94E8208091DA0080FF19C08091A4
:103D4000D80080FF15C08091DA008E7F8093DA0062
:103D50008091D90080FF94C080E189BD82E189BD56
:103D600009B400FEFDCF81E0809339020E94EC1A75
:103D70008091E10080FF19C08091E20080FF15C0B2
:103D80008091E2008E7F8093E2008091E20080616A
:103D90008093E2008091D80080628093D80019BCA3
:103DA00085E0809339020E94FE1A8091E10084FF31
:103DB00029C08091E20084FF25C080E189BD82E1B5
:103DC00089BD09B400FEFDCF8091D8008F7D80931E
:103DD000D8008091E1008F7E8093E1008091E20025
:103DE0008F7E8093E2008091E20081608093E20008
:103DF00080913502882309F449C084E08093390218
:103E00000E94FF1A8091E10083FF29C08091E200A7
:103E100083FF25C08091E100877F8093E10082E0ED
:103E200080933902109235028091E1008E7F809359
:103E3000E1008091E2008E7F8093E2008091E200B9
:103E400080618093E20042E060E080E00E947C1D9F
:103E50008091F00088608093F0000E94FD1AFF912D
:103E6000EF91BF91AF919F918F917F916F915F91F2
:103E70004F913F912F910F900FBE0F901F9018956B
:103E800019BC109239020E94FA1A72CF8091E30095
:103E900087FD02C081E0B2CF83E0B0CF1F920F92C6
:103EA0000FB60F921124FF920F931F932F933F93FE
:103EB0004F935F936F937F938F939F93AF93BF9332
:103EC000CF93DF93EF93FF9309EE10E0F801808129
:103ED000C091EC00C795CC27C7958F70FC2EF82AAF
:103EE0001082C0EFD0E08881877F888378940E9419
:103EF000971FF8011082888188608883CF2DCF704A
:103F0000C083FF91EF91DF91CF91BF91AF919F91CE
:103F10008F917F916F915F914F913F912F911F9161
:103F20000F91FF900F900FBE0F901F9018951F9349
:103F3000CF93DF93CDB7DEB7AA970FB6F894DEBF65
:103F40000FBECDBF8AE392E0FC0101962091F10003
:103F5000208322E082349207B9F70E940A1B8091E5
:103F6000E80083FF1DC180913A0290913B029A3094
:103F700008F016C1E92FF0E0E150FE4D0C945D21F0
:103F8000803899F0823809F00BC180913E028F7021
:103F9000873008F005C18093E9008091EB0085FB34
:103FA000882780F91092E90006C08091360290912E
:103FB0003702911182609091E800977F9093E8001A
:103FC0008093F1001092F1008091E8008E77E4C0B8
:103FD000882309F4D2C0823009F0E2C080913C020B
:103FE0008111D5C080913E028F702FEF280F2630AF
:103FF00008F0D6C08093E9002091EB0020FFC7C0F5
:10400000933031F48091EB0080628093EB00BFC06D
:104010009091EB0090619093EB0021E030E001C0C3
:10402000220F8A95EAF72093EA001092EA00809125
:10403000EB008860EACF8111B3C010913C021F777A
:104040008091E3008078812B8093E3008091E800E9
:10405000877F8093E8000E94B01D8091E80080FF78
:10406000FCCF8091E30080688093E30082E011112F
:1040700083E08093390294C08058823008F090C069
:1040800080913C0290913D028C3D23E0920799F58E
:1040900083E08A838AE289834FB7F894DE0113961E
:1040A00020E03EE051E2E32FF0E05093570084918E
:1040B00020FF03C082958F703F5F8F708A30C8F0F9
:1040C000895C90E08D939D932F5F243161F74FBF02
:1040D0008091E800877F8093E8006AE270E0CE017B
:1040E00001960E94C71C8091E8008B778093E800BE
:1040F00057C0805DE6CF60913E0270913F02AE01F5
:104100004F5F5F4F0E94061CBC01892B09F448C019
:104110008091E800877F8093E80089819A810E94DE
:10412000211DE1CF8038E1F58091E800877F809301
:10413000E800809135028093F10046CF811130C0B4
:1041400090913C02923060F58091E800877F8093E7
:10415000E800909335020E94B01D809135028823BB
:1041600011F084E005C08091E30087FDFACF81E083
:10417000809339020E94001B13C080913C02813061
:1041800079F481E0933009F080E080933702109257
:10419000E9008091E800877F8093E8000E94B01DCD
:1041A0008091E80083FF0AC08091E800877F8093B8
:1041B000E8008091EB0080628093EB00AA960FB636
:1041C000F894DEBF0FBECDBFDF91CF911F91089550
:1041D0000895CF9380913902882399F08091E90066
:1041E000C091EC00C795CC27C7958F70C82B109253
:1041F000E9008091E80083FD0E94971FCF70C09373
:10420000E900CF910895DB018F939F930E94722163
:10421000BF91AF91A29F800D911DA39F900DB29F62
:10422000900D11240895AA1BBB1B51E107C0AA1FC2
:10423000BB1FA617B70710F0A61BB70B881F991F47
:104240005A95A9F780959095BC01CD01089597FBEB
:10425000072E16F4009407D077FD09D00E94132191
:1042600007FC05D03EF4909581959F4F0895709579
:1042700061957F4F0895A1E21A2EAA1BBB1BFD0179
:104280000DC0AA1FBB1FEE1FFF1FA217B307E40735
:10429000F50720F0A21BB30BE40BF50B661F771F8D
:1042A000881F991F1A9469F760957095809590956D
:1042B0009B01AC01BD01CF010895EE0FFF1F0590DA
:1042C000F491E02D0994A29FB001B39FC001A39F78
:1042D000700D811D1124911DB29F700D811D11243F
:1042E000911D08950E946321A59F900DB49F900D8C
:1042F000A49F800D911D11240895F999FECF92BDC0
:1043000081BDF89A992780B50895A8E1B0E042E010
:1043100050E00C94B121262FF999FECF92BD81BDBA
:10432000F89A019700B4021639F01FBA20BD0FB6F3
:10433000F894FA9AF99A0FBE08950396272F0E94CF
:104340008C210E948B21252F0E948C21242F0C94DC
:104350008C210196272F0E948C210C948B21DC014B
:10436000CB01FC01F999FECF06C0F2BDE1BDF89A80
:10437000319600B40D9241505040B8F70895F8942A
:10438000FFCFCF03CF03310431048604A204FF031F
:10439000FF03AD0459056A056A05CB05FF03FF035A
:1043A000D405CD12D312D612DC12F112F112F11291
:1043B000F112F112F112F112F112DF12E412E8120D
:1043C000EE12FF12051309136D1773177717851770
:1043D00089178D17911797179F17A317A717AB1753
:1043E000B717BB17BF17C317C917E717D11781171F
:1043F000AF17B3179B17CD17DD17F017F417C01FB2
:10440000E81FD020E81FD0201B203C20D020922085
:024410009E20EC
:10441200BE012808641E140A321E541AA91A8A1AE6
:10442200861A821A01E200E900EA00B500B600B776
:1044320000CD008301CC008A019201940121022364
:104442000224022502260227022A02B300B4006FC8
:10445200007000E200E900EA00B500B600B700CD46
:10446200008301CC008A01920194012102230224DB
:10447200022502260227022A02B300B4006F00704E
:044482000092919083
:00000001FF
