:100000000C9482050C94C9050C94C9050C941C250C
:100010000C94C9050C94C9050C94C9050C94C90528
:100020000C94C9050C94C9050C94762C0C944A2D9B
:100030000C94CF270C94C9050C94C9050C94C905E0
:100040000C94C9050C94C9050C94C9050C94C905F8
:100050000C94C9050C9442280C94C9050C94C9054C
:100060000C94C9050C94C9050C94C9050C94C905D8
:100070000C94C9050C94C9050C94C9050C94C905C8
:100080000C94C9050C94C9050C94C9050C94C905B8
:100090000C94C9050C94C9050C94C9050C94C905A8
:1000A0000C94C9050C94C9050C94C90500050105FB
:1000B0000205030504050505000601060206030600
:1000C00004060506000701070207030704070507E2
:1000D00000080108020803080408050800090109CE
:1000E00002090309040905090000010002000300D8
:1000F00004000500000101010201030104010501E2
:1001000000020102020203020402050200030103CD
:1001100002030303040305030004010402040304AF
:10012000040405040101AC000101AB000101AE00B3
:1001300001012B004D6F72650A536869740A3132F0
:100140003334353637383930002057504D000A0ADD
:10015000004350534C4B000A0A0A00556E64656612
:100160000A0041444A0A004C57520A005253450AB9
:100170000047414D45520A00424153450A004C4157
:10018000594552000A0A00556E6465660047414DA4
:10019000455200517772740A0057494E004D414351
:1001A00000004D4F4445000A0A002D001E001F00AC
:1001B000200021002200165C14001A00080015001F
:1001C00017002B0004001600070009000A00E100D8
:1001D0001D001B000600190005002F00E000E300D1
:1001E0006A5D2C00A8002E002700260025002400B0
:1001F00023003100130012000C0018001C00340012
:1002000033000F000E000D000B002A0038003700ED
:1002100036001000110030004C00E200655D28003F
:10022000685D29001E001F002000210022002B0015
:1002300014001A00080015001700E0000400160062
:10024000070009000A00E1001D001B00060019005C
:100250000500645D0C001000E2000100A8002E0003
:10026000270026002500240023003100130012007F
:100270000C0018001C00340033000F000E000D00AD
:100280000B002A0038003700360010001100665DB0
:100290004C00E200655D0100685D3A003B003C00F7
:1002A0003D003E003F00350000000000000000005F
:1002B0000000695D000000000000000000003962DD
:1002C000000000000000000000000000010001002C
:1002D00001000100010045004400430042004100CC
:1002E00040000000000000000000000000000000CE
:1002F00000004F00520051005000010000000000BB
:1003000000000000000000000100010001000100E9
:1003100001000100010001000100010001003500A1
:1003200000001A140000000000000100000000009E
:10033000000000000000E1001D14000000000000AB
:1003400000000000010001000100010001000100A7
:100350000100010001000100010000000000000098
:10036000000000000000000000000F14000000006A
:1003700000002A0000000000000000000000000053
:100380000100010001000100010000000000000068
:100390000000000000000000635D0000000000009D
:1003A000000000000000015D00000000675D01002A
:1003B000000000000000000000000000010001003B
:1003C000010001000000005C0000000000000000CF
:1003D000000000000000000000000000000000001D
:1003E0000000A900A800AA00000001000000AB0066
:1003F000AE00AC000000000001000100010001009F
:10040000000000000000000000002A2B280000006F
:1004100000000000000000000000000000290000B3
:1004200000002C1E3420212224342627252E362D90
:100430003738271E1F202122232425263333362E2A
:1004400037381F0405060708090A0B0C0D0E0F109C
:100450001112131415161718191A1B1C1D2F3130E1
:10046000232D350405060708090A0B0C0D0E0F1085
:100470001112131415161718191A1B1C1D2F3130C1
:10048000354C0000000000000000000000000000EB
:10049000000000000000000000000000000000005C
:1004A0000000000000007E0F00D4FFFFFFC7000027
:1004B000007800AE00AF00DA0281FFD9F1DB20A4A2
:1004C000A62EAF00A0C000A1C800AED580A81FD343
:1004D00000408D14200007087F0807003E5B4F5B3B
:1004E0003E003E6B4F6B3E001C3E7C3E1C00183CA9
:1004F0007E3C18001C577D571C001C5E7F5E1C0054
:1005000000183C180000FFE7C3E7FF00001824189C
:100510000000FFE7DBE7FF0030483A060E0026291F
:1005200079292600407F05050700407F05253F000B
:100530005A3CE73C5A007F3E1C1C0800081C1C3E2D
:100540007F0014227F2214005F5F005F5F000609B6
:100550007F017F00006689956A00606060606000CE
:1005600094A2FFA2940008047E04080010207E20BC
:10057000100008082A1C0800081C2A0808001E1081
:10058000101010000C1E0C1E0C0030383E383000CD
:10059000060E3E0E060000000000000000005F0096
:1005A0000000000700070000147F147F1400242AB5
:1005B0007F2A120023130864620036495620500037
:1005C000000807030000001C224100000041221C1B
:1005D00000002A1C7F1C2A0008083E080800008032
:1005E0007030000008080808080000006060000083
:1005F0002010080402003E5149453E0000427F4061
:1006000000007249494946002141494D3300181400
:10061000127F10002745454539003C4A49493100C1
:1006200041211109070036494949360046494929FF
:100630001E0000001400000000403400000000080C
:100640001422410014141414140000412214080050
:100650000201590906003E415D594E007C121112FB
:100660007C007F49494936003E41414122007F419B
:1006700041413E007F49494941007F090909010084
:100680003E41415173007F0808087F0000417F41CF
:1006900000002040413F01007F08142241007F40BC
:1006A000404040007F021C027F007F0408107F0052
:1006B0003E4141413E007F09090906003E4151216A
:1006C0005E007F0919294600264949493200030185
:1006D0007F0103003F4040403F001F2040201F009B
:1006E0003F4038403F00631408146300030478045B
:1006F00003006159494D4300007F4141410002041C
:1007000008102000004141417F0004020102040062
:100710004040404040000003070800002054547847
:1007200040007F284444380038444444280038447A
:1007300044287F0038545454180000087E090200F1
:1007400018A4A49C78007F080404780000447D402D
:1007500000002040403D00007F1028440000004180
:100760007F4000007C04780478007C080404780052
:10077000384444443800FC18242418001824241851
:10078000FC007C0804040800485454542400040469
:100790003F4424003C4040207C001C2040201C00A2
:1007A0003C4030403C004428102844004C9090903D
:1007B0007C004464544C44000008364100000000B2
:1007C0007700000000413608000002010204020028
:1007D0003C2623263C00000000000000404040F082
:1007E000F8F8FF38FFF8F83FF8F8FF38FFF8F8F0AE
:1007F00040404000000000000080C0C0C0800000F9
:10080000C0C08000000080C0C000C0C0000080C028
:10081000C00000000000C0C0C0C0C000C0C00000D8
:1008200000000000000000000000000000000000C8
:1008300000000000000000000000000000000000B8
:1008400000000000000000000000000000000000A8
:100850000000000000C0F0F8FC3E1E060100000091
:100860007F4141417F007F4141417F000080C0E0E6
:100870007E5B4F5BFEC00000C000DCD7DEDEDED753
:10088000DC00C000000000000000000000000000CC
:10089000000000000000000000000000494949FF7E
:1008A000FFFFFFE0DFBFBF00BFBFDFE0FFFFFFFFD5
:1008B00049494900000000001F3F6060E0BF1F0081
:1008C0007F7F071E381E077F7F007F7F0E1F3B71D3
:1008D0006000000000007F7F0C0C0C007E7E007F1B
:1008E0007E0303007F7E03037E7E03037F7E000F73
:1008F0003E703C063C703E0F00327B49493F7E0013
:100900007F7E0303001E3F69696F26000000000020
:100910000000000000030F1F3F3C787060000000E3
:100920007F4141417F007F4141417F00307B7F78A3
:1009300030202030787F3B0003000F7F0F0F0F7FA8
:100940000F00030000000000000000000000000095
:10095000000000000000000000000000010101078D
:100960000F0F7F0F7F0F0F7E0F0F7F0F7F0F0F0770
:100970000101010000000000000000000001010072
:100980000000000000000000000000000000000067
:100990000000000000000000000000000000000057
:1009A0000000000000000000000000000000000047
:1009B0000000000000000000000000000000000037
:1009C0000000000000000000000000000000000027
:1009D0000000000000000000000000000000000017
:1009E0000000000000000000000000000000000007
:1009F00000000000000000000000000000000000F7
:100A000000000000000000000000000000000000E6
:100A10000000000000000C0353006F0066006C0033
:100A2000650000001A034A006F007300650066004D
:100A30004100640061006D00630069006B0000000C
:100A40000403090409023B00020100A0FA090400A2
:100A500000010301010009211101000122400007EA
:100A600005810308000A09040100010300000009D0
:100A700021110100012232000705820320000A1221
:100A80000100020000000832FC87020100010200A0
:100A90000105010980A101850319012AB70015018B
:100AA00026B700950175108100C0050C0901A10150
:100AB000850419012AA002150126A00295017510CE
:100AC0008100C005010906A101050719E029E71504
:100AD00000250195087501810295017508810105C0
:100AE00007190029FF150026FF00950675088100EB
:100AF00005081901290595057501910295017503F0
:100B00009101C00011241FBECFEFDAE0DEBFCDBFE0
:100B100004B603FE27C08091310590913205A09163
:100B20003305B09134058730904BA740B04BD1F4DA
:100B3000109231051092320510923305109234054F
:100B400014BE84B7877F84BF0FB6F894A8958091B0
:100B50006000886180936000109260000FBEE0E04A
:100B6000F8E3099511E0A0E0B1E0ECE1F4E602C0A1
:100B700005900D92AC3DB107D9F725E0ACEDB1E0A1
:100B800001C01D92A133B207E1F70E94461C0C94EC
:100B9000D9310C94000083E008951F93CF93DF9325
:100BA00000D000D000D00F92CDB7DEB70E94BA19A6
:100BB00060E0882309F489C087EA91E00E94D01F91
:100BC00060E082EA91E00E94E21F60E081EA91E049
:100BD0000E94E21F8091FC0260E080FF18C08DE956
:100BE00091E00E94E21F60912202709123028091A5
:100BF0002402909125020E94D909882359F081305E
:100C000079F160E087E891E00E94D01F08C089E98F
:100C100091E0E7CF60E083E991E00E94E21F60E0AD
:100C200084E891E00E94D01F60E08EE791E00E948E
:100C3000E21F60911E0270911F028091200290912C
:100C400021020E94D9098230E1F170F48823A1F0D9
:100C5000813079F160E08BE591E00E94E21F11C0E4
:100C600060E08DE891E0D9CF833039F1843091F79D
:100C700060E082E691E003C060E088E791E00E94D6
:100C8000D01F60E087E591E00E94D01F0E94AE2651
:100C900081FB662760F981E591E00E94E21F2796BB
:100CA0000FB6F894DEBF0FBECDBFDF91CF911F917D
:100CB000089560E081E791E0E2CF60E08CE691E0AA
:100CC000DECF60E087E691E0DACF8EE491E00E942B
:100CD000D01F60E089E491E00E94E21F87E0E9E430
:100CE000F1E0DE01119601900D928A95E1F70E94E4
:100CF000511C182F843608F45AC064E60E94FD3057
:100D0000292F412F491B550BCA0164E670E00E9450
:100D10001D31605D6A832A30A0F1FE013396422FB7
:100D200050E0822F6AE00E94FD30292FCA01821B09
:100D300091096AE070E00E941D31605D6193205D61
:100D4000208361E0163408F460E0CE0101960E9431
:100D5000CB1F60E084E391E00E94E21F111122C0EA
:100D60008091E7019091E801892B81F40E941E2176
:100D7000882361F00E94FF279093E8018093E701A8
:100D80008ECF80E38B83FE013496D9CF8091E7012B
:100D90009091E8010E94172880369A4E08F47FCF80
:100DA0000E9403211092E8011092E70178CF282FCA
:100DB000FE0132968A3018F2B2CF0F931F93CF9371
:100DC000DF93EC018B010E94E71FFE01E356FD4516
:100DD000E830F10508F08AC0E552FE4CD8011296C1
:100DE000CC910C94503180E0C11109C08C2FDF915F
:100DF000CF911F910F910895CC23C1F381E00E9400
:100E00001208C0E0F3CF82E0CC2309F46CC00E944A
:100E1000F70E44E063E082E00E948008F2CF83E0B6
:100E2000C111F5CF0E94180F44E063E082E00E94F8
:100E30008008DCCF84E0CC2319F00E94F70EE1CFCC
:100E40000E94180FD3CFCC2309F450C08091E30146
:100E5000811106C00E94FF279093E2018093E10177
:100E600081E08093E3018091E0018F5F8093E00156
:100E7000BDCFCC2309F4BACF82EE0E94CB0A80E327
:100E800091E00E94D609BDCFCC2379F082E00E9488
:100E9000F70E44E063E082E00E9480080E94FF2792
:100EA0009093E6018093E501ACCF8091E5019091AC
:100EB000E6010E94172884369105A0F48091E40190
:100EC00091E089278093E401882361F082E00E9409
:100ED000F70E44E063E082E00E94800882EE0E9408
:100EE000110B84CF82E00E94180FF3CFC1E07ECFB8
:100EF0008091E3018823D1F08091E1019091E2019A
:100F00000E9417288F3E924088F08091E001813046
:100F100029F0823061F084E291E002C08CE291E03D
:100F20000E94D6091092E0011092E301089588E230
:100F300091E0F6CFCF93C82F81E06827C11117C089
:100F40008091DE01813031F48DEB611101C08EEBB7
:100F50000E94500BEC2FF0E0E252FE4F81E09081B6
:100F6000913009F480E0808381E0CF910895C13011
:100F700089F78091DF01813069F789EA6111E8CF53
:100F80008AEAE6CF81E008950C94DD0608950C947A
:100F9000C6071F93CF93DF9300D000D00F92CDB739
:100FA000DEB749835A836B833091F30189819A813B
:100FB00031111DC06623B9F02223A9F00E94EA0F67
:100FC000182F682F89819A810E94930F69817A81F5
:100FD000812F0F900F900F900F900F90DF91CF9176
:100FE0001F910C94DB160E94C10F182FEFCF0E94A7
:100FF000EA0F69817A81EDCFFC01262F4081518172
:101000006281738184810C94C90781E00895CF9334
:10101000DF93EC0160E00E94FC07BE01DF91CF91FD
:101020000C94C707CF92DF92EF92FF92C12CD12C84
:101030007601C39404C0CC0CDD1CEE1CFF1C8A9509
:10104000D2F78C2D0E944714C701B601FF90EF9094
:10105000DF90CF900C94950E8F929F92AF92BF929B
:10106000CF92DF92EF92FF920F931F936B017C015F
:1010700081E090E0A0E0B0E04C015D0104C0880C8C
:10108000991CAA1CBB1C4A95D2F7B501A4014C01BE
:101090005D0104C0880C991CAA1CBB1C2A95D2F7C0
:1010A000482959296A297B2904C0880F991FAA1F3A
:1010B000BB1F0A95D2F78A019B010C211D212E210D
:1010C0003F21041715072607370789F48C299D2926
:1010D000AE29BF29BC01CD011F910F91FF90EF9068
:1010E000DF90CF90BF90AF909F908F9008958095A4
:1010F0009095A095B0958C219D21AE21BF21EACF7E
:101100000F93382F262F60911E0270911F0280913D
:10111000200290912102042F432F0E942C080F914E
:101120000C94D10E0E94D0170E942D0A0C94F51732
:101130000E94D71C0C94F71708950E943C0E0E9441
:101140009C082FEF84E39CE0215080409040E1F721
:1011500000C000000C9466280F931F93CF93DF9379
:101160008C0161E00E94FC07EC01F8018281882378
:1011700019F0CE010E947D1CB801CE010E94C40767
:101180008823A9F1B801CE010E94C721882379F1F3
:10119000B801CE010E941922882349F1B801CE017D
:1011A0000E944323882319F1F8018281882361F08A
:1011B000CB35FDE5DF0721F170F4C115ECE5DE0765
:1011C000A1F0CF3DDC45C9F0C801DF91CF911F915F
:1011D0000F910C94C207CC358DE5D807A1F0CD3521
:1011E000DD4591F70E947513EFCF0E949D0880E0C6
:1011F000DF91CF911F910F9108950E94DE14F7CFD8
:101200000E947E13E1CF0E948113DECFDF92EF9226
:10121000FF920F931F93CF93DF93E82FF0E0EE5FE1
:10122000FB4FD490282F26952695269530E0F9017E
:10123000EE55FB4F0491877010E0082E02C0159503
:1012400007950A94E2F701701127F901EE56FB4F5A
:10125000E490F12C082E02C0F594E7940A94E2F78A
:1012600091E0E922FF24F901EE57FB4FC491D0E051
:1012700002C0D595C7958A95E2F7C170DD270115A3
:10128000110519F081EE0E94CB0AE114F10419F066
:1012900086EE0E94CB0A8D2D0E94500BEF2819F08C
:1012A00086EE0E94110B012B19F081EE0E94110BAA
:1012B000CD2B51F08CE2DF91CF911F910F91FF90D8
:1012C000EF90DF900C94500BDF91CF911F910F9115
:1012D000FF90EF90DF900895EF92FF920F931F938E
:1012E000CF93DF938C01F62E8AE0E82EF8018491EB
:1012F000882309F454C0813009F04DC0E8012196DB
:10130000FE018491813091F42196FE0184910E9426
:10131000500B8E010F5F1F4F8F2D815038F3EFE977
:10132000FFE03197F1F700C00000F7CF823039F4C9
:10133000E8012296FE0184910E94CB0AEACF833015
:1013400039F4E8012296FE0184910E94110BE1CF4D
:101350008430F9F6E8012296FE01249190E080E0C5
:10136000FE0131962053330B2A30310548F00197A6
:1013700080F2EFE9FFE03197F1F700C00000F7CF0E
:10138000E89EA001E99E500D1124C901840F951F0C
:101390002491EF01E5CF0E940609E801BACFDF9161
:1013A000CF911F910F91FF90EF90089560E00C9402
:1013B0006C09CF92DF92EF92FF926C01EE24FF2432
:1013C00020E0C114D104E104F10419F0C701B60111
:1013D00020E1C72ED82EE92EFF24C114D104E10448
:1013E000F10419F0285FC701B6016B017C0154E0DC
:1013F000F694E794D794C7945A95D1F7C114D104C1
:10140000E104F10419F02C5FC701B6016B017C0106
:1014100042E0F694E794D794C7944A95D1F7C11463
:10142000D104E104F10419F02E5FC701B6019695CD
:10143000879577956795672B682B692B09F02F5F48
:10144000822FFF90EF90DF90CF90089508950C9435
:10145000260A81E008950C94290A0895CF93C82F95
:101460000E94270A8C2FCF910C942B0ACF93DF93E5
:10147000EC012881898141E050E0022E01C0440F37
:101480000A94EAF7A82FB0E0A751BE4F9C913A8189
:101490003323D9F03091F5013323D1F030E066E009
:1014A000869F200D311D1124220F331FF901E355B2
:1014B000FF4FE491E983F901E455FF4FE491E8839C
:1014C000492B4C93DF91CF910895392F3423E4CFEA
:1014D00040954923F6CFCF93DF93CDB7DEB72B9757
:1014E0000FB6F894DEBF0FBECDBF4F835887698714
:1014F0007A878B8761110E94A4138A859B85892B2B
:1015000029F08F81988589238F3F61F51E821D8286
:1015100085E0FE013796DE01119601900D928A95C5
:10152000E1F78C819D81892B89F449815A816B81F6
:101530007C818D819E810E947E122B960FB6F8943D
:10154000DEBF0FBECDBFDF91CF91089589819A8113
:1015500089238F3F51F3CE0101960E940508811126
:10156000E4CFEBCFCE0107960E94360ACFCFFC0125
:10157000808191810E942C1092959F70963051F439
:10158000863F41F08091F50191E089278093F50134
:101590009093F4010895CF93C82F882309F43FC096
:1015A0008CEF8C0F813AA0F46C2F80910001909108
:1015B00001010E94FA26882329F08C2F0E941F1314
:1015C0000E94C7138C2F0E941813CF910C94C7133D
:1015D00080E28C0F883048F4C77081E001C0880F2A
:1015E000CA95EAF70E948713F0CFEBE5EC0FE330E2
:1015F00040F4F0E0E258FE4F808190E0CF910C94EF
:10160000BC26C85AC73158F4EC2FF0E0EE0FFF1F8C
:10161000E05BFE4F80819181CF910C94D226CF91D7
:101620000895882329F19CEF980F913A20F40E94A5
:101630001F130C94C71390E2980F983050F48770E2
:1016400091E001C0990F8A95EAF7892F0E948D13C6
:10165000F0CF9BE5980F933020F490E080E00C945D
:10166000BC26885A873120F490E080E00C94D22682
:1016700008951F93CF93DF93182FEB010E94CB0A9D
:10168000209731F4812FDF91CF911F910C94110B92
:101690008FE99FE00197F1F700C000002197F0CF9C
:1016A0006AE070E0893311F460E570E00C94390B66
:1016B000882321F00E9487130C94C7130895882370
:1016C00021F00E948D130C94C71308954F925F92DE
:1016D0006F927F92BF92CF92DF92EF92FF920F9321
:1016E0001F93CF93DF936C01C62F172FFC01D2817C
:1016F000058102950F700E945C13E82E8823B1F0DB
:10170000DD2309F1812F807F803441F090E29C0F2E
:101710009830C8F0803611F4C63FA9F082E00E94EC
:1017200018140E945C1391E0E82EE926B12EB294C1
:101730009FE0B922FBE0FB15B0F1EB2DF0E0ED519D
:10174000FE4C0C945031E12CF1CF012F0F70812F02
:10175000807F11F00295007FDD23A9F0002359F06E
:1017600080E28C0F883010F0C11109C0802F0E94D8
:1017700087130E94C7138C2F0E94CB0A14C0802F9E
:101780000E949713F6CF8C2F0E94110B002359F063
:1017900080E28C0F883010F0C11139C0802F0E9478
:1017A0008D130E94C7132B2D2850330B2430310585
:1017B00020F40E949B260E942E0ADD2339F0107F20
:1017C000103611F4C63F11F00E944F13EE2009F4B9
:1017D000F4C10E94321380FDF0C1F60112820E9412
:1017E0002C130E94F70EC6010E94020E0E942C13B9
:1017F000DF91CF911F910F91FF90EF90DF90CF90ED
:10180000BF907F906F905F904F900C94180F802F37
:101810000E949D13C6CF212F2F70F22E812F807F23
:10182000803219F0F29480EFF822CC2369F0C130B5
:1018300049F1DD2391F1002351F1F601858180FF0B
:101840009ACF8F70858323C0DD2381F0011106C0FC
:101850000E94AA138F290E94580BA5CF0130C1F70F
:101860000E94AA138F290E94B0139DCF011106C0B8
:101870000E94BD138F2D0E945F0B95CF013009F49C
:1018800092CFF6CFDD2329F0063008F08CCF8F2DD4
:10189000E2CF053008F087CFEDCF002359F3C933ED
:1018A00009F022C1FFEF27EE33E0F1502040304035
:1018B000E1F700C000008C2F0E94110B74CF812F24
:1018C00086958695837069F0813009F06CCF8C2FF6
:1018D000912F9370D11102C090E080E00E94D22637
:1018E00062CF8C2F912F9370D11102C090E080E0D5
:1018F0000E94BC2658CF812F837009F043C0D111BC
:1019000052CF2C2F229526952770220F220F6C2F55
:101910006F70462E512C712C612C022E04C0440C89
:10192000551C661C771C0A94D2F760E070E0CB016E
:10193000C4FF0FC06FE070E080E090E004C0660F6D
:10194000771F881F991F2A95D2F76095709580950B
:101950009095212F2695269523706429752986292F
:101960009729223049F058F4213019F00E94A90E2D
:101970001ACF0E94970E17CF0E94BB0E14CF0E9461
:10198000950E11CF8695DD2311F0812F817088236C
:1019900009F409CF2C2F229526952770220F220FAC
:1019A0006C2F6F70462E512C712C612C022E04C0AE
:1019B000440C551C661C771C0A94D2F760E070E05A
:1019C000CB01C4FF0FC06FE070E080E090E004C086
:1019D000660F771F881F991F2A95D2F7609570951B
:1019E00080959095212F2695269523706429752939
:1019F00086299729223049F058F4213019F00E94A5
:101A00006E0FD1CE0E945C0FCECE0E94800FCBCE47
:101A10000E94D10EC8CE012F0F70DD2329F0802F38
:101A20000E94F70E8C2F17CF8C2F0E945F0B802FF8
:101A30000E94180FB8CEC23F91F160F4C03FD1F0C0
:101A4000C13F31F1DD2309F443C0011194CE812F50
:101A50008F7122C0C33F41F1C43FA1F7DD2371F173
:101A6000012F0F71802F0E94F70E63E0802F0E94DC
:101A7000FD1399CEDD2341F0053008F094CE812F7F
:101A80008F710E943B0F8FCE063008F08CCEF7CFBF
:101A9000812F8F71DD2361F20E94F70E84CE812F9A
:101AA0008F71DD23C9F3C4CFDD2329F0812F8F711E
:101AB0000E94E20E78CE0E94DD0E75CE81E00E947B
:101AC0001814023008F46FCE82E00E9418146BCE16
:101AD000002379F0C93341F49FEFE7EEF3E0915032
:101AE000E040F040E1F7E5CE8FE39CE90197F1F7A4
:101AF000E0CE812F8F719CCFE0E1EC0FE73090F5C5
:101B0000F0E0E151FE4C0C945031DD2309F44BCE52
:101B10008091F50191E089278093F50144CED0931F
:101B2000F50141CE81E08D27F7CFD1113CCE81E088
:101B3000F3CFD11138CE1092F50135CEDD2319F057
:101B40000E94361330CE0E9442132DCEDD2339F091
:101B50008091F4018823E1F21092F40124CE053043
:101B6000B8F221CE8091F4010023D9F0882341F00E
:101B70008091F50191E089278093F5011092F4019D
:101B8000D111F9CDEFE3FCE93197F1F700C0000086
:101B90008C2F0E94110B86E0F60111928A95E9F7CD
:101BA00002CE882309F4FFCDD111FDCD8091F5013E
:101BB00091E089278093F501CFCFDF91CF911F91DD
:101BC0000F91FF90EF90DF90CF90BF907F906F903C
:101BD0005F904F9008950F931F93CF93DF93EC0185
:101BE000688179818A810E9436108C010E94920F4F
:101BF0000E94940EB801CE01DF91CF911F910F91F9
:101C00000C94660BCF93DF93EC018B819C81892B25
:101C100029F08881998189238F3F59F4DF91CF91F1
:101C20000895CE010E94EB0DCE01DF91CF910C946F
:101C30000708CE010E94AC088111F3CF0E945C130B
:101C4000882361F38A81882349F382E0DF91CF9171
:101C50000C94181490E080E00E94BC2690E080E094
:101C60000E94D2260E94A4130E94A7130C94C713AB
:101C70000E9426130C942A0E0E9494130C94380E82
:101C8000E92FE295EF70E250EE3070F4F0E0EA50A8
:101C9000FE4C0C945031803F19F020F4883E20F423
:101CA00081E00895843FE1F380E00895883EC0F329
:101CB000813FD1F7F5CF93FB882780F90895FC0188
:101CC000808191810E942C100C94400ECF93DF9361
:101CD00000D000D00F92CDB7DEB70F900F900F90CD
:101CE0000F900F90DF91CF910895CF93DF9300D0A5
:101CF00000D000D0CDB7DEB726960FB6F894DEBF81
:101D00000FBECDBFDF91CF91089508950C94850E3D
:101D10000E94860E60932202709323028093240215
:101D2000909325020C942A0E08950C94880E0F931C
:101D30001F930091220210912302209124023091DE
:101D40002502602B712B822B932B1F910F910C94EA
:101D5000880E0F931F93009122021091230220916D
:101D600024023091250260237123822393231F9143
:101D70000F910C94880E0F931F93009122021091E3
:101D800023022091240230912502602771278227A7
:101D900093271F910F910C94880E0C94850E0C9430
:101DA000CD0E0E94CF0E60931E0270931F0280938F
:101DB0002002909321020C942A0E60E070E0CB0187
:101DC0000C94D10E0F931F9341E050E060E070E05F
:101DD0008A019B0104C0000F111F221F331F8A9527
:101DE000D2F7C901B8011F910F910C94D10E0F9336
:101DF0001F9341E050E060E070E004C0440F551FC5
:101E0000661F771F8A95D2F780911E0290911F025C
:101E1000A0912002B09121028A019B01082B192B6D
:101E20002A2B3B2BC901B8011F910F910C94D10EA5
:101E30000F931F9341E050E060E070E004C0440F56
:101E4000551F661F771F8A95D2F7CB01BA0160959F
:101E500070958095909500911E0210911F0220911F
:101E600020023091210260237123822393231F914A
:101E70000F910C94D10E0F931F9341E050E060E05E
:101E800070E004C0440F551F661F771F8A95D2F774
:101E900080911E0290911F02A0912002B091210218
:101EA0008A019B01082719272A273B27C901B80166
:101EB0001F910F910C94D10E0F931F9300911E024E
:101EC00010911F022091200230912102602B712B72
:101ED000822B932B1F910F910C94D10E0F931F9374
:101EE00000911E0210911F022091200230912102C8
:101EF00060237123822393231F910F910C94D10EA1
:101F00000F931F9300911E0210911F022091200237
:101F10003091210260277127822793271F910F910B
:101F20000C94D10E0895E92FEE0FE90FEE0F8E0FEE
:101F3000982F977041E001C0440F9A95EAF7869573
:101F40008695869595E0899FF0011124EA50FE4F11
:101F500030E020E070E05191DF011197CB01022EBB
:101F600002C0969587950A94E2F78170819585273E
:101F7000842385278C932F5F3F4F2530310559F7F8
:101F80000895E92FEE0FE90FEE0F8E0F982F97703F
:101F900086958695869525E0829FF0011124EA506A
:101FA000FE4F50E040E080E0219130E0092E02C079
:101FB000369527950A94E2F721703327042E01C045
:101FC000220F0A94EAF7822B4F5F5F4F453051058D
:101FD00059F70895BF92CF92DF92EF92FF920F933D
:101FE0001F93CF93DF938C01C0901E02D0901F02ED
:101FF000E0902002F0902102809122029091230231
:10200000A0912402B0912502C82AD92AEA2AFB2AE3
:10201000CFE1D0E0BC2ED701C6010C2E04C0B6958E
:10202000A795979587950A94D2F780FD0EC02197C2
:1020300088F7B12C8B2DDF91CF911F910F91FF90DD
:10204000EF90DF90CF90BF900895B8018C2F0E9441
:10205000EF16019761F3EECFCF93DF93EC010E946F
:10206000EA0FBE01DF91CF910C94EF161F93CF932F
:10207000DF93EB019091F301992331F0CB01DF91D4
:10208000CF911F910C942C10882379F0CB010E94E2
:10209000EA0F182F682FCE010E94930FBE01812FE7
:1020A000DF91CF911F910C94EF16CB010E94C10FCD
:1020B000182FF4CF1F93CF93DF93C091260216E021
:1020C000809127028C1304C0DF91CF911F91089556
:1020D000D0E01C9FF0011D9FF00D1124E85DFD4F25
:1020E0004081518162817381848195810E94750E46
:1020F0002196C770E5CF40915802509159026091E6
:102100005A0270915B0280915C0290915D020C9486
:10211000750E1F93CF93DF9380915D02807FA9F4AA
:1021200080915A02882389F080912602C09127026B
:102130006091580270915902A0915B02B0915C02CB
:10214000D62FD72316E0C81304C0DF91CF911F917B
:10215000089590E0109711F0DF3F19F40196877011
:10216000F2CF189F9001199F300D1124F901E85DFD
:10217000FD4F41814713F2CF40814613EFCF42819B
:102180004111ECCF438154814A1B5B0B443651050E
:1021900028F780915D028F70806180935D02F90164
:1021A000E35DFD4F80818F708061808388E592E0E0
:1021B0000E94020EDF91CF911F910C945A10AF92A2
:1021C000BF92CF92DF92EF92FF920F931F93CF9324
:1021D000DF93CDB7DEB761970FB6F894DEBF0FBEC1
:1021E000CDBF8C0185E0F801DE011D9601900D92B6
:1021F0008A95E1F7F801E28088E5C82E82E0D82EC2
:1022000060915B0270915C026115710509F45AC11D
:102210009091580220915902892F82238F3F09F40F
:1022200051C140815181A380B480F0905A02F501E0
:10223000E61BF70BFF2009F4F6C080915D02382FF2
:10224000307FE436F10508F0AFC0311179C0FE2CC3
:10225000251323C0941321C0E1101FC08F7080612B
:1022600080935D020E947B10C6010E94020E809145
:102270005D02F80185838F2D61960FB6F894DEBF5D
:102280000FBECDBFDF91CF911F910F91FF90EF90C7
:10229000DF90CF90BF90AF900895AB2829F0842FA6
:1022A00085238F3F09F027C180E0F82FF170DF2EE2
:1022B00080FF3CC0809126022091270236E08213E5
:1022C00015C04D875E878D859E850E942C10292F15
:1022D00022952F702230F0F0243018F59F70F1F025
:1022E000F8019581907FD1F4D12C1EC090E0389FE9
:1022F000F001399FF00D1124E85DFD4F61816513F8
:1023000006C06081641303C06281E6120FC00196AB
:102310008770D5CF9F7011F0882331F3805E8830AD
:1023200018F3C8010E94020EFD2CA5CFEE2009F47F
:10233000A2CF80915D02816080935D02F12C9BCFE2
:10234000251306C0941304C0F801EE2009F487C0D9
:10235000C8010E945F0E882319F1EE2009F18091D7
:102360005D02803270F02091580230915902388716
:102370002F831986BB86AA868C87CE0107960E947A
:10238000020E86E0F801A8E5B2E001900D928A9570
:10239000E1F70E9489100E947B10FF24F3946BCF19
:1023A000C8010E94020EF9CF311113C07A2DB98AEB
:1023B000A88A6E2D89890E94660E88E592E00E94A7
:1023C000020E86E0F60111928A95E9F70E947B10D1
:1023D000B5CF25130FC094130DC0E1100BC0F80149
:1023E0008583C8010E94020E86E0F60111928A954B
:1023F000E9F741CFC8010E945F0E882389F2EE20E1
:1024000079F280915D02803208F4BBCF20915802AE
:10241000309159023A8329831B82BD82AC828E831C
:10242000CE010196ACCFE436F10508F03EC0FE2C9B
:10243000EE2009F4B5CF25132AC0941328C080914B
:102440005D0280FD1BC0982F907FC1F0F80185834D
:10245000903F31F0982F907F905F8F70892B85830C
:10246000C8010E94020E86E0F801A8E5B2E00190E2
:102470000D928A95E1F70E947B10FDCE86E0F8016F
:10248000A8E5B2E001900D928A95E1F7F4CEC8017B
:102490000E945F0E811175CF80915D0281608093F3
:1024A0005D02C8010E94020EE6CE7A2DB98AA88A82
:1024B0006E2D89890E94660E86E0F60111928A953A
:1024C000E9F7D9CFEE2009F46BCFC8010E945F0E67
:1024D000F82E882309F464CF86E0F801A8E5B2E07D
:1024E00001900D928A95E1F788E592E00E94B70A83
:1024F0000E948910C0CF81E08E25D7CE1F93CF9345
:10250000DF93CDB7DEB72C970FB6F894DEBF0FBEC2
:10251000CDBF4F83588769877A878B879C87CE0189
:1025200007960E94DF10882369F08A859B85892B96
:1025300039F04F815885842F85238F3F09F071C072
:1025400016E05FC086E0FE013796DE01119601902D
:102550000D928A95E1F78A859B85892B89F3888579
:102560009F8189238F3F61F32091270230E0C901C9
:10257000019687709927409126024817190671F431
:102580000E943C0E109227021092260286E0E8E597
:10259000F2E0DF011D928A95E9F7D2CF96E0929F93
:1025A000D001939FB00D1124A85DBD4FFE0131965F
:1025B00001900D929A95E1F7809327020E945A109C
:1025C000BFCF819FC0011124885D9D4F0E94DF1005
:1025D0008823E9F0E09126021E9FF0011124E85DB6
:1025E000FD4F4081518162817381848195810E9478
:1025F000750E8091260290E001968770992780934E
:10260000260280912602909127028913DACF2C9618
:102610000FB6F894DEBF0FBECDBFDF91CF911F91F3
:10262000089569857A858B859C850E94750E88CF73
:10263000682F80910001909101010C943027682F40
:1026400080910001909101010C943227809100014A
:10265000909101010C94342780915F0285958595B6
:102660008595089580915F028770089582E0809338
:102670005E0281E08093F501089510925E0210924F
:10268000F501089580915E02823021F481E080930B
:102690005E020895833011F40C943D1308958091E7
:1026A0005E02823021F483E080935E0208958130DF
:1026B00011F40C943D13089590915F02977081E09E
:1026C00009F480E008959091FC0292FB222720F902
:1026D000281751F080FB92F99093FC028091FB0245
:1026E0009091FC020C945A1408958091FC0282FB94
:1026F000882780F991E089270C94631381E00C947A
:10270000631380E00C94631380916B0208959091A1
:102710006B02892B80936B020895809590916B02D8
:10272000982390936B02089510926B0208959091F4
:102730006A02892B80936A020895809590916A02BB
:10274000982390936A02089510926A020895109255
:102750006902089580916002089508950C94AD1364
:102760009091FC0292FD08C090916002981721F0B0
:10277000809360020C94AE130895809160028823C8
:1027800029F01092600280E00C94AE130895E0915D
:102790000001F091010180916B028083E0910001C2
:1027A000F0910101808190916A02892B8083E091F0
:1027B0000001F0910101808190916902892B808351
:1027C00090916002992381F0E0910001F091010164
:1027D0008081892B808380910001909101010E946A
:1027E000E82681110E94BD138091000190910101A2
:1027F0000C94B12608950C94FA139091FC0292FD6A
:1028000010C098E0899F90011124622B60935F02B1
:102810000E94F70E80915F028595859585950C94B1
:10282000FB130C94F70E10925F0280E00C94FB13E4
:1028300090915F028095892380935F02282F2770F3
:1028400039F4282F082E000C330B9217130621F4AD
:102850009091FC0292FF07C08595859585950E9411
:10286000180F0C941314089590E080E00E949F319B
:1028700021E0893E9E4F09F020E0822F089582E0FA
:1028800090E00C94973183E090E00C949731682F9E
:1028900083E090E00C94A531CF9384E090E00E9417
:1028A0009731C82F82E290E00E949731982F8C2FA9
:1028B000CF910895CF93C92F682F84E090E00E94B4
:1028C000A5316C2F82E290E0CF910C94A531AB0141
:1028D000BC018FE090E00C94B731AB01BC0183E107
:1028E00090E00C94B73160E070E0CB010C946D1473
:1028F00060E070E0CB010E9467140C94731469EEE1
:102900007EEF90E080E00E94C33160E082E090E0E2
:102910000E94A53160E083E090E00E94A531109212
:10292000220210922302109224021092250260E0EB
:1029300084E090E00E94A53160E082E290E00E9495
:10294000A53160E085E090E00E94A53160E086E07E
:1029500090E00E94A5316FEF87E090E00E94A531E2
:1029600040E050E0BA0188E090E00E94B73160E0BA
:102970008DE090E00E94A53140E050E0BA0188E18E
:1029800090E00E94B73160E087E190E00E94A531BD
:1029900040E050E0BA018CE190E00E94B73170E075
:1029A00060E080E290E00E94C33140E050E0BA0174
:1029B00088E190E00E94B7310C9478140C947F1455
:1029C000682F8EE090E00C94A5310E940B28609354
:1029D0007F027093800280938102909382026093C1
:1029E0007B0270937C0280937D0290937E02089517
:1029F0000E940B2860937F02709380028093810273
:102A000090938202609377027093780280937902A8
:102A100090937A02089585B7806885BF85B78068EE
:102A200085BF0895089508950C94121508950C9487
:102A300016150E940B158DEC97E10E9477280E94D5
:102A400013150C9414150C94BA19089508950E9446
:102A500025150C9426150E94F6270E943B270E94FC
:102A6000AD180E94291E80E00E94861E0E941B1D38
:102A70000C9417158F929F92AF92BF92CF92DF92D4
:102A8000EF92FF920F931F93CF93DF93CDB7DEB7F3
:102A90002A970FB6F894DEBF0FBECDBF0E94301943
:102AA000982E81110E94E5148DE6A82E82E0B82EA2
:102AB00010E000E0802E802F0E94F917E82EF5012B
:102AC000C1905F01C81609F45AC08091830281FD4C
:102AD0000E94FF17D12CFF24F394CE248C2D8F213C
:102AE00009F448C00E942315882399F0DE828F8262
:102AF000EF2081E009F480E088870E94FF27816051
:102B0000782F9A8789874E815F8168858A850E94A0
:102B10006B0AF801E359FD4F8081F826F0820E948C
:102B2000781D182F81110E94F8140E942121911004
:102B300001C011110E94E71F0E949B2690916C0218
:102B40008917A1F10E949B2680936C022A960FB6EA
:102B5000F894DEBF0FBECDBFDF91CF911F910F91D3
:102B6000FF90EF90DF90CF90BF90AF909F908F90AD
:102B70000C942E0AD394FF0CF6E0DF12AFCF0F5F58
:102B80001F4F0A30110509F095CF8FEF89838A8393
:102B90001B820E94FF278160782F9D838C8349814F
:102BA0005A816B818D810E946B0AB9CF2A960FB62C
:102BB000F894DEBF0FBECDBFDF91CF911F910F9173
:102BC000FF90EF90DF90CF90BF90AF909F908F904D
:102BD0000895CF93DF930E94F316EC01811522E54F
:102BE0009207E8F5811531E5930708F0AFC0883EFC
:102BF000910510F5803E910570F5883A910570F4C5
:102C0000853A910508F07BC08130910521F100974C
:102C100011F1049700F5D0E0C0E01DC08F3B910595
:102C2000D0F7C85AD0E0CC0FDD1FCF57DE4F099048
:102C3000D881C02DD4640FC0811540E5940708F0F9
:102C400069C0C11580E4D80708F061C0CE019A952B
:102C500081159F4100F7CE01DF91CF910895811535
:102C600036E5930718F5811545E5940708F086C009
:102C7000C11584E5D80708F07CC09C2F96959695E1
:102C80009E0123703327C115D34508F464C0C1E009
:102C9000D0E002C0CC0FDD1F2A95E2F730E2939F0F
:102CA000C0011124C82BD92BDA68D5CFC11589E50D
:102CB000D80768F4C11598E5D90708F069C0C115AF
:102CC00027E5D20708F0A7CFDD27D066C4CFC1150E
:102CD0003AE5D30708F461C0CE01905681159042C1
:102CE00008F099CF8D2F8F710E948A1790E0982F4E
:102CF000882788279F719C012C2BE90147C0C55A62
:102D0000D0E0C155DE4FC881D0E0D064A4CFDF70E1
:102D1000D06AA1CFE4E096958795EA95E1F78370B4
:102D20002C2F26952695237090E2299F900111243F
:102D3000382B8C2F8370C1E0D0E002C0CC0FDD1F98
:102D40008A95E2F7C22BD32BDC6885CFD82FCC270E
:102D5000C16FD06A80CFC1E0D0E002C0CC0FDD1FD0
:102D60002A95E2F720E2929FC0011124C82BD92BAB
:102D7000EBCFDC2FCC27C46FD06A6DCF0E948A17AF
:102D8000C82FD0E0DC2FCC27CC27DF71D06263CFF7
:102D9000DC2FCC27C06FD06A5ECF8C2F8F700E9443
:102DA0008A1734E0D695C7953A95E1F7CF709C2FF6
:102DB000EC01D06950CF972F70E026E0929F600D14
:102DC000711D1124FB019CE3899FE00DF11D11246D
:102DD000EE0FFF1FE655FE4F8591949108950E94D6
:102DE000DB160C94E91582389105B1F1B0F481330A
:102DF000910509F475C048F48932910509F469C058
:102E00008A32910509F473C008958533910509F458
:102E100059C08933910501F10895833E9105A9F1C7
:102E200038F4803E9105F9F0823E910549F108950C
:102E3000863E9105A9F1873E9105C9F1843E910531
:102E400019F52091FC0221FF1FC08091FB0284FD37
:102E500014C087EE90E008952091FB022370A1F04A
:102E600080EE90E008952091FB0220FD47C0309154
:102E7000FC0230FF09C024FF44C090E080E004C0A1
:102E80002091FB0222FDF7CF08952091FB0222FD45
:102E90003BC03091FC0230FDE3CF24FFF5CFEDCFF6
:102EA0002091FB0223FFF0CF24FDE7CFD2CF20916A
:102EB000FB0223FD2CC03091FC0231FFEECF84EEEB
:102EC00090E008952091FB0225FFDECF89E290E09B
:102ED00008952091FB0225FFD7CF85E390E0089568
:102EE0002091FB0226FFD0CF8AE290E00895209146
:102EF000FB0226FFC9CF81E390E0089589E390E0CB
:102F0000089583EE90E0089582EE90E0089586EEB5
:102F100090E008959091FB0292FF06C0282F28713F
:102F20002830F9F4877F846093FF06C0282F28712A
:102F30002831F1F4877E84612091FC0220FF06C0D5
:102F4000382F38713830D9F4877F816021FF06C06F
:102F5000282F28712831D1F4877E816194FD877EE6
:102F60000895282F24712430F9F68B7F8860DCCFF8
:102F7000282F2471243101F78B7E8861DDCF382F13
:102F80003171313019F78E7F8860E0CF282F2171A1
:102F9000213121F78E7E8861E1CF80E00895089588
:102FA0000E943414811102C00E94DE140E943F145A
:102FB000809383020E944C149093FC028093FB0246
:102FC0000E94CF170E944314682F70E090E080E0C9
:102FD0000E94950E60911E0270911F028091200246
:102FE000909121020C94CF0E08950C94F4170C9438
:102FF0007807E82FF0E0E95FFC4F8081089508959D
:1030000080EA8A95F1F7089500C008950C9400189D
:10301000F894E82FE295EF70F0E031A1282F2F709F
:1030200081E090E001C0880F2A95EAF7982F9095EB
:10303000932391A392A1892B82A378940895089554
:103040000C941F180F931F93CF93DF93C8EBD1E01D
:1030500089918F3F11F00E94081881E0CD3BD8077D
:10306000B9F7C2EBD1E008EB11E089918F3F11F085
:103070000E9408180C171D07C1F7DF91CF911F910F
:103080000F910895CF92DF92EF92FF920F931F93CB
:10309000CF93DF93EC01D62E062F10E0C8018854A1
:1030A0009E4F7C01FC0180818F3F09F44BC0F89456
:1030B000E82FE295EF70F0E091A18F7021E030E011
:1030C00001C0220F8A95EAF7892F822B81A382A162
:1030D0002095282322A378940E940418E2EBF1E0C3
:1030E00030E020E0C12C51E041914F3FA1F1A42FED
:1030F000A295AF70B0E090968C9190E04F7002C0B6
:10310000959587954A95E2F780FD25C0852F022E7B
:1031100001C0880F0A94EAF7C82A2F5F3F4F263074
:10312000310511F7F70180818F3F11F00E940818D7
:1031300061E0C11001C060E08D2D0E940618C00F33
:10314000D11FC882DF91CF911F910F91FF90EF9017
:10315000DF90CF90089580E0DFCF0E94D419809156
:1031600002018091020195E0811190E09093120399
:1031700085E0891B809311030E942218EDEFF2E095
:10318000A7E0B3E011921D9283E0E730F807D1F792
:1031900085E00E9483190E9492080C94DE19FF9228
:1031A0000F931F93CF93DF9300D000D00F92CDB732
:1031B000DEB70E94BA19F82E60911203882309F431
:1031C00042C08E010F5F1F4F85E0F80111928A9572
:1031D000E9F7862F90E0B801895F9C4F0E94EC19B7
:1031E000E09111039E012A5F3F4FF0E0882311F127
:1031F000BF01695F7C4FD801F12CFB014191BF01F8
:103200009D91491731F0AF0141505109FA01908366
:10321000F82EA217B30789F70E9498088F2D0F90F8
:103220000F900F900F900F90DF91CF911F910F9102
:10323000FF900895E95FFC4FD80111921D92A217EB
:10324000B307D9F7E9CF70E0695F7C4F8091110334
:1032500090E0895F9C4F0E94791A0E942018DECF6F
:10326000EF92FF920F931F93CF93DF93CDB7DEB70B
:103270002A970FB6F894DEBF0FBECDBF8E010F5F49
:103280001F4F8AE0F80111928A95E9F7F12C6F2D12
:10329000C8010E944218F394F5E0FF12F8CF4AE00B
:1032A00050E0B8018DEF92E00E9481317C0121E075
:1032B000892B09F420E0E114F10441F08AE0F801DF
:1032C000ADEFB2E001900D928A95E1F760911203A3
:1032D00070E0695F7C4F45E08DEF92E00E948419B9
:1032E00081E090E0EF2811F40E94CF182A960FB6E3
:1032F000F894DEBF0FBECDBFDF91CF911F910F912C
:10330000FF90EF9008950895FF920F931F93CF932E
:10331000DF93F82E092F162FD72FC42F222349F021
:1033200081E0809386020E94FF279093850280931C
:103330008402809186028823A1F08091840290917A
:1033400085020E941728059760F0EF2DF02FA12F1E
:10335000BD2FCE0FDF2FD11DEC17FD0741F41092CA
:103360008602DF91CF911F910F91FF900895819177
:103370008D93F2CF80918902811107C00E94012FA5
:10338000882351F081E08093890281E09091890245
:10339000913009F080E0089582E0809389020E94D4
:1033A000FC2EF3CF0C94BA190E94D219809302011B
:1033B0000E94BA1981110C94221A08950E94BA1918
:1033C000811102C00C94241A089581E090918A0220
:1033D0009A3008F080E008950F931F93CF93DF9306
:1033E000EC018B0180918A028A30B8F4B801CE01D9
:1033F0000E94771AC82F811122C080918A028F3FC4
:10340000B9F40E94FF2790938802809387028C2F43
:10341000DF91CF911F910F91089580918702909134
:1034200088020E941728843F914000F7C0E0EFCF48
:103430008F5F80938A028A3020F7C1E0E8CF109234
:103440008A02E5CF0C94D5240C94D824EF92FF92F5
:103450000F931F93CF93DF937901C82F880FDD0B54
:1034600041155105A9F08AE08C9FF0018D9FF00D68
:103470001124ED5FFE4F8381948185579D4F2281FA
:1034800030E04217530708F49A01A9010E948E31D7
:10349000CE010E94E225892B11F501151105E9F0F5
:1034A0008AE08C9FF0018D9FF00D1124ED5FFE4F9F
:1034B000458150E00417150708F4A8018AE08C9FA5
:1034C000F0018D9FF00D1124ED5FFE4F6681778135
:1034D00065577D4FC7010E948E3181E001C080E0B9
:1034E000DF91CF911F910F91FF90EF9008950C9471
:1034F000D21B0C94F61B0F931F93CF93DF9300D036
:1035000000D0CDB7DEB76091A8027091A90280917A
:10351000AA029091AB020E94262811E06436710540
:103520008105910518F10E9461276E5F7F4F8F4FD3
:103530009F4F69837A838B839C8310E000E030E0A7
:1035400020E044E050E0BE016F5F7F4F84E00E94C6
:10355000261A182F882351F00E940B286093A80286
:103560007093A9028093AA029093AB02812F0F90CF
:103570000F900F900F90DF91CF911F910F910895B1
:103580007F928F929F92AF92BF92CF92DF92EF92F3
:10359000FF920F931F93CF93DF930F92CDB7DEB7B8
:1035A000762E4A015901680101E010E09E012F5F6B
:1035B0003F4F50E040E070E060E00E94261A182F74
:1035C000882309F43EC0F401608171818281938176
:1035D0000E942628643671058105910558F18701FE
:1035E000950150E040E070E060E0872D0E94261ACF
:1035F000B82EB701C6010E942A1E11E099819813C6
:1036000010E01B2139F00E940B28F40160837183C4
:1036100082839383812F0F90DF91CF911F910F9120
:10362000FF90EF90DF90CF90BF90AF909F908F90E2
:103630007F900895B701C6010E942A1E99818913BF
:10364000CECFA701B601C5010E948E31E3CFEF9224
:10365000FF920F931F93CF93DF930F92CDB7DEB7F7
:103660000091C2011091C301095F1F4FEE24E39442
:10367000F12C9E012F5F3F4F44EA52E063E082E06D
:103680000E94C01A182F882321F0CE0101960E94B3
:10369000EA1D812F0F90DF91CF911F910F91FF9025
:1036A000EF900895CF92DF92EF92FF920F931F93C6
:1036B000CF93DF9300D000D00F92CDB7DEB76B0170
:1036C0000091C2011091C3010F5F1F4F85E0E82EEA
:1036D000F12C9E012F5F3F4F40EA52E061E080E015
:1036E0000E94C01A882349F095E0FE013196ABE9AB
:1036F000B2E001900D929A95E1F795E0EBE9F2E0E6
:10370000D60101900D929A95E1F70F900F900F90CE
:103710000F900F90DF91CF911F910F91FF90EF903D
:10372000DF90CF900895AF92BF92CF92DF92EF9249
:10373000FF920F931F93CF93DF937C015B016A018C
:103740000E94E51901E010E0882311F00AE010E082
:10375000C1E0D0E0F894B501C701F601099578946D
:10376000811104C021960C171D075CF4DF91CF91E5
:103770001F910F91FF90EF90DF90CF90BF90AF908F
:103780000895CC9F9001CD9F300D300D112490E015
:1037900080E045E34A95F1F7000001968217930710
:1037A000C1F7D8CF0F931F93CF93DF93EC018B0119
:1037B00042E55BE10E94931B882391F047E25BE1C5
:1037C000B801CE010E94931B882351F04BE75AE1C8
:1037D000B801CE01DF91CF911F910F910C94931BF3
:1037E00080E0DF91CF911F910F9108950F931F9368
:1037F000CF93DF930F92CDB7DEB7F8940091C2015B
:103800001091C301C801019625E0FB01DC01019084
:103810000D922A95E1F765E070E00E942A1EF801FA
:1038200080837894F894CE0101960E94E11D8981ED
:10383000F801878361E070E0CE0101960E942A1EA4
:10384000F80186837894F8946085718582859385E4
:1038500000919702109198022091990230919A025A
:10386000601771078207930751F060939702709376
:1038700098028093990290939A020E944427789428
:103880000F90DF91CF911F910F9108950E947C2797
:103890000E94B5290E94CE290E94E0290E94271586
:1038A000FBCF8091AE0208959C013056211540E275
:1038B000340748F0305E211540E1340720F0315CD8
:1038C00021153F4178F499279C0124503109243275
:1038D000310578F02752310981E02E30310550F062
:1038E00080E008958F3F910579F370F390E080E0D8
:1038F000EBCF81E008950C94541CCF92DF92EF92AD
:10390000FF92CF93DF930E947B1C882309F448C069
:103910008091AC029091AD020097E1F10E941728CE
:103920009C0150E040E060E67AEE80E090E00E948A
:103930003131CA01B90127E030E040E050E00E9497
:1039400031316091AE022F3F310519F010F02FEFA9
:1039500030E0C62FD0E02C1B3D0BB90190E080E099
:103960000E94C12F27EA39E747E45DE30E949030C7
:103970000E947B2F6B017C01BE01DD0F880B990B30
:103980000E94C32FA70196010E940F2F0E94922F21
:103990006093AE020E94FF279093AD028093AC0229
:1039A000DF91CF91FF90EF90DF90CF900895CF926D
:1039B000DF92EF92FF92CF93DF938091AC029091D0
:1039C000AD020E941728893E934060F16091AE02DB
:1039D000C62FD0E0662777276C1B7D0B072E000CC7
:1039E000880B990B0E94C32F27EA39E747E45DE370
:1039F0000E9490306B017C01BE01DD0F880B990B9A
:103A00000E94C32F9B01AC01C701B6010E940F2F7A
:103A10000E94922F6093AE020E94FF279093AD0206
:103A20008093AC02DF91CF91FF90EF90DF90CF9029
:103A300008950C949A0780910201811106C084EFC9
:103A40008093360185EF8093350120913601A22FB6
:103A5000A295AF70B0E091963C9191972F7081E064
:103A600090E0BC01022E01C0660F0A94EAF7462FCF
:103A70004095432391964C93919792963C919297BF
:103A8000362B92963C93929740913501E42FE29524
:103A9000EF70F0E031A14F70042E01C0880F0A943E
:103AA000EAF7982F9095932391A392A1892B82A353
:103AB00090968C9190E002C0959587952A95E2F7B3
:103AC000817020A130E002C0359527954A95E2F734
:103AD00092E020FF90E0892B8093B4029091020144
:103AE00081E098279093B002891B8093AF020895DC
:103AF000CF93E091B402EE0FEE0F20913601A22F8A
:103B0000A295AF70B0E090968C9190E02F7002C0BB
:103B1000959587952A95E2F781709927409135010F
:103B2000A42FA295AF70B0E090962C9130E04F702A
:103B300002C0359527954A95E2F7A90141705527AE
:103B400020FF02C042E050E0842BE82BE093B40257
:103B5000C091B002EF70F0E0EC53FE4F8081909185
:103B6000B302890F8093B30220E0823064F0EC2F1F
:103B7000F0E0EF54FD4F80818F5F808360E08C2FF9
:103B80000E94191D21E08091B3028F3F64F4EC2F55
:103B9000F0E0EF54FD4F80818150808361E08C2FF5
:103BA0000E94191D21E08091B302082E000C990B90
:103BB00062E070E00E941D318093B302822FCF91AA
:103BC0000895E091B002F0E0EF54FD4F2081FC0138
:103BD00020830895FF920F931F93CF93DF93D0918B
:103BE000AF020D2F10E00F541D4FFC01C081F801F2
:103BF0008081C81BFC2E80E01F147CF09C2FC7FD29
:103C000090E0C91BC11114C08823E9F0DF91CF9166
:103C10001F910F91FF900C94F814FA94F801808191
:103C20008F5F808360E08D2F0E94191D81E0E4CFBB
:103C3000CF5FF80180818150808361E08D2F0E94E9
:103C4000191D81E0DFCFDF91CF911F910F91FF9080
:103C500008950895FC01680F791F8FEF91E3E6172F
:103C6000F70709F408952191822728E030E087FFC3
:103C700006C0880F892721503109C9F7F0CF880F76
:103C8000FACFCF92DF92EF92FF920F931F93CF93D1
:103C9000DF936C017B0164E670E088E70E94732388
:103CA000EC0197FD12C010E000E0F601E00FF11FFB
:103CB000849164E670E00E94ED23EC01892B29F4E5
:103CC0000F5F1F4F0E151F0581F70E947024CE0154
:103CD000DF91CF911F910F91FF90EF90DF90CF90E8
:103CE0000895E4E1F3E080E092E0DF019C011D92A1
:103CF00021503040E1F7F0931B05E0931A058FEF58
:103D00009FEF9093E1028093E00208950E94CB051B
:103D10008093DC0280FD0FC080E88093DB020E946C
:103D20006D236DE070E089EC94E00E94411E892BC8
:103D300021F080E0089580E2F0CF8091DC0263E022
:103D400070E081FD26C086EC94E00E94411E892B24
:103D500081F76DE070E086EB94E00E94411E892BB4
:103D600041F70E940B28605A75418F4F9F4F609317
:103D700016057093170580931805909319050E94F6
:103D8000711E81E08093DF028093DE021092DD02DB
:103D9000089583EC94E0D9CF2091DB0236E0839F35
:103DA000C0011124629F800D911D1124811522E014
:103DB000920714F090E080E08C5E9C4F90931B057E
:103DC00080931A05089520911A0530911B052E50F5
:103DD00033404091DB02642F70E0C9010E94093139
:103DE000481B463010F4240F311D211582E038079E
:103DF00010F030E020E02C5E3C4F30931B05209308
:103E00001A0508951F93CF93DF93162F8A3031F44C
:103E100081E0DF91CF911F910C947C1F8D3011F4C4
:103E200080E0F7CFC0911A05D0911B0596E0FE0106
:103E3000A5EBB2E001900D929A95E1F7803EC8F0B3
:103E400086E0FE0111928A95E9F711111EC0C0911A
:103E50001A05D0911B0546E050E0BE0185EB92E0CB
:103E60000E948131892BF9F4DF91CF911F910C943D
:103E7000E31EF6E08F9FB00111246A527B4F46E0AB
:103E800050E0CE010E947831E0CFE0911A05F09128
:103E90001B059F012A5F3F4F2E173F07C1F280810C
:103EA00080958193F9CFC451D340CE0125E09695FA
:103EB00087952A95E1F721E030E0A90102C0440F7F
:103EC000551F8A95E2F7CA014091E0025091E10244
:103ED000842B952B259645E0D695C7954A95E1F715
:103EE00002C0220F331FCA95E2F7822B932B9093C7
:103EF000E1028093E002B8CFCF93382FE0911A050A
:103F0000F0911B05E451F3402091DB02622F70E039
:103F1000CF010E940931281B822F332369F066E00C
:103F20000E94FD30C82FC15010F4CF91089560E079
:103F300080E20E94021FF7CF9F01280F311D21153B
:103F4000324018F080E0F0E0E0E08E0F9F2F911DEE
:103F50008C5E9C4F90931B0580931A05E6CFFF92D1
:103F60000F931F93CF93DF93EC01F62EFC0101908A
:103F70000020E9F78F0101501109C017D10730F077
:103F8000DF91CF911F910F91FF9008956F2D89912F
:103F90000E94021FF2CF0E94AF1F81E00C947C1F91
:103FA0001F93CF93DF93EC01162FFE0184918111B3
:103FB00004C0DF91CF911F910895612F0E94021FCD
:103FC0002196F3CF0E94D01F81E00C947C1F80913A
:103FD000DF02811103C08091DE0208950E940B2848
:103FE000605A75418F4F9F4F609316057093170568
:103FF00080931805909319058091DE028111EBCF13
:1040000062E070E084EB94E00E94411E892B19F776
:1040100081E08093DE02DFCF2F923F925F926F921A
:104020007F928F929F92AF92BF92CF92DF92EF9248
:10403000FF920F931F93CF93DF938091DF0288232A
:1040400069F02091E0023091E1022115310531F053
:104050008091DD0261E070E0882399F0DF91CF91DB
:104060001F910F91FF90EF90DF90CF90BF90AF9096
:104070009F908F907F906F905F903F902F900895CA
:104080008F5F082F10E01B01082E02C0220C331C8A
:104090000A94E2F7A90142215321452B89F390911B
:1040A000DC0290FD44C08295880F807680933901B0
:1040B0009801369527953695279520933C01815E8A
:1040C00080933A0110923D0124E630E047E050E051
:1040D00067E371E088E70E941C24892B09F0BECFBA
:1040E000A80125E0440F551F2A95E1F78091DC02D5
:1040F00080FD2BC04C5E5C4F04E610E020E230E017
:1041000060E488E70E944324892B09F0A7CF0E942E
:10411000E71FE101C095D0958091E0029091E10206
:10412000C823D923D093E102C093E00297CF880F30
:10413000880F880F8093390110923C01895F80932A
:104140003A0183E080933D01BFCFEBEBF2E080E2E8
:10415000DF011D928A95E9F7A8EDB1E004ED11E0C9
:104160008CEDC82E81E0D82E97E0592E77247394D9
:104170008D91E80129918E01240F352F311D2C5E80
:104180003C4FE82FF0E0E554FD4F90E080E0652CD7
:10419000681A872C082E01C0880C0A94EAF7790166
:1041A000A12CE701B9907E01B820662D6A196770CD
:1041B000962E062E000C770BDB2D01C0DD0F9A9496
:1041C000EAF77195619571096770772701C0B69418
:1041D0006A95EAF7BD2A6081962E9B289082A39467
:1041E00068E0A612DECF019631968830910579F607
:1041F000CA16DB0609F0BCCF04E610E020E230E08E
:104200004BEB52E07DCF8091DE029091DF02911165
:1042100003C091E089270895882369F062E070E087
:1042200082EB94E00E94411E892B19F08091DE02FE
:1042300008951092DE028091DE02EBCF8091DE02C3
:1042400008950F931F938091DF02882389F1809155
:104250001405909115050E941728C29760F00E94DE
:10426000FF27909315058093140560E080E00E947D
:10427000CC1E0E94CD050E940C208091DE02882376
:10428000B9F00E940B280091160510911705209196
:10429000180530911905601B710B820B930B6F3F52
:1042A0007F4F8F4F9F4720F41F910F910C94032154
:1042B0001F910F9108950F931F93CF93DF93C42FF6
:1042C000D22FFC0182818823C9F04093E4020E942E
:1042D000FF279093E3028093E20280E28C0F883004
:1042E00008F050C0C77081E001C0880FCA95EAF796
:1042F000DF91CF911F910F910C94580B1091E40214
:10430000141335C08091E2029091E3020E941728B5
:104310008436910560F5C0E2CD0F1D17B9F080E23B
:10432000810F883040F4177081E001C0880F1A9522
:10433000EAF70E945F0BC83048F481E09D2F977028
:1043400001C0880F9A95EAF70E94580B802F0E94AF
:10435000500BC830B8F4D77081E001C0880FDA95EF
:10436000EAF7DF91CF911F910F910C945F0B80E2E0
:104370008C0F883038F4C77081E001C0880FCA956F
:10438000EAF7EFCFDF91CF911F910F9108950F932F
:104390009C01CB01243F4CE5340759F1A8F4293D99
:1043A000FCE53F0701F12A3D4CE53407D1F1283DFA
:1043B0003C4591F406E221EE41EE68ED7CE50E9479
:1043C0005B2180E00F910895263FFCE53F07E9F06F
:1043D000B0F0273F3C45F9F0FC018281882339F198
:1043E0001092E402EFCF07E225EE45EE69ED7CE5A1
:1043F000E6CF06E221EE40EE64EF7CE5E0CF07E297
:1044000025EE44EE65EF7CE5DACF06E221EE42EEE2
:1044100066EF7CE5D4CF07E225EE46EE67EF7CE55C
:10442000CECF08E221E045EE6AED7CE5C8CF81E021
:10443000C9CFCF93DF93EC01FB018281882309F47C
:1044400020C1C430FDE5DF07C8F5CB3F9CE5D907A7
:1044500030F49E0122503C452431310598F50E94EC
:104460004C149093FC028093FB02C031FCE5DF0703
:1044700009F4E0C008F061C0C8309CE5D90709F430
:10448000CBC088F5C430FCE5DF0709F4B3C0E8F41D
:10449000C2309CE5D90709F4A7C08091FB02826075
:1044A000C330DC4509F4A3C08091FB029091FC026B
:1044B0000E945A140E943C0E80E004C0C236EDE512
:1044C000DE0769F2DF91CF9108958091FB02806150
:1044D000C630FCE5DF0709F48AC008F48FC080917C
:1044E000FB02806284C08091FB028D7FCC309CE512
:1044F000D90709F47CC070F48091FB028C60CA304B
:10450000FCE5DF0709F473C008F48AC08091FB0260
:104510008E7F6DC08091FB02877FCE309CE5D907EE
:1045200009F465C08091FB028B7FCF30DC4508F435
:104530005EC08091FB028F7E5AC0CD3FFCE5DF0755
:1045400009F474C040F5C4319CE5D90709F48AC068
:1045500058F4C231FCE5DF0709F474C008F46EC0FA
:104560008091FB02837F43C0CB3F9CE5D90709F4D0
:1045700049C008F04DC0C531DC4509F095CF8091A8
:10458000FB0282FB992790F921E0922790FB82F9A8
:1045900090FB83F92CC0C1308DE5D80709F458C0D1
:1045A00088F48091FC028360CF3FECE5DE0769F17F
:1045B0008091FC028D7FC115DD4538F18091FC02B0
:1045C0008C7F23C0C3308DE5D80709F458C008F4A8
:1045D00052C0C236DD4509F067CF9091FB02892FAA
:1045E0008F7E94FF806103C08091FB028160809385
:1045F000FB025ACF8091FB028460F9CF8091FB02CD
:104600008860F5CF8091FC0281608093FC024CCFE2
:104610008091FC028260F9CF8091FB028064E7CF39
:104620000E943C0E8091FB028068E1CF8091FC02E9
:104630008E7FEBCF8091FB028F7DD9CF8091FB02E3
:104640008F7BD5CF0E943C0E8091FB028F77CFCF1E
:104650008091FC02982F909591708E7F892B90FB12
:1046600081F9D3CF0E943C0E9091FB02892F97FBDA
:1046700087F98058BCCF81E00E94E01415CF80E01C
:10468000FBCF81E01FCFCF93DF93EB0186319C45B9
:1046900011F50E9484139A81992399F08A7A91E006
:1046A00009F490E09093E502811109C089E20E942B
:1046B00018130E94C71380E0DF91CF91089585E31E
:1046C000F6CF8091E502811104C089E20E941F1398
:1046D000F0CF85E3FBCF81E0EFCF1092B9008CE003
:1046E0008093B80008959F92AF92BF92CF92DF92CD
:1046F000EF92FF920F931F93CF93DF93B82EEB01AE
:104700000E94FF276C01EE24E394F12CC431D10503
:1047100060F025E0E22EF12CCF3FDC0731F0CE0136
:1047200064E170E00E9409317B0184EAA82E94E8DC
:10473000992E1092BC00A092BC000E94FF278C0111
:104740008091BC0087FF0DC08091B900887F8830C0
:1047500039F18091B900887F803111F10FEF1FEF9F
:1047600009C00E94FF27801B910B8E159F0540F307
:104770000EEF1FEFCF3FDC07E1F2C6010E941728C2
:104780008C179D07B0F2C801DF91CF911F910F9157
:10479000FF90EF90DF90CF90BF90AF909F900895E3
:1047A000B092BB009092BC000E94FF278C018091C8
:1047B000BC0087FF0AC08091B900887F883111F062
:1047C000803461F610E000E0DECF0E94FF27801BFE
:1047D000910B8E159F0558F3CBCF0F931F93CF935B
:1047E000DF93EB018093BB0084E88093BC000E94C0
:1047F000FF278C018091BC0087FF11C02091B90078
:10480000287F81E090E0283211F490E080E09195DB
:1048100081959109DF91CF911F910F910895CF3F1D
:10482000DC0741F30E94FF27801B910B8C179D072B
:1048300008F38EEF9FEFEECFCF92DF92EF92FF92D1
:104840000F931F93CF93DF936B018A017901B90115
:104850000E947323E6010C0D1D1DC017D10761F4E2
:1048600024E92093BC00DF91CF911F910F91FF901D
:10487000EF90DF90CF90089597FDF2CFB701899127
:104880000E94ED23EACFCF92DF92EF92FF920F9337
:104890001F93CF93DF93C62F6A017901B8010E945D
:1048A000732397FD0CC0B8018C2F0E94ED23E60105
:1048B000EC0CFD1CCE15DF0511F097FF0CC024E9B0
:1048C0002093BC00DF91CF911F910F91FF90EF904B
:1048D000DF90CF900895B80189910E94ED23EACF2F
:1048E00084E98093BC0008958EE14A9B02C0815008
:1048F000E1F74A9BFECF08955A9880E28A95F1F736
:104900005A9A0895FC013BE03A95F1F798E020E0CF
:1049100080E031E040E14A95F1F7880F4A9B02C000
:104920008160232742E04A95F1F7000040E14A9573
:10493000F1F7915079F790E19A95F1F799B132E05A
:104940003A95F1F7000040E14A95F1F792FB99277B
:1049500090F992272081920F90830895EF92FF9211
:104960000F931F93CF93DF930F92CDB7DEB71982CA
:104970008C017C01E60EF11C0E151F0561F481E02F
:104980009981911180E00F90DF91CF911F910F914C
:10499000FF90EF9008950E947424CE0101960E942A
:1049A0008224F80181938F01E7CF529A5A9A089591
:1049B00052985A9AEA9AE9E6F0E080818F7C8083E7
:1049C00008956150770B91E001C0990F6A95EAF75D
:1049D00020E031E0911108C0222391F05A9A80E240
:1049E0008A95F1F75A980895492F482339F05A9A31
:1049F000232740E24A95F1F79695ECCF5A98F9CFE4
:104A00005A98EDCFFF920F931F93CF93DF93EC0152
:104A10008C01060F111DC017D10731F4DF91CF9122
:104A20001F910F91FF900895F9900E947C2468E0F7
:104A30008F2D0E94E124EFCF1F920F920FB60F929D
:104A40001124EF92FF920F931F932F933F934F9355
:104A50005F936F937F938F939F93AF93BF93EF93E6
:104A6000FF93CF93DF930F92CDB7DEB719820E94E9
:104A70007424CE0101960E948224A82FA695A695A3
:104A8000A695282F229525709A2F9570290F922F81
:104A9000937026952695920F982797708981982B69
:104AA00009F075C0A63008F072C080E18A95F1F770
:104AB0005A9A529AB2E0BA95F1F700C05A98EA2E83
:104AC000F12CEAE0AE9FD0011124AD5FBE4F1896E5
:104AD000ED91FC9119973097B1F06091C2017091FE
:104AE000C30116962D913C911797260F371F1396E9
:104AF0008D919C911497680F791F15964C9115977D
:104B000012968C9109958AE08E9DF0018F9DF00D93
:104B10001124ED5FFE4F6581662351F02091C201A3
:104B20003091C30186819781820F931F0E940225D5
:104B30000E947C24F0E1FA95F1F75A9852985A9A1B
:104B400080E18A95F1F78AE08E9D80018F9D100D9E
:104B500011240D5F1E4FD80112966C911297662397
:104B600071F12091C2013091C30113968D919C91F6
:104B7000820F931F0E94AE24D801ED91FC918823EF
:104B800011F088E001C082E080830E9474240F90BD
:104B9000DF91CF91FF91EF91BF91AF919F918F9155
:104BA0007F916F915F914F913F912F911F910F9145
:104BB000FF90EF900F900FBE0F901F901895ED9102
:104BC000FC91DFCF0F931F93CF93DF93EC010697F8
:104BD0000CF0A9C08AE08C9FF0018D9FF00D11248C
:104BE000ED5FFE4F80819181892B09F49CC0F89480
:104BF000529A5A9885E08A95F1F700008C2F869595
:104C000085709C2F9570890F982F93708695869547
:104C1000890F8E0193E0000F111F9A95E1F7082B81
:104C20000E947C2400C068E0802F0E94E124A0E163
:104C3000AA95F1F752985A9A4A9B27C087E090E0CC
:104C40004A9925C08AE08C9F80018D9F100D112408
:104C50000D5F1E4FF80165816623A1F12091C2010D
:104C60003091C30186819781820F931F0E94AE24E9
:104C7000811128C0529A5A9AD801ED91FC9182E094
:104C80008083789482E090E016C000C0D5CF019771
:104C9000B9F4529A5A9A8AE08C9FF0018D9FF00DD8
:104CA0001124ED5FFE4F0190F081E02D81E08083C3
:104CB000789481E090E0DF91CF911F910F9108955A
:104CC00000C0BECF0E947424B0E2BA95F1F75A98A2
:104CD000529AE0E1EA95F1F78AE08C9FF0018D9F0E
:104CE000F00D1124ED5FFE4F6281662351F020919B
:104CF000C2013091C30183819481820F931F0E946E
:104D000002250E947C248AE08C9FF0018D9FF00D8B
:104D10001124ED5FFE4F0190F081E02D1082789418
:104D200090E080E0C8CF84E090E0C5CF9093EC02A3
:104D30008093EB0208950E94BA19811103C08091FB
:104D4000E6020895E091EB02F091EC02309721F039
:104D50000190F081E02D099480E008950E949B2647
:104D60000895E091EB02F091EC02309721F002807F
:104D7000F381E02D099408952091E9023091EA022F
:104D80002817390771F09093EA028093E902E091C5
:104D9000EB02F091EC02309721F00680F781E02DD4
:104DA000099408952091E7023091E8022817390705
:104DB00071F09093E8028093E702E091EB02F091AA
:104DC000EC02309721F00084F185E02D09940895DC
:104DD0009C012E5F3F4FAC01485F5F4F80E024177E
:104DE000350709F40895F90191919F019923B9F3C9
:104DF0008F5FF5CF662349F0FC013296089621912A
:104E0000261729F0E817F907D1F780E0089581E027
:104E100008959C01FC0132969FEF80E04191461776
:104E200051F09F3F19F4411101C0982F8F5F8630D8
:104E3000A9F79F3F09F40895290F311D97FD3A9571
:104E4000F90162830895FC01329608962191261398
:104E500003C0DF0111971C92E817F907B9F708950D
:104E60000C9409270C942327029626E0FC0111924A
:104E70002A95E9F7089510921C0510921D051092CD
:104E80001E0510921F050895CF92DF92EF92FF92B8
:104E90006B017C010E94BA1981110EC00E940B287F
:104EA000C61AD70AE80AF90AC0921C05D0921D0555
:104EB000E0921E05F0921F05FF90EF90DF90CF90DB
:104EC00008950F931F930E94BA19882321F01F9110
:104ED0000F910C940B280E940B2800911C05109137
:104EE0001D0520911E0530911F05600F711F821F47
:104EF000931F1F910F9108950895089508950C949C
:104F00007E2780912805843049F10E947F2780E028
:104F10000E942E0A1092ED0288E190E020E40FB684
:104F2000F894A895809360000FBE2093600083B72B
:104F3000817F846083BF83B7816083BF78948895C5
:104F400083B78E7F83BF0FB6F894A89580916000D9
:104F5000886180936000109260000FBE08950895EC
:104F6000CF930E947D270E9430190E94AF27C0E096
:104F70008C2F0E94F917811105C0CF5FCA30C1F78D
:104F8000CF91089581E0FCCF08950C94C4270E942E
:104F90003C0E0E949B260E942E0A0C94C5271F924D
:104FA0001FB61F9211248F939F93AF93BF9380914D
:104FB000ED02811113C08091200590912105A091EF
:104FC0002205B09123054196A11DB11D80932005B6
:104FD00090932105A0932205B0932305BF91AF9133
:104FE0009F918F911F901FBE1F90189582E084BDE6
:104FF00093E095BD9AEF97BD80936E0008952FB70B
:10500000F8948091200590912105A0912205B091FE
:1050100023052FBF08952FB7F89460912005709154
:10502000210580912205909123052FBF08959C01B1
:105030004FB7F8948091200590912105A091220509
:10504000B09123054FBF821B930B0895CF92DF923F
:10505000EF92FF922FB7F894C0902005D0902105D1
:10506000E0902205F09023052FBFA7019601261B93
:10507000370B480B590BCA01B901FF90EF90DF9035
:10508000CF90089578941F921FB61F9211248F938A
:105090009F93AF93BF938091200590912105A0919C
:1050A0002205B09123050196A11DB11D8093200515
:1050B00090932105A0932205B0932305BF91AF9152
:1050C0009F918F911F901FBE1F90189587E797E7BC
:1050D000909301088093000888E19AE00FB6F89455
:1050E000A895809360000FBE90936000FFCF9093CF
:1050F000DD018093DC0108958091F902089590917B
:105100002805943031F58093EE027093F00260939D
:10511000EF0282E08093E9008FEF9091E8008150E8
:1051200095FD06C095ED9A95F1F700008111F5CF38
:105130008091E80085FF0DC050E040E063E070E042
:105140008EEE92E00E946B2A8091E8008E77809329
:10515000E8000895BC0184E00C947F28BC0183E042
:105160000C947F28CF93DF93EC0181E08093E900DA
:105170008FEF9091E800815095FD06C095ED9A95CE
:10518000F1F700008111F5CF8091E80085FF14C090
:1051900050E040E068E070E0CE010E946B2A809110
:1051A000E8008E778093E80088E0FE01A1EFB2E08E
:1051B00001900D928A95E1F7DF91CF9108950895BE
:1051C00080912705811109C00E94FB2B0E94582C59
:1051D0008091E20084608093E20008951092270598
:1051E000089508950895089542E061EC81E00E94D9
:1051F000772B42E261EC82E00C94772B80912A05B8
:10520000833009F45FC030F48130C1F1823009F499
:105210009BC008958A3009F487C08B3009F46DC0B3
:10522000893009F04EC080912905813209F049C0CA
:1052300080912D0590912E05029708F042C0809133
:10524000E800877F8093E8008091E80082FF35C006
:105250009091F3008091F200029729F48091F1007F
:105260008B7F813021F48091F1008093F90280914D
:10527000E8008B778093E8000C94AB2B8091290594
:10528000813AF9F48091E800877F8093E80080916B
:105290002D0590912E05892B61F468E081EF92E055
:1052A00070E00E94BA2A8091E8008B778093E80032
:1052B000089560E090E080E0F3CF809128058111AF
:1052C000C3CF089580912905813AD9F780912D05A2
:1052D00090912E05892BA9F78091E800877F809314
:1052E000E8008091E80080FFFCCF80914801809326
:1052F000F1008091E8008E77BDCF80912905813241
:1053000001F780912D0590912E05892BD1F6809182
:10531000E800877F8093E8000E94AB2B80912B05EB
:10532000809348010C943C0E80912905813249F606
:105330008091E800877F8093E8000E94AB2B8091EA
:105340002C058093FA02089580912905813A09F08D
:10535000B8CF8091E800877F8093E8008091E800D3
:1053600080FFFCCF8091FA02C2CF84B7877F84BFD1
:105370000FB6F894A89580916000886180936000D2
:10538000109260000FBE80E890E00FB6F894809312
:105390006100909361000FBE0C9419150E94FB2BC5
:1053A0000E94582CE2EEF0E0808184608083789443
:1053B0000E94E12E0E942B158EE391E00C9496261C
:1053C00080912805853031F480912805853021F0C1
:1053D0000E94C7270C943A150E94812780912605C8
:1053E000882391F30E94B027882371F30E94552AE5
:1053F0000E943C0EE9CF0C94FD29292F332723303E
:10540000310519F168F42130310509F444C0223026
:10541000310509F445C090E080E030E020E025C08F
:105420002132310549F122323105A9F780E490E0BB
:1054300023EC3AE061157105C1F082E390E021E9C7
:105440003AE06130710589F0E6CF99278130910506
:1054500081F0009729F00297F1F6E6E1FAE002C048
:10546000E0E4FAE0849190E09F01FA013183208327
:105470000895E4E2FAE0F6CF89E090E026E53AE02C
:105480006115710591F389E090E02FE63AE0613013
:10549000710559F3C0CF82E190E02FE73AE0E5CF04
:1054A0008BE390E024E43AE0E0CF80E189BD82E143
:1054B00089BD09B400FEFDCF8091D8008F7D809317
:1054C000D8008091E00082608093E0008091E0004D
:1054D00081FDFCCF0895AF92BF92CF92DF92FF92F1
:1054E0000F931F93CF93DF936C01EB018A010E940E
:1054F000CA2BF82E811123C00115110539F0F801CE
:1055000080819181C81BD90BC80ED91EB12CA12C4A
:105510002097A9F08091E80085FD22C08091E800E5
:105520008E778093E80001151105A1F0F8018081C4
:105530009181A80EB91EB182A08285E0F82E8F2D30
:10554000DF91CF911F910F91FF90DF90CF90BF908F
:10555000AF9008950E94CA2B8823D1F2F82EEFCF86
:10556000F60181916F018093F1002197FFEFAF1A4F
:10557000BF0ACECFFC0180912F0590913005861790
:105580009707A0F06115710529F49091E8009E77C6
:105590009093E80090E06115710551F4911108C0F5
:1055A0008091E80082FF34C080E00895BC01F2CF12
:1055B000809128058823C1F18530C1F18091E800F0
:1055C00083FD30C08091E80082FDEACF8091E80041
:1055D00080FFE1CF8091F3002091F200382F611518
:1055E000710519F02830310558F091E02830310567
:1055F00009F090E02091E8002E772093E800CBCFCF
:1056000081918093F100615071092F5F3F4FE7CF87
:1056100080912805882341F0853041F08091E80091
:1056200083FFBECF81E0089582E0089583E008956E
:10563000FC0180912F059091300586179707A0F007
:105640006115710529F48091E8008E778093E80058
:1056500090E06115710551F4911108C08091E80046
:1056600082FF35C080E00895BC01F2CF809128050B
:105670008823C9F18530C9F18091E80083FD31C0EC
:105680008091E80082FDEACF8091E80080FFE1CFC1
:105690008091F3002091F200382F6115710519F007
:1056A0002830310558F091E02830310509F090E0BC
:1056B0008091E8008E778093E800CBCF849180932F
:1056C000F1003196615071092F5F3F4FE6CF809115
:1056D0002805882341F0853041F08091E80083FF60
:1056E000BDCF81E0089582E0089583E00895982F6A
:1056F000973028F08F708093E90081E008959093AF
:10570000E900242F762F50E0981731F07091EC00CB
:105710002091ED005091F00021FD02C09F5FE8CF85
:105720003091EB003E7F3093EB003091ED003D7FF8
:105730003093ED003091EB0031603093EB007093CB
:10574000EC002093ED005093F0002091EE0027FD37
:10575000E5CF80E008958091290587FF13C08091EF
:10576000E80082FF06C08091E8008B778093E80014
:1057700004C0809128058111F2CF089580912805F9
:105780008823D9F38091E80080FFF8CF8091E8006A
:105790008E77ECCF2091E4003091E50095E6A901E9
:1057A0002091EC00822F817020FF06C08091E800DC
:1057B00080FF06C080E008952091E80022FD1AC015
:1057C00080912805882389F0853089F08091EB004D
:1057D00085FD0FC02091E4003091E500421753078A
:1057E000F9F29150E1F684E0089582E0089583E0B3
:1057F000089581E008950E94692C0E94712CE0EECA
:10580000F0E0808181608083E8EDF0E080818F7737
:10581000808319BCA7EDB0E08C918E7F8C93808142
:105820008F7E80831092270508950F931F93CF9347
:10583000DF930E94692C0E94712CC8EDD0E0888112
:105840008F77888388818068888388818F7D88832B
:1058500019BC10922805109224051092260510926A
:10586000250500EE10E0F80180818B7F8083888120
:105870008160888342E060E080E00E94772BE1EE67
:10588000F0E080818E7F8083E2EEF0E080818160B5
:105890008083808188608083F80180818E7F80830F
:1058A000888180618883DF91CF911F910F91089546
:1058B000E8EDF0E080818F7E8083E7EDF0E080818D
:1058C0008160808384E082BF81E0809327050C940F
:1058D000152CE8EDF0E080818E7F80831092E2004D
:1058E00008951092DA001092E10008951F920F922D
:1058F0000FB60F9211242F933F934F935F936F93A3
:105900007F938F939F93AF93BF93EF93FF93809178
:10591000E10082FF0BC08091E20082FF07C080910E
:10592000E1008B7F8093E1000E94E02E8091DA00FD
:1059300080FF19C08091D80080FF15C08091DA00E7
:105940008E7F8093DA008091D90080FF96C080E13D
:1059500089BD82E189BD09B400FEFDCF81E080935D
:1059600028050E94E0288091E10080FF19C0809105
:10597000E20080FF15C08091E2008E7F8093E200FC
:105980008091E20080618093E2008091D800806283
:105990008093D80019BC85E0809328050E94F228E6
:1059A0008091E10084FF2BC08091E20084FF27C03A
:1059B00080E189BD82E189BD89B5982F917080FF12
:1059C000FBCF8091D8008F7D8093D8008091E1003B
:1059D0008F7E8093E1008091E2008F7E8093E200D1
:1059E0008091E20081608093E20080912405882309
:1059F00009F449C084E0809328050E94F32880912F
:105A0000E10083FF29C08091E20083FF25C08091DF
:105A1000E100877F8093E10082E080932805109267
:105A200024058091E1008E7F8093E1008091E20067
:105A30008E7F8093E2008091E20080618093E2009B
:105A400042E060E080E00E94772B8091F000886067
:105A50008093F0000E94F128FF91EF91BF91AF91E8
:105A60009F918F917F916F915F914F913F912F9176
:105A70000F900FBE0F901F90189519BC109228051B
:105A80000E94EE2870CF8091E30087FD93E0909311
:105A90002805B3CF1F920F920FB60F9211242F93A8
:105AA0003F934F935F936F937F938F939F93AF93A6
:105AB000BF93CF93DF93EF93FF93D091E900DF7013
:105AC0008091EC00C82FC17080FDC0E81092E90001
:105AD0008091F000877F8093F00078940E948E2D53
