:100000000C9476020C94BD020C94BD020C94BD02BB
:100010000C94BD020C94BD020C94BD020C94BD0264
:100020000C94BD020C94BD020C949F290C94722A6E
:100030000C94C0240C94BD020C94BD020C94BD021F
:100040000C94BD020C94BD020C94BD020C94BD0234
:100050000C94BD020C942B250C94BD020C94BD0293
:100060000C94BD020C94BD020C94BD020C94BD0214
:100070000C94BD020C94BD020C94BD020C94BD0204
:100080000C94BD020C94BD020C94BD020C94BD02F4
:100090000C94BD020C94BD020C94BD020C94BD02E4
:1000A0000C94BD020C94BD020C94BD021E001F00F6
:1000B000200000000000000000002A2B28000000A3
:1000C0000000000000000000000000000029000007
:1000D00000002C1E3420212224342627252E362DE4
:1000E0003738271E1F202122232425263333362E7E
:1000F00037381F0405060708090A0B0C0D0E0F10F0
:100100001112131415161718191A1B1C1D2F313034
:10011000232D350405060708090A0B0C0D0E0F10D8
:100120001112131415161718191A1B1C1D2F313014
:10013000354C00000000000000000000000000003E
:1001400000000000000000000000000000000000AF
:100150000000000000007E0F00D4FFFFFFC700007A
:10016000007800047F3F1F643214643214783C1E10
:100170001E140A052223252628292A2C2D2F303249
:10018000333536383A3B3D3E4042434547494A4C79
:100190004E5051535557595A5C5E606264666869A7
:1001A0006B6D6F71737577797B7D7F8183858789AF
:1001B0008A8C8E90929496989A9C9E9FA1A3A5A7B4
:1001C000A8AAACAEAFB1B3B4B6B8B9BBBCBEBFC1E0
:1001D000C2C3C5C6C7C9CACBCCCDCED0D1D2D2D36B
:1001E000D4D5D6D7D7D8D9D9DADADBDBDBDCDCDC7F
:1001F000DCDCDDDDDDDDDCDCDCDCDCDBDBDBDADA42
:10020000D9D9D8D7D7D6D5D4D3D2D2D1D0CECDCCB8
:10021000CBCAC9C7C6C5C3C2C1BFBEBCBBB9B8B6CD
:10022000B4B3B1AFAEACAAA8A7A5A3A19F9E9C9A58
:1002300098969492908E8C8A89878583817F7D7B26
:1002400079777573716F6D6B6968666462605E5C07
:100250005A5957555351504E4C4A494745434240CD
:100260003E3D3B3A3836353332302F2D2C2A292863
:1002700026252322FFAA7F5540000101010101012B
:10028000010101020202020202020202030303034D
:10029000030303030404040404040405050505051D
:1002A00006060606060707070707080808080909DB
:1002B00009090A0A0A0B0B0B0C0C0C0D0D0D0E0E86
:1002C0000E0F0F0F10101111111212131314141519
:1002D0001516161717181819191A1A1B1B1C1D1D8D
:1002E0001E1E1F20202122222324242526262728E3
:1002F00029292A2B2C2D2D2E2F3031323233343513
:10030000363738393A3B3C3D3E3F40414243444515
:10031000464748494A4C4D4E4F50515354555658F4
:10032000595A5B5D5E5F616264656668696B6C6D9E
:100330006F7072737577787A7B7D7E808283858714
:10034000888A8C8E8F91939596989A9C9EA0A2A352
:10035000A5A7A9ABADAFB1B3B5B7BABCBEC0C2C457
:10036000C6C9CBCDCFD1D4D6D8DBDDDFE2E4E7E917
:10037000EBEEF0F3F5F8FAFDFF12036B0065007980
:100380000062006F006100720064000000160371DB
:10039000006D006B006200750069006C0064006510
:1003A00000720000000403090409023B000201007E
:1003B000A0FA090400000103010100092111010054
:1003C000012240000705810308000A090401000119
:1003D0000300000009211101000122B60007058277
:1003E0000320000A1201000200000008EDFE606018
:1003F00001000102000105010902A10185020901B4
:10040000A1000509190129081500250195087501A4
:1004100081020501093009311581257F9502750892
:10042000810609381581257F950175088106050C1F
:100430000A38021581257F950175088106C0C0051F
:10044000010980A101850319012AB700150126B70A
:1004500000950175108100C0050C0901A1018504FA
:1004600019012AA002150126A0029501751081002C
:10047000C005010906A1018505050719E029E71551
:100480000025019508750181020507190029EF155E
:1004900000250195F07501810205081901290595CE
:1004A0000575019102950175039101C005010906C9
:1004B000A101050719E029E7150025019508750137
:1004C00081029501750881010507190029FF1500B2
:1004D00026FF009506750881000508190129059574
:1004E0000575019102950175039101C011241FBE8C
:1004F000CFEFDAE0DEBFCDBF04B603FE27C08091A8
:10050000A0029091A102A091A202B091A302873013
:10051000904BA740B04BD1F41092A0021092A102D0
:100520001092A2021092A30214BE84B7877F84BFE8
:100530000FB6F894A8958091600088618093600060
:10054000109260000FBEE0E0F8E3099511E0A0E032
:10055000B1E0E8E8F0E602C005900D92A23BB107D9
:10056000D9F722E0A2EBB1E001C01D92A03AB20798
:10057000E1F70E9466150C94E72F0C94000090E0C0
:1005800080E0089508950F931F93CF93DF9300D0D9
:10059000CDB7DEB78091B501882309F440C08091C2
:1005A000B6019091B7010E941C2520910001309165
:1005B00001018217930760F18091B5018130E1F468
:1005C00080E290E09A8389838091B9011F928F9392
:1005D0008AE291E09F938F938E010F5F1F4F1F93CD
:1005E0000F930E94CE2CC8010E9450050F900F90CF
:1005F0000F900F900F900F901092B9011092B801C8
:100600001092B5010E94F0249093B7018093B60137
:100610000F900F90DF91CF911F910F9108958091CE
:10062000B4018823A9F38091B6019091B7010E948B
:100630001C252091000130910101369527953695B2
:1006400027958217930720F38AE20E94AD05109246
:10065000B401DECF0F931F93CF93DF9300D0CDB7BC
:10066000DEB78B01FB018081813041F1823069F17D
:10067000811108C082818823E9F04FEF6FEF89EA8A
:100680000E94881BF8019081913031F18091B8016E
:10069000923009F463C091112FC0928191112CC046
:1006A0009091B901990F9F5F9093B9018F5F8093EB
:1006B000B80122C04FEF6FEF82E1E2CF8281882341
:1006C000C9F34FEF6FEF85E5DBCF8281882391F38C
:1006D0004FEF6FEF80E0D4CF82818823C9F1809102
:1006E000B5018F5F8093B5019093B4010E94F0240F
:1006F0009093B7018093B6018091B801883000F1E2
:1007000080E290E09A8389838091B9011F928F9350
:100710008AE291E09F938F938E010F5F1F4F1F938B
:100720000F930E94CE2CC8010E9450051092B9016F
:100730001092B8010F900F900F900F900F900F90A4
:1007400080E00F900F90DF91CF911F910F9108954E
:100750008AE20E943E061092B401CECF928191119E
:10076000CBCF9091B901990F9FCF81E008950C9460
:100770002A0308950C94B9031F93CF93DF9300D0FD
:1007800000D00F92CDB7DEB749835A836B83309187
:10079000BA0189819A8131111DC06623B9F02223E3
:1007A000A9F00E94E80B182F682F89819A810E9476
:1007B000930B69817A81812F0F900F900F900F908A
:1007C0000F90DF91CF911F910C9408120E94C00BE3
:1007D000182FEFCF0E94E80B69817A81EDCFFC01E1
:1007E000262F408151816281738184810C94BC03E6
:1007F00081E00895CF93DF93D82FC92F60E00E9446
:10080000EF036D2F7C2FDF91CF910C94BA030E94E0
:1008100031140E945A050E9434210C9469140C94DE
:100820006B1408950E946C090E9411042FEF84E359
:100830009CE0215080409040E1F700C000000C9403
:100840004F250F931F93CF93DF938C0161E00E949C
:10085000EF03EC01B8010E94B703882309F441C0FB
:10086000B801CE010E948E208823D9F1B801CE01B3
:100870000E94DE218823A9F1B801CE010E94332213
:10088000882379F1B801CE010E941C23882349F105
:10089000B801CE010E94381F882319F1F801828126
:1008A000882361F0CB35FDE5DF0721F170F4C11538
:1008B000ECE5DE07A1F0CF3DDC45C9F0C801DF91D2
:1008C000CF911F910F910C94B503CC358DE5D807CE
:1008D000A1F0CD35DD4591F70E94C30FEFCF0E9407
:1008E000120480E0DF91CF911F910F9108950E9433
:1008F0003D11F7CF0E94CC0FE1CF0E94CF0FDECF8A
:10090000DF92EF92FF920F931F93CF93DF93E82F25
:10091000F0E0EE54FF4FD490282F2695269526958B
:1009200030E0F901EE5AFE4F0491877010E0082E76
:1009300002C0159507950A94E2F701701127F90195
:10094000EE5BFE4FE490F12C082E02C0F594E79484
:100950000A94E2F791E0E922FF24F901EE5CFE4FF0
:10096000C491D0E002C0D595C7958A95E2F7C170D1
:10097000DD270115110519F081EE0E94AD05E11486
:10098000F10419F086EE0E94AD058D2D0E94AB0694
:10099000EF2819F086EE0E943E06012B19F081EE39
:1009A0000E943E06CD2B51F08CE2DF91CF911F913A
:1009B0000F91FF90EF90DF900C94AB06DF91CF91F9
:1009C0001F910F91FF90EF90DF900895EF92FF92AB
:1009D0000F931F93CF93DF93EC01162F0AE08881CA
:1009E000882309F456C0813009F050C089818130D4
:1009F000A1F47E0182E0E80EF11C8A810E94AB0620
:100A0000E7012196812F882351F3EFE9FFE0319729
:100A1000F1F700C000008150F6CF823041F47E0132
:100A2000E2E0EE0EF11C8A810E94AD05E9CF833031
:100A300041F47E01F2E0EF0EF11C8A810E943E0635
:100A4000DFCF843011F02196DCCF2A81229680E01E
:100A500090E0AE014F5F5F4F2053330B2A303105DA
:100A600050F0009771F2EFE9FFE03197F1F700C025
:100A700000000197F6CF089FB001099F700D112467
:100A8000C901860F971F2981EA01E3CF0E948004E4
:100A9000B8CFDF91CF911F910F91FF90EF90089504
:100AA00060E00C94E60408950C94530581E00895E9
:100AB0000C9456050895CF93C82F0E9454058C2F8F
:100AC000CF910C945805EF92FF920F931F93CF9301
:100AD000DF93CDB7DEB72B970FB6F894DEBF0FBE0E
:100AE000CDBF042F4F83152F588769877A878B874F
:100AF000EA84FB8461110E94F40F1E8285E0FE01EE
:100B00003796DE01119601900D928A95E1F7EF2854
:100B1000A9F449815A816B817C818D819E810E94DB
:100B2000F20E2B960FB6F894DEBF0FBECDBFDF914D
:100B3000CF911F910F91FF90EF90089510231F3FC9
:100B400041F3CE0101960E94F8038111E2CFE9CF73
:100B5000FC01808191810C942A0CCF93C82F8823AB
:100B600009F48AC08238C1F40E944B2381FD84C0FD
:100B700089E30E948C0F0E9425102FEF31EE84E054
:100B8000215030408040E1F700C0000089E30E941E
:100B9000930FCF910C9425108338A1F40E944B231E
:100BA00080FD6AC083E50E948C0F0E9425109FEF94
:100BB00021EE34E0915020403040E1F700C00000C9
:100BC00083E5E5CF8438A1F40E944B2382FD54C015
:100BD00087E40E948C0F0E9425108FEF91EE24E095
:100BE000815090402040E1F700C0000087E4CFCF63
:100BF0008CEF8C0F813A90F46C2F809102019091D0
:100C000003010E94C123882329F08C2F0E94930F97
:100C10000E9425108C2F0E948C0FBBCF80E28C0F7E
:100C2000883048F4C77081E001C0880FCA95EAF7A0
:100C30000E94D50FAECF8BE58C0F833038F42C2F6C
:100C40002452330BC901CF910C948123E8E5EC0FBA
:100C5000E73150F4F0E0EE0FFF1FE35DFE4F8081BF
:100C60009181CF910C949723CD3E30F08C2F0E9430
:100C7000F415CF910C94B616CF910895882309F4FA
:100C800052C0823871F40E944B2381FF4CC089E32B
:100C90000E948C0F0E94251089E30E94930F0C94F0
:100CA0002510833859F40E944B2380FF3CC083E514
:100CB0000E948C0F0E94251083E5EFCF843859F4F1
:100CC0000E944B2382FF2FC087E40E948C0F0E945A
:100CD000251087E4E2CF9CEF980F913AF0F290E272
:100CE000980F983050F4877091E001C0990F8A9561
:100CF000EAF7892F0E94DB0FD2CF9BE5980F933044
:100D000020F490E080E00C94812398E5980F9731CF
:100D100020F490E080E00C9497238D3E20F00E9418
:100D20003D160C94B61608951F93CF93DF93182F9A
:100D3000EB010E94AD05209731F4812FDF91CF9117
:100D40001F910C943E068FE99FE00197F1F700C0D8
:100D500000002197F0CF70E060E0893311F460E586
:100D600070E00C949406882321F00E94D50F0C9417
:100D700025100895882321F00E94DB0F0C94251084
:100D80000895AF92BF92CF92DF92EF92FF920F93AE
:100D90001F93CF93DF9300D000D00F92CDB7DEB773
:100DA0006C016D837983FC011281058102950F70BE
:100DB0000E94AA0FE82E8823A1F0E12E112389F0CA
:100DC0008981807F803429F08D81805EE12C88309C
:100DD00040F082E00E9476100E94AA0F91E0E82E77
:100DE000E926A980A2949FE0A922B12CF501E75140
:100DF000F04D0C94812C09810F70F981F07F11F076
:100E00000295007F1123B1F0002361F08D81805E97
:100E1000883018F01D81111109C0802F0E94D50F54
:100E20000E9425108D810E94AD0515C0802F0E9463
:100E3000E60FF6CF8D810E943E06002361F08D8182
:100E4000805E883018F01D81111133C0802F0E9400
:100E5000DB0F0E94251098E0A91AB108E4E0AE1655
:100E6000B10420F40E944B230E945B05EE2009F49C
:100E7000CEC10E94A60F80FDCAC1F60112820E9457
:100E8000A00F0E94830AC6010E942E090E94A00F93
:100E90000F900F900F900F900F90DF91CF911F91B7
:100EA0000F91FF90EF90DF90CF90BF90AF900C9498
:100EB000B40A802F0E94EC0FCCCF29812F70F22E24
:100EC0003981307F303219F0F29480EFF8228D8131
:100ED000882369F0813049F1112391F1002351F108
:100EE000F601858180FF9ECF8F70858323C01123FB
:100EF00081F0011106C00E9408108F290E94B306DC
:100F0000AACF0130C1F70E9408108F290E940E104D
:100F1000A2CF011106C00E941B108F2D0E94BA069D
:100F20009ACF013009F497CFF6CF112329F006307C
:100F300008F091CF8F2DE2CF053008F08CCFEDCFA8
:100F4000002359F30D81093349F41FEF27EE33E0F5
:100F5000115020403040E1F700C000008D810E9418
:100F60003E0679CF898186958695837069F08130B8
:100F700009F071CF8D8199819370111102C090E0B9
:100F800080E00E94972367CF8D8199819370111122
:100F900002C090E080E00E9481235DCF8D8111230B
:100FA00029F00E94F4150E94B61655CF0E943D16F6
:100FB000FACF8981837009F050C011114CCF2D8177
:100FC000229526952770220F220F4D814F7050E0F9
:100FD00070E060E0022E04C0440F551F661F771FAB
:100FE0000A94D2F70D8180E090E0DC0104FF0FC08D
:100FF0008FE090E0A0E0B0E004C0880F991FAA1F26
:10100000BB1F2A95D2F780959095A095B095198130
:101010001695169513701D838C019D01042B152BBD
:10102000262B372B09831A832B833C831D816981EF
:101030007A818B819C81123051F0133059F011303C
:1010400019F00E94F90907CF0E94D10904CF0E942C
:10105000210A01CF0E94CF09FECE112309F448C016
:10106000098100FFF8CE2D81229526952770220F49
:10107000220F4D814F7050E070E060E0022E04C0FE
:10108000440F551F661F771F0A94D2F70D8180E029
:1010900090E0DC0104FF0FC08FE090E0A0E0B0E042
:1010A00004C0880F991FAA1FBB1F2A95D2F78095ED
:1010B0009095A095B09519811695169513701D837E
:1010C0008C019D01042B152B262B372B09831A83AA
:1010D0002B833C831D8169817A818B819C811230B5
:1010E00071F0133079F0113039F00E94420BB3CE19
:1010F000198111FFB0CEB7CF0E941A0BACCE0E945F
:101100006A0BA9CE0E944D0AA6CE09810F700983F1
:10111000112329F0802F0E94830A8D81EFCE8D81CB
:101120000E94BA0689810E94B40A95CE2D81223F81
:10113000A1F160F4203FE1F0213F41F1112309F4D6
:1011400045C001116FCE89818F7124C03D81333F2D
:1011500049F1343F99F7112379F109810F7109831E
:10116000802F0E94830A63E089810E945B1073CE06
:10117000112341F0053008F06ECE89818F710E94F5
:10118000E90A69CE063008F066CEF7CF89818F7103
:10119000112349F20E94830A5ECE89818F71112347
:1011A000C9F3C1CF112329F089818F710E945E0A92
:1011B00052CE0E94590A4FCE81E00E947610023032
:1011C00008F449CE82E00E94761045CE002361F0FB
:1011D0001D81193309F0C2CE2FEF37EE83E0215085
:1011E00030408040E1F7B8CE89818F719CCF498132
:1011F0004F706D81C6010E94BF020E94600C2BCE11
:1012000049814F706D81C6010E94071224CE0F9054
:101210000F900F900F900F90DF91CF911F910F9132
:10122000FF90EF90DF90CF90BF90AF9008950F9315
:101230001F93CF93DF93EC01688179818A810E94AB
:10124000360C8C010E94920B0E94CE09B801CE018F
:10125000DF91CF911F910F910C94C106CF93DF9333
:10126000EC01988189812B813C81232B19F0892302
:101270008F3F59F4DF91CF910895CE010E94170955
:10128000CE01DF91CF910C94FA03CE010E9421048C
:101290008111F3CF0E94AA0F882361F38A818823EA
:1012A00049F382E0DF91CF910C94761090E080E0DA
:1012B0000E94812390E080E00E9497230E94F40F17
:1012C0000E9405100E9425100E94E1170C94B6168A
:1012D0000E949A0F0C9456090E94E30F0C9468091F
:1012E000282F892F82958F70903C80F48A30B0F43B
:1012F000843020F4823090F480E008958630E1F765
:1013000081E0283E88F0213FB9F70EC08C3011F003
:101310008F3091F793FB882780F9089581E0203F73
:1013200039F018F4283E40F70895243F29F7FCCF00
:101330000895FC01808191810E942A0C0C9470090F
:10134000CF93DF9300D000D00F92CDB7DEB70F90D0
:101350000F900F900F900F90DF91CF910895CF9342
:10136000DF9300D000D000D0CDB7DEB726960FB601
:10137000F894DEBF0FBECDBFDF91CF9108950895E1
:101380000C94BF090E94C0096093C4017093C50109
:101390008093C6019093C7010C94560908950C944C
:1013A000C209CF93DF9300D000D0CDB7DEB76983F9
:1013B0007A838B839C838091C4019091C501A09115
:1013C000C601B091C70129813A814B815C81282BEC
:1013D000392B4A2B5B2B29833A834B835C83CA01CD
:1013E000B9010F900F900F900F90DF91CF910C9457
:1013F000C209CF93DF9300D000D0CDB7DEB76983A9
:101400007A838B839C838091C4019091C501A091C4
:10141000C601B091C70129813A814B815C812823A3
:1014200039234A235B2329833A834B835C83CA0194
:10143000B9010F900F900F900F90DF91CF910C9406
:10144000C209CF93DF9300D000D0CDB7DEB7698358
:101450007A838B839C838091C4019091C501A09174
:10146000C601B091C70129813A814B815C8128274F
:1014700039274A275B2729833A834B835C83CA0138
:10148000B9010F900F900F900F90DF91CF910C94B6
:10149000C2090C94BF090C94490A0E944B0A60933C
:1014A000C0017093C1018093C2019093C3010C9459
:1014B000560960E070E0CB010C944D0A0F931F9326
:1014C000CF93DF9300D000D0CDB7DEB741E050E03E
:1014D00060E070E08A019B0104C0000F111F221F11
:1014E000331F8A95D2F709831A832B833C83C90162
:1014F000B8010F900F900F900F90DF91CF911F9137
:101500000F910C944D0A0F931F93CF93DF9300D04C
:1015100000D0CDB7DEB741E050E060E070E004C03D
:10152000440F551F661F771F8A95D2F78091C0011F
:101530009091C101A091C201B091C3018A019B01A8
:10154000082B192B2A2B3B2B09831A832B833C83D3
:10155000C901B8010F900F900F900F90DF91CF91BC
:101560001F910F910C944D0A0F931F93CF93DF930C
:1015700000D000D0CDB7DEB741E050E060E070E0D1
:1015800004C0440F551F661F771F8A95D2F74095F8
:101590005095609570958091C0019091C101A09186
:1015A000C201B091C3018A019B01082319232A2398
:1015B0003B2309831A832B833C83C901B8010F9015
:1015C0000F900F900F90DF91CF911F910F910C947E
:1015D0004D0A0F931F93CF93DF9300D000D0CDB768
:1015E000DEB741E050E060E070E004C0440F551FFA
:1015F000661F771F8A95D2F78091C0019091C10133
:10160000A091C201B091C3018A019B01082719274B
:101610002A273B2709831A832B833C83C901B801FE
:101620000F900F900F900F90DF91CF911F910F911E
:101630000C944D0ACF93DF9300D000D0CDB7DEB726
:1016400069837A838B839C838091C0019091C101CF
:10165000A091C201B091C30129813A814B815C8183
:10166000282B392B4A2B5B2B29833A834B835C83B2
:10167000CA01B9010F900F900F900F90DF91CF9199
:101680000C944D0ACF93DF9300D000D0CDB7DEB7D6
:1016900069837A838B839C838091C0019091C1017F
:1016A000A091C201B091C30129813A814B815C8133
:1016B000282339234A235B2329833A834B835C8382
:1016C000CA01B9010F900F900F900F90DF91CF9149
:1016D0000C944D0ACF93DF9300D000D0CDB7DEB786
:1016E00069837A838B839C838091C0019091C1012F
:1016F000A091C201B091C30129813A814B815C81E3
:10170000282739274A275B2729833A834B835C8321
:10171000CA01B9010F900F900F900F90DF91CF91F8
:101720000C944D0A0895E92FEE0FE90FE80F8E2F64
:10173000877041E001C0440F8A95EAF7E695E69587
:10174000E69585E0E89FF0011124E554FE4F30E076
:1017500020E070E05191DF011197CB01022E02C011
:10176000969587950A94E2F7817081958527842361
:1017700085278C932F5F3F4F2530310559F708950A
:10178000E92FEE0FE90FE80F9E2F9770E695E6958B
:10179000E69585E0E89FF0011124E554FE4F50E006
:1017A00040E080E0219130E0092E02C03695279577
:1017B0000A94E2F721703327042E01C0220F0A9405
:1017C000EAF7822B4F5F5F4F4530510559F7089577
:1017D000BF92CF92DF92EF92FF920F931F93CF931E
:1017E000DF938C01C090C001D090C101E090C20194
:1017F000F090C3018091C4019091C501A091C601F0
:10180000B091C701C82AD92AEA2AFB2ACFE1D0E041
:10181000BC2ED701C6010C2E04C0B695A79597958E
:1018200087950A94D2F780FD0EC0219788F7B12CD6
:101830008B2DDF91CF911F910F91FF90EF90DF9053
:10184000CF90BF900895B8018C2F0E943513019757
:1018500061F3EECFCF93DF93D82FC92F0E94E80B0F
:101860006D2F7C2FDF91CF910C9435131F93CF9365
:10187000DF93162FD72F9091BA01992339F0862F35
:10188000972FDF91CF911F910C942A0C882391F010
:10189000862F972F0E94E80BC82F682F812F9D2F2E
:1018A0000E94930B612F7D2F8C2FDF91CF911F9181
:1018B0000C943513862F972F0E94C00BC82FF2CFA0
:1018C000EF92FF920F931F93CF93DF938C01892B9D
:1018D00089F0F12CEE24E394E8012196F80184913B
:1018E000843709F458C0A0F4823009F43FC048F4AA
:1018F0008130D1F0DF91CF911F910F91FF90EF9048
:1019000008959CEF980F9037A8F70E94AD050AC084
:10191000853709F44EC09CE7980F903758F78F77BA
:101920000E943E068E0116C00E5F1F4FFE0184917D
:1019300090E2980F983060F48770FE2D01C0FF0F81
:101940008A95EAF78F2F0E94F70F0E94251002C098
:101950000E94AD058F2D882309F4BECFEFE9FFE08B
:101960003197F1F700C000008150F5CF0E5F1F4F97
:10197000FE01849190E2980F983050F48770FE2D0C
:1019800001C0FF0F8A95EAF78F2F0E94FD0FDDCF70
:101990000E943E06DFCF0E5F1F4FFE01C491CC2395
:1019A000C9F28FE99FE00197F1F700C00000C15034
:1019B000F6CF0E5F1F4FFE01F490CCCF1F93CF9355
:1019C000DF93E091C80116E08091C9018E1304C035
:1019D000DF91CF911F910895CE2FD0E01E9FF0018F
:1019E0001124E653FE4F40815181628173818481CD
:1019F00095810E94AF092196EC2FE770E5CF4091C9
:101A0000FA015091FB016091FC017091FD01809100
:101A1000FE019091FF010C94AF091F93CF93DF93C8
:101A20008091FF01807FA9F48091FC01882389F0D7
:101A30008091C801C091C9017091FA016091FB01C8
:101A4000A091FD01B091FE01D62FD72316E0C81357
:101A500004C0DF91CF911F91089590E0109711F08D
:101A6000DF3F19F401968770F2CF189F9001199FFC
:101A7000300D1124F901E653FE4F41816413F2CF7A
:101A800040814713EFCF42814111ECCF4381548114
:101A90004A1B5B0B483C510528F78091FF018F7072
:101AA00080618093FF01F901E153FE4F80818F70C7
:101AB000806180838AEF91E00E942E09DF91CF91AF
:101AC0001F910C94DE0CAF92BF92CF92DF92EF92F7
:101AD000FF920F931F93CF93DF93CDB7DEB72B9772
:101AE0000FB6F894DEBF0FBECDBF8C0185E0F801C4
:101AF000DE01179601900D928A95E1F7F801E280D8
:101B0000C380D4808AEFA82E81E0B82E2091FA01FC
:101B10009091FB014091FD015091FE01411551054D
:101B200029F0892F82238F3F09F049C1EE2009F463
:101B300055C1C8010E949909F82E882309F44EC1A5
:101B400086E0F801AAEFB1E001900D928A95E1F7E5
:101B50008AEF91E00E94A8050E940D0D00C18091BE
:101B6000FF01682F607F483C510508F0A8C0F801CC
:101B700031816111E0C0FE2C391325C09081921390
:101B800022C0E11020C08F7080618093FF010E940D
:101B9000FF0C8AEF91E00E942E098091FF01F8016D
:101BA00085838F2D2B960FB6F894DEBF0FBECDBF69
:101BB000DF91CF911F910F91FF90EF90DF90CF9029
:101BC000BF90AF9008952F81CD2829F0832F8223D5
:101BD0008F3F09F0ADC080E0F82FF170DF2EE0916B
:101BE000C8014091C90156E080FD1CC0EE20C9F239
:101BF0008091FF0181608093FF01F12CD2CF8E2F65
:101C000090E05E9FF0011124E653FE4F6181361390
:101C100006C06081621303C06281E612E7CF0196BD
:101C2000E82FE770E413EBCF8F8198850E942A0C90
:101C3000292F22952F70903260F0225F2F70223072
:101C400078F49F7051F0F8019581907F31F4D12C98
:101C50000AC09F7011F08823D1F3805E8830B8F3FA
:101C6000C8010E942E09FD2C9CCFC8010E94990931
:101C7000882309F4B3C0EE2009F4B0C08091FF01BD
:101C8000803270F02091FA013091FB013A83298370
:101C90001B82DD82CC828E83CE0101960E942E09AA
:101CA00086E0F801AAEFB1E001900D928A95E1F784
:101CB0000E940D0D0E94FF0CFF24F39472CF61115E
:101CC00051C04F81588569857A858B850E94A0090E
:101CD0008AEF91E00E942E0986E0F50111928A9523
:101CE000E9F70E94FF0C89CF86E0F801AAEFB1E086
:101CF00001900D928A95E1F754CFC8010E9499098D
:101D00008111CECF8091FF0181608093FF01C801D6
:101D10000E942E0946CF4F81588569857A858B852B
:101D20000E94A00986E0F50111928A95E9F717C093
:101D300081E08E2551CF391398CFF801908192130D
:101D400094CFE11092CF8583C8010E942E0986E0CE
:101D5000F801AAEFB1E001900D928A95E1F70E9497
:101D6000FF0C1FCFF801318193137FCFF8019081D1
:101D700092137BCFE11079CF8583C8010E942E0991
:101D800086E0F50111928A95E9F70BCFF801818180
:101D90009813B3CFF80180818213AFCF8091FF01F8
:101DA00080FDA2CF982F907F09F49ECF8583903F2E
:101DB00059F2982F907F905F8F70892BC4CFF0904D
:101DC000FC01B601641B750BAB01F110C8CE483C99
:101DD000510508F0A0CFFE2CE110D8CFC8010E9419
:101DE0002E096ACF1F93CF93DF93CDB7DEB72C9721
:101DF0000FB6F894DEBF0FBECDBF4F8358876987FB
:101E00007A878B879C87CE0107960E94630D882373
:101E100069F08A859B85892B39F058854F81852FFC
:101E200084238F3F09F071C016E05FC086E0FE0199
:101E30003796DE01119601900D928A95E1F78F8118
:101E400098852091C9014091C8016A857B85672BDF
:101E500059F389238F3F41F330E0C9010196877020
:101E600099274817190671F40E946C091092C9014C
:101E70001092C80186E0EAEFF1E0DF011D928A9539
:101E8000E9F7D2CF96E0929FD001939FB00D112435
:101E9000A653BE4FFE01319601900D929A95E1F73F
:101EA0008093C9010E94DE0CBFCF819FC001112425
:101EB00086539E4F0E94630D8823E9F0E091C8018C
:101EC0001E9FF0011124E653FE4F40815181628133
:101ED0007381848195810E94AF098091C80190E04F
:101EE0000196877099278093C8018091C8019091CD
:101EF000C9018913DACF2C960FB6F894DEBF0FBE56
:101F0000CDBFDF91CF911F91089569857A858B852B
:101F10009C850E94AF0988CF682F80910201909123
:101F200003010C944524682F8091020190910301D4
:101F30000C94502480910201909103010C945B2435
:101F40008091000285958595859508958091000280
:101F50008770089590910002977081E009F480E005
:101F600008959091800292FB222720F9281751F0C2
:101F700080FB92F99093800280917F029091800281
:101F80000C94B91008958091800282FB882780F913
:101F900091E089270C94B10F81E00C94B10F80E09F
:101FA0000C94B10F80912402089590912402982BF3
:101FB000909324020895982F90958091240289236C
:101FC0008093240208951092240208959091230290
:101FD000982B909323020895982F90958091230237
:101FE00089238093230208951092230208959091EB
:101FF0002202982B909322020895982F9095809119
:1020000022028923809322020895109222020895C9
:1020100080910102089508950C940B109091800214
:1020200092FD08C090910102981721F0809301025F
:102030000C940C10089580910102882329F01092CD
:10204000010280E00C940C100895E0910201F091DF
:102050000301809124028083E0910201F091030149
:10206000808190912302892B8083E0910201F0917D
:102070000301808190912202892B8083909101023B
:10208000992381F0E0910201F09103018081892B75
:10209000808380910201909103010E94AD23811100
:1020A0000E941B1080910201909103010C94572310
:1020B00008950C9458109091800292FD10C098E001
:1020C000899F90011124622B609300020E94830A71
:1020D000809100028595859585950C9459100C94F6
:1020E000830A1092000280E00C9459109091000233
:1020F0008095892380930002282F277039F4282F98
:10210000082E000C330B9217130621F490918002D5
:1021100092FF07C08595859585950E94B40A0C9419
:10212000711008956FEF7FEF90E080E00C949A2F8C
:1021300090E080E00E94762F9C0181E0293E3E4F96
:1021400009F080E0089582E090E00C94682F83E02D
:1021500090E00C94682FCF9384E090E00E94682F69
:10216000C82F82E290E00E94682F982F8C2FCF9189
:102170000895CF93682FC92F84E090E00E947C2FB0
:102180006C2F82E290E0CF910C947C2FAB01BC01CC
:102190008FE090E00C948E2FAB01BC0183E190E0C6
:1021A0000C948E2F60E070E0CB010C94CC1060E0BA
:1021B00070E0CB010E94C6100C94D21069EE7EEF45
:1021C00090E080E00E949A2F60E082E090E00E9420
:1021D0007C2F60E083E090E00E947C2F1092C4018D
:1021E0001092C5011092C6011092C70160E084E010
:1021F00090E00E947C2F60E082E290E00E947C2FC1
:1022000060E085E090E00E947C2F60E086E090E056
:102210000E947C2F6FEF87E090E00E947C2F40E0CF
:1022200050E0BA0188E090E00E948E2F60E08DE0DF
:1022300090E00E947C2F40E050E0BA0188E190E0FD
:102240000E948E2F60E087E190E00E947C2F40E0AA
:1022500050E0BA018CE190E00E948E2F70E060E0C7
:1022600080E290E00E949A2F40E050E0BA0188E1BD
:1022700090E00E948E2F0C94D7100C94DE10682FE3
:102280008EE090E00C947C2F0E94FC2460932B0243
:1022900070932C0280932D0290932E02609327025C
:1022A000709328028093290290932A02089585B79B
:1022B000806885BF85B7806885BF089508950895B3
:1022C0000C945E1108950C9462110E94571184E1E0
:1022D00094E10E9473250E945F110C94601181E0CB
:1022E00008950C946F11089508950E9473110C9431
:1022F00074110E94E7240E94F4140E94C61F0E94D9
:10230000531E0C946311FF920F931F93CF93DF938F
:1023100000D000D00F92CDB7DEB70E94FF1481111C
:102320000E94441180E00E946D14182F80912602B3
:10233000082F0127811311C08FEF89838A831B82A5
:102340000E94F0248160782F9D838C8349815A817B
:102350006B81892F0E9463052DC080912F0281FD22
:102360000E947314802F8170F82E00FD3FC001FD84
:102370003FC002FFE1CF02E094E0F92E0E9471110C
:10238000882399F009831A821F2181E009F480E0F3
:102390008B830E94F0248160782F9D838C834981F8
:1023A0005A816B81892F0E946305809126028F25B7
:1023B000809326020E94861E0E9433210E94D0161E
:1023C0000E944B23909125028917B1F00E944B2364
:1023D000809325020F900F900F900F900F90DF9138
:1023E000CF911F910F91FF900C945B0500E0C6CF39
:1023F00001E082E0F82EC2CF0F900F900F900F9067
:102400000F90DF91CF911F910F91FF900895089544
:10241000272F280F3327331FC901F901EE0FFF1FA4
:10242000E80FF91FE60FF11DEE0FFF1FE455FF4FF8
:10243000859194910895FC01EE0FFF1FEE59FE4F18
:10244000859194910895CF93DF930E943913EC0105
:10245000811520E5920708F043C0811530E4930709
:1024600008F0B2C0803E9105E8F4803C910508F088
:10247000A0C0883A910578F4853A910508F08BC0A0
:102480008130910521F00497813A910540F4CE0105
:10249000DF91CF9108958F3B910509F07FC0D0E087
:1024A000C0E0F5CFC11580E2D80770F4CF3FD10569
:1024B00009F068F7C83ED10550F3CE018D5E910951
:1024C000D065439720F3EBCFCE01C11520E3D207AF
:1024D00008F475C09927D3FD74C0EC01D06CD7CF38
:1024E000811535E5930760F5C11584E5D80708F037
:1024F0009EC0C11523E5D20778F4C11532E5D30794
:1025000008F082C0C11581E5D80708F460C0DC2F4F
:10251000CC27C16FD06ABBCF9E012370332781E0E7
:1025200090E002C0880F991F2A95E2F7C695C695DC
:1025300020E2C29FE0011124C82BD92BDA68A7CF73
:1025400081153AE59307B0F4C11589E5D80708F07D
:102550007EC0C11526E5D20708F46EC0CE0198559D
:102560008F3F910511F008F09ACFDC2FCC27C06F78
:10257000D06A8DCF90568115904208F090CF8D2F64
:102580008F710E94D11390E0982F882788279F7120
:102590008C2BEC015AC0A497D06479CFC85AD0E0F4
:1025A000CC0FDD1FC55ADE4F0990D881C02DD464F1
:1025B0006ECF805C91090E941B12EC0168CF9F7066
:1025C000FACFEC01D86C63CFDF70D06A60CF9E0188
:1025D00074E0369527957A95E1F723708C2F8695D0
:1025E0008695837030E2839FC0011124922BC370C3
:1025F00021E030E002C0220F331FCA95E2F7822BA0
:10260000932BEC01DC6843CF9E012370332781E0DC
:1026100090E002C0880F991F2A95E2F7C695C695EB
:1026200020E2C29FE0011124C82BD92BEBCFDC2F75
:10263000CC27C46FD06A2BCF8C2F0E94D113C82F08
:10264000D0E0DC2FCC27CC27DF71D06220CF8C2FBD
:102650008F700E94D11334E0D695C7953A95E1F773
:10266000CF709C2FEC01D06912CF0E9408120C94FD
:102670002312803E910599F1C8F48133910509F444
:1026800076C048F48932910509F46AC08A3291050E
:1026900009F474C0089589339105D1F08238910509
:1026A000B9F08533910509F454C00895843E91052D
:1026B00099F138F4823E9105F9F0833E910509F1D4
:1026C0000895863E910599F1873E9105B9F10895E7
:1026D00020917F022370A1F080EE90E00895209178
:1026E0007F0220FD52C03091800230FF09C024FFDC
:1026F0004FC090E080E004C020917F0222FDF7CF20
:10270000089520917F0222FD46C03091800230FD65
:10271000E3CF24FFF5CFEDCF2091800221FFF0CF52
:1027200080917F0284FDE5CF87EE90E008952091AF
:102730007F0223FFE5CF24FDDCCFF6CF20917F027F
:1027400023FD2CC03091800231FFE3CF84EE90E076
:10275000089520917F0225FFD3CF89E290E008956C
:1027600020917F0225FFCCCF85E390E00895209152
:102770007F0226FFC5CF8AE290E0089520917F0274
:1027800026FFBECF81E390E0089589E390E00895AD
:1027900083EE90E0089582EE90E0089586EE90E05A
:1027A000089590917F0292FF06C0282F287128304B
:1027B000F9F4877F846093FF06C0282F28712831A1
:1027C000F1F4877E84612091800220FF06C0382FBB
:1027D00038713830D9F4877F816021FF06C0282FF7
:1027E00028712831D1F4877E816194FD877E089518
:1027F000282F24712430F9F68B7F8860DCCF282FB6
:102800002471243101F78B7E8861DDCF382F31713F
:10281000313019F78E7F8860E0CF282F2171213168
:1028200021F78E7E8861E1CF80E008950C949210AC
:102830000E94FF142FEF86E791E0215080409040E6
:10284000E1F700C000000E94FF1480E00E946D14B8
:1028500080FF04C00E9416140C944F2508950C9418
:102860001814CF93DF9300D000D0CDB7DEB70E940D
:102870009810811102C00E943D110E94A310809304
:102880002F020E94AB109093800280937F020E94DF
:102890002F140E94A710282F30E050E040E0CA011A
:1028A000B9010E94CF098091C0019091C101A0910E
:1028B000C201B091C30189839A83AB83BC83BC01FD
:1028C000CD010F900F900F900F90DF91CF910C944E
:1028D0004B0A0C94C2020C94C302E82FF0E0EE57AE
:1028E000FD4F80810895089580EA8A95F1F7089553
:1028F00000C008950C947414F894E82FE295EF70DA
:10290000F0E041A18F7021E030E0B90102C0660F14
:10291000771F8A95E2F7CB01962F9095942391A388
:1029200092A1892B82A37894089582E90E947C1455
:1029300081E90E947C1480E90E947C1484E90C9453
:102940007C14DF92EF92FF920F931F93CF93DF934C
:102950007C01D62E062F10E007571E4FF80180810C
:102960008F3FD1F1F894E82FE295EF70F0E091A15C
:102970008F70C1E0D0E09E0101C0220F8A95EAF776
:10298000892F822B81A382A12095282322A37894CA
:102990000E9478140D2C01C0CC0F0A94EAF7F701BD
:1029A00080814C9915C08C2BC1E0F7018083F80120
:1029B00080818F3F11F00E947C146C2F8D2DDF9150
:1029C000CF911F910F91FF90EF90DF900C947A14AC
:1029D000C0958C23C0E0E9CFDF91CF911F910F917B
:1029E000FF90EF90DF9008950E949514109281025D
:1029F0001092820281E00E942F150C9407041F930D
:102A0000CF93DF930F92CDB7DEB7198260E0CE018E
:102A100001960E94A11461E0CE0101960E94A114CA
:102A200062E0CE0101960E94A114909181028981F9
:102A300011E0981301C010E0981380938102212FB8
:102A400041E062E872E081E892E00E9430150E9465
:102A50000F04812F0F90DF91CF911F91089508955A
:102A6000FF920F931F93CF93DF93F82E092F162F0A
:102A7000D72FC42F222349F081E0809332020E9495
:102A8000F0249093310280933002809132028823A7
:102A9000A1F080913002909131020E941C2505978F
:102AA00060F0EF2DF02FA12FBD2FCF018C0F911DC6
:102AB000E817F90741F410923202DF91CF911F918C
:102AC0000F91FF90089521912D93F2CF0E946D24D4
:102AD0000E94E4260E94FD260E940F270E94751185
:102AE000FBCF8091390280FF12C06091090185E01F
:102AF000689FB00111247595679575956795603845
:102B00007105A8F561157105A1F1862F089581FF62
:102B100009C06091090185E0689FB0011124759595
:102B20006795EDCF6091090182FD0AC020913802BE
:102B30002223D1F09091080160910901291728F012
:102B400085E0689FB0011124DACF269F90011124FF
:102B500085E0829FA001839F500D1124692F70E0B2
:102B6000CA010E944B2CCBCF65E070E0CECF8FE73F
:102B7000089581E008958091390280FF0CC0609132
:102B8000050170E0759567957595679561157105F7
:102B900049F1862F089581FF06C06091050170E01C
:102BA00075956795F3CF6091050182FD0BC09091FB
:102BB00037029923A1F060910401809105019617D5
:102BC00038F0682F70E06038710500F38FE70895E2
:102BD000899FC001112470E00E944B2CF4CF61E06A
:102BE00070E0D7CF81E00895E3E1E80FE331E0F54D
:102BF000F0E0E750F04D0C94812C0E947115819506
:102C000080933D0208950E947115FACF0E947115BC
:102C1000819580933C0208950E947115FACF0E941D
:102C2000BB1580933E0208950E94BB158195F9CF94
:102C30000E94BB15819580933F0208950E94BB15A9
:102C4000FACF815F990B21E030E001C0220F8A9515
:102C5000EAF780913B02822B80933B02089580919A
:102C6000390281608093390208958091390282602F
:102C7000F9CF809139028460F5CF40913C028D3EBE
:102C800059F480913D0287FF0DC010923D02411121
:102C90000BC01092380208C08E3E81F480913D0234
:102CA00018169CF3442381F080913E0290913F02DC
:102CB000892B09F05AC01092370208958F3E49F4CB
:102CC00047FFF0CF10923C0280913D028111ECCF82
:102CD000E0CF803F19F41416ACF3E4CF90913E029C
:102CE000893F29F41916F4F610923E02DBCF8A3F91
:102CF00019F497FFD7CFF8CF90913F028B3F29F47B
:102D000097FFD0CF10923F02CDCF8C3F19F4191608
:102D1000CCF3C8CF9FE0980F983090F4815F990B67
:102D200021E030E0B90102C0660F771F8A95E2F713
:102D3000CB01809590913B02892380933B02B2CFD7
:102D40008D3F31F4809139028E7F80933902AACF72
:102D50008E3F21F4809139028D7FF7CF8F3F09F0AC
:102D6000A1CF809139028B7FF0CF08950E94F0248B
:102D700020913C0230913D02232B21F080933502BB
:102D80009093360220913E0230913F02232B21F096
:102D900080933302909334028AE392E00C9472237E
:102DA000CF92DF92EF92FF920F931F93CF93DF9317
:102DB00000D000D000D0CDB7DEB726E0EAE3F2E0E5
:102DC000CE010196DC0101900D922A95E1F7C090A9
:102DD0003C02D0903D02E0903E02F0903F02109203
:102DE0003C0210923D0210923E0210923F022C2DA6
:102DF0002D298C0191F080913502909136020E942C
:102E00001C259C0180913802882309F440C09091D0
:102E10000A019217130608F448C08E2D8F2991F0ED
:102E200080913302909134020E941C259C01809174
:102E30003702882309F478C090910601921713068F
:102E400008F480C080913C0290913D02892B9091C2
:102E50003E02892B90913F02892B11F00E94B616F9
:102E600086E0F801AAE3B2E001900D928A95E1F7BD
:102E700026960FB6F894DEBF0FBECDBFDF91CF917F
:102E80001F910F91FF90EF90DF90CF9008954091A8
:102E90000B019AE0499FA00111244217530708F043
:102EA000BCCF8F5F8093380202C08F3FD1F7CC2018
:102EB00059F00E9471159FEF1C140CF491E0899F4A
:102EC000802D112480933C02DD2059F00E94711561
:102ED0009FEF1D140CF491E0899F802D11248093A5
:102EE0003D0230913C02332309F497CF20913D02FB
:102EF000222309F492CF45EB3403C0011124992316
:102F000059F090933C0245EB2403900111243323A4
:102F100039F030933D0281CF81E080933C02F3CFC2
:102F200081E080933D0279CF409107019AE0499F6B
:102F3000A00111244217530708F084CF8F5F8093BC
:102F4000370202C08F3FD1F7EE2059F00E94BB1527
:102F50009FEF1E140CF491E0899F802D1124809323
:102F60003E02FF2059F00E94BB159FEF1F140CF486
:102F700091E0899F802D112480933F0230913E0281
:102F800020913F02332309F45DCF222309F45ACF65
:102F900045EB3403C0011124992359F090933E026C
:102FA00045EB240390011124332339F030933F0281
:102FB00049CF81E080933E02F3CF81E080933F02CE
:102FC00041CF86E0EAE3F2E0DF011D928A95E9F75E
:102FD0001092380210923702109239020895AF927F
:102FE000BF92CF92DF92EF92FF920F931F93CF93F6
:102FF000DF938B01282F111114C0442329F090E096
:1030000087589D4FFC018491682F782FDF91CF91D5
:103010001F910F91FF90EF90DF90CF90BF90AF90F6
:103020000895C12FD0E030E0442329F027583D4FC8
:10303000F901249130E0F6E00F9F70011124EFEFC9
:10304000F0E0C701BF010E94372CAB01802F90E058
:10305000880F991FA5E5A49FB001A59F700D1124AD
:10306000861B970B782F770F780FCF018C1B9D0B4A
:10307000829FD001839FB00D929FB00D11246B2FC2
:10308000719FC0011124892F99278F01081B190BEB
:10309000C801829F8001839F100D929F100D112403
:1030A000812F5F01A71AB108AC9E6001AD9ED00CC4
:1030B000BC9ED00C1124CD2CDD24EC19FD09E29F1F
:1030C000E001E39FD00DF29FD00D1124722F433009
:1030D0005105D1F09CEFE91693E0F90670F4413008
:1030E0005105B1F042305105B9F0EFEFEE16F104A1
:1030F00008F08CCF8B2F6D2F89CF4430510579F09C
:1031000046305105B9F382CF612F822F7B2F7ECFBE
:10311000622F712F8B2F7ACF8D2F622FF7CF822FB7
:103120007D2F74CF41E00C94EF1708950C94921802
:10313000CF93DF93982F762F842FE901692F0E9478
:103140009618798368838A83DF91CF91089580915F
:103150008302982F9E7F29F481708260809383027E
:1031600008958A34E8F381708864F8CF88E090E0AD
:103170000C94702F0F931F93CF93DF938B01D82F55
:10318000C92F0E94A718A8016D2F7C2F88E090E01E
:10319000DF91CF911F910F910C948E2FE3E8F2E015
:1031A00083E0808385E181838FEF82838383148230
:1031B00063E075E18FEF9FEF0C94BA188091830262
:1031C00080FF02C08695089580E00895CF93DF9335
:1031D00000D000D0CDB7DEB790918702933018F4BD
:1031E0009F5F909387028823B1F080918302909132
:1031F0008402A0918502B091860289839A83AB8371
:10320000BC83BC01CD010F900F900F900F90DF9108
:10321000CF910C94BA180F900F900F900F90DF91F0
:10322000CF91089581E00C94E618CF93DF9300D0FE
:1032300000D0CDB7DEB790918702992319F0915055
:10324000909387028823B1F0809183029091840249
:10325000A0918502B091860289839A83AB83BC8357
:10326000BC01CD010F900F900F900F90DF91CF9187
:103270000C94BA180F900F900F900F90DF91CF9190
:10328000089581E00C94151921E030E001C0220F6F
:103290008A95EAF790914E02922381E009F480E04A
:1032A000089570E00C9444217F928F929F92AF9288
:1032B000BF92CF92DF92EF92FF920F931F93CF9323
:1032C000DF9300D000D00F92CDB7DEB7B0901001E1
:1032D0009091830290FF24C0C0904302D09044029A
:1032E000C114D10479F580910F0123E0829FC001C0
:1032F00011246B2D88579D4F0F900F900F900F90BA
:103300000F90DF91CF911F910F91FF90EF90DF9081
:10331000CF90BF90AF909F908F907F900C94511959
:10332000809111012091120133E0839FF00111245B
:10333000E857FD4F821780F61182108212828F5F4C
:103340003396F8CF90FFCFCFA12C33E0732E8A2D88
:103350000E9444198823C1F1F601E590F490E1142C
:10336000F10409F4C0CF45E050E0B701CE01019669
:103370000E94B82C09810F3F39F18A81800F99276B
:10338000991F8330910514F082E090E04C01880C85
:10339000991C880E991EC40188579D4F4C01079DAA
:1033A0008001112408571D4F0815190520F095E0DC
:1033B000E90EF11CD8CF98014D816C818B810E9460
:1033C00098180D5F1F4FF0CF22E0C20ED11CA394BE
:1033D00038E0A312BCCF87CF9091830290FF14C036
:1033E000909111012091120133E0939FF00111247B
:1033F000E857FD4F921710F00C94541981836083A5
:1034000042839F5F3396F6CF0895CF93DF9300D02A
:103410000F92CDB7DEB79091830290FF0FC09E014F
:103420002F5F3F4F0E9498184B8169818A810F90CE
:103430000F900F90DF91CF910C94EC190F900F909B
:103440000F90DF91CF910895CF93DF93EC01EC8142
:10345000F0E0EC58FE4F4491E3E8F2E062818181B4
:103460000E94051A8C818F5F8C83DF91CF91089524
:10347000CF93DF93EC01E3E8F2E0438162818C813A
:103480000E94051A8C818F5F8C83DF91CF91089504
:103490000F931F93CF93DF9300D00F92CDB7DEB77A
:1034A0008C018091400281110AC09E012F5F3F4F25
:1034B0004FEF6FEF0E9498188A8180934002F801C5
:1034C0006481613049F06230F1F08091400240E067
:1034D000662331F040E019C06091400240E080E096
:1034E0000E94EC19F801848190E0019663E070E09D
:1034F0000E944B2C84830F900F900F90DF91CF91FF
:103500001F910F9108954091400280E060E0E8CF64
:10351000AF92BF92CF92DF92EF92FF920F931F93E1
:10352000CF93DF9300D000D000D00F92CDB7DEB79D
:10353000182FF62E042FD22E9091830290FF83C075
:10354000E92FE695AE2FB0E0A457BE4F8C91809343
:103550004C029E7F9230A1F59E012F5F3F4F812F3D
:103560000E9498184B8169818A810E94EC191093FE
:103570008402F092850200938602DD2009F463C084
:103580008091830290918402A0918502B09186027D
:103590008C839D83AE83BF83BC01CD0127960FB67C
:1035A000F894DEBF0FBECDBFDF91CF911F910F9179
:1035B000FF90EF90DF90CF90BF90AF900C94BA182F
:1035C000823019F400918602D2CF863019F410911E
:1035D0008402CDCF8930D9F3893149F6E9518E2F54
:1035E0008170C82EE695F0E0EC58FD4FA590B490A0
:1035F000E12CBB2460911301E61618F00E945419C7
:10360000B6CF2E2D30E0EA9CC001EB9C900D11242A
:1036100070E00E94372C812FC11013C0860F90914B
:103620001101A901490F511D9A01220F331F240FC7
:10363000351F28573D4F402F6F2D0E949818E39457
:10364000D9CF861BECCF27960FB6F894DEBF0FBEFE
:10365000CDBFDF91CF911F910F91FF90EF90DF9041
:10366000CF90BF90AF900895282FE3E8F2E08181DA
:1036700043816281885F0C94881A81E00C94341B2A
:10368000282FE3E8F2E081814381628188500C9425
:10369000881A81E00C94401B282FE3E8F2E0628155
:1036A00038E0630F08F46FEF438181810C94881A2E
:1036B00081E00C944C1B282FE3E8F2E0628138E0B3
:1036C000631B08F460E0438181810C94881A81E0D7
:1036D0000C945B1B282FE3E8F2E0438138E0430FB2
:1036E00008F44FEF628181810C94881A81E00C9478
:1036F0006A1B282FE3E8F2E0438138E0431B08F41B
:1037000040E0628181810C94881A81E00C94791BDD
:1037100021E00C94881A20E00C94881AEF92FF9212
:103720001F93CF93DF93EC0110E0EE24EA94F12C89
:1037300060911301161770F00E9454199A818C81C0
:1037400090FF25C08F5F8C83DF91CF911F91FF90F9
:10375000EF90089580911101810F9927991F9C0185
:10376000220F331F280F391F28573D4F70E0C70124
:103770000E944B2C962F8C8140918602609185028D
:10378000199F800D11240E9498181F5FD1CF81507E
:10379000DACFBF92CF92DF92EF92FF920F931F93F7
:1037A000CF93DF93FC0182810FEF80FF01E010E0F7
:1037B000809113011817C0F00E94541980914202A1
:1037C000013009F051C0811102C080911301815074
:1037D00080934202DF91CF911F910F91FF90EF9064
:1037E000DF90CF90BF90089580911101C12ED12C10
:1037F0008C0D9D2D911DEC01CC0FDD1FC80FD91F25
:10380000C857DD4F198218821A8234E0E32EF12C5A
:10381000B12C809142028B0D833004F18170082E0F
:10382000000C990BC816D90691F4809186028E9DE2
:10383000A0018F9D500D112455954795559547959D
:103840009E0160918502809184020E949818B00EBA
:10385000F1E0EF1AF108E9F61F5FAACF87FFDFCF8B
:1038600090911301890FDBCF90E0019660911301D5
:1038700070E00E944B2CACCFCF93DF93809111016D
:103880009091120123E0829FF0011124E857FD4F2F
:10389000891730F1C0E0D3E060911301C61730F111
:1038A0000E94541920910D0180914102820F809352
:1038B000410290910E01920F90930E01191654F44B
:1038C000082E000C990B409113014150550B8417A1
:1038D00095071CF0219520930D01DF91CF9108955C
:1038E0001182108212828F5F3396D2CFEC2FF0E0DC
:1038F00070E0CF010E944B2C20911101280F422F24
:1039000050E080914102082E000C990BE817F9074E
:10391000BCF080910E01082E000C990B8E179F07AA
:103920007CF02D9F9001112428573D4F4091860235
:1039300060918502809184020E949818CF5FACCF7D
:10394000FA01EE0FFF1FE40FF51FE857FD4F11823C
:1039500010821282F3CFEF92FF920F931F93CF93B7
:10396000DF93CDB7DEB72E970FB6F894DEBF0FBE4C
:10397000CDBF8D879E87AD85BE8514961C91212F66
:1039800030E0D9010E948F2C9B01AC010E94A52C34
:1039900069837A838B839C83E0E2F0E0E11BF10989
:1039A000A5E5B0E09B01AC010E94A52C69877A8750
:1039B0008B879C879F01DF010E94872C9B01AC01B4
:1039C0000E94B02C6D837E838F8398879B01AC010E
:1039D00089819A81AB81BC81280F391F4A1F5B1FE7
:1039E00069857A858B859C850E945F2CF22E422FFB
:1039F00050E099E29F1588F1A3E02A9F90011124DD
:103A000035952795122F109500E085E5E82EEF18E3
:103A100080911301081778F10E945419ED85FE85F5
:103A2000948181E0992319F0903219F48FEF8093FB
:103A30000C0180910C01890FAD85BE8514968C9385
:103A40002E960FB6F894DEBF0FBECDBFDF91CF919B
:103A50001F910F91FF90EF90089585E590E0841BF2
:103A6000950B9C01220F331F280F391F37FFC8CF3A
:103A70002F5F3F4FC5CF8E2D01FD8F2D409111013E
:103A8000400F5527551F9A01220F331F240F351F52
:103A900028573D4F412F609185020E9498180F5F73
:103AA000B7CF0F931F93CF93DF93EC0110E000E0AB
:103AB000909113019017110609F06CF40E945419AB
:103AC0008C8190E00196817099278C83DF91CF9152
:103AD0001F910F91089580911101A801480F511D68
:103AE0009A01220F331F240F351F28573D4F4C8159
:103AF000609185028091840296959017110651F08D
:103B00004CF0442349F0409186020E9498180F5FC0
:103B10001F4FCECF4423B9F340E0F7CFCF93DF93CD
:103B200000D000D0CDB7DEB7E3E8F2E080818E7F31
:103B3000808380819181A281B38189839A83AB83C1
:103B4000BC83BC01CD010E94BA1810924D029FEFB8
:103B5000A0E7B2E09150A040B040E1F700C0000003
:103B60000F900F900F900F90DF91CF910C945419FC
:103B700060918302669570E04BE050E084E191E053
:103B80000E94C12C892B19F481E080934D020E9480
:103B9000F02490934602809345020895CF93DF93DB
:103BA00000D000D0CDB7DEB79091830290FF44C023
:103BB0008823D9F18532D8F58F77880F90918302C9
:103BC0009170892B80938302662381F08091830218
:103BD00090918402A0918502B091860289839A8394
:103BE000AB83BC83BC01CD010E94BA1860918302F3
:103BF000669570E04BE050E084E191E00E94C12CBA
:103C0000892BB9F010924D0281E0809348024091D7
:103C1000860260918502809184020F900F900F9030
:103C20000F90DF91CF910C948B1B81E0C6CF84E283
:103C3000C4CF0E94B81DE8CF0F900F900F900F9047
:103C4000DF91CF910895682F8091830286958F5FD1
:103C5000853208F081E00C94CE1D81E00C94231E87
:103C6000682F9091830296958FEF890F913009F418
:103C700084E20C94CE1D81E00C94301E61E00C9423
:103C8000CE1DE3E8F2E080818160808386950C940C
:103C90003E1E8091830280FD0C948E1D0C94411E6B
:103CA00060E00C94CE1D80914B0281112EC00E94C9
:103CB0009810811104C00E943D110E94CE180E94EC
:103CC000B618609383027093840280938502909368
:103CD00086026E7F61F40E94CE180E94B61860932F
:103CE00083027093840280938502909386020E94DF
:103CF000A71810924D028091830280FF03C0869521
:103D00000E94501E81E080934B0208950F931F93F1
:103D1000CF93DF9380914D02882309F48AC080916C
:103D20004C02E0918302E695E81BE0934702823063
:103D300091F5F0E0E059FE4FE491CE2FD0E004E29F
:103D40001AE180914802882361F0109248020E9493
:103D5000F024909346028093450210924A021092FA
:103D600049020E94F0242091450230914602821BB4
:103D7000930B8F3F9F4708F05CC02C0F3D1F309383
:103D800046022093450285E492E0F801DF91CF914D
:103D90001F910F910994853109F43BC058F4893083
:103DA00021F18F3061F18630B9F0C0EDD7E005E93F
:103DB00018E1C7CF833209F435C0C4EFD1E001E583
:103DC0001DE1843209F4BDCFC8E2D0E00BEA1CE16A
:103DD000883109F4B6CFE9CFF0E0E359FE4FE49122
:103DE000CE2FD0E008E31AE1ACCFE695F0E0E6593B
:103DF000FE4FE491CE2FD0E00EE81BE1A2CFE69576
:103E0000F0E0E959FE4FE491CE2FD0E009EC1BE140
:103E100098CFF0E0EC59FE4FE491CE2FD0E00CE3C8
:103E20001CE18FCFE2E6F1E0C591D49108E41AE1FC
:103E300088CFDF91CF911F910F910895FA018111E1
:103E40000994FB01FDCFCF93DF93C82FD62F0E949B
:103E5000DE188C1740F00E94DE188D1720F4DF91D9
:103E6000CF910C942D1E8C2FDF91CF910C943E1E80
:103E70000F931F93CF938C01FB01C281CC2309F4D4
:103E800072C00E94D20F8272073DFCE51F0770F4DA
:103E9000033C9CE5190778F0F801E45CFC45E3314C
:103EA000F10570F4E45FFF4C0C94812CC1E00E35F9
:103EB0001D4509F4C0E08C2FCF911F910F910895FB
:103EC0000E94491EF7CF4BE35EE16DE27EE10E9466
:103ED0001E1FF0CF4DE25EE16BE37EE1F8CF49E4D7
:103EE0005BE16DE37BE1F3CF4DE35BE169E47BE113
:103EF000EECF47E65BE168E57BE1E9CF48E55BE1D2
:103F000067E67BE1E4CF45E85BE166E77BE1DFCF95
:103F100046E75BE165E87BE1DACF41E459E162E144
:103F200079E1D5CF42E159E161E479E1D0CF81E097
:103F30000E943E1EBFCF65E082E00E94231FBACFE1
:103F400068E086E0FACF6EE089E0F7CF64E18FE0C9
:103F5000F4CF67E185E1F1CF88E1EACF62E289E160
:103F6000ECCF83E2E5CFC1E0A6CF86E090E00C94F1
:103F7000682F682F86E090E00C947C2FEEE8F2E04A
:103F800080818470896180830C94B91F0E9498108D
:103F9000811104C00E943D110E94BE1F0E94B51FE6
:103FA00080938E02803220F08770886180938E0229
:103FB00090918E02892F817090FF04C0892F869581
:103FC000869586950C94C62080918E02982F9695A2
:103FD00096959695883140F49F5F990F990F990FA8
:103FE0008770892B80938E0280918E0281608093EE
:103FF0008E020E94B91F80918E02869586958695C5
:104000000C94C62080918E02982F987F79F088506A
:1040100080938E02887F91E009F490E080918E0277
:1040200090FB80F980938E020E94B91F80918E02CE
:104030008695869586950C94C62080918E0280FD8B
:1040400013C0816080938E02813019F489E08093DF
:104050008E0280918E020E94B91F80918E028695F9
:10406000869586950C94C620089580918E0280FFD7
:1040700008C08E7F80938E020E94B91F80E00C944E
:10408000C620089580918E0280FD0C9435200C94FA
:104090001D2090918E02892F8695869586958F5F3B
:1040A0008F719770843020F4880F880F880F982BB9
:1040B00090938E0280918E02887F91E009F490E0C7
:1040C00080918E0290FB80F980938E020E94B91F2E
:1040D00080918E028695869586950C94C6208430B4
:1040E00008F083E090918E029770282F220F220F04
:1040F000220F922B90938E02987F21E009F420E00A
:1041000090918E0220FB90F990938E020C94C62021
:104110000E946F2080918E020C94B91F9C01FB01BC
:104120008281882361F12F3BFCE53F07F9F060F4C1
:104130002D3BECE53E07A9F02E3BFCE53F0799F04F
:104140002C3B3C4549F00895203CECE53E0789F0C6
:10415000213C3C4589F0089583E00E94882080E05E
:10416000089580E0FACF0E940220F9CF0E94E41F58
:10417000F6CF0E944220F3CF0E944920F0CF81E089
:104180000895269A2E9808952E980895CF93DF9338
:10419000CDB7DEB728970FB6F894DEBF0FBECDBF00
:1041A0008983843060F581112CC0809180008F7DDF
:1041B000809380000E94C4204981242F30E0AFEF1B
:1041C000BFEF0E948F2C23E030E040E050E00E94DF
:1041D0005F2CC9012C3764E13607C8F469E070E050
:1041E0000E94372C70938B0060938A0028960FB63C
:1041F000F894DEBF0FBECDBFDF91CF91089523E0CD
:10420000298380918000806280938000D5CF2A50DE
:10421000374D4F4F5F4FB42FA32F922F8827BC01EC
:10422000CD0125EF38E241E050E00E945F2C298368
:104230003A834B835C83CA01B9010E94272C9B01FE
:10424000AC0169817A818B819C810E94272CBB27DC
:10425000A92F982F872FBC010097A140B10511F617
:104260006FEF7FEFBFCF08950E94C12082E280935D
:10427000800089E1809381008FEF9FEF909387000A
:10428000809386000C94C61F9C01AB01219A65B1F6
:104290006D7F75B17260EFB7F894CA01880F991FEE
:1042A000840F951F820F931F8217930741F4EFBF6E
:1042B0008FE594E00197F1F700C000000895D9015F
:1042C0004D919D0158E075B9000000C047FF65B9E8
:1042D000440F000000C000C000C065B900C05A957E
:1042E00091F7E2CF0F931F93CF93DF93C42FD22F79
:1042F000FC0182818823C9F0409351020E94F0247E
:104300009093500280934F0280E28C0F883008F027
:1043100050C0C77081E001C0880FCA95EAF7DF91ED
:10432000CF911F910F910C94B30610915102141369
:1043300035C080914F02909150020E941C25883C0C
:10434000910560F5C0E2CD0F1D17B9F080E2810F35
:10435000883040F4177081E001C0880F1A95EAF7A1
:104360000E94BA06C83048F481E09D2F977001C0C2
:10437000880F9A95EAF70E94B306802F0E94AB0639
:10438000C830B8F4D77081E001C0880FDA95EAF739
:10439000DF91CF911F910F910C94BA0680E28C0FA0
:1043A000883038F4C77081E001C0880FCA95EAF7F9
:1043B000EFCFDF91CF911F910F9108950F939C0143
:1043C000CB01243F4CE53407A1F190F4293DFCE5F5
:1043D0003F0749F12A3D4CE53407E9F1283D3C45CA
:1043E000C1F0FC0182818823E1F11092510219C0D1
:1043F000263FFCE53F0719F1273F4CE5340729F13B
:10440000253F3C4571F707E225EE44EE65EF7CE57C
:1044100005C006E221EE41EE68ED7CE50E947221C6
:1044200080E00F91089507E225EE45EE69ED7CE509
:10443000F5CF06E221EE40EE64EF7CE5EFCF06E239
:1044400021EE42EE66EF7CE5E9CF07E225EE46EE8F
:1044500067EF7CE5E3CF08E221E045EE6AED7CE51D
:10446000DDCF81E0DECFCF93DF93EC01FB018281D2
:10447000882309F4DFC0C430FDE5DF0710F5CB3F2A
:104480009CE5D90730F49E0122503C45243131058A
:10449000E0F40E94AB109093800280937F02C631BB
:1044A000FCE5DF0710F5C2308CE5D80788F4809171
:1044B0007F02909180020E94B9100E946C0980E0F6
:1044C00004C0C236EDE5DE0721F3DF91CF910895F8
:1044D000FE01E350FC4580917F028160E331F105EC
:1044E00018F5E15EFF4C0C94812CC4309DE5D90792
:1044F00070F4CB3FECE5DE07D0F2FE01EC5FFC454B
:10450000E830F105E0F4EE5CFF4C0C94812CC236EF
:10451000DD4569F690917F02892F8F7E94FF80613F
:1045200003C080917F02826080937F02C0CF809120
:104530007F028460F9CF80917F028860F5CF8091FF
:104540008002816080938002B2CF8091800282607D
:10455000F9CF80917F028061E7CF80917F028062F6
:10456000E3CF80917F028064DFCF0E946C0980914D
:104570007F028068D9CF80917F028C60D5CF8091F7
:1045800080028360DFCF80917F028E7FCDCF8091CC
:104590007F028D7FC9CF80917F028B7FC5CF8091B5
:1045A0007F02877FC1CF809180028E7FCBCF8091A9
:1045B00080028D7FC7CF80917F028F7EB5CF8091A3
:1045C0007F028F7DB1CF80917F028F7BADCF0E9424
:1045D0006C0980917F028F77A7CF80917F02837FC4
:1045E000A3CF809180028C7FADCF80917F0282FB30
:1045F000992790F921E0922790FB82F990FB83F9AB
:1046000093CF80918002982F909591708E7F892B07
:1046100090FB81F997CF0E946C0990917F02892FBE
:1046200097FB87F9805880CF81E00E943F113FCFF0
:1046300080E0FBCF81E049CFCF93DF93EB01863160
:104640009C4511F50E94D20F9A81992399F08A7A9C
:1046500091E009F490E090935202811109C089E23F
:104660000E948C0F0E94251080E0DF91CF91089569
:1046700085E3F6CF80915202811104C089E20E9445
:10468000930FF0CF85E3FBCF81E0EFCF90935802FB
:10469000809357020895E0915702F09158023097A5
:1046A00021F00190F081E02D099480E00895DC0173
:1046B000E0915702F0915802309799F080912901CA
:1046C000882351F080917F0287FF06C08C9111965C
:1046D0008C93119785E08C930280F381E02DCD01BE
:1046E00009940895DC01E0915702F0915802309747
:1046F00039F082E08C930480F581E02DCD0109949E
:10470000089520915502309156022817390771F00B
:104710009093560280935502E0915702F09158020F
:10472000309721F00680F781E02D099408952091BB
:104730005302309154022817390771F090935402B4
:1047400080935302E0915702F0915802309721F084
:104750000084F185E02D09940895FC013296809142
:104760002901882321F080917F029EE187FF96E056
:1047700080E0915008F4089521912223D1F38F5FB6
:10478000F8CF9C01662301F1809129018823F1F083
:1047900080917F0287FF1AC0462F46954695469521
:1047A000603F90F4677081E090E002C0880F991F2D
:1047B0006A95E2F7240F311DF901228130E02823A8
:1047C000392381E0232B71F480E00895F9013296BA
:1047D000285F3F4F8191861721F0E217F307D1F749
:1047E000F3CF81E008959C01FC0132968FEF90E0B9
:1047F0004191461751F08F3F19F4411101C0892FA3
:104800009F5F9630A9F78F3F09F40895280F311D57
:1048100087FD3A95F901628308959C01FC01329667
:10482000285F3F4F8191861303C0DF0111971C92CF
:10483000E217F307B9F70895FC01862F8695869550
:104840008695603F60F4E80FF11D677021E030E06D
:1048500001C0220F6A95EAF78281822B8283089534
:10486000FC01862F869586958695603F68F4E80F53
:10487000F11D677081E090E001C0880F6A95EAF74A
:104880008095928189238283089520912901222392
:1048900029F020917F0227FD0C941C240C94F32313
:1048A00020912901222329F020917F0227FD0C94D9
:1048B00030240C940D24FC01329680912901882328
:1048C00051F080917F0287FF06C08EE1DF011D92CB
:1048D0008A95E9F7089586E0F9CF08950895089537
:1048E0000C946F2480919702843061F10E947024AF
:1048F00080E00E94C62080E00E945B051092590271
:1049000088E190E020E40FB6F894A89580936000C9
:104910000FBE2093600083B7817F846083BF83B71D
:10492000816083BF7894889583B78E7F83BF0FB6ED
:10493000F894A8958091600088618093600010923F
:1049400060000FBE089508950E946E240E94FF1417
:104950000E94A32480E00E946D14982F81E09111A1
:1049600001C080E0089508950C94B3240E946C095E
:104970000E94C61F0E944B230E945B050C94B42426
:104980001F921FB61F9211248F939F93AF93BF93D3
:1049900080915902811113C080918F0290919002F1
:1049A000A0919102B09192024196A11DB11D8093F8
:1049B0008F0290939002A0939102B0939202BF91C4
:1049C000AF919F918F911F901FBE1F90189582E00D
:1049D00084BD93E095BD9AEF97BD80936E000895D6
:1049E0002FB7F89480918F0290919002A09191023C
:1049F000B09192022FBF0895CF93DF9300D000D0E3
:104A0000CDB7DEB78FB7F89420918F023091900226
:104A1000409191025091920229833A834B835C83A7
:104A20008FBF69817A818B819C810F900F900F904D
:104A30000F90DF91CF9108959C014FB7F89480912A
:104A40008F0290919002A0919102B09192024FBF7B
:104A5000821B930B089578941F921FB61F92112406
:104A60008F939F93AF93BF9380918F029091900209
:104A7000A0919102B09192020196A11DB11D809367
:104A80008F0290939002A0939102B0939202BF91F3
:104A9000AF919F918F911F901FBE1F90189581E03D
:104AA0008093E00080E28093D8001092C9008FE1EB
:104AB0009EE40197F1F700C0000087E090EBDC0175
:104AC0008093A0029093A102A093A202B093A302AC
:104AD00088E19CE00FB6F894A895809360000FBE23
:104AE00090936000FFCF9093B3018093B20108953B
:104AF00080917D02089590919702943031F58093D2
:104B00005A0260935B0270935C0282E08093E9003A
:104B10008FEF9091E800815095FD06C095ED9A9534
:104B2000F1F700008111F5CF8091E80085FF0DC0FD
:104B300050E040E063E070E08AE592E00E949C274C
:104B40008091E8008E778093E8000895BC0184E0AE
:104B50000C947B25BC0183E00C947B2522E0209300
:104B6000E9002FEF3091E800215035FD06C035ED0A
:104B70003A95F1F700002111F5CF2091E80025FFCB
:104B80000BC050E040E066E070E00E949C278091FE
:104B9000E8008E778093E8000895CF93DF93D82FB5
:104BA000C92F809129018823C1F180917F0287FF5D
:104BB00034C060E282E08093E9008FEF9091E800DA
:104BC000815095FD06C095ED9A95F1F70000811191
:104BD000F5CF8091E80085FF1DC08091290170E02C
:104BE00050E040E0811104C050E040E068E070E037
:104BF0008D2F9C2F0E949C278091E8008E778093B8
:104C0000E80080E2ED2FFC2FADE5B2E001900D92BF
:104C10008A95E1F7DF91CF91089568E081E0CBCFED
:104C200080919602811109C00E9424290E94812945
:104C30008091E20084608093E200089510929602D1
:104C4000089508950895089542E061EC81E00E947E
:104C5000A02842E261EC82E00C94A02880919902A5
:104C6000893089F148F4823009F49DC0833009F419
:104C700058C0813041F008958A3009F484C08B30E7
:104C800009F46AC0089580919802813A09F048C0F9
:104C90008091E800877F8093E80080919C0290914A
:104CA0009D02892B61F460E28DE592E070E00E9444
:104CB000EB278091E8008B778093E800089560E00F
:104CC00090E080E0F3CF80919802813249F58091A5
:104CD0009C0290919D02029718F58091E800877FD1
:104CE0008093E8008091E80082FF16C09091F30065
:104CF0008091F200029729F48091F1008B7F81303E
:104D000021F48091F10080937D028091E8008B77FF
:104D10008093E8000C94D428809197028111E2CF0F
:104D2000089580919802813AD9F780919C029091E0
:104D30009D02892BA9F78091E800877F8093E80086
:104D40008091E80080FFFCCF809129018093F100E1
:104D50008091E8008E77DCCF80919802813201F754
:104D600080919C0290919D02892BD1F68091E80060
:104D7000877F8093E8000E94D42880919A028093D4
:104D800029010C946C0980919802813249F6809136
:104D9000E800877F8093E8000E94D42880919B02DE
:104DA00080937E02089580919802813A09F0B8CFED
:104DB0008091E800877F8093E8008091E80080FF81
:104DC000FCCF80917E02C2CF84B7877F84BF0FB6AD
:104DD000F894A8958091600088618093600010929B
:104DE00060000FBE80E890E00FB6F89480936100F9
:104DF000909361000FBE0C9465110E9424290E94BB
:104E00008129E2EEF0E080818460808378940E94C2
:104E10000D2C0E9479118FE191E00C944623809132
:104E20009702853031F480919702853021F00E94FD
:104E3000B6240C9483110E947224809195028823D9
:104E400091F30E94A424882371F30E9486270E9474
:104E50006C09E9CF0C942C27FC01CB01DA012F2F30
:104E6000332723303105D1F070F42130310509F4B6
:104E70003EC02230310569F48BE390E029EA33E04B
:104E80002D933C93089521323105E9F0223231050A
:104E900021F190E080E030E020E0F2CFCF019927CF
:104EA000E13059F08230910559F0E5EAF3E0892BC1
:104EB00081F7849190E09F01E3CFEDE8F3E0F9CF33
:104EC000E9E7F3E0F6CF892BB9F06130710509F716
:104ED00089E090E024ED33E0D3CF892B91F061306D
:104EE0007105B9F686EB90E026EF33E0C9CF82E199
:104EF00090E024EE33E0C4CF89E090E02BEB33E088
:104F0000BFCF80E490E02CEA34E0BACF80E189BDE5
:104F100082E189BD09B400FEFDCF8091D8008F7D6C
:104F20008093D8008091E00082608093E0008091BF
:104F3000E00081FDFCCF0895AF92BF92CF92DF9247
:104F4000FF920F931F93CF93DF936C01EB018A01C4
:104F50000E94F328F82E811123C00115110539F0A4
:104F6000F80180819181C81BD90BC80ED91EB12CC4
:104F7000A12C2097A9F08091E80085FD22C08091A6
:104F8000E8008E778093E80001151105A1F0F80183
:104F9000808191818A0D9B1D9183808385E0F82E0D
:104FA0008F2DDF91CF911F910F91FF90DF90CF90C8
:104FB000BF90AF9008950E94F3288823D1F2F82E75
:104FC000EFCFF60181916F018093F1002197FFEF00
:104FD000AF1ABF0ACECFFC01CB0120919E023091C7
:104FE0009F022617370790F0009729F42091E800D8
:104FF0002E772093E80040E0009751F4411108C05B
:105000008091E80082FF31C080E00895C901F3CFAC
:10501000209197022223A9F12530A9F12091E800DF
:1050200023FD2DC02091E80022FDEACF2091E80069
:1050300020FFE2CF3091F3002091F200009719F0A9
:105040002830310558F041E02830310509F040E0C2
:105050002091E8002E772093E800CECF4191409335
:10506000F10001972F5F3F4FE9CF8091970288238E
:1050700041F0853041F08091E80083FFC1CF81E0AD
:10508000089582E0089583E00895FC01CB0120910A
:105090009E0230919F022617370790F0009729F45F
:1050A0002091E8002E772093E80040E0009751F42B
:1050B000411108C08091E80082FF32C080E008956D
:1050C000C901F3CF209197022223B1F12530B1F12C
:1050D0002091E80023FD2EC02091E80022FDEACFB8
:1050E0002091E80020FFE2CF3091F3002091F20000
:1050F000009719F02830310558F041E0283031058B
:1051000009F040E02091E8002E772093E800CECF10
:1051100044914093F100319601972F5F3F4FE8CFC4
:1051200080919702882341F0853041F08091E8001A
:1051300083FFC0CF81E0089582E0089583E0089561
:10514000982F973028F08F708093E90081E00895C0
:105150009093E900242F762F50E0981731F070914A
:10516000EC002091ED005091F00021FD02C09F5F06
:10517000E8CF3091EB003E7F3093EB003091ED00B3
:105180003D7F3093ED003091EB0031603093EB00C8
:105190007093EC002093ED005093F0002091EE000E
:1051A00027FDE5CF80E008958091980287FF13C026
:1051B0008091E80082FF06C08091E8008B778093A1
:1051C000E80004C0809197028111F2CF0895809188
:1051D00097028823D9F38091E80080FFF8CF80916F
:1051E000E8008E77ECCF2091E4003091E50095E661
:1051F000A9012091EC00822F817020FF06C08091D0
:10520000E80080FF06C080E008952091E80022FDBC
:105210001AC080919702882389F0853089F08091A7
:10522000EB0085FD0FC02091E4003091E5004217AE
:105230005307F9F29150E1F684E0089582E0089571
:1052400083E0089581E008950E9492290E949A299E
:10525000E0EEF0E0808181608083E8EDF0E0808125
:105260008F77808319BCA7EDB0E08C918E7F8C93F3
:1052700080818F7E80831092960208950F931F93F2
:10528000CF93DF930E9492290E949A29C8EDD0E023
:1052900088818F77888388818068888388818F7DE3
:1052A000888319BC10929702109293021092950273
:1052B0001092940200EE10E0F80180818B7F8083D1
:1052C00088818160888342E060E080E00E94A028BD
:1052D000E1EEF0E080818E7F8083E2EEF0E080817D
:1052E00081608083808188608083F80180818E7FE7
:1052F0008083888180618883DF91CF911F910F9196
:105300000895E8EDF0E080818F7E8083E7EDF0E0A6
:1053100080818160808384E082BF81E080939602F7
:105320000C943E29E8EDF0E080818E7F808310921E
:10533000E20008951092DA001092E10008951F92A1
:105340000F920FB60F9211242F933F934F935F93B9
:105350006F937F938F939F93AF93BF93EF93FF933D
:105360008091E10082FF0BC08091E20082FF07C0C4
:105370008091E1008B7F8093E1000E940C2C809152
:10538000DA0080FF19C08091D80080FF15C080919D
:10539000DA008E7F8093DA008091D90080FF94C07C
:1053A00080E189BD82E189BD09B400FEFDCF81E0C5
:1053B000809397020E9410268091E10080FF19C01F
:1053C0008091E20080FF15C08091E2008E7F809383
:1053D000E2008091E20080618093E2008091D80039
:1053E00080628093D80019BC85E0809397020E9468
:1053F00022268091E10084FF29C08091E20084FF91
:1054000025C080E189BD82E189BD09B400FEFDCFE0
:105410008091D8008F7D8093D8008091E1008F7EAD
:105420008093E1008091E2008F7E8093E200809182
:10543000E20081608093E20080919302882309F466
:1054400049C084E0809397020E9423268091E10066
:1054500083FF29C08091E20083FF25C08091E10095
:10546000877F8093E10082E08093970210929302FD
:105470008091E1008E7F8093E1008091E2008E7F39
:105480008093E2008091E20080618093E20042E03C
:1054900060E080E00E94A0288091F0008860809306
:1054A000F0000E942126FF91EF91BF91AF919F9153
:1054B0008F917F916F915F914F913F912F910F90BD
:1054C0000FBE0F901F90189519BC109297020E9462
:1054D0001E2672CF8091E30087FD02C081E0B2CF2B
:1054E00083E0B0CF1F920F920FB60F921124FF925C
:1054F0000F931F932F933F934F935F936F937F93DC
:105500008F939F93AF93BF93CF93DF93EF93FF93CB
:1055100009EE10E0F8018081C091EC00C795CC271E
:10552000C7958F70FC2EF82A1082C0EFD0E08881DA
:10553000877F888378940E94BB2AF8011082888133
:1055400088608883CF2DCF70C083FF91EF91DF916A
:10555000CF91BF91AF919F918F917F916F915F910B
:105560004F913F912F911F910F91FF900F900FBE80
:105570000F901F9018951F93CF93DF93CDB7DEB791
:10558000AA970FB6F894DEBF0FBECDBF88E992E0B0
:10559000FC0101962091F100208322E0803A9207DD
:1055A000B9F70E942E268091E80083FF1DC18091EB
:1055B0009802909199029A3008F016C1E92FF0E014
:1055C000E65CFF4C0C94812C803899F0823809F00D
:1055D0000BC180919C028F70873008F005C18093C9
:1055E000E9008091EB0085FB882780F91092E900A3
:1055F00006C08091940290919502911182609091E1
:10560000E800977F9093E8008093F1001092F100FA
:105610008091E8008E77E4C0882309F4D2C08230FC
:1056200009F0E2C080919A028111D5C080919C025C
:105630008F702FEF280F263008F0D6C08093E90036
:105640002091EB0020FFC7C0933031F48091EB0034
:1056500080628093EB00BFC09091EB0090619093CB
:10566000EB0021E030E001C0220F8A95EAF7209399
:10567000EA001092EA008091EB008860EACF811185
:10568000B3C010919A021F778091E3008078812B3C
:105690008093E3008091E800877F8093E8000E9478
:1056A000D4288091E80080FFFCCF8091E3008068DF
:1056B0008093E30082E0111183E08093970294C00D
:1056C0008058823008F090C080919A0290919B029D
:1056D0008C3D23E0920799F583E08A838AE28983EF
:1056E0004FB7F894DE01139620E03EE051E2E32F3D
:1056F000F0E050935700849120FF03C082958F7093
:105700003F5F8F708A30C8F0895C90E08D939D93E5
:105710002F5F243161F74FBF8091E800877F80932E
:10572000E8006AE270E0CE0101960E94EB278091CA
:10573000E8008B778093E80057C0805DE6CF6091EA
:105740009C0270919D02AE014F5F5F4F0E942A271D
:10575000BC01892B09F448C08091E800877F8093C1
:10576000E80089819A810E944528E1CF8038E1F5DF
:105770008091E800877F8093E80080919302809376
:10578000F10046CF811130C090919A02923060F5BD
:105790008091E800877F8093E800909393020E94B5
:1057A000D42880919302882311F084E005C0809171
:1057B000E30087FDFACF81E0809397020E942426C0
:1057C00013C080919A02813079F481E0933009F01E
:1057D00080E0809395021092E9008091E800877F35
:1057E0008093E8000E94D4288091E80083FF0AC0DB
:1057F0008091E800877F8093E8008091EB008062D1
:105800008093EB00AA960FB6F894DEBF0FBECDBF13
:10581000DF91CF911F9108950895CF9380919702C2
:10582000882399F08091E900C091EC00C795CC27BE
:10583000C7958F70C82B1092E9008091E80083FD16
:105840000E94BB2ACF70C093E900CF910895DB017D
:105850008F939F930E94A52CBF91AF91A29F800D23
:10586000911DA39F900DB29F900D11240895AA1B26
:10587000BB1B51E107C0AA1FBB1FA617B70710F03B
:10588000A61BB70B881F991F5A95A9F7809590956D
:10589000BC01CD01089597FB072E16F4009407D0A4
:1058A00077FD09D00E94372C07FC05D03EF4909577
:1058B00081959F4F0895709561957F4F0895A1E25E
:1058C0001A2EAA1BBB1BFD010DC0AA1FBB1FEE1F7A
:1058D000FF1FA217B307E407F50720F0A21BB30BC5
:1058E000E40BF50B661F771F881F991F1A9469F741
:1058F00060957095809590959B01AC01BD01CF019D
:105900000895EE0FFF1F0590F491E02D09940E9479
:105910008F2C332312F48A1B9B0B0C94A02CA29F78
:10592000B001B39FC001A39F700D811D1124911D73
:10593000B29F700D811D1124911D08950E948F2C1E
:10594000B7FF0895821B930B08950E948F2CA59F8B
:10595000900DB49F900DA49F800D911D112408956A
:10596000B7FF0C94A52C0E94A52C821B930B0895C5
:10597000FB01DC0102C005900D9241505040D8F768
:105980000895FC014150504030F001900616D1F7C7
:105990003197CF010895882799270895AEE0B0E0A8
:1059A000E4EDFCE20C94BE2F0D891E8986E08C8309
:1059B0001A8309838FEF9FE79E838D83AE01475E35
:1059C0005F4F6F89788DCE0101960E94F12C2F8157
:1059D0003885020F131FF80110822E96E4E00C9414
:1059E000DA2FAFE0B0E0E7EFFCE20C94B02F7C01DF
:1059F0003B018A01DC0117961C921E9216971396A2
:105A00008C9181FFBEC19AE0292EFE0131964F0193
:105A1000D70113969C91F30193FD859193FF81919A
:105A20003F01882309F444C1853239F493FD8591FF
:105A300093FF81913F01853229F4B70190E00E94E4
:105A4000DA2EE6CFB12C412C512CBFE1B51538F040
:105A50008B3209F188F4803201F1833221F157FC55
:105A60003AC020ED280F2A3040F556FE1FC0B29CE8
:105A7000200D1124B22E06C08D3291F0803379F7BB
:105A8000689450F8F30193FD859193FF81913F0154
:105A90008111DBCF20C0689451F8689452F8F2CF9E
:105AA000689453F8EFCF689454F8ECCF429C200DE3
:105AB0001124422E689455F8E5CF8E3229F456FC15
:105AC000F7C0689456F8DECF8C3619F4689457F80E
:105AD000D9CF8836B9F2982F9F7D95549330C0F076
