:100000000C941E020C9465020C9465020C9465021B
:100010000C9465020C9465020C9465020C946502C4
:100020000C9465020C9465020C94A7270C947A2812
:100030000C94C8220C9465020C9465020C94650221
:100040000C9465020C9465020C9465020C94650294
:100050000C9465020C9433230C9465020C94650295
:100060000C9465020C9465020C9465020C94650274
:100070000C9465020C9465020C9465020C94650264
:100080000C9465020C9465020C9465020C94650254
:100090000C9465020C9465020C9465020C94650244
:1000A0000C9465020C9465020C9465021E001F00FE
:1000B000200000047F3F1F643214643214783C1E19
:1000C0001E140A052223252628292A2C2D2F3032FA
:1000D000333536383A3B3D3E4042434547494A4C2A
:1000E0004E5051535557595A5C5E60626466686958
:1000F0006B6D6F71737577797B7D7F818385878960
:100100008A8C8E90929496989A9C9E9FA1A3A5A764
:10011000A8AAACAEAFB1B3B4B6B8B9BBBCBEBFC190
:10012000C2C3C5C6C7C9CACBCCCDCED0D1D2D2D31B
:10013000D4D5D6D7D7D8D9D9DADADBDBDBDCDCDC2F
:10014000DCDCDDDDDDDDDCDCDCDCDCDBDBDBDADAF2
:10015000D9D9D8D7D7D6D5D4D3D2D2D1D0CECDCC69
:10016000CBCAC9C7C6C5C3C2C1BFBEBCBBB9B8B67E
:10017000B4B3B1AFAEACAAA8A7A5A3A19F9E9C9A09
:1001800098969492908E8C8A89878583817F7D7BD7
:1001900079777573716F6D6B6968666462605E5CB8
:1001A0005A5957555351504E4C4A4947454342407E
:1001B0003E3D3B3A3836353332302F2D2C2A292814
:1001C00026252322FFAA7F554000010101010101DC
:1001D00001010102020202020202020203030303FE
:1001E00003030303040404040404040505050505CE
:1001F000060606060607070707070808080809098C
:1002000009090A0A0A0B0B0B0C0C0C0D0D0D0E0E36
:100210000E0F0F0F101011111112121313141415C9
:100220001516161717181819191A1A1B1B1C1D1D3D
:100230001E1E1F2020212222232424252626272893
:1002400029292A2B2C2D2D2E2F30313232333435C3
:10025000363738393A3B3C3D3E3F404142434445C6
:10026000464748494A4C4D4E4F50515354555658A5
:10027000595A5B5D5E5F616264656668696B6C6D4F
:100280006F7072737577787A7B7D7E8082838587C5
:10029000888A8C8E8F91939596989A9C9EA0A2A303
:1002A000A5A7A9ABADAFB1B3B5B7BABCBEC0C2C408
:1002B000C6C9CBCDCFD1D4D6D8DBDDDFE2E4E7E9C8
:1002C000EBEEF0F3F5F8FAFDFF12036B0065007931
:1002D0000062006F0061007200640000001603718C
:1002E000006D006B006200750069006C00640065C1
:1002F00000720000000403090409023B000201002F
:10030000A0FA090400000103010100092111010004
:10031000012240000705810308000A0904010001C9
:100320000300000009211101000122B60007058227
:100330000320000A1201000200000008EDFE6060C8
:1003400001000102000105010902A1018502090164
:10035000A100050919012908150025019508750155
:1003600081020501093009311581257F9502750843
:10037000810609381581257F950175088106050CD0
:100380000A38021581257F950175088106C0C005D0
:10039000010980A101850319012AB700150126B7BB
:1003A00000950175108100C0050C0901A1018504AB
:1003B00019012AA002150126A002950175108100DD
:1003C000C005010906A1018505050719E029E71502
:1003D0000025019508750181020507190029EF150F
:1003E00000250195F075018102050819012905957F
:1003F0000575019102950175039101C0050109067A
:10040000A101050719E029E71500250195087501E7
:1004100081029501750881010507190029FF150062
:1004200026FF009506750881000508190129059524
:100430000575019102950175039101C011241FBE3C
:10044000CFEFDAE0DEBFCDBF04B603FE27C0809158
:10045000940290919502A0919602B09197028730F4
:10046000904BA740B04BD1F4109294021092950299
:10047000109296021092970214BE84B7877F84BFB1
:100480000FB6F894A8958091600088618093600011
:10049000109260000FBEE0E0F8E3099511E0A0E0E3
:1004A000B1E0E6EFF6E502C005900D92AC3AB10777
:1004B000D9F722E0ACEAB1E001C01D92A439B2073D
:1004C000E1F70E946E130C941E2B0C94000090E038
:1004D00080E0089508950895FB018081813091F0B6
:1004E0008230B9F0811108C08281882339F04FEF42
:1004F0006FEF89EA0E94901981E008954FEF6FEF46
:1005000082E1F8CF82818823C9F34FEF6FEF85E551
:10051000F1CF8281882391F34FEF6FEF80E0EACF34
:1005200081E008950C946C0208950C9494021F933A
:10053000CF93DF9300D000D00F92CDB7DEB74983C1
:100540005A836B833091AE0189819A8131111DC02C
:100550006623B9F02223A9F00E94F009182F682F12
:1005600089819A810E949B0969817A81812F0F90EC
:100570000F900F900F900F90DF91CF911F910C94DF
:1005800010100E94C809182FEFCF0E94F00969814E
:100590007A81EDCFFC01262F4081518162817381E8
:1005A00084810C94970281E00895CF93DF93D82F34
:1005B000C92F60E00E94CA026D2F7C2FDF91CF917E
:1005C0000C9495020E9439120E9462030E943C1F03
:1005D0000C9471120C94731208950E9474070E9477
:1005E000EC022FEF84E39CE0215080409040E1F743
:1005F00000C000000C9457230F931F93CF93DF93F9
:100600008C0161E00E94CA02EC01B8010E949202D2
:10061000882309F441C0B801CE010E94961E8823A8
:10062000D9F1B801CE010E94E61F8823A9F1B801D3
:10063000CE010E943B20882379F1B801CE010E94AF
:100640002421882349F1B801CE010E94401D88234E
:1006500019F1F8018281882361F0CB35FDE5DF07D0
:1006600021F170F4C115ECE5DE07A1F0CF3DDC45CA
:10067000C9F0C801DF91CF911F910F910C949002A6
:10068000CC358DE5D807A1F0CD35DD4591F70E9439
:10069000CB0DEFCF0E94ED0280E0DF91CF911F9153
:1006A0000F9108950E94450FF7CF0E94D40DE1CF1E
:1006B0000E94D70DDECF08950C945B0381E008956E
:1006C0000C945E030895CF93C82F0E945C038C2F77
:1006D000CF910C946003EF92FF920F931F93CF93EF
:1006E000DF93CDB7DEB72B970FB6F894DEBF0FBE02
:1006F000CDBF042F4F83152F588769877A878B8743
:10070000EA84FB8461110E94FC0D1E8285E0FE01DB
:100710003796DE01119601900D928A95E1F7EF2848
:10072000A9F449815A816B817C818D819E810E94CF
:10073000FA0C2B960FB6F894DEBF0FBECDBFDF913B
:10074000CF911F910F91FF90EF90089510231F3FBD
:1007500041F3CE0101960E94D3028111E2CFE9CF8D
:10076000FC01808191810C94320ACF93C82F882399
:1007700009F48AC08238C1F40E94532181FD84C0EB
:1007800089E30E94940D0E942D0E2FEF31EE84E03C
:10079000215030408040E1F700C0000089E30E9412
:1007A0009B0DCF910C942D0E8338A1F40E94532100
:1007B00080FD6AC083E50E94940D0E942D0E9FEF7C
:1007C00021EE34E0915020403040E1F700C00000BD
:1007D00083E5E5CF8438A1F40E94532182FD54C003
:1007E00087E40E94940D0E942D0E8FEF91EE24E07D
:1007F000815090402040E1F700C0000087E4CFCF57
:100800008CEF8C0F813A90F46C2F809100019091C5
:1008100001010E94C921882329F08C2F0E949B0D81
:100820000E942D0E8C2F0E94940DBBCF80E28C0F66
:10083000883048F4C77081E001C0880FCA95EAF794
:100840000E94DD0DAECF8BE58C0F833038F42C2F5A
:100850002452330BC901CF910C948921E8E5EC0FA8
:10086000E73150F4F0E0EE0FFF1FE85DFE4F8081AE
:100870009181CF910C949F21CD3E30F08C2F0E941E
:10088000FC13CF910C94BE14CF910895882309F4E2
:1008900052C0823871F40E94532181FF4CC089E319
:1008A0000E94940D0E942D0E89E30E949B0D0C94D2
:1008B0002D0E833859F40E94532180FF3CC083E5FC
:1008C0000E94940D0E942D0E83E5EFCF843859F4D9
:1008D0000E94532182FF2FC087E40E94940D0E9442
:1008E0002D0E87E4E2CF9CEF980F913AF0F290E260
:1008F000980F983050F4877091E001C0990F8A9555
:10090000EAF7892F0E94E30DD2CF9BE5980F933031
:1009100020F490E080E00C94892198E5980F9731BD
:1009200020F490E080E00C949F218D3E20F00E9406
:1009300045140C94BE1408951F93CF93DF93182F82
:10094000EB010E94B503209731F4812FDF91CF9105
:100950001F910C9446048FE99FE00197F1F700C0C6
:1009600000002197F0CF70E060E0893311F460E57A
:1009700070E00C949C04882321F00E94DD0D0C94FF
:100980002D0E0895882321F00E94E30D0C942D0E66
:100990000895AF92BF92CF92DF92EF92FF920F93A2
:1009A0001F93CF93DF9300D000D00F92CDB7DEB767
:1009B0006C016D837983FC011281058102950F70B2
:1009C0000E94B20DE82E8823A1F0E12E112389F0B8
:1009D0008981807F803429F08D81805EE12C883090
:1009E00040F082E00E947E0E0E94B20D91E0E82E5F
:1009F000E926A980A2949FE0A922B12CF501E05E2E
:100A0000F44D0C94892A09810F70F981F07F11F05F
:100A10000295007F1123B1F0002361F08D81805E8B
:100A2000883018F01D81111109C0802F0E94DD0D42
:100A30000E942D0E8D810E94B50315C0802F0E944B
:100A4000EE0DF6CF8D810E944604002361F08D816A
:100A5000805E883018F01D81111133C0802F0E94F4
:100A6000E30D0E942D0E98E0A91AB108E4E0AE163D
:100A7000B10420F40E9453210E946303EE2009F484
:100A8000CEC10E94AE0D80FDCAC1F60112820E9445
:100A9000A80D0E948B08C6010E9436070E94A80D6F
:100AA0000F900F900F900F900F90DF91CF911F91AB
:100AB0000F91FF90EF90DF90CF90BF90AF900C948C
:100AC000BC08802F0E94F40DCCCF29812F70F22E0C
:100AD0003981307F303219F0F29480EFF8228D8125
:100AE000882369F0813049F1112391F1002351F1FC
:100AF000F601858180FF9ECF8F70858323C01123EF
:100B000081F0011106C00E94100E8F290E94BB04C3
:100B1000AACF0130C1F70E94100E8F290E94160E35
:100B2000A2CF011106C00E94230E8F2D0E94C20485
:100B30009ACF013009F497CFF6CF112329F0063070
:100B400008F091CF8F2DE2CF053008F08CCFEDCF9C
:100B5000002359F30D81093349F41FEF27EE33E0E9
:100B6000115020403040E1F700C000008D810E940C
:100B7000460479CF898186958695837069F08130A6
:100B800009F071CF8D8199819370111102C090E0AD
:100B900080E00E949F2167CF8D8199819370111110
:100BA00002C090E080E00E9489215DCF8D811123F9
:100BB00029F00E94FC130E94BE1455CF0E944514D8
:100BC000FACF8981837009F050C011114CCF2D816B
:100BD000229526952770220F220F4D814F7050E0ED
:100BE00070E060E0022E04C0440F551F661F771F9F
:100BF0000A94D2F70D8180E090E0DC0104FF0FC081
:100C00008FE090E0A0E0B0E004C0880F991FAA1F19
:100C1000BB1F2A95D2F780959095A095B095198124
:100C20001695169513701D838C019D01042B152BB1
:100C3000262B372B09831A832B833C831D816981E3
:100C40007A818B819C81123051F0133059F0113030
:100C500019F00E94010807CF0E94D90704CF0E9413
:100C6000290801CF0E94D707FECE112309F448C0FE
:100C7000098100FFF8CE2D81229526952770220F3D
:100C8000220F4D814F7050E070E060E0022E04C0F2
:100C9000440F551F661F771F0A94D2F70D8180E01D
:100CA00090E0DC0104FF0FC08FE090E0A0E0B0E036
:100CB00004C0880F991FAA1FBB1F2A95D2F78095E1
:100CC0009095A095B09519811695169513701D8372
:100CD0008C019D01042B152B262B372B09831A839E
:100CE0002B833C831D8169817A818B819C811230A9
:100CF00071F0133079F0113039F00E944A09B3CE07
:100D0000198111FFB0CEB7CF0E942209ACCE0E944C
:100D10007209A9CE0E945508A6CE09810F700983D9
:100D2000112329F0802F0E948B088D81EFCE8D81B9
:100D30000E94C20489810E94BC0895CE2D81223F69
:100D4000A1F160F4203FE1F0213F41F1112309F4CA
:100D500045C001116FCE89818F7124C03D81333F21
:100D600049F1343F99F7112379F109810F71098312
:100D7000802F0E948B0863E089810E94630E73CEEE
:100D8000112341F0053008F06ECE89818F710E94E9
:100D9000F10869CE063008F066CEF7CF89818F71F1
:100DA000112349F20E948B085ECE89818F71112335
:100DB000C9F3C1CF112329F089818F710E94660880
:100DC00052CE0E9461084FCE81E00E947E0E02301A
:100DD00008F449CE82E00E947E0E45CE002361F0E9
:100DE0001D81193309F0C2CE2FEF37EE83E0215079
:100DF00030408040E1F7B8CE89818F719CCF498126
:100E00004F706D81C6010E9467020E94680A2BCE56
:100E100049814F706D81C6010E940F1024CE0F9042
:100E20000F900F900F900F90DF91CF911F910F9126
:100E3000FF90EF90DF90CF90BF90AF9008950F9309
:100E40001F93CF93DF93EC01688179818A810E949F
:100E50003E0A8C010E949A090E94D607B801CE0171
:100E6000DF91CF911F910F910C94C904CF93DF9321
:100E7000EC01988189812B813C81232B19F08923F6
:100E80008F3F59F4DF91CF910895CE010E941F0743
:100E9000CE01DF91CF910C94D502CE010E94FC02CD
:100EA0008111F3CF0E94B20D882361F38A818823D8
:100EB00049F382E0DF91CF910C947E0E90E080E0C8
:100EC0000E94892190E080E00E949F210E94FC0DF9
:100ED0000E940D0E0E942D0E0E94E9150C94BE1466
:100EE0000E94A20D0C945E070E94EB0D0C947007FB
:100EF000282F892F82958F70903C80F48A30B0F42F
:100F0000843020F4823090F480E008958630E1F758
:100F100081E0283E88F0213FB9F70EC08C3011F0F7
:100F20008F3091F793FB882780F9089581E0203F67
:100F300039F018F4283E40F70895243F29F7FCCFF4
:100F40000895FC01808191810E94320A0C947807F7
:100F5000CF93DF9300D000D00F92CDB7DEB70F90C4
:100F60000F900F900F900F90DF91CF910895CF9336
:100F7000DF9300D000D000D0CDB7DEB726960FB6F5
:100F8000F894DEBF0FBECDBFDF91CF9108950895D5
:100F90000C94C7070E94C8076093B8017093B90109
:100FA0008093BA019093BB010C945E0708950C9452
:100FB000CA07CF93DF9300D000D0CDB7DEB76983E7
:100FC0007A838B839C838091B8019091B901A09121
:100FD000BA01B091BB0129813A814B815C81282BF8
:100FE000392B4A2B5B2B29833A834B835C83CA01C1
:100FF000B9010F900F900F900F90DF91CF910C944B
:10100000CA07CF93DF9300D000D0CDB7DEB7698396
:101010007A838B839C838091B8019091B901A091D0
:10102000BA01B091BB0129813A814B815C812823AF
:1010300039234A235B2329833A834B835C83CA0188
:10104000B9010F900F900F900F90DF91CF910C94FA
:10105000CA07CF93DF9300D000D0CDB7DEB7698346
:101060007A838B839C838091B8019091B901A09180
:10107000BA01B091BB0129813A814B815C8128275B
:1010800039274A275B2729833A834B835C83CA012C
:10109000B9010F900F900F900F90DF91CF910C94AA
:1010A000CA070C94C7070C9451080E945308609318
:1010B000B4017093B5018093B6019093B7010C947D
:1010C0005E0760E070E0CB010C9455080F931F930E
:1010D000CF93DF9300D000D0CDB7DEB741E050E032
:1010E00060E070E08A019B0104C0000F111F221F05
:1010F000331F8A95D2F709831A832B833C83C90156
:10110000B8010F900F900F900F90DF91CF911F912A
:101110000F910C9455080F931F93CF93DF9300D03A
:1011200000D0CDB7DEB741E050E060E070E004C031
:10113000440F551F661F771F8A95D2F78091B4011F
:101140009091B501A091B601B091B7018A019B01C0
:10115000082B192B2A2B3B2B09831A832B833C83C7
:10116000C901B8010F900F900F900F90DF91CF91B0
:101170001F910F910C9455080F931F93CF93DF93FA
:1011800000D000D0CDB7DEB741E050E060E070E0C5
:1011900004C0440F551F661F771F8A95D2F74095EC
:1011A0005095609570958091B4019091B501A09192
:1011B000B601B091B7018A019B01082319232A23A4
:1011C0003B2309831A832B833C83C901B8010F9009
:1011D0000F900F900F90DF91CF911F910F910C9472
:1011E00055080F931F93CF93DF9300D000D0CDB756
:1011F000DEB741E050E060E070E004C0440F551FEE
:10120000661F771F8A95D2F78091B4019091B5013E
:10121000A091B601B091B7018A019B010827192757
:101220002A273B2709831A832B833C83C901B801F2
:101230000F900F900F900F90DF91CF911F910F9112
:101240000C945508CF93DF9300D000D0CDB7DEB714
:1012500069837A838B839C838091B4019091B501DB
:10126000A091B601B091B70129813A814B815C818F
:10127000282B392B4A2B5B2B29833A834B835C83A6
:10128000CA01B9010F900F900F900F90DF91CF918D
:101290000C945508CF93DF9300D000D0CDB7DEB7C4
:1012A00069837A838B839C838091B4019091B5018B
:1012B000A091B601B091B70129813A814B815C813F
:1012C000282339234A235B2329833A834B835C8376
:1012D000CA01B9010F900F900F900F90DF91CF913D
:1012E0000C945508CF93DF9300D000D0CDB7DEB774
:1012F00069837A838B839C838091B4019091B5013B
:10130000A091B601B091B70129813A814B815C81EE
:10131000282739274A275B2729833A834B835C8315
:10132000CA01B9010F900F900F900F90DF91CF91EC
:101330000C9455080895E92FEE0FE90FE80F8E2F52
:10134000877041E001C0440F8A95EAF7E695E6957B
:10135000E69585E0E89FF0011124E155FE4F30E06D
:1013600020E070E05191DF011197CB01022E02C005
:10137000969587950A94E2F7817081958527842355
:1013800085278C932F5F3F4F2530310559F70895FE
:10139000E92FEE0FE90FE80F9E2F9770E695E6957F
:1013A000E69585E0E89FF0011124E155FE4F50E0FD
:1013B00040E080E0219130E0092E02C0369527956B
:1013C0000A94E2F721703327042E01C0220F0A94F9
:1013D000EAF7822B4F5F5F4F4530510559F708956B
:1013E000BF92CF92DF92EF92FF920F931F93CF9312
:1013F000DF938C01C090B401D090B501E090B601AC
:10140000F090B7018091B8019091B901A091BA0113
:10141000B091BB01C82AD92AEA2AFB2ACFE1D0E041
:10142000BC2ED701C6010C2E04C0B695A795979582
:1014300087950A94D2F780FD0EC0219788F7B12CCA
:101440008B2DDF91CF911F910F91FF90EF90DF9047
:10145000CF90BF900895B8018C2F0E943D11019745
:1014600061F3EECFCF93DF93D82FC92F0E94F009FD
:101470006D2F7C2FDF91CF910C943D111F93CF9353
:10148000DF93162FD72F9091AE01992339F0862F35
:10149000972FDF91CF911F910C94320A882391F0FE
:1014A000862F972F0E94F009C82F682F812F9D2F1C
:1014B0000E949B09612F7D2F8C2FDF91CF911F916F
:1014C0000C943D11862F972F0E94C809C82FF2CF88
:1014D000EF92FF920F931F93CF93DF938C01892B91
:1014E00089F0F12CEE24E394E8012196F80184912F
:1014F000843709F458C0A0F4823009F43FC048F49E
:101500008130D1F0DF91CF911F910F91FF90EF903B
:1015100008959CEF980F9037A8F70E94B5030AC072
:10152000853709F44EC09CE7980F903758F78F77AE
:101530000E9446048E0116C00E5F1F4FFE0184916B
:1015400090E2980F983060F48770FE2D01C0FF0F75
:101550008A95EAF78F2F0E94FF0D0E942D0E02C080
:101560000E94B5038F2D882309F4BECFEFE9FFE079
:101570003197F1F700C000008150F5CF0E5F1F4F8B
:10158000FE01849190E2980F983050F48770FE2D00
:1015900001C0FF0F8A95EAF78F2F0E94050EDDCF5D
:1015A0000E944604DFCF0E5F1F4FFE01C491CC2383
:1015B000C9F28FE99FE00197F1F700C00000C15028
:1015C000F6CF0E5F1F4FFE01F490CCCF1F93CF9349
:1015D000DF93E091BC0116E08091BD018E1304C041
:1015E000DF91CF911F910895CE2FD0E01E9FF00183
:1015F0001124E254FE4F40815181628173818481C4
:1016000095810E94B7072196EC2FE770E5CF4091B6
:10161000EE015091EF016091F0017091F101809124
:10162000F2019091F3010C94B7071F93CF93DF93CE
:101630008091F301807FA9F48091F001882389F0E3
:101640008091BC01C091BD017091EE016091EF01EC
:10165000A091F101B091F201D62FD72316E0C81363
:1016600004C0DF91CF911F91089590E0109711F081
:10167000DF3F19F401968770F2CF189F9001199FF0
:10168000300D1124F901E254FE4F41816413F2CF71
:1016900040814713EFCF42814111ECCF4381548108
:1016A0004A1B5B0B483C510528F78091F3018F7072
:1016B00080618093F301F901ED53FE4F80818F70BB
:1016C000806180838EEE91E00E943607DF91CF919A
:1016D0001F910C94E60AAF92BF92CF92DF92EF92E5
:1016E000FF920F931F93CF93DF93CDB7DEB72B9766
:1016F0000FB6F894DEBF0FBECDBF8C0185E0F801B8
:10170000DE01179601900D928A95E1F7F801E280CB
:10171000C380D4808EEEA82E81E0B82E2091EE01F9
:101720009091EF014091F1015091F2014115510565
:1017300029F0892F82238F3F09F049C1EE2009F457
:1017400055C1C8010E94A107F82E882309F44EC193
:1017500086E0F801AEEEB1E001900D928A95E1F7D6
:101760008EEE91E00E94B0030E94150B00C18091A3
:10177000F301682F607F483C510508F0A8C0F801CC
:1017800031816111E0C0FE2C391325C09081921384
:1017900022C0E11020C08F7080618093F3010E940D
:1017A000070B8EEE91E00E9436078091F301F8015D
:1017B00085838F2D2B960FB6F894DEBF0FBECDBF5D
:1017C000DF91CF911F910F91FF90EF90DF90CF901D
:1017D000BF90AF9008952F81CD2829F0832F8223C9
:1017E0008F3F09F0ADC080E0F82FF170DF2EE0915F
:1017F000BC014091BD0156E080FD1CC0EE20C9F245
:101800008091F30181608093F301F12CD2CF8E2F70
:1018100090E05E9FF0011124E254FE4F6181361387
:1018200006C06081621303C06281E612E7CF0196B1
:10183000E82FE770E413EBCF8F8198850E94320A7E
:10184000292F22952F70903260F0225F2F70223066
:1018500078F49F7051F0F8019581907F31F4D12C8C
:101860000AC09F7011F08823D1F3805E8830B8F3EE
:10187000C8010E943607FD2C9CCFC8010E94A10719
:10188000882309F4B3C0EE2009F4B0C08091F301BD
:10189000803270F02091EE013091EF013A8329837C
:1018A0001B82DD82CC828E83CE0101960E94360798
:1018B00086E0F801AEEEB1E001900D928A95E1F775
:1018C0000E94150B0E94070BFF24F39472CF611145
:1018D00051C04F81588569857A858B850E94A807FC
:1018E0008EEE91E00E94360786E0F50111928A950E
:1018F000E9F70E94070B89CF86E0F801AEEEB1E070
:1019000001900D928A95E1F754CFC8010E94A1077A
:101910008111CECF8091F30181608093F301C801E2
:101920000E94360746CF4F81588569857A858B8519
:101930000E94A80786E0F50111928A95E9F717C081
:1019400081E08E2551CF391398CFF8019081921301
:1019500094CFE11092CF8583C8010E94360786E0BC
:10196000F801AEEEB1E001900D928A95E1F70E9488
:10197000070B1FCFF801318193137FCFF8019081BE
:1019800092137BCFE11079CF8583C8010E9436077F
:1019900086E0F50111928A95E9F70BCFF801818174
:1019A0009813B3CFF80180818213AFCF8091F301F8
:1019B00080FDA2CF982F907F09F49ECF8583903F22
:1019C00059F2982F907F905F8F70892BC4CFF09041
:1019D000F001B601641B750BAB01F110C8CE483C99
:1019E000510508F0A0CFFE2CE110D8CFC8010E940D
:1019F00036076ACF1F93CF93DF93CDB7DEB72C970F
:101A00000FB6F894DEBF0FBECDBF4F8358876987EE
:101A10007A878B879C87CE0107960E946B0B882361
:101A200069F08A859B85892B39F058854F81852FF0
:101A300084238F3F09F071C016E05FC086E0FE018D
:101A40003796DE01119601900D928A95E1F78F810C
:101A500098852091BD014091BC016A857B85672BEB
:101A600059F389238F3F41F330E0C9010196877014
:101A700099274817190671F40E9474071092BD0146
:101A80001092BC0186E0EEEEF1E0DF011D928A9536
:101A9000E9F7D2CF96E0929FD001939FB00D112429
:101AA000A254BE4FFE01319601900D929A95E1F736
:101AB0008093BD010E94E60ABFCF819FC00111241F
:101AC00082549E4F0E946B0B8823E9F0E091BC0189
:101AD0001E9FF0011124E254FE4F4081518162812A
:101AE0007381848195810E94B7078091BC0190E049
:101AF0000196877099278093BC018091BC019091D9
:101B0000BD018913DACF2C960FB6F894DEBF0FBE55
:101B1000CDBFDF91CF911F91089569857A858B851F
:101B20009C850E94B70788CF682F80910001909113
:101B300001010C944D22682F8091000190910101C8
:101B40000C94582280910001909101010C94632221
:101B50008091F40185958595859508958091F4018E
:101B6000877008959091F401977081E009F480E006
:101B700008959091740292FB222720F9281751F0C2
:101B800080FB92F990937402809173029091740299
:101B90000C94C10E08958091740282FB882780F90D
:101BA00091E089270C94B90D81E00C94B90D80E087
:101BB0000C94B90D80911802089590911802982BF9
:101BC000909318020895982F909580911802892378
:101BD00080931802089510921802089590911702A8
:101BE000982B909317020895982F90958091170243
:101BF00089238093170208951092170208959091F7
:101C00001602982B909316020895982F9095809124
:101C100016028923809316020895109216020895E1
:101C20008091F501089508950C94130E909174021B
:101C300092FD08C09091F501981721F08093F5016D
:101C40000C94140E08958091F501882329F01092C8
:101C5000F50180E00C94140E0895E0910001F091DC
:101C60000101809118028083E0910001F09101014F
:101C7000808190911702892B8083E0910001F0917F
:101C80000101808190911602892B80839091F5014A
:101C9000992381F0E0910001F09101018081892B6D
:101CA000808380910001909101010E94B5218111F2
:101CB0000E94230E80910001909101010C945F21FC
:101CC00008950C94600E9091740292FD10C098E0FB
:101CD000899F90011124622B6093F4010E948B086C
:101CE0008091F4018595859585950C94610E0C94F1
:101CF0008B081092F40180E00C94610E9091F40135
:101D0000809589238093F401282F277039F4282F98
:101D1000082E000C330B9217130621F490917402D5
:101D200092FF07C08595859585950E94BC080C9407
:101D3000790E08956FEF7FEF90E080E00C94082B10
:101D400090E080E00E94E42A9C0181E0293E3E4F21
:101D500009F080E0089582E090E00C94D62A83E0B8
:101D600090E00C94D62ACF9384E090E00E94D62A8B
:101D7000C82F82E290E00E94D62A982F8C2FCF9114
:101D80000895CF93682FC92F84E090E00E94EA2A3B
:101D90006C2F82E290E0CF910C94EA2AAB01BC0157
:101DA0008FE090E00C94FC2AAB01BC0183E190E051
:101DB0000C94FC2A60E070E0CB010C94D40E60E03F
:101DC00070E0CB010E94CE0E0C94DA0E69EE7EEF2D
:101DD00090E080E00E94082B60E082E090E00E94AA
:101DE000EA2A60E083E090E00E94EA2A1092B801BB
:101DF0001092B9011092BA011092BB0160E084E028
:101E000090E00E94EA2A60E082E290E00E94EA2AE2
:101E100060E085E090E00E94EA2A60E086E090E0E1
:101E20000E94EA2A6FEF87E090E00E94EA2A40E0F1
:101E300050E0BA0188E090E00E94FC2A60E08DE06A
:101E400090E00E94EA2A40E050E0BA0188E190E088
:101E50000E94FC2A60E087E190E00E94EA2A40E0CC
:101E600050E0BA018CE190E00E94FC2A70E060E052
:101E700080E290E00E94082B40E050E0BA0188E147
:101E800090E00E94FC2A0C94DF0E0C94E60E682F62
:101E90008EE090E00C94EA2A0E94042360931F02D3
:101EA00070932002809321029093220260931B0280
:101EB00070931C0280931D0290931E02089585B7B3
:101EC000806885BF85B7806885BF089508950895A7
:101ED0000C94660F08950C946A0F0E945F0F8CE1BA
:101EE00092E10E947B230E94670F0C94680F81E0AF
:101EF00008950C94770F089508950E947B0F0C9419
:101F00007C0F0E94EF220E94FC120E94CE1D0E94B4
:101F10005B1C0C946B0FFF920F931F93CF93DF9377
:101F200000D000D00F92CDB7DEB70E940713811109
:101F30000E944C0F80E00E947512182F80911A02A7
:101F4000082F0127811311C08FEF89838A831B8299
:101F50000E94F8228160782F9D838C8349815A8169
:101F60006B81892F0E946B032DC08091230281FD1C
:101F70000E947B12802F8170F82E00FD3FC001FD72
:101F80003FC002FFE1CF02E094E0F92E0E94790FFA
:101F9000882399F009831A821F2181E009F480E0E7
:101FA0008B830E94F8228160782F9D838C834981E6
:101FB0005A816B81892F0E946B0380911A028F25B1
:101FC00080931A020E948E1C0E943B1F0E94D8140C
:101FD0000E945321909119028917B1F00E94532158
:101FE000809319020F900F900F900F900F90DF9138
:101FF000CF911F910F91FF900C94630300E0C6CF27
:1020000001E082E0F82EC2CF0F900F900F900F905A
:102010000F90DF91CF911F910F91FF900895089538
:10202000272F280F3327331FC901F901EE0FFF1F98
:10203000E80FF91FE60FF11DEE0FFF1FE455FF4FEC
:10204000859194910895FC01EE0FFF1FEE54FF4F10
:10205000859194910895CF93DF930E944111EC01F3
:10206000811520E5920708F043C0811530E49307FD
:1020700008F0B2C0803E9105E8F4803C910508F07C
:10208000A0C0883A910578F4853A910508F08BC094
:102090008130910521F00497813A910540F4CE01F9
:1020A000DF91CF9108958F3B910509F07FC0D0E07B
:1020B000C0E0F5CFC11580E2D80770F4CF3FD1055D
:1020C00009F068F7C83ED10550F3CE018D5E910945
:1020D000D065439720F3EBCFCE01C11520E3D207A3
:1020E00008F475C09927D3FD74C0EC01D06CD7CF2C
:1020F000811535E5930760F5C11584E5D80708F02B
:102100009EC0C11523E5D20778F4C11532E5D30787
:1021100008F082C0C11581E5D80708F460C0DC2F43
:10212000CC27C16FD06ABBCF9E012370332781E0DB
:1021300090E002C0880F991F2A95E2F7C695C695D0
:1021400020E2C29FE0011124C82BD92BDA68A7CF67
:1021500081153AE59307B0F4C11589E5D80708F071
:102160007EC0C11526E5D20708F46EC0CE01985591
:102170008F3F910511F008F09ACFDC2FCC27C06F6C
:10218000D06A8DCF90568115904208F090CF8D2F58
:102190008F710E94D91190E0982F882788279F710E
:1021A0008C2BEC015AC0A497D06479CFC85AD0E0E8
:1021B000CC0FDD1FCA5ADE4F0990D881C02DD464E0
:1021C0006ECF805C91090E942310EC0168CF9F7054
:1021D000FACFEC01D86C63CFDF70D06A60CF9E017C
:1021E00074E0369527957A95E1F723708C2F8695C4
:1021F0008695837030E2839FC0011124922BC370B7
:1022000021E030E002C0220F331FCA95E2F7822B93
:10221000932BEC01DC6843CF9E012370332781E0D0
:1022200090E002C0880F991F2A95E2F7C695C695DF
:1022300020E2C29FE0011124C82BD92BEBCFDC2F69
:10224000CC27C46FD06A2BCF8C2F0E94D911C82FF6
:10225000D0E0DC2FCC27CC27DF71D06220CF8C2FB1
:102260008F700E94D91134E0D695C7953A95E1F761
:10227000CF709C2FEC01D06912CF0E9410100C94EB
:102280002B10803E910599F1C8F48133910509F432
:1022900076C048F48932910509F46AC08A32910502
:1022A00009F474C0089589339105D1F082389105FD
:1022B000B9F08533910509F454C00895843E910521
:1022C00099F138F4823E9105F9F0833E910509F1C8
:1022D0000895863E910599F1873E9105B9F10895DB
:1022E000209173022370A1F080EE90E00895209178
:1022F000730220FD52C03091740230FF09C024FFE8
:102300004FC090E080E004C02091730222FDF7CF1F
:1023100008952091730222FD46C03091740230FD71
:10232000E3CF24FFF5CFEDCF2091740221FFF0CF52
:102330008091730284FDE5CF87EE90E008952091AF
:10234000730223FFE5CF24FDDCCFF6CF209173028B
:1023500023FD2CC03091740231FFE3CF84EE90E076
:1023600008952091730225FFD3CF89E290E008956C
:102370002091730225FFCCCF85E390E00895209152
:10238000730226FFC5CF8AE290E008952091730280
:1023900026FFBECF81E390E0089589E390E00895A1
:1023A00083EE90E0089582EE90E0089586EE90E04E
:1023B00008959091730292FF06C0282F287128304B
:1023C000F9F4877F846093FF06C0282F2871283195
:1023D000F1F4877E84612091740220FF06C0382FBB
:1023E00038713830D9F4877F816021FF06C0282FEB
:1023F00028712831D1F4877E816194FD877E08950C
:10240000282F24712430F9F68B7F8860DCCF282FA9
:102410002471243101F78B7E8861DDCF382F317133
:10242000313019F78E7F8860E0CF282F217121315C
:1024300021F78E7E8861E1CF80E008950C949A0E9A
:102440000E9407132FEF86E791E0215080409040D3
:10245000E1F700C000000E94071380E00E9475129F
:1024600080FF04C00E941E120C94572308950C9400
:102470002012CF93DF9300D000D0CDB7DEB70E94FB
:10248000A00E811102C00E94450F0E94AB0E8093E6
:1024900023020E94B30E90937402809373020E94F1
:1024A00037120E94AF0E282F30E050E040E0CA0102
:1024B000B9010E94D7078091B4019091B501A09114
:1024C000B601B091B70189839A83AB83BC83BC0109
:1024D000CD010F900F900F900F90DF91CF910C9442
:1024E00053080C946A020C946B02E82FF0E0EA584F
:1024F000FD4F80810895089580EA8A95F1F7089547
:1025000000C008950C947C12F894E82FE295EF70C7
:10251000F0E041A18F7021E030E0B90102C0660F08
:10252000771F8A95E2F7CB01962F9095942391A37C
:1025300092A1892B82A37894089582E90E94841243
:1025400081E90E94841280E90E94841284E90C943B
:102550008412DF92EF92FF920F931F93CF93DF933A
:102560007C01D62E062F10E00C571E4FF8018081FB
:102570008F3FD1F1F894E82FE295EF70F0E091A150
:102580008F70C1E0D0E09E0101C0220F8A95EAF76A
:10259000892F822B81A382A12095282322A37894BE
:1025A0000E9480120D2C01C0CC0F0A94EAF7F701AB
:1025B00080814C9915C08C2BC1E0F7018083F80114
:1025C00080818F3F11F00E9484126C2F8D2DDF913E
:1025D000CF911F910F91FF90EF90DF900C9482129A
:1025E000C0958C23C0E0E9CFDF91CF911F910F916F
:1025F000FF90EF90DF9008950E949D121092750257
:102600001092760281E00E9437130C94E2021F932D
:10261000CF93DF930F92CDB7DEB7198260E0CE0182
:1026200001960E94A91261E0CE0101960E94A912B2
:1026300062E0CE0101960E94A912909175028981F3
:1026400011E0981301C010E0981380937502212FB8
:1026500041E066E772E085E792E00E9438130E944D
:10266000EA02812F0F90DF91CF911F910895089575
:10267000FF920F931F93CF93DF93F82E092F162FFE
:10268000D72FC42F222349F081E0809326020E9495
:10269000F8229093250280932402809126028823B9
:1026A000A1F080912402909125020E942423059795
:1026B00060F0EF2DF02FA12FBD2FCF018C0F911DBA
:1026C000E817F90741F410922602DF91CF911F918C
:1026D0000F91FF90089521912D93F2CF0E947522C2
:1026E0000E94EC240E9405250E9417250E947D0F60
:1026F000FBCF80912D0280FF12C06091070185E021
:10270000689FB00111247595679575956795603838
:102710007105A8F561157105A1F1862F089581FF56
:1027200009C06091070185E0689FB001112475958B
:102730006795EDCF6091070182FD0AC020912C02C0
:102740002223D1F09091060160910701291728F00A
:1027500085E0689FB0011124DACF269F90011124F3
:1027600085E0829FA001839F500D1124692F70E0A6
:10277000CA010E94532ACBCF65E070E0CECF8FE72D
:10278000089581E0089580912D0280FF0CC0609132
:10279000030170E0759567957595679561157105ED
:1027A00049F1862F089581FF06C06091030170E012
:1027B00075956795F3CF6091030182FD0BC09091F1
:1027C0002B029923A1F060910201809103019617D9
:1027D00038F0682F70E06038710500F38FE70895D6
:1027E000899FC001112470E00E94532AF4CF61E058
:1027F00070E0D7CF81E00895E3E1E80FE331E0F541
:10280000F0E0E05DF44D0C94892A0E9479138195E3
:102810008093310208950E947913FACF0E947913B0
:1028200081958093300208950E947913FACF0E9417
:10283000C3138093320208950E94C3138195F9CF88
:102840000E94C31381958093330208950E94C3139D
:10285000FACF815F990B21E030E001C0220F8A9509
:10286000EAF780912F02822B80932F0208958091A6
:102870002D02816080932D02089580912D02826047
:10288000F9CF80912D028460F5CF409130028D3ECA
:1028900059F48091310287FF0DC01092310241112D
:1028A0000BC010922C0208C08E3E81F48091310240
:1028B00018169CF3442381F08091320290913302E8
:1028C000892B09F05AC010922B0208958F3E49F4CB
:1028D00047FFF0CF10923002809131028111ECCF8E
:1028E000E0CF803F19F41416ACF3E4CF909132029C
:1028F000893F29F41916F4F610923202DBCF8A3F91
:1029000019F497FFD7CFF8CF909133028B3F29F47A
:1029100097FFD0CF10923302CDCF8C3F19F4191608
:10292000CCF3C8CF9FE0980F983090F4815F990B5B
:1029300021E030E0B90102C0660F771F8A95E2F707
:10294000CB01809590912F02892380932F02B2CFE3
:102950008D3F31F480912D028E7F80932D02AACF7E
:102960008E3F21F480912D028D7FF7CF8F3F09F0AC
:10297000A1CF80912D028B7FF0CF08950E94F82285
:102980002091300230913102232B21F080932902D3
:1029900090932A022091320230913302232B21F0AE
:1029A00080932702909328028EE292E00C947A2181
:1029B000CF92DF92EF92FF920F931F93CF93DF930B
:1029C00000D000D000D0CDB7DEB726E0EEE2F2E0D6
:1029D000CE010196DC0101900D922A95E1F7C0909D
:1029E0003002D0903102E0903202F0903302109227
:1029F00030021092310210923202109233022C2DCA
:102A00002D298C0191F08091290290912A020E9437
:102A100024239C0180912C02882309F440C09091CA
:102A200008019217130608F448C08E2D8F2991F0E3
:102A300080912702909128020E9424239C0180917A
:102A40002B02882309F478C0909104019217130691
:102A500008F480C08091300290913102892B9091CE
:102A60003202892B90913302892B11F00E94BE14FF
:102A700086E0F801AEE2B2E001900D928A95E1F7AE
:102A800026960FB6F894DEBF0FBECDBFDF91CF9173
:102A90001F910F91FF90EF90DF90CF90089540919C
:102AA00009019AE0499FA00111244217530708F039
:102AB000BCCF8F5F80932C0202C08F3FD1F7CC2018
:102AC00059F00E9479139FEF1C140CF491E0899F38
:102AD000802D112480933002DD2059F00E9479135B
:102AE0009FEF1D140CF491E0899F802D1124809399
:102AF000310230913002332309F497CF2091310213
:102B0000222309F492CF45EB3403C0011124992309
:102B100059F09093300245EB2403900111243323A4
:102B200039F03093310281CF81E080933002F3CFCE
:102B300081E08093310279CF409105019AE0499F6D
:102B4000A00111244217530708F084CF8F5F8093B0
:102B50002B0202C08F3FD1F7EE2059F00E94C31321
:102B60009FEF1E140CF491E0899F802D1124809317
:102B70003202FF2059F00E94C3139FEF1F140CF480
:102B800091E0899F802D112480933302309132028D
:102B900020913302332309F45DCF222309F45ACF65
:102BA00045EB3403C0011124992359F0909332026C
:102BB00045EB240390011124332339F03093330281
:102BC00049CF81E080933202F3CF81E080933302DA
:102BD00041CF86E0EEE2F2E0DF011D928A95E9F74F
:102BE00010922C0210922B0210922D020895AF9297
:102BF000BF92CF92DF92EF92FF920F931F93CF93EA
:102C0000DF938B01282F111114C0442329F090E089
:102C100087539E4FFC018491682F782FDF91CF91CD
:102C20001F910F91FF90EF90DF90CF90BF90AF90EA
:102C30000895C12FD0E030E0442329F027533E4FC0
:102C4000F901249130E0F6E00F9F70011124EFEFBD
:102C5000F0E0C701BF010E943F2AAB01802F90E046
:102C6000880F991FA5E5A49FB001A59F700D1124A1
:102C7000861B970B782F770F780FCF018C1B9D0B3E
:102C8000829FD001839FB00D929FB00D11246B2FB6
:102C9000719FC0011124892F99278F01081B190BDF
:102CA000C801829F8001839F100D929F100D1124F7
:102CB000812F5F01A71AB108AC9E6001AD9ED00CB8
:102CC000BC9ED00C1124CD2CDD24EC19FD09E29F13
:102CD000E001E39FD00DF29FD00D1124722F4330FD
:102CE0005105D1F09CEFE91693E0F90670F44130FC
:102CF0005105B1F042305105B9F0EFEFEE16F10495
:102D000008F08CCF8B2F6D2F89CF4430510579F08F
:102D100046305105B9F382CF612F822F7B2F7ECFB2
:102D2000622F712F8B2F7ACF8D2F622FF7CF822FAB
:102D30007D2F74CF41E00C94F71508950C949A16EA
:102D4000CF93DF93982F762F842FE901692F0E946C
:102D50009E16798368838A83DF91CF91089580914D
:102D60007702982F9E7F29F481708260809377028A
:102D700008958A34E8F381708864F8CF88E090E0A1
:102D80000C94DE2A0F931F93CF93DF938B01D82FE0
:102D9000C92F0E94AF16A8016D2F7C2F88E090E00C
:102DA000DF91CF911F910F910C94FC2AE7E7F2E09D
:102DB00083E0808385E181838FEF82838383148224
:102DC00063E075E18FEF9FEF0C94C216809177025C
:102DD00080FF02C08695089580E00895CF93DF9329
:102DE00000D000D0CDB7DEB790917B02933018F4BD
:102DF0009F5F90937B028823B1F08091770290913E
:102E00007802A0917902B0917A0289839A83AB8388
:102E1000BC83BC01CD010F900F900F900F90DF91FC
:102E2000CF910C94C2160F900F900F900F90DF91DE
:102E3000CF91089581E00C94EE16CF93DF9300D0EC
:102E400000D0CDB7DEB790917B02992319F0915055
:102E500090937B028823B1F0809177029091780261
:102E6000A0917902B0917A0289839A83AB83BC8363
:102E7000BC01CD010F900F900F900F90DF91CF917B
:102E80000C94C2160F900F900F900F90DF91CF917E
:102E9000089581E00C941D1721E030E001C0220F5D
:102EA0008A95EAF790914202922381E009F480E04A
:102EB000089570E00C944C1F7F928F929F92AF9276
:102EC000BF92CF92DF92EF92FF920F931F93CF9317
:102ED000DF9300D000D00F92CDB7DEB7B0900E01D7
:102EE0009091770290FF24C0C0903702D0903802B2
:102EF000C114D10479F580910D0123E0829FC001B6
:102F000011246B2D84589D4F0F900F900F900F90B0
:102F10000F90DF91CF911F910F91FF90EF90DF9075
:102F2000CF90BF90AF909F908F907F900C94591747
:102F300080910F012091100133E0839FF001112453
:102F4000E458FD4F821780F61182108212828F5F43
:102F50003396F8CF90FFCFCFA12C33E0732E8A2D7C
:102F60000E944C178823C1F1F601E590F490E1141A
:102F7000F10409F4C0CF45E050E0B701CE0101965D
:102F80000E94C02A09810F3F39F18A81800F992759
:102F9000991F8330910514F082E090E04C01880C79
:102FA000991C880E991EC40184589D4F4C01079DA1
:102FB0008001112404581D4F0815190520F095E0D3
:102FC000E90EF11CD8CF98014D816C818B810E9454
:102FD000A0160D5F1F4FF0CF22E0C20ED11CA394AC
:102FE00038E0A312BCCF87CF9091770290FF14C036
:102FF00090910F012091100133E0939FF001112473
:10300000E458FD4F921710F00C945C178183608395
:1030100042839F5F3396F6CF0895CF93DF9300D01E
:103020000F92CDB7DEB79091770290FF0FC09E014F
:103030002F5F3F4F0E94A0164B8169818A810F90BC
:103040000F900F90DF91CF910C94F4170F900F9089
:103050000F90DF91CF910895CF93DF93EC01EC8136
:10306000F0E0EC53FF4F4491E7E7F2E062818181A9
:103070000E940D188C818F5F8C83DF91CF91089512
:10308000CF93DF93EC01E7E7F2E0438162818C812B
:103090000E940D188C818F5F8C83DF91CF910895F2
:1030A0000F931F93CF93DF9300D00F92CDB7DEB76E
:1030B0008C018091340281110AC09E012F5F3F4F25
:1030C0004FEF6FEF0E94A0168A8180933402F801BF
:1030D0006481613049F06230F1F08091340240E067
:1030E000662331F040E019C06091340240E080E096
:1030F0000E94F417F801848190E0019663E070E08B
:103100000E94532A84830F900F900F90DF91CF91EC
:103110001F910F9108954091340280E060E0E8CF64
:10312000AF92BF92CF92DF92EF92FF920F931F93D5
:10313000CF93DF9300D000D000D00F92CDB7DEB791
:10314000182FF62E042FD22E9091770290FF83C075
:10315000E92FE695AE2FB0E0A957BE4F8C91809332
:1031600040029E7F9230A1F59E012F5F3F4F812F3D
:103170000E94A0164B8169818A810E94F4171093E6
:103180007802F092790200937A02DD2009F463C09C
:103190008091770290917802A0917902B0917A02A1
:1031A0008C839D83AE83BF83BC01CD0127960FB670
:1031B000F894DEBF0FBECDBFDF91CF911F910F916D
:1031C000FF90EF90DF90CF90BF90AF900C94C2161D
:1031D000823019F400917A02D2CF863019F410911E
:1031E0007802CDCF8930D9F3893149F6E9518E2F54
:1031F0008170C82EE695F0E0EC53FE4FA590B49098
:10320000E12CBB2460911101E61618F00E945C17B6
:10321000B6CF2E2D30E0EA9CC001EB9C900D11241E
:1032200070E00E943F2A812FC11013C0860F909139
:103230000F01A901490F511D9A01220F331F240FBD
:10324000351F24583D4F402F6F2D0E94A016E39448
:10325000D9CF861BECCF27960FB6F894DEBF0FBEF2
:10326000CDBFDF91CF911F910F91FF90EF90DF9035
:10327000CF90BF90AF900895282FE7E7F2E08181CB
:1032800043816281885F0C94901881E00C943C1912
:10329000282FE7E7F2E081814381628188500C9416
:1032A000901881E00C944819282FE7E7F2E062813A
:1032B00038E0630F08F46FEF438181810C9490181C
:1032C00081E00C945419282FE7E7F2E0628138E09E
:1032D000631B08F460E0438181810C94901881E0C5
:1032E0000C946319282FE7E7F2E0438138E0430F9D
:1032F00008F44FEF628181810C94901881E00C9466
:103300007219282FE7E7F2E0438138E0431B08F405
:1033100040E0628181810C94901881E00C948119C5
:1033200021E00C94901820E00C949018EF92FF92FA
:103330001F93CF93DF93EC0110E0EE24EA94F12C7D
:1033400060911101161770F00E945C179A818C81B0
:1033500090FF25C08F5F8C83DF91CF911F91FF90ED
:10336000EF90089580910F01810F9927991F9C017B
:10337000220F331F280F391F24583D4F70E0C7011B
:103380000E94532A962F8C8140917A026091790293
:10339000199F800D11240E94A0161F5FD1CF81506C
:1033A000DACFBF92CF92DF92EF92FF920F931F93EB
:1033B000CF93DF93FC0182810FEF80FF01E010E0EB
:1033C000809111011817C0F00E945C17809136029D
:1033D000013009F051C0811102C08091110181506A
:1033E00080933602DF91CF911F910F91FF90EF9064
:1033F000DF90CF90BF90089580910F01C12ED12C06
:103400008C0D9D2D911DEC01CC0FDD1FC80FD91F18
:10341000C458DD4F198218821A8234E0E32EF12C51
:10342000B12C809136028B0D833004F18170082E0F
:10343000000C990BC816D90691F480917A028E9DE2
:10344000A0018F9D500D1124559547955595479591
:103450009E0160917902809178020E94A016B00EC0
:10346000F1E0EF1AF108E9F61F5FAACF87FFDFCF7F
:1034700090911101890FDBCF90E0019660911101CD
:1034800070E00E94532AACCFCF93DF9380910F015D
:103490009091100123E0829FF0011124E458FD4F28
:1034A000891730F1C0E0D3E060911101C61730F107
:1034B0000E945C1720910B0180913502820F80934E
:1034C000350290910C01920F90930C01191654F44F
:1034D000082E000C990B409111014150550B841797
:1034E00095071CF0219520930B01DF91CF91089552
:1034F0001182108212828F5F3396D2CFEC2FF0E0D0
:1035000070E0CF010E94532A20910F01280F422F13
:1035100050E080913502082E000C990BE817F9074E
:10352000BCF080910C01082E000C990B8E179F07A0
:103530007CF02D9F9001112424583D4F40917A0238
:1035400060917902809178020E94A016CF5FACCF83
:10355000FA01EE0FFF1FE40FF51FE458FD4F118233
:1035600010821282F3CFEF92FF920F931F93CF93AB
:10357000DF93CDB7DEB72E970FB6F894DEBF0FBE40
:10358000CDBF8D879E87AD85BE8514961C91212F5A
:1035900030E0D9010E94972A9B01AC010E94AD2A1C
:1035A00069837A838B839C83E0E2F0E0E11BF1097D
:1035B000A5E5B0E09B01AC010E94AD2A69877A873E
:1035C0008B879C879F01DF010E948F2A9B01AC01A2
:1035D0000E94B82A6D837E838F8398879B01AC01FC
:1035E00089819A81AB81BC81280F391F4A1F5B1FDB
:1035F00069857A858B859C850E94672AF22E422FE9
:1036000050E099E29F1588F1A3E02A9F90011124D0
:1036100035952795122F109500E085E5E82EEF18D7
:1036200080911101081778F10E945C17ED85FE85E5
:10363000948181E0992319F0903219F48FEF8093EF
:103640000A0180910A01890FAD85BE8514968C937D
:103650002E960FB6F894DEBF0FBECDBFDF91CF918F
:103660001F910F91FF90EF90089585E590E0841BE6
:10367000950B9C01220F331F280F391F37FFC8CF2E
:103680002F5F3F4FC5CF8E2D01FD8F2D40910F0134
:10369000400F5527551F9A01220F331F240F351F46
:1036A00024583D4F412F609179020E94A0160F5F70
:1036B000B7CF0F931F93CF93DF93EC0110E000E09F
:1036C000909111019017110609F06CF40E945C179B
:1036D0008C8190E00196817099278C83DF91CF9146
:1036E0001F910F91089580910F01A801480F511D5E
:1036F0009A01220F331F240F351F24583D4F4C8150
:10370000609179028091780296959017110651F098
:103710004CF0442349F040917A020E94A0160F5FBA
:103720001F4FCECF4423B9F340E0F7CFCF93DF93C1
:1037300000D000D0CDB7DEB7E7E7F2E080818E7F22
:10374000808380819181A281B38189839A83AB83B5
:10375000BC83BC01CD010E94C216109241029FEFB2
:10376000A0E7B2E09150A040B040E1F700C00000F7
:103770000F900F900F900F90DF91CF910C945C17EA
:1037800060917702669570E04BE050E082E191E055
:103790000E94C92A892B19F481E0809341020E947A
:1037A000F82290933A02809339020895CF93DF93E1
:1037B00000D000D0CDB7DEB79091770290FF44C023
:1037C0008823D9F18532D8F58F77880F90917702C9
:1037D0009170892B80937702662381F08091770224
:1037E00090917802A0917902B0917A0289839A83AC
:1037F000AB83BC83BC01CD010E94C21660917702ED
:10380000669570E04BE050E082E191E00E94C92AA9
:10381000892BB9F01092410281E080933C024091E3
:103820007A0260917902809178020F900F900F9048
:103830000F90DF91CF910C94931981E0C6CF84E271
:10384000C4CF0E94C01BE8CF0F900F900F900F9035
:10385000DF91CF910895682F8091770286958F5FD1
:10386000853208F081E00C94D61B81E00C942B1C6F
:10387000682F9091770296958FEF890F913009F418
:1038800084E20C94D61B81E00C94381C61E00C940B
:10389000D61BE7E7F2E080818160808386950C94F7
:1038A000461C8091770280FD0C94961B0C94491C59
:1038B00060E00C94D61B80913F0281112EC00E94C3
:1038C000A00E811104C00E94450F0E94D6160E94CE
:1038D000BE1660937702709378028093790290937A
:1038E0007A026E7F61F40E94D6160E94BE16609323
:1038F0007702709378028093790290937A020E9403
:10390000AF16109241028091770280FF03C0869526
:103910000E94581C81E080933F0208950F931F93EB
:10392000CF93DF9380914102882309F48AC080916C
:103930004002E0917702E695E81BE0933B0282307B
:1039400091F5F0E0E054FF4FE491CE2FD0E00CE28F
:1039500018E180913C02882361F010923C020E94A1
:10396000F82290933A028093390210923E0210920C
:103970003D020E94F8222091390230913A02821BC6
:10398000930B8F3F9F4708F05CC02C0F3D1F309377
:103990003A022093390289E392E0F801DF91CF9156
:1039A0001F910F910994853109F43BC058F4893077
:1039B00021F18F3061F18630B9F0C0EDD7E00DE92B
:1039C00016E1C7CF833209F435C0C4EFD1E009E571
:1039D0001BE1843209F4BDCFC8E2D0E003EB1AE169
:1039E000883109F4B6CFE9CFF0E0E354FF4FE4911A
:1039F000CE2FD0E000E418E1ACCFE695F0E0E6543D
:103A0000FF4FE491CE2FD0E006E919E1A2CFE69571
:103A1000F0E0E954FF4FE491CE2FD0E001ED19E141
:103A200098CFF0E0EC54FF4FE491CE2FD0E004E4C7
:103A30001AE18FCFE2EBF0E0C591D49100E518E1F7
:103A400088CFDF91CF911F910F910895FA018111D5
:103A50000994FB01FDCFCF93DF93C82FD62F0E948F
:103A6000E6168C1740F00E94E6168D1720F4DF91C1
:103A7000CF910C94351C8C2FDF91CF910C94461C68
:103A80000F931F93CF938C01FB01C281CC2309F4C8
:103A900072C00E94DA0D8272073DFCE51F0770F4C8
:103AA000033C9CE5190778F0F801E45CFC45E33140
:103AB000F10570F4ED5BF44D0C94892AC1E00E35EC
:103AC0001D4509F4C0E08C2FCF911F910F910895EF
:103AD0000E94511CF7CF43E45CE165E37CE10E9466
:103AE000261DF0CF45E35CE163E47CE1F8CF41E5DE
:103AF00059E165E479E1F3CF45E459E161E579E124
:103B0000EECF4FE659E160E679E1E9CF40E659E1D1
:103B10006FE679E1E4CF4DE859E16EE779E1DFCF77
:103B20004EE759E16DE879E1DACF49E457E16AE11E
:103B300077E1D5CF4AE157E169E477E1D0CF81E081
:103B40000E94461CBFCF65E082E00E942B1DBACFC9
:103B500068E086E0FACF6EE089E0F7CF64E18FE0BD
:103B6000F4CF67E185E1F1CF88E1EACF62E289E154
:103B7000ECCF83E2E5CFC1E0A6CF86E090E00C94E5
:103B8000D62A682F86E090E00C94EA2AE2E8F2E078
:103B900080818470896180830C94C11D0E94A00E75
:103BA000811104C00E94450F0E94C61D0E94BD1DC8
:103BB00080938202803220F0877088618093820235
:103BC00090918202892F817090FF04C0892F869581
:103BD000869586950C94CE1E80918202982F96959C
:103BE00096959695883140F49F5F990F990F990F9C
:103BF0008770892B809382028091820281608093FA
:103C000082020E94C11D80918202869586958695CA
:103C10000C94CE1E80918202982F987F79F0885064
:103C200080938202887F91E009F490E08091820283
:103C300090FB80F9809382020E94C11D80918202D4
:103C40008695869586950C94CE1E8091820280FD85
:103C500013C0816080938202813019F489E08093DF
:103C60008202809182020E94C11D8091820286950B
:103C7000869586950C94CE1E08958091820280FFD1
:103C800008C08E7F809382020E94C11D80E00C9448
:103C9000CE1E08958091820280FD0C943D1E0C94EE
:103CA000251E90918202892F8695869586958F5F35
:103CB0008F719770843020F4880F880F880F982BAD
:103CC0009093820280918202887F91E009F490E0D3
:103CD0008091820290FB80F9809382020E94C11D34
:103CE000809182028695869586950C94CE1E8430AE
:103CF00008F083E0909182029770282F220F220F04
:103D0000220F922B90938202987F21E009F420E009
:103D10009091820220FB90F9909382020C94CE1E27
:103D20000E94771E809182020C94C11D9C01FB01B0
:103D30008281882361F12F3BFCE53F07F9F060F4B5
:103D40002D3BECE53E07A9F02E3BFCE53F0799F043
:103D50002C3B3C4549F00895203CECE53E0789F0BA
:103D6000213C3C4589F0089583E00E94901E80E04C
:103D7000089580E0FACF0E940A1EF9CF0E94EC1D40
:103D8000F6CF0E944A1EF3CF0E94511EF0CF81E071
:103D90000895269A2E9808952E980895CF93DF932C
:103DA000CDB7DEB728970FB6F894DEBF0FBECDBFF4
:103DB0008983843060F581112CC0809180008F7DD3
:103DC000809380000E94CC1E4981242F30E0AFEF09
:103DD000BFEF0E94972A23E030E040E050E00E94CD
:103DE000672AC9012C3764E13607C8F469E070E03E
:103DF0000E943F2A70938B0060938A0028960FB62A
:103E0000F894DEBF0FBECDBFDF91CF91089523E0C0
:103E1000298380918000806280938000D5CF2A50D2
:103E2000374D4F4F5F4FB42FA32F922F8827BC01E0
:103E3000CD0125EF38E241E050E00E94672A298356
:103E40003A834B835C83CA01B9010E942F2A9B01EC
:103E5000AC0169817A818B819C810E942F2ABB27CA
:103E6000A92F982F872FBC010097A140B10511F60B
:103E70006FEF7FEFBFCF08950E94C91E82E280934B
:103E8000800089E1809381008FEF9FEF90938700FE
:103E9000809386000C94CE1D9C01AB01219A65B1E4
:103EA0006D7F75B17260EFB7F894CA01880F991FE2
:103EB000840F951F820F931F8217930741F4EFBF62
:103EC0008FE594E00197F1F700C000000895D90153
:103ED0004D919D0158E075B9000000C047FF65B9DC
:103EE000440F000000C000C000C065B900C05A9572
:103EF00091F7E2CF0F931F93CF93DF93C42FD22F6D
:103F0000FC0182818823C9F0409345020E94F82277
:103F1000909344028093430280E28C0F883008F033
:103F200050C0C77081E001C0880FCA95EAF7DF91E1
:103F3000CF911F910F910C94BB0410914502141363
:103F400035C080914302909144020E942423883C12
:103F5000910560F5C0E2CD0F1D17B9F080E2810F29
:103F6000883040F4177081E001C0880F1A95EAF795
:103F70000E94C204C83048F481E09D2F977001C0B0
:103F8000880F9A95EAF70E94BB04802F0E94B30421
:103F9000C830B8F4D77081E001C0880FDA95EAF72D
:103FA000DF91CF911F910F910C94C20480E28C0F8E
:103FB000883038F4C77081E001C0880FCA95EAF7ED
:103FC000EFCFDF91CF911F910F9108950F939C0137
:103FD000CB01243F4CE53407A1F190F4293DFCE5E9
:103FE0003F0749F12A3D4CE53407E9F1283D3C45BE
:103FF000C1F0FC0182818823E1F11092450219C0D1
:10400000263FFCE53F0719F1273F4CE5340729F12E
:10401000253F3C4571F707E225EE44EE65EF7CE570
:1040200005C006E221EE41EE68ED7CE50E947A1FB4
:1040300080E00F91089507E225EE45EE69ED7CE5FD
:10404000F5CF06E221EE40EE64EF7CE5EFCF06E22D
:1040500021EE42EE66EF7CE5E9CF07E225EE46EE83
:1040600067EF7CE5E3CF08E221E045EE6AED7CE511
:10407000DDCF81E0DECFCF93DF93EC01FB018281C6
:10408000882309F4DFC0C430FDE5DF0710F5CB3F1E
:104090009CE5D90730F49E0122503C45243131057E
:1040A000E0F40E94B30E9093740280937302C631C1
:1040B000FCE5DF0710F5C2308CE5D80788F4809165
:1040C0007302909174020E94C10E0E94740780E0F6
:1040D00004C0C236EDE5DE0721F3DF91CF910895EC
:1040E000FE01E350FC45809173028160E331F105EC
:1040F00018F5EA5AF44D0C94892AC4309DE5D90785
:1041000070F4CB3FECE5DE07D0F2FE01EC5FFC453E
:10411000E830F105E0F4E759F44D0C94892AC236F1
:10412000DD4569F690917302892F8F7E94FF80613F
:1041300003C080917302826080937302C0CF80912C
:1041400073028460F9CF809173028860F5CF80910B
:104150007402816080937402B2CF80917402826095
:10416000F9CF809173028061E7CF80917302806202
:10417000E3CF809173028064DFCF0E947407809147
:1041800073028068D9CF809173028C60D5CF809103
:1041900074028360DFCF809173028E7FCDCF8091D8
:1041A00073028D7FC9CF809173028B7FC5CF8091C1
:1041B0007302877FC1CF809174028E7FCBCF8091B5
:1041C00074028D7FC7CF809173028F7EB5CF8091AF
:1041D00073028F7DB1CF809173028F7BADCF0E9430
:1041E0007407809173028F77A7CF80917302837FCA
:1041F000A3CF809174028C7FADCF8091730282FB3C
:10420000992790F921E0922790FB82F990FB83F99E
:1042100093CF80917402982F909591708E7F892B07
:1042200090FB81F997CF0E94740790917302892FB8
:1042300097FB87F9805880CF81E00E94470F3FCFDE
:1042400080E0FBCF81E049CFCF93DF93EB01863154
:104250009C4511F50E94DA0D9A81992399F08A7A8A
:1042600091E009F490E090934602811109C089E23F
:104270000E94940D0E942D0E80E0DF91CF91089551
:1042800085E3F6CF80914602811104C089E20E9445
:104290009B0DF0CF85E3FBCF81E0EFCF90934C02F5
:1042A00080934B020895E0914B02F0914C023097BD
:1042B00021F00190F081E02D099480E00895DC0167
:1042C000E0914B02F0914C02309799F080912701D8
:1042D000882351F08091730287FF06C08C9111965C
:1042E0008C93119785E08C930280F381E02DCD01B2
:1042F00009940895DC01E0914B02F0914C02309753
:1043000039F082E08C930480F581E02DCD01099491
:1043100008952091490230914A022817390771F017
:1043200090934A0280934902E0914B02F0914C0233
:10433000309721F00680F781E02D099408952091AF
:104340004702309148022817390771F090934802CC
:1043500080934702E0914B02F0914C02309721F09C
:104360000084F185E02D09940895FC013296809136
:104370002701882321F0809173029EE187FF96E058
:1043800080E0915008F4089521912223D1F38F5FAA
:10439000F8CF9C01662301F1809127018823F1F079
:1043A0008091730287FF1AC0462F46954695469521
:1043B000603F90F4677081E090E002C0880F991F21
:1043C0006A95E2F7240F311DF901228130E028239C
:1043D000392381E0232B71F480E00895F9013296AE
:1043E000285F3F4F8191861721F0E217F307D1F73D
:1043F000F3CF81E008959C01FC0132968FEF90E0AD
:104400004191461751F08F3F19F4411101C0892F96
:104410009F5F9630A9F78F3F09F40895280F311D4B
:1044200087FD3A95F901628308959C01FC0132965B
:10443000285F3F4F8191861303C0DF0111971C92C3
:10444000E217F307B9F70895FC01862F8695869544
:104450008695603F60F4E80FF11D677021E030E061
:1044600001C0220F6A95EAF78281822B8283089528
:10447000FC01862F869586958695603F68F4E80F47
:10448000F11D677081E090E001C0880F6A95EAF73E
:104490008095928189238283089520912701222388
:1044A00029F02091730227FD0C9424220C94FB2107
:1044B00020912701222329F02091730227FD0C94DB
:1044C00038220C941522FC01329680912701882312
:1044D00051F08091730287FF06C08EE1DF011D92CB
:1044E0008A95E9F7089586E0F9CF0895089508952B
:1044F0000C94772280918B02843061F10E947822A3
:1045000080E00E94CE1E80E00E94630310924D0264
:1045100088E190E020E40FB6F894A89580936000BD
:104520000FBE2093600083B7817F846083BF83B711
:10453000816083BF7894889583B78E7F83BF0FB6E1
:10454000F894A89580916000886180936000109233
:1045500060000FBE089508950E9476220E940713FE
:104560000E94AB2280E00E947512982F81E0911189
:1045700001C080E0089508950C94BB220E94740746
:104580000E94CE1D0E9453210E9463030C94BC2202
:104590001F921FB61F9211248F939F93AF93BF93C7
:1045A00080914D02811113C0809183029091840209
:1045B000A0918502B09186024196A11DB11D809304
:1045C000830290938402A0938502B0938602BF91E8
:1045D000AF919F918F911F901FBE1F90189582E001
:1045E00084BD93E095BD9AEF97BD80936E000895CA
:1045F0002FB7F8948091830290918402A091850254
:10460000B09186022FBF0895CF93DF9300D000D0E2
:10461000CDB7DEB78FB7F894209183023091840232
:10462000409185025091860229833A834B835C83B3
:104630008FBF69817A818B819C810F900F900F9041
:104640000F90DF91CF9108959C014FB7F89480911E
:10465000830290918402A0918502B09186024FBF9F
:10466000821B930B089578941F921FB61F921124FA
:104670008F939F93AF93BF93809183029091840215
:10468000A0918502B09186020196A11DB11D809373
:10469000830290938402A0938502B0938602BF9117
:1046A000AF919F918F911F901FBE1F90189581E031
:1046B0008093E00080E28093D8001092C9008FE1DF
:1046C0009EE40197F1F700C0000087E090EBDC0169
:1046D0008093940290939502A0939602B0939702D0
:1046E00088E19CE00FB6F894A895809360000FBE17
:1046F00090936000FFCF9093AD018093AC0108953B
:1047000080917102089590918B02943031F58093DD
:104710004E0260934F027093500282E08093E90052
:104720008FEF9091E800815095FD06C095ED9A9528
:10473000F1F700008111F5CF8091E80085FF0DC0F1
:1047400050E040E063E070E08EE492E00E94A42537
:104750008091E8008E778093E8000895BC0184E0A2
:104760000C948323BC0183E00C94832322E02093E8
:10477000E9002FEF3091E800215035FD06C035EDFE
:104780003A95F1F700002111F5CF2091E80025FFBF
:104790000BC050E040E066E070E00E94A4258091EC
:1047A000E8008E778093E8000895CF93DF93D82FA9
:1047B000C92F809127018823C1F18091730287FF5F
:1047C00034C060E282E08093E9008FEF9091E800CE
:1047D000815095FD06C095ED9A95F1F70000811185
:1047E000F5CF8091E80085FF1DC08091270170E022
:1047F00050E040E0811104C050E040E068E070E02B
:104800008D2F9C2F0E94A4258091E8008E778093A5
:10481000E80080E2ED2FFC2FA1E5B2E001900D92BF
:104820008A95E1F7DF91CF91089568E081E0CBCFE1
:1048300080918A02811109C00E942C270E94892739
:104840008091E20084608093E200089510928A02D1
:10485000089508950895089542E061EC81E00E9472
:10486000A82642E261EC82E00C94A82680918D0299
:10487000893089F148F4823009F49DC0833009F40D
:1048800058C0813041F008958A3009F484C08B30DB
:1048900009F46AC0089580918C02813A09F048C0F9
:1048A0008091E800877F8093E8008091900290914A
:1048B0009102892B61F460E281E592E070E00E9450
:1048C000F3258091E8008B778093E800089560E0FD
:1048D00090E080E0F3CF80918C02813249F58091A5
:1048E000900290919102029718F58091E800877FDD
:1048F0008093E8008091E80082FF16C09091F30059
:104900008091F200029729F48091F1008B7F813031
:1049100021F48091F100809371028091E8008B77FF
:104920008093E8000C94DC2680918B028111E2CF09
:10493000089580918C02813AD9F7809190029091EC
:104940009102892BA9F78091E800877F8093E80086
:104950008091E80080FFFCCF809127018093F100D7
:104960008091E8008E77DCCF80918C02813201F754
:104970008091900290919102892BD1F68091E8006C
:10498000877F8093E8000E94DC2680918E028093CE
:1049900027010C94740780918C02813249F6809132
:1049A000E800877F8093E8000E94DC2680918F02D8
:1049B00080937202089580918C02813A09F0B8CFF9
:1049C0008091E800877F8093E8008091E80080FF75
:1049D000FCCF80917202C2CF84B7877F84BF0FB6AD
:1049E000F894A8958091600088618093600010928F
:1049F00060000FBE80E890E00FB6F89480936100ED
:104A0000909361000FBE0C946D0F0E942C270E94A2
:104A10008927E2EEF0E080818460808378940E94B0
:104A2000152A0E94810F8DE191E00C944E21809116
:104A30008B02853031F480918B02853021F00E9409
:104A4000BE220C948B0F0E947A22809189028823C7
:104A500091F30E94AC22882371F30E948E250E945C
:104A60007407E9CF0C943425FC01CB01DA012F2F18
:104A7000332723303105D1F070F42130310509F4AA
:104A80003EC02230310569F48BE390E029EF32E03B
:104A90002D933C93089521323105E9F022323105FE
:104AA00021F190E080E030E020E0F2CFCF019927C3
:104AB000E13059F08230910559F0E5EFF2E0892BB1
:104AC00081F7849190E09F01E3CFEDEDF2E0F9CF23
:104AD000E9ECF2E0F6CF892BB9F06130710509F706
:104AE00089E090E024E233E0D3CF892B91F061306C
:104AF0007105B9F686EB90E026E433E0C9CF82E198
:104B000090E024E333E0C4CF89E090E02BE033E091
:104B1000BFCF80E490E02CEF33E0BACF80E189BDD5
:104B200082E189BD09B400FEFDCF8091D8008F7D60
:104B30008093D8008091E00082608093E0008091B3
:104B4000E00081FDFCCF0895AF92BF92CF92DF923B
:104B5000FF920F931F93CF93DF936C01EB018A01B8
:104B60000E94FB26F82E811123C00115110539F092
:104B7000F80180819181C81BD90BC80ED91EB12CB8
:104B8000A12C2097A9F08091E80085FD22C080919A
:104B9000E8008E778093E80001151105A1F0F80177
:104BA000808191818A0D9B1D9183808385E0F82E01
:104BB0008F2DDF91CF911F910F91FF90DF90CF90BC
:104BC000BF90AF9008950E94FB268823D1F2F82E63
:104BD000EFCFF60181916F018093F1002197FFEFF4
:104BE000AF1ABF0ACECFFC01CB01209192023091C7
:104BF00093022617370790F0009729F42091E800D8
:104C00002E772093E80040E0009751F4411108C04E
:104C10008091E80082FF31C080E00895C901F3CFA0
:104C200020918B022223A9F12530A9F12091E800DF
:104C300023FD2DC02091E80022FDEACF2091E8005D
:104C400020FFE2CF3091F3002091F200009719F09D
:104C50002830310558F041E02830310509F040E0B6
:104C60002091E8002E772093E800CECF4191409329
:104C7000F10001972F5F3F4FE9CF80918B0288238E
:104C800041F0853041F08091E80083FFC1CF81E0A1
:104C9000089582E0089583E00895FC01CB012091FE
:104CA0009202309193022617370790F0009729F46B
:104CB0002091E8002E772093E80040E0009751F41F
:104CC000411108C08091E80082FF32C080E0089561
:104CD000C901F3CF20918B022223B1F12530B1F12C
:104CE0002091E80023FD2EC02091E80022FDEACFAC
:104CF0002091E80020FFE2CF3091F3002091F200F4
:104D0000009719F02830310558F041E0283031057E
:104D100009F040E02091E8002E772093E800CECF04
:104D200044914093F100319601972F5F3F4FE8CFB8
:104D300080918B02882341F0853041F08091E8001A
:104D400083FFC0CF81E0089582E0089583E0089555
:104D5000982F973028F08F708093E90081E00895B4
:104D60009093E900242F762F50E0981731F070913E
:104D7000EC002091ED005091F00021FD02C09F5FFA
:104D8000E8CF3091EB003E7F3093EB003091ED00A7
:104D90003D7F3093ED003091EB0031603093EB00BC
:104DA0007093EC002093ED005093F0002091EE0002
:104DB00027FDE5CF80E0089580918C0287FF13C026
:104DC0008091E80082FF06C08091E8008B77809395
:104DD000E80004C080918B028111F2CF0895809188
:104DE0008B028823D9F38091E80080FFF8CF80916F
:104DF000E8008E77ECCF2091E4003091E50095E655
:104E0000A9012091EC00822F817020FF06C08091C3
:104E1000E80080FF06C080E008952091E80022FDB0
:104E20001AC080918B02882389F0853089F08091A7
:104E3000EB0085FD0FC02091E4003091E5004217A2
:104E40005307F9F29150E1F684E0089582E0089565
:104E500083E0089581E008950E949A270E94A22786
:104E6000E0EEF0E0808181608083E8EDF0E0808119
:104E70008F77808319BCA7EDB0E08C918E7F8C93E7
:104E800080818F7E808310928A0208950F931F93F2
:104E9000CF93DF930E949A270E94A227C8EDD0E00B
:104EA00088818F77888388818068888388818F7DD7
:104EB000888319BC10928B0210928702109289028B
:104EC0001092880200EE10E0F80180818B7F8083D1
:104ED00088818160888342E060E080E00E94A826AB
:104EE000E1EEF0E080818E7F8083E2EEF0E0808171
:104EF00081608083808188608083F80180818E7FDB
:104F00008083888180618883DF91CF911F910F9189
:104F10000895E8EDF0E080818F7E8083E7EDF0E09A
:104F200080818160808384E082BF81E080938A02F7
:104F30000C944627E8EDF0E080818E7F808310920C
:104F4000E20008951092DA001092E10008951F9295
:104F50000F920FB60F9211242F933F934F935F93AD
:104F60006F937F938F939F93AF93BF93EF93FF9331
:104F70008091E10082FF0BC08091E20082FF07C0B8
:104F80008091E1008B7F8093E1000E94142A809140
:104F9000DA0080FF19C08091D80080FF15C0809191
:104FA000DA008E7F8093DA008091D90080FF94C070
:104FB00080E189BD82E189BD09B400FEFDCF81E0B9
:104FC00080938B020E9418248091E10080FF19C019
:104FD0008091E20080FF15C08091E2008E7F809377
:104FE000E2008091E20080618093E2008091D8002D
:104FF00080628093D80019BC85E080938B020E9468
:105000002A248091E10084FF29C08091E20084FF7E
:1050100025C080E189BD82E189BD09B400FEFDCFD4
:105020008091D8008F7D8093D8008091E1008F7EA1
:105030008093E1008091E2008F7E8093E200809176
:10504000E20081608093E20080918702882309F466
:1050500049C084E080938B020E942B248091E10060
:1050600083FF29C08091E20083FF25C08091E10089
:10507000877F8093E10082E080938B021092870209
:105080008091E1008E7F8093E1008091E2008E7F2D
:105090008093E2008091E20080618093E20042E030
:1050A00060E080E00E94A8268091F00088608093F4
:1050B000F0000E942924FF91EF91BF91AF919F9141
:1050C0008F917F916F915F914F913F912F910F90B1
:1050D0000FBE0F901F90189519BC10928B020E9462
:1050E000262472CF8091E30087FD02C081E0B2CF19
:1050F00083E0B0CF1F920F920FB60F921124FF9250
:105100000F931F932F933F934F935F936F937F93CF
:105110008F939F93AF93BF93CF93DF93EF93FF93BF
:1051200009EE10E0F8018081C091EC00C795CC2712
:10513000C7958F70FC2EF82A1082C0EFD0E08881CE
:10514000877F888378940E94C328F8011082888121
:1051500088608883CF2DCF70C083FF91EF91DF915E
:10516000CF91BF91AF919F918F917F916F915F91FF
:105170004F913F912F911F910F91FF900F900FBE74
:105180000F901F9018951F93CF93DF93CDB7DEB785
:10519000AA970FB6F894DEBF0FBECDBF8CE892E0A1
:1051A000FC0101962091F100208322E084399207CE
:1051B000B9F70E9436248091E80083FF1DC18091D9
:1051C0008C0290918D029A3008F016C1E92FF0E020
:1051D000EF58F44D0C94892A803899F0823809F000
:1051E0000BC1809190028F70873008F005C18093C9
:1051F000E9008091EB0085FB882780F91092E90097
:1052000006C08091880290918902911182609091EC
:10521000E800977F9093E8008093F1001092F100EE
:105220008091E8008E77E4C0882309F4D2C08230F0
:1052300009F0E2C080918E028111D5C08091900268
:105240008F702FEF280F263008F0D6C08093E9002A
:105250002091EB0020FFC7C0933031F48091EB0028
:1052600080628093EB00BFC09091EB0090619093BF
:10527000EB0021E030E001C0220F8A95EAF720938D
:10528000EA001092EA008091EB008860EACF811179
:10529000B3C010918E021F778091E3008078812B3C
:1052A0008093E3008091E800877F8093E8000E946C
:1052B000DC268091E80080FFFCCF8091E3008068CD
:1052C0008093E30082E0111183E080938B0294C00D
:1052D0008058823008F090C080918E0290918F02A9
:1052E0008C3D23E0920799F583E08A838AE28983E3
:1052F0004FB7F894DE01139620E03EE051E2E32F31
:10530000F0E050935700849120FF03C082958F7086
:105310003F5F8F708A30C8F0895C90E08D939D93D9
:105320002F5F243161F74FBF8091E800877F809322
:10533000E8006AE270E0CE0101960E94F3258091B8
:10534000E8008B778093E80057C0805DE6CF6091DE
:10535000900270919102AE014F5F5F4F0E94322523
:10536000BC01892B09F448C08091E800877F8093B5
:10537000E80089819A810E944D26E1CF8038E1F5CD
:105380008091E800877F8093E80080918702809376
:10539000F10046CF811130C090918E02923060F5BD
:1053A0008091E800877F8093E800909387020E94B5
:1053B000DC2680918702882311F084E005C080916B
:1053C000E30087FDFACF81E080938B020E942C24BA
:1053D00013C080918E02813079F481E0933009F01E
:1053E00080E0809389021092E9008091E800877F35
:1053F0008093E8000E94DC268091E80083FF0AC0C9
:105400008091E800877F8093E8008091EB008062C4
:105410008093EB00AA960FB6F894DEBF0FBECDBF07
:10542000DF91CF911F9108950895CF9380918B02C2
:10543000882399F08091E900C091EC00C795CC27B2
:10544000C7958F70C82B1092E9008091E80083FD0A
:105450000E94C328CF70C093E900CF910895DB016B
:105460008F939F930E94AD2ABF91AF91A29F800D11
:10547000911DA39F900DB29F900D11240895AA1B1A
:10548000BB1B51E107C0AA1FBB1FA617B70710F02F
:10549000A61BB70B881F991F5A95A9F78095909561
:1054A000BC01CD01089597FB072E16F4009407D098
:1054B00077FD09D00E943F2A07FC05D03EF4909565
:1054C00081959F4F0895709561957F4F0895A1E252
:1054D0001A2EAA1BBB1BFD010DC0AA1FBB1FEE1F6E
:1054E000FF1FA217B307E407F50720F0A21BB30BB9
:1054F000E40BF50B661F771F881F991F1A9469F735
:1055000060957095809590959B01AC01BD01CF0190
:105510000895EE0FFF1F0590F491E02D09940E946D
:10552000972A332312F48A1B9B0B0C94A82AA29F60
:10553000B001B39FC001A39F700D811D1124911D67
:10554000B29F700D811D1124911D08950E94972A0C
:10555000B7FF0895821B930B08950E94972AA59F79
:10556000900DB49F900DA49F800D911D112408955E
:10557000B7FF0C94AD2A0E94AD2A821B930B0895AD
:10558000FB01DC0102C005900D9241505040D8F75C
:105590000895FC014150504030F001900616D1F7BB
:1055A0003197CF010895882799270895F999FECF5B
:1055B00092BD81BDF89A992780B50895A6E1B0E023
:1055C00044E050E00C94102BA8E1B0E042E050E041
:1055D0000C94102B262FF999FECF92BD81BDF89A1D
:1055E000019700B4021639F01FBA20BD0FB6F89427
:1055F000FA9AF99A0FBE08950396272F0E94EB2A74
:105600000E94EA2A252F0E94EB2A242F0C94EB2AD1
:105610000196272F0E94EB2A0C94EA2ADC01CB0189
:10562000FC01F999FECF06C0F2BDE1BDF89A3196B2
:1056300000B40D9241505040B8F70895F894FFCF50
:105640000305030565056505BA05D605330533056C
:10565000E1058D069E069E06FF0633053305080705
:1056600005140B140E1414142914291429142914C4
:10567000291429142914291417141C14201426146D
:1056800037143D1441146B1D721D771D7C1D811D47
:10569000861D8B1D901D951D9A1D9F1DA31DA81D68
:1056A000AB1DAE1DB11DB41DB61DB91D99209F20A7
:1056B000A320B120B520B920BD20C320CB20CF200E
:1056C000D320D720E320E720EB20EF20F520132183
:1056D000FD20AD20DB20DF20C720F92009211C217F
:1056E0002021EC281429FC291429FC2947296829A0
:0656F000FC29BE29CA29B5
:1056F600F6012808641E140A321E01010200020087
:10570600020201191A1B1C1D1E1F2021228023D5EF
:1057160023B623B223AE2301E200E900EA00B50076
:10572600B600B700CD008301CC008A019201940136
:105736002102230224022502260227022A02B3009E
:10574600B4006F007000E200E900EA00B500B600A0
:10575600B700CD008301CC008A0192019401210299
:10576600230224022502260227022A02B300B400DD
:105776006F00700092919000010202020206060676
:105786000909090909090F0F0F0F0F0F151515182C
:0C579600191919191919191919192324C6
:00000001FF
