:100000000C9476020C94BD020C94BD020C94BD02BB
:100010000C94BD020C94BD020C94BD020C94BD0264
:100020000C94BD020C94BD020C9446290C94192A20
:100030000C9467240C94BD020C94BD020C94BD0278
:100040000C94BD020C94BD020C94BD020C94BD0234
:100050000C94BD020C94D2240C94BD020C94BD02ED
:100060000C94BD020C94BD020C94BD020C94BD0214
:100070000C94BD020C94BD020C94BD020C94BD0204
:100080000C94BD020C94BD020C94BD020C94BD02F4
:100090000C94BD020C94BD020C94BD020C94BD02E4
:1000A0000C94BD020C94BD020C94BD021E001F00F6
:1000B000200000000000000000002A2B28000000A3
:1000C0000000000000000000000000000029000007
:1000D00000002C1E3420212224342627252E362DE4
:1000E0003738271E1F202122232425263333362E7E
:1000F00037381F0405060708090A0B0C0D0E0F10F0
:100100001112131415161718191A1B1C1D2F313034
:10011000232D350405060708090A0B0C0D0E0F10D8
:100120001112131415161718191A1B1C1D2F313014
:10013000354C00000000000000000000000000003E
:1001400000000000000000000000000000000000AF
:100150000000000000007E0F00D4FFFFFFC700007A
:10016000007800047F3F1F643214643214783C1E10
:100170001E140A052223252628292A2C2D2F303249
:10018000333536383A3B3D3E4042434547494A4C79
:100190004E5051535557595A5C5E606264666869A7
:1001A0006B6D6F71737577797B7D7F8183858789AF
:1001B0008A8C8E90929496989A9C9E9FA1A3A5A7B4
:1001C000A8AAACAEAFB1B3B4B6B8B9BBBCBEBFC1E0
:1001D000C2C3C5C6C7C9CACBCCCDCED0D1D2D2D36B
:1001E000D4D5D6D7D7D8D9D9DADADBDBDBDCDCDC7F
:1001F000DCDCDDDDDDDDDCDCDCDCDCDBDBDBDADA42
:10020000D9D9D8D7D7D6D5D4D3D2D2D1D0CECDCCB8
:10021000CBCAC9C7C6C5C3C2C1BFBEBCBBB9B8B6CD
:10022000B4B3B1AFAEACAAA8A7A5A3A19F9E9C9A58
:1002300098969492908E8C8A89878583817F7D7B26
:1002400079777573716F6D6B6968666462605E5C07
:100250005A5957555351504E4C4A494745434240CD
:100260003E3D3B3A3836353332302F2D2C2A292863
:1002700026252322FFAA7F5540000101010101012B
:10028000010101020202020202020202030303034D
:10029000030303030404040404040405050505051D
:1002A00006060606060707070707080808080909DB
:1002B00009090A0A0A0B0B0B0C0C0C0D0D0D0E0E86
:1002C0000E0F0F0F10101111111212131314141519
:1002D0001516161717181819191A1A1B1B1C1D1D8D
:1002E0001E1E1F20202122222324242526262728E3
:1002F00029292A2B2C2D2D2E2F3031323233343513
:10030000363738393A3B3C3D3E3F40414243444515
:10031000464748494A4C4D4E4F50515354555658F4
:10032000595A5B5D5E5F616264656668696B6C6D9E
:100330006F7072737577787A7B7D7E808283858714
:10034000888A8C8E8F91939596989A9C9EA0A2A352
:10035000A5A7A9ABADAFB1B3B5B7BABCBEC0C2C457
:10036000C6C9CBCDCFD1D4D6D8DBDDDFE2E4E7E917
:10037000EBEEF0F3F5F8FAFDFF12036B0065007980
:100380000062006F006100720064000000160371DB
:10039000006D006B006200750069006C0064006510
:1003A00000720000000403090409023B000201007E
:1003B000A0FA090400000103010100092111010054
:1003C000012240000705810308000A090401000119
:1003D0000300000009211101000122B60007058277
:1003E0000320000A1201000200000008EDFE606018
:1003F00001000102000105010902A10185020901B4
:10040000A1000509190129081500250195087501A4
:1004100081020501093009311581257F9502750892
:10042000810609381581257F950175088106050C1F
:100430000A38021581257F950175088106C0C0051F
:10044000010980A101850319012AB700150126B70A
:1004500000950175108100C0050C0901A1018504FA
:1004600019012AA002150126A0029501751081002C
:10047000C005010906A1018505050719E029E71551
:100480000025019508750181020507190029EF155E
:1004900000250195F07501810205081901290595CE
:1004A0000575019102950175039101C005010906C9
:1004B000A101050719E029E7150025019508750137
:1004C00081029501750881010507190029FF1500B2
:1004D00026FF009506750881000508190129059574
:1004E0000575019102950175039101C011241FBE8C
:1004F000CFEFDAE0DEBFCDBF04B603FE27C08091A8
:100500009A0290919B02A0919C02B0919D0287302B
:10051000904BA740B04BD1F410929A0210929B02DC
:1005200010929C0210929D0214BE84B7877F84BFF4
:100530000FB6F894A8958091600088618093600060
:10054000109260000FBEE0E0F8E3099511E0A0E032
:10055000B1E0E6EDFFE502C005900D92A03BB107CA
:10056000D9F722E0A0EBB1E001C01D92AA39B20791
:10057000E1F70E940D150C948E2F0C94000090E072
:1005800080E00895089508950F931F93CF93DF930C
:1005900000D0CDB7DEB78B01FB018081813041F106
:1005A000823069F1811108C082818823E9F04FEF20
:1005B0006FEF89EA0E942F1BF8019081913031F191
:1005C0008091B201923009F470C0911142C09281C1
:1005D00091113FC09091B301990F9F5F9093B30128
:1005E0008F5F8093B20135C04FEF6FEF82E1E2CFB2
:1005F00082818823C9F34FEF6FEF85E5DBCF8281DE
:10060000882391F34FEF6FEF80E0D4CF8281811187
:1006100020C080E290E09A8389838091B3011F9289
:100620008F9388E291E09F938F938E010F5F1F4F0E
:100630001F930F930E94752CC8010E94F70410921B
:10064000B3011092B2010F900F900F900F900F9086
:100650000F908091B201883000F180E290E09A839F
:1006600089838091B3011F928F9388E291E09F93D9
:100670008F938E010F5F1F4F1F930F930E94752C56
:10068000C8010E94F7041092B3011092B2010F90BA
:100690000F900F900F900F900F9080E00F900F90A1
:1006A000DF91CF911F910F91089592819111D1CF38
:1006B0009091B301990F92CF81E008950C94C402F8
:1006C00008950C9460031F93CF93DF9300D000D064
:1006D0000F92CDB7DEB749835A836B833091B40153
:1006E00089819A8131111DC06623B9F02223A9F0B6
:1006F0000E948F0B182F682F89819A810E943A0BD4
:1007000069817A81812F0F900F900F900F900F9039
:10071000DF91CF911F910C94AF110E94670B182F9E
:10072000EFCF0E948F0B69817A81EDCFFC01262FDC
:10073000408151816281738184810C94630381E0E3
:100740000895CF93DF93D82FC92F60E00E949603BE
:100750006D2F7C2FDF91CF910C9461030E94D813F1
:100760000E9401050E94DB200C9410140C941214BA
:1007700008950E9413090E94B8032FEF84E39CE0C0
:10078000215080409040E1F700C000000C94F62416
:100790000F931F93CF93DF938C0161E00E94960328
:1007A000EC01B8010E945E03882309F441C0B8013E
:1007B000CE010E9435208823D9F1B801CE010E94D4
:1007C00085218823A9F1B801CE010E94DA2188236E
:1007D00079F1B801CE010E94C322882349F1B80102
:1007E000CE010E94DF1E882319F1F801828188233F
:1007F00061F0CB35FDE5DF0721F170F4C115ECE5C3
:10080000DE07A1F0CF3DDC45C9F0C801DF91CF91F3
:100810001F910F910C945C03CC358DE5D807A1F0A6
:10082000CD35DD4591F70E946A0FEFCF0E94B903E5
:1008300080E0DF91CF911F910F9108950E94E41005
:10084000F7CF0E94730FE1CF0E94760FDECFDF92C9
:10085000EF92FF920F931F93CF93DF93E82FF0E077
:10086000EE54FF4FD490282F26952695269530E0FC
:10087000F901EE5AFE4F0491877010E0082E02C075
:10088000159507950A94E2F701701127F901EE5BBF
:10089000FE4FE490F12C082E02C0F594E7940A94E0
:1008A000E2F791E0E922FF24F901EE5CFE4FC491EA
:1008B000D0E002C0D595C7958A95E2F7C170DD27D3
:1008C0000115110519F081EE0E945405E114F1049F
:1008D00019F086EE0E9454058D2D0E945206EF28D5
:1008E00019F086EE0E94E505012B19F081EE0E94B9
:1008F000E505CD2B51F08CE2DF91CF911F910F9147
:10090000FF90EF90DF900C945206DF91CF911F91F2
:100910000F91FF90EF90DF900895EF92FF920F9369
:100920001F93CF93DF93EC01162F0AE08881882371
:1009300009F456C0813009F050C089818130A1F49A
:100940007E0182E0E80EF11C8A810E945206E701D6
:100950002196812F882351F3EFE9FFE03197F1F7DA
:1009600000C000008150F6CF823041F47E01E2E009
:10097000EE0EF11C8A810E945405E9CF833041F4C8
:100980007E01F2E0EF0EF11C8A810E94E505DFCFC7
:10099000843011F02196DCCF2A81229680E090E00D
:1009A000AE014F5F5F4F2053330B2A30310550F0BB
:1009B000009771F2EFE9FFE03197F1F700C0000016
:1009C0000197F6CF089FB001099F700D1124C9014E
:1009D000860F971F2981EA01E3CF0E942704B8CF31
:1009E000DF91CF911F910F91FF90EF90089560E0FC
:1009F0000C948D0408950C94FA0481E008950C94ED
:100A0000FD040895CF93C82F0E94FB048C2FCF9133
:100A10000C94FF04EF92FF920F931F93CF93DF93F9
:100A2000CDB7DEB72B970FB6F894DEBF0FBECDBFA4
:100A3000042F4F83152F588769877A878B87EA841D
:100A4000FB8461110E949B0F1E8285E0FE01379698
:100A5000DE01119601900D928A95E1F7EF28A9F435
:100A600049815A816B817C818D819E810E94990E82
:100A70002B960FB6F894DEBF0FBECDBFDF91CF919E
:100A80001F910F91FF90EF90089510231F3F41F3A6
:100A9000CE0101960E949F038111E2CFE9CFFC01B4
:100AA000808191810C94D10BCF93C82F882309F4B6
:100AB0008AC08238C1F40E94F22281FD84C089E399
:100AC0000E94330F0E94CC0F2FEF31EE84E02150B3
:100AD00030408040E1F700C0000089E30E943A0FF7
:100AE000CF910C94CC0F8338A1F40E94F22280FDA8
:100AF0006AC083E50E94330F0E94CC0F9FEF21EE66
:100B000034E0915020403040E1F700C0000083E520
:100B1000E5CF8438A1F40E94F22282FD54C087E41C
:100B20000E94330F0E94CC0F8FEF91EE24E0815092
:100B300090402040E1F700C0000087E4CFCF8CEF69
:100B40008C0F813A90F46C2F8091000190910101FB
:100B50000E946823882329F08C2F0E943A0F0E945C
:100B6000CC0F8C2F0E94330FBBCF80E28C0F8830CC
:100B700048F4C77081E001C0880FCA95EAF70E9467
:100B80007C0FAECF8BE58C0F833038F42C2F2452A2
:100B9000330BC901CF910C942823E8E5EC0FE73122
:100BA00050F4F0E0EE0FFF1FE55DFE4F8081918174
:100BB000CF910C943E23CD3E30F08C2F0E949B159C
:100BC000CF910C945D16CF910895882309F452C0FB
:100BD000823871F40E94F22281FF4CC089E30E94A6
:100BE000330F0E94CC0F89E30E943A0F0C94CC0F74
:100BF000833859F40E94F22280FF3CC083E50E94B2
:100C0000330F0E94CC0F83E5EFCF843859F40E9454
:100C1000F22282FF2FC087E40E94330F0E94CC0F84
:100C200087E4E2CF9CEF980F913AF0F290E2980FB0
:100C3000983050F4877091E001C0990F8A95EAF7D7
:100C4000892F0E94820FD2CF9BE5980F933020F41A
:100C500090E080E00C94282398E5980F973120F4D9
:100C600090E080E00C943E238D3E20F00E94E4153D
:100C70000C945D1608951F93CF93DF93182FEB010B
:100C80000E945405209731F4812FDF91CF911F915D
:100C90000C94E5058FE99FE00197F1F700C0000093
:100CA0002197F0CF70E060E0893311F460E570E0E7
:100CB0000C943B06882321F00E947C0F0C94CC0FEF
:100CC0000895882321F00E94820F0C94CC0F089580
:100CD000AF92BF92CF92DF92EF92FF920F931F934A
:100CE000CF93DF9300D000D00F92CDB7DEB76C0169
:100CF0006D837983FC011281058102950F700E943A
:100D0000510FE82E8823A1F0E12E112389F089816B
:100D1000807F803429F08D81805EE12C883040F026
:100D200082E00E941D100E94510F91E0E82EE926FA
:100D3000A980A2949FE0A922B12CF501E057F04DC3
:100D40000C94282C09810F70F981F07F11F0029525
:100D5000007F1123B1F0002361F08D81805E883027
:100D600018F01D81111109C0802F0E947C0F0E9474
:100D7000CC0F8D810E94540515C0802F0E948D0FCD
:100D8000F6CF8D810E94E505002361F08D81805EA4
:100D9000883018F01D81111133C0802F0E94820FFE
:100DA0000E94CC0F98E0A91AB108E4E0AE16B10495
:100DB00020F40E94F2220E940205EE2009F4CEC126
:100DC0000E944D0F80FDCAC1F60112820E94470F9A
:100DD0000E942A0AC6010E94D5080E94470F0F9060
:100DE0000F900F900F900F90DF91CF911F910F9167
:100DF000FF90EF90DF90CF90BF90AF900C945B0A84
:100E0000802F0E94930FCCCF29812F70F22E398131
:100E1000307F303219F0F29480EFF8228D818823F0
:100E200069F0813049F1112391F1002351F1F6016C
:100E3000858180FF9ECF8F70858323C0112381F031
:100E4000011106C00E94AF0F8F290E945A06AACF37
:100E50000130C1F70E94AF0F8F290E94B50FA2CFBA
:100E6000011106C00E94C20F8F2D0E9461069ACF09
:100E7000013009F497CFF6CF112329F0063008F09E
:100E800091CF8F2DE2CF053008F08CCFEDCF00232E
:100E900059F30D81093349F41FEF27EE33E0115068
:100EA00020403040E1F700C000008D810E94E50540
:100EB00079CF898186958695837069F0813009F0B4
:100EC00071CF8D8199819370111102C090E080E003
:100ED0000E943E2367CF8D8199819370111102C0CA
:100EE00090E080E00E9428235DCF8D81112329F0BE
:100EF0000E949B150E945D1655CF0E94E415FACF03
:100F00008981837009F050C011114CCF2D81229539
:100F100026952770220F220F4D814F7050E070E010
:100F200060E0022E04C0440F551F661F771F0A940D
:100F3000D2F70D8180E090E0DC0104FF0FC08FE06C
:100F400090E0A0E0B0E004C0880F991FAA1FBB1F6B
:100F50002A95D2F780959095A095B0951981169510
:100F6000169513701D838C019D01042B152B262BC8
:100F7000372B09831A832B833C831D8169817A81F6
:100F80008B819C81123051F0133059F0113019F0DF
:100F90000E94A00907CF0E94780904CF0E94C809C7
:100FA00001CF0E947609FECE112309F448C00981C1
:100FB00000FFF8CE2D81229526952770220F220F53
:100FC0004D814F7050E070E060E0022E04C0440F8D
:100FD000551F661F771F0A94D2F70D8180E090E0BD
:100FE000DC0104FF0FC08FE090E0A0E0B0E004C09F
:100FF000880F991FAA1FBB1F2A95D2F7809590953D
:10100000A095B09519811695169513701D838C01C6
:101010009D01042B152B262B372B09831A832B8339
:101020003C831D8169817A818B819C81123071F0B2
:10103000133079F0113039F00E94E90AB3CE1981EA
:1010400011FFB0CEB7CF0E94C10AACCE0E94110BE7
:10105000A9CE0E94F409A6CE09810F70098311233D
:1010600029F0802F0E942A0A8D81EFCE8D810E9467
:10107000610689810E945B0A95CE2D81223FA1F1F4
:1010800060F4203FE1F0213F41F1112309F445C014
:1010900001116FCE89818F7124C03D81333F49F1A9
:1010A000343F99F7112379F109810F710983802F5A
:1010B0000E942A0A63E089810E94021073CE1123E4
:1010C00041F0053008F06ECE89818F710E94900A40
:1010D00069CE063008F066CEF7CF89818F71112373
:1010E00049F20E942A0A5ECE89818F711123C9F3C9
:1010F000C1CF112329F089818F710E94050A52CE38
:101100000E94000A4FCE81E00E941D10023008F4B8
:1011100049CE82E00E941D1045CE002361F01D8162
:10112000193309F0C2CE2FEF37EE83E02150304063
:101130008040E1F7B8CE89818F719CCF49814F7093
:101140006D81C6010E94BF020E94070C2BCE49810F
:101150004F706D81C6010E94AE1124CE0F900F908A
:101160000F900F900F90DF91CF911F910F91FF90F3
:10117000EF90DF90CF90BF90AF9008950F931F93A3
:10118000CF93DF93EC01688179818A810E94DD0B26
:101190008C010E94390B0E947509B801CE01DF91C4
:1011A000CF911F910F910C946806CF93DF93EC01C0
:1011B000988189812B813C81232B19F089238F3FD2
:1011C00059F4DF91CF910895CE010E94BE08CE015F
:1011D000DF91CF910C94A103CE010E94C80381112D
:1011E000F3CF0E94510F882361F38A81882349F34A
:1011F00082E0DF91CF910C941D1090E080E00E947E
:10120000282390E080E00E943E230E949B0F0E94D2
:10121000AC0F0E94CC0F0E9488170C945D160E94A0
:10122000410F0C94FD080E948A0F0C940F09282F7F
:10123000892F82958F70903C80F48A30B0F484308E
:1012400020F4823090F480E008958630E1F781E068
:10125000283E88F0213FB9F70EC08C3011F08F3056
:1012600091F793FB882780F9089581E0203F39F0BA
:1012700018F4283E40F70895243F29F7FCCF08953D
:10128000FC01808191810E94D10B0C941709CF93AE
:10129000DF9300D000D00F92CDB7DEB70F900F9044
:1012A0000F900F900F90DF91CF910895CF93DF9320
:1012B00000D000D000D0CDB7DEB726960FB6F89498
:1012C000DEBF0FBECDBFDF91CF91089508950C947E
:1012D00066090E9467096093BE017093BF01809305
:1012E000C0019093C1010C94FD0808950C94690904
:1012F000CF93DF9300D000D0CDB7DEB769837A8378
:101300008B839C838091BE019091BF01A091C0010D
:10131000B091C10129813A814B815C81282B392B05
:101320004A2B5B2B29833A834B835C83CA01B90127
:101330000F900F900F900F90DF91CF910C9469094F
:10134000CF93DF9300D000D0CDB7DEB769837A8327
:101350008B839C838091BE019091BF01A091C001BD
:10136000B091C10129813A814B815C8128233923C5
:101370004A235B2329833A834B835C83CA01B901E7
:101380000F900F900F900F90DF91CF910C946909FF
:10139000CF93DF9300D000D0CDB7DEB769837A83D7
:1013A0008B839C838091BE019091BF01A091C0016D
:1013B000B091C10129813A814B815C81282739276D
:1013C0004A275B2729833A834B835C83CA01B9018F
:1013D0000F900F900F900F90DF91CF910C946909AF
:1013E0000C9466090C94F0090E94F2096093BA010A
:1013F0007093BB018093BC019093BD010C94FD08D8
:1014000060E070E0CB010C94F4090F931F93CF932D
:10141000DF9300D000D0CDB7DEB741E050E060E010
:1014200070E08A019B0104C0000F111F221F331FAF
:101430008A95D2F709831A832B833C83C901B801AB
:101440000F900F900F900F90DF91CF911F910F9100
:101450000C94F4090F931F93CF93DF9300D000D027
:10146000CDB7DEB741E050E060E070E004C0440F6B
:10147000551F661F771F8A95D2F78091BA01909108
:10148000BB01A091BC01B091BD018A019B01082B59
:10149000192B2A2B3B2B09831A832B833C83C901ED
:1014A000B8010F900F900F900F90DF91CF911F9187
:1014B0000F910C94F4090F931F93CF93DF9300D0F7
:1014C00000D0CDB7DEB741E050E060E070E004C08E
:1014D000440F551F661F771F8A95D2F74095509588
:1014E000609570958091BA019091BB01A091BC016B
:1014F000B091BD018A019B01082319232A233B23B4
:1015000009831A832B833C83C901B8010F900F9084
:101510000F900F90DF91CF911F910F910C94F409D0
:101520000F931F93CF93DF9300D000D0CDB7DEB7DA
:1015300041E050E060E070E004C0440F551F661FBA
:10154000771F8A95D2F78091BA019091BB01A09143
:10155000BC01B091BD018A019B01082719272A27E8
:101560003B2709831A832B833C83C901B8010F9061
:101570000F900F900F90DF91CF911F910F910C94CE
:10158000F409CF93DF9300D000D0CDB7DEB76983E5
:101590007A838B839C838091BA019091BB01A09147
:1015A000BC01B091BD0129813A814B815C81282B1E
:1015B000392B4A2B5B2B29833A834B835C83CA01EB
:1015C000B9010F900F900F900F90DF91CF910C9475
:1015D000F409CF93DF9300D000D0CDB7DEB7698395
:1015E0007A838B839C838091BA019091BB01A091F7
:1015F000BC01B091BD0129813A814B815C812823D6
:1016000039234A235B2329833A834B835C83CA01B2
:10161000B9010F900F900F900F90DF91CF910C9424
:10162000F409CF93DF9300D000D0CDB7DEB7698344
:101630007A838B839C838091BA019091BB01A091A6
:10164000BC01B091BD0129813A814B815C81282781
:1016500039274A275B2729833A834B835C83CA0156
:10166000B9010F900F900F900F90DF91CF910C94D4
:10167000F4090895E92FEE0FE90FE80F8E2F877018
:1016800041E001C0440F8A95EAF7E695E695E695B4
:1016900085E0E89FF0011124EB54FE4F30E020E09C
:1016A00070E05191DF011197CB01022E02C0969597
:1016B00087950A94E2F78170819585278423852791
:1016C0008C932F5F3F4F2530310559F70895E92F4F
:1016D000EE0FE90FE80F9E2F9770E695E695E695D9
:1016E00085E0E89FF0011124EB54FE4F50E040E00C
:1016F00080E0219130E0092E02C0369527950A94AA
:10170000E2F721703327042E01C0220F0A94EAF772
:10171000822B4F5F5F4F4530510559F70895BF92B7
:10172000CF92DF92EF92FF920F931F93CF93DF93AD
:101730008C01C090BA01D090BB01E090BC01F09048
:10174000BD018091BE019091BF01A091C001B091F7
:10175000C101C82AD92AEA2AFB2ACFE1D0E0BC2E4F
:10176000D701C6010C2E04C0B695A795979587950D
:101770000A94D2F780FD0EC0219788F7B12C8B2DEB
:10178000DF91CF911F910F91FF90EF90DF90CF905D
:10179000BF900895B8018C2F0E94DC12019761F36D
:1017A000EECFCF93DF93D82FC92F0E948F0B6D2FD1
:1017B0007C2FDF91CF910C94DC121F93CF93DF939A
:1017C000162FD72F9091B401992339F0862F972F98
:1017D000DF91CF911F910C94D10B882391F0862F2C
:1017E000972F0E948F0BC82F682F812F9D2F0E944B
:1017F0003A0B612F7D2F8C2FDF91CF911F910C948D
:10180000DC12862F972F0E94670BC82FF2CFEF9222
:10181000FF920F931F93CF93DF938C01892B89F055
:10182000F12CEE24E394E8012196F80184918437A9
:1018300009F458C0A0F4823009F43FC048F4813064
:10184000D1F0DF91CF911F910F91FF90EF9008950C
:101850009CEF980F9037A8F70E9454050AC085376F
:1018600009F44EC09CE7980F903758F78F770E9485
:10187000E5058E0116C00E5F1F4FFE01849190E2B8
:10188000980F983060F48770FE2D01C0FF0F8A9585
:10189000EAF78F2F0E949E0F0E94CC0F02C00E9479
:1018A00054058F2D882309F4BECFEFE9FFE031976F
:1018B000F1F700C000008150F5CF0E5F1F4FFE0111
:1018C000849190E2980F983050F48770FE2D01C0FB
:1018D000FF0F8A95EAF78F2F0E94A40FDDCF0E9499
:1018E000E505DFCF0E5F1F4FFE01C491CC23C9F287
:1018F0008FE99FE00197F1F700C00000C150F6CFDB
:101900000E5F1F4FFE01F490CCCF1F93CF93DF9358
:10191000E091C20116E08091C3018E1304C0DF91F3
:10192000CF911F910895CE2FD0E01E9FF00111247A
:10193000EC53FE4F40815181628173818481958196
:101940000E9456092196EC2FE770E5CF4091F401F3
:101950005091F5016091F6017091F7018091F801C5
:101960009091F9010C9456091F93CF93DF938091C6
:10197000F901807FA9F48091F601882389F0809194
:10198000C201C091C3017091F4016091F501A09171
:10199000F701B091F801D62FD72316E0C81304C081
:1019A000DF91CF911F91089590E0109711F0DF3FE4
:1019B00019F401968770F2CF189F9001199F300D8E
:1019C0001124F901EC53FE4F41816413F2CF4081A1
:1019D0004713EFCF42814111ECCF438154814A1B21
:1019E0005B0B483C510528F78091F9018F708061AD
:1019F0008093F901F901E753FE4F80818F70806178
:101A0000808384EF91E00E94D508DF91CF911F91F0
:101A10000C94850CAF92BF92CF92DF92EF92FF921F
:101A20000F931F93CF93DF93CDB7DEB72B970FB6EE
:101A3000F894DEBF0FBECDBF8C0185E0F801DE015A
:101A4000179601900D928A95E1F7F801E280C38024
:101A5000D48084EFA82E81E0B82E2091F4019091DB
:101A6000F5014091F7015091F8014115510529F018
:101A7000892F82238F3F09F049C1EE2009F455C117
:101A8000C8010E944009F82E882309F44EC186E05F
:101A9000F801A4EFB1E001900D928A95E1F784EF8F
:101AA00091E00E944F050E94B40C00C18091F901A1
:101AB000682F607F483C510508F0A8C0F8013181CB
:101AC0006111E0C0FE2C391325C09081921322C011
:101AD000E11020C08F7080618093F9010E94A60CF4
:101AE00084EF91E00E94D5088091F901F801858387
:101AF0008F2D2B960FB6F894DEBF0FBECDBFDF91B2
:101B0000CF911F910F91FF90EF90DF90CF90BF90FA
:101B1000AF9008952F81CD2829F0832F82238F3F06
:101B200009F0ADC080E0F82FF170DF2EE091C20126
:101B30004091C30156E080FD1CC0EE20C9F28091A7
:101B4000F90181608093F901F12CD2CF8E2F90E0C2
:101B50005E9FF0011124EC53FE4F6181361306C0E5
:101B60006081621303C06281E612E7CF0196E82F1D
:101B7000E770E413EBCF8F8198850E94D10B292F5A
:101B800022952F70903260F0225F2F70223078F40F
:101B90009F7051F0F8019581907F31F4D12C0AC0EB
:101BA0009F7011F08823D1F3805E8830B8F3C801AC
:101BB0000E94D508FD2C9CCFC8010E9440098823B3
:101BC00009F4B3C0EE2009F4B0C08091F90180326D
:101BD00070F02091F4013091F5013A8329831B8242
:101BE000DD82CC828E83CE0101960E94D50886E0EC
:101BF000F801A4EFB1E001900D928A95E1F70E94FF
:101C0000B40C0E94A60CFF24F39472CF611151C052
:101C10004F81588569857A858B850E94470984EFB5
:101C200091E00E94D50886E0F50111928A95E9F7C6
:101C30000E94A60C89CF86E0F801A4EFB1E00190E4
:101C40000D928A95E1F754CFC8010E944009811195
:101C5000CECF8091F90181608093F901C8010E9483
:101C6000D50846CF4F81588569857A858B850E9436
:101C7000470986E0F50111928A95E9F717C081E0DE
:101C80008E2551CF391398CFF8019081921394CFBC
:101C9000E11092CF8583C8010E94D50886E0F80143
:101CA000A4EFB1E001900D928A95E1F70E94A60C95
:101CB0001FCFF801318193137FCFF80190819213E8
:101CC0007BCFE11079CF8583C8010E94D50886E0DB
:101CD000F50111928A95E9F70BCFF80181819813EC
:101CE000B3CFF80180818213AFCF8091F90180FDDD
:101CF000A2CF982F907F09F49ECF8583903F59F211
:101D0000982F907F905F8F70892BC4CFF090F60151
:101D1000B601641B750BAB01F110C8CE483C5105F0
:101D200008F0A0CFFE2CE110D8CFC8010E94D50842
:101D30006ACF1F93CF93DF93CDB7DEB72C970FB643
:101D4000F894DEBF0FBECDBF4F83588769877A876F
:101D50008B879C87CE0107960E940A0D882369F025
:101D60008A859B85892B39F058854F81852F84235F
:101D70008F3F09F071C016E05FC086E0FE01379624
:101D8000DE01119601900D928A95E1F78F81988579
:101D90002091C3014091C2016A857B85672B59F36D
:101DA00089238F3F41F330E0C9010196877099275D
:101DB0004817190671F40E9413091092C30110927A
:101DC000C20186E0E4EFF1E0DF011D928A95E9F7B8
:101DD000D2CF96E0929FD001939FB00D1124AC53C7
:101DE000BE4FFE01319601900D929A95E1F78093D6
:101DF000C3010E94850CBFCF819FC00111248C5369
:101E00009E4F0E940A0D8823E9F0E091C2011E9FB7
:101E1000F0011124EC53FE4F4081518162817381A6
:101E2000848195810E9456098091C20190E00196BB
:101E3000877099278093C2018091C2019091C3015C
:101E40008913DACF2C960FB6F894DEBF0FBECDBF44
:101E5000DF91CF911F91089569857A858B859C8547
:101E60000E94560988CF682F80910001909101014E
:101E70000C94EC23682F80910001909101010C9447
:101E8000F72380910001909101010C94022480912C
:101E9000FA0185958595859508958091FA01877059
:101EA00008959091FA01977081E009F480E0089517
:101EB00090917A0292FB222720F9281751F080FB9B
:101EC00092F990937A028091790290917A020C941F
:101ED0006010089580917A0282FB882780F991E052
:101EE00089270C94580F81E00C94580F80E00C94D3
:101EF000580F80911E02089590911E02982B909386
:101F00001E020895982F909580911E028923809338
:101F10001E02089510921E02089590911D02982BA2
:101F200090931D020895982F909580911D0289230A
:101F300080931D02089510921D02089590911C0235
:101F4000982B90931C020895982F909580911C02D5
:101F5000892380931C02089510921C020895809199
:101F6000FB01089508950C94B20F90917A0292FDAE
:101F700008C09091FB01981721F08093FB010C940D
:101F8000B30F08958091FB01882329F01092FB0183
:101F900080E00C94B30F0895E0910001F0910101ED
:101FA00080911E028083E0910001F0910101808107
:101FB00090911D02892B8083E0910001F091010135
:101FC000808190911C02892B80839091FB01992341
:101FD00081F0E0910001F09101018081892B8083E3
:101FE00080910001909101010E94542381110E946F
:101FF000C20F80910001909101010C94FE2208957E
:102000000C94FF0F90917A0292FD10C098E0899F86
:1020100090011124622B6093FA010E942A0A809198
:10202000FA018595859585950C9400100C942A0AE3
:102030001092FA0180E00C9400109091FA018095C2
:1020400089238093FA01282F277039F4282F082E2E
:10205000000C330B9217130621F490917A0292FF31
:1020600007C08595859585950E945B0A0C9418108C
:1020700008956FEF7FEF90E080E00C94412F90E0A7
:1020800080E00E941D2F9C0181E0293E3E4F09F017
:1020900080E0089582E090E00C940F2F83E090E0C0
:1020A0000C940F2FCF9384E090E00E940F2FC82F45
:1020B00082E290E00E940F2F982F8C2FCF910895ED
:1020C000CF93682FC92F84E090E00E94232F6C2FBC
:1020D00082E290E0CF910C94232FAB01BC018FE002
:1020E00090E00C94352FAB01BC0183E190E00C949F
:1020F000352F60E070E0CB010C94731060E070E06D
:10210000CB010E946D100C94791069EE7EEF90E087
:1021100080E00E94412F60E082E090E00E94232F47
:1021200060E083E090E00E94232F1092BE011092A5
:10213000BF011092C0011092C10160E084E090E004
:102140000E94232F60E082E290E00E94232F60E053
:1021500085E090E00E94232F60E086E090E00E94FE
:10216000232F6FEF87E090E00E94232F40E050E0A4
:10217000BA0188E090E00E94352F60E08DE090E0A9
:102180000E94232F40E050E0BA0188E190E00E94D5
:10219000352F60E087E190E00E94232F40E050E07F
:1021A000BA018CE190E00E94352F70E060E080E29F
:1021B00090E00E94412F40E050E0BA0188E190E0B9
:1021C0000E94352F0C947E100C948510682F8EE0A1
:1021D00090E00C94232F0E94A32460932502709317
:1021E0002602809327029093280260932102709325
:1021F00022028093230290932402089585B7806879
:1022000085BF85B7806885BF0895089508950C94AB
:10221000051108950C9409110E94FE108BEB93E1B7
:102220000E941A250E9406110C94071181E008955E
:102230000C941611089508950E941A110C941B1104
:102240000E948E240E949B140E946D1F0E94FA1D02
:102250000C940A11FF920F931F93CF93DF9300D03A
:1022600000D00F92CDB7DEB70E94A61481110E9454
:10227000EB1080E00E941414182F80912002082F88
:102280000127811311C08FEF89838A831B820E94EB
:1022900097248160782F9D838C8349815A816B813B
:1022A000892F0E940A052DC08091290281FD0E947C
:1022B0001A14802F8170F82E00FD3FC001FD3FC031
:1022C00002FFE1CF02E094E0F92E0E94181188236A
:1022D00099F009831A821F2181E009F480E08B8341
:1022E0000E9497248160782F9D838C8349815A8135
:1022F0006B81892F0E940A05809120028F2580938F
:1023000020020E942D1E0E94DA200E9477160E9451
:10231000F22290911F028917B1F00E94F22280935D
:102320001F020F900F900F900F900F90DF91CF91A1
:102330001F910F91FF900C94020500E0C6CF01E0C1
:1023400082E0F82EC2CF0F900F900F900F900F9059
:10235000DF91CF911F910F91FF9008950895272F3E
:10236000280F3327331FC901F901EE0FFF1FE80FB4
:10237000F91FE60FF11DEE0FFF1FE455FF4F85918A
:1023800094910895FC01EE0FFF1FEE59FE4F8591C9
:1023900094910895CF93DF930E94E012EC01811590
:1023A00020E5920708F043C0811530E4930708F058
:1023B000B2C0803E9105E8F4803C910508F0A0C0D1
:1023C000883A910578F4853A910508F08BC0813000
:1023D000910521F00497813A910540F4CE01DF91F7
:1023E000CF9108958F3B910509F07FC0D0E0C0E008
:1023F000F5CFC11580E2D80770F4CF3FD10509F0C1
:1024000068F7C83ED10550F3CE018D5E9109D065C5
:10241000439720F3EBCFCE01C11520E3D20708F498
:1024200075C09927D3FD74C0EC01D06CD7CF81154E
:1024300035E5930760F5C11584E5D80708F09EC01F
:10244000C11523E5D20778F4C11532E5D30708F0AA
:1024500082C0C11581E5D80708F460C0DC2FCC2705
:10246000C16FD06ABBCF9E012370332781E090E01B
:1024700002C0880F991F2A95E2F7C695C69520E2FB
:10248000C29FE0011124C82BD92BDA68A7CF811590
:102490003AE59307B0F4C11589E5D80708F07EC086
:1024A000C11526E5D20708F46EC0CE0198558F3FBE
:1024B000910511F008F09ACFDC2FCC27C06FD06ABD
:1024C0008DCF90568115904208F090CF8D2F8F714F
:1024D0000E94781390E0982F882788279F718C2B73
:1024E000EC015AC0A497D06479CFC85AD0E0CC0F81
:1024F000DD1FC75ADE4F0990D881C02DD4646ECF3E
:10250000805C91090E94C211EC0168CF9F70FACFE4
:10251000EC01D86C63CFDF70D06A60CF9E0174E0AD
:10252000369527957A95E1F723708C2F86958695B9
:10253000837030E2839FC0011124922BC37021E08D
:1025400030E002C0220F331FCA95E2F7822B932B93
:10255000EC01DC6843CF9E012370332781E090E0DB
:1025600002C0880F991F2A95E2F7C695C69520E20A
:10257000C29FE0011124C82BD92BEBCFDC2FCC2735
:10258000C46FD06A2BCF8C2F0E947813C82FD0E055
:10259000DC2FCC27CC27DF71D06220CF8C2F8F701F
:1025A0000E94781334E0D695C7953A95E1F7CF703D
:1025B0009C2FEC01D06912CF0E94AF110C94CA116C
:1025C000803E910599F1C8F48133910509F476C0F4
:1025D00048F48932910509F46AC08A32910509F4F8
:1025E00074C0089589339105D1F082389105B9F00E
:1025F0008533910509F454C00895843E910599F1FD
:1026000038F4823E9105F9F0833E910509F1089571
:10261000863E910599F1873E9105B9F10895209183
:1026200079022370A1F080EE90E008952091790264
:1026300020FD52C030917A0230FF09C024FF4FC004
:1026400090E080E004C02091790222FDF7CF089548
:102650002091790222FD46C030917A0230FDE3CF0D
:1026600024FFF5CFEDCF20917A0221FFF0CF8091AA
:10267000790284FDE5CF87EE90E0089520917902FC
:1026800023FFE5CF24FDDCCFF6CF2091790223FD97
:102690002CC030917A0231FFE3CF84EE90E00895B0
:1026A0002091790225FFD3CF89E290E0089520910F
:1026B000790225FFCCCF85E390E00895209179023F
:1026C00026FFC5CF8AE290E008952091790226FF87
:1026D000BECF81E390E0089589E390E0089583EE12
:1026E00090E0089582EE90E0089586EE90E00895DF
:1026F0009091790292FF06C0282F28712830F9F4B2
:10270000877F846093FF06C0282F28712831F1F459
:10271000877E846120917A0220FF06C0382F3871AD
:102720003830D9F4877F816021FF06C0282F2871B7
:102730002831D1F4877E816194FD877E0895282F0A
:1027400024712430F9F68B7F8860DCCF282F247128
:10275000243101F78B7E8861DDCF382F3171313024
:1027600019F78E7F8860E0CF282F2171213121F762
:102770008E7E8861E1CF80E008950C9439100E942C
:10278000A6142FEF86E791E0215080409040E1F7BA
:1027900000C000000E94A61480E00E94141480FF74
:1027A00004C00E94BD130C94F62408950C94BF132A
:1027B000CF93DF9300D000D0CDB7DEB70E943F109B
:1027C000811102C00E94E4100E944A1080932902E5
:1027D0000E94521090937A02809379020E94D6133D
:1027E0000E944E10282F30E050E040E0CA01B901AD
:1027F0000E9476098091BA019091BB01A091BC0121
:10280000B091BD0189839A83AB83BC83BC01CD01A8
:102810000F900F900F900F90DF91CF910C94F209D1
:102820000C94C2020C94C302E82FF0E0E458FD4F70
:1028300080810895089580EA8A95F1F7089500C08F
:1028400008950C941B14F894E82FE295EF70F0E0D3
:1028500041A18F7021E030E0B90102C0660F771FFF
:102860008A95E2F7CB01962F9095942391A392A19C
:10287000892B82A37894089582E90E94231481E928
:102880000E94231480E90E94231484E90C942314E9
:10289000DF92EF92FF920F931F93CF93DF937C0110
:1028A000D62E062F10E009571E4FF80180818F3F6A
:1028B000D1F1F894E82FE295EF70F0E091A18F70DC
:1028C000C1E0D0E09E0101C0220F8A95EAF7892F6E
:1028D000822B81A382A12095282322A378940E9491
:1028E0001F140D2C01C0CC0F0A94EAF7F701808168
:1028F0004C9915C08C2BC1E0F7018083F8018081D1
:102900008F3F11F00E9423146C2F8D2DDF91CF91FA
:102910001F910F91FF90EF90DF900C942114C095C0
:102920008C23C0E0E9CFDF91CF911F910F91FF90F1
:10293000EF90DF9008950E943C1410927B02109259
:102940007C0281E00E94D6140C94AE031F93CF93B7
:10295000DF930F92CDB7DEB7198260E0CE0101960A
:102960000E94481461E0CE0101960E94481462E082
:10297000CE0101960E94481490917B02898111E05A
:10298000981301C010E0981380937B02212F41E03F
:102990006CE772E08BE792E00E94D7140E94B603C6
:1029A000812F0F90DF91CF911F9108950895FF928D
:1029B0000F931F93CF93DF93F82E092F162FD72F46
:1029C000C42F222349F081E080932C020E94972497
:1029D00090932B0280932A0280912C028823A1F0ED
:1029E00080912A0290912B020E94C324059760F0E7
:1029F000EF2DF02FA12FBD2FCF018C0F911DE817C8
:102A0000F90741F410922C02DF91CF911F910F91A1
:102A1000FF90089521912D93F2CF0E9414240E94DB
:102A20008B260E94A4260E94B6260E941C11FBCF72
:102A30008091330280FF12C06091070185E0689F9A
:102A4000B001112475956795759567956038710586
:102A5000A8F561157105A1F1862F089581FF09C0C0
:102A60006091070185E0689FB00111247595679515
:102A7000EDCF6091070182FD0AC02091320222232E
:102A8000D1F09091060160910701291728F085E0A7
:102A9000689FB0011124DACF269F9001112485E0B0
:102AA000829FA001839F500D1124692F70E0CA01FD
:102AB0000E94F22BCBCF65E070E0CECF8FE7089578
:102AC00081E008958091330280FF0CC06091030182
:102AD00070E075956795759567956115710549F174
:102AE000862F089581FF06C06091030170E07595FF
:102AF0006795F3CF6091030182FD0BC09091310285
:102B00009923A1F06091020180910301961738F09A
:102B1000682F70E06038710500F38FE70895899F92
:102B2000C001112470E00E94F22BF4CF61E070E04C
:102B3000D7CF81E00895E3E1E80FE331E0F5F0E07D
:102B4000E056F04D0C94282C0E9418158195809326
:102B5000370208950E941815FACF0E941815819522
:102B60008093360208950E941815FACF0E946215CC
:102B70008093380208950E9462158195F9CF0E94D2
:102B8000621581958093390208950E946215FACFEB
:102B9000815F990B21E030E001C0220F8A95EAF7AE
:102BA00080913502822B8093350208958091330203
:102BB0008160809333020895809133028260F9CF5F
:102BC000809133028460F5CF409136028D3E59F4F6
:102BD0008091370287FF0DC01092370241110BC060
:102BE0001092320208C08E3E81F48091370218168E
:102BF0009CF3442381F08091380290913902892B13
:102C000009F05AC01092310208958F3E49F447FFEF
:102C1000F0CF10923602809137028111ECCFE0CFD5
:102C2000803F19F41416ACF3E4CF90913802893F39
:102C300029F41916F4F610923802DBCF8A3F19F402
:102C400097FFD7CFF8CF909139028B3F29F497FFA8
:102C5000D0CF10923902CDCF8C3F19F41916CCF396
:102C6000C8CF9FE0980F983090F4815F990B21E0D6
:102C700030E0B90102C0660F771F8A95E2F7CB01F9
:102C8000809590913502892380933502B2CF8D3F94
:102C900031F4809133028E7F80933302AACF8E3F2E
:102CA00021F4809133028D7FF7CF8F3F09F0A1CFC0
:102CB000809133028B7FF0CF08950E94972420915A
:102CC000360230913702232B21F080932F0290930C
:102CD00030022091380230913902232B21F0809369
:102CE0002D0290932E0284E392E00C941923CF924C
:102CF000DF92EF92FF920F931F93CF93DF9300D059
:102D000000D000D0CDB7DEB726E0E4E3F2E0CE019C
:102D10000196DC0101900D922A95E1F7C0903602F0
:102D2000D0903702E0903802F090390210923602CB
:102D30001092370210923802109239022C2D2D2950
:102D40008C0191F080912F02909130020E94C32457
:102D50009C0180913202882309F440C090910801BF
:102D60009217130608F448C08E2D8F2991F0809198
:102D70002D0290912E020E94C3249C018091310269
:102D8000882309F478C0909104019217130608F47F
:102D900080C08091360290913702892B9091380241
:102DA000892B90913902892B11F00E945D1686E0E3
:102DB000F801A4E3B2E001900D928A95E1F726961E
:102DC0000FB6F894DEBF0FBECDBFDF91CF911F913C
:102DD0000F91FF90EF90DF90CF90089540910901FF
:102DE0009AE0499FA00111244217530708F0BCCF75
:102DF0008F5F8093320202C08F3FD1F7CC2059F011
:102E00000E9418159FEF1C140CF491E0899F802DEF
:102E1000112480933602DD2059F00E9418159FEF8F
:102E20001D140CF491E0899F802D112480933702AA
:102E300030913602332309F497CF209137022223B1
:102E400009F492CF45EB3403C0011124992359F0C2
:102E50009093360245EB240390011124332339F07B
:102E60003093370281CF81E080933602F3CF81E047
:102E70008093370279CF409105019AE0499FA001E4
:102E800011244217530708F084CF8F5F80933102DB
:102E900002C08F3FD1F7EE2059F00E9462159FEFDC
:102EA0001E140CF491E0899F802D11248093380228
:102EB000FF2059F00E9462159FEF1F140CF491E05F
:102EC000899F802D112480933902309138022091FE
:102ED0003902332309F45DCF222309F45ACF45EB9D
:102EE0003403C0011124992359F09093380245EB23
:102EF000240390011124332339F03093390249CF50
:102F000081E080933802F3CF81E08093390241CF92
:102F100086E0E4E3F2E0DF011D928A95E9F7109282
:102F2000320210923102109233020895AF92BF9292
:102F3000CF92DF92EF92FF920F931F93CF93DF9385
:102F40008B01282F111114C0442329F090E08758D9
:102F50009D4FFC018491682F782FDF91CF911F91B5
:102F60000F91FF90EF90DF90CF90BF90AF900895BA
:102F7000C12FD0E030E0442329F027583D4FF9011C
:102F8000249130E0F6E00F9F70011124EFEFF0E0A4
:102F9000C701BF010E94DE2BAB01802F90E0880F9C
:102FA000991FA5E5A49FB001A59F700D1124861B54
:102FB000970B782F770F780FCF018C1B9D0B829F7B
:102FC000D001839FB00D929FB00D11246B2F719F84
:102FD000C0011124892F99278F01081B190BC801E3
:102FE000829F8001839F100D929F100D1124812FCD
:102FF0005F01A71AB108AC9E6001AD9ED00CBC9ECB
:10300000D00C1124CD2CDD24EC19FD09E29FE00148
:10301000E39FD00DF29FD00D1124722F4330510544
:10302000D1F09CEFE91693E0F90670F441305105B8
:10303000B1F042305105B9F0EFEFEE16F10408F0AF
:103040008CCF8B2F6D2F89CF4430510579F04630CE
:103050005105B9F382CF612F822F7B2F7ECF622F54
:10306000712F8B2F7ACF8D2F622FF7CF822F7D2F4D
:1030700074CF41E00C94961708950C943918CF93AF
:10308000DF93982F762F842FE901692F0E943D1836
:10309000798368838A83DF91CF91089580917D023F
:1030A000982F9E7F29F48170826080937D0208951D
:1030B0008A34E8F381708864F8CF88E090E00C945B
:1030C000172F0F931F93CF93DF938B01D82FC92F07
:1030D0000E944E18A8016D2F7C2F88E090E0DF91B0
:1030E000CF911F910F910C94352FEDE7F2E083E023
:1030F000808385E181838FEF82838383148263E001
:1031000075E18FEF9FEF0C94611880917D0280FF35
:1031100002C08695089580E00895CF93DF9300D094
:1031200000D0CDB7DEB790918102933018F49F5F45
:10313000909381028823B1F080917D0290917E026C
:10314000A0917F02B091800289839A83AB83BC8374
:10315000BC01CD010F900F900F900F90DF91CF9198
:103160000C9461180F900F900F900F90DF91CF91FA
:10317000089581E00C948D18CF93DF9300D000D098
:10318000CDB7DEB790918102992319F091509093B9
:1031900081028823B1F080917D0290917E02A091FE
:1031A0007F02B091800289839A83AB83BC83BC0188
:1031B000CD010F900F900F900F90DF91CF910C9455
:1031C00061180F900F900F900F90DF91CF9108959D
:1031D00081E00C94BC1821E030E001C0220F8A95F8
:1031E000EAF790914802922381E009F480E0089583
:1031F00070E00C94EB207F928F929F92AF92BF92DF
:10320000CF92DF92EF92FF920F931F93CF93DF93B2
:1032100000D000D00F92CDB7DEB7B0900E019091E4
:103220007D0290FF24C0C0903D02D0903E02C114A8
:10323000D10479F580910D0123E0829FC001112412
:103240006B2D8E579D4F0F900F900F900F900F90FA
:10325000DF91CF911F910F91FF90EF90DF90CF9072
:10326000BF90AF909F908F907F900C94F8188091B2
:103270000F012091100133E0839FF0011124EE57DC
:10328000FD4F821780F61182108212828F5F339673
:10329000F8CF90FFCFCFA12C33E0732E8A2D0E9460
:1032A000EB188823C1F1F601E590F490E114F104E4
:1032B00009F4C0CF45E050E0B701CE0101960E946D
:1032C0005F2C09810F3F39F18A81800F9927991F5F
:1032D0008330910514F082E090E04C01880C991C39
:1032E000880E991EC4018E579D4F4C01079D800189
:1032F00011240E571D4F0815190520F095E0E90E11
:10330000F11CD8CF98014D816C818B810E943F18B0
:103310000D5F1F4FF0CF22E0C20ED11CA39438E006
:10332000A312BCCF87CF90917D0290FF14C09091E3
:103330000F012091100133E0939FF0011124EE570B
:10334000FD4F921710F00C94FB1881836083428329
:103350009F5F3396F6CF0895CF93DF9300D00F92FF
:10336000CDB7DEB790917D0290FF0FC09E012F5F19
:103370003F4F0E943F184B8169818A810F900F90C7
:103380000F90DF91CF910C9493190F900F900F90A5
:10339000DF91CF910895CF93DF93EC01EC81F0E0C2
:1033A000EC58FE4F4491EDE7F2E0628181810E948A
:1033B000AC198C818F5F8C83DF91CF910895CF936F
:1033C000DF93EC01EDE7F2E0438162818C810E94A2
:1033D000AC198C818F5F8C83DF91CF9108950F930F
:1033E0001F93CF93DF9300D00F92CDB7DEB78C0140
:1033F00080913A0281110AC09E012F5F3F4F4FEF2B
:103400006FEF0E943F188A8180933A02F80164812D
:10341000613049F06230F1F080913A0240E0662379
:1034200031F040E019C060913A0240E080E00E9433
:103430009319F801848190E0019663E070E00E94A6
:10344000F22B84830F900F900F90DF91CF911F91FB
:103450000F91089540913A0280E060E0E8CFAF928A
:10346000BF92CF92DF92EF92FF920F931F93CF9371
:10347000DF9300D000D000D00F92CDB7DEB7182F69
:10348000F62E042FD22E90917D0290FF83C0E92F5B
:10349000E695AE2FB0E0A657BE4F8C9180934602C2
:1034A0009E7F9230A1F59E012F5F3F4F812F0E949A
:1034B0003F184B8169818A810E94931910937E0283
:1034C000F0927F0200938002DD2009F463C08091B6
:1034D0007D0290917E02A0917F02B09180028C8348
:1034E0009D83AE83BF83BC01CD0127960FB6F894B0
:1034F000DEBF0FBECDBFDF91CF911F910F91FF9027
:10350000EF90DF90CF90BF90AF900C946118823015
:1035100019F400918002D2CF863019F410917E0206
:10352000CDCF8930D9F3893149F6E9518E2F817099
:10353000C82EE695F0E0EC58FD4FA590B490E12C34
:10354000BB2460911101E61618F00E94FB18B6CF5B
:103550002E2D30E0EA9CC001EB9C900D112470E010
:103560000E94DE2B812FC11013C0860F90910F0196
:10357000A901490F511D9A01220F331F240F351F36
:103580002E573D4F402F6F2D0E943F18E394D9CF07
:10359000861BECCF27960FB6F894DEBF0FBECDBFCB
:1035A000DF91CF911F910F91FF90EF90DF90CF901F
:1035B000BF90AF900895282FEDE7F2E0818143811D
:1035C0006281885F0C942F1A81E00C94DB1A282FFB
:1035D000EDE7F2E081814381628188500C942F1ADB
:1035E00081E00C94E71A282FEDE7F2E0628138E0E1
:1035F000630F08F46FEF438181810C942F1A81E0EF
:103600000C94F31A282FEDE7F2E0628138E0631B97
:1036100008F460E0438181810C942F1A81E00C94BE
:10362000021B282FEDE7F2E0438138E0430F08F456
:103630004FEF628181810C942F1A81E00C94111B51
:10364000282FEDE7F2E0438138E0431B08F440E027
:10365000628181810C942F1A81E00C94201B21E05F
:103660000C942F1A20E00C942F1AEF92FF921F93C4
:10367000CF93DF93EC0110E0EE24EA94F12C6091FB
:103680001101161770F00E94FB189A818C8190FF2F
:1036900025C08F5F8C83DF91CF911F91FF90EF90BA
:1036A000089580910F01810F9927991F9C01220F86
:1036B000331F280F391F2E573D4F70E0C7010E945E
:1036C000F22B962F8C814091800260917F02199F8E
:1036D000800D11240E943F181F5FD1CF8150DACF97
:1036E000BF92CF92DF92EF92FF920F931F93CF93EF
:1036F000DF93FC0182810FEF80FF01E010E08091F9
:1037000011011817C0F00E94FB1880913C02013093
:1037100009F051C0811102C0809111018150809344
:103720003C02DF91CF911F910F91FF90EF90DF90BE
:10373000CF90BF90089580910F01C12ED12C8C0D98
:103740009D2D911DEC01CC0FDD1FC80FD91FCE5749
:10375000DD4F198218821A8234E0E32EF12CB12C4D
:1037600080913C028B0D833004F18170082E000C97
:10377000990BC816D90691F4809180028E9DA00104
:103780008F9D500D112455954795559547959E0150
:1037900060917F0280917E020E943F18B00EF1E09E
:1037A000EF1AF108E9F61F5FAACF87FFDFCF9091EC
:1037B0001101890FDBCF90E001966091110170E05B
:1037C0000E94F22BACCFCF93DF9380910F019091A9
:1037D000100123E0829FF0011124EE57FD4F89175D
:1037E00030F1C0E0D3E060911101C61730F10E94C2
:1037F000FB1820910B0180913B02820F80933B02CA
:1038000090910C01920F90930C01191654F4082E0C
:10381000000C990B409111014150550B84179507ED
:103820001CF0219520930B01DF91CF910895118217
:10383000108212828F5F3396D2CFEC2FF0E070E0CF
:10384000CF010E94F22B20910F01280F422F50E050
:1038500080913B02082E000C990BE817F907BCF089
:1038600080910C01082E000C990B8E179F077CF09D
:103870002D9F900111242E573D4F40918002609161
:103880007F0280917E020E943F18CF5FACCFFA0189
:10389000EE0FFF1FE40FF51FEE57FD4F1182108250
:1038A0001282F3CFEF92FF920F931F93CF93DF9388
:1038B000CDB7DEB72E970FB6F894DEBF0FBECDBFE3
:1038C0008D879E87AD85BE8514961C91212F30E093
:1038D000D9010E94362C9B01AC010E944C2C6983BB
:1038E0007A838B839C83E0E2F0E0E11BF109A5E59C
:1038F000B0E09B01AC010E944C2C69877A878B87D2
:103900009C879F01DF010E942E2C9B01AC010E942D
:10391000572C6D837E838F8398879B01AC018981AF
:103920009A81AB81BC81280F391F4A1F5B1F6985B3
:103930007A858B859C850E94062CF22E422F50E0C2
:1039400099E29F1588F1A3E02A9F900111243595F3
:103950002795122F109500E085E5E82EEF1880914D
:103960001101081778F10E94FB18ED85FE859481FE
:1039700081E0992319F0903219F48FEF80930A01B6
:1039800080910A01890FAD85BE8514968C932E9681
:103990000FB6F894DEBF0FBECDBFDF91CF911F9160
:1039A0000F91FF90EF90089585E590E0841B950BB3
:1039B0009C01220F331F280F391F37FFC8CF2F5FFD
:1039C0003F4FC5CF8E2D01FD8F2D40910F01400F30
:1039D0005527551F9A01220F331F240F351F2E57CD
:1039E0003D4F412F60917F020E943F180F5FB7CF7C
:1039F0000F931F93CF93DF93EC0110E000E09091C1
:103A000011019017110609F06CF40E94FB188C81CB
:103A100090E00196817099278C83DF91CF911F915F
:103A20000F91089580910F01A801480F511D9A012F
:103A3000220F331F240F351F2E573D4F4C816091AD
:103A40007F0280917E0296959017110651F04CF0FE
:103A5000442349F0409180020E943F180F5F1F4F9E
:103A6000CECF4423B9F340E0F7CFCF93DF9300D01C
:103A700000D0CDB7DEB7EDE7F2E080818E7F8083A6
:103A800080819181A281B38189839A83AB83BC8336
:103A9000BC01CD010E946118109247029FEFA0E780
:103AA000B2E09150A040B040E1F700C000000F909C
:103AB0000F900F900F90DF91CF910C94FB186091B5
:103AC0007D02669570E04BE050E082E191E00E945B
:103AD000682C892B19F481E0809347020E94972477
:103AE0009093400280933F020895CF93DF9300D0DC
:103AF00000D0CDB7DEB790917D0290FF44C08823FF
:103B0000D9F18532D8F58F77880F90917D02917029
:103B1000892B80937D02662381F080917D029091B4
:103B20007E02A0917F02B091800289839A83AB8349
:103B3000BC83BC01CD010E94611860917D02669535
:103B400070E04BE050E082E191E00E94682C892B0C
:103B5000B9F01092470281E08093420240918002C6
:103B600060917F0280917E020F900F900F900F90D6
:103B7000DF91CF910C94321B81E0C6CF84E2C4CF99
:103B80000E945F1DE8CF0F900F900F900F90DF9174
:103B9000CF910895682F80917D0286958F5F853241
:103BA00008F081E00C94751D81E00C94CA1D682F0B
:103BB00090917D0296958FEF890F913009F484E200
:103BC0000C94751D81E00C94D71D61E00C94751D5B
:103BD000EDE7F2E080818160808386950C94E51D9D
:103BE00080917D0280FD0C94351D0C94E81D60E0F1
:103BF0000C94751D8091450281112EC00E943F10CA
:103C0000811104C00E94E4100E9475180E945D1882
:103C100060937D0270937E0280937F029093800276
:103C20006E7F61F40E9475180E945D1860937D029A
:103C300070937E0280937F02909380020E944E18C0
:103C40001092470280917D0280FF03C086950E94FA
:103C5000F71D81E08093450208950F931F93CF9342
:103C6000DF9380914702882309F48AC0809146023D
:103C7000E0917D02E695E81BE0934102823091F5E8
:103C8000F0E0E059FE4FE491CE2FD0E00BEC19E1CB
:103C900080914202882361F0109242020E94972490
:103CA0009093400280933F0210924402109243028C
:103CB0000E94972420913F0230914002821B930B77
:103CC0008F3F9F4708F05CC02C0F3D1F3093400290
:103CD00020933F028FE392E0F801DF91CF911F9193
:103CE0000F910994853109F43BC058F4893021F1D2
:103CF0008F3061F18630B9F0C0EDD7E00CE318E108
:103D0000C7CF833209F435C0C4EFD1E008EF1CE11E
:103D1000843209F4BDCFC8E2D0E002E51CE188316D
:103D200009F4B6CFE9CFF0E0E359FE4FE491CE2F8E
:103D3000D0E00FED19E1ACCFE695F0E0E659FE4F8B
:103D4000E491CE2FD0E005E31BE1A2CFE695F0E0B1
:103D5000E959FE4FE491CE2FD0E000E71BE198CF68
:103D6000F0E0EC59FE4FE491CE2FD0E003EE1BE1E2
:103D70008FCFE2E6F1E0C591D4910FEE19E188CF43
:103D8000DF91CF911F910F910895FA01811109944C
:103D9000FB01FDCFCF93DF93C82FD62F0E9485184C
:103DA0008C1740F00E9485188D1720F4DF91CF9179
:103DB0000C94D41D8C2FDF91CF910C94E51D0F93A3
:103DC0001F93CF938C01FB01C281CC2309F472C0F5
:103DD0000E94790F8272073DFCE51F0770F4033CD7
:103DE0009CE5190778F0F801E45CFC45E331F10546
:103DF00070F4ED54F04D0C94282CC1E00E351D45A7
:103E000009F4C0E08C2FCF911F910F9108950E946B
:103E1000F01DF7CF42EE5DE164ED7DE10E94C51E2D
:103E2000F0CF44ED5DE162EE7DE1F8CF40EF5AE185
:103E300064EE7AE1F3CF44EE5AE160EF7AE1EECF3F
:103E40004EE05BE16FEF7AE1E9CF4FEF5AE16EE0D0
:103E50007BE1E4CF4CE25BE16DE17BE1DFCF4DE163
:103E60005BE16CE27BE1DACF48EE58E169EB78E1A7
:103E7000D5CF49EB58E168EE78E1D0CF81E00E94E0
:103E8000E51DBFCF65E082E00E94CA1EBACF68E0A0
:103E900086E0FACF6EE089E0F7CF64E18FE0F4CFFF
:103EA00067E185E1F1CF88E1EACF62E289E1ECCF19
:103EB00083E2E5CFC1E0A6CF86E090E00C940F2F1F
:103EC000682F86E090E00C94232FE8E8F2E08081F0
:103ED0008470896180830C94601F0E943F1081115F
:103EE00004C00E94E4100E94651F0E945C1F809322
:103EF0008802803220F087708861809388029091D8
:103F00008802892F817090FF04C0892F869586953D
:103F100086950C946D2080918802982F96959695A1
:103F20009695883140F49F5F990F990F990F87708C
:103F3000892B809388028091880281608093880217
:103F40000E94601F809188028695869586950C94C4
:103F50006D2080918802982F987F79F08850809307
:103F60008802887F91E009F490E08091880290FBBC
:103F700080F9809388020E94601F80918802869554
:103F8000869586950C946D208091880280FD13C0E3
:103F9000816080938802813019F489E080938802DF
:103FA000809188020E94601F809188028695869584
:103FB00086950C946D2008958091880280FF08C03A
:103FC0008E7F809388020E94601F80E00C946D2099
:103FD00008958091880280FD0C94DC1F0C94C41F0E
:103FE00090918802892F8695869586958F5F8F712F
:103FF0009770843020F4880F880F880F982B909347
:10400000880280918802887F91E009F490E0809195
:10401000880290FB80F9809388020E94601F809143
:1040200088028695869586950C946D20843008F0DC
:1040300083E0909188029770282F220F220F220F81
:10404000922B90938802987F21E009F420E09091D0
:10405000880220FB90F9909388020C946D200E94B6
:104060001620809188020C94601F9C01FB018281C4
:10407000882361F12F3BFCE53F07F9F060F42D3B0D
:10408000ECE53E07A9F02E3BFCE53F0799F02C3B01
:104090003C4549F00895203CECE53E0789F0213C81
:1040A0003C4589F0089583E00E942F2080E0089528
:1040B00080E0FACF0E94A91FF9CF0E948B1FF6CF94
:1040C0000E94E91FF3CF0E94F01FF0CF81E0089516
:1040D000269A2E9808952E980895CF93DF93CDB702
:1040E000DEB728970FB6F894DEBF0FBECDBF898329
:1040F000843060F581112CC0809180008F7D809389
:1041000080000E946B204981242F30E0AFEFBFEF89
:104110000E94362C23E030E040E050E00E94062C64
:10412000C9012C3764E13607C8F469E070E00E94E9
:10413000DE2B70938B0060938A0028960FB6F8945C
:10414000DEBF0FBECDBFDF91CF91089523E029835D
:1041500080918000806280938000D5CF2A50374DB7
:104160004F4F5F4FB42FA32F922F8827BC01CD0153
:1041700025EF38E241E050E00E94062C29833A8383
:104180004B835C83CA01B9010E94CE2B9B01AC0119
:1041900069817A818B819C810E94CE2BBB27A92FBC
:1041A000982F872FBC010097A140B10511F66FEF42
:1041B0007FEFBFCF08950E94682082E28093800045
:1041C00089E1809381008FEF9FEF90938700809328
:1041D00086000C946D1F9C01AB01219A65B16D7F27
:1041E00075B17260EFB7F894CA01880F991F840FF8
:1041F000951F820F931F8217930741F4EFBF8FE53E
:1042000094E00197F1F700C000000895D9014D91A5
:104210009D0158E075B9000000C047FF65B9440F23
:10422000000000C000C000C065B900C05A9591F7F9
:10423000E2CF0F931F93CF93DF93C42FD22FFC01B4
:1042400082818823C9F040934B020E949724909367
:104250004A028093490280E28C0F883008F050C0F7
:10426000C77081E001C0880FCA95EAF7DF91CF914E
:104270001F910F910C945A0610914B02141335C0E4
:104280008091490290914A020E94C324883C910582
:1042900060F5C0E2CD0F1D17B9F080E2810F8830C4
:1042A00040F4177081E001C0880F1A95EAF70E9468
:1042B0006106C83048F481E09D2F977001C0880FD7
:1042C0009A95EAF70E945A06802F0E945206C8303B
:1042D000B8F4D77081E001C0880FDA95EAF7DF9172
:1042E000CF911F910F910C94610680E28C0F883062
:1042F00038F4C77081E001C0880FCA95EAF7EFCFA4
:10430000DF91CF911F910F9108950F939C01CB01E5
:10431000243F4CE53407A1F190F4293DFCE53F072B
:1043200049F12A3D4CE53407E9F1283D3C45C1F00F
:10433000FC0182818823E1F110924B0219C0263FD3
:10434000FCE53F0719F1273F4CE5340729F1253FEC
:104350003C4571F707E225EE44EE65EF7CE505C0CC
:1043600006E221EE41EE68ED7CE50E94192180E035
:104370000F91089507E225EE45EE69ED7CE5F5CF56
:1043800006E221EE40EE64EF7CE5EFCF06E221EE9F
:1043900042EE66EF7CE5E9CF07E225EE46EE67EFF9
:1043A0007CE5E3CF08E221E045EE6AED7CE5DDCF78
:1043B00081E0DECFCF93DF93EC01FB018281882384
:1043C00009F4DFC0C430FDE5DF0710F5CB3F9CE505
:1043D000D90730F49E0122503C4524313105E0F4E8
:1043E0000E94521090937A0280937902C631FCE5C4
:1043F000DF0710F5C2308CE5D80788F48091790288
:1044000090917A020E9460100E94130980E004C01B
:10441000C236EDE5DE0721F3DF91CF910895FE016D
:10442000E350FC45809179028160E331F10518F594
:10443000EA53F04D0C94282CC4309DE5D90770F454
:10444000CB3FECE5DE07D0F2FE01EC5FFC45E83047
:10445000F105E0F4E752F04D0C94282CC236DD450E
:1044600069F690917902892F8F7E94FF806103C055
:1044700080917902826080937902C0CF8091790225
:104480008460F9CF809179028860F5CF80917A02BB
:10449000816080937A02B2CF80917A028260F9CFF4
:1044A000809179028061E7CF809179028062E3CFC9
:1044B000809179028064DFCF0E9413098091790294
:1044C0008068D9CF809179028C60D5CF80917A02B3
:1044D0008360DFCF809179028E7FCDCF809179028A
:1044E0008D7FC9CF809179028B7FC5CF8091790272
:1044F000877FC1CF80917A028E7FCBCF80917A0265
:104500008D7FC7CF809179028F7EB5CF8091790260
:104510008F7DB1CF809179028F7BADCF0E9413093F
:10452000809179028F77A7CF80917902837FA3CF83
:1045300080917A028C7FADCF8091790282FB99279E
:1045400090F921E0922790FB82F990FB83F993CFB9
:1045500080917A02982F909591708E7F892B90FB95
:1045600081F997CF0E94130990917902892F97FBC7
:1045700087F9805880CF81E00E94E6103FCF80E02D
:10458000FBCF81E049CFCF93DF93EB0186319C4590
:1045900011F50E94790F9A81992399F08A7A91E016
:1045A00009F490E090934C02811109C089E20E94C5
:1045B000330F0E94CC0F80E0DF91CF91089585E307
:1045C000F6CF80914C02811104C089E20E943A0F1B
:1045D000F0CF85E3FBCF81E0EFCF90935202809341
:1045E00051020895E0915102F0915202309721F06A
:1045F0000190F081E02D099480E00895DC01E091C4
:104600005102F0915202309799F08091270188234E
:1046100051F08091790287FF06C08C9111968C939E
:10462000119785E08C930280F381E02DCD010994F0
:104630000895DC01E0915102F0915202309739F077
:1046400082E08C930480F581E02DCD0109940895DA
:1046500020914F02309150022817390771F0909342
:10466000500280934F02E0915102F0915202309734
:1046700021F00680F781E02D0994089520914D02E4
:1046800030914E022817390771F090934E028093B3
:104690004D02E0915102F0915202309721F00084D6
:1046A000F185E02D09940895FC013296809127014F
:1046B000882321F0809179029EE187FF96E080E0D7
:1046C000915008F4089521912223D1F38F5FF8CF00
:1046D0009C01662301F1809127018823F1F08091EC
:1046E000790287FF1AC0462F469546954695603F4A
:1046F00090F4677081E090E002C0880F991F6A957E
:10470000E2F7240F311DF901228130E028233923FB
:1047100081E0232B71F480E00895F9013296285F3F
:104720003F4F8191861721F0E217F307D1F7F3CFBE
:1047300081E008959C01FC0132968FEF90E0419159
:10474000461751F08F3F19F4411101C0892F9F5F27
:104750009630A9F78F3F09F40895280F311D87FD82
:104760003A95F901628308959C01FC013296285F15
:104770003F4F8191861303C0DF0111971C92E2170E
:10478000F307B9F70895FC01862F869586958695DF
:10479000603F60F4E80FF11D677021E030E001C078
:1047A000220F6A95EAF78281822B82830895FC01A9
:1047B000862F869586958695603F68F4E80FF11DF3
:1047C000677081E090E001C0880F6A95EAF78095F4
:1047D000928189238283089520912701222329F041
:1047E0002091790227FD0C94C3230C949A232091E5
:1047F0002701222329F02091790227FD0C94D72349
:104800000C94B423FC01329680912701882351F047
:104810008091790287FF06C08EE1DF011D928A95A3
:10482000E9F7089586E0F9CF0895089508950C9466
:10483000162480919102843061F10E94172480E057
:104840000E946D2080E00E9402051092530288E1D0
:1048500090E020E40FB6F894A895809360000FBE16
:104860002093600083B7817F846083BF83B78160BA
:1048700083BF7894889583B78E7F83BF0FB6F894F3
:10488000A89580916000886180936000109260001C
:104890000FBE089508950E9415240E94A6140E9438
:1048A0004A2480E00E941414982F81E0911101C0E5
:1048B00080E0089508950C945A240E9413090E94E0
:1048C0006D1F0E94F2220E9402050C945B241F922D
:1048D0001FB61F9211248F939F93AF93BF93809124
:1048E0005302811113C08091890290918A02A09194
:1048F0008B02B0918C024196A11DB11D809389025B
:1049000090938A02A0938B02B0938C02BF91AF91D7
:104910009F918F911F901FBE1F90189582E084BDBC
:1049200093E095BD9AEF97BD80936E0008952FB7E1
:10493000F8948091890290918A02A0918B02B091A3
:104940008C022FBF0895CF93DF9300D000D0CDB756
:10495000DEB78FB7F8942091890230918A02409196
:104960008B0250918C0229833A834B835C838FBFE7
:1049700069817A818B819C810F900F900F900F90AD
:10498000DF91CF9108959C014FB7F89480918902EF
:1049900090918A02A0918B02B0918C024FBF821B32
:1049A000930B089578941F921FB61F9211248F9332
:1049B0009F93AF93BF938091890290918A02A091B7
:1049C0008B02B0918C020196A11DB11D80938902CA
:1049D00090938A02A0938B02B0938C02BF91AF9107
:1049E0009F918F911F901FBE1F90189581E080931B
:1049F000E00080E28093D8001092C9008FE19EE42D
:104A00000197F1F700C0000087E090EBDC01809394
:104A10009A0290939B02A0939C02B0939D0288E11E
:104A20009CE00FB6F894A895809360000FBE909319
:104A30006000FFCF9093B1018093B0010895809101
:104A40007702089590919102943031F58093540249
:104A5000609355027093560282E08093E9008FEFD5
:104A60009091E800815095FD06C095ED9A95F1F77B
:104A700000008111F5CF8091E80085FF0DC050E066
:104A800040E063E070E084E592E00E94432780917B
:104A9000E8008E778093E8000895BC0184E00C94D0
:104AA0002225BC0183E00C94222522E02093E9001A
:104AB0002FEF3091E800215035FD06C035ED3A95D5
:104AC000F1F700002111F5CF2091E80025FF0BC080
:104AD00050E040E066E070E00E9443278091E800EB
:104AE0008E778093E8000895CF93DF93D82FC92F56
:104AF000809127018823C1F18091790287FF34C01A
:104B000060E282E08093E9008FEF9091E8008150AD
:104B100095FD06C095ED9A95F1F700008111F5CF4E
:104B20008091E80085FF1DC08091270170E050E072
:104B300040E0811104C050E040E068E070E08D2F5B
:104B40009C2F0E9443278091E8008E778093E80095
:104B500080E2ED2FFC2FA7E5B2E001900D928A953F
:104B6000E1F7DF91CF91089568E081E0CBCF8091AC
:104B70009002811109C00E94CB280E9428298091AF
:104B8000E20084608093E2000895109290020895FC
:104B900008950895089542E061EC81E00E9447285D
:104BA00042E261EC82E00C944728809193028930C4
:104BB00089F148F4823009F49DC0833009F458C06B
:104BC000813041F008958A3009F484C08B3009F4B3
:104BD0006AC0089580919202813A09F048C080919C
:104BE000E800877F8093E800809196029091970279
:104BF000892B61F460E287E592E070E00E949227E1
:104C00008091E8008B778093E800089560E090E061
:104C100080E0F3CF80919202813249F58091960233
:104C200090919702029718F58091E800877F809312
:104C3000E8008091E80082FF16C09091F300809117
:104C4000F200029729F48091F1008B7F813021F4EA
:104C50008091F100809377028091E8008B778093B8
:104C6000E8000C947B28809191028111E2CF089595
:104C700080919202813AD9F78091960290919702A1
:104C8000892BA9F78091E800877F8093E8008091C5
:104C9000E80080FFFCCF809127018093F100809194
:104CA000E8008E77DCCF80919202813201F780910B
:104CB000960290919702892BD1F68091E800877F28
:104CC0008093E8000E947B288091940280932701C2
:104CD0000C94130980919202813249F68091E80088
:104CE000877F8093E8000E947B28809195028093C3
:104CF0007802089580919202813A09F0B8CF8091AC
:104D0000E800877F8093E8008091E80080FFFCCF77
:104D100080917802C2CF84B7877F84BF0FB6F894A2
:104D2000A895809160008861809360001092600077
:104D30000FBE80E890E00FB6F894809361009093E6
:104D400061000FBE0C940C110E94CB280E942829F0
:104D5000E2EEF0E080818460808378940E94B42B3E
:104D60000E9420118DE191E00C94ED22809191023E
:104D7000853031F480919102853021F00E945D24CC
:104D80000C942A110E94192480918F02882391F398
:104D90000E944B24882371F30E942D270E9413093F
:104DA000E9CF0C94D326FC01CB01DA012F2F332756
:104DB00023303105D1F070F42130310509F43EC0C3
:104DC0002230310569F48BE390E029EA33E02D933A
:104DD0003C93089521323105E9F02232310521F169
:104DE00090E080E030E020E0F2CFCF019927E13081
:104DF00059F08230910559F0E5EAF3E0892B81F70B
:104E0000849190E09F01E3CFEDE8F3E0F9CFE9E78B
:104E1000F3E0F6CF892BB9F06130710509F789E02D
:104E200090E024ED33E0D3CF892B91F06130710510
:104E3000B9F686EB90E026EF33E0C9CF82E190E04F
:104E400024EE33E0C4CF89E090E02BEB33E0BFCF1A
:104E500080E490E02CEA34E0BACF80E189BD82E1C1
:104E600089BD09B400FEFDCF8091D8008F7D80936D
:104E7000D8008091E00082608093E0008091E000A3
:104E800081FDFCCF0895AF92BF92CF92DF92FF9247
:104E90000F931F93CF93DF936C01EB018A010E9464
:104EA0009A28F82E811123C00115110539F0F80157
:104EB00080819181C81BD90BC80ED91EB12CA12CA1
:104EC0002097A9F08091E80085FD22C08091E8003C
:104ED0008E778093E80001151105A1F0F80180811B
:104EE00091818A0D9B1D9183808385E0F82E8F2D03
:104EF000DF91CF911F910F91FF90DF90CF90BF90E6
:104F0000AF9008950E949A288823D1F2F82EEFCF0F
:104F1000F60181916F018093F1002197FFEFAF1AA5
:104F2000BF0ACECFFC01CB012091980230919902AB
:104F30002617370790F0009729F42091E8002E7784
:104F40002093E80040E0009751F4411108C080919F
:104F5000E80082FF31C080E00895C901F3CF2091BD
:104F600091022223A9F12530A9F12091E80023FD27
:104F70002DC02091E80022FDEACF2091E80020FF1B
:104F8000E2CF3091F3002091F200009719F0283021
:104F9000310558F041E02830310509F040E020911A
:104FA000E8002E772093E800CECF41914093F100A6
:104FB00001972F5F3F4FE9CF80919102882341F005
:104FC000853041F08091E80083FFC1CF81E00895F2
:104FD00082E0089583E00895FC01CB0120919802BE
:104FE000309199022617370790F0009729F4209105
:104FF000E8002E772093E80040E0009751F441113B
:1050000008C08091E80082FF32C080E00895C901A5
:10501000F3CF209191022223B1F12530B1F12091FB
:10502000E80023FD2EC02091E80022FDEACF209168
:10503000E80020FFE2CF3091F3002091F2000097CA
:1050400019F02830310558F041E02830310509F0D9
:1050500040E02091E8002E772093E800CECF4491E5
:105060004093F100319601972F5F3F4FE8CF809139
:105070009102882341F0853041F08091E80083FF60
:10508000C0CF81E0089582E0089583E00895982FCD
:10509000973028F08F708093E90081E00895909315
:1050A000E900242F762F50E0981731F07091EC0032
:1050B0002091ED005091F00021FD02C09F5FE8CFEC
:1050C0003091EB003E7F3093EB003091ED003D7F5F
:1050D0003093ED003091EB0031603093EB00709332
:1050E000EC002093ED005093F0002091EE0027FD9E
:1050F000E5CF80E008958091920287FF13C08091F0
:10510000E80082FF06C08091E8008B778093E8007A
:1051100004C0809191028111F2CF08958091910293
:105120008823D9F38091E80080FFF8CF8091E800D0
:105130008E77ECCF2091E4003091E50095E6A9014F
:105140002091EC00822F817020FF06C08091E80042
:1051500080FF06C080E008952091E80022FD1AC07B
:1051600080919102882389F0853089F08091EB004D
:1051700085FD0FC02091E4003091E50042175307F0
:10518000F9F29150E1F684E0089582E0089583E019
:10519000089581E008950E9439290E944129E0EE96
:1051A000F0E0808181608083E8EDF0E080818F779E
:1051B000808319BCA7EDB0E08C918E7F8C938081A9
:1051C0008F7E80831092900208950F931F93CF9348
:1051D000DF930E9439290E944129C8EDD0E08881DF
:1051E0008F77888388818068888388818F7D888392
:1051F00019BC1092910210928D0210928F0210929F
:105200008E0200EE10E0F80180818B7F8083888120
:105210008160888342E060E080E00E944728E1EE00
:10522000F0E080818E7F8083E2EEF0E0808181601B
:105230008083808188608083F80180818E7F808375
:10524000888180618883DF91CF911F910F910895AC
:10525000E8EDF0E080818F7E8083E7EDF0E08081F3
:105260008160808384E082BF81E0809390020C940F
:10527000E528E8EDF0E080818E7F80831092E200E7
:1052800008951092DA001092E10008951F920F9293
:105290000FB60F9211242F933F934F935F936F9309
:1052A0007F938F939F93AF93BF93EF93FF938091DF
:1052B000E10082FF0BC08091E20082FF07C0809175
:1052C000E1008B7F8093E1000E94B32B8091DA0094
:1052D00080FF19C08091D80080FF15C08091DA004E
:1052E0008E7F8093DA008091D90080FF94C080E1A6
:1052F00089BD82E189BD09B400FEFDCF81E08093C4
:1053000091020E94B7258091E10080FF19C0809131
:10531000E20080FF15C08091E2008E7F8093E20062
:105320008091E20080618093E2008091D8008062E9
:105330008093D80019BC85E0809391020E94C92512
:105340008091E10084FF29C08091E20084FF25C0A4
:1053500080E189BD82E189BD09B400FEFDCF809165
:10536000D8008F7D8093D8008091E1008F7E80935C
:10537000E1008091E2008F7E8093E2008091E20064
:1053800081608093E20080918D02882309F449C0F6
:1053900084E0809391020E94CA258091E10083FFFE
:1053A00029C08091E20083FF25C08091E100877FC2
:1053B0008093E10082E08093910210928D028091AF
:1053C000E1008E7F8093E1008091E2008E7F8093E8
:1053D000E2008091E20080618093E20042E060E0C0
:1053E00080E00E9447288091F00088608093F00060
:1053F0000E94C825FF91EF91BF91AF919F918F912E
:105400007F916F915F914F913F912F910F900FBEC0
:105410000F901F90189519BC109291020E94C525FB
:1054200072CF8091E30087FD02C081E0B2CF83E0BC
:10543000B0CF1F920F920FB60F921124FF920F93CD
:105440001F932F933F934F935F936F937F938F930C
:105450009F93AF93BF93CF93DF93EF93FF9309EEA7
:1054600010E0F8018081C091EC00C795CC27C7956A
:105470008F70FC2EF82A1082C0EFD0E08881877FE1
:10548000888378940E94622AF8011082888188605B
:105490008883CF2DCF70C083FF91EF91DF91CF91A3
:1054A000BF91AF919F918F917F916F915F914F913C
:1054B0003F912F911F910F91FF900F900FBE0F9072
:1054C0001F9018951F93CF93DF93CDB7DEB7AA97A0
:1054D0000FB6F894DEBF0FBECDBF82E992E0FC01AB
:1054E00001962091F100208322E08A399207B9F7D2
:1054F0000E94D5258091E80083FF1DC18091920212
:10550000909193029A3008F016C1E92FF0E0EF5124
:10551000F04D0C94282C803899F0823809F00BC19A
:10552000809196028F70873008F005C18093E90062
:105530008091EB0085FB882780F91092E90006C076
:1055400080918E0290918F02911182609091E8007B
:10555000977F9093E8008093F1001092F100809182
:10556000E8008E77E4C0882309F4D2C0823009F0C5
:10557000E2C0809194028111D5C0809196028F7013
:105580002FEF280F263008F0D6C08093E900209135
:10559000EB0020FFC7C0933031F48091EB008062B4
:1055A0008093EB00BFC09091EB0090619093EB0073
:1055B00021E030E001C0220F8A95EAF72093EA004B
:1055C0001092EA008091EB008860EACF8111B3C0AD
:1055D000109194021F778091E3008078812B809353
:1055E000E3008091E800877F8093E8000E947B2899
:1055F0008091E80080FFFCCF8091E3008068809379
:10560000E30082E0111183E08093910294C08058FE
:10561000823008F090C080919402909195028C3D68
:1056200023E0920799F583E08A838AE289834FB762
:10563000F894DE01139620E03EE051E2E32FF0E023
:1056400050935700849120FF03C082958F703F5F75
:105650008F708A30C8F0895C90E08D939D932F5FA6
:10566000243161F74FBF8091E800877F8093E80085
:105670006AE270E0CE0101960E9492278091E800D4
:105680008B778093E80057C0805DE6CF60919602EB
:1056900070919702AE014F5F5F4F0E94D126BC010F
:1056A000892B09F448C08091E800877F8093E80047
:1056B00089819A810E94EC27E1CF8038E1F58091C1
:1056C000E800877F8093E80080918D028093F1004D
:1056D00046CF811130C090919402923060F5809154
:1056E000E800877F8093E80090938D020E947B28DA
:1056F00080918D02882311F084E005C08091E30041
:1057000087FDFACF81E0809391020E94CB2513C0E0
:1057100080919402813079F481E0933009F080E047
:1057200080938F021092E9008091E800877F809338
:10573000E8000E947B288091E80083FF0AC08091E6
:10574000E800877F8093E8008091EB00806280937F
:10575000EB00AA960FB6F894DEBF0FBECDBFDF9167
:10576000CF911F9108950895CF938091910288233E
:1057700099F08091E900C091EC00C795CC27C795BE
:105780008F70C82B1092E9008091E80083FD0E9481
:10579000622ACF70C093E900CF910895DB018F9307
:1057A0009F930E944C2CBF91AF91A29F800D911DA1
:1057B000A39F900DB29F900D11240895AA1BBB1BAF
:1057C00051E107C0AA1FBB1FA617B70710F0A61B01
:1057D000B70B881F991F5A95A9F780959095BC0122
:1057E000CD01089597FB072E16F4009407D077FD9E
:1057F00009D00E94DE2B07FC05D03EF490958195E0
:105800009F4F0895709561957F4F0895A1E21A2EDC
:10581000AA1BBB1BFD010DC0AA1FBB1FEE1FFF1F54
:10582000A217B307E407F50720F0A21BB30BE40BA4
:10583000F50B661F771F881F991F1A9469F76095EB
:105840007095809590959B01AC01BD01CF010895A5
:10585000EE0FFF1F0590F491E02D09940E94362C65
:10586000332312F48A1B9B0B0C94472CA29FB0018C
:10587000B39FC001A39F700D811D1124911DB29F84
:10588000700D811D1124911D08950E94362CB7FFC3
:105890000895821B930B08950E94362CA59F900DAE
:1058A000B49F900DA49F800D911D11240895B7FF02
:1058B0000C944C2C0E944C2C821B930B0895FB01E2
:1058C000DC0102C005900D9241505040D8F7089578
:1058D000FC014150504030F001900616D1F731974D
:1058E000CF010895882799270895AEE0B0E0EBE74F
:1058F000FCE20C94652F0D891E8986E08C831A8347
:1059000009838FEF9FE79E838D83AE01475E5F4FD4
:105910006F89788DCE0101960E94982C2F81388551
:10592000020F131FF80110822E96E4E00C94812FD1
:10593000AFE0B0E0EEE9FCE20C94572F7C013B01B4
:105940008A01DC0117961C921E92169713968C9171
:1059500081FFBEC19AE0292EFE0131964F01D70189
:1059600013969C91F30193FD859193FF81913F01E3
:10597000882309F444C1853239F493FD859193FF5E
:1059800081913F01853229F4B70190E00E94812E78
:10599000E6CFB12C412C512CBFE1B51538F08B323C
:1059A00009F188F4803201F1833221F157FC3AC0C9
:1059B00020ED280F2A3040F556FE1FC0B29C200D66
:1059C0001124B22E06C08D3291F0803379F768949D
:1059D00050F8F30193FD859193FF81913F0181116F
:1059E000DBCF20C0689451F8689452F8F2CF6894E5
:1059F00053F8EFCF689454F8ECCF429C200D11245B
:105A0000422E689455F8E5CF8E3229F456FCF7C043
:105A1000689456F8DECF8C3619F4689457F8D9CFCD
:105A20008836B9F2982F9F7D95549330C0F0833615
:105A3000A1F18337C1F1833509F05BC0D801CD9066
:105A4000DD908D016B2D70E056FC02C06FEF7FEF93
:105A5000C6010E946B2E5C01689457F80AC00C5F67
:105A60001F4FEFE3E983AA24A394B12C6401E894C7
:105A700057F853FC04C04A141B0409F018F5342CE1
:105A8000A114B10431F5332009F469CFB70180E2E4
:105A900090E00E94812E3A94F6CFD8018C918983B0
:105AA0000E5F1F4FE0CFF801C190D1908F016B2D99
:105AB00070E056FC02C06FEF7FEFC6010E94762EA9
:105AC0005C01D5CFB70180E290E00E94812E4A941C
:105AD000D2CFF60157FC859157FE81916F01B70136
