:100000000C941E020C9465020C9465020C9465021B
:100010000C9465020C9465020C9465020C946502C4
:100020000C9465020C9465020C9482270C9455285C
:100030000C94A3220C9465020C9465020C94650246
:100040000C9465020C9465020C9465020C94650294
:100050000C9465020C940E230C9465020C946502BA
:100060000C9465020C9465020C9465020C94650274
:100070000C9465020C9465020C9465020C94650264
:100080000C9465020C9465020C9465020C94650254
:100090000C9465020C9465020C9465020C94650244
:1000A0000C9465020C9465020C946502E000060055
:1000B000190000047F3F1F643214643214783C1E20
:1000C0001E140A052223252628292A2C2D2F3032FA
:1000D000333536383A3B3D3E4042434547494A4C2A
:1000E0004E5051535557595A5C5E60626466686958
:1000F0006B6D6F71737577797B7D7F818385878960
:100100008A8C8E90929496989A9C9E9FA1A3A5A764
:10011000A8AAACAEAFB1B3B4B6B8B9BBBCBEBFC190
:10012000C2C3C5C6C7C9CACBCCCDCED0D1D2D2D31B
:10013000D4D5D6D7D7D8D9D9DADADBDBDBDCDCDC2F
:10014000DCDCDDDDDDDDDCDCDCDCDCDBDBDBDADAF2
:10015000D9D9D8D7D7D6D5D4D3D2D2D1D0CECDCC69
:10016000CBCAC9C7C6C5C3C2C1BFBEBCBBB9B8B67E
:10017000B4B3B1AFAEACAAA8A7A5A3A19F9E9C9A09
:1001800098969492908E8C8A89878583817F7D7BD7
:1001900079777573716F6D6B6968666462605E5CB8
:1001A0005A5957555351504E4C4A4947454342407E
:1001B0003E3D3B3A3836353332302F2D2C2A292814
:1001C00026252322FFAA7F554000010101010101DC
:1001D00001010102020202020202020203030303FE
:1001E00003030303040404040404040505050505CE
:1001F000060606060607070707070808080809098C
:1002000009090A0A0A0B0B0B0C0C0C0D0D0D0E0E36
:100210000E0F0F0F101011111112121313141415C9
:100220001516161717181819191A1A1B1B1C1D1D3D
:100230001E1E1F2020212222232424252626272893
:1002400029292A2B2C2D2D2E2F30313232333435C3
:10025000363738393A3B3C3D3E3F404142434445C6
:10026000464748494A4C4D4E4F50515354555658A5
:10027000595A5B5D5E5F616264656668696B6C6D4F
:100280006F7072737577787A7B7D7E8082838587C5
:10029000888A8C8E8F91939596989A9C9EA0A2A303
:1002A000A5A7A9ABADAFB1B3B5B7BABCBEC0C2C408
:1002B000C6C9CBCDCFD1D4D6D8DBDDDFE2E4E7E9C8
:1002C000EBEEF0F3F5F8FAFDFF12036B0065007931
:1002D0000062006F0061007200640000001603718C
:1002E000006D006B006200750069006C00640065C1
:1002F00000720000000403090409023B000201002F
:10030000A0FA090400000103010100092111010004
:10031000012240000705810308000A0904010001C9
:100320000300000009211101000122B60007058227
:100330000320000A1201000200000008EDFE6060C8
:1003400001000102000105010902A1018502090164
:10035000A100050919012908150025019508750155
:1003600081020501093009311581257F9502750843
:10037000810609381581257F950175088106050CD0
:100380000A38021581257F950175088106C0C005D0
:10039000010980A101850319012AB700150126B7BB
:1003A00000950175108100C0050C0901A1018504AB
:1003B00019012AA002150126A002950175108100DD
:1003C000C005010906A1018505050719E029E71502
:1003D0000025019508750181020507190029EF150F
:1003E00000250195F075018102050819012905957F
:1003F0000575019102950175039101C0050109067A
:10040000A101050719E029E71500250195087501E7
:1004100081029501750881010507190029FF150062
:1004200026FF009506750881000508190129059524
:100430000575019102950175039101C011241FBE3C
:10044000CFEFDAE0DEBFCDBF04B603FE27C0809158
:10045000940290919502A0919602B09197028730F4
:10046000904BA740B04BD1F4109294021092950299
:10047000109296021092970214BE84B7877F84BFB1
:100480000FB6F894A8958091600088618093600011
:10049000109260000FBEE0E0F8E3099511E0A0E0E3
:1004A000B1E0ECEAF6E502C005900D92AC3AB10776
:1004B000D9F722E0ACEAB1E001C01D92A439B2073D
:1004C000E1F70E944C130C94F92A0C94000090E080
:1004D00080E008950895089581E0089581E00895E9
:1004E0000C946C0208950C9472021F93CF93DF93C7
:1004F00000D000D00F92CDB7DEB749835A836B830B
:100500003091AE0189819A8131111DC06623B9F005
:100510002223A9F00E94CE09182F682F89819A8181
:100520000E94790969817A81812F0F900F900F9035
:100530000F900F90DF91CF911F910C94EE0F0E94BE
:10054000A609182FEFCF0E94CE0969817A81EDCFDD
:10055000FC01262F408151816281738184810C943A
:10056000750281E00895CF93DF93D82FC92F60E003
:100570000E94A8026D2F7C2FDF91CF910C94730203
:100580000E9417120E9440030E94171F0C944F12E2
:100590000C94511208950E9452070E94CA022FEF34
:1005A00084E39CE0215080409040E1F700C00000CF
:1005B0000C9432230F931F93CF93DF938C0161E050
:1005C0000E94A802EC01B8010E947002882309F47D
:1005D00041C0B801CE010E94711E8823D9F1B80133
:1005E000CE010E94C11F8823A9F1B801CE010E944B
:1005F0001620882379F1B801CE010E94FF208823BC
:1006000049F1B801CE010E941B1D882319F1F801A0
:100610008281882361F0CB35FDE5DF0721F170F49D
:10062000C115ECE5DE07A1F0CF3DDC45C9F0C801FE
:10063000DF91CF911F910F910C946E02CC358DE517
:10064000D807A1F0CD35DD4591F70E94A90DEFCF78
:100650000E94CB0280E0DF91CF911F910F9108950E
:100660000E94230FF7CF0E94B20DE1CF0E94B50D7B
:10067000DECF08950C94390381E008950C943C0377
:100680000895CF93C82F0E943A038C2FCF910C94DA
:100690003E03EF92FF920F931F93CF93DF93CDB75B
:1006A000DEB72B970FB6F894DEBF0FBECDBF042F79
:1006B0004F83152F588769877A878B87EA84FB8455
:1006C00061110E94DA0D1E8285E0FE013796DE017F
:1006D000119601900D928A95E1F7EF28A9F44981CE
:1006E0005A816B817C818D819E810E94D80C2B96D2
:1006F0000FB6F894DEBF0FBECDBFDF91CF911F9133
:100700000F91FF90EF90089510231F3F41F3CE010A
:1007100001960E94B1028111E2CFE9CFFC018081F4
:1007200091810C94100ACF93C82F882309F48AC0B2
:100730008238C1F40E942E2181FD84C089E30E9489
:10074000720D0E940B0E2FEF31EE84E021503040ED
:100750008040E1F700C0000089E30E94790DCF914D
:100760000C940B0E8338A1F40E942E2180FD6AC0E8
:1007700083E50E94720D0E940B0E9FEF21EE34E084
:10078000915020403040E1F700C0000083E5E5CF04
:100790008438A1F40E942E2182FD54C087E40E9477
:1007A000720D0E940B0E8FEF91EE24E0815090406D
:1007B0002040E1F700C0000087E4CFCF8CEF8C0F22
:1007C000813A90F46C2F80910001909101010E9478
:1007D000A421882329F08C2F0E94790D0E940B0EF2
:1007E0008C2F0E94720DBBCF80E28C0F883048F4B2
:1007F000C77081E001C0880FCA95EAF70E94BB0D5F
:10080000AECF8BE58C0F833038F42C2F2452330B72
:10081000C901CF910C946421E8E5EC0FE73150F465
:10082000F0E0EE0FFF1FE85DFE4F80819181CF91D8
:100830000C947A21CD3E30F08C2F0E94DA13CF91A8
:100840000C949C14CF910895882309F452C08238E7
:1008500071F40E942E2181FF4CC089E30E94720D29
:100860000E940B0E89E30E94790D0C940B0E8338C5
:1008700059F40E942E2180FF3CC083E50E94720D36
:100880000E940B0E83E5EFCF843859F40E942E218D
:1008900082FF2FC087E40E94720D0E940B0E87E436
:1008A000E2CF9CEF980F913AF0F290E2980F9830D7
:1008B00050F4877091E001C0990F8A95EAF7892F6B
:1008C0000E94C10DD2CF9BE5980F933020F490E0A9
:1008D00080E00C94642198E5980F973120F490E023
:1008E00080E00C947A218D3E20F00E9423140C9419
:1008F0009C1408951F93CF93DF93182FEB010E9450
:100900009303209731F4812FDF91CF911F910C94A5
:1009100024048FE99FE00197F1F700C000002197C0
:10092000F0CF70E060E0893311F460E570E00C9482
:100930007A04882321F00E94BB0D0C940B0E0895BD
:10094000882321F00E94C10D0C940B0E0895AF92E4
:10095000BF92CF92DF92EF92FF920F931F93CF93AC
:10096000DF9300D000D00F92CDB7DEB76C016D835E
:100970007983FC011281058102950F700E94900D10
:10098000E82E8823A1F0E12E112389F08981807F50
:10099000803429F08D81805EE12C883040F082E047
:1009A0000E945C0E0E94900D91E0E82EE926A9803D
:1009B000A2949FE0A922B12CF501E550F54D0C94CD
:1009C000642A09810F70F981F07F11F00295007F90
:1009D0001123B1F0002361F08D81805E883018F022
:1009E0001D81111109C0802F0E94BB0D0E940B0EAA
:1009F0008D810E94930315C0802F0E94CC0DF6CFED
:100A00008D810E942404002361F08D81805E8830F6
:100A100018F01D81111133C0802F0E94C10D0E945A
:100A20000B0E98E0A91AB108E4E0AE16B10420F468
:100A30000E942E210E944103EE2009F4CEC10E94A3
:100A40008C0D80FDCAC1F60112820E94860D0E94A3
:100A50006908C6010E9414070E94860D0F900F902E
:100A60000F900F900F90DF91CF911F910F91FF90FA
:100A7000EF90DF90CF90BF90AF900C949A08802FAA
:100A80000E94D20DCCCF29812F70F22E3981307F78
:100A9000303219F0F29480EFF8228D81882369F0CA
:100AA000813049F1112391F1002351F1F601858143
:100AB00080FF9ECF8F70858323C0112381F00111A9
:100AC00006C00E94EE0D8F290E949904AACF013022
:100AD000C1F70E94EE0D8F290E94F40DA2CF0111E3
:100AE00006C00E94010E8F2D0E94A0049ACF0130F3
:100AF00009F497CFF6CF112329F0063008F091CFF3
:100B00008F2DE2CF053008F08CCFEDCF002359F3C5
:100B10000D81093349F41FEF27EE33E011502040D7
:100B20003040E1F700C000008D810E94240479CF9D
:100B3000898186958695837069F0813009F071CF3F
:100B40008D8199819370111102C090E080E00E9424
:100B50007A2167CF8D8199819370111102C090E045
:100B600080E00E9464215DCF8D81112329F00E94D5
:100B7000DA130E949C1455CF0E942314FACF898166
:100B8000837009F050C011114CCF2D81229526950C
:100B90002770220F220F4D814F7050E070E060E00F
:100BA000022E04C0440F551F661F771F0A94D2F708
:100BB0000D8180E090E0DC0104FF0FC08FE090E049
:100BC000A0E0B0E004C0880F991FAA1FBB1F2A95A0
:100BD000D2F780959095A095B095198116951695A8
:100BE00013701D838C019D01042B152B262B372B95
:100BF00009831A832B833C831D8169817A818B81D0
:100C00009C81123051F0133059F0113019F00E94CC
:100C1000DF0707CF0E94B70704CF0E94070801CF64
:100C20000E94B507FECE112309F448C0098100FFD8
:100C3000F8CE2D81229526952770220F220F4D8107
:100C40004F7050E070E060E0022E04C0440F551F6A
:100C5000661F771F0A94D2F70D8180E090E0DC01D7
:100C600004FF0FC08FE090E0A0E0B0E004C0880F68
:100C7000991FAA1FBB1F2A95D2F780959095A09522
:100C8000B09519811695169513701D838C019D01E1
:100C9000042B152B262B372B09831A832B833C839C
:100CA0001D8169817A818B819C81123071F01330B2
:100CB00079F0113039F00E942809B3CE198111FF63
:100CC000B0CEB7CF0E940009ACCE0E945009A9CE89
:100CD0000E943308A6CE09810F700983112329F0E1
:100CE000802F0E9469088D81EFCE8D810E94A00423
:100CF00089810E949A0895CE2D81223FA1F160F44E
:100D0000203FE1F0213F41F1112309F445C00111D9
:100D10006FCE89818F7124C03D81333F49F1343FCB
:100D200099F7112379F109810F710983802F0E94AE
:100D3000690863E089810E94410E73CE112341F05E
:100D4000053008F06ECE89818F710E94CF0869CE80
:100D5000063008F066CEF7CF89818F71112349F2F2
:100D60000E9469085ECE89818F711123C9F3C1CFBA
:100D7000112329F089818F710E94440852CE0E946C
:100D80003F084FCE81E00E945C0E023008F449CE4D
:100D900082E00E945C0E45CE002361F01D81193374
:100DA00009F0C2CE2FEF37EE83E021503040804073
:100DB000E1F7B8CE89818F719CCF49814F706D81E9
:100DC000C6010E9467020E94460A2BCE49814F70DD
:100DD0006D81C6010E94ED0F24CE0F900F900F90F1
:100DE0000F900F90DF91CF911F910F91FF90EF9097
:100DF000DF90CF90BF90AF9008950F931F93CF9344
:100E0000DF93EC01688179818A810E941C0A8C0140
:100E10000E9478090E94B407B801CE01DF91CF91FA
:100E20001F910F910C94A704CF93DF93EC0198814D
:100E300089812B813C81232B19F089238F3F59F421
:100E4000DF91CF910895CE010E94FD06CE01DF9182
:100E5000CF910C94B302CE010E94DA028111F3CF3C
:100E60000E94900D882361F38A81882349F382E0F0
:100E7000DF91CF910C945C0E90E080E00E946421A1
:100E800090E080E00E947A210E94DA0D0E94EB0D32
:100E90000E940B0E0E94C7150C949C140E94800D9A
:100EA0000C943C070E94C90D0C944E07282F892FE3
:100EB00082958F70903C80F48A30B0F4843020F4B6
:100EC000823090F480E008958630E1F781E0283E9A
:100ED00088F0213FB9F70EC08C3011F08F3091F7B8
:100EE00093FB882780F9089581E0203F39F018F4BA
:100EF000283E40F70895243F29F7FCCF0895FC01D0
:100F0000808191810E94100A0C945607CF93DF9341
:100F100000D000D00F92CDB7DEB70F900F900F909A
:100F20000F900F90DF91CF910895CF93DF9300D072
:100F300000D000D0CDB7DEB726960FB6F894DEBF4E
:100F40000FBECDBFDF91CF91089508950C94A507F2
:100F50000E94A6076093B8017093B9018093BA010B
:100F60009093BB010C943C0708950C94A807CF9371
:100F7000DF9300D000D0CDB7DEB769837A838B834F
:100F80009C838091B8019091B901A091BA01B09170
:100F9000BB0129813A814B815C81282B392B4A2B5B
:100FA0005B2B29833A834B835C83CA01B9010F9081
:100FB0000F900F900F90DF91CF910C94A807CF93D3
:100FC000DF9300D000D0CDB7DEB769837A838B83FF
:100FD0009C838091B8019091B901A091BA01B09120
:100FE000BB0129813A814B815C81282339234A2323
:100FF0005B2329833A834B835C83CA01B9010F9039
:101000000F900F900F90DF91CF910C94A807CF9382
:10101000DF9300D000D0CDB7DEB769837A838B83AE
:101020009C838091B8019091B901A091BA01B091CF
:10103000BB0129813A814B815C81282739274A27C6
:101040005B2729833A834B835C83CA01B9010F90E4
:101050000F900F900F90DF91CF910C94A8070C94F4
:10106000A5070C942F080E9431086093B401709377
:10107000B5018093B6019093B7010C943C0760E0F2
:1010800070E0CB010C9433080F931F93CF93DF9341
:1010900000D000D0CDB7DEB741E050E060E070E0B6
:1010A0008A019B0104C0000F111F221F331F8A9564
:1010B000D2F709831A832B833C83C901B8010F90AF
:1010C0000F900F900F90DF91CF911F910F910C9483
:1010D00033080F931F93CF93DF9300D000D0CDB789
:1010E000DEB741E050E060E070E004C0440F551FFF
:1010F000661F771F8A95D2F78091B4019091B50150
:10110000A091B601B091B7018A019B01082B192B60
:101110002A2B3B2B09831A832B833C83C901B801FB
:101120000F900F900F900F90DF91CF911F910F9123
:101130000C9433080F931F93CF93DF9300D000D00C
:10114000CDB7DEB741E050E060E070E004C0440F8E
:10115000551F661F771F8A95D2F740955095609569
:1011600070958091B4019091B501A091B601B091B4
:10117000B7018A019B01082319232A233B230983F2
:101180001A832B833C83C901B8010F900F900F90F5
:101190000F90DF91CF911F910F910C9433080F9313
:1011A0001F93CF93DF9300D000D0CDB7DEB741E0DF
:1011B00050E060E070E004C0440F551F661F771FC9
:1011C0008A95D2F78091B4019091B501A091B601B2
:1011D000B091B7018A019B01082719272A273B27CD
:1011E00009831A832B833C83C901B8010F900F90A8
:1011F0000F900F90DF91CF911F910F910C943308B6
:10120000CF93DF9300D000D0CDB7DEB769837A8368
:101210008B839C838091B4019091B501A091B6011C
:10122000B091B70129813A814B815C81282B392B00
:101230004A2B5B2B29833A834B835C83CA01B90118
:101240000F900F900F900F90DF91CF910C94330877
:10125000CF93DF9300D000D0CDB7DEB769837A8318
:101260008B839C838091B4019091B501A091B601CC
:10127000B091B70129813A814B815C8128233923C0
:101280004A235B2329833A834B835C83CA01B901D8
:101290000F900F900F900F90DF91CF910C94330827
:1012A000CF93DF9300D000D0CDB7DEB769837A83C8
:1012B0008B839C838091B4019091B501A091B6017C
:1012C000B091B70129813A814B815C812827392768
:1012D0004A275B2729833A834B835C83CA01B90180
:1012E0000F900F900F900F90DF91CF910C943308D7
:1012F0000895E92FEE0FE90FE80F8E2F877041E078
:1013000001C0440F8A95EAF7E695E695E69585E0F3
:10131000E89FF0011124E155FE4F30E020E070E03D
:101320005191DF011197CB01022E02C0969587954E
:101330000A94E2F7817081958527842385278C9311
:101340002F5F3F4F2530310559F70895E92FEE0FF4
:10135000E90FE80F9E2F9770E695E695E69585E0F4
:10136000E89FF0011124E155FE4F50E040E080E09D
:10137000219130E0092E02C0369527950A94E2F7B4
:1013800021703327042E01C0220F0A94EAF7822B22
:101390004F5F5F4F4530510559F70895BF92CF9287
:1013A000DF92EF92FF920F931F93CF93DF938C0105
:1013B000C090B401D090B501E090B601F090B701B3
:1013C0008091B8019091B901A091BA01B091BB018F
:1013D000C82AD92AEA2AFB2ACFE1D0E0BC2ED701BD
:1013E000C6010C2E04C0B695A795979587950A94CB
:1013F000D2F780FD0EC0219788F7B12C8B2DDF919D
:10140000CF911F910F91FF90EF90DF90CF90BF9001
:101410000895B8018C2F0E941B11019761F3EECF44
:10142000CF93DF93D82FC92F0E94CE096D2F7C2F29
:10143000DF91CF910C941B111F93CF93DF93162F45
:10144000D72F9091AE01992339F0862F972FDF91F6
:10145000CF911F910C94100A882391F0862F972F1B
:101460000E94CE09C82F682F812F9D2F0E947909D5
:10147000612F7D2F8C2FDF91CF911F910C941B1129
:10148000862F972F0E94A609C82FF2CFEF92FF92C6
:101490000F931F93CF93DF938C01892B89F0F12C4D
:1014A000EE24E394E8012196F8018491843709F44D
:1014B00058C0A0F4823009F43FC048F48130D1F024
:1014C000DF91CF911F910F91FF90EF9008959CEFC6
:1014D000980F9037A8F70E9493030AC0853709F444
:1014E0004EC09CE7980F903758F78F770E942404DE
:1014F0008E0116C00E5F1F4FFE01849190E2980F7F
:10150000983060F48770FE2D01C0FF0F8A95EAF7CE
:101510008F2F0E94DD0D0E940B0E02C00E949303CC
:101520008F2D882309F4BECFEFE9FFE03197F1F763
:1015300000C000008150F5CF0E5F1F4FFE01849167
:1015400090E2980F983050F48770FE2D01C0FF0F85
:101550008A95EAF78F2F0E94E30DDDCF0E942404C5
:10156000DFCF0E5F1F4FFE01C491CC23C9F28FE97C
:101570009FE00197F1F700C00000C150F6CF0E5F69
:101580001F4FFE01F490CCCF1F93CF93DF93E091D8
:10159000BC0116E08091BD018E1304C0DF91CF9194
:1015A0001F910895CE2FD0E01E9FF0011124E25428
:1015B000FE4F4081518162817381848195810E94B7
:1015C00095072196EC2FE770E5CF4091EE01509101
:1015D000EF016091F0017091F1018091F201909121
:1015E000F3010C9495071F93CF93DF938091F30140
:1015F000807FA9F48091F001882389F08091BC015B
:10160000C091BD017091EE016091EF01A091F101D7
:10161000B091F201D62FD72316E0C81304C0DF9192
:10162000CF911F91089590E0109711F0DF3F19F4CA
:1016300001968770F2CF189F9001199F300D1124E9
:10164000F901E254FE4F41816413F2CF4081471308
:10165000EFCF42814111ECCF438154814A1B5B0B98
:10166000483C510528F78091F3018F708061809389
:10167000F301F901ED53FE4F80818F70806180830B
:101680008EEE91E00E941407DF91CF911F910C9490
:10169000C40AAF92BF92CF92DF92EF92FF920F9364
:1016A0001F93CF93DF93CDB7DEB72B970FB6F89488
:1016B000DEBF0FBECDBF8C0185E0F801DE011796BD
:1016C00001900D928A95E1F7F801E280C380D48001
:1016D0008EEEA82E81E0B82E2091EE019091EF01C0
:1016E0004091F1015091F2014115510529F0892FE6
:1016F00082238F3F09F049C1EE2009F455C1C8018A
:101700000E947F07F82E882309F44EC186E0F80175
:10171000AEEEB1E001900D928A95E1F78EEE91E088
:101720000E948E030E94F30A00C18091F301682F8A
:10173000607F483C510508F0A8C0F8013181611173
:10174000E0C0FE2C391325C09081921322C0E11015
:1017500020C08F7080618093F3010E94E50A8EEEB5
:1017600091E00E9414078091F301F80185838F2D89
:101770002B960FB6F894DEBF0FBECDBFDF91CF9191
:101780001F910F91FF90EF90DF90CF90BF90AF909F
:1017900008952F81CD2829F0832F82238F3F09F0D0
:1017A000ADC080E0F82FF170DF2EE091BC014091D8
:1017B000BD0156E080FD1CC0EE20C9F28091F3010E
:1017C00081608093F301F12CD2CF8E2F90E05E9F49
:1017D000F0011124E254FE4F6181361306C060818E
:1017E000621303C06281E612E7CF0196E82FE7702B
:1017F000E413EBCF8F8198850E94100A292F229540
:101800002F70903260F0225F2F70223078F49F703A
:1018100051F0F8019581907F31F4D12C0AC09F706E
:1018200011F08823D1F3805E8830B8F3C8010E949C
:101830001407FD2C9CCFC8010E947F07882309F460
:10184000B3C0EE2009F4B0C08091F301803270F093
:101850002091EE013091EF013A8329831B82DD82D2
:10186000CC828E83CE0101960E94140786E0F80197
:10187000AEEEB1E001900D928A95E1F70E94F30A75
:101880000E94E50AFF24F39472CF611151C04F8189
:10189000588569857A858B850E9486078EEE91E052
:1018A0000E94140786E0F50111928A95E9F70E94DB
:1018B000E50A89CF86E0F801AEEEB1E001900D9225
:1018C0008A95E1F754CFC8010E947F078111CECFDE
:1018D0008091F30181608093F301C8010E94140795
:1018E00046CF4F81588569857A858B850E9486070A
:1018F00086E0F50111928A95E9F717C081E08E25FF
:1019000051CF391398CFF8019081921394CFE11001
:1019100092CF8583C8010E94140786E0F801AEEEDD
:10192000B1E001900D928A95E1F70E94E50A1FCF80
:10193000F801318193137FCFF801908192137BCF0F
:10194000E11079CF8583C8010E94140786E0F50174
:1019500011928A95E9F70BCFF80181819813B3CFE3
:10196000F80180818213AFCF8091F30180FDA2CF77
:10197000982F907F09F49ECF8583903F59F2982F3E
:10198000907F905F8F70892BC4CFF090F001B601EB
:10199000641B750BAB01F110C8CE483C510508F033
:1019A000A0CFFE2CE110D8CFC8010E9414076ACF47
:1019B0001F93CF93DF93CDB7DEB72C970FB6F89474
:1019C000DEBF0FBECDBF4F83588769877A878B876D
:1019D0009C87CE0107960E94490B882369F08A856F
:1019E0009B85892B39F058854F81852F84238F3F24
:1019F00009F071C016E05FC086E0FE013796DE0197
:101A0000119601900D928A95E1F78F81988520912A
:101A1000BD014091BC016A857B85672B59F3892301
:101A20008F3F41F330E0C90101968770992748172D
:101A3000190671F40E9452071092BD011092BC0168
:101A400086E0EEEEF1E0DF011D928A95E9F7D2CF54
:101A500096E0929FD001939FB00D1124A254BE4FE7
:101A6000FE01319601900D929A95E1F78093BD01A8
:101A70000E94C40ABFCF819FC001112482549E4F8F
:101A80000E94490B8823E9F0E091BC011E9FF00100
:101A90001124E254FE4F408151816281738184811F
:101AA00095810E9495078091BC0190E00196877016
:101AB00099278093BC018091BC019091BD0189134D
:101AC000DACF2C960FB6F894DEBF0FBECDBFDF91F4
:101AD000CF911F91089569857A858B859C850E9499
:101AE000950788CF682F80910001909101010C9497
:101AF0002822682F80910001909101010C943322DB
:101B000080910001909101010C943E228091F4019A
:101B100085958595859508958091F4018770089540
:101B20009091F401977081E009F480E0089590911C
:101B3000740292FB222720F9281751F080FB92F9BA
:101B40009093740280917302909174020C949F0E92
:101B500008958091740282FB882780F991E089279B
:101B60000C94970D81E00C94970D80E00C94970DE8
:101B700080911802089590911802982B9093180262
:101B80000895982F909580911802892380931802C8
:101B9000089510921802089590911702982B90932F
:101BA00017020895982F90958091170289238093AA
:101BB0001702089510921702089590911602982B1B
:101BC000909316020895982F90958091160289237C
:101BD0008093160208951092160208958091F501DF
:101BE000089508950C94F10D9091740292FD08C02F
:101BF0009091F501981721F08093F5010C94F20D66
:101C000008958091F501882329F01092F50180E074
:101C10000C94F20D0895E0910001F0910101809182
:101C200018028083E0910001F09101018081909180
:101C30001702892B8083E0910001F09101018081DE
:101C400090911602892B80839091F501992381F060
:101C5000E0910001F09101018081892B80838091C6
:101C60000001909101010E94902181110E94010EBA
:101C700080910001909101010C943A2108950C94F7
:101C80003E0E9091740292FD10C098E0899F9001E1
:101C90001124622B6093F4010E9469088091F40181
:101CA0008595859585950C943F0E0C946908109246
:101CB000F40180E00C943F0E9091F401809589230B
:101CC0008093F401282F277039F4282F082E000C58
:101CD000330B9217130621F49091740292FF07C000
:101CE0008595859585950E949A080C94570E0895C0
:101CF0006FEF7FEF90E080E00C94E32A90E080E0CB
:101D00000E94BF2A9C0181E0293E3E4F09F080E0FD
:101D1000089582E090E00C94B12A83E090E00C9466
:101D2000B12ACF9384E090E00E94B12AC82F82E2CA
:101D300090E00E94B12A982F8C2FCF910895CF93D5
:101D4000682FC92F84E090E00E94C52A6C2F82E2A0
:101D500090E0CF910C94C52AAB01BC018FE090E0DC
:101D60000C94D72AAB01BC0183E190E00C94D72AF4
:101D700060E070E0CB010C94B20E60E070E0CB014B
:101D80000E94AC0E0C94B80E69EE7EEF90E080E0FD
:101D90000E94E32A60E082E090E00E94C52A60E0B1
:101DA00083E090E00E94C52A1092B8011092B90118
:101DB0001092BA011092BB0160E084E090E00E94B2
:101DC000C52A60E082E290E00E94C52A60E085E0DA
:101DD00090E00E94C52A60E086E090E00E94C52A5B
:101DE0006FEF87E090E00E94C52A40E050E0BA0122
:101DF00088E090E00E94D72A60E08DE090E00E94A9
:101E0000C52A40E050E0BA0188E190E00E94D72A5C
:101E100060E087E190E00E94C52A40E050E0BA010E
:101E20008CE190E00E94D72A70E060E080E290E0D0
:101E30000E94E32A40E050E0BA0188E190E00E946D
:101E4000D72A0C94BD0E0C94C40E682F8EE090E03F
:101E50000C94C52A0E94DF2260931F027093200217
:101E6000809321029093220260931B0270931C02C4
:101E700080931D0290931E02089585B7806885BFE8
:101E800085B7806885BF0895089508950C94440F20
:101E900008950C94480F0E943D0F8AEF91E10E9433
:101EA00056230E94450F0C94460F81E008950C9430
:101EB000550F089508950E94590F0C945A0F0E94CF
:101EC000CA220E94DA120E94A91D0E94361C0C949C
:101ED000490FFF920F931F93CF93DF9300D000D051
:101EE0000F92CDB7DEB70E94E51281110E942A0F32
:101EF00080E00E945312182F80911A02082F0127A8
:101F0000811311C08FEF89838A831B820E94D322A1
:101F10008160782F9D838C8349815A816B81892FC1
:101F20000E9449032DC08091230281FD0E94591215
:101F3000802F8170F82E00FD3FC001FD3FC002FFE1
:101F4000E1CF02E094E0F92E0E94570F882399F028
:101F500009831A821F2181E009F480E08B830E94AB
:101F6000D3228160782F9D838C8349815A816B8134
:101F7000892F0E94490380911A028F2580931A02AB
:101F80000E94691C0E94161F0E94B6140E942E21F6
:101F9000909119028917B1F00E942E2180931902A5
:101FA0000F900F900F900F900F90DF91CF911F9196
:101FB0000F91FF900C94410300E0C6CF01E082E056
:101FC000F82EC2CF0F900F900F900F900F90DF91CF
:101FD000CF911F910F91FF9008950895272F280FFB
:101FE0003327331FC901F901EE0FFF1FE80FF91F57
:101FF000E60FF11DEE0FFF1FE455FF4F8591949101
:102000000895FC01EE0FFF1FEE54FF4F8591949150
:102010000895CF93DF930E941F11EC01811520E5F5
:10202000920708F043C0811530E4930708F0B2C06E
:10203000803E9105E8F4803C910508F0A0C0883A04
:10204000910578F4853A910508F08BC081309105AF
:1020500021F00497813A910540F4CE01DF91CF91B0
:1020600008958F3B910509F07FC0D0E0C0E0F5CF27
:10207000C11580E2D80770F4CF3FD10509F068F7A9
:10208000C83ED10550F3CE018D5E9109D0654397CE
:1020900020F3EBCFCE01C11520E3D20708F475C0C1
:1020A0009927D3FD74C0EC01D06CD7CF811535E5ED
:1020B000930760F5C11584E5D80708F09EC0C115E7
:1020C00023E5D20778F4C11532E5D30708F082C0C2
:1020D000C11581E5D80708F460C0DC2FCC27C16F9B
:1020E000D06ABBCF9E012370332781E090E002C00D
:1020F000880F991F2A95E2F7C695C69520E2C29FE0
:10210000E0011124C82BD92BDA68A7CF81153AE555
:102110009307B0F4C11589E5D80708F07EC0C11552
:1021200026E5D20708F46EC0CE0198558F3F910581
:1021300011F008F09ACFDC2FCC27C06FD06A8DCF7A
:1021400090568115904208F090CF8D2F8F710E948C
:10215000B71190E0982F882788279F718C2BEC016E
:102160005AC0A497D06479CFC85AD0E0CC0FDD1FF5
:10217000CA5ADE4F0990D881C02DD4646ECF805CDE
:1021800091090E940110EC0168CF9F70FACFEC0119
:10219000D86C63CFDF70D06A60CF9E0174E0369553
:1021A00027957A95E1F723708C2F86958695837015
:1021B00030E2839FC0011124922BC37021E030E0F4
:1021C00002C0220F331FCA95E2F7822B932BEC013A
:1021D000DC6843CF9E012370332781E090E002C08A
:1021E000880F991F2A95E2F7C695C69520E2C29FEF
:1021F000E0011124C82BD92BEBCFDC2FCC27C46FE7
:10220000D06A2BCF8C2F0E94B711C82FD0E0DC2FC3
:10221000CC27CC27DF71D06220CF8C2F8F700E940B
:10222000B71134E0D695C7953A95E1F7CF709C2F5A
:10223000EC01D06912CF0E94EE0F0C940910803E81
:10224000910599F1C8F48133910509F476C048F4F9
:102250008932910509F46AC08A32910509F474C083
:10226000089589339105D1F082389105B9F085330D
:10227000910509F454C00895843E910599F138F40C
:10228000823E9105F9F0833E910509F10895863E5D
:10229000910599F1873E9105B9F108952091730256
:1022A0002370A1F080EE90E008952091730220FD4C
:1022B00052C03091740230FF09C024FF4FC090E03B
:1022C00080E004C02091730222FDF7CF0895209191
:1022D000730222FD46C03091740230FDE3CF24FF2B
:1022E000F5CFEDCF2091740221FFF0CF80917302E2
:1022F00084FDE5CF87EE90E008952091730223FFDF
:10230000E5CF24FDDCCFF6CF2091730223FD2CC056
:102310003091740231FFE3CF84EE90E00895209174
:10232000730225FFD3CF89E290E0089520917302D4
:1023300025FFCCCF85E390E008952091730226FF1E
:10234000C5CF8AE290E008952091730226FFBECFA8
:1023500081E390E0089589E390E0089583EE90E0B2
:10236000089582EE90E0089586EE90E008959091B1
:10237000730292FF06C0282F28712830F9F4877F56
:10238000846093FF06C0282F28712831F1F4877EDE
:1023900084612091740220FF06C0382F38713830D4
:1023A000D9F4877F816021FF06C0282F287128314A
:1023B000D1F4877E816194FD877E0895282F247152
:1023C0002430F9F68B7F8860DCCF282F24712431EC
:1023D00001F78B7E8861DDCF382F3171313019F7ED
:1023E0008E7F8860E0CF282F2171213121F78E7EEA
:1023F0008861E1CF80E008950C94780E0E94E51288
:102400002FEF86E791E0215080409040E1F700C037
:1024100000000E94E51280E00E94531280FF04C079
:102420000E94FC110C94322308950C94FE11CF935A
:10243000DF9300D000D0CDB7DEB70E947E0E8111B1
:1024400002C00E94230F0E94890E809323020E94E3
:10245000910E90937402809373020E9415120E9451
:102460008D0E282F30E050E040E0CA01B9010E94F3
:10247000B5078091B4019091B501A091B601B091DA
:10248000B70189839A83AB83BC83BC01CD010F90D4
:102490000F900F900F90DF91CF910C9431080C9416
:1024A0006A020C946B02E82FF0E0EA58FD4F80813D
:1024B0000895089580EA8A95F1F7089500C0089577
:1024C0000C945A12F894E82FE295EF70F0E041A1D5
:1024D0008F7021E030E0B90102C0660F771F8A9546
:1024E000E2F7CB01962F9095942391A392A1892B8B
:1024F00082A37894089582E90E94621281E90E9481
:10250000621280E90E94621284E90C946212DF92E6
:10251000EF92FF920F931F93CF93DF937C01D62E00
:10252000062F10E00C571E4FF80180818F3FD1F12C
:10253000F894E82FE295EF70F0E091A18F70C1E080
:10254000D0E09E0101C0220F8A95EAF7892F822BE5
:1025500081A382A12095282322A378940E945E1251
:102560000D2C01C0CC0F0A94EAF7F70180814C9939
:1025700015C08C2BC1E0F7018083F80180818F3F6B
:1025800011F00E9462126C2F8D2DDF91CF911F915F
:102590000F91FF90EF90DF900C946012C0958C2308
:1025A000C0E0E9CFDF91CF911F910F91FF90EF90A5
:1025B000DF9008950E947B121092750210927602AD
:1025C00081E00E9415130C94C0021F93CF93DF93F8
:1025D0000F92CDB7DEB7198260E0CE0101960E945E
:1025E000871261E0CE0101960E94871262E0CE015F
:1025F00001960E94871290917502898111E09813CB
:1026000001C010E0981380937502212F41E066E726
:1026100072E085E792E00E9416130E94C802812FA3
:102620000F90DF91CF911F9108950895FF920F931E
:102630001F93CF93DF93F82E092F162FD72FC42F78
:10264000222349F081E0809326020E94D3229093B6
:10265000250280932402809126028823A1F0809194
:102660002402909125020E94FF22059760F0EF2D31
:10267000F02FA12FBD2FCF018C0F911DE817F90767
:1026800041F410922602DF91CF911F910F91FF909C
:10269000089521912D93F2CF0E9450220E94C724C9
:1026A0000E94E0240E94F2240E945B0FFBCF8091E5
:1026B0002D0280FF12C06091070185E0689FB00184
:1026C0001124759567957595679560387105A8F51E
:1026D00061157105A1F1862F089581FF09C06091F0
:1026E000070185E0689FB001112475956795EDCFCE
:1026F0006091070182FD0AC020912C022223D1F0B3
:102700009091060160910701291728F085E0689FE4
:10271000B0011124DACF269F9001112485E0829F19
:10272000A001839F500D1124692F70E0CA010E94FF
:102730002E2ACBCF65E070E0CECF8FE7089581E001
:10274000089580912D0280FF0CC06091030170E01C
:1027500075956795759567956115710549F1862F92
:10276000089581FF06C06091030170E0759567953B
:10277000F3CF6091030182FD0BC090912B0299234E
:10278000A1F06091020180910301961738F0682F43
:1027900070E06038710500F38FE70895899FC001EC
:1027A000112470E00E942E2AF4CF61E070E0D7CFB0
:1027B00081E00895E3E1E80FE331E0F5F0E0E55F63
:1027C000F44D0C94642A0E94571381958093310232
:1027D00008950E945713FACF0E9457138195809352
:1027E000300208950E945713FACF0E94A1138093DC
:1027F000320208950E94A1138195F9CF0E94A1137E
:1028000081958093330208950E94A113FACF815FCE
:10281000990B21E030E001C0220F8A95EAF7809100
:102820002F02822B80932F02089580912D028160C8
:1028300080932D02089580912D028260F9CF8091BE
:102840002D028460F5CF409130028D3E59F4809185
:10285000310287FF0DC01092310241110BC010925E
:102860002C0208C08E3E81F48091310218169CF330
:10287000442381F08091320290913302892B09F038
:102880005AC010922B0208958F3E49F447FFF0CFB3
:1028900010923002809131028111ECCFE0CF803F65
:1028A00019F41416ACF3E4CF90913202893F29F465
:1028B0001916F4F610923202DBCF8A3F19F497FF13
:1028C000D7CFF8CF909133028B3F29F497FFD0CF29
:1028D00010923302CDCF8C3F19F41916CCF3C8CF28
:1028E0009FE0980F983090F4815F990B21E030E0E1
:1028F000B90102C0660F771F8A95E2F7CB01809578
:1029000090912F02892380932F02B2CF8D3F31F413
:1029100080912D028E7F80932D02AACF8E3F21F4CD
:1029200080912D028D7FF7CF8F3F09F0A1CF80914D
:102930002D028B7FF0CF08950E94D3222091300288
:1029400030913102232B21F08093290290932A02A7
:102950002091320230913302232B21F08093270201
:10296000909328028EE292E00C945521CF92DF9250
:10297000EF92FF920F931F93CF93DF9300D000D07D
:1029800000D0CDB7DEB726E0EEE2F2E0CE01019650
:10299000DC0101900D922A95E1F7C0903002D090B1
:1029A0003102E0903202F090330210923002109225
:1029B000310210923202109233022C2D2D298C01FB
:1029C00091F08091290290912A020E94FF229C019D
:1029D00080912C02882309F440C09091080192173D
:1029E000130608F448C08E2D8F2991F0809127029C
:1029F000909128020E94FF229C0180912B02882343
:102A000009F478C0909104019217130608F480C06D
:102A10008091300290913102892B90913202892B62
:102A200090913302892B11F00E949C1486E0F801EA
:102A3000AEE2B2E001900D928A95E1F726960FB6CC
:102A4000F894DEBF0FBECDBFDF91CF911F910F91E4
:102A5000FF90EF90DF90CF900895409109019AE0A8
:102A6000499FA00111244217530708F0BCCF8F5F84
:102A700080932C0202C08F3FD1F7CC2059F00E94E6
:102A800057139FEF1C140CF491E0899F802D1124A3
:102A900080933002DD2059F00E9457139FEF1D14E0
:102AA0000CF491E0899F802D1124809331023091A4
:102AB0003002332309F497CF20913102222309F405
:102AC00092CF45EB3403C0011124992359F0909320
:102AD000300245EB240390011124332339F0309365
:102AE000310281CF81E080933002F3CF81E0809387
:102AF000310279CF409105019AE0499FA00111244C
:102B00004217530708F084CF8F5F80932B0202C0D7
:102B10008F3FD1F7EE2059F00E94A1139FEF1E14B2
:102B20000CF491E0899F802D112480933202FF20C4
:102B300059F00E94A1139FEF1F140CF491E0899F9C
:102B4000802D112480933302309132022091330280
:102B5000332309F45DCF222309F45ACF45EB340324
:102B6000C0011124992359F09093320245EB2403BC
:102B700090011124332339F03093330249CF81E09F
:102B800080933202F3CF81E08093330241CF86E01D
:102B9000EEE2F2E0DF011D928A95E9F710922C0235
:102BA00010922B0210922D020895AF92BF92CF92F5
:102BB000DF92EF92FF920F931F93CF93DF938B01DE
:102BC000282F111114C0442329F090E087539E4F01
:102BD000FC018491682F782FDF91CF911F910F9185
:102BE000FF90EF90DF90CF90BF90AF900895C12FEE
:102BF000D0E030E0442329F027533E4FF9012491DF
:102C000030E0F6E00F9F70011124EFEFF0E0C70114
:102C1000BF010E941A2AAB01802F90E0880F991FF4
:102C2000A5E5A49FB001A59F700D1124861B970BED
:102C3000782F770F780FCF018C1B9D0B829FD001CF
:102C4000839FB00D929FB00D11246B2F719FC00117
:102C50001124892F99278F01081B190BC801829F06
:102C60008001839F100D929F100D1124812F5F0111
:102C7000A71AB108AC9E6001AD9ED00CBC9ED00CD2
:102C80001124CD2CDD24EC19FD09E29FE001E39F26
:102C9000D00DF29FD00D1124722F43305105D1F089
:102CA0009CEFE91693E0F90670F441305105B1F05C
:102CB00042305105B9F0EFEFEE16F10408F08CCF79
:102CC0008B2F6D2F89CF4430510579F04630510557
:102CD000B9F382CF612F822F7B2F7ECF622F712F8E
:102CE0008B2F7ACF8D2F622FF7CF822F7D2F74CF2E
:102CF00041E00C94D51508950C947816CF93DF938A
:102D0000982F762F842FE901692F0E947C167983F2
:102D100068838A83DF91CF91089580917702982FFD
:102D20009E7F29F4817082608093770208958A34AF
:102D3000E8F381708864F8CF88E090E00C94B92AB9
:102D40000F931F93CF93DF938B01D82FC92F0E942E
:102D50008D16A8016D2F7C2F88E090E0DF91CF9138
:102D60001F910F910C94D72AE7E7F2E083E080836C
:102D700085E181838FEF82838383148263E075E131
:102D80008FEF9FEF0C94A0168091770280FF02C016
:102D90008695089580E00895CF93DF9300D000D00A
:102DA000CDB7DEB790917B02933018F49F5F90937C
:102DB0007B028823B1F08091770290917802A091F4
:102DC0007902B0917A0289839A83AB83BC83BC0178
:102DD000CD010F900F900F900F90DF91CF910C9439
:102DE000A0160F900F900F900F90DF91CF91089544
:102DF00081E00C94CC16CF93DF9300D000D0CDB7F8
:102E0000DEB790917B02992319F0915090937B0249
:102E10008823B1F08091770290917802A091790295
:102E2000B0917A0289839A83AB83BC83BC01CD01C4
:102E30000F900F900F900F90DF91CF910C94A016F0
:102E40000F900F900F900F90DF91CF91089581E038
:102E50000C94FB1621E030E001C0220F8A95EAF7BE
:102E600090914202922381E009F480E0089570E09D
:102E70000C94271F7F928F929F92AF92BF92CF9216
:102E8000DF92EF92FF920F931F93CF93DF9300D0C7
:102E900000D00F92CDB7DEB7B0900E0190917702BF
:102EA00090FF24C0C0903702D0903802C114D104E2
:102EB00079F580910D0123E0829FC00111246B2DD3
:102EC00084589D4F0F900F900F900F900F90DF91AF
:102ED000CF911F910F91FF90EF90DF90CF90BF9017
:102EE000AF909F908F907F900C94371780910F0137
:102EF0002091100133E0839FF0011124E458FD4F2D
:102F0000821780F61182108212828F5F3396F8CF7B
:102F100090FFCFCFA12C33E0732E8A2D0E942A1769
:102F20008823C1F1F601E590F490E114F10409F46D
:102F3000C0CF45E050E0B701CE0101960E949B2A28
:102F400009810F3F39F18A81800F9927991F8330BA
:102F5000910514F082E090E04C01880C991C880ED9
:102F6000991EC40184589D4F4C01079D8001112476
:102F700004581D4F0815190520F095E0E90EF11CC5
:102F8000D8CF98014D816C818B810E947E160D5F98
:102F90001F4FF0CF22E0C20ED11CA39438E0A31241
:102FA000BCCF87CF9091770290FF14C090910F0112
:102FB0002091100133E0939FF0011124E458FD4F5C
:102FC000921710F00C943A178183608342839F5FBD
:102FD0003396F6CF0895CF93DF9300D00F92CDB7FD
:102FE000DEB79091770290FF0FC09E012F5F3F4F99
:102FF0000E947E164B8169818A810F900F900F90FD
:10300000DF91CF910C94D2170F900F900F90DF911A
:10301000CF910895CF93DF93EC01EC81F0E0EC5376
:10302000FF4F4491E7E7F2E0628181810E94EB1754
:103030008C818F5F8C83DF91CF910895CF93DF9345
:10304000EC01E7E7F2E0438162818C810E94EB179B
:103050008C818F5F8C83DF91CF9108950F931F93A5
:10306000CF93DF9300D00F92CDB7DEB78C01809164
:10307000340281110AC09E012F5F3F4F4FEF6FEF67
:103080000E947E168A8180933402F8016481613047
:1030900049F06230F1F08091340240E0662331F073
:1030A00040E019C06091340240E080E00E94D217F5
:1030B000F801848190E0019663E070E00E942E2A7E
:1030C00084830F900F900F90DF91CF911F910F91FC
:1030D00008954091340280E060E0E8CFAF92BF9263
:1030E000CF92DF92EF92FF920F931F93CF93DF93D4
:1030F00000D000D000D00F92CDB7DEB7182FF62E3B
:10310000042FD22E9091770290FF83C0E92FE6958D
:10311000AE2FB0E0A957BE4F8C91809340029E7FA6
:103120009230A1F59E012F5F3F4F812F0E947E16A6
:103130004B8169818A810E94D21710937802F092A4
:10314000790200937A02DD2009F463C0809177024E
:1031500090917802A0917902B0917A028C839D833C
:10316000AE83BF83BC01CD0127960FB6F894DEBFB6
:103170000FBECDBFDF91CF911F910F91FF90EF90C8
:10318000DF90CF90BF90AF900C94A016823019F4CE
:1031900000917A02D2CF863019F410917802CDCF07
:1031A0008930D9F3893149F6E9518E2F8170C82EC3
:1031B000E695F0E0EC53FE4FA590B490E12CBB24D3
:1031C00060911101E61618F00E943A17B6CF2E2D25
:1031D00030E0EA9CC001EB9C900D112470E00E944D
:1031E0001A2A812FC11013C0860F90910F01A901D7
:1031F000490F511D9A01220F331F240F351F2458E8
:103200003D4F402F6F2D0E947E16E394D9CF861B31
:10321000ECCF27960FB6F894DEBF0FBECDBFDF917F
:10322000CF911F910F91FF90EF90DF90CF90BF90C3
:10323000AF900895282FE7E7F2E081814381628112
:10324000885F0C946E1881E00C941A19282FE7E718
:10325000F2E081814381628188500C946E1881E094
:103260000C942619282FE7E7F2E0628138E0630F1B
:1032700008F46FEF438181810C946E1881E00C9407
:103280003219282FE7E7F2E0628138E0631B08F487
:1032900060E0438181810C946E1881E00C944119A7
:1032A000282FE7E7F2E0438138E0430F08F44FEFBF
:1032B000628181810C946E1881E00C945019282F42
:1032C000E7E7F2E0438138E0431B08F440E0628125
:1032D00081810C946E1881E00C945F1920E00C94AD
:1032E0006E18EF92FF921F93CF93DF93EC0110E0E3
:1032F000EE24EA94F12C60911101161770F00E94EF
:103300003A179A818C8190FF25C08F5F8C83DF9163
:10331000CF911F91FF90EF90089580910F01810F41
:103320009927991F9C01220F331F280F391F2458FA
:103330003D4F70E0C7010E942E2A962F8C8140914C
:103340007A0260917902199F800D11240E947E16E5
:103350001F5FD1CF8150DACFBF92CF92DF92EF9231
:10336000FF920F931F93CF93DF93FC0182810FEFA6
:1033700080FF01E010E0809111011817C0F00E9459
:103380003A1780913602013009F051C0811102C014
:1033900080911101815080933602DF91CF911F916E
:1033A0000F91FF90EF90DF90CF90BF9008958091A4
:1033B0000F01C12ED12C8C0D9D2D911DEC01CC0F38
:1033C000DD1FC80FD91FC458DD4F198218821A8219
:1033D00034E0E32EF12CB12C809136028B0D83303A
:1033E00004F18170082E000C990BC816D90691F4CF
:1033F00080917A028E9DA0018F9D500D11245595CC
:103400004795559547959E01609179028091780284
:103410000E947E16B00EF1E0EF1AF108E9F61F5F88
:10342000AACF87FFDFCF90911101890FDBCF90E00A
:1034300001966091110170E00E942E2AACCFCF93CB
:10344000DF9380910F019091100123E0829FF001A2
:103450001124E458FD4F891730F1C0E0D3E06091AA
:103460001101C61730F10E943A1720910B0180918B
:103470003502820F8093350290910C01920F909348
:103480000C01191654F4082E000C990B40911101EF
:103490004150550B841795071CF0219520930B0183
:1034A000DF91CF9108951182108212828F5F33963F
:1034B000D2CFEC2FF0E070E0CF010E942E2A2091B5
:1034C0000F01280F422F50E080913502082E000C8A
:1034D000990BE817F907BCF080910C01082E000C3D
:1034E000990B8E179F077CF02D9F90011124245873
:1034F0003D4F40917A0260917902809178020E945A
:103500007E16CF5FACCFFA01EE0FFF1FE40FF51F61
:10351000E458FD4F118210821282F3CFEF92FF9296
:103520000F931F93CF93DF93CDB7DEB72E970FB6D0
:10353000F894DEBF0FBECDBF8D879E87AD85BE855B
:1035400014961C91212F30E0D9010E94722A9B0110
:10355000AC010E94882A69837A838B839C83E0E292
:10356000F0E0E11BF109A5E5B0E09B01AC010E9490
:10357000882A69877A878B879C879F01DF010E9451
:103580006A2A9B01AC010E94932A6D837E838F83FC
:1035900098879B01AC0189819A81AB81BC81280FFE
:1035A000391F4A1F5B1F69857A858B859C850E9420
:1035B000422AF22E422F50E099E29F1588F1A3E0B3
:1035C0002A9F9001112435952795122F109500E020
:1035D00085E5E82EEF1880911101081778F10E9417
:1035E0003A17ED85FE85948181E0992319F0903298
:1035F00019F48FEF80930A0180910A01890FAD853C
:10360000BE8514968C932E960FB6F894DEBF0FBE2F
:10361000CDBFDF91CF911F910F91FF90EF90089553
:1036200085E590E0841B950B9C01220F331F280F2A
:10363000391F37FFC8CF2F5F3F4FC5CF8E2D01FDFC
:103640008F2D40910F01400F5527551F9A01220FD2
:10365000331F240F351F24583D4F412F60917902AD
:103660000E947E160F5FB7CF0F931F93CF93DF9308
:10367000EC0110E000E0909111019017110609F0A3
:103680006CF40E943A178C8190E001968170992722
:103690008C83DF91CF911F910F91089580910F013D
:1036A000A801480F511D9A01220F331F240F351F07
:1036B00024583D4F4C816091790280917802969513
:1036C0009017110651F04CF0442349F040917A02D2
:1036D0000E947E160F5F1F4FCECF4423B9F340E008
:1036E000F7CFCF93DF9300D000D0CDB7DEB7E7E7B9
:1036F000F2E080818E7F808380819181A281B3817D
:1037000089839A83AB83BC83BC01CD010E94A01640
:10371000109241029FEFA0E7B2E09150A040B0406C
:10372000E1F700C000000F900F900F900F90DF9115
:10373000CF910C943A1760917702669570E04BE058
:1037400050E082E191E00E94A42A892B19F481E0E3
:10375000809341020E94D32290933A0280933902CF
:103760000895CF93DF9300D000D0CDB7DEB790910E
:10377000770290FF44C08823D9F18532D8F58F773E
:10378000880F909177029170892B8093770266233E
:1037900081F08091770290917802A0917902B091A6
:1037A0007A0289839A83AB83BC83BC01CD010E94DA
:1037B000A01660917702669570E04BE050E082E1E0
:1037C00091E00E94A42A892BB9F01092410281E075
:1037D00080933C0240917A02609179028091780254
:1037E0000F900F900F900F90DF91CF910C946E1966
:1037F00081E0C6CF84E2C4CF0E949B1BE8CF0F902C
:103800000F900F900F90DF91CF910895682F8091C6
:10381000770286958F5F853208F081E00C94B11BAA
:1038200081E00C94061C682F9091770296958FEF9B
:10383000890F913009F484E20C94B11B81E00C945F
:10384000131C61E00C94B11BE7E7F2E0808181601A
:10385000808386950C94211C8091770280FD0C94C6
:10386000711B0C94241C60E00C94B11B80913F02EE
:1038700081112EC00E947E0E811104C00E94230F70
:103880000E94B4160E949C1660937702709378028F
:103890008093790290937A026E7F61F40E94B4164D
:1038A0000E949C166093770270937802809379024D
:1038B00090937A020E948D161092410280917702B5
:1038C00080FF03C086950E94331C81E080933F02F5
:1038D00008950F931F93CF93DF9380914102882324
:1038E00009F48AC080914002E0917702E695E81BD6
:1038F000E0933B02823091F5F0E0E054FF4FE49119
:10390000CE2FD0E00AE018E180913C02882361F0DC
:1039100010923C020E94D32290933A028093390283
:1039200010923E0210923D020E94D3222091390251
:1039300030913A02821B930B8F3F9F4708F05CC087
:103940002C0F3D1F30933A022093390289E392E015
:10395000F801DF91CF911F910F910994853109F4FE
:103960003BC058F4893021F18F3061F18630B9F0D5
:10397000C0EDD7E00BE716E1C7CF833209F435C0BD
:10398000C4EFD1E004E31BE1843209F4BDCFC8E207
:10399000D0E00EE81AE1883109F4B6CFE9CFF0E0C3
:1039A000E354FF4FE491CE2FD0E00EE118E1ACCF0D
:1039B000E695F0E0E654FF4FE491CE2FD0E001E72A
:1039C00019E1A2CFE695F0E0E954FF4FE491CE2F44
:1039D000D0E00CEA19E198CFF0E0EC54FF4FE4910D
:1039E000CE2FD0E00FE11AE18FCFE2EBF0E0C591EE
:1039F000D4910EE218E188CFDF91CF911F910F9102
:103A00000895FA0181110994FB01FDCFCF93DF9353
:103A1000C82FD62F0E94C4168C1740F00E94C416DF
:103A20008D1720F4DF91CF910C94101C8C2FDF9117
:103A3000CF910C94211C0F931F93CF938C01FB010A
:103A4000C281CC2309F472C00E94B80D8272073D76
:103A5000FCE51F0770F4033C9CE5190778F0F801BA
:103A6000E45CFC45E331F10570F4E25EF44D0C9446
:103A7000642AC1E00E351D4509F4C0E08C2FCF91BA
:103A80001F910F9108950E942C1CF7CF4EE15CE12D
:103A900060E17CE10E94011DF0CF40E15CE16EE15C
:103AA0007CE1F8CF4FE259E163E279E1F3CF43E201
:103AB00059E16FE279E1EECF4DE459E16EE379E14E
:103AC000E9CF4EE359E16DE479E1E4CF4BE659E10A
:103AD0006CE579E1DFCF4CE559E16BE679E1DACFCE
:103AE00047E257E168EF76E1D5CF48EF56E167E26C
:103AF00077E1D0CF81E00E94211CBFCF65E082E05A
:103B00000E94061DBACF68E086E0FACF6EE089E039
:103B1000F7CF64E18FE0F4CF67E185E1F1CF88E191
:103B2000EACF62E289E1ECCF83E2E5CFC1E0A6CF44
:103B300086E090E00C94B12A682F86E090E00C9427
:103B4000C52AE2E8F2E080818470896180830C9468
:103B50009C1D0E947E0E811104C00E94230F0E94B2
:103B6000A11D0E94981D80938202803220F08770F0
:103B700088618093820290918202892F817090FFE8
:103B800004C0892F8695869586950C94A91E8091F0
:103B90008202982F969596959695883140F49F5F6E
:103BA000990F990F990F8770892B809382028091CA
:103BB00082028160809382020E949C1D8091820219
:103BC0008695869586950C94A91E80918202982FE1
:103BD000987F79F0885080938202887F91E009F481
:103BE00090E08091820290FB80F9809382020E9493
:103BF0009C1D809182028695869586950C94A91EBF
:103C00008091820280FD13C08160809382028130A6
:103C100019F489E080938202809182020E949C1DA7
:103C2000809182028695869586950C94A91E0895AA
:103C30008091820280FF08C08E7F809382020E9462
:103C40009C1D80E00C94A91E08958091820280FD45
:103C50000C94181E0C94001E90918202892F869558
:103C6000869586958F5F8F719770843020F4880FCA
:103C7000880F880F982B9093820280918202887F10
:103C800091E009F490E08091820290FB80F98093AA
:103C900082020E949C1D809182028695869586955F
:103CA0000C94A91E843008F083E0909182029770F2
:103CB000282F220F220F220F922B90938202987F9F
:103CC00021E009F420E09091820220FB90F990938A
:103CD00082020C94A91E0E94521E809182020C94B2
:103CE0009C1D9C01FB018281882361F12F3BFCE537
:103CF0003F07F9F060F42D3BECE53E07A9F02E3BC1
:103D0000FCE53F0799F02C3B3C4549F00895203CE9
:103D1000ECE53E0789F0213C3C4589F0089583E0BD
:103D20000E946B1E80E0089580E0FACF0E94E51D9E
:103D3000F9CF0E94C71DF6CF0E94251EF3CF0E9427
:103D40002C1EF0CF81E00895269A2E9808952E9883
:103D50000895CF93DF93CDB7DEB728970FB6F894C9
:103D6000DEBF0FBECDBF8983843060F581112CC0CA
:103D7000809180008F7D809380000E94A71E4981E2
:103D8000242F30E0AFEFBFEF0E94722A23E030E033
:103D900040E050E00E94422AC9012C3764E1360716
:103DA000C8F469E070E00E941A2A70938B00609357
:103DB0008A0028960FB6F894DEBF0FBECDBFDF9104
:103DC000CF91089523E029838091800080628093C1
:103DD0008000D5CF2A50374D4F4F5F4FB42FA32FC0
:103DE000922F8827BC01CD0125EF38E241E050E059
:103DF0000E94422A29833A834B835C83CA01B9011A
:103E00000E940A2A9B01AC0169817A818B819C8185
:103E10000E940A2ABB27A92F982F872FBC01009741
:103E2000A140B10511F66FEF7FEFBFCF08950E945B
:103E3000A41E82E28093800089E1809381008FEF4D
:103E40009FEF90938700809386000C94A91D9C019E
:103E5000AB01219A65B16D7F75B17260EFB7F894CF
:103E6000CA01880F991F840F951F820F931F821715
:103E7000930741F4EFBF8FE594E00197F1F700C09D
:103E800000000895D9014D919D0158E075B90000D9
:103E900000C047FF65B9440F000000C000C000C06B
:103EA00065B900C05A9591F7E2CF0F931F93CF9356
:103EB000DF93C42FD22FFC0182818823C9F0409365
:103EC00045020E94D322909344028093430280E2F1
:103ED0008C0F883008F050C0C77081E001C0880F97
:103EE000CA95EAF7DF91CF911F910F910C94990435
:103EF00010914502141335C0809143029091440201
:103F00000E94FF22883C910560F5C0E2CD0F1D178D
:103F1000B9F080E2810F883040F4177081E001C071
:103F2000880F1A95EAF70E94A004C83048F481E08F
:103F30009D2F977001C0880F9A95EAF70E94990407
:103F4000802F0E949104C830B8F4D77081E001C07E
:103F5000880FDA95EAF7DF91CF911F910F910C94BA
:103F6000A00480E28C0F883038F4C77081E001C073
:103F7000880FCA95EAF7EFCFDF91CF911F910F918C
:103F800008950F939C01CB01243F4CE53407A1F128
:103F900090F4293DFCE53F0749F12A3D4CE5340703
:103FA000E9F1283D3C45C1F0FC0182818823E1F123
:103FB0001092450219C0263FFCE53F0719F1273F43
:103FC0004CE5340729F1253F3C4571F707E225EE22
:103FD00044EE65EF7CE505C006E221EE41EE68EDBA
:103FE0007CE50E94551F80E00F91089507E225EEC1
:103FF00045EE69ED7CE5F5CF06E221EE40EE64EF9B
:104000007CE5EFCF06E221EE42EE66EF7CE5E9CFFC
:1040100007E225EE46EE67EF7CE5E3CF08E221E01C
:1040200045EE6AED7CE5DDCF81E0DECFCF93DF9317
:10403000EC01FB018281882309F4DFC0C430FDE577
:10404000DF0710F5CB3F9CE5D90730F49E012250E5
:104050003C4524313105E0F40E94910E90937402A6
:1040600080937302C631FCE5DF0710F5C2308CE5A2
:10407000D80788F480917302909174020E949F0E79
:104080000E94520780E004C0C236EDE5DE0721F34E
:10409000DF91CF910895FE01E350FC4580917302BA
:1040A0008160E331F10518F5EF5CF44D0C94642A5E
:1040B000C4309DE5D90770F4CB3FECE5DE07D0F2C4
:1040C000FE01EC5FFC45E830F105E0F4EC5BF44DFB
:1040D0000C94642AC236DD4569F690917302892FEB
:1040E0008F7E94FF806103C0809173028260809311
:1040F0007302C0CF809173028460F9CF8091730204
:104100008860F5CF80917402816080937402B2CF91
:10411000809174028260F9CF809173028061E7CF51
:10412000809173028062E3CF809173028064DFCF5D
:104130000E945207809173028068D9CF80917302E8
:104140008C60D5CF809174028360DFCF8091730241
:104150008E7FCDCF809173028D7FC9CF8091730206
:104160008B7FC5CF80917302877FC1CF809174020E
:104170008E7FCBCF809174028D7FC7CF80917302E9
:104180008F7EB5CF809173028F7DB1CF8091730206
:104190008F7BADCF0E945207809173028F77A7CF9C
:1041A00080917302837FA3CF809174028C7FADCF07
:1041B0008091730282FB992790F921E0922790FB6E
:1041C00082F990FB83F993CF80917402982F909598
:1041D00091708E7F892B90FB81F997CF0E945207B7
:1041E00090917302892F97FB87F9805880CF81E0E7
:1041F0000E94250F3FCF80E0FBCF81E049CFCF93D6
:10420000DF93EB0186319C4511F50E94B80D9A8130
:10421000992399F08A7A91E009F490E0909346020C
:10422000811109C089E20E94720D0E940B0E80E08C
:10423000DF91CF91089585E3F6CF809146028111F9
:1042400004C089E20E94790DF0CF85E3FBCF81E0C5
:10425000EFCF90934C0280934B020895E0914B0274
:10426000F0914C02309721F00190F081E02D0994FB
:1042700080E00895DC01E0914B02F0914C02309710
:1042800099F080912701882351F08091730287FF74
:1042900006C08C9111968C93119785E08C930280C7
:1042A000F381E02DCD0109940895DC01E0914B02EA
:1042B000F0914C02309739F082E08C930480F581C4
:1042C000E02DCD01099408952091490230914A02D0
:1042D0002817390771F090934A0280934902E091C0
:1042E0004B02F0914C02309721F00680F781E02DCF
:1042F0000994089520914702309148022817390700
:1043000071F09093480280934702E0914B02F09144
:104310004C02309721F00084F185E02D0994089536
:10432000FC01329680912701882321F0809173024D
:104330009EE187FF96E080E0915008F40895219176
:104340002223D1F38F5FF8CF9C01662301F1809186
:1043500027018823F1F08091730287FF1AC0462F4E
:10436000469546954695603F90F4677081E090E0F1
:1043700002C0880F991F6A95E2F7240F311DF901D9
:10438000228130E02823392381E0232B71F480E05F
:104390000895F9013296285F3F4F8191861721F0E9
:1043A000E217F307D1F7F3CF81E008959C01FC01F8
:1043B00032968FEF90E04191461751F08F3F19F4FC
:1043C000411101C0892F9F5F9630A9F78F3F09F4F3
:1043D0000895280F311D87FD3A95F90162830895EC
:1043E0009C01FC013296285F3F4F8191861303C0E8
:1043F000DF0111971C92E217F307B9F70895FC014A
:10440000862F869586958695603F60F4E80FF11DAE
:10441000677021E030E001C0220F6A95EAF78281DF
:10442000822B82830895FC01862F8695869586953A
:10443000603F68F4E80FF11D677081E090E001C013
:10444000880F6A95EAF7809592818923828308957F
:1044500020912701222329F02091730227FD0C943B
:10446000FF210C94D62120912701222329F02091AD
:10447000730227FD0C9413220C94F021FC01329658
:1044800080912701882351F08091730287FF06C035
:104490008EE1DF011D928A95E9F7089586E0F9CF54
:1044A0000895089508950C94522280918B028430CF
:1044B00061F10E94532280E00E94A91E80E00E94C8
:1044C000410310924D0288E190E020E40FB6F89489
:1044D000A895809360000FBE2093600083B7817F12
:1044E000846083BF83B7816083BF7894889583B7E6
:1044F0008E7F83BF0FB6F894A89580916000886185
:1045000080936000109260000FBE089508950E948D
:1045100051220E94E5120E94862280E00E945312DE
:10452000982F81E0911101C080E0089508950C94C6
:1045300096220E9452070E94A91D0E942E210E94CD
:1045400041030C9497221F921FB61F9211248F9340
:104550009F93AF93BF9380914D02811113C08091BF
:10456000830290918402A0918502B09186024196C7
:10457000A11DB11D8093830290938402A0938502B4
:10458000B0938602BF91AF919F918F911F901FBEF4
:104590001F90189582E084BD93E095BD9AEF97BD7A
:1045A00080936E0008952FB7F894809183029091C4
:1045B0008402A0918502B09186022FBF0895CF9307
:1045C000DF9300D000D0CDB7DEB78FB7F89420913D
:1045D00083023091840240918502509186022983A2
:1045E0003A834B835C838FBF69817A818B819C8105
:1045F0000F900F900F900F90DF91CF9108959C0135
:104600004FB7F8948091830290918402A091850223
:10461000B09186024FBF821B930B089578941F922E
:104620001FB61F9211248F939F93AF93BF938091D6
:10463000830290918402A0918502B0918602019636
:10464000A11DB11D8093830290938402A0938502E3
:10465000B0938602BF91AF919F918F911F901FBE23
:104660001F90189581E08093E00080E28093D8004D
:104670001092C9008FE19EE40197F1F700C000009D
:1046800087E090EBDC018093940290939502A093D5
:104690009602B093970288E19CE00FB6F894A89533
:1046A000809360000FBE90936000FFCF9093AD01A8
:1046B0008093AC01089580917102089590918B02CE
:1046C000943031F580934E0260934F027093500204
:1046D00082E08093E9008FEF9091E800815095FD92
:1046E00006C095ED9A95F1F700008111F5CF809104
:1046F000E80085FF0DC050E040E063E070E08EE42C
:1047000092E00E947F258091E8008E778093E800F8
:104710000895BC0184E00C945E23BC0183E00C94FA
:104720005E2322E02093E9002FEF3091E800215032
:1047300035FD06C035ED3A95F1F700002111F5CFB2
:104740002091E80025FF0BC050E040E066E070E0FB
:104750000E947F258091E8008E778093E80008957D
:10476000CF93DF93D82FC92F809127018823C1F1E0
:104770008091730287FF34C060E282E08093E90099
:104780008FEF9091E800815095FD06C095ED9A95C8
:10479000F1F700008111F5CF8091E80085FF1DC081
:1047A0008091270170E050E040E0811104C050E0AA
:1047B00040E068E070E08D2F9C2F0E947F25809163
:1047C000E8008E778093E80080E2ED2FFC2FA1E5D2
:1047D000B2E001900D928A95E1F7DF91CF910895B3
:1047E00068E081E0CBCF80918A02811109C00E94EC
:1047F00007270E9464278091E20084608093E20092
:10480000089510928A02089508950895089542E047
:1048100061EC81E00E94832642E261EC82E00C942C
:10482000832680918D02893089F148F4823009F421
:104830009DC0833009F458C0813041F008958A301A
:1048400009F484C08B3009F46AC0089580918C0209
:10485000813A09F048C08091E800877F8093E800A2
:104860008091900290919102892B61F460E281E540
:1048700092E070E00E94CE258091E8008B778093D3
:10488000E800089560E090E080E0F3CF80918C0232
:10489000813249F58091900290919102029718F52A
:1048A0008091E800877F8093E8008091E80082FF94
:1048B00016C09091F3008091F200029729F4809144
:1048C000F1008B7F813021F48091F100809371029F
:1048D0008091E8008B778093E8000C94B726809154
:1048E0008B028111E2CF089580918C02813AD9F731
:1048F0008091900290919102892BA9F78091E80014
:10490000877F8093E8008091E80080FFFCCF809152
:1049100027018093F1008091E8008E77DCCF8091B1
:104920008C02813201F78091900290919102892B43
:10493000D1F68091E800877F8093E8000E94B72637
:1049400080918E02809327010C94520780918C02F3
:10495000813249F68091E800877F8093E8000E94C9
:10496000B72680918F0280937202089580918C0205
:10497000813A09F0B8CF8091E800877F8093E80002
:104980008091E80080FFFCCF80917202C2CF84B793
:10499000877F84BF0FB6F894A895809160008861E6
:1049A00080936000109260000FBE80E890E00FB628
:1049B000F89480936100909361000FBE0C944B0FAC
:1049C0000E9407270E946427E2EEF0E08081846065
:1049D000808378940E94F0290E945F0F8DE191E01E
:1049E0000C94292180918B02853031F480918B02C7
:1049F000853021F00E9499220C94690F0E94552263
:104A000080918902882391F30E948722882371F381
:104A10000E9469250E945207E9CF0C940F25FC01E2
:104A2000CB01DA012F2F332723303105D1F070F479
:104A30002130310509F43EC02230310569F48BE3A1
:104A400090E029EF32E02D933C9308952132310517
:104A5000E9F02232310521F190E080E030E020E001
:104A6000F2CFCF019927E13059F08230910559F00A
:104A7000E5EFF2E0892B81F7849190E09F01E3CF8D
:104A8000EDEDF2E0F9CFE9ECF2E0F6CF892BB9F0E9
:104A90006130710509F789E090E024E233E0D3CF7B
:104AA000892B91F061307105B9F686EB90E026E430
:104AB00033E0C9CF82E190E024E333E0C4CF89E062
:104AC00090E02BE033E0BFCF80E490E02CEF33E0C8
:104AD000BACF80E189BD82E189BD09B400FEFDCF76
:104AE0008091D8008F7D8093D8008091E000826013
:104AF0008093E0008091E00081FDFCCF0895AF92AB
:104B0000BF92CF92DF92FF920F931F93CF93DF93C9
:104B10006C01EB018A010E94D626F82E811123C078
:104B20000115110539F0F80180819181C81BD90B5D
:104B3000C80ED91EB12CA12C2097A9F08091E800B5
:104B400085FD22C08091E8008E778093E8000115F2
:104B50001105A1F0F801808191818A0D9B1D91833F
:104B6000808385E0F82E8F2DDF91CF911F910F91DB
:104B7000FF90DF90CF90BF90AF9008950E94D6260F
:104B80008823D1F2F82EEFCFF60181916F01809347
:104B9000F1002197FFEFAF1ABF0ACECFFC01CB0186
:104BA00020919202309193022617370790F00097D8
:104BB00029F42091E8002E772093E80040E0009748
:104BC00051F4411108C08091E80082FF31C080E0BB
:104BD0000895C901F3CF20918B022223A9F125303A
:104BE000A9F12091E80023FD2DC02091E80022FDCD
:104BF000EACF2091E80020FFE2CF3091F30020912E
:104C0000F200009719F02830310558F041E02830C3
:104C1000310509F040E02091E8002E772093E8006C
:104C2000CECF41914093F10001972F5F3F4FE9CFE5
:104C300080918B02882341F0853041F08091E8001B
:104C400083FFC1CF81E0089582E0089583E0089555
:104C5000FC01CB0120919202309193022617370775
:104C600090F0009729F42091E8002E772093E80037
:104C700040E0009751F4411108C08091E80082FFA4
:104C800032C080E00895C901F3CF20918B02222326
:104C9000B1F12530B1F12091E80023FD2EC0209123
:104CA000E80022FDEACF2091E80020FFE2CF30911A
:104CB000F3002091F200009719F02830310558F0E8
:104CC00041E02830310509F040E02091E8002E77DE
:104CD0002093E800CECF44914093F10031960197A4
:104CE0002F5F3F4FE8CF80918B02882341F08530C2
:104CF00041F08091E80083FFC0CF81E0089582E019
:104D0000089583E00895982F973028F08F7080934E
:104D1000E90081E008959093E900242F762F50E078
:104D2000981731F07091EC002091ED005091F00057
:104D300021FD02C09F5FE8CF3091EB003E7F3093B2
:104D4000EB003091ED003D7F3093ED003091EB00B2
:104D500031603093EB007093EC002093ED005093A2
:104D6000F0002091EE0027FDE5CF80E008958091CE
:104D70008C0287FF13C08091E80082FF06C08091FB
:104D8000E8008B778093E80004C080918B0281114A
:104D9000F2CF089580918B028823D9F38091E800A7
:104DA00080FFF8CF8091E8008E77ECCF2091E4006F
:104DB0003091E50095E6A9012091EC00822F8170E9
:104DC00020FF06C08091E80080FF06C080E00895C3
:104DD0002091E80022FD1AC080918B02882389F07F
:104DE000853089F08091EB0085FD0FC02091E400B3
:104DF0003091E50042175307F9F29150E1F684E053
:104E0000089582E0089583E0089581E008950E9466
:104E100075270E947D27E0EEF0E08081816080832D
:104E2000E8EDF0E080818F77808319BCA7EDB0E0DA
:104E30008C918E7F8C9380818F7E808310928A02EA
:104E400008950F931F93CF93DF930E9475270E94BD
:104E50007D27C8EDD0E088818F778883888180683E
:104E6000888388818F7D888319BC10928B02109271
:104E70008702109289021092880200EE10E0F80179
:104E800080818B7F808388818160888342E060E0BD
:104E900080E00E948326E1EEF0E080818E7F8083B7
:104EA000E2EEF0E080818160808380818860808391
:104EB000F80180818E7F8083888180618883DF9183
:104EC000CF911F910F910895E8EDF0E080818F7EE2
:104ED0008083E7EDF0E080818160808384E082BFA1
:104EE00081E080938A020C942127E8EDF0E0808134
:104EF0008E7F80831092E20008951092DA00109263
:104F0000E10008951F920F920FB60F9211242F9374
:104F10003F934F935F936F937F938F939F93AF9341
:104F2000BF93EF93FF938091E10082FF0BC08091CC
:104F3000E20082FF07C08091E1008B7F8093E10057
:104F40000E94EF298091DA0080FF19C08091D8007B
:104F500080FF15C08091DA008E7F8093DA00809107
:104F6000D90080FF94C080E189BD82E189BD09B488
:104F700000FEFDCF81E080938B020E94F32380919D
:104F8000E10080FF19C08091E20080FF15C0809190
:104F9000E2008E7F8093E2008091E2008061809346
:104FA000E2008091D80080628093D80019BC85E02F
:104FB00080938B020E9405248091E10084FF29C028
:104FC0008091E20084FF25C080E189BD82E189BD36
:104FD00009B400FEFDCF8091D8008F7D8093D8006A
:104FE0008091E1008F7E8093E1008091E2008F7ECE
:104FF0008093E2008091E20081608093E2008091E2
:105000008702882309F449C084E080938B020E94C0
:1050100006248091E10083FF29C08091E20083FF94
:1050200025C08091E100877F8093E10082E080933A
:105030008B02109287028091E1008E7F8093E100C5
:105040008091E2008E7F8093E2008091E200806197
:105050008093E20042E060E080E00E94832680913D
:10506000F00088608093F0000E940424FF91EF918B
:10507000BF91AF919F918F917F916F915F914F9170
:105080003F912F910F900FBE0F901F90189519BC54
:1050900010928B020E94012472CF8091E30087FD61
:1050A00002C081E0B2CF83E0B0CF1F920F920FB663
:1050B0000F921124FF920F931F932F933F934F93BF
:1050C0005F936F937F938F939F93AF93BF93CF9390
:1050D000DF93EF93FF9309EE10E0F8018081C09118
:1050E000EC00C795CC27C7958F70FC2EF82A10824C
:1050F000C0EFD0E08881877F888378940E949E28C3
:10510000F8011082888188608883CF2DCF70C0839A
:10511000FF91EF91DF91CF91BF91AF919F918F91CF
:105120007F916F915F914F913F912F911F910F91BF
:10513000FF900F900FBE0F901F9018951F93CF9365
:10514000DF93CDB7DEB7AA970FB6F894DEBF0FBED8
:10515000CDBF8CE892E0FC0101962091F100208304
:1051600022E084399207B9F70E9411248091E80067
:1051700083FF1DC180918C0290918D029A3008F0BE
:1051800016C1E92FF0E0E45BF44D0C94642A8038FA
:1051900099F0823809F00BC1809190028F708730AE
:1051A00008F005C18093E9008091EB0085FB88271A
:1051B00080F91092E90006C08091880290918902DE
:1051C000911182609091E800977F9093E80080931E
:1051D000F1001092F1008091E8008E77E4C08823FE
:1051E00009F4D2C0823009F0E2C080918E028111B0
:1051F000D5C0809190028F702FEF280F263008F0D5
:10520000D6C08093E9002091EB0020FFC7C0933007
:1052100031F48091EB0080628093EB00BFC09091ED
:10522000EB0090619093EB0021E030E001C0220F91
:105230008A95EAF72093EA001092EA008091EB0049
:105240008860EACF8111B3C010918E021F778091E0
:10525000E3008078812B8093E3008091E800877FD2
:105260008093E8000E94B7268091E80080FFFCCF81
:105270008091E30080688093E30082E0111183E075
:1052800080938B0294C08058823008F090C0809147
:105290008E0290918F028C3D23E0920799F583E076
:1052A0008A838AE289834FB7F894DE01139620E05F
:1052B0003EE051E2E32FF0E050935700849120FF4D
:1052C00003C082958F703F5F8F708A30C8F0895C11
:1052D00090E08D939D932F5F243161F74FBF8091B4
:1052E000E800877F8093E8006AE270E0CE010196D3
:1052F0000E94CE258091E8008B778093E80057C00C
:10530000805DE6CF6091900270919102AE014F5F97
:105310005F4F0E940D25BC01892B09F448C0809184
:10532000E800877F8093E80089819A810E9428267F
:10533000E1CF8038E1F58091E800877F8093E80035
:10534000809187028093F10046CF811130C0909107
:105350008E02923060F58091E800877F8093E800AC
:10536000909387020E94B72680918702882311F0CC
:1053700084E005C08091E30087FDFACF81E080934F
:105380008B020E94072413C080918E02813079F431
:1053900081E0933009F080E0809389021092E90067
:1053A0008091E800877F8093E8000E94B726809173
:1053B000E80083FF0AC08091E800877F8093E800BF
:1053C0008091EB0080628093EB00AA960FB6F89470
:1053D000DEBF0FBECDBFDF91CF911F91089508951D
:1053E000CF9380918B02882399F08091E900C0913E
:1053F000EC00C795CC27C7958F70C82B1092E90099
:105400008091E80083FD0E949E28CF70C093E90040
:10541000CF910895DB018F939F930E94882ABF91BB
:10542000AF91A29F800D911DA39F900DB29F900DF3
:1054300011240895AA1BBB1B51E107C0AA1FBB1F63
:10544000A617B70710F0A61BB70B881F991F5A9510
:10545000A9F780959095BC01CD01089597FB072E83
:1054600016F4009407D077FD09D00E941A2A07FC91
:1054700005D03EF4909581959F4F08957095619564
:105480007F4F0895A1E21A2EAA1BBB1BFD010DC080
:10549000AA1FBB1FEE1FFF1FA217B307E407F507E4
:1054A00020F0A21BB30BE40BF50B661F771F881FC0
:1054B000991F1A9469F760957095809590959B0156
:1054C000AC01BD01CF010895EE0FFF1F0590F491CF
:1054D000E02D09940E94722A332312F48A1B9B0B3D
:1054E0000C94832AA29FB001B39FC001A39F700DAB
:1054F000811D1124911DB29F700D811D1124911DDC
:1055000008950E94722AB7FF0895821B930B089595
:105510000E94722AA59F900DB49F900DA49F800DAC
:10552000911D11240895B7FF0C94882A0E94882A9F
:10553000821B930B0895FB01DC0102C005900D92C4
:1055400041505040D8F70895FC014150504030F090
:1055500001900616D1F73197CF0108958827992732
:105560000895F999FECF92BD81BDF89A992780B52B
:105570000895A6E1B0E044E050E00C94EB2AA8E1E5
:10558000B0E042E050E00C94EB2A262FF999FECFD0
:1055900092BD81BDF89A019700B4021639F01FBA86
:1055A00020BD0FB6F894FA9AF99A0FBE08950396A3
:1055B000272F0E94C62A0E94C52A252F0E94C62A8C
:1055C000242F0C94C62A0196272F0E94C62A0C94D9
:1055D000C52ADC01CB01FC01F999FECF06C0F2BD62
:1055E000E1BDF89A319600B40D9241505040B8F7A1
:1055F0000895F894FFCFE104E104430543059805BD
:10560000B40511051105BF056B067C067C06DD0699
:1056100011051105E606E313E913EC13F213071461
:105620000714071407140714071407140714F513B5
:10563000FA13FE13041415141B141F14461D4D1DDC
:10564000521D571D5C1D611D661D6B1D701D751D56
:105650007A1D7E1D831D861D891D8C1D8F1D911D2C
:10566000941D74207A207E208C20902094209820F5
:105670009E20A620AA20AE20B220BE20C220C62096
:10568000CA20D020EE20D8208820B620BA20A22020
:10569000D420E420F720FB20C728EF28D729EF28C3
:0C56A000D72922294329D7299929A529B7
:1056AC00F6012808641E140A321E010102000200D1
:1056BC00020201191A1B1C1D1E1F2021225B23B084
:1056CC002391238D23892301E200E900EA00B50030
:1056DC00B600B700CD008301CC008A019201940181
:1056EC002102230224022502260227022A02B300E9
:1056FC00B4006F007000E200E900EA00B500B600EB
:10570C00B700CD008301CC008A01920194012102E3
:10571C00230224022502260227022A02B300B40027
:10572C006F007000929190000102020202060606C0
:10573C000909090909090F0F0F0F0F0F1515151876
:0C574C0019191919191919191919232410
:00000001FF
