:020000040800F2
:1000000000040020C9020008CB020008CB0200084F
:10001000CB020008CB020008CB020008CB0200088C
:10002000CB020008CB020008CB0200086D6C000870
:10003000CB020008CB020008CB020008CB0200086C
:10004000CB020008CB020008CB020008CB0200085C
:10005000CB020008CB020008CB020008CB0200084C
:10006000CB020008CB020008CB020008017E00088A
:10007000157E0008297E00083D7E0008517E00089C
:10008000657E0008797E0008CB020008CB020008DC
:10009000CB020008CB020008CB020008CB0200080C
:1000A000A1780008A5780008A9780008AD780008B4
:1000B000A584000865820008CB020008358000088E
:1000C00039810008CB020008CB020008CB020008EF
:1000D000CB020008CB020008CB020008CB020008CC
:1000E000CB020008CB020008CB020008CB020008BC
:1000F00019840008CB020008CB020008CB020008DC
:10010000CB020008CB020008CB020008CB0200089B
:10011000CB020008CB020008F18300080584000828
:100120008D7E0008A17E0008B57E0008C97E00080B
:10013000DD7E0008CB020008CB020008CB020008DD
:10014000CB020008CB020008CB020008CB0200085B
:10015000CB020008CB020008CB020008CB0200084B
:10016000CB020008CB020008CB020008F184000893
:10017000CB020008CB020008CB020008CB0200082B
:10018000CB020008CB020008CB020008CB0200081B
:10019000CB020008CB020008CB020008CB0200080B
:0801A000D50C0008B10C0008A9
:1001A80072B6394880F30888384880F30988384897
:1001B8004EF60851CEF20001086040F20000CCF281
:1001C80000004EF63471CEF200010860BFF34F8F85
:1001D800BFF36F8F40F20000C0F2F0004EF6885176
:1001E800CEF200010860BFF34F8FBFF36F8F4FF05F
:1001F8000000E1EE100A4EF63C71CEF200010860F4
:10020800062080F31488BFF36F8F06F05FFA06F0BC
:1002180035F84FF055301F491B4A91423CBF41F811
:10022800040BFAE71C49194A91423CBF41F8040BF8
:10023800FAE71A491A4A1B4B9A423EBF51F8040B77
:1002480042F8040BF8E700201749184A91423CBFCE
:1002580041F8040BFAE706F03DFA06F038FA144CB8
:10026800144DAC4203DA54F8041B8847F9E702F04E
:1002780091FE114C114DAC4203DA54F8041B884727
:10028800F9E706F025BA000000040020000C002061
:10029800000000080000002000040020C0B300088F
:1002A800000C00208011002080110020A4280020CC
:1002B800A0010008A4010008A4010008A801000882
:1002C8006EE700F000F8FEE72DE9F04F2DED108AFB
:1002D800C1F80CD0C3689D46BDEC108ABDE8F08F0C
:1002E800002383F311882846A047002006F032FC3B
:1002F800FEE706F0ECFB00DFFEE7000081F00041BE
:1003080002E000BF83F0004330B54FEA41044FEAF2
:10031800430594EA050F08BF90EA020F1FBF54EA8D
:10032800000C55EA020C7FEA645C7FEA655C00F029
:10033800E2804FEA5454D4EB5555B8BF6D420CDDFA
:100348002C4480EA020281EA030382EA000083EA7D
:10035800010180EA020281EA0303362D88BF30BD1D
:1003680011F0004F4FEA01314FF4801C4CEA113173
:1003780002D0404261EB410113F0004F4FEA0333D2
:100388004CEA133302D0524263EB430394EA050F5D
:1003980000F0A780A4F10104D5F1200E0DDB02FACC
:1003A8000EFC22FA05F2801841F1000103FA0EF260
:1003B800801843FA05F359410EE0A5F120050EF126
:1003C800200E012A03FA0EFC28BF4CF0020C43FA57
:1003D80005F3C01851EBE37101F0004507D54FF064
:1003E800000EDCF1000C7EEB00006EEB0101B1F5B4
:1003F800801F1BD3B1F5001F0CD349085FEA3000FA
:100408004FEA3C0C04F101044FEA445212F5800F04
:1004180080F09A80BCF1004F08BF5FEA500C50F1A1
:10042800000041EB045141EA050130BD5FEA4C0C84
:10043800404141EB0101013C28BFB1F5801FE9D2E1
:1004480091F0000F04BF01460020B1FA81F308BF04
:100458002033A3F10B03B3F120020CDA0C3208DDD0
:1004680002F1140CC2F10C0201FA0CF021FA02F1AB
:100478000CE002F11402D8BFC2F1200C01FA02F11B
:1004880020FA0CFCDCBF41EA0C019040E41AA2BF40
:1004980001EB0451294330BD6FEA04041F3C1CDA08
:1004A8000C340EDC04F11404C4F1200220FA04F028
:1004B80001FA02F340EA030021FA04F345EA0301D2
:1004C80030BDC4F10C04C4F1200220FA02F001FA94
:1004D80004F340EA0300294630BD21FA04F0294616
:1004E80030BD94F0000F83F4801306BF81F48011AF
:1004F8000134013D4EE77FEA645C18BF7FEA655C22
:1005080029D094EA050F08BF90EA020F05D054EAF3
:10051800000C04BF1946104630BD91EA030F1EBFF8
:100528000021002030BD5FEA545C05D140004941FC
:1005380028BF41F0004130BD14F580043CBF01F5EF
:10054800801130BD01F0004545F0FE4141F47001D5
:100558004FF0000030BD7FEA645C1ABF19461046B0
:100568007FEA655C1CBF0B46024650EA013406BFB1
:1005780052EA033591EA030F41F4002130BD00BF70
:1005880090F0000F04BF0021704730B54FF480642D
:1005980004F132044FF000054FF0000150E700BFAE
:1005A80090F0000F04BF0021704730B54FF480640D
:1005B80004F1320410F0004548BF40424FF00001FA
:1005C8003EE700BF42004FEAE2014FEA31014FEA3D
:1005D80002701FBF12F07F4393F07F4F81F060518C
:1005E800704732F07F4208BF704793F07F4F04BFD7
:1005F80041F40021704730B54FF4607401F00045B4
:1006080021F000411CE700BF50EA010208BF704713
:1006180030B54FF000050AE050EA010208BF704704
:1006280030B511F0004502D5404261EB41014FF46D
:10063800806404F132045FEA915C3FF4D8AE4FF075
:1006480003025FEADC0C18BF03325FEADC0C18BF58
:10065800033202EBDC02C2F1200300FA03FC20FAA9
:1006680002F001FA03FE40EA0E0021FA02F11444F6
:10067800BDE600BF70B54FF0FF0C4CF4E06C1CEA0F
:1006880011541DBF1CEA135594EA0C0F95EA0C0F80
:1006980000F0DEF82C4481EA030621EA4C5123EAF3
:1006A8004C5350EA013518BF52EA033541F4801122
:1006B80043F4801338D0A0FB02CE4FF00005E1FBD5
:1006C80002E506F00042E0FB03E54FF00006E1FB1F
:1006D80003569CF0000F18BF4EF0010EA4F1FF0462
:1006E800B6F5007F64F5407404D25FEA4E0E6D41A2
:1006F80046EB060642EAC62141EA55514FEAC520B3
:1007080040EA5E504FEACE2EB4F1FD0C88BFBCF52E
:10071800E06F1ED8BEF1004F08BF5FEA500E50F1DF
:10072800000041EB045170BD06F0004646EA0101A5
:1007380040EA020081EA0301B4EB5C04C2BFD4EBD7
:100748000C0541EA045170BD41F480114FF0000ED0
:10075800013C00F3AB8014F1360FDEBF002001F03E
:10076800004170BDC4F10004203C35DA0C341BDCB8
:1007780004F11404C4F1200500FA05F320FA04F08A
:1007880001FA05F240EA020001F0004221F00041BE
:1007980010EBD37021FA04F642EB06015EEA430E31
:1007A80008BF20EAD37070BDC4F10C04C4F1200561
:1007B80000FA04F320FA05F001FA04F240EA020014
:1007C80001F0004110EBD37041F100015EEA430EE5
:1007D80008BF20EAD37070BDC4F1200500FA05F205
:1007E8004EEA020E20FA04F301FA05F243EA020384
:1007F80021FA04F001F0004121FA04F220EA020093
:1008080000EBD3705EEA430E08BF20EAD37070BDD8
:1008180094F0000F0FD101F00046400041EB0101B8
:1008280011F4801F08BF013CF7D041EA060195F09A
:10083800000F18BF704703F00046520043EB030354
:1008480013F4801F08BF013DF7D043EA0603704741
:1008580094EA0C0F0CEA135518BF95EA0C0F0CD04C
:1008680050EA410618BF52EA4306D1D181EA030192
:1008780001F000414FF0000070BD50EA410606BF8C
:100888001046194652EA430619D094EA0C0F02D1D1
:1008980050EA013613D195EA0C0F05D152EA033616
:1008A8001CBF104619460AD181EA030101F0004134
:1008B80041F0FE4141F470014FF0000070BD41F07D
:1008C800FE4141F4780170BD70B54FF0FF0C4CF457
:1008D800E06C1CEA11541DBF1CEA135594EA0C0F76
:1008E80095EA0C0F00F0A7F8A4EB050481EA030EC3
:1008F80052EA03354FEA013100F088804FEA0333AA
:100908004FF0805545EA131343EA12634FEA022277
:1009180045EA111545EA10654FEA00260EF0004138
:100928009D4208BF964244F1FD0404F5407402D28A
:100938005B084FEA3202B61A65EB03055B084FEA1B
:1009480032024FF480104FF4002CB6EB020E75EB18
:10095800030E22BFB61A754640EA0C005B084FEA40
:100968003202B6EB020E75EB030E22BFB61A7546BD
:1009780040EA5C005B084FEA3202B6EB020E75EB08
:10098800030E22BFB61A754640EA9C005B084FEA80
:100998003202B6EB020E75EB030E22BFB61A75468D
:1009A80040EADC0055EA060E18D04FEA051545EA7C
:1009B80016754FEA06164FEAC30343EA52734FEA25
:1009C800C2025FEA1C1CC0D111F4801F0BD141EA9E
:1009D80000014FF000004FF0004CB6E711F4801F03
:1009E80004BF01430020B4F1FD0C88BFBCF5E06FE3
:1009F8003FF6AFAEB5EB030C04BFB6EB020C5FEAF3
:100A0800500C50F1000041EB045170BD0EF0004E47
:100A18004EEA113114EB5C04C2BFD4EB0C0541EA79
:100A2800045170BD41F480114FF0000E013C90E676
:100A380045EA060E8DE60CEA135594EA0C0F08BF3A
:100A480095EA0C0F3FF43BAF94EA0C0F0AD150EA39
:100A580001347FF434AF95EA0C0F7FF425AF1046CC
:100A680019462CE795EA0C0F06D152EA03353FF4F4
:100A7800FDAE1046194622E750EA410618BF52EA71
:100A880043067FF4C5AE50EA41047FF40DAF52EA45
:100A980043057FF4EBAE12E74FF0FF3C06E000BFE2
:100AA8004FF0010C02E000BF4FF0010C4DF804CDEF
:100AB8004FEA410C7FEA6C5C4FEA430C18BF7FEAAF
:100AC8006C5C1BD001B050EA410C0CBF52EA430CDD
:100AD80091EA030F02BF90EA020F0020704710F15D
:100AE800000F91EA030F58BF994208BF90422CBFEC
:100AF800D8176FEAE37040F0010070474FEA410CE5
:100B08007FEA6C5C02D150EA013C07D14FEA430C02
:100B18007FEA6C5CD6D152EA033CD3D05DF8040B73
:100B2800704700BF8446104662468C4619466346A5
:100B380000E000BF01B5FFF7B7FF002848BF10F17C
:100B4800000F01BD4DF808EDFFF7F4FF0CBF0120C1
:100B580000205DF808FB00BF4DF808EDFFF7EAFF3D
:100B680034BF012000205DF808FB00BF4DF808EDF8
:100B7800FFF7E0FF94BF012000205DF808FB00BFED
:100B88004DF808EDFFF7CEFF94BF012000205DF877
:100B980008FB00BF4DF808EDFFF7C4FF34BF012084
:100BA80000205DF808FB00BF4FEA410C7FEA6C5C4F
:100BB80002D150EA013C0AD14FEA430C7FEA6C5C4F
:100BC80002D152EA033C02D14FF0000070474FF0C7
:100BD800010070474FEA4102B2F1E04324BFB3F588
:100BE800001CDCF1FE5C0DD901F0004C4FEAC0029C
:100BF8004CEA5070B2F1004F40EB830008BF20F080
:100C08000100704711F0804F21D113F13872BCBF39
:100C180001F00040704741F480114FEA5252C2F18E
:100C28001802C2F1200C10FA0CF320FA02F018BFD7
:100C380040F001004FEAC1234FEAD32303FA0CFC2A
:100C480040EA0C0023FA02F34FEA4303CCE77FEAB9
:100C5800625307D150EA01331EBF4FF0FE4040F403
:100C68004000704701F0004040F0FE4040F40000B2
:100C7800704700BF53B94AB9002908BF00281CBFF4
:100C88004FF0FF314FF0FF3000F00CB8ADF1080C19
:100C98006DE904CE08F026FFDDF804E0DDE9022363
:100CA80004B07047704700BF10B5054C237833B9BE
:100CB800044B13B10448AFF300800123237010BD27
:100CC8008011002000000000C0B3000808B5034BE5
:100CD8001BB103490348AFF3008008BD00000000C2
:100CE80084110020C0B30008704708B5FFF7FCFF67
:100CF80008BD08B500F004FB08BD000008B5334B7B
:100D08001B78DB0702D5324802F056FC3148012235
:100D18004FF4006107F0E9F82E4801224FF4806192
:100D280007F0E3F82B480122042107F0DEF82948F0
:100D38000122022107F0D9F8012280214FF09040CA
:100D480007F0D3F801221146224807F0CEF84022D6
:100D58004FF480614FF0904007F0C7F840224FF4FD
:100D680000714FF0904007F0C0F840224FF48071B6
:100D78004FF0904007F0B9F8164840224FF4004170
:100D880007F0B3F8144840224FF4005107F0ADF8CB
:100D9800114840224FF4804107F0A7F80E4840223E
:100DA8004FF4004107F0A1F8402204214FF0904091
:100DB80007F09BF8094A002313605360084A136040
:100DC8009380BDE8084000F091BB00BF7912002075
:100DD800229E00080004004800080048A0110020D6
:100DE800A81100202DE9F74F534F544CB94600265F
:100DF8004FF0010A06F1FF38B8F1040F04D8DFE814
:100E080008F04346484A4F004FF40063238301200B
:100E180005F0A5FE4FF09042494BD2F810B0D2F839
:100E280010E0D2F810C02569186919691B69019387
:100E38001369CBF3802B9B084FEA1E2E4BEAC31392
:100E48000EF0020E4FEA9C1C43EA0E030CF0040C51
:100E58002D0B43EA0C0305F00805400A2B4300F06C
:100E68001000490A01F0200103430B430199490A84
:100E780001F040010B43DBB2B8F1040F13D8DFE8EF
:100E880008F04D50525457004FF48063BEE70423D6
:100E9800BCE70223BAE74FF0904380221A83B6E7F3
:100EA800A4F818A0B3E74FF40062628319F8012B85
:100EB8009A4208D009F8013C224B83F800A004F0BC
:100EC8008FFE214B18800136062E93D11D4C2378B6
:100ED800F3B11D4B188804F088FE052818D91B4962
:100EE80000230B604B6000203E46054616F8012B98
:100EF8001A4102F00102AA4001351043062DC0B282
:100F0800F4D10133082B01F8010BECD10023237035
:100F180000F0F7FA012003B0BDE8F08F4FF48062CB
:100F2800C3E70422C1E70222BFE780215183BDE75E
:100F3800A4F81AA0BAE700BFA811002000040048CE
:100F4800000800489C1100209E110020A0110020DC
:100F5800014B185C704700BFA01100202DE9F84F25
:100F68001A4D2B78D80702D5194802F025FB194FDE
:100F7800DFF868A0DFF86880DFF8689000242B7835
:100F8800D90703D52146504602F016FB17F801BBD6
:100F980000262B784BFA06F2D20703F0010311D58D
:100FA80013B1484602F008FB0136062EF1D12B7822
:100FB800DB0702D5084802F0FFFA0134082CDED11D
:100FC800BDE8F88F002BEFD04046EBE77912002000
:100FD8002F9E0008A0110020F5AC00083E9E0008D6
:100FE800469E0008449E0008082823D8DFE800F041
:100FF8002C05070A0F14191E200001207047134BF7
:1010080018787047124B187800F001007047104BA1
:101018001878C0F3400070470D4B1878C0F3800073
:1010280070470B4B1878C0F3C0007047094BEAE7CC
:10103800084BEDE7084A0938126801238340134238
:1010480014BF01200020704700207047AE11002017
:10105800B8110020AF110020B41100202DE9F04193
:101068002A4C2178002933D1294D2878FFF7BCFF75
:1010780080466878FFF7B8FF0746A878FFF7B4FFFF
:101088000646E878234DFFF7AFFF234B434403EBB5
:10109800470303EB860313F830002B782BB91F4E58
:1010A8003278013202F00302327001330322B3FBBB
:1010B800F2F202EB42029B1A194A2B7013780133A1
:1010C80003F00F031370174B1A6800EB4200186007
:1010D800013101F001012170134C2078FFF784FFE2
:1010E80001466078FFF780FF0546A078FFF77CFF90
:1010F800830003EB45000144E078FFF775FFC9B2B0
:1011080001EBC000C0B2BDE8F08100BFAE11002005
:10111800040C0020B0110020080C0020AF110020A2
:10112800B8110020B4110020000C00200323022273
:10113800012100F0BFB90000A0F5BA40633838B506
:10114800052875D8DFE800F0030A2D5711238C789D
:10115800DCB1002000F098F9002416E08C78E52036
:10116800002C42D000F032FBF6E78C78002C5FD0E0
:10117800304D2B781BB904F033FD2F4B18802F4AC4
:1011880001232B70137801331370204638BD8C78F7
:10119800002CFAD0E22000F019FB294800F0D3FA1D
:1011A800DAE78C78274D5CB1012000F0CBFE0322F2
:1011B8000221012000F08CF904F012FD2880CBE711
:1011C800288804F012FD63284FF0010010D81E4A49
:1011D800137883F00103137053B100F0B3FE0120BC
:1011E8000322022100F074F9E22000F073FBCCE73F
:1011F80000F0B2FEF3E78C78144D0CB10220D4E76E
:10120800288804F0F2FC63284FF002000DD8104A39
:10121800137883F0010313703BB100F093FE0322AF
:101228000221012000F054F9AFE700F095FEF6E73F
:101238000124AAE7B9110020C0110020BE11002026
:10124800789E0008BC110020BB110020C8110020A6
:10125800C6110020104B1B7810B50C46A3B1022014
:1012680000F05CFE40B10D4A13781CB101331370D5
:10127800012010BD013BFAE7094A138814B1013374
:101288001380F5E7013BFBE719B1FA2000F090FB6A
:10129800EEE7F920FAE700BFC4110020180C00207F
:1012A8001A0C002010B5024618B1012819D00120E7
:1012B80010BD0F4C237851B11BB10E48062102F026
:1012C8004BFD032000F03EFE01232370EFE723B11E
:1012D8000A460948062102F03FFD032000F03CFEC3
:1012E800F2E70029054B0CBF084610461870DEE7E8
:1012F800C51100204C0C00201C0C0020C41100203B
:1013080070B52F4C23788AB0ABB12E4B188804F0F7
:101318006CFC40F2EE2398420DD92B4D2B78012B13
:1013280003D0022B43D0294800E0294800F00BFAEB
:1013380000232B702370274A274D14782B88002C04
:1013480037D04BBB254B01AA03F120061868596812
:10135800144603C40833B3422246F7D119889B7850
:10136800A3702180FFF77AFE00F128030DEB03003C
:101378001B4B10F8244C1B781A4E1C443078E4B2EE
:10138800A04209D002F004FC02F086FD204602F0DB
:10139800FFFB02F061FE3470134A2B881288013378
:1013A800B3FBF2F102FB11332B800AB070BD0F487A
:1013B800BCE7002BF9D002F065FC2C80F5E700BFF4
:1013C800B9110020C0110020BE110020849E000821
:1013D8007C9E0008C4110020C2110020DC9D00087A
:1013E800180C0020BA1100201A0C0020809E00085A
:1013F800A0F5A2400138012894BF002001207047C1
:101408000120704708B5FFF797FE08BD704708B57B
:10141800FFF7FCFF08BD000013B502AB03E90300AA
:101428000F4B1B78B3B99DF8023073B16AB100F065
:1014380007FE04460146009800F0BEFD00992046CC
:1014480002B0BDE8104001F093BB009800F0D8FD51
:101458000446F3E7009800F0F3FD0099F0E700BFB9
:10146800CA11002003460A4600689988FFF7D4BFCE
:101478000120704710B500210446FFF7F3FF21460D
:10148800FFF7C5FF10BD000038B505460848012420
:1014980000EBC510AC400022102102F05DFCE0B268
:1014A80001F0F2F92046BDE8384000F008BD00BF61
:1014B8007C0C002010B5012404FA01F104FA02F2B0
:1014C800114304FA03F381430CBF1843984310BD3A
:1014D80008B513460A46014603480068FFF7EAFFC5
:1014E800BDE8084000F00ABDD011002008B501F0A1
:1014F80031FD00F035F902F0A1FCBDE80840FFF726
:10150800F4BB08B503F062F8002003F037FFBDE82C
:101518000840FFF7EEBB704710B500F07CFC03F005
:1015280015F804F05DFB002204460321094802F087
:1015380013FCFFF7F0FF204604F057FBF92805D904
:1015480002F0A0FBBDE8104004F056BB0A2005F0ED
:1015580006FBF0E7FC0C002038B501210546FFF733
:1015680081FF29460446FFF74DFF08B9002038BD22
:101578002946204602F032FB0028F7D029462046AB
:1015880003F086F80028F1D02946204603F0A6FF8C
:101598000028EBD02946204603F0FAFF0028E5D0C2
:1015A8002946204604F004F90028DFD0AB787BB147
:1015B80045F65B539C4232D00ED845F601439C4217
:1015C80018D045F6DF439C4226D0B4F5B84F0ED06C
:1015D8002846FFF715FFCAE745F65C539C4221D021
:1015E80045F65D539C42F3D101F042F8F0E7FFF76E
:1015F80093FFBBE70D4A1078C0F3000383F00103A3
:1016080063F3000010F00104107003D0084801F0E3
:10161800D3FFABE70748FAE701F0B4F9A6E701F012
:1016280033F8D5E701F033F8D2E700BF791200208C
:1016380008A0000819A00008F8B5174B17491F5C47
:10164800174BC20800F007008D5C16499B5C8E5C46
:1016580003410541064113F0010405F0010506F0B8
:10166800010602D0E12000F0B1F815B1E62000F043
:10167800ADF8384600F09CF915B1E62000F02AF9DB
:1016880014B1E12000F026F926B1BDE8F8402C207D
:1016980000F08EB9F8BD00BF4BA000082BA00008D1
:1016A800CBA000083BA000082DE9F041234F0446D9
:1016B8000E464FF00A08207800283DD0012838D17E
:1016C8006378012B0ED1A078A51C00F071F92C4687
:1016D80001343546002DEED00A20013D05F03FFAD1
:1016E800EDB2F7E7022B04D1A078A51C00F06EF844
:1016F800EDE7032B04D1A078A51C00F0EBF8E6E792
:10170800042B01D00134E3E72246002512F8023FFA
:10171800F95C4907144606D4002DD9D00A2005F0F3
:101728001EFA013DF8E7303B08FB053512F8013F8A
:10173800EEE7FFF781FFCBE7BDE8F08155B200087F
:101748000021FFF7B1BFFFF7FBBF704708B5FFF7F0
:10175800FCFF08BD0120704708B5FFF7FBFF08BD77
:10176800704710B50446FFF7F1FF2046FFF7F4FF76
:1017780010BD30B587B06C4684E803009DF8023090
:10178800BDF804500BB100F0B1FF0023ADF81630DE
:1017980094E8030004AC0490ADF8141094E8030036
:1017A80002904DB1BDF808204FF6FF739A4203D05E
:1017B8002046FFF75DFE18B194E8030000F0A0FE94
:1017C80007B030BD008800F05BBC000010B50446CF
:1017D80000287AD0822813D104F016F8810774D42F
:1017E800392000F0F5FE00F0C7FF4FF47A7005F0DD
:1017F800B6F9392000F0F4FEBDE8104000F0BCBF97
:1018080083280ED104F000F8C2075ED4532000F0FC
:10181800DFFE00F0B1FF4FF47A7005F0A0F9532015
:10182800E8E784280ED103F0EFFF43074DD44720A3
:1018380000F0CEFE00F0A0FF4FF47A7005F08FF9AB
:101848004720D7E7031FDBB2A02B12D802F04AF9D2
:1018580000283AD11D4B2146186804F067F820B1DA
:10186800204600F0BDFE00F087FF204600F0B0FEE5
:10187800C2E700F12003DBB2072B07D800F007040A
:101888000120A040C0B200F00BFFB5E700F15B03F8
:10189800DBB2022B05D82438BDE8104080B204F032
:1018A80007B800F15803DBB2162B06D8084ABDE882
:1018B800104032F8130004F00BB8EC2805D903F0F7
:1018C8005FF8BDE8104003F039B910BD140D0020D1
:1018D800DCA0000808B5002858D082280FD103F0F2
:1018E80093FF810752D5392000F072FE00F044FFC3
:1018F800392000F075FEBDE8084000F03DBF8328A0
:101908000AD103F081FFC20740D5532000F060FEE2
:1019180000F032FF5320ECE784280AD103F074FF6B
:10192800430733D5472000F053FE00F025FF47203A
:10193800DFE7021FD2B2A02ADBD900F12002D2B21F
:10194800072A07D800F0070301209840C0B200F02A
:10195800AFFED0E700F15B02D2B2022A04D8BDE89C
:101968000840002003F0A4BF00F15802D2B2162AA2
:1019780004D8BDE80840002003F0AABFEC2805D928
:1019880003F050F8BDE8084003F0D8B808BD38B5F2
:1019980005460C46FFF71AFF24B92846BDE838402B
:1019A800FFF798BF0A20013C05F0D9F8A4B2F3E785
:1019B80039280CBF50210021FFF7E9BF08B528B12D
:1019C80000F06EFEBDE8084000F0D6BE08BD08B5C0
:1019D80028B100F06DFEBDE8084000F0CDBE08BD9E
:1019E8002DE9F3478679857880460C4600F016FE87
:1019F80036090746A0B12F4695B1C4F3072303F073
:101A0800F003402B04D004F12003DBB2072B1ED9CE
:101A1800022000F001FF00F001FE80F00100C7B2D3
:101A2800C4F30339B9F10F0F3FD8DFE819F01200FA
:101A3800120063006300AF00C6003E003E00D00005
:101A48002C013C013C0191013E003E009A01002717
:101A5800E6E7C4F30723C4F3032613F0F00F18BF17
:101A68003601E4B295B156B104F12003DBB2072B7D
:101A7800304600D93CB900F013FE00F07DFE204648
:101A8800FFF7A4FE11E000F021FEF6E72046FFF77D
:101A980021FF56B104F12003DBB2072B304600D9F1
:101AA8002CBB00F005FE00F067FEA9F10809B9F1AA
:101AB800030F03D803F0A8FEFFF753FE002F00F032
:101AC800578100F0A3FD10F0010040F0518188F823
:101AD800020000F093FD00F035FA404600F05EF990
:101AE80000F08CFD02B0BDE8F04700F035BA00F018
:101AF800F5FDD8E7C4F3072303F0F003C4F3032A82
:101B0800202BE4B218BF4FEA0A1A64B1012C28D07E
:101B18007DB34EB398F80630D807B0D56FF30713E6
:101B280088F8063020E095B13EB900F0FBFD40EAA8
:101B38000A00C0B2FFF742FFB7E7012EF5D100F067
:101B4800F1FD40EA0A00C0B200F0F8FDADE72EB999
:101B580000F006FE5046FFF73AFFA6E7012EA4D094
:101B6800F6E71DB1052EA0D85046E3E7042E9CD811
:101B7800F0E7002EEED0392C0CBF4FF4487001204E
:101B880004F0EDFF2046FFF7A5FE8EE714F4406F42
:101B9800C4F3812307D0012B87D165B1C4F30900B1
:101BA80003F096FE81E725B1C4F3090003F080FE37
:101BB8007BE72846FAE72846F2E7E0B225B102F0CB
:101BC800DFFE02F0BBFF70E702F02CFFF9E714F428
:101BD800407F27D1002D7FF468AFC4F34213E1069C
:101BE8004FEA830348BF0F25DBB248BF9D4004F08E
:101BF8000F02C4F3812448BFED439A40022C45EA02
:101C0800020009D0032C0AD0012C02D000F062F99E
:101C18004BE700F057F948E700F064F945E700F0B2
:101C28004EF942E7C4F301220DB312F0010F3FF45D
:101C38003CAFC4F3421314F010004FEA8303DBB245
:101C48001CBF0F20984004F00F02C4F3812402FA4D
:101C580003F214BFC3430346022C43EA02000CD02C
:101C6800032C0DD0012C05D000F094F91DE712F0DB
:101C7800020FDCE700F086F917E700F093F914E7A4
:101C880000F03CF911E7E6B2C4F3032425B120467D
:101C980000F058F930464DE73046FFF798FE2046E9
:101CA80000F05AF901E75FFA84FAAAF1F003042B6D
:101CB80039D8DFE803F0030E151A23003DB1042ECE
:101CC8003FF6F3AEC4F3042000F052F9EDE6052E1A
:101CD800F6E7C4F30420002DE2D000F033F9E4E67F
:101CE800C4F30420002DF8D0DAE725B1C4F30420AA
:101CF80000F022F9D9E600F00DF9D6E64DB1C4F3AB
:101D08000420019000F01EF90198032100F060FD05
:101D1800CBE6012000F080FD012E7FF6C6AE022042
:101D280000F07AFDC1E62DB10EB15046A8E6C4F325
:101D38000420D2E74EB1BAF1390F0CBF4FF4487006
:101D4800012004F00CFF50461DE7C4F30420A7E768
:101D5800C4F30322E1B2404600F006FF00F0C0F9E8
:101D6800A3E6C4F30322E1B2404600F0FFFE9CE67E
:101D780002B0BDE8F08713B501880446807800F00A
:101D88008BF90146019100F015F900F097F80199D7
:101D9800204602B0BDE81040FFF722BE13B5044646
:101DA8000068A3880090D3B1BDF800204FF6FF73F8
:101DB8009A4214D02046FFF7CFFB50B900F02EFC12
:101DC80068B1A3785BB1022002B0BDE8104000F012
:101DD80023BD2046FFF7CFFF2046FFF74BFB02B09D
:101DE80010BD08B5002003F063FD002003F070FD6E
:101DF80000F07CFC00F090FC00F0BEFC02F0D4FF88
:101E0800BDE8084002F09ABE08B500F0F1FBBDE855
:101E18000840FFF7E6BF08B500F052FCBDE80840EF
:101E2800FFF7F2BFC0F30332023AC3B20D2A1CD83F
:101E3800DFE802F007071B1B141B1B1B0707181BF7
:101E48001B18F02B13D004D8E72B8CBF00200120DF
:101E58007047F42B14BF002001207047E72B06D9E8
:101E6800F12BF7E7C0F3C02070470020704701202E
:101E7800704708B5008800F003F9BDE80840FFF78F
:101E8800D1BF82B002AB03E9030002B0704782B051
:101E980002AB03E9030002B07047704708B5FFF7CB
:101EA800FCFF08BD08B5FFF7F9FF034B1860BDE854
:101EB8000840FFF796BF00BFCC1100207047FFF71E
:101EC800F1BF0000024B1B681843FFF7EBBF00BFD0
:101ED800CC110020024B1B681840FFF7E3BF00BF7E
:101EE800CC110020024B1B685840FFF7DBBF00BF36
:101EF800CC11002008B5FFF719F908BD08B5FFF7A0
:101F0800F9FF034B1860BDE80840FFF76ABF00BF40
:101F1800D01100200020FFF7F1BF0000054B1B681F
:101F28001BB9B0FA80F04009704723FA00F000F0BE
:101F380001007047D0110020012303FA00F0FFF7D9
:101F4800DDBF0000012303FA00F0024B1B681843B1
:101F5800FFF7D4BFD0110020012303FA00F0034B90
:101F68001B6823EA0000FFF7C9BF00BFD01100209B
:101F7800012303FA00F0024B1B685840FFF7BEBF6D
:101F8800D0110020024B1B681843FFF7B7BF00BFF2
:101F9800D0110020024B1B681840FFF7AFBF00BFED
:101FA800D0110020024B1B685840FFF7A7BF00BFA5
:101FB800D011002070470000C0F3072303EB430350
:101FC80037B500EB430000F007030C4A0124C0F3C7
:101FD800C40000EB80009C400244E4B20020157865
:101FE80021FA00F343F300036B40234001305D40C6
:101FF800052802F8015BF2D103B030BDD4110020EE
:10200800C0F3072303EB430313B500EB43000B496D
:1020180000F00704C0F3C40000EB80000022014474
:10202800104611F8013BE34003F0010393400132ED
:102038001843052AC0B2F4D102B010BDD411002053
:102048000D4B73B51E680D4BADF804001B681F24BB
:102058001E4326FA04F3DB07E5B205D4013CF8D2A7
:102068000025284602B070BD0199284600F068FE98
:1020780080B20128F2D0F4E7D0110020CC11002062
:1020880007B5ADF804000198FFF7DAFF019903B02E
:102098005DF804EB00F054BE13B5104BADF8041016
:1020A8001B782BB1019802B0BDE81040FFF7E8BFDC
:1020B80070B10198FFF7C4FF044601460198FFF785
:1020C8007BFF0199204602B0BDE8104000F038BE01
:1020D8000198FFF795FF0446F3E700BFCA110020F7
:1020E800F8B5034660B1002501261C4614F8010B1B
:1020F80074283CD00BD802282AD002D8012812D044
:10210800F8BD031F6F2BFBD8FFF760FB1AE075289B
:1021180037D000F17C03DBB26F2BF1D800F07F00E1
:10212800FFF7D8FB0EE09C1C5B7803F12002D2B2CB
:10213800072A0BD803F007039840C0B200F0DCFA76
:1021480000F01AFB2F46FFB92346CEE71846DBE717
:1021580058789C1C00F12003DBB2072BE0D800F074
:10216800070006FA00F0C0B200F0CEFAE8E75F78A0
:102178009C1C002FE6D00A20013F04F0F0FCFFB2BF
:10218800F7E75D789C1CDDE70A20013F04F0E7FCD7
:10219800FFB2D8E770B5094B094E1C78094D337862
:1021A800A34200D170BD05EBC40355F8340059684B
:1021B8000134FFF76CFE04F00704F0E73B1200203F
:1021C8003A120020FA110020024B18685968FFF7EC
:1021D8005EBE00BFF2110020214BF7B59A7912F0CC
:1021E800F00F0AD19A7842B11E4A1F4E12781F4D3D
:1021F8004FF6FF773178914201D103B0F0BD1868EE
:102208000090988840B3BDF80010B94224D005EB7F
:10221800C20493F801C061788C451DD193F800C0C1
:1022280015F832108C4517D1A178A9B9A188091AD7
:1022380089B2C72910D899790948012262F3071190
:102248009971A37962F30713A371FFF7A7FD03B090
:10225800BDE8F040FFF79EBF013202F00702C9E770
:10226800F21100203B1200203A120020FA1100203F
:102278002DE9F043054685B09D4CAB88ADF8043098
:10228800A3880068ADF80C30A388009020682978EE
:102298006A78AF78B5F804800290EC46002B00F01D
:1022A800CC80BDF808E04FF6FF70864500F0C58089
:1022B800A678002E00F0C180A8EB0303A0799BB29A
:1022C800C72B00F0F00900F29A802B88B9F1000FB3
:1022D80064D17345B94610D17FB9012363F3071060
:1022E800A071FFF771FF2046FFF758FDA379AB7186
:1022F8000026304605B0BDE8F0838DF808108DF84B
:102308000920B8F1000F23D0BDF808004FF6FF737D
:1023180098421DD0F7B97748774B07781B787748EC
:10232800BB421CD10098FFF7ABFEC0F30332012A71
:10233800C3B225D90E3202F00F02012A29D810F4AF
:10234800706F22D0AA7912F0F00F1ED14E46D0E756
:10235800002FCDD0A37943F00103A371C8E700EBA8
:10236800C30494F801C0944506D110F833C08C45D5
:1023780002D1A478002CBBD1013303F00703CFE7C7
:1023880010F4706F01D0002BE0D02033DBB2072BA4
:10239800DCD92846FFF702FDB146D7E773450BD1D4
:1023A80057B9A8712846FFF7F9FC2B6823606B68BA
:1023B8006360FFF709FF9CE72846FFF75AFDD0B195
:1023C800CFB1A3791F2B0CD92288ADF8082002A819
:1023D80000228DF80A20ADF80C808DF80E30FFF73A
:1023E800DDFC2B6823606B686360FFF7F5FEFFF781
:1023F800EBFE01267DE72846FFF7D0FCF9E7B9F1A7
:10240800000F0DD19CE80300FFF73BFD2046FFF7C6
:10241800C5FCC4F80090C4F80490FFF7D5FE95E712
:1024280022882B889A42C7D1002FC5D1A871284687
:10243800FFF7B4FC276067605BE72068A28802901A
:10244800ADF80C20002B40D0BDF808104FF6FF72F5
:1024580091423AD0A678002E37D1A8EB03081FFA8C
:1024680088F8B8F1C70F29D83E46002FC3D0228874
:102478002B889A4215D1A379DA070DD413F0F0020C
:102488000AD0F02AAB718DD0DBB2C3F3031201324C
:1024980062F30713AB7185E72B6823606B68636091
:1024A80027E72846FFF7E5FC00289AD1A3792846B4
:1024B80043F00103A371FFF771FC1AE79CE80300DE
:1024C800FFF7DFFC2660666073E7002F93D028468D
:1024D800FFF7CFFC064600288DD02B6823606B6879
:1024E80003486360FFF76EF9FFF776FE61E700BF08
:1024F800F21100203A1200203B120020FA110020AD
:10250800F0B587B06C4684E803002046FFF7B0FEBC
:102518002B4FBDF804202B4E054678B194E80300F4
:102528000490ADF814103AB1BDF810204FF6FF73BF
:102538009A4201D0FFF7ABFC234C3AE094E8030041
:1025480004AB83E803003C7831780290002AF3D08A
:10255800BDF808004FF6FF729042EDD0621C02F001
:1025680007028A420BD0184D3A7003CB05EBC40C16
:1025780045F83400CCF80410FFF70CFEDCE7FFF751
:102588004AFC124B3D7035701D605D60D4E704EB6A
:10259800C000FFF76DFE80B1337804EBC30254F836
:1025A80033005168FFF773FC3378013303F00703F6
:1025B800337030783B788342E9D107B0F0BD00BF73
:1025C8003A1200203B120020FA110020F2110020DC
:1025D800024B0146186803F02BBA00BF140D002007
:1025E800024B0146186803F03DBA00BF140D0020E5
:1025F800014B186803F050BA140D0020024B93F9F0
:102608000000C0F3C70070475D120020024B187825
:1026180000F00700704700BF5D120020034B1878D8
:1026280010F0070018BF0120704700BF5D1200209E
:102638000C4A5378C3F38001814210B504460FD089
:1026480060F382035370108800F02EF9064B1B7854
:10265800DB0705D521460548BDE8104000F0ACBFB2
:1026680010BD00BF14250020791200200AA100081F
:10267800044B5878C0F3800080F0010000F001009E
:10268800FFF7D6BF142500200120FFF7D1BF002097
:10269800FFF7CEBF014B1878704700BF5F120020CC
:1026A800024B1A7810431870704700BF5F12002061
:1026B800024A137823EA0000107070475F12002066
:1026C800014B00221A7070475F120020024B1A78E3
:1026D80010431870704700BF60120020024A137838
:1026E80023EA00001070704760120020014B00229E
:1026F8001A70704760120020024B1A781043187045
:10270800704700BF5C120020024A137823EA0000D9
:10271800107070475C120020014B00221A7070473D
:102728005C120020014B1878704700BF5E12002031
:10273800704708B5FFF7FCFF08BD0000064A52784D
:10274800520708B506D4054A1178814202D01070A4
:10275800FFF7EFFF08BD00BF142500205E12002020
:1027680008B5044B1A781AB100201870FFF7E1FF7A
:1027780008BD00BF5E12002010B50D4B0D4A1B7836
:1027880012780D4C13430D4A2068127813430C4AF3
:102798000370127832B11343037003F0A9F808B13B
:1027A800FFF7DEFF2068BDE8104003F035B800BF32
:1027B8005F12002060120020140D00205C1200201F
:1027C8005E120020704708B5FFF7FCFF08BD000047
:1027D8000A4A5278520710B50CD4094C41EAC00194
:1027E8002170FFF7AFFB94F90000C0F3C700FFF7B3
:1027F800EAFF10BDBDE81040FFF7A4BB1425002078
:102808005D12002008B5034B00201870FFF7DBFFAE
:1028180008BD00BF5D12002008B50C4A92F90030CF
:1028280023EA000040B21070420702D1DBB28342B3
:1028380003D1074B5B785B0707D5C0F3C700FFF7E9
:102848008BFBBDE80840FFF7DDBF08BD5D12002027
:102858001425002008B502F0D3FBBDE808404FF668
:10286800FF71002002F05BBC08B5002002F054FCA8
:102878004FF6E963C31A5842584108BD022002F0D6
:1028880045BC032002F042BC0146032002F041BCD3
:1028980010B5042002F03AFC0446222002F036FC6F
:1028A80044EA002080B210BD10B5C1B2044604202D
:1028B80002F02FFC210A2220BDE8104002F029BCBA
:1028C800072002F023BC0146072002F022BC014683
:1028D8000F2002F048BC0146132002F044BC00203F
:1028E800FFF7F9BF08B50020FFF7F1FFFFF7F7FF83
:1028F80008BD000010B502F083FB4FF6E961002027
:1029080002F00DFC0021022002F003FC002103204C
:10291800002402F0FEFB1A4B214604201C6002F042
:10292800F8FB2146222002F0F4FB2146052002F0A4
:10293800F0FB2146062002F0ECFBFF21072002F005
:10294800E8FB2146082002F00EFC21460D2002F08B
:10295800E0FB2146182002F006FC2146172002F071
:10296800D8FB21461C2002F0FEFB2146202002F065
:10297800D6FB2146182002F0F6FBFFF7B3FF10BD87
:10298800CC110020FFF7B6BF01460E2002F0C1BBF4
:1029980008B503F0F9F8024B1860024B186008BD3F
:1029A800681200206C12002008B503F0EDF8024B05
:1029B8001860024B186008BD6812002064120020DD
:1029C8007047704708B5FFF7FCFF08BD704708B5AA
:1029D800FFF7FCFF08BD000008B5054800F094FAB1
:1029E80002F0C4FAFFF7ECFFFFF7ECFF08BD00BFE9
:1029F800216200080120704708B5FFF7FBFF08BDFA
:102A08007047704708B5FFF7FBFFFFF7FAFF08BDEF
:102A180008B503F0B7F8FEF771F902F03FFC02F0D1
:102A2800E7FCFFF7D4FF08BD38B50E4D2B780446F8
:102A3800580711D5D9070FD50B4800F0BDFD2B78E5
:102A4800DA0709D50948214600F0B6FD2B78DB07DF
:102A580002D5074800F0B0FD2046BDE83840FEF733
:102A680080BE00BF791200201FA1000832A1000813
:102A7800F5AC00082DE9F74FFEF7B4F908B1FFF7F8
:102A880087FFDFF8DCA0DFF8DC8000255646EFB2D0
:102A98003846FEF75DFA1AF8014B8442814644D065
:102AA80098F800309B0701D5FEF758FA84EA090424
:102AB800E3B20022012423425FFA82FB30D0FFF701
:102AC8009BFFA8B119EA040F14BF012300238DF856
:102AD80002308DF800B08DF8017003F081F840F0F5
:102AE8000100ADF8040002AB13E90300FEF741FE54
:102AF800735D6340735502F0EFFB08B1FFF754FFB5
:102B0800164C02F08FF802F07FFE2378834222D021
:102B180002F07AFE207003B0BDE8F04FFFF784BFE3
:102B280001326400062AE4B2C5D10135082DAED1C0
:102B38004FF6FF73ADF8003000238DF8023003F034
:102B48004FF840F00100ADF8040002AB13E90300B0
:102B5800FEF70FFECFE703B0BDE8F08F701200203C
:102B68007112002079120020002070477047000081
:102B78003022C1F307235043062202FB030050FA18
:102B880081F1034B33F8110082B002B0704700BFE7
:102B9800889E0008014B33F81000704766A10008B2
:102BA80010B500F0D9F8B0F5A04F044630D2B0F512
:102BB800804F80F08B80DF2812D8BF287AD8A728CA
:102BC8000AD8A42869D8012804D0031F9BB2A12BD6
:102BD80028BF0024204610BDBF2863D10024F9E790
:102BE800B0F5005F0BD2FF28F4D8E728F2D9A0F19E
:102BF800ED039BB2122BF1D840F4A04426E0B0F5C7
:102C0800405F5DD30205C3B25DD443F44044E1E7BD
:102C1800B0F5AA4F1CD2B0F5A84FC3B276D2B0F522
:102C2800A64F0AD2B0F5A44F66D2B0F5A24F52D340
:102C38004AF2F10444EA0324CCE79A08012403F099
:102C480003039C4044EA421444F40A44A4B2C1E792
:102C5800B0F5B44F0FD2B0F5B24F63D2B0F5AC4F68
:102C680057D3A0F5B0439BB2FF2BB7D84AF2F00375
:102C780043EA00233EE0A0F5C0439BB2B3F5005FF2
:102C8800ACD2C0F3042000F0E7F80002E4B200F48C
:102C9800F850204340F400549CE7A0F1240444F485
:102CA8008044D3E75834254BE4B233F8144044F455
:102CB80088448FE7C03880B2FFF76CFF044689E785
:102CC800C0F30B00F8E743F4484483E7C0F30B0470
:102CD80044F420447EE7C3F381025201C0F3011497
:102CE80042EA042403F00303012202FA03F3234314
:102CF80043F40C439CB26DE79A08012403F00303E4
:102D08009C4044EA421444F40C449FE74AF2F40419
:102D180090E7C0B200F0A0F8040204F4F85444F4B8
:102D2800005457E700F00F0000F096F8C4F30314BE
:102D380040EA042040F4104084B24BE738A1000870
:102D480007B5ADF804100199FFF712FF03B05DF85D
:102D580004EBFFF725BF0000E7284DD8DF2807D888
:102D6800312861D00ED8292857D02A2863D0704737
:102D7800A0F1E003072B3FD8DFE803F0123E21263D
:102D8800303E3A3F392804D0822802D035283DD039
:102D98007047304B1B7813F0030F18BFE0207047C3
:102DA8002C4A1378D9074DD4527812F0010F23D04A
:102DB80013F0100F08BFE32018BF00207047254B01
:102DC8001B7813F0040FF2E7224A137859073BD413
:102DD8005278D2073AD413F0100FEDE71D4B5A780A
:102DE800910709D51B7813F0100F08BFE720E3E718
:102DF800184B1B781A07F6D47047164A1378190728
:102E080026D452789207E6D5E420F5E7114B1B78D3
:102E180013F0200F18BF292070470E4B1B7813F0B2
:102E2800200F18BF352070470A4B1B7813F0400F4E
:102E380018BF2A207047074B1B7813F0400F18BFA4
:102E48003120704739207047E2207047E0207047F2
:102E5800E620704714250020294A1378590707D51A
:102E680000F01801082927D100F0F70040F004000D
:102E7800190707D500F01801182926D100F0E70036
:102E880040F014005278D10707D500F0180108293E
:102E980024D100F0F70040F00100920707D500F0B8
:102EA8001802182A23D100F0E70040F01100DB06D1
:102EB80048BF00F0E700704700F01401042904BF80
:102EC80000F0FB0040F00800D2E700F014011429DC
:102ED80004BF00F0EB0040F01800D3E700F0110148
:102EE800012904BF00F0FE0040F00800D5E700F01B
:102EF8001102112A04BF00F0EE0040F01800D6E7D6
:102F08001425002000207047014B1860704700BF4F
:102F1800180D0020014B1B68184700BF180D002032
:102F2800FFF798BC08B5FDF75DFF642003F017FEB6
:102F3800FDF758FF0020FEF70BF8C30705D5FFF78C
:102F4800EFFFBDE8084002F057BE08BD08B5FFF71F
:102F5800E9FF08BD08B5FFF787FC08B9FFF712FDC0
:102F6800FFF78CFC084B1870FFF792FC074B188092
:102F7800FFF7ECFFFFF785FCFEF7A1FF044B18688D
:102F8800BDE80840FEF7B6BF7912002014250020DE
:102F9800D011002008B502F097FD03F07DF903F089
:102FA8007DF903F09BF9FFF72DFDFAE770472DE94E
:102FB800F04F8BB00746149C9DF854B016981646EF
:102FC8008846DDE918520CB922F0100212F480612B
:102FD800019100D014B312F0200F14BF4FF0410933
:102FE8004FF06109A4460DF1080A0024A9F10A0965
:102FF800BCFBF0FE00FB1ECE5FFA8EF1BEF1090F9E
:1030080094BF30314944C9B284450AF8011BBCFB5E
:10301800F0F104F1010401D3202C12D112F0020ABC
:1030280023D102F0010E4DB1BEF1000F06D0BBF165
:10303800000F02D112F00C0F00D0013D4FF0300C00
:1030480005E08C46D4E702A901F804C001341799B9
:10305800A14201D9202CF6D14FF0300CBEF1000F5F
:1030680003D0A54201D91F2C45D9D10622D50199F3
:10307800002946D1002C44D01799A14201D0AC4276
:103088003FD1611E3CD0102846D1023C910645D460
:103098001F2C1BD804F128016944782001F8200C62
:1030A80001341F2C12D804F128016944302001F89A
:1030B800200C01341F2C09D8BBF1000F35D004F1C6
:1030C800280169442D2001F8200C013492074DD0C5
:1030D800B146A1444846A9EB0402002C4AD1BAF1F2
:1030E800000F05D0A9EB0609A94506EB090049D34D
:1030F8000BB0BDE8F08F02A901F804C00134ADE7B8
:103108000C461028C2D00228CBD11F2CDED804F1DF
:10311800280169446220C1E70C46F4E71F2CD5D882
:1031280004F1280169445820B8E7500704D504F190
:10313800280169442B20C6E71107C7D504F12801E7
:1031480069442020BFE7414620200193B847019BEE
:1031580009F101094D450BEB0902F4D8A5EB040967
:10316800A54238BF4FF00009B144B2E7A146A6EB2B
:10317800040BEFE7013C02A84146005D0193B84704
:10318800019BA7E7024641462020019309F1010966
:10319800B847019BA8E708B1FFF7BCBE704700001D
:1031A8002DE9F04F8DB01F46AA4B169E0029914677
:1031B80014BF83469B460025387858B94D452CBF27
:1031C80009F1FF322A464B460020D84728460DB061
:1031D800BDE8F08F252807F1010706D02A466C1CA8
:1031E8004B460691D847254620E1002306E02D2AC4
:1031F80015D0302A0CD143F001030746384610F8A1
:10320800012B2B2A0ED0F2D8202A0ED0232A0FD039
:10321800A2F13004092C2AD84FF0000811E043F03D
:103228000203EAE743F00403E7E743F00803E4E7AF
:1032380043F01003E1E70A2404FB0822A2F1300856
:103248000746384610F8012BA2F13004092CF2D9B0
:103258003A782E2A57D17878A0F13004092C07F152
:10326800010243F4806344D80020069017E02A2A1C
:103278000AD156F8048BB8F1000FBCBF43F0020323
:10328800C8F100080746E3E74FF00008E0E7069CAE
:103298000A2202FB0400A0F1300206923A461746C1
:1032A80017F8010BA0F1300CBCF1090FEFD9174644
:1032B8003A4612F8010B6C282DD027D8682831D04F
:1032C8006A2838D03A46174617F8010B782885D867
:1032D800632833D8622877D0632800F0BF80252878
:1032E8003FF47CAF58287FF479AF43F020031022D5
:1032F8006BE02A2806D156F8044B24EAE4720692B9
:103308000237D5E7174600220692D1E77A28D9D1A5
:1033180043F48073D7E778786C28F9D143F4407385
:10332800BA1CD0E77878682802D043F08003CAE74F
:1033380043F0C003F4E743F40073C4E7A0F1640C5E
:10334800454C5FFA8CFC012202FA0CF222401AD199
:10335800732800F0C38070287FF440AF43F0210346
:10336800059308230493069B03931023CDE90123B7
:1033780056F8043B00932A464B4658460691FFF7F9
:1033880016FE054652E07828B1D06F2800F011816A
:10339800692823F010034FF00A0201D0642814D1E1
:1033A8005C0548BF23F00103692803F4007C01D0C1
:1033B800642822D1BCF1000F7FF4FEAED80506F1D7
:1033C800040A05D5306806E0022223F00C03E7E77B
:1033D8005C060DD53078CDE90483069B0028CDE93D
:1033E80002234FEAD0730193B8BF4042009015E022
:1033F8001806E7D5B6F90000EDE7BCF1000F7FF439
:10340800DBAEDC0506F1040A12D5CDE90483069B80
:10341800CDF804C0CDE90223336800932A464B4611
:1034280058460691FFF7C3FD564605460699C3E67A
:10343800580608D53078CDE90483069BCDE90223E8
:1034480000230193D2E7306813F0800F18BF80B2D1
:10345800F1E700BFB52F00082108120013F002049D
:1034680026D04FF0010A6B1C0693079116F8040B3F
:103478004B462A46D847079974B3069A544621E022
:1034880006914B462020D84706990AEB05020AF117
:10349800010AD045F4D8B8F1000F08F1FF3308BF8E
:1034A800002308F1010A1D4408BF4FF0020ADAE7B9
:1034B800A246EAE707914B462020551CD8470799B2
:1034C80001342A464445F5D3069AA8EB0A03D045A9
:1034D80038BF00231A440692069D6DE6324652F81C
:1034E800046B0792069A002A14BF10464FF0FF306B
:1034F8003044324692F800C0BCF1000F01D082423D
:1035080012D1A2EB060A13F48062089203D0069A3D
:10351800924528BF924613F0020309931CD1AAEBE7
:1035280005032A461C4609E00132E3E7531C0A93C7
:103538000B914B462020D847DDE90A212346134446
:103548009845F3D8A8EB0A03D04538BF00230AF101
:1035580001021D4403EB020AAB1B1C4605E006935F
:103568000A914B462A46D8470A99A51916F8010B1D
:1035780038B1089B002BF3D0069B069A013B002A22
:10358800EDD1099B9BB12A46AAEB050406E00691FA
:103598004B462020561CD8470699324613194345F6
:1035A800F5D3A8EB0A03D04538BF00231D44079E76
:1035B80002E6082209E700BF0FB41FB506AA02A950
:1035C80052F8043B0392009204484FF0FF32FFF791
:1035D800E7FD05B05DF804EB04B070479F310008C3
:1035E8001FB50A4B0A4A1B7802930A4B0A491B78F3
:1035F80001930A4B0A481B7800930A4B12781B78F0
:103608000978FFF7D9FF05B05DF804FB460F0020E5
:10361800400F0020450F00203F0F0020420F0020E0
:1036280066A10008410F002010B501460446054870
:10363800FFF7C2FF0120A040FEF741FCBDE81040A3
:10364800FEF7E9BBE3A1000810B5431F8CB03E2B81
:1036580000F21481DFE813F09300830099003F0023
:10366800120112017F0012011201C2001201D100E1
:10367800F9001201120112011201E20012011201F5
:10368800E0001201AE001201120110011001100138
:10369800100110011001100110011001090112019F
:1036A8009300790012011201120112011201120194
:1036B80012011201120112010901120112017F0007
:1036C80012010D010D010D010D010D010D010D017D
:1036D8000D010D010901FFF7D4F801466A48FFF70B
:1036E8006BFFFFF7CBF8C0F3C0030193C0F380036F
:1036F800014600F001020093C0F340036348FFF75E
:103708005BFFFFF7C5F8C0F3C0130793C0F380133E
:103718000693C0F340130593C0F300130493C0F35A
:10372800C0030393C0F380030293C0F340230193C3
:10373800C0F300230146009300F00102C0F34003E8
:103748005348FFF739FF012017E05248FFF734FFCD
:10375800FFF718F9F7E75048FFF72EFFF3E74F4A4E
:103768004F48137823F00F031370FFF725FF4D48D8
:10377800FFF722FF4C4B012018700CB010BD4B48CE
:10378800FFF71AFFFDF7C8FEDDE7444C2378C3F3C3
:10379800000282F0010262F300032370DB0701D507
:1037A8004348D9E74348FFF707FF237823F00E0380
:1037B8002370C8E7394C2378C3F3400282F0010232
:1037C80062F341039807237006D53B48FFF7F4FEE0
:1037D800237843F00103EBE73848BDE72F4C237803
:1037E800C3F3800282F0010262F382035907237057
:1037F80001D53348EAE73348AEE7284C2378C3F3CA
:10380800C00282F0010262F3C3031A07237001D5D4
:103818002D48DBE72D489FE72D489DE701F0F4FF91
:103828002C4B0B901A782C4B2C481B780A92099336
:10383800047802F0A9F9E409CDE90040DDE909328C
:103848000B992748FFF7B8FE7DE7FEF7E4FA23490E
:103858000B78C3F3C01282F0010262F3C7130B7036
:103868001B064CBF1F48204876E70020FFF7DCFE08
:1038780069E73938C0B2F9E71D38FBE71B48FFF79D
:103888009BFE002079E700BFE8A1000805A2000818
:103898004EA2000833A3000844A3000879120020B0
:1038A800F6A400081DA500087A12002021A500082A
:1038B8003DA5000849A5000856A5000863A500080D
:1038C80071A5000880A5000890A500089CA500081F
:1038D800A9A50008FC10002034240020142500208D
:1038E80090A6000814A700081EA700082BA7000828
:1038F800292810B55F4C51D02BD813285BD017D886
:10390800072800F08F800B2830D05B489DE00A2301
:103918005A4A1268002AF8D011781944FF2900F38E
:103928009F800029C0F29E80C9B25548117052E0AC
:10393800142833D0A0F11E03092BE6D81D38C0B2D5
:1039480020700138052867D8DFE800F03B484E545E
:103958005A6038280AD0A0F14F03032BD5D8503825
:103968000228D4D8DFE800F074777A004548FFF7DA
:1039780023FEFFF735FE444801220521FFF71CFE10
:103988002178002970D0414B41481A68414BBDE865
:103998001040002A08BF1A46FFF70EBE3E48FFF740
:1039A8000BFE2378002B64D0344A00231360374A77
:1039B80023701360E4E73948FFF7FEFDFFF710FEB8
:1039C800DEE72E4B364A1A60304B364A1A602178A9
:1039D8000029D5D03448FFF7EFFDD1E7274B334A0C
:1039E8001A602A4B324AF1E7244B324A1A60274BB5
:1039F800314AEBE7214B314A1A60244B304AE5E75C
:103A08001E4B304A1A60214B2F4ADFE71B4B2F4AC7
:103A18001A601E4B2E4AD9E7002317482370FFF778
:103A2800CBFDD4E71E4B2B481E221A701F4B3222A7
:103A38001A70204B0A221A70204B14221A70214B3C
:103A480008221A70214B28221A70FFF7B5FD97E754
:103A58006FF009035CE74FF0FF3359E7012357E79D
:103A6800FF2162E7002160E7BDE810401A48FFF730
:103A7800A3BD10BD8012002073A800088412002086
:103A880080A800082DA700083DA700087C12002088
:103A980086A8000829A7000809A800080CA800089B
:103AA8003F0F00201AA800084AA20008400F002073
:103AB80023A80008410F00202FA80008420F00206B
:103AC8003CA80008450F00204BA80008460F00201E
:103AD8005EA8000876A800088FA800080020704794
:103AE8000020704770B5264E3478012C054614D056
:103AF800022C3FD0002C40D1FEF7CCFD22280AD161
:103B08002846FFF7EBFF18B92846FFF79DFD00E0B0
:103B1800012000F00104204670BDFEF7BBFD2228FD
:103B2800284605D1FFF7DAFF0028EDD02046F0E758
:103B3800FFF7D6FF0028EED1142D1ED008D80B2D84
:103B48000AD0102D10D00F48FFF736FD0024E2E709
:103B5800292D12D0382DF6D10B48FFF72DFD0B4833
:103B6800FFF72AFD0124D6E7022338203370FFF738
:103B7800BFFED0E7FFF7BCFEF4E700243470CAE7C5
:103B88007A1200202BA70008F6A400081DA500083B
:103B9800453807EE900AF8EEE77AB2EE087AC7EEF3
:103BA800877A08B517EE900AFCF70CFD9FED080B15
:103BB80041EC110B04F0BCFF074B51EC100B002239
:103BC800FCF758FDFDF706F800EE100A08BD00BF27
:103BD800000000000000004000807B4008B545F66A
:103BE8001D43984205D18B7873B300F039FA002051
:103BF80008BD45F61E43984204D18B7823B300F0E4
:103C080045FAF4E745F61F43984206D18B78DBB1B5
:103C180000F030F80028F2D1E7E745F62A43984249
:103C280009D18B7883B100F07BFC0848002204217D
:103C380000F092F8DBE745F62B43984204D18B78E5
:103C480013B100F073FCF0E70120D1E71C0D002050
:103C580008B5FFF79DFFBDE8084000F0FDB908B5BD
:103C6800FFF796FFBDE8084000F016B900F00AB863
:103C780070470000024B187800F00100704700BF41
:103C88009025002038B50D4D2C78B4B90C4B1C701C
:103C980000F0FAFB0B4B0C491C700C4B1C700C4BC6
:103CA8001C800C4B22460634302C1A8059601A812D
:103CB80003F10C03F7D101232B7038BD3C0D002014
:103CC8008812002091120020000080BF921200206C
:103CD8008E120020302500200B4B1B7883420FD911
:103CE800013B0A4A181A43B20C2101FB032393ED46
:103CF800010AB5EEC00AF1EE10FA01D900F01CBCB9
:103D08009FED030A704700BF88120020302500206D
:103D1800000000000D4B07EE900A1B78F8EE676A6A
:103D2800DFED0B7A9B0166EEA76A07EE903AB8EED4
:103D3800E77AC6EE877A9FED077A67EE877AFCEE18
:103D4800E77A17EE903A98B2704700BF600D0020EE
:103D58000000704200007A44F8B5224B1B78DB075C
:103D680004460E46154603D4BDE8F840FFF78ABF5F
:103D78001D4B1B780BB900F061F81C4B1B780BB17D
:103D8800FFF780FF1A4BD4ED017A1A4F01221A70FF
:103D9800194A3C6000231370184A1680184AFCEE32
:103DA800E77A1570174D2B8017EE903A98B2FFF707
:103DB800B1FF94ED000A00F0CDF801F011FF124BAD
:103DC8002A8818803B6803EBC203D3ED017AFCEE26
:103DD800E77A17EE903A98B2FFF79CFF0B4B1880E2
:103DE800F8BD00BF90250020891200209212002003
:103DF800911200202C250020901200201825002068
:103E0800912500208A1200208C1200208E1200209A
:103E180008B5074B1B78DB0704D500220548114677
:103E2800FFF79AFF01F0DCFE034B188008BD00BFC6
:103E380090250020941200208C12002010B5124CFE
:103E4800237803BBFEF710FD08B9FEF79BFDFEF7CC
:103E580037FD0E4B002218700D4B0E4811460632E6
:103E6800302A19805860198103F10C03F7D123789F
:103E78001BB900F0C3FA01232370FFF703FFBDE865
:103E88001040FFF7C5BF10BD891200209025002003
:103E980030250020000080BFF8B5274DB5EEC00AD8
:103EA8002B78F1EE10FA2DED028BB0EE408A48BF68
:103EB800B1EE408A002B3BD0204B1B780BB9FFF7A3
:103EC800BDFF1F4B07241946D3ED167AF4EE487A46
:103ED800F1EE10FA27D10C2262438B180026DFF886
:103EE80070C08E52C3F804C01E81072C0ED1154B2A
:103EF80001261E70144B1C78013CE4B21C70BCB93E
:103F080000F0C2FA114B2C701E7011E003F10C077F
:103F180097E80700013483E807009E81C3F810C0C2
:103F28009E823B46E1E7013C621CA3F10C03CBD126
:103F3800BDEC028BF8BD00BF921200208912002050
:103F48003025002094120020881200203C0D00200B
:103F5800000080BF2DE9F041364B1B780646D80794
:103F68002DED028BB0EE408A4CD5334B1B780BB944
:103F7800FFF764FFDFF8DC80304F98F80030B5EECB
:103F8800C08AF1EE10FA48BFB1EE488A5D1E0C22D5
:103F9800691C29D10133DBB2082B48D928490823E9
:103FA8005422A1F10C0088F8003005F0EDFE254AF6
:103FB80001231370244A137098F800305C1E01F036
:103FC8000FFE0C236343FA18F85282ED018A16811A
:103FD80001F006FE1D4C1E4B1880237893B100F0AB
:103FE8007BFA002323700DE002FB0574D4ED017AFF
:103FF800F4EE487AF1EE10FA17D198F80030013B48
:104008009D4203DBBDEC028BBDE8F08104F10C0797
:1040180097E8070084E8070001F0E2FD0135A08178
:1040280084ED048AA6823C46E7E7013DB0E788F8BC
:104038000030BCE7902500208912002030250020A0
:104048003C25002094120020921200203C0D0020F4
:10405800A4120020881200204FF6FF70FFF77ABFE5
:1040680008B5084B187840F001001870FEF72BFCD3
:10407800FFF7FEFDBDE80840034800220221FFF7D4
:104088006BBE00BF90250020500D002008B500220F
:1040980002210948FFF760FE4FF47A7002F05FFDD5
:1040A800FFF7F0FD054B18786FF300001870BDE8B6
:1040B8000840C0B2FEF707BC400D00209025002044
:1040C8002DE9F047624F634D3B7813B92C78002CEB
:1040D80071D001F085FD2D788046EDB900253B783B
:1040E800002B00F0B3805C4B1C7824B95B4B1C7828
:1040F800002C08BF2C465A4D5A4F00264FF6FD7823
:104108003B78B34200F39080574A1378002B52D083
:10411800002111701C464EE0544C554E208801F089
:1041280064FD33888342D9D8208801F05EFDA4F865
:104138000080DFF858813388B8F800A0C01A0AF167
:104148000103A8F800301FFA80F901F049FD494B36
:104158001880494B1988B8F800308B4205D3474B73
:104168001C7834B30023A8F80030454B45481A683A
:104178000478B8F80030DB0004BB02EBCA0CD41892
:104188009CED007AD4ED007AB4EE677AF1EE10FA7D
:1041980014D1012303700220FFF7BCFD9FED3A0AFA
:1041A800FFF7D8FE0220A8F800A0FFF7B3FD308083
:1041B80095E7FFF767FD2046BDE8F0871344D3ED88
:1041C800017AFCEEE77A002417EE903A047098B270
:1041D800FFF7A0FD01398145B8F8003001D99942AF
:1041E8000EDC81453ABFA0EB090084B2012402EB42
:1041F800C30292ED000A2046FFF7ACFE34806EE75A
:1042080001339BB2A8F8003002EBC303D3ED017A67
:10421800FCEEE77AA9EB000017EE903A1FFA80F956
:1042280098B2FFF777FDD6E72B89013B9BB2434550
:1042380009D8288801F0D9FC2B89834203D895ED49
:10424800010AFFF729FE01360C3559E72C465BE7D2
:104258009212002091120020A1120020A01200202A
:104268003025002088120020941200208C12002093
:104278008E120020A412002018250020912500206D
:104288002C25002090120020000000008A12002037
:1042980008B50848084902F078FF0648022102F0EC
:1042A80086FFBDE80840032210214FF0904003F03C
:1042B8001CBE00BFD0270020640D002008B50748A9
:1042C80002F083FF012210214FF0904003F00DFE11
:1042D8004FF0904310221A8308BD00BFD02700205A
:1042E80008B5114B2DED028BB0EE408A83ED000A24
:1042F800FFF7E4FFB5EEC08AF1EE10FA10D938EEF8
:10430800088ADFED0A7A0A4B28EE278ABCEEC88AAB
:1043180083ED008ABDEC028BBDE80840FFF7B8BF0B
:10432800BDEC028B08BD00BF98120020000080433E
:10433800640D002008B50848084902F026FF064821
:10434800022102F034FFBDE80840032220214FF08B
:10435800904003F0CABD00BFF0270020740D002074
:1043680008B5074802F031FF012220214FF09040A4
:1043780003F0BBFD4FF0904320221A8308BD00BF15
:10438800F027002008B5114B2DED028BB0EE408AC6
:1043980083ED000AFFF7E4FFB5EEC08AF1EE10FAEC
:1043A80010D938EE088ADFED0A7A0A4B28EE278AF8
:1043B800BCEEC88A83ED008ABDEC028BBDE80840DC
:1043C800FFF7B8BFBDEC028B08BD00BF9C120020F0
:1043D80000008043740D002008B5FFF771FE58B146
:1043E8000020FFF779FCFFF77BFF0020FFF774FC44
:1043F800BDE80840FFF7C6BF08BD000038B5184D36
:10440800184C032210214FF0904003F06EFD28460F
:10441800154902F07CFE1549154802F0B6FE032244
:1044280020214FF0904003F060FD2046114902F032
:104438006EFE1149114802F0A8FEAB6A10491A68CD
:104448001048136823F002031360A36A1A681368FC
:1044580023F400331360BDE8384002F096BE00BF75
:104468003C2700206C27002094AC0008640D002035
:10447800D02700209CAC0008740D0020F0270020F5
:10448800840D0020E027002008B50E4802F09DFEAC
:104498000D4802F05BFE40F2FF7200210A4802F06C
:1044A80044FE0A4802F091FE094802F04FFE08480F
:1044B80040F2FF72002102F038FEBDE808400548CE
:1044C80002F083BED02700203C270020F0270020E0
:1044D8006C270020E027002008B50A4A0A490B4843
:1044E8004FF4807302F023FE09490A480A4A4FF440
:1044F800807302F01CFEBDE808400848022102F063
:1045080056BE00BF94A80008A4AC00083C270020B1
:10451800B4AC00086C27002094AA0008E02700200B
:10452800014B00221A707047A2120020014B002292
:104538001A707047A2120020024B1B780BB9024A6E
:1045480013707047A2120020A0120020024B1B78A3
:104558000BB1FFF78BBB7047A712002008B5FCF71B
:1045680047FF08BD08B5FFF7F1FF044B04480022D8
:104578001A700821BDE80840FFF7EEBBA71200201B
:10458800B80E0020034B0448002208211A70FFF7D8
:10459800E3BB00BFA6120020940D002010B5FFF762
:1045A800D5FF084A08481378013303F00303137052
:1045B800282404FB03000022BDE810400521FFF772
:1045C800CBBB00BF140E0020180E0020F8B5174B07
:1045D8001B788BB1164C208840B901F001FB208074
:1045E800144C154D227842B1531E08E001F0FDFA33
:1045F800124B1B888342F0D3F8BD2B78013B10493E
:10460800104EC85C33788F5C33B1FFF728FB3378E2
:1046180013B13846FFF71CFB23782A780133B3FB24
:10462800F2F102FB11332370E6E700BFB912002054
:10463800BE120020BA120020B81200203C0F002041
:10464800A8120020A71200207047000008B5054BEB
:10465800054801221A7008210022FFF77DFBFFF7A9
:10466800F3FF08BDA7120020FC0E002070470000D1
:1046780008B5054B054801221A7008210022FFF7EA
:104688006BFBFFF7F3FF08BDA6120020D40D002036
:104698002DE9F04145F6264398428AB0054606D1F1
:1046A8008B78002B3ED0FFF7D1FF002053E045F672
:1046B8002743984205D18B78002B33D0FFF752FF60
:1046C800F3E745F62843984206D18B7853B3654BF8
:1046D8001B78002BF2D1E6E745F62C43984204D12B
:1046E8008B78FBB1FFF7C4FFDFE745F62D4398420F
:1046F80004D18B78B3B1FFF745FFD6E745F62E43D3
:10470800984206D18B786BB1574B1B78002BF2D1AE
:10471800E8E745F62943984204D18B7813B1FFF7AF
:104728003DFFC2E74F4B1A7822B94F4B1B78002B3D
:1047380000F096808E78002E3DD0E02D0ED1FFF748
:1047480005FF4A4B01221A70494B00201870494B4B
:104758001870494B18700AB0BDE8F081E22D0BD1F2
:10476800FFF7F4FE414B1A7812B1414A012111704A
:10477800002018703F4BEDE7E32D0FD13C4B1B7821
:10478800CBB1FFF7E3FE394B00201870394B0122FB
:104798001A703A4B18703A4B1880DCE7522D04D146
:1047A800384A13880A3B13807FE7512D03D1354AD5
:1047B80013880A33F7E74878334B0978062404FB53
:1047C800003313F801C0314B1C78314B1B6824347B
:1047D8001C44304B1B78E4B2BBB96444E4B2002EED
:1047E80038D012B12046FFF733FA204B1B782BB193
:1047F800214A29491378CC54013313702846FFF70E
:10480800ADFE80F00100C0B2A5E7244B01AF03F173
:10481800200818685968BE46AEE8030008334345C7
:104828007746F6D119889B78AEF800108EF80230DA
:104838000723BCFBF3F303EB4301C3EBC30304EB14
:104848008104ACEB03030AA951FA83F313F8243C5F
:104858001C44C3E7002AD1D02046FFF700FACDE771
:10486800012078E7A7120020A6120020BC12002021
:10487800BB120020B9120020B8120020BA12002082
:10488800BE1200203C0F0020489E00083E0F00206A
:10489800F80E0020140E0020A8120020FF9D00082A
:1048A800194B1B78D90709D5184B187800EB8000ED
:1048B80080087F2824D828B3C0B270479A0705D546
:1048C800124B187800EB80004008F2E75B0704D52C
:1048D8000E4B187800EB8000EBE70D4B1B786BB1A3
:1048E8000C4A0A49127808789342F3D210FB03F075
:1048F80000EB8000B0FBF2F080B2DAE70520DBE7DE
:104908007F20704701207047CA120020410F002005
:10491800CB120020420F0020154B1B78D90705D574
:10492800144B1878800800B3C0B270479A0703D5B3
:10493800104B18784008F6E75B0705D50D4B18783B
:104948007F28F0D97F2070470B4B1B785BB10B4A4F
:10495800084912780878934236BF10FB03F080B2FA
:10496800B0FBF2F0ECE70120DEE70120704700BF62
:10497800CA120020450F0020CC120020460F00204C
:1049880008B5A0F1ED03122B10D8DFE803F00A10E8
:1049980013192E2E2E2E2E2E2E2E1C21252B363C74
:1049A8004100FFF77DFF40421C4BD87008BDFFF760
:1049B80077FFF9E7FFF774FF4042184B9870F5E767
:1049C800FFF76EFFF9E7FFF7A7FF144B1871EDE744
:1049D800FFF7A2FF4042F8E7FFF79EFF40420F4B68
:1049E8005871E3E7FFF798FFF9E70C4AF138517877
:1049F800012383400B435370D8E7094A137843F0E7
:104A080001031370D2E7064A137843F00203F8E76C
:104A1800034A137843F00403F3E700BFC4120020ED
:104A2800CA12002030B5414BED2893F9035093F991
:104A3800024093F9041093F9052012D1002D01DAF0
:104A48000022DA70D9789A780A4351B20AB9384AFA
:104A580011701A795B7913435AB20BB9354B1A7036
:104A680030BDEE2802D1002DEADCEBE7EF2804D1B7
:104A7800002CE7DA00229A70E4E7F02802D1002C33
:104A8800F8DCDFE7F92804D10029DBDD00221A7100
:104A9800D8E7FA2802D10029D4DAF7E7FB2804D1AD
:104AA800002ACFDA00225A71CCE7FC2802D1002A6A
:104AB800F8DCC7E7F1380E28C4D801A252F820F074
:104AC800054B0008054B0008054B0008054B00087E
:104AD800054B0008054B0008054B0008054B00086E
:104AE8004D4A00084D4A00084D4A00084D4A000842
:104AF800134B00081F4B0008294B00085A78012166
:104B0800814022EA01025A709CE70B490A7822F098
:104B180001020A7096E708490A7822F00202F8E7CB
:104B280005490A7822F00402F3E700BFC412002006
:104B3800CB120020CC120020CA1200202A4B1B786E
:104B480013F0080F10B5294C39D02948FEF734FD69
:104B580061782848FEF730FD2748FEF72DFD94F9C7
:104B680002102648FEF728FD2548FEF725FD94F992
:104B780003102248FEF720FD2148FEF71DFD94F999
:104B880004101E48FEF718FD1D48FEF715FD94F9A0
:104B980005101A48FEF710FD1A48FEF70DFD1A4BCE
:104BA8001A481978FEF708FD1948FEF705FD194B54
:104BB80016481978FEF700FD1748FEF7FDFC01F0CE
:104BC8000FF8A378E278134318BF144B627918BF23
:104BD80018802379134318BF114BBDE8104018BF44
:104BE8001880024800F05ABE79120020C412002032
:104BF800C4AC000832A10008E7AC0008E9AC000822
:104C08003BA50008ECAC0008CB120020EFAC000874
:104C1800F2AC0008CA120020F4AC0008C012002050
:104C2800C21200202DE9F047564C94F9028094F9FD
:104C3800037094F9046094F9055094F800A094F86E
:104C480001900023A370E3702371637158EA07038E
:104C58000AD04D4B188800F0C8FF4C490B783BB37D
:104C68004B4A127890422DDC56EA05030BD0494B8B
:104C7800188800F0BAFF48490B78002B4ED0474AF5
:104C88001278904254DCE278A378134322791343D4
:104C98006279134301D0FFF751FF84F800A084F82C
:104CA800019084F80280E77026716571BDE8F0878D
:104CB8003B4A127802EB8202B0EB420FD4DD01339B
:104CC8000B7001E0FF2BFAD1B8F1000F08D0FFF705
:104CD800E7FDB8F1000FCCBF0123FF235843A070B4
:104CE8003FB1FFF7DDFD002FCCBF0123FF23584361
:104CF800E07094F90230002BB6D094F90320002A12
:104D0800B2D0B5214B431B1208BF0123A37001FB8E
:104D180002F31B1208BF0123E370A5E7214A1278AA
:104D280002EB8202B0EB420FADDD01330B7001E004
:104D3800FF2BFAD13EB1FFF7EFFD002ECCBF0123C8
:104D4800FF23584320713DB1FFF7E6FD002DCCBF8E
:104D58000123FF235843607194F9043094F9052026
:104D6800002B90D0002A8ED0B5214B431B1208BFD0
:104D78000123237101FB02F31B1208BF0123637196
:104D880081E700BFC4120020C0120020CB1200200F
:104D9800400F0020C2120020CC120020440F002037
:104DA8003F0F0020430F0020054A00231360938023
:104DB800044A1370044A1370044A1370704700BF02
:104DC800C4120020CB120020CC120020CA120020EE
:104DD80010B500F049FA094C094800F0FDF90948F6
:104DE80000F0FAF9204600F0F7F9074800F0F4F966
:104DF80000F048FA054B1C6010BD00BF00F0030826
:104E080000E0030800E8030800F80308D0220020A7
:104E180020F0010038B500F1006404F578344FF64D
:104E2800FF7123888B4282B210D10A498D5AED4313
:104E3800ADB29D420CD000F017FA2046294600F08A
:104E4800EDF9044600F01EFA204638BD0024FBE7C1
:104E58000524F9E7CE120020F8B5FFF7B9FF00F0F6
:104E680003FA0B4E0B4C0C4F052536F8021B39B1D3
:104E7800C94389B2204600F0D1F9052818BF054674
:104E88000234BC42F1D100F0FDF92846F8BD00BF5C
:104E9800CE12002000E0030800F003081E4BF7B50F
:104EA8001E5A1E4F012E98BF1D4C3A6894BF02230C
:104EB8000423C3F1006394BF44EA4634803803F501
:104EC800802392BFA4B280B24FF460449A4204D9BE
:104ED80003B0BDE8F040FFF7BFBF44EA50010191BD
:104EE80000F0C2F938680199831C3B6000F096F91C
:104EF800B4F5604F054609D13868F143831C89B27F
:104F08003B6000F08BF9052818BF054600F0BAF998
:104F1800284603B0F0BD00BFCE120020D0220020EA
:104F28000080FFFF37B50E4D0E4B2A689A420446A3
:104F380004D903B0BDE83040FFF78EBF00F094F904
:104F4800094B2868195D41EA0421831C89B22B604A
:104F580000F064F9019000F095F9019803B030BDB4
:104F6800D0220020FFFF0308CE1200201F4B204A4A
:104F78002048F0B51D4632F8021BC943824223F887
:104F8800021BF8D11C4C4FF6FF7743F6FE761388C8
:104F9800BB4206D0180409D4190A6B540232A24243
:104FA800F5D9164B4FF480501A60F0BD03F4C04198
:104FB800B1F5C04F0FD1901CA04215D85188C943F4
:104FC80089B279B106EA430380330246B3F5805FBC
:104FD800E4D2E952E2E75904E0D4C3F3403106EAE7
:104FE8004303F3E70246D9E70246DAE7CE12002088
:104FF80000E0030800F00308FFFF0308D0220020A8
:1050080008B5FFF7E5FEBDE80840FFF7AFBF0000B1
:10501800B0F5805F10B5044614D20C4B1A5C8A4276
:1050280012D01954FFF7F4FE68B97F2C04D8204633
:10503800BDE81040FFF776BF24F00100BDE810403E
:10504800FFF72CBF072010BD0020FCE7CE12002080
:10505800B0F5805FF8B505460E4634D210F001046D
:105068000DD0C9B2FFF7D4FF0446681C310A80B2DC
:10507800FFF7CEFF052818BF04462046F8BD134B9E
:105088001F5AB942F9D01952FFF7C2FE0446002848
:10509800F3D17F2D12D8FBB2F2B293420CD028463E
:1050A800FFF740FF0446360AB6EB172FE5D0681C19
:1050B80080B2FFF737FFDDE70524F4E72846BDE8AF
:1050C800F840FFF7EBBE0724D7E700BFCE12002059
:1050D800B0F5805F3ABF024B185CFF20704700BFF5
:1050E800CE12002040F6FE7398420AD8064BC2073B
:1050F80041BF5A1C125C185C40EA022058BF185A7B
:1051080070474FF6FF707047CE12002080B2FFF74D
:10511800DFBF80B2FFF77CBF80B2FFF7E3BF80B28A
:10512800FFF796BF38B5C3070D4684B210D5C9B28C
:105138002046FFF76DFF601CC5F30F2180B2FFF713
:1051480087FFE01C290E80B2BDE83840FFF760BF3A
:1051580089B22046FFF77CFFA01C290C80B2BDE86D
:105168003840FFF775BFFFF7DDBF00000B4BDA686B
:10517800D0070CD4DA6851070BD4DA68D2060AD4FF
:10518800D86800F00100C0F10500C0B270470120E6
:105198007047022070470320704700BF002002407C
:1051A80073B50446FFF7E2FF0025FF2601280FD15B
:1051B80014B9062002B070BD01950196019B1BB978
:1051C800FFF7D4FF013CF1E7019B013B0193F5E7B1
:1051D800002C08BF0620EDE738B5054640F6FF70FD
:1051E800FFF7DEFF052815D10B4C236943F00203B6
:1051F80023616561236943F04003236140F6FF7032
:10520800FFF7CEFF06281EBF236923F002032361A0
:105218003423E36038BD00BF00200240104B00F18A
:1052280078429A4270B505460E4616D81F20FFF7F9
:10523800B7FF052810D10B4C236943F00103236104
:105248001F202E80FFF7ACFF06281EBF236923F01E
:10525800010323613423E36070BD0720FCE700BF2E
:10526800FEFF070000200240044B1A69120641BFE6
:10527800034A5A6002F188325A607047002002409F
:1052880023016745024A136943F08003136170479D
:105298000020024008B5FBF7DDFF08BD10B50C4C37
:1052A80020224FF48051204602F01FFE20224FF4A6
:1052B8000051204602F019FE226923691B0BC2F334
:1052C800003203F002031343024A137010BD00BFFB
:1052D80000040048D52200201E4B1A691B6910B52E
:1052E8001B0BC2F3003203F0020313431A4A1B4C90
:1052F800117843EA8103DBB21370194A03F00F03F4
:10530800D35C227813445BB2032B237020DD154A4B
:1053180013780021013313700846FFF7BBFF012003
:1053280094F90030033308DA0E4A1378013B1370FE
:1053380001210020FFF7AEFF012094F900305A4206
:1053480002F0030203F0030358BF5342237010BD59
:105358000020E5E700040048D5220020D4220020E0
:10536800F7AC0008D622002008B5FBF79BFF08BD64
:105378000120704708B5FFF7FBFF08BD2DE9F84F7E
:10538800184F194EDFF864B000248246254623469C
:10539800B946B0465BF8042B22F00F0102F00F0269
:1053A8000969D140C94301F00102114607F8012BF0
:1053B800A240154316F8012B9142E0B202D1BAF18E
:1053C800000F02D0FFF7D0FF01230134042CE1D1F4
:1053D80033B12846FFF7CEFFD9F80030C8F80030BF
:1053E800BDE8F88FD7220020DB22002008AD000896
:1053F80070B50B4D0424012655F8040B00F00F017D
:10540800202206FA01F120F00F00013C02F06DFDA8
:1054180014F0FF04F0D1BDE870400120FFF7AEBFE3
:1054280008AD0008F8B5144682789DF818701D4636
:10543800284B92B11C7000F0D3FB274B188004F165
:105448002003DBB2072B44D804F007040120A04056
:10545800C0B2BDE8F840FCF7B1BA1E78A6422ED11A
:105468001D4B188800F0C1FBC72828D8AE4205F1AB
:10547800200415D006F12003DBB2072B06D806F06E
:1054880007060120B040C0B2FCF7A1FAE3B2072B2F
:1054980006D805F0070301209840C0B2FCF78EFA41
:1054A8003846E4B2FCF784FA072C12D805F0070551
:1054B8000120A840BDE8F840C0B2FCF788BA04F162
:1054C8002003DBB2072B04D804F007040120A04016
:1054D800F0E7F8BDDF220020E022002013B545F6F2
:1054E800F74304469C4208460FD845F6F3439C42CE
:1054F80012D845F6D9439C421DD045F6DA439C4262
:105508003ED045F6D8439C420FD0807800283BD047
:105518001E4B00221A701CE0A4F5B944753C022CFD
:105528000ED8DFE804F0181F260026230093E12395
:105538001A4621460AE027230093E523E522F8E7E7
:1055480026230093E022E12345F6F441FFF76AFFA2
:10555800002002B010BD27230093E422E52345F67E
:10556800F541F3E726230093E222E12345F6F641CD
:10557800ECE727230093E622E52345F6F741E5E724
:10558800282300930123D9E70120E2E7DF22002046
:1055980038B505468878002800F0FD8045F60353A5
:1055A8009D421BD845F6FA439D4204D8A5F5B84359
:1055B800023B132B16D8FDF76BF9784C45F61543CB
:1055C8009D42208020D845F601439D420BD8208873
:1055D800FDF76AF9FCF71FFC002003E045F662536B
:1055E8009D42E8D038BDA5F5B845033D122D2AD80F
:1055F800DFE805F02E323643474B4F556B6F737714
:1056080083878B8F95C1A50045F603539D420ED81D
:1056180045F6FA439D42DAD9A5F5B9457C3D072DF3
:1056280022D8DFE805F026626648849BB2B645F6C4
:1056380062539D42CBD12378C3F3001282F001025A
:1056480062F3041302E0237843F001032370BEE7FA
:10565800237843F00203F9E7237843F00403F5E7DE
:10566800237843F00803F1E7637843F0010363709C
:10567800ADE7637843F00203F9E7237843F01003BA
:10568800E4E7237843F02003E0E7237843F040037E
:10569800DCE7FCF7C0FB237843F08003D6E72378E8
:1056A80023F00C0343F00C0323703D48002204212F
:1056B800FEF752FB8BE7637823F0030343F0030301
:1056C8006370384800220421F2E723786FF300035F
:1056D800BCE723786FF34103B8E723786FF38203BD
:1056E800B4E723786FF3C303B0E763786FF300037D
:1056F800BDE763786FF34103B9E723786FF30413C9
:10570800A4E723786FF34513A0E723786FF3861394
:105718009CE7FCF780FB23786FF3C71396E72378A1
:1057280023F00C03237000221F480221C0E763788E
:1057380023F00303637000221C480221B8E7227893
:10574800C2F3800383F00103DBB263F3820263F3E5
:10575800C302227012F00802E6D0A6E76278D343AB
:1057680003F0010363F3000263F34102627012F075
:105778000202E1D0A5E7FCF74EFB2378C3F3C01281
:1057880082F0010262F3C71360E70120FDF7FCF81D
:105798001DE70020FAE7012024E700BF14250020B8
:1057A800580F0020880F0020480F0020780F002095
:1057B80045F61643984210B50C461BD1FCF76AFF14
:1057C800A2780D4B72B100F0AA00002815BF012283
:1057D8000022352029201A70FCF7FAFEFCF7CCFFCE
:1057E800002010BD1B78002B14BF35202920FCF7A2
:1057F800F7FEF3E70120F4E7E2220020014B1860EE
:10580800704700BFE4220020024B186808B1036803
:1058180018477047E4220020F8B5194B1B68044666
:10582800002B2CD0174A127842B1174A92F900205F
:10583800002ABFBF0278427005220270134D5B68D0
:10584800204698472B78580719D5D90702D510480C
:10585800FDF7B2FE0F4F04F108062B78DA0703D5DF
:1058680021783846FDF7A8FE0134B442F5D12B78EB
:10587800DB0704D5BDE8F8400748FDF79DBEF8BD35
:10588800E4220020FC1000201425002079120020BA
:1058980018AD00082AAD0008F5AC0008034A1268E4
:1058A8001AB102210170936818477047E42200205A
:1058B800054A1188814205D0044B10801B680BB142
:1058C800DB681847704700BFEA220020E422002066
:1058D800054A1188814205D0044B10801B680BB122
:1058E8001B691847704700BFE8220020E422002007
:1058F8000C4B1B78821C63B10B4B93F90030002BC7
:10590800ACBF06231E230020013BDBB2FF2B02D1D4
:1059180070470623F7E712F8011B0029F4D001307D
:10592800C0B2F1E7FC10002014250020F1B1114BA2
:105938001B789BB1104B93F90030002B0EDAEF293E
:105948004FEAD10212D8104401F0070182780123EE
:105958008B40134214BF012000207047831C08307D
:1059680013F8012B8A4203D08342F9D100207047F3
:1059780001207047FC1000201425002030B54FF09E
:10598800FF32841C002314F8015B8D420ED0B2F163
:10599800FF3F02D1002D08BF1A460133DDB2062DA4
:1059A8005BB2F0D1531C01D01044817030BD10B5EA
:1059B800831C0022083013F8014B8C4208BF03F8FF
:1059C800012C8342F7D110BDEF294FEAD10209D843
:1059D800104401F00703012202FA03F3827813430B
:1059E80083707047034B1B78DB0702D50248FDF72D
:1059F800E3BD70477912002030AD0008EF294FEA67
:105A0800D10209D8104401F0070301229A40837893
:105A180023EA020383707047034B1B78DB0702D528
:105A28000248FDF7C9BD7047791200204EAD000845
:105A380010B40A4C247803460A4644B1084C94F939
:105A48000040002C03DA5DF8044BFFF7BDBF5DF89A
:105A5800044B11461846FFF791BF00BFFC10002009
:105A68001425002010B40A4C247803460A4644B191
:105A7800084C94F90040002C03DA5DF8044BFFF75A
:105A8800BDBF5DF8044B11461846FFF790BF00BF35
:105A9800FC10002014250020094A1278831C4AB102
:105AA800084A92F90020002A04DA1E22002118462A
:105AB80004F084B90022C0F802209A80704700BF21
:105AC800FC1000201425002008B501F029F9BDE8D4
