:020000040800F2
:1000000000040020C9020008CB020008CB0200084F
:10001000CB020008CB020008CB020008CB0200088C
:10002000CB020008CB020008CB020008596E000882
:10003000CB020008CB020008CB020008CB0200086C
:10004000CB020008CB020008CB020008CB0200085C
:10005000CB020008CB020008997A0008D97A000880
:100060001D7B0008617B0008A57B00085D830008FC
:10007000718300088583000899830008AD83000818
:10008000C1830008D5830008CB020008CB0200081A
:10009000CB020008CB020008CB020008E97B000875
:1000A000ED7D0008017E0008057E0008097E00083D
:1000B0009D8A000809880008B18A0008AD850008FB
:1000C000B1860008CB020008CB020008CB02000872
:1000D000CB020008CB020008CB020008CB020008CC
:1000E000D17C0008CB020008CB020008CB0200083C
:1000F000FD890008CB020008CB020008CB020008F3
:10010000CB020008CB020008CB020008CB0200089B
:10011000CB020008CB020008D5890008E989000855
:10012000E9830008FD830008118400082584000885
:1001300039840008CB020008CB020008CB0200087B
:10014000CB020008CB020008CB020008CB0200085B
:10015000CB020008CB020008CB020008CB0200084B
:10016000CB020008CB020008CB020008FD8A000881
:10017000CB020008CB020008CB020008CB0200082B
:10018000CB020008CB020008CB020008CB0200081B
:10019000CB020008CB020008CB020008CB0200080B
:0801A000D50C0008B10C0008A9
:1001A80072B6394880F30888384880F30988384897
:1001B8004EF60851CEF20001086040F20000CCF281
:1001C80000004EF63471CEF200010860BFF34F8F85
:1001D800BFF36F8F40F20000C0F2F0004EF6885176
:1001E800CEF200010860BFF34F8FBFF36F8F4FF05F
:1001F8000000E1EE100A4EF63C71CEF200010860F4
:10020800062080F31488BFF36F8F06F09DFA06F07E
:1002180047F84FF055301F491B4A91423CBF41F8FF
:10022800040BFAE71C49194A91423CBF41F8040BF8
:10023800FAE71A491A4A1B4B9A423EBF51F8040B77
:1002480042F8040BF8E700201749184A91423CBFCE
:1002580041F8040BFAE706F07BFA06F076FA144C3C
:10026800144DAC4203DA54F8041B8847F9E702F04E
:100278007DFE114C114DAC4203DA54F8041B88473B
:10028800F9E706F063BA000000040020000C002023
:1002980000000008000000200004002014BB000833
:1002A800000C00209411002098110020742A0020CE
:1002B800A0010008A4010008A4010008A801000882
:1002C8006EE700F000F8FEE72DE9F04F2DED108AFB
:1002D800C1F80CD0C3689D46BDEC108ABDE8F08F0C
:1002E800002383F311882846A047002006F0DEFC8F
:1002F800FEE706F072FC00DFFEE7000081F0004137
:1003080002E000BF83F0004330B54FEA41044FEAF2
:10031800430594EA050F08BF90EA020F1FBF54EA8D
:10032800000C55EA020C7FEA645C7FEA655C00F029
:10033800E2804FEA5454D4EB5555B8BF6D420CDDFA
:100348002C4480EA020281EA030382EA000083EA7D
:10035800010180EA020281EA0303362D88BF30BD1D
:1003680011F0004F4FEA01314FF4801C4CEA113173
:1003780002D0404261EB410113F0004F4FEA0333D2
:100388004CEA133302D0524263EB430394EA050F5D
:1003980000F0A780A4F10104D5F1200E0DDB02FACC
:1003A8000EFC22FA05F2801841F1000103FA0EF260
:1003B800801843FA05F359410EE0A5F120050EF126
:1003C800200E012A03FA0EFC28BF4CF0020C43FA57
:1003D80005F3C01851EBE37101F0004507D54FF064
:1003E800000EDCF1000C7EEB00006EEB0101B1F5B4
:1003F800801F1BD3B1F5001F0CD349085FEA3000FA
:100408004FEA3C0C04F101044FEA445212F5800F04
:1004180080F09A80BCF1004F08BF5FEA500C50F1A1
:10042800000041EB045141EA050130BD5FEA4C0C84
:10043800404141EB0101013C28BFB1F5801FE9D2E1
:1004480091F0000F04BF01460020B1FA81F308BF04
:100458002033A3F10B03B3F120020CDA0C3208DDD0
:1004680002F1140CC2F10C0201FA0CF021FA02F1AB
:100478000CE002F11402D8BFC2F1200C01FA02F11B
:1004880020FA0CFCDCBF41EA0C019040E41AA2BF40
:1004980001EB0451294330BD6FEA04041F3C1CDA08
:1004A8000C340EDC04F11404C4F1200220FA04F028
:1004B80001FA02F340EA030021FA04F345EA0301D2
:1004C80030BDC4F10C04C4F1200220FA02F001FA94
:1004D80004F340EA0300294630BD21FA04F0294616
:1004E80030BD94F0000F83F4801306BF81F48011AF
:1004F8000134013D4EE77FEA645C18BF7FEA655C22
:1005080029D094EA050F08BF90EA020F05D054EAF3
:10051800000C04BF1946104630BD91EA030F1EBFF8
:100528000021002030BD5FEA545C05D140004941FC
:1005380028BF41F0004130BD14F580043CBF01F5EF
:10054800801130BD01F0004545F0FE4141F47001D5
:100558004FF0000030BD7FEA645C1ABF19461046B0
:100568007FEA655C1CBF0B46024650EA013406BFB1
:1005780052EA033591EA030F41F4002130BD00BF70
:1005880090F0000F04BF0021704730B54FF480642D
:1005980004F132044FF000054FF0000150E700BFAE
:1005A80090F0000F04BF0021704730B54FF480640D
:1005B80004F1320410F0004548BF40424FF00001FA
:1005C8003EE700BF42004FEAE2014FEA31014FEA3D
:1005D80002701FBF12F07F4393F07F4F81F060518C
:1005E800704732F07F4208BF704793F07F4F04BFD7
:1005F80041F40021704730B54FF4607401F00045B4
:1006080021F000411CE700BF50EA010208BF704713
:1006180030B54FF000050AE050EA010208BF704704
:1006280030B511F0004502D5404261EB41014FF46D
:10063800806404F132045FEA915C3FF4D8AE4FF075
:1006480003025FEADC0C18BF03325FEADC0C18BF58
:10065800033202EBDC02C2F1200300FA03FC20FAA9
:1006680002F001FA03FE40EA0E0021FA02F11444F6
:10067800BDE600BF70B54FF0FF0C4CF4E06C1CEA0F
:1006880011541DBF1CEA135594EA0C0F95EA0C0F80
:1006980000F0DEF82C4481EA030621EA4C5123EAF3
:1006A8004C5350EA013518BF52EA033541F4801122
:1006B80043F4801338D0A0FB02CE4FF00005E1FBD5
:1006C80002E506F00042E0FB03E54FF00006E1FB1F
:1006D80003569CF0000F18BF4EF0010EA4F1FF0462
:1006E800B6F5007F64F5407404D25FEA4E0E6D41A2
:1006F80046EB060642EAC62141EA55514FEAC520B3
:1007080040EA5E504FEACE2EB4F1FD0C88BFBCF52E
:10071800E06F1ED8BEF1004F08BF5FEA500E50F1DF
:10072800000041EB045170BD06F0004646EA0101A5
:1007380040EA020081EA0301B4EB5C04C2BFD4EBD7
:100748000C0541EA045170BD41F480114FF0000ED0
:10075800013C00F3AB8014F1360FDEBF002001F03E
:10076800004170BDC4F10004203C35DA0C341BDCB8
:1007780004F11404C4F1200500FA05F320FA04F08A
:1007880001FA05F240EA020001F0004221F00041BE
:1007980010EBD37021FA04F642EB06015EEA430E31
:1007A80008BF20EAD37070BDC4F10C04C4F1200561
:1007B80000FA04F320FA05F001FA04F240EA020014
:1007C80001F0004110EBD37041F100015EEA430EE5
:1007D80008BF20EAD37070BDC4F1200500FA05F205
:1007E8004EEA020E20FA04F301FA05F243EA020384
:1007F80021FA04F001F0004121FA04F220EA020093
:1008080000EBD3705EEA430E08BF20EAD37070BDD8
:1008180094F0000F0FD101F00046400041EB0101B8
:1008280011F4801F08BF013CF7D041EA060195F09A
:10083800000F18BF704703F00046520043EB030354
:1008480013F4801F08BF013DF7D043EA0603704741
:1008580094EA0C0F0CEA135518BF95EA0C0F0CD04C
:1008680050EA410618BF52EA4306D1D181EA030192
:1008780001F000414FF0000070BD50EA410606BF8C
:100888001046194652EA430619D094EA0C0F02D1D1
:1008980050EA013613D195EA0C0F05D152EA033616
:1008A8001CBF104619460AD181EA030101F0004134
:1008B80041F0FE4141F470014FF0000070BD41F07D
:1008C800FE4141F4780170BD70B54FF0FF0C4CF457
:1008D800E06C1CEA11541DBF1CEA135594EA0C0F76
:1008E80095EA0C0F00F0A7F8A4EB050481EA030EC3
:1008F80052EA03354FEA013100F088804FEA0333AA
:100908004FF0805545EA131343EA12634FEA022277
:1009180045EA111545EA10654FEA00260EF0004138
:100928009D4208BF964244F1FD0404F5407402D28A
:100938005B084FEA3202B61A65EB03055B084FEA1B
:1009480032024FF480104FF4002CB6EB020E75EB18
:10095800030E22BFB61A754640EA0C005B084FEA40
:100968003202B6EB020E75EB030E22BFB61A7546BD
:1009780040EA5C005B084FEA3202B6EB020E75EB08
:10098800030E22BFB61A754640EA9C005B084FEA80
:100998003202B6EB020E75EB030E22BFB61A75468D
:1009A80040EADC0055EA060E18D04FEA051545EA7C
:1009B80016754FEA06164FEAC30343EA52734FEA25
:1009C800C2025FEA1C1CC0D111F4801F0BD141EA9E
:1009D80000014FF000004FF0004CB6E711F4801F03
:1009E80004BF01430020B4F1FD0C88BFBCF5E06FE3
:1009F8003FF6AFAEB5EB030C04BFB6EB020C5FEAF3
:100A0800500C50F1000041EB045170BD0EF0004E47
:100A18004EEA113114EB5C04C2BFD4EB0C0541EA79
:100A2800045170BD41F480114FF0000E013C90E676
:100A380045EA060E8DE60CEA135594EA0C0F08BF3A
:100A480095EA0C0F3FF43BAF94EA0C0F0AD150EA39
:100A580001347FF434AF95EA0C0F7FF425AF1046CC
:100A680019462CE795EA0C0F06D152EA03353FF4F4
:100A7800FDAE1046194622E750EA410618BF52EA71
:100A880043067FF4C5AE50EA41047FF40DAF52EA45
:100A980043057FF4EBAE12E74FF0FF3C06E000BFE2
:100AA8004FF0010C02E000BF4FF0010C4DF804CDEF
:100AB8004FEA410C7FEA6C5C4FEA430C18BF7FEAAF
:100AC8006C5C1BD001B050EA410C0CBF52EA430CDD
:100AD80091EA030F02BF90EA020F0020704710F15D
:100AE800000F91EA030F58BF994208BF90422CBFEC
:100AF800D8176FEAE37040F0010070474FEA410CE5
:100B08007FEA6C5C02D150EA013C07D14FEA430C02
:100B18007FEA6C5CD6D152EA033CD3D05DF8040B73
:100B2800704700BF8446104662468C4619466346A5
:100B380000E000BF01B5FFF7B7FF002848BF10F17C
:100B4800000F01BD4DF808EDFFF7F4FF0CBF0120C1
:100B580000205DF808FB00BF4DF808EDFFF7EAFF3D
:100B680034BF012000205DF808FB00BF4DF808EDF8
:100B7800FFF7E0FF94BF012000205DF808FB00BFED
:100B88004DF808EDFFF7CEFF94BF012000205DF877
:100B980008FB00BF4DF808EDFFF7C4FF34BF012084
:100BA80000205DF808FB00BF4FEA410C7FEA6C5C4F
:100BB80002D150EA013C0AD14FEA430C7FEA6C5C4F
:100BC80002D152EA033C02D14FF0000070474FF0C7
:100BD800010070474FEA4102B2F1E04324BFB3F588
:100BE800001CDCF1FE5C0DD901F0004C4FEAC0029C
:100BF8004CEA5070B2F1004F40EB830008BF20F080
:100C08000100704711F0804F21D113F13872BCBF39
:100C180001F00040704741F480114FEA5252C2F18E
:100C28001802C2F1200C10FA0CF320FA02F018BFD7
:100C380040F001004FEAC1234FEAD32303FA0CFC2A
:100C480040EA0C0023FA02F34FEA4303CCE77FEAB9
:100C5800625307D150EA01331EBF4FF0FE4040F403
:100C68004000704701F0004040F0FE4040F40000B2
:100C7800704700BF53B94AB9002908BF00281CBFF4
:100C88004FF0FF314FF0FF3000F00CB8ADF1080C19
:100C98006DE904CE09F056FADDF804E0DDE9022337
:100CA80004B07047704700BF10B5054C237833B9BE
:100CB800044B13B10448AFF300800123237010BD27
:100CC800981100200000000014BB000808B5034B71
:100CD8001BB103490348AFF3008008BD00000000C2
:100CE8009C11002014BB0008082823D8DFE800F076
:100CF800052C070A0F14191E200000207047134BFB
:100D080018787047124B187800F001007047104BA4
:100D18001878C0F3400070470D4B1878C0F3800076
:100D280070470B4B1878C0F3C0007047094BEAE7CF
:100D3800084BEDE7084A093812680123834013423B
:100D480014BF01200020704701207047BB1100200C
:100D5800B8110020BA110020B41100202DE9F0418B
:100D68002A4C2178002933D1294D2878FFF7BCFF78
:100D780080466878FFF7B8FF0746A878FFF7B4FF02
:100D88000646E878234DFFF7AFFF234B434403EBB8
:100D9800470303EB860313F830002B782BB91F4E5B
:100DA8003278013202F00302327001330322B3FBBE
:100DB800F2F202EB42029B1A194A2B7013780133A4
:100DC80003F00F031370174B1A6800EB420018600A
:100DD800013101F001012170134C2078FFF784FFE5
:100DE80001466078FFF780FF0546A078FFF77CFF93
:100DF800830003EB45000144E078FFF775FFC9B2B3
:100E080001EBC000C0B2BDE8F08100BFBB110020FB
:100E1800000C0020B9110020080C0020BA11002095
:100E2800B8110020B4110020040C002001F064BFA8
:100E380004230322022100F0EFB90000A0F5BA4014
:100E4800633810B50B2829D8DFE800F00D061234F6
:100E5800617682192A858C938B7813B1012000F072
:100E6800C5F9002010BD8B78002BFAD00020F6E7DA
:100E78008B78E520002B44D000F06EFBF1E78B78EF
:100E880063B1414C23781BB904F0C8FE3F4B18806E
:100E98003F4A012323701378013313700120E1E7DF
:100EA8008B78002BDDD0E22000F056FB394800F0AB
:100EB800FEFAD6E78B78384C5BB1022000F002FFCF
:100EC80004220321022000F0B5F904F0A7FE2080D7
:100ED800C7E7208804F0A7FE63284FF0020013D864
:100EE8002E4A137883F0010313706BB100F0EAFE09
:100EF800022000F0F1FE02200422032100F09AF9FA
:100F0800E22000F0ADFBACE700F0E6FEF0E78B78FE
:100F1800234C0BB10320D1E7208804F084FE63281A
:100F28004FF0030005D81F4A137883F001031370AC
:100F380033B900F0D1FE05E08B78002BD8D0022021
:100F480000F0C0FE04220321022000F073F988E7B4
:100F58008B780320ECE78B789FED130A33B103F00D
:100F68007BF87EE78B789FED110AF7E702F094FF94
:100F780077E78B78002B3FF474AF01F035FA8307DD
:100F88004CBF0B480B4892E7C6110020C411002043
:100F9800C2110020F6A40008CC110020CA110020BC
:100FA800C8110020C7110020A4D082430A978A43A1
:100FB800FAA40008FCA40008104B1B7810B50C46D6
:100FC800A3B1032000F06AFE40B10D4A13781CB1AA
:100FD80001331370012010BD013BFAE7094A138859
:100FE80014B101331380F5E7013BFBE719B1FA208F
:100FF80000F0A4FBEEE7F920FAE700BFC1110020DA
:101008001A0C0020180C002010B5024618B101284F
:1010180019D0012010BD0F4C237851B11BB10E48D7
:10102800062102F099FE042000F04CFE01232370F3
:10103800EFE723B10A460948062102F08DFE042095
:1010480000F04AFEF2E7064B002918BF0146197066
:10105800DFE700BFBC1100204C0C00201C0C002056
:10106800C111002070B52F4C23788AB0ABB12E4B3C
:10107800188804F0D8FD40F2EE2398420DD92B4D84
:101088002B78012B03D0022B43D0294800E02948B4
:1010980000F00DFA00232B702370274A274D14788F
:1010A8002B88002C37D04BBB254B01AA03F1200617
:1010B80018685968144603C40833B3422246F7D166
:1010C80019889B78A3702180FFF748FE00F1280358
:1010D8000DEB03001B4B10F8244C1B781A4E1C44D4
:1010E8003078E4B2A04209D002F052FD02F0D4FEFA
:1010F800204602F04DFD02F0AFFF3470134A2B88F2
:1011080012880133B3FBF2F102FB11332B800AB0D2
:1011180070BD0F48BCE7002BF9D002F0B3FD2C805E
:10112800F5E700BFC6110020C4110020C21100203D
:1011380006A50008FEA40008C1110020BE11002069
:1011480080A400081A0C0020C0110020180C0020F0
:1011580002A50008A0F5A2400238012894BF00208B
:10116800012070470120704708B5FFF767FE08BDEA
:10117800704708B5FFF7FCFF08BD000013B502ABC8
:1011880003E903000F4B1B78B3B99DF8023073B124
:101198006AB100F013FE04460146009800F0CAFD4B
:1011A8000099204602B0BDE8104001F093BB0098BA
:1011B80000F0E4FD0446F3E7009800F0FFFD009915
:1011C800F0E700BFCE11002003460A460068998860
:1011D800FFF7D4BF0120704710B500210446FFF780
:1011E800F3FF2146FFF7C5FF10BD000038B50546DF
:1011F8000848012400EBC510AC400022102102F081
:10120800ABFDE0B201F0EAF92046BDE8384000F055
:1012180016BD00BF7C0C002010B5012404FA02F2B0
:1012280004FA01F111439C4081430CBF2043A043C1
:1012380010BD000008B513460A4601460348006879
:10124800FFF7EAFFBDE8084000F018BDF0110020E4
:1012580008B501F031FD00F04AF902F0EFFDBDE8F4
:101268000840FFF7E3BD08B503F0B8F9002004F023
:10127800ADF8BDE8084001F040BD704710B500F07A
:1012880086FC03F06BF904F0C9FC00220446032134
:10129800094802F061FDFFF7F0FF204604F0C3FCA7
:1012A800F92805D902F0EEFCBDE8104004F0C8BCEE
:1012B8000A2005F000FDF0E7FC0C002038B50121FC
:1012C8000546FFF781FF29460446FFF74DFFD8B3CF
:1012D8002946204602F082FCB0B32946204603F096
:1012E800DFF988B32946204604F028F960B3294677
:1012F800204604F07BF938B32946204604F07CFAEE
:1013080010B3AB787BB145F65B539C4231D00ED815
:1013180045F601439C4219D045F6DF439C4225D04F
:10132800B4F5B84F0ED02846FFF71CFF0DE045F680
:101338005C539C4220D045F65D539C42F3D101F0AA
:1013480041F8F0E7FFF79AFF002038BD0C490B7809
:10135800C3F3000282F0010262F300030B70DB07A3
:101368004CBF0848084802F025F9EDE701F0B4F948
:10137800EAE701F033F8D6E701F033F8D3E700BF26
:101388007C120020EAA60008FBA600081E4B1F4A94
:1013980070B51E5CC30800F00700D45C1C4AD55C1D
:1013A8001C4AD35C034104410541DB0704F00104F6
:1013B80005F0010509D48CB9304600F0BFF90DB32A
:1013C800BDE870402C2000F0B9B9E12000F0C4F865
:1013D80074B9304600F0B2F9E12006E0E62000F0EA
:1013E800BBF8304600F0AAF9E62000F039F9E6E744
:1013F800E62000F0B1F8304600F0A0F9E62000F051
:101408002FF9E9E770BD00BF0DA700089DA70008E8
:101418008DA70008ADA7000870B504460E462078D1
:1014280000283DD0012838D16378012B0ED1A0784F
:10143800A51C00F083F92C4601343546002DEED06A
:101448000A20013D05F037FCEDB2F7E7022B04D185
:10145800A078A51C00F080F8EDE7032B04D1A07854
:10146800A51C00F0FDF8E6E7042B01D00134E3E702
:1014780014F8023F0B4900250A20CA5C520706D41B
:10148800002DD9D00A2005F016FC013DF8E7303BC5
:1014980000FB053514F8013FEFE7FFF777FFCBE7CF
:1014A80070BD00BFA9B900080021FFF7B5BFFFF75D
:1014B800FBBF0301DBB243EA10108300801000F089
:1014C800330003F0CC03034358005B1003F05503CB
:1014D80000F0AA0018437047704708B5FFF7FCFFF3
:1014E80008BD0120704708B5FFF7FBFF08BD70472E
:1014F80010B50446FFF7F1FF2046FFF7F4FF10BDD3
:1015080030B587B06C4684E803009DF80230BDF81A
:1015180004500BB100F094FF0023ADF8163094E8A6
:10152800030004AC0490ADF8141094E80300029092
:101538004DB1BDF808204FF6FF739A4203D02046FC
:10154800FFF748FE18B194E8030000F083FE07B0E7
:1015580030BD008800F052BC10B5044600287AD08F
:10156800822813D104F074F9810774D4392000F06B
:10157800D9FE00F0ABFF4FF47A7005F09CFB3920E0
:1015880000F0D8FEBDE8104000F0A0BF83280ED1BF
:1015980004F05EF9C2075ED4532000F0C3FE00F0E9
:1015A80095FF4FF47A7005F086FB5320E8E784280E
:1015B8000ED104F04DF943074DD4472000F0B2FE98
:1015C80000F084FF4FF47A7005F075FB4720D7E7E9
:1015D800031FDBB2A02B12D802F088FA00283AD1F8
:1015E8001D4B2146186804F0C3F920B1204600F0CD
:1015F800A1FE00F06BFF204600F094FEC2E700F168
:101608002003DBB2072B07D800F007040120A04015
:10161800C0B200F0EFFEB5E700F15B03DBB2022BCE
:1016280005D82438BDE8104080B204F065B900F14F
:101638005803DBB2162B06D8084ABDE8104032F82A
:10164800130004F069B9EC2805D903F0B5F9BDE831
:10165800104003F08FBA10BD140D0020BEA700087B
:1016680008B5002858D082280FD104F0F1F8810776
:1016780052D5392000F056FE00F028FF392000F03E
:1016880059FEBDE8084000F021BF83280AD104F0C4
:10169800DFF8C20740D5532000F044FE00F016FFE3
:1016A8005320ECE784280AD104F0D2F8430733D555
:1016B800472000F037FE00F009FF4720DFE7021F50
:1016C800D2B2A02ADBD900F12002D2B2072A07D869
:1016D80000F0070301209840C0B200F093FED0E765
:1016E80000F15B02D2B2022A04D8BDE8084000200B
:1016F80004F002B900F15802D2B2162A04D8BDE8A3
:101708000840002004F008B9EC2805D903F0A6F930
:10171800BDE8084003F02EBA08BD38B505460C46AA
:10172800FFF71AFF24B92846BDE83840FFF798BFED
:101738000A20013C05F0BFFAA4B2F3E739280CBF30
:1017480050210021FFF7E9BF08B528B100F052FE8B
:10175800BDE8084000F0BABE08BD08B528B100F0E1
:1017680051FEBDE8084000F0B1BE08BD2DE9F843C0
:101778008679857880460C4600F0FAFD36090746DA
:10178800A0B12F4695B1C4F3072303F0F003402B13
:1017980004D004F12003DBB2072B1DD9022000F08E
:1017A800E5FE00F0E5FD80F00107FFB2C4F3033366
:1017B8000F2B3ED8DFE813F0120012005800580033
:1017C800A400BB003D003D00C500210133013301E9
:1017D8008B013D003D0094010027E7E7C4F3072390
:1017E800C4F303260F2B88BF3601E4B295B156B176
:1017F80004F12003DBB2072B304600D93CB900F0D6
:10180800F9FD00F063FE2046FFF7A6FE11E000F0A8
:1018180007FEF6E72046FFF723FF56B104F1200341
:10182800DBB2072B304600D9DCB900F0EBFD00F045
:101838004DFE002F00F05B8100F092FD10F00100DA
:1018480040F0558188F8020000F082FD00F03AFA75
:10185800404600F05FF900F07BFDBDE8F84300F07A
:101868003BBA00F0E5FDE2E7C4F3072303F0F00319
:10187800C4F30329202BE4B218BF4FEA091964B155
:10188800012C28D07DB34EB398F80630D807BAD5C6
:101898006FF3071388F8063020E095B13EB900F0E1
:1018A800EBFD40EA0900C0B2FFF74EFFC1E7012E89
:1018B800F5D100F0E1FD40EA0900C0B200F0E8FD12
:1018C800B7E72EB900F0F6FD4846FFF746FFB0E748
:1018D800012EAED0F6E71DB1052EAAD84846E3E79B
:1018E800042EA6D8F0E7002EEED0392C0CBF4FF40A
:1018F8004870012005F0DFF92046FFF7B1FE98E7B0
:1019080014F4406FC4F3812307D0012B91D165B142
:10191800C4F3090004F000F88BE725B1C4F309000B
:1019280003F0EAFF85E72846FAE72846F2E7E0B23F
:1019380025B103F041F803F01DF97AE703F08EF8BA
:10194800F9E714F4407F29D1D5B9C4F34213E1066D
:101958004FEA830348BF0F25DBB248BF9D4004F020
:101968000F02C4F3812448BFED439A40022C45EA94
:1019780002000DD0032C0ED0012C06D000F06AF91D
:1019880003F066FFFFF7B4FD53E700F05BF9F7E7F4
:1019980000F068F9F4E700F052F9F1E7C4F3012226
:1019A800FDB1D307ECD5C4F3421314F010004FEA8D
:1019B8008303DBB21CBF0F20984004F00F02C4F36E
:1019C800812402FA03F214BFC3430346022C43EAFC
:1019D80002000CD0032C0DD0012C05D000F098F992
:1019E800CEE7012ACCD9DEE700F08AF9C8E700F093
:1019F80097F9C5E700F042F9C2E7E6B2C4F3032459
:101A080035B1204600F05EF93046FFF79DFEB7E796
:101A18003046FFF7A2FE204600F05EF9B0E75FFA15
:101A280084F9A9F1F003042B38D8DFE803F0030D9B
:101A38001419220035B1042EA2D8C4F3042000F0F2
:101A480055F99DE7052EF7E7C4F30420002DE3D0F0
:101A580000F038F994E7C4F30420002DF8D0DBE750
:101A680025B1C4F3042000F027F989E700F012F942
:101A780086E74DB1C4F30424204600F023F903217E
:101A8800204600F04FFD7BE7012000F06FFD012E9E
:101A98007FF676AF022000F069FD71E73DB11EB117
:101AA8004846FFF759FD6BE7C4F30420D0E75EB161
:101AB800B9F1390F0CBF4FF44870012005F0FBF85D
:101AC8004846FFF7CDFD5BE7C4F30420A4E7C4F361
:101AD8000322E1B2404600F0F9FE00F0BFF9A8E6A3
:101AE800C4F30322E1B2404600F0F2FEA1E6BDE8ED
:101AF800F88338B501880446807800F08BF90546EC
:101B080000F016F900F09AF829462046BDE838405A
:101B1800FFF72CBE13B504460068A3880090D3B124
:101B2800BDF800204FF6FF739A4214D02046FFF705
:101B3800C5FB50B900F01CFC68B1A3785BB102206A
:101B480002B0BDE8104000F011BD2046FFF7D1FFFC
:101B58002046FFF741FB02B010BD08B5002003F096
:101B6800CBFE002003F0D8FE00F06AFC00F07EFCFB
:101B780000F0ACFC03F034F9BDE8084002F0FABF0D
:101B880008B500F0DFFBBDE80840FFF7E6BF08B581
:101B980000F040FCBDE80840FFF7F2BFC0F3033295
:101BA800023AC3B20D2A20D8DFE802F007071F1F48
:101BB800141F1F1F0707181F1F18F02B17D004D852
:101BC800E72B8CBF002001207047F42B14BF0020A6
:101BD80001207047E72B0AD9F12BF7E7C0F3032060
:101BE800072894BF0020012070470020704701207B
:101BF800704708B5008800F001F9BDE80840FFF714
:101C0800CDBF82B002AB03E9030002B0704782B0D7
:101C180002AB03E9030002B07047704708B5FFF74D
:101C2800FCFF08BD08B5FFF7F9FF034B1860BDE8D6
:101C38000840FFF792BF00BFF41100207047FFF77C
:101C4800F1BF0000024B1B681843FFF7EBBF00BF52
:101C5800F4110020024B1B681840FFF7E3BF00BFD8
:101C6800F4110020024B1B685840FFF7DBBF00BF90
:101C7800F411002008B5FFF7DBF808BD08B5FFF739
:101C8800F9FF034B1860BDE80840FFF766BF00BFC7
:101C9800F01100200020FFF7F1BF0000054B1B6882
:101CA8001BB9B0FA80F04009704723FA00F000F041
:101CB80001007047F0110020012303FA00F0FFF73C
:101CC800DDBF0000034A0123834010681843FFF773
:101CD800D5BF00BFF0110020034A012383401068DC
:101CE80020EA0300FFF7CABFF0110020034A0123CE
:101CF800834010685840FFF7C1BF00BFF0110020B3
:101D0800024B1B681843FFF7B9BF00BFF011002052
:101D1800024B1B681840FFF7B1BF00BFF01100204D
:101D2800024B1B685840FFF7A9BF00BFF011002005
:101D380070470000C0F3072303EB430300EB4303A2
:101D480037B503F0070201209040C3F3C4030A4AE1
:101D580003EB8303C0B2134400241D7821FA04F274
:101D680042F300026A40024001345540052C03F852
:101D7800015BF2D103B030BDCF110020C0F30723BF
:101D880003EB430300EB430313B50B4A03F00704CB
:101D9800C3F3C40303EB830300211344084613F879
:101DA800012BE24002F001028A400131104305296B
:101DB800C0B2F4D102B010BDCF1100200D4B73B5E5
:101DC8001E680D4BADF804001B681F241E4326FA3D
:101DD80004F3DB0705D4013CF9D20025284602B0FC
:101DE80070BDE5B20199284600F05CFE80B201287A
:101DF800F1D0F3E7F0110020F411002007B5ADF899
:101E080004000198FFF7DAFF019903B05DF804EBCD
:101E180000F048BE13B5104BADF804101B782BB179
:101E2800019802B0BDE81040FFF7E8BF70B1019813
:101E3800FFF7C4FF044601460198FFF77BFF0199AD
:101E4800204602B0BDE8104000F02CBE0198FFF714
:101E580095FF0446F3E700BFCE11002070B5044695
:101E680048B100262078742842D00BD802282DD0FB
:101E780002D8012813D070BD031F6F2BFBD8FFF7C2
:101E88006BFB0AE075283DD000F17C03DBB26F2BB9
:101E9800F1D800F07F00FFF7E3FB651C12E06378E0
:101EA80003F12002D2B2072A08D803F007039840AA
:101EB800C0B200F0CBFA00F009FB02E01846FFF7C9
:101EC8004BFBA51C344604BB2C46CBE7607800F1DD
:101ED8002003DBB2072B08D8012300F0070003FA20
:101EE80000F0C0B200F0BAFAE5E7FFF7B9FBE8E79F
:101EF800A51C6478002CE5D00A20013C04F0DBFE28
:101F0800E4B2F7E76678A51CDCE70A20013C04F098
:101F1800D2FEE4B2D7E7000070B5094B094E1C7831
:101F2800094D3378A34200D170BD05EBC40355F8C1
:101F3800340059680134FFF76AFE04F00704F0E73B
:101F4800F8110020F9110020FA110020024B18683E
:101F58005968FFF75CBE00BF3A120020204BF7B566
:101F68009A790F2A0ED89A7862B11E4A1E491278B9
:101F78000E789C885F7893F800C01C4D4FF6FF7E62
:101F8800B24201D103B0F0BD1868009024B3BDF887
:101F98000010714520D005EBC2004178B9421BD131
:101FA80015F83210614517D18178A9B98188091BC4
:101FB80089B2C72910D89979012262F3071199715A
:101FC800837962F3071383710548FFF7A3FD03B014
:101FD800BDE8F040FFF7A0BF013202F00702CFE7EB
:101FE8003A120020F8110020F9110020FA110020FF
:101FF8002DE9FF470446934D0068A388AA880090FE
:10200800ADF804302868AB8894F800E094F801C073
:10201800A678B4F8048002906946ADF80C30002A1E
:1020280000F00081BDF808004FF6FF7A504500F037
:10203800B980AF78002F00F0B580A8EB020292B209
:10204800C72AAB7900F293800F2B228861D882428D
:10205800B1460ED1D6B9012262F30713AB71FFF76F
:1020680075FF2846FFF756FDAB79A3714FF00009BD
:102078004BE08DF808E08DF809C0B8F1000F03D0E7
:10208800BDF80830534506D1002EEFD0AB7943F0A8
:102098000103AB71EAE7002EF8D16B4A6B4B10785D
:1020A8001B786B4A834210D10098FFF7A7FEC0F354
:1020B8000332012AC3B218D810F4706F00D023B3CA
:1020C8002033DBB2072B20D914E002EBC3014D7893
:1020D800654506D112F83350754502D18978002933
:1020E800C4D1013303F00703DCE70E3202F00F021C
:1020F800012A04D92046FFF70DFDB94605E010F482
:10210800706FDDD0A2790F2ADAD8484604B0BDE84E
:10211800F087824209D146B9A3712046FFF7FAFC3D
:1021280023682B6063686B601CE02046FFF761FD45
:1021380000286DD0002E6BD0AB791F2B0CD92A88C4
:10214800ADF8082002A800228DF80A20ADF80C800E
:102158008DF80E30FFF7DEFC23682B6063686B6038
:10216800FFF7FCFEFFF7F2FE4FF00109CDE70F2B5A
:102178000BD803C9FFF745FD2846FFF7CBFC002322
:102188002B606B60FFF7E2FE70E729882288914296
:10219800CBD1002EC9D1A3712046FFF7BBFC2E601E
:1021A8006E60E1E72868AB880290ADF80C3080B229
:1021B8004FF6FF73984235D0AF789FBBA8EB020863
:1021C8001FFA88F8B8F1C70F26D80EB323888342C0
:1021D80015D1AB79DA070DD40F2B0BD9A37103F006
:1021E800F003F02B99D0A379C3F30312013262F301
:1021F800071391E723682B6063686B60B4E7204698
:10220800FFF7F7FC0028A7D1AB7943F00103AB71C6
:102218002046FFF77FFCA7E703C9FFF7F2FC2F6012
:102228006F60AFE7002EF3D02046FFF7E2FC0028EE
:10223800EED023682B60636802486B60FFF789F96A
:102248008EE700BF3A120020F9110020F811002093
:10225800FA110020F0B587B06C4684E803002046E8
:10226800FFF7C6FE2B4FBDF804202B4E0546A0B144
:1022780094E803000490ADF814103AB1BDF81020AA
:102288004FF6FF739A4201D0FFF7C1FC234C307818
:102298003B7883422AD107B0F0BD94E8030004AB31
:1022A80083E803003C7831780290002AEED0BDF82C
:1022B80008004FF6FF729042E8D0621C02F0070255
:1022C8008A420BD0154D3A7003CB05EBC40C45F888
:1022D8003400CCF80410FFF71FFED7E7FFF757FCD0
:1022E8000F4B3D7035701D605D60CFE704EBC0009B
:1022F800FFF77EFE0028CED0337804EBC30254F8F3
:1023080033005168FFF783FC3378013303F0070388
:102318003370BCE7F9110020F8110020FA110020F1
:102328003A120020024B0146186803F09FBB00BF19
:10233800140D0020024B0146186803F0B1BB00BF22
:10234800140D0020014B186803F0C4BB140D0020C5
:10235800024B93F90000C0F3C700704742120020F7
:10236800024B187800F00700704700BF42120020A7
:10237800034B187810F0070018BF0120704700BF02
:10238800421200200C4A5378C3F38001814210B5F1
:1023980004460FD060F382035370108800F02EF9C2
:1023A800064B1B78DB0705D521460548BDE81040DC
:1023B80001F000B910BD00BF302500207C120020BC
:1023C800ECA70008044B5878C0F3800080F00100A7
:1023D80000F00100FFF7D6BF302500200120FFF7ED
:1023E800D1BF0020FFF7CEBF014B1878704700BF60
:1023F80066120020024B1A7810431870704700BF0D
:1024080066120020024A137823EA0003137070470B
:1024180066120020014B00221A70704766120020D5
:10242800024B1A7810431870704700BF65120020DD
:10243800024A137823EA00031370704765120020DC
:10244800014B00221A70704765120020024B1A785F
:1024580010431870704700BF64120020024A1378B6
:1024680023EA00031370704764120020014B002216
:102478001A70704764120020014B1878704700BF2B
:1024880043120020704708B5FFF7FCFF08BD0000A5
:10249800064A5278520708B506D4054A117881428F
:1024A80002D01070FFF7EFFF08BD00BF30250020F5
:1024B8004312002008B5044B1A781AB1002018708E
:1024C800FFF7E1FF08BD00BF4312002010B50D4B18
:1024D8000D4A1B7812780D4C13430D4A2068127868
:1024E80013430C4A0370127832B11343037003F09C
:1024F80023FA08B1FFF7DEFF2068BDE8104003F0BB
:10250800AFB900BF6612002065120020140D00202C
:102518006412002043120020704708B5FFF7FCFF43
:1025280008BD00000A4A5278520710B50CD4094C6D
:1025380041EAC0012170FFF7C5FB94F90000C0F320
:10254800C700FFF7EAFF10BDBDE81040FFF7BABBB0
:10255800302500204212002008B5034B00201870D7
:10256800FFF7DBFF08BD00BF4212002008B50C4A88
:1025780092F9003023EA000040B21070420702D1FD
:10258800DBB2834203D1074B5B785B0707D5C0F307
:10259800C700FFF7A1FBBDE80840FFF7DDBF08BD96
:1025A800421200203025002008B502F049FDBDE8A0
:1025B80008404FF6FF71002002F0D9BD08B5002091
:1025C80002F0D2FD4FF6E963C31A5842584108BDDC
:1025D800022002F0C3BD032002F0C0BD0146032063
:1025E80002F0BFBD10B5042002F0B8FD0446222059
:1025F80002F0B4FD44EA002080B210BD10B5C1B2AB
:102608000446042002F0ADFD210A2220BDE8104056
:1026180002F0A7BD072002F0A1BD0146072002F085
:10262800A0BD01460F2002F0C6BD0146132002F0EE
:10263800C2BD0020FFF7F9BF08B50020FFF7F1FF82
:10264800FFF7F7FF08BD000010B502F0F9FC4FF6E0
:10265800E961002002F08BFD0021022002F081FDDB
:1026680000210320002402F07CFD1A4B214604209F
:102678001C6002F076FD2146222002F072FD214600
:10268800052002F06EFD2146062002F06AFDFF21BA
:10269800072002F066FD2146082002F08CFD214645
:1026A8000D2002F05EFD2146182002F084FD21462F
:1026B800172002F056FD21461C2002F07CFD214621
:1026C800202002F054FD2146182002F074FDFFF787
:1026D800B3FF10BDF4110020FFF7B6BF01460E206E
:1026E80002F03FBD08B503F06DFA024B1860024BCB
:1026F800186008BD781200207412002008B503F095
:1027080061FA024B1860024B186008BD781200206D
:10271800701200207047704708B5FFF7FCFF08BD2E
:10272800704708B5FFF7FCFF08BD000008B505486D
:1027380000F09CFA02F03AFCFFF7ECFFFFF7ECFF21
:1027480008BD00BF496200080120704708B5FFF7BF
:10275800FBFF08BD7047704708B5FFF7FBFFFFF7A1
:10276800FAFF08BD08B503F02BFA00F099FB02F058
:10277800BDFD02F065FEFFF7D4FF08BD38B50E4D6C
:102788002B780446580711D5D9070FD50B4800F008
:1027980011FF2B78DA0709D50948214600F00AFF0E
:1027A8002B78DB0702D5074800F004FF2046BDE878
:1027B8003840FEF79DBE00BF7C12002001A800082B
:1027C80014A8000825B400082DE9F74F00F07EFB97
:1027D80008B1FFF787FFDFF8ECB0DFF8ECA00027BF
:1027E800D8465FFA87F9484600F08CFA1BF8014B87
:1027F8008442054615D10137082FF2D14FF6FF73F1
:10280800ADF8003000238DF8023003F007FA40F0ED
:102818000100ADF8040002AB13E90300FEF770FEF7
:1028280031E09AF800309B0701D500F071FA6C404E
:10283800E2B214F001043BD10123661CF6B25B003E
:10284800062EDCB2D7D0224234D0FFF77FFFA8B1E2
:102858002540EDB2003D18BF01258DF800608DF8C8
:1028680001908DF8025003F0D9F940F00100ADF85D
:10287800040002AB13E90300FEF742FE18F8073024
:10288800634008F8073002F04FFD08B1FFF736FF44
:102898000B4C02F0E3F902F0DBFF237883420CD003
:1028A80002F0D6FF207003B0BDE8F04FFFF766BF17
:1028B8000026CAE723463446BFE703B0BDE8F08FD9
:1028C80067120020681200207C1200200020704748
:1028D800704700003022C1F307235043062202FB51
:1028E800030050FA81F1034B33F8110082B002B0B3
:1028F800704700BF0AA50008014B33F81000704765
:1029080048A8000810B500F0D9F8B0F5A04F044663
:1029180030D2B0F5804F80F08B80DF2812D8BF28E6
:102928007AD8A7280AD8A42869D8012804D0031F70
:102938009BB2A12B28BF0024204610BDBF2863D11D
:102948000024F9E7B0F5005F0BD2FF28F4D8E72898
:10295800F2D9A0F1ED039BB2122BF1D840F4A044B8
:102968001BE0B0F5405F5DD30205C3B25DD443F40C
:102978004044E1E7B0F5AA4F1CD2B0F5A84FC3B266
:1029880076D2B0F5A64F0AD39A08012403F00303C0
:102998009C4044EA421444F40A44A4B2CCE7B0F59B
:1029A800A44F5BD2B0F5A24F47D34AF2F10444EAF0
:1029B8000324C1E7B0F5B44F0FD2B0F5B24F63D2DC
:1029C800B0F5AC4F57D3A0F5B0439BB2FF2BB7D8A7
:1029D8004AF2F00343EA00233EE0A0F5C0439BB26D
:1029E800B3F5005FACD2C0F3042000F0E7F80002B2
:1029F800E4B200F4F850204340F400549CE7A0F1FE
:102A0800240444F48044C8E75834254BE4B233F82E
:102A1800144044F488448FE7C03880B2FFF76CFF55
:102A2800044689E7C0F30B00F8E743F4484483E71A
:102A3800C0F30B0444F420447EE7C3F3810252013F
:102A4800C0F3011442EA042403F00303012202FA4A
:102A580003F3234343F40C439CB26DE79A08012423
:102A680003F003039C4044EA421444F40C4494E702
:102A78004AF2F4049BE7C0B200F0A0F8040204F4A0
:102A8800F85444F4005457E700F00F0000F096F8AB
:102A9800C4F3031440EA042040F4104084B24BE726
:102AA8001AA8000807B5ADF804100199FFF712FF3E
:102AB80003B05DF804EBFFF725BF0000E7284DD809
:102AC800DF2807D8312861D00ED8292857D02A28DE
:102AD80063D07047A0F1E003072B3FD8DFE803F08D
:102AE800123E2126303E3A3F392804D0822802D0AF
:102AF80035283DD07047304B1B7813F0030F18BFB3
:102B0800E02070472C4A1378D9074DD4527812F038
:102B1800010F23D013F0100F08BFE32018BF0020C7
:102B28007047254B1B7813F0040FF2E7224A1378FD
:102B380059073BD45278D2073AD413F0100FEDE777
:102B48001D4B5A78910709D51B7813F0100F08BF51
:102B5800E720E3E7184B1B781A07F6D47047164AA4
:102B68001378190726D452789207E6D5E420F5E7BA
:102B7800114B1B7813F0200F18BF292070470E4BFC
:102B88001B7813F0200F18BF352070470A4B1B78AD
:102B980013F0400F18BF2A207047074B1B7813F01B
:102BA800400F18BF3120704739207047E220704726
:102BB800E0207047E620704730250020294A137826
:102BC800590707D500F01801082927D100F0F700A8
:102BD80040F00400190707D500F01801182926D17C
:102BE80000F0E70040F014005278D10707D500F054
:102BF8001801082924D100F0F70040F001009207DD
:102C080007D500F01802182A23D100F0E70040F099
:102C18001100DB0648BF00F0E700704700F0140120
:102C2800042904BF00F0FB0040F00800D2E700F0E0
:102C38001401142904BF00F0EB0040F01800D3E79A
:102C480000F01101012904BF00F0FE0040F0080067
:102C5800D5E700F01102112A04BF00F0EE0040F0A1
:102C68001800D6E73025002000207047014B186077
:102C7800704700BF180D0020014B1B68184700BFA4
:102C8800180D0020FFF790BC08B500F01FF964206C
:102C980004F011F800F01AF9002000F033F8C30727
:102CA80005D5FFF7EFFFBDE8084002F0C9BF08BD32
:102CB80008B5FFF7E9FF08BD08B5FFF77FFC08B9BD
:102CC800FFF70AFDFFF784FC084B1870FFF78AFC32
:102CD800074B1880FFF7ECFFFFF77DFCFEF7AFFF0F
:102CE800044B1868BDE80840FEF7C4BF7C120020FA
:102CF80030250020F0110020704708B5FEF7B2F922
:102D080008BD0000014B185C704700BF3A25002041
:102D18002DE9F0410F48104DDFF84C800F4F104E51
:102D280000F048FC00242146404600F043FC3846A9
:102D380000F040FC15F8010BFEF7BBFB01463046DE
:102D480000F038FC0134074800F034FC082CEAD1C4
:102D5800BDE8F08148A800083A25002011A800081D
:102D680057A8000825B4000814A80008012003F09B
:102D7800A2BF00BF00BF00BF00BF00BF00BF00BFB1
:102D880000BF00BF00BF00BF00BF00BF00BF00BF43
:102D980000BF00BF00BF704708B5FFF7E7FF08BDD9
:102DA80008B5202282F31188012100F00F03994011
:102DB80020F00F0005F056FB002383F3118808BDAF
:102DC80038B50C4D082455F8040B421C01D0FFF708
:102DD800E7FF013C14F0FF04F5D1074D55F8040B4B
:102DE800431C01D0FFF7DCFF0134E4B2062CF5D117
:102DF80038BD00BF74A800085CA800082DE9F84396
:102E0800254F57F821300646581C0D4640D0202241
:102E180082F311884FF0010823F00F0903F00F0324
:102E280008FA03F4214642464846A4B205F01AFBC4
:102E3800A9F81A40002484F31188FFF79AFF17486D
:102E48002346A14650F8042B511C23D022F00F0131
:102E580002F00F02096921FA02F2D2071AD408FA1D
:102E680003F464B2013349EA0404062B5FFA84F9D7
:102E7800E8D157F82500431C01D0FFF791FFB9F1BD
:102E8800000118BF01212846FFF786FF06F80590C4
:102E9800BDE8F8830024E5E774A800085CA80008EA
:102EA80008B5FFF78DFF074A002313605360064AF1
:102EB80008201360536000F033F8BDE80840FEF7BF
:102EC800C7B900BF322500203A25002037B50024B5
:102ED800CDE90044E1B268460134FFF78FFF082CC2
:102EE800F8D10D4D22466946284607F081FA002898
:102EF8001DBF6A4603CA012400241CBF28606960FC
:102F0800054806492346082200F00CF8FEF7ABF9FD
:102F1800204603B030BD00BF322500203A250020EE
:102F280070470000F8B50F4C06460F4615462BB102
:102F38000123237002F046FE0B4B186023782BB157
:102F4800094B186802F076FE042808D8F8BDF25C30
:102F5800FA5401339D42FADC00232370F6E700237C
:102F6800F8E700BF841200208012002008B502F0A4
:102F7800C9FD03F0A3F903F0A3F903F0C1F9FFF7C2
:102F8800EBFBFAE770472DE9F04F8BB09846DDE987
:102F98001853149C9DF854E0019116460746169A5A
:102FA80003F4806924B923F01003B9F1000F20D18C
:102FB80013F0200F14BF4121612120460DF1080AAA
:102FC8000024A1F10A0BB0FBF2FC02FB1C0C5FFA17
:102FD8008CF1BCF1090F94BF30315944C9B2904209
:102FE8000AF8011BB0FBF2F104F1010401D3202C13
:102FF80010D113F0020A1ED103F001013DB131B125
:10300800BEF1000F02D113F00C0F00D0013D4FF0BC
:10301800300C05E00846D6E702A800F804C00134E1
:103028001798A04201D9202CF6D121B13021A54210
:1030380001D91F2C19D9D9066AD5B9F1000F39D190
:1030480094B31799A14201D0AC4233D1611E2BD061
:10305800102A53D19A06A4F1020431D51F2C38D86E
:1030680004F128026A4458212EE002A801550134CF
:10307800DDE7022A13D162228DF8082030228DF86C
:1030880009200224BEF1000F53D004F128026A443B
:103098002D2102F8201C01341BE07822ECE73022B5
:1030A8008DF808200124EDE7102AE2D19C06F4D51A
:1030B8005822E1E7102A2ED19806CFD41F2C08D821
:1030C80004F128026A44782102F8201C01341F2CDC
:1030D80017D99B074DD0B146A1444846A9EB040235
:1030E800002C4AD1BAF1000F05D0A9EB06094D45CD
:1030F80006EB090048D80BB0BDE8F08F022A0FD0C4
:103108000C4604F128026A44302102F8201C0134DC
:103118001F2CDED8B6E7022AD9D11F2CD9D82146D0
:1031280001F128024C1C0DEB0201622201F8202C4F
:10313800CDE7590704D504F128026A442B21A8E7F2
:103148001A07C6D504F128026A442021A1E701998B
:1031580043462020B84709F101094D450BEB090208
:10316800F5D8A5EB0409A54238BF4FF00009B144D2
:10317800B2E7A146A6EB040BEFE7013C02A80199D0
:10318800005D4346B847A8E7024601994346202018
:10319800B84709F10109AAE708B1FFF76DBD704703
:1031A8002DE9F04F8DB01F460B1E0693AC4B169EB3
:1031B800914614BF83469B460025387860B94D4533
:1031C80006992CBF09F1FF322A464B460020D84702
:1031D80028460DB0BDE8F08F252807F1010706D075
:1031E8002A4606996C1C4B46D8472546E5E7002336
:1031F8000DE02D2A28D0302A06D0303A092A4FF07F
:10320800000812D80A2430E043F001030F4639467B
:1032180011F8012B2B2A1AD0EBD8202A1AD0232AEE
:103228001BD02A2A29D04FF000083A782E2A6AD1D2
:103238007978A1F13000092807F1010243F480638D
:1032480058D800240A2728E043F00203DEE743F0B9
:103258000403DBE743F00803D8E743F01003D5E79E
:1032680004FB0822A2F130080F46394611F8012B59
:10327800A2F130000928F3D9D7E756F8048BB8F142
:10328800000FBCBF43F00203C8F100080F46CCE7AB
:1032980007FB0411A1F130040246104610F8011B87
:1032A800A1F1300CBCF1090FF2D917463A4612F8D1
:1032B800011B6C292ED028D8682932D06A2939D028
:1032C8003A46174617F8010B782889D8632834D866
:1032D800622868D0632800F0CD80252880D058283F
:1032E8007FF47EAF5A0500F1818023F00C0242F092
:1032F80020024DE02A2905D156F8044B023724EA6A
:10330800E474D3E717460024D0E77A29D8D143F4E8
:103318008073D6E779786C29F9D143F44073BA1CE5
:10332800CFE77978682902D043F08003C9E743F0F2
:10333800C003F4E743F40073C3E7A0F1640201217A
:10334800D2B201FA02F247490A4019D1732800F0B3
:10335800CE8070287FF444AF43F0210305930823FF
:10336800CDE903431023CDE9012356F8043B00932C
:103378002A4606994B465846FFF705FE05461CE7C0
:10338800782803F4806105D100295BD023F00D0271
:1033980010230FE06F281CD123F00C0209B123F091
:1033A8000D02082306E0590554BF23F00C0223F050
:1033B8000D02022312F400717FF4FFAED00506F16E
:1033C800040A42D5CDE90482CDE90234019133687B
:1033D80029E0692823F010020BD0642809D023F0D3
:1033E8001C0209B123F01D020A23E3E723F00D02B2
:1033F8007DE709B123F0110293053FF5DEAED00554
:1034080006F1040A01D5336802E0510615D5337870
:103418000394CDE904820A220292002B4FEAD37268
:103428000192B8BF5B4200932A4606994B4658461C
:10343800FFF7A9FD56460546BFE61306E3D5B6F9DC
:103448000030E5E723F00C02A2E751060CD53178ED
:10345800CDE902340023CDE90482CDE90013E3E786
:103468008D2F000821081200316812F0800F18BF54
:1034780089B2EDE713F0020424D04FF0010A6B1C67
:103488000793069916F8040B4B462A46D84764B3A7
:10349800079A54461FE006994B462020D84705EB6B
:1034A8000A020AF1010AD045F5D8B8F1000F08F16F
:1034B800FF3308BF002308F1010A1D4408BF4FF07D
:1034C800020ADCE7A246EAE7551C06994B4620208B
:1034D800D84701342A464445F6D3079AA8EB0A038D
:1034E800D04538BF00231A440792079D65E6324647
:1034F800002C52F8046B079214BF21464FF0FF319D
:1035080031443246107808B1914211D1A2EB060A33
:1035180013F48062089202D0A24528BFA24613F095
:10352800020309931BD1AAEB05032A460B9308E073
:103538000132E7E7531C0A9306994B462020D847E7
:103548000A9A0B9BD3189845F4D8A8EB0A03D045E0
:1035580038BF00230AF101021D4403EB020AAB1B2A
:103568000A9304E01C4606994B462A46D8470A9B0C
:103578009D1916F8010B28B1089B002BF3D0631E88
:10358800002CEFD1099B93B12A46AAEB050405E06C
:10359800561C06994B462020D8473246A318984512
:1035A800F6D8A8EB0A03D04538BF00231D44079E70
:1035B80003E600BF0FB41FB506AA02A952F8043BE0
:1035C8000392009204484FF0FF32FFF7E9FD05B07F
:1035D8005DF804EB04B07047A13100081FB50A4B31
:1035E8000A4A1B7802930A4B0A491B7801930A4B33
:1035F8000A481B7800930A4B12781B780978FFF762
:10360800D9FF05B05DF804FB3D0F0020430F0020F3
:103618003E0F0020440F0020410F002094A800080E
:10362800420F002010B5014604460548FFF7C2FFC7
:103638000120A040FEF703FBBDE81040FEF7A7BA43
:1036480011A90008F0B5431F89B03E2B00F2128182
:10365800DFE813F09300840099003F001001100187
:10366800800010011001C2001001D100F700100104
:10367800100110011001E20010011001E00010011A
:10368800AE00100110010E010E010E010E010E0117
:103698000E010E010E010E010701100193007A00C0
:1036A800100110011001100110011001100110018A
:1036B80010011001070110011001800010010B0119
:1036C8000B010B010B010B010B010B010B010B0192
:1036D8000701FEF780FF01466948FFF76BFFFEF719
:1036E80077FFC0F3C0030193C0F38003014600F0E5
:1036F80001020093C0F340036248FFF75BFFFEF747
:1037080071FFC0F3C0130793C0F380130693C0F38F
:1037180040130593C0F300130493C0F3C00303934D
:10372800C0F380030293C0F340230193C0F3002346
:103738000146009300F00102C0F340035248FFF72E
:1037480039FF012009B0F0BD5048FFF733FFFEF7FD
:10375800C3FFF6E74E48FFF72DFFF2E74D4A4E4804
:10376800137823F00F031370FFF724FF4B48FFF77C
:1037780021FF4B4B01221A70E3E74A48FFF71AFF73
:10378800FDF77CFDDDE7434C2378C3F3000282F0AC
:10379800010262F30003DD07237001D54248DAE72E
:1037A8004248FFF707FF237823F00E032370C8E78A
:1037B800384C2378C3F3400282F0010262F34103DC
:1037C8009807237006D53A48FFF7F4FE237843F0AC
:1037D8000103EBE73748BEE72E4C2378C3F380029A
:1037E80082F0010262F382035907237001D532483F
:1037F800EAE73248AFE7274C2378C3F3C00282F0E8
:10380800010262F3C3031A07237001D52C48DBE7D2
:103818002C48A0E72C489EE702F01AF82B4B1E789C
:103828002B4B1F782B4B04461D7802F0CBF9ED0982
:10383800CDE900503B46324621462748FFF7BAFEFD
:103848007FE7FEF7A4F923490B78C3F3C01282F08F
:10385800010262F3C7130B701B064CBF1F482048B8
:1038680079E70020FFF7DEFE6BE73938C0B2F9E7E9
:103878001D38FBE71B48FFF79DFE002062E700BFED
:1038880016A9000833A900087CA9000861AA000845
:1038980072AA00087C12002024AC00084BAC000877
:1038A800911200204FAC00086BAC000877AC000800
:1038B80084AC000891AC00089FAC0008AEAC0008CE
:1038C800BEAC0008CAAC0008D7AC0008FC10002049
:1038D8008E24002030250020BEAD000842AE00082E
:1038E8004CAE000859AE0008292810B5634C43D0E7
:1038F8001AD813284DD006D8072800F081800B2845
:1039080021D05F488FE0142836D0A0F11E03092B80
:10391800F7D81D38C0B22070013805286AD8DFE80A
:1039280000F03E4B51575D6338280CD0A0F14F038F
:10393800032BE6D85038534A022800F29780DFE874
:1039480000F075838A005048FFF734FEFFF746FE03
:103958004E4801220521FFF72DFE2178002900F0AD
:1039680087804B4B4B481A684B4BBDE81040002AE8
:1039780008BF1A46FFF71EBE4848FFF71BFE23780C
:10398800002B7AD03F4A00231360414A237013600A
:10399800E3E74348FFF70EFEFFF720FEDDE7394B6C
:1039A800404A1A603A4B404A1A6021780029D4D01C
:1039B8003E48FFF7FFFDD0E7324B3D4A1A60344BD3
:1039C8003C4AF1E72F4B3C4A1A60314B3B4AEBE744
:1039D8002C4B3B4A1A602E4B3A4AE5E7294B3A4AA8
:1039E8001A602B4B394ADFE7264B394A1A60284BB5
:1039F800384AD9E7002322482370FFF7DBFDD4E7D4
:103A0800284B35481E221A70294B32221A702A4B2D
:103A18000A221A702A4B14221A702B4B08221A7089
:103A28002B4B28221A70FFF7C5FD96E71268002A6B
:103A38003FF467AF13780A3B1BB2002BB8BF0023D3
:103A4800137011782548B4E71268002A3FF459AF7B
:103A58001378013BF0E701231268002A3FF451AFC5
:103A680011780B44FF2BEBDDFF23E9E70A23F3E78B
:103A7800BDE810401A48FFF79DBD10BD9012002008
:103A8800A1AF00088C1200205BAE00086BAE0008E6
:103A980088120020B4AF000857AE000837AF0008FE
:103AA8003AAF0008440F002048AF000878A9000882
:103AB800430F002051AF0008420F00205DAF0008FF
:103AC800410F00206AAF00083E0F002079AF0008C0
:103AD8003D0F00208CAF0008A4AF0008AEAF00086F
:103AE800BDAF0008002070470020704770B5244E15
:103AF8003478012C054613D0022C3AD0002C3BD147
:103B0800FEF772FC222823D12846FFF7EBFF18B9ED
:103B18002846FFF797FD00E0012000F0010070BD86
:103B2800FEF762FC2228284605D1FFF7DBFF0028B4
:103B3800EED02046F1E7FFF7D7FFA8B9142D1BD028
:103B480008D80B2D0AD0102D10D00E48FFF732FDE3
:103B58000020E4E7292D0FD0382DF6D10A48FFF7C9
:103B680029FD0A48FFF726FD0120D8E70223337014
:103B78003820FFF7B9FEF7E700233370E8E700BF06
:103B88009112002059AE000824AC00084BAC000884
:103B9800453807EE900AF8EEE77AB2EE087AC7EEF3
:103BA800877A08B517EE900AFCF70CFD9FED080B15
:103BB80041EC110B05F0CCFA074B51EC100B00222D
:103BC800FCF758FDFDF706F800EE100A08BD00BF27
:103BD800000000000000004000807B4008B545F66A
:103BE8001D43984205D18B7873B300F039FA002051
:103BF80008BD45F61E43984204D18B7823B300F0E4
:103C080045FAF4E745F61F43984206D18B78DBB1B5
:103C180000F030F80028F2D1E7E745F62A43984249
:103C280009D18B7883B100F083FC08480022042175
:103C380000F092F8DBE745F62B43984204D18B78E5
:103C480013B100F07BFCF0E70120D1E71C0D002048
:103C580008B5FFF79DFFBDE8084000F0FDB908B5BD
:103C6800FFF796FFBDE8084000F016B900F00AB863
:103C780070470000024B187800F00100704700BF41
:103C8800BC25002038B50D4D2C78B4B90C4B1C70F0
:103C980000F000FC0B4B0C491C700C4B1C700C4BBF
:103CA8001C800C4B22460634302C1A8059601A812D
:103CB80003F10C03F7D101232B7038BD3C0D002014
:103CC8009F1200209E120020000080BF9D1200203D
:103CD8009A1200205C2500200B4B1B7883420FD9D9
:103CE800013B0A4A1B1A5BB20C2101FB032393ED2B
:103CF800010AB5EEC00AF1EE10FA01D900F024BCB1
:103D08009FED030A704700BF9F1200205C2500202A
:103D1800000000000D4BDFED0E7A1B7806EE900ACE
:103D2800F8EE666A9B0166EEA76A07EE903AB8EE6F
:103D3800E77AC6EE877A9FED077A67EE877AFCEE18
:103D4800E77A17EE903A98B2704700BF600D0020EE
:103D58000000704200007A44F8B5224B1B78DB075C
:103D680004460E46154603D4BDE8F840FFF78ABF5F
:103D78001D4B1B780BB900F061F81C4B1B780BB17D
:103D8800FFF780FF1A4BD4ED017A1A4F94ED000A21
:103D98003C6001221A70184A00231370174A1680D3
:103DA800174AFCEEE77A1570164D2B8017EE903AFD
:103DB80098B2FFF7AFFF00F0CDF801F02FFF124BDC
:103DC8002A8818803B6803EBC203D3ED017AFCEE26
:103DD800E77A17EE903A98B2FFF79CFF0B4B1880E2
:103DE800F8BD00BFBC250020921200209D120020C3
:103DF8009E120020582500209612002044250020FD
:103E0800BD25002098120020941200209A1200204C
:103E180008B5074B1B78DB0704D500220548114677
:103E2800FFF79AFF01F0FAFE034B188008BD00BFA8
:103E3800BC250020941200209412002010B5124CCA
:103E4800237803BBFEF7BAFB08B9FEF745FCFEF77B
:103E5800E1FB0E4B002218700D4B0E48114606323E
:103E6800302A19805860198103F10C03F7D123789F
:103E78001BB900F0C9FA01232370FFF703FFBDE85F
:103E88001040FFF7C5BF10BD92120020BC250020CE
:103E98005C250020000080BFF8B5274DB5EEC00AAC
:103EA8002B78F1EE10FA2DED028BB0EE408A48BF68
:103EB800B1EE408A002B3BD0204B1B780BB9FFF7A3
:103EC800BDFF1F4B07241946D3ED167AF4EE487A46
:103ED800F1EE10FA27D10C2262438B180026DFF886
:103EE80070C08E52C3F804C01E81072C0ED1154B2A
:103EF80001261E70144B1C78013CE4B21C70BCB93E
:103F080000F0C8FA114B2C701E7011E003F10C0779
:103F180097E80700013483E807009E81C3F810C0C2
:103F28009E823B46E1E7013C621CA3F10C03CBD126
:103F3800BDEC028BF8BD00BF9D120020921200203C
:103F48005C2500209C1200209F1200203C0D0020C0
:103F5800000080BF2DE9F041364B1B780646D80794
:103F68002DED028BB0EE408A4CD5334B1B780BB944
:103F7800FFF764FFDFF8DC80304F98F80030B5EECB
:103F8800C08AF1EE10FA48BFB1EE488A5D1E0C22D5
:103F9800691C29D10133DBB2082B48D928490823E9
:103FA8005422A1F10C0088F8003006F03FFA254AA7
:103FB80001231370244A137098F800305C1E01F036
:103FC8002DFE0C236343FA18F85282ED018A1681FC
:103FD80001F024FE1D4C1E4B1880237893B100F08D
:103FE80083FA002323700DE002FB0574D4ED017AF7
:103FF800F4EE487AF1EE10FA17D198F80030013B48
:104008009D4203DBBDEC028BBDE8F08104F10C0797
:1040180097E8070084E8070001F000FE0135A08159
:1040280084ED048AA6823C46E7E7013DB0E788F8BC
:104038000030BCE7BC250020921200205C2500203F
:10404800682500209C1200209D1200203C0D0020B5
:10405800AA1200209F1200204FF6FF70FFF77ABFC8
:1040680008B5084B187840F001001870FEF7D5FA2B
:10407800FFF7FEFDBDE80840034800220221FFF7D4
:104088006BBE00BFBC250020500D002008B50022E3
:1040980002210948FFF760FE4FF47A7002F00BFE28
:1040A800FFF7F0FD054B18786FF300001870BDE8B6
:1040B8000840C0B2FEF7B1BA400D0020BC25002070
:1040C8002DE9F843654F664C3B7813B92378002BEC
:1040D80078D001F0A3FD25788146EDB900253B781D
:1040E800002B00F0B9805F4B1C7824B95E4B1C781C
:1040F800002C08BF2C465D4D5D4F00264FF6FD781D
:104108003B78B34200F396805A4A1378002B5AD072
:10411800002111701C4656E0DFF87881564EB8F839
:10412800000001F080FD33888342D7D8B8F800003A
:1041380001F079FDA8F80090DFF85C813388B8F8C1
:104148000090C41A09F10103A8F8003001F066FDD7
:104158004A4B18804A4B1988B8F800308B42A4B2F1
:1041680005D3484B1B785BB30023A8F80030464BB7
:1041780046481A6890F800C0B8F80030DB00BCF177
:10418800000F23D102EBC90E02EB030C9EED007A5F
:10419800DCED007AB4EE677AF1EE10FA16D101235D
:1041A80003700220FFF7B6FD9FED390AFFF7D2FE34
:1041B8000220A8F80090FFF7ADFD044634808EE792
:1041C800FFF760FD00242046BDE8F8831344D3EDD3
:1041D800017AFCEEE77A4FF0000C17EE903A80F87F
:1041E80000C098B2FFF796FD01398442B8F8003054
:1041F80001D999420CDC84423ABF001B84B20124E5
:1042080002EBC30292ED000A2046FFF7A3FED5E7B2
:1042180001339BB2A8F8003002EBC303D3ED017A57
:10422800FCEEE77A201A17EE903A84B298B2FFF7BC
:1042380071FDDAE72B89013B9BB2434509D82888F1
:1042480001F0F1FC2B89834203D895ED010AFFF7B1
:1042580023FE01360C3553E72C4655E79D12002006
:104268009E120020AC120020AD1200205C25002018
:104278009F1200209C1200209A120020AA120020EF
:1042880044250020BD250020582500209612002036
:1042980000000000941200209812002010B5084C6D
:1042A8000849204603F06BF82046022103F079F80C
:1042B800BDE81040032210214FF0904004F0D2B81E
:1042C80074290020840D002008B5074803F077F80A
:1042D800012210214FF0904004F0C4F84FF09043B1
:1042E80010221A8308BD00BF7429002008B5114B9D
:1042F8002DED028BB0EE408A83ED000AFFF7E4FF54
:10430800B5EEC08AF1EE10FA10D938EE088ADFED62
:104318000A7A0A4B28EE278ABCEEC88A83ED008AFF
:10432800BDEC028BBDE80840FFF7B8BFBDEC028BBF
:1043380008BD00BFA412002000008043840D0020A7
:1043480010B5084C0849204603F019F82046022108
:1043580003F027F8BDE81040032220214FF09040D9
:1043680004F080B8A4290020740D002008B507487F
:1043780003F025F8012220214FF0904004F072F854
:104388004FF0904320221A8308BD00BFA4290020C3
:1043980008B5114B2DED028BB0EE408A83ED000A73
:1043A800FFF7E4FFB5EEC08AF1EE10FA10D938EE47
:1043B800088ADFED0A7A0A4B28EE278ABCEEC88AFB
:1043C80083ED008ABDEC028BBDE80840FFF7B8BF5B
:1043D800BDEC028B08BD00BFA01200200000804386
:1043E800740D002008B5FFF76BFE58B10020FFF7E9
:1043F80073FCFFF77BFF0020FFF76EFCBDE8084069
:10440800FFF7C6BF08BD000038B5184D184C032289
:1044180010214FF0904004F025F82846154902F085
:1044280070FF1549154802F0AAFF032220214FF01A
:10443800904004F017F82046114902F062FF114934
:10444800114802F09CFFAB6A10491A6810481368BB
:1044580023F002031360A36A1A68136823F4003375
:104468001360BDE8384002F08ABF00BFB0270020C3
:10447800E0270020ECAF0008840D002074290020FC
:10448800E4AF0008740D0020A4290020640D00206A
:104498008429002010B50F4C0F4802F090FF2046E9
:1044A80002F04EFF40F2FF72002120460B4C02F052
:1044B80036FF0B4802F083FF204602F041FF2046FA
:1044C80040F2FF72002102F02AFFBDE810400548C3
:1044D80002F075BFB027002074290020E0270020D3
:1044E800A42900208429002008B50A4A0A490B4853
:1044F8004FF4807302F015FF09490A480A4A4FF43D
:10450800807302F00EFFBDE808400848022102F05F
:1045180048BF00BFF4B10008D4AF0008B02700209E
:10452800C4AF0008E0270020F4AF00088429002069
:10453800014B00221A707047A8120020014B00227C
:104548001A707047A8120020024B1B780BB9024A58
:1045580013707047A8120020AD120020024B1B7880
:104568000BB1FFF783BB7047C612002008B5FCF7F4
:10457800F1FD08BD08B5FFF7F1FF044B0448002220
:104588001A700821BDE80840FFF7E6BBC6120020F4
:10459800140E0020034B0448002208211A70FFF76C
:1045A800DBBB00BFC5120020940D002010B5FFF73B
:1045B800D5FF084A08481378013303F00303137042
:1045C800282404FB03000022BDE810400521FFF762
:1045D800C3BB00BF360F0020940E0020F8B5174B60
:1045E8001B788BB1164C208840B901F017FB20804E
:1045F800144C154D227842B1531E08E001F013FB0C
:10460800124B1B888342F0D3F8BD2B78013B10492D
:10461800104EC85C33788F5C33B1FFF720FB3378DA
:1046280013B13846FFF714FB23782A780133B3FB1C
:10463800F2F102FB11332370E6E700BFC21200203B
:10464800AE120020B0120020B1120020340F00205A
:10465800B2120020C61200207047000008B5054BB2
:10466800054801221A7008210022FFF775FBFFF7A1
:10467800F3FF08BDC6120020540E0020704700004A
:1046880008B5054B054801221A7008210022FFF7DA
:1046980063FBFFF7F3FF08BDC5120020D40D00200F
:1046A8002DE9F04145F6264398428AB0054608D1DF
:1046B8008B78002B79D0FFF7D1FF00200AB0BDE836
:1046C800F08145F62743984205D18B78002B6CD0B2
:1046D800FFF750FFF1E745F62843984207D18B785A
:1046E8006F4A002B62D01378002BF1D1E3E745F62F
:1046F8002C43984205D18B78002B56D0FFF7C0FF8A
:10470800DBE745F62D43984205D18B78002B4CD03A
:10471800FFF740FFD1E745F62E43984207D18B7843
:10472800002B42D05F4B1B78002BF1D1E6E745F612
:104738002943984243D18B7813B1FFF737FFBCE781
:10474800574A127832B9574B1B78002B00F0A680D5
:1047580000231A4654484E78047854480068243494
:10476800044408785249062707FB0611E4B20F5C97
:1047780050490978002966D13C44E4B2002B00F086
:10478800878012B12046FFF763FA4B4B1B782BB199
:104798004A4A4B491378CC54013313702846FFF723
:1047A800E5FE80F00100C0B288E73D4A1278002A91
:1047B800D0D13C4B1B78002B70D0002203E0384B43
:1047C8001A78002AF5D08B78002BC3D0E02D0CD1B5
:1047D800FFF7C4FE384B01221A703A4A00231370BF
:1047E800394A1370354A137067E7E22D0BD1FFF78A
:1047F800B5FE314A137813B1324B012119700023E9
:104808001370314AEFE7E32D0FD12E4B1B78C3B15C
:10481800FFF7A4FE284A002313702B4A01211170C8
:104828002A4A13702A4A138047E7522D03D1294A8E
:1048380013880A3BF7E7512D03D1264A13880A3318
:10484800F1E7012386E7244E0DF1040C06F1200858
:1048580030687168E646AEE8030008364645F44617
:10486800F6D13088B178AEF800008EF80210072132
:10487800B7FBF1F101EB4100C1EBC1017F1A0AA9B5
:1048880051FA87F704EB800417F8241C0C4474E7EA
:10489800002A83D02046FFF7E2F97FE701200DE7E1
:1048A800C6120020C51200203C0F0020380F00203F
:1048B800C6A40008360F0020C4120020B112002040
:1048C800B2120020C3120020C2120020B012002031
:1048D800AE120020340F0020A3A40008194B1B7847
:1048E800D90709D5184B187800EB800080087F2875
:1048F80024D828B3C0B270479A0705D5124B187848
:1049080000EB80004008F2E75B0704D50E4B1878EF
:1049180000EB8000EBE70D4B1B786BB10C4A0A49A2
:10492800127808789342F3D210FB03F000EB800072
:10493800B0FBF2F080B2DAE70520DBE77F207047B2
:1049480001207047CE120020420F0020CD12002017
:10495800410F0020144B1B78D90705D5134B187845
:104968008008F8B1C0B270479A0703D50F4B187882
:104978004008F6E75B0705D50C4B18787F28F0D977
:104988007F2070470A4B1B7853B10A4A07491278AF
:10499800087893423CBF10FB03F0B0FBF2F0EDE760
:1049A8000120DFE701207047CE1200203E0F0020D3
:1049B800CC1200203D0F002008B5A0F1ED03122B0A
:1049C80010D8DFE803F00A1013192E2E2E2E2E2EE3
:1049D8002E2E1C21252B363C4100FFF77FFF40423D
:1049E8001C4BD87008BDFFF779FFF9E7FFF776FF92
:1049F8004042184B9870F5E7FFF770FFF9E7FFF7AB
:104A0800A9FF144B1871EDE7FFF7A4FF4042F8E740
:104A1800FFF7A0FF40420F4B5871E3E7FFF79AFFFB
:104A2800F9E70C4AF1385178012383400B4353705E
:104A3800D8E7094A137843F001031370D2E7064A0E
:104A4800137843F00203F8E7034A137843F00403AA
:104A5800F3E700BFCF120020CE12002030B5414B43
:104A6800ED2893F9041093F9052093F9024093F97E
:104A7800035012D1002D01DA0022DA70D9789A7821
:104A88000A4351B20AB9384A11701A795B7913434B
:104A98005AB20BB9354B1A7030BDEE2802D1002D31
:104AA800EADCEBE7EF2804D1002CE7DA00229A7061
:104AB800E4E7F02802D1002CF8DCDFE7F92804D17C
:104AC8000029DBDD00221A71D8E7FA2802D1002973
:104AD800D4DAF7E7FB2804D1002ACFDA00225A718A
:104AE800CCE7FC2802D1002AF8DCC7E7F1380E2809
:104AF800C4D801A252F820F03D4B00083D4B0008F5
:104B08003D4B00083D4B00083D4B00083D4B00085D
:104B18003D4B00083D4B0008854A0008854A0008BF
:104B2800854A0008854A00084B4B0008574B000887
:104B3800614B00085A780121814022EA01025A702B
:104B48009CE70B490A7822F001020A7096E70849A7
:104B58000A7822F00202F8E705490A7822F00402EE
:104B6800F3E700BFCF120020CD120020CC120020A6
:104B7800CE1200202A4B1B7813F0080F10B5294CD1
:104B880039D02948FEF716FD61782848FEF712FD4E
:104B98002748FEF70FFD94F902102648FEF70AFD94
:104BA8002548FEF707FD94F903102248FEF702FD99
:104BB8002148FEF7FFFC94F904101E48FEF7FAFCA2
:104BC8001D48FEF7F7FC94F905101A48FEF7F2FCA9
:104BD8001A48FEF7EFFC1A4B1A481978FEF7EAFC58
:104BE8001948FEF7E7FC194B16481978FEF7E2FC5E
:104BF8001748FEF7DFFC01F011F8A378E2781343B9
:104C080018BF144B627918BF18802379134318BF53
:104C1800114BBDE8104018BF1880024800F062BE72
:104C28007C120020CF120020F4B3000814A800085A
:104C380017B4000819B4000869AC00081CB40008CF
:104C4800CD1200201FB4000822B40008CE120020A4
:104C580024B40008CA120020C81200202DE9F04729
:104C6800564C94F9028094F9037094F9046094F90D
:104C7800055094F800A094F801900023A370E37005
:104C88002371637158EA07030AD04D4B188800F066
:104C9800CAFF4C490B783BB34B4A127890422DDC43
:104CA80056EA05030BD0494B188800F0BCFF484969
:104CB8000B78002B4ED0474A1278904254DCE278A9
:104CC800A3781343227913436279134301D0FFF782
:104CD80051FF84F800A084F8019084F80280E770FE
:104CE80026716571BDE8F0873B4A127802EB8202B3
:104CF800B0EB420FD4DD01330B7001E0FF2BFAD18A
:104D0800B8F1000F08D0FFF7E9FDB8F1000FCCBFEC
:104D18000123FF234343A3703FB1FFF7DFFD002FBB
:104D2800CCBF0123FF234343E37094F90230002BE7
:104D3800B6D094F90320002AB2D0B5214B431B12F8
:104D480008BF0123A37001FB02F31B1208BF012354
:104D5800E370A5E7214A127802EB8202B0EB420F1A
:104D6800ADDD01330B7001E0FF2BFAD13EB1FFF747
:104D7800F1FD002ECCBF0123FF23434323713DB136
:104D8800FFF7E8FD002DCCBF0123FF2343436371E8
:104D980094F9043094F90520002B90D0002A8ED085
:104DA800B5214B431B1208BF0123237101FB02F3FA
:104DB8001B1208BF0123637181E700BFCF120020D7
:104DC800CA120020CD120020430F0020C812002074
:104DD800CC1200203F0F0020440F0020400F00207D
:104DE800054A002313609380044A1370044A137021
:104DF800044A1370704700BFCF120020CD12002064
:104E0800CC120020CE12002010B500F055FA094C43
:104E1800094800F009FA094800F006FA204600F0AF
:104E280003FA074800F000FA00F054FA054B1C603A
:104E380010BD00BF00F0030800E0030800E8030805
:104E480000F80308D812002038B520F00104A2B2F7
:104E580004F1006404F578344FF6FF7123888B421F
:104E680010D10A498D5AED43ADB29D420CD000F0E5
:104E780023FA2046294600F0F9F9044600F02AFAF8
:104E8800204638BD0024FBE70524F9E7DC120020A2
:104E9800F8B5FFF7B9FF00F00FFA0B4E0B4C0C4FAB
:104EA800052536F8021B39B1C94389B2204600F0FE
:104EB800DDF9052818BF05460234BC42F1D100F0DF
:104EC80009FA2846F8BD00BFDC12002000E00308FC
:104ED80000F00308214B2DE9F0411F5ADFF88480C8
:104EE800012F98BF1E4DD8F8002094BF0223042339
:104EF800C3F1006394BF45EA4735803803F5802342
:104F080092BFADB280B24FF460459A4203D9BDE872
:104F1800F041FFF7BDBF45EA500400F0CDF9D8F8DD
:104F280000002146831CC8F8003000F09FF9B5F551
:104F3800604F06460BD1D8F80000F943831C89B2AC
:104F4800C8F8003000F092F90528044600D134462C
:104F580000F0C0F92046BDE8F08100BFDC12002057
:104F68000080FFFFD812002038B50D4D0D4B2A6880
:104F78009A42044603D9BDE83840FFF789BF00F0DC
:104F88009BF9094B2868195D41EA0421831C89B201
:104F98002B6000F06BF9044600F09CF9204638BD00
:104FA800D8120020FFFF0308DC1200201F4B204A04
:104FB8002048F0B51D4632F8021BC943824223F847
:104FC800021BF8D11C4C4FF6FF7743F6FE76138888
:104FD800BB4207D018040AD4190A6B541046821C25
:104FE800A242F4D9154B4FF480501A60F0BD03F477
:104FF800C041B1F5C04F0FD1901CA04214D85188C0
:10500800C94389B20029EAD006EA43038033B3F5DD
:10501800805F38BFE952E2E75904DFD4C3F3403177
:10502800104606EA4303F2E70246DBE7DC120020FB
:1050380000E0030800F00308FFFF0308D81200206F
:1050480008B5FFF7E1FEBDE80840FFF7AFBF000075
:10505800B0F5805F10B5044614D20C4B1A5C8A4236
:1050680012D01954FFF7F0FE68B97F2C04D82046F7
:10507800BDE81040FFF778BF24F00100BDE81040FC
:10508800FFF728BF072010BD0020FCE7DC12002036
:10509800B0F5805F2DE9F04105460E463BD210F091
:1050A80001040ED0C9B2FFF7D3FF0446681C310AC9
:1050B80080B2FFF7CDFF052818BF04462046BDE89B
:1050C800F081164B33F800804145F7D01952FFF7AD
:1050D800BBFE04460028F1D17F2D17D85FFA88F36C
:1050E800F2B2934210D02846FFF73EFF0746360A31
:1050F800B6EB182F06D0681C80B2FFF735FF0528DD
:105108000446DBD13C46D9E70527F0E72846BDE849
:10511800F041FFF7DFBE0724D0E700BFDC12002014
:10512800B0F5805F3ABF024B185CFF20704700BFA4
:10513800DC12002040F6FE7398420AD8064BC207DC
:1051480041BF5A1C125C185C40EA022058BF185A2A
:1051580070474FF6FF707047DC12002080B2FFF7EF
:10516800DFBF80B2FFF774BF80B2FFF7E3BF80B242
:10517800FFF78EBF38B5C3070D4684B210D5C9B244
:105188002046FFF765FF601CC5F30F2180B2FFF7CB
:105198007FFFE01C290E80B2BDE83840FFF758BFFA
:1051A80089B22046FFF774FFA01C290C80B2BDE825
:1051B8003840FFF76DBFFFF7DDBF00000B4BDA6823
:1051C800D0070CD4DA6851070BD4DA68D2060AD4AF
:1051D800D86800F00100C0F10500C0B27047012096
:1051E8007047022070470320704700BF002002402C
:1051F80073B50446FFF7E2FF0025FF2601280FD10B
:1052080014B9062002B070BD01950196019B1BB927
:10521800FFF7D4FF013CF1E7019B013B0193F5E760
:10522800002C08BF0620EDE738B5054640F6FF70AC
:10523800FFF7DEFF052815D10B4C236943F0020365
:1052480023616561236943F04003236140F6FF70E1
:10525800FFF7CEFF06281EBF236923F00203236150
:105268003423E36038BD00BF00200240104B00F13A
:1052780078429A4270B505460E4616D81F20FFF7A9
:10528800B7FF052810D10B4C236943F001032361B4
:105298001F202E80FFF7ACFF06281EBF236923F0CE
:1052A800010323613423E36070BD0720FCE700BFDE
:1052B800FEFF070000200240044B1A69120641BF96
:1052C800034A5A6002F188325A607047002002404F
:1052D80023016745024A136943F08003136170474D
:1052E8000020024008B5FBF767FE08BD10B50C4C5E
:1052F80020224FF48051204603F0B4F820224FF4C6
:105308000051204603F0AEF8226923691B0BC2F353
:10531800003203F002031343024A137010BD00BFAA
:1053280000040048DE2200201E4B1A691B6910B5D4
:105338001B0BC2F3003203F0020313431A4A1B4C3F
:10534800117843EA8103DBB21370194A03F00F03A3
:10535800D35C227813445BB2032B237020DD154AFB
:1053680013780021013308461370FFF7BBFF0120B3
:1053780094F90030033308DA0E4A13780121013B0F
:1053880000201370FFF7AEFF012094F900305A4255
:1053980002F0030203F0030358BF5342237010BD09
:1053A8000020E5E700040048DE220020DD2200207E
:1053B80027B40008DC22002008B5FBF725FE08BD4D
:1053C8000120704708B5FFF7FBFF08BD2DE9F84F2E
:1053D800184E194FDFF864B000248246254622464D
:1053E800B146B8465BF8043B23F00F0103F00F0306
:1053F8000969D940C94301F00103194606F8013B80
:10540800A3401D4317F8013B994202D1BAF1000F9E
:1054180003D0E0B2FFF7D0FF01220134042CE1D120
:1054280032B12846FFF7CEFFD9F80030C8F800306F
:10543800BDE8F88FE3220020DF22002038B40008FE
:1054480070B50B4D0024012655F8040B013400F00B
:105458000F01202206FA01F120F00F00E4B203F058
:1054680001F8042CF0D1BDE870400120FFF7AEBF71
:1054780038B40008F8B5144682789DF818701D46AF
:105488002C4B92B11C7000F0C9FB2B4B188004F117
:105498002003DBB2072B41D804F007040120A04009
:1054A800C0B2BDE8F840FCF74FB91E78A64236D125
:1054B800214B188800F0B7FBC72830D805F1200425
:1054C800AE42E4B225D006F12003DBB2072B06D8A2
:1054D80006F007060120B040C0B2FCF73EF9072CE1
:1054E80004D93846BDE8F840FCF728B905F00703A9
:1054F80001209840C0B2FCF727F93846FCF71EF99E
:1055080005F007050120A840BDE8F840C0B2FCF747
:1055180024B93846FCF712F9072CF1D9F8BD04F183
:105528002003DBB2072BF9D804F007040120A040C0
:10553800EAE700BFEA220020E822002013B545F67A
:10554800F74304469C4208460FD845F6F3439C426D
:1055580012D845F6D9439C4221D045F6DA439C42FD
:105568003DD045F6D8439C420FD0837813B11E4BEB
:1055780000221A70012010E0A4F5B944753C022CF1
:1055880011D8DFE804F0171E250026230093E12335
:105598001A462146FFF76EFF002002B010BD2723F0
:1055A8000093E523F4E726230093E022E12345F660
:1055B800F441EFE727230093E422E52345F6F5417C
:1055C800E8E726230093E222E12345F6F641E1E7E6
:1055D80027230093E622E52345F6F741DAE7282357
:1055E8000093E5220123D4E7EA22002038B50446D7
:1055F8008878002800F0F38045F603539C422FD8A2
:1056080045F6FA439C4212D9FCF7ECFFA4F5B944DD
:10561800744B7C3C1880072C4AD8DFE814F04E0005
:105628008A008E007000AC00C300DA00DE00A4F52A
:10563800B845AB1E9BB2132B28D8FCF7D3FF694C97
:10564800033D2080122D22D8DFE805F0262A2E3BC4
:105658003F43474D63676B6F7B7F83878DB99D00A1
:1056680045F662539C4211D1FCF7BCFF5D4AC0F37A
:10567800001383F00103108063F304101070594B7A
:105688001888FCF7BBFFFCF782FA002038BD2378A6
:1056980043F001032370F2E7237843F00203F9E7AC
:1056A800237843F00403F5E7237843F00803F1E790
:1056B8005A7842F001025A70E1E75A7842F0020241
:1056C800F9E7237843F01003E4E7237843F0200355
:1056D800E0E7237843F04003DCE7FCF758FA237847
:1056E80043F08003D6E7237823F00C0343F00C0340
:1056F80023703D4800220421FEF72EFBBFE75A78AD
:1057080022F0030242F003025A70384800220421B2
:10571800F2E723786FF30003BCE723786FF34103C4
:10572800B8E723786FF38203B4E723786FF3C303F2
:10573800B0E75A786FF30002BDE75A786FF3410279
:10574800B9E723786FF30413A4E723786FF34513BD
:10575800A0E723786FF386139CE7FCF718FA237801
:105768006FF3C71396E7237823F00C032370002206
:105778001F480221C0E75A7822F003025A7000221B
:105788001C480221B8E72278C2F3800383F00103A2
:10579800DBB263F3820263F3C302227012F00802E1
:1057A800E6D0A6E75A78D14301F0010161F300027F
:1057B80061F341025A7012F00202E1D0A5E7FCF74A
:1057C800E6F92378C3F3C01282F0010262F3C7132B
:1057D80060E70120FCF782FF51E70020FAE701208B
:1057E80054E700BF30250020780F0020480F002024
:1057F800980F0020680F002045F61643984210B510
:105808000C461BD1FCF7F0FDA2780D4B72B100F0ED
:10581800AA00002813BF01220022292035201A706F
:10582800FCF780FDFCF752FE002010BD1B78002B12
:105838000CBF29203520FCF77DFDF3E70120F4E7B4
:10584800EB220020014B1860704700BFF0220020B7
:10585800024B186808B1036818477047F022002007
:10586800F8B5194B1B680446002B2CD0174A127840
:1058780042B1174A92F90020002ABFBF027842704D
:1058880005220270134D5B68204698472B7858070D
:1058980019D5D90702D51048FDF78CFE0F4F04F132
:1058A80008062B78DA0703D521783846FDF782FEFB
:1058B8000134A642F5D12B78DB0704D5BDE8F840C2
:1058C8000748FDF777BEF8BDF0220020FC10002045
:1058D800302500207C12002048B400085AB4000883
:1058E80025B40008034A12681AB1022101709368AE
:1058F80018477047F0220020054A1188814205D0D8
:10590800044B10801B680BB1DB681847704700BF59
:10591800EE220020F0220020054A1188814205D09D
:10592800044B10801B680BB11B691847704700BFF8
:10593800EC220020F02200200B4B1B78821C8BB13C
:105948000A4B93F90030002BACBF05231D23002020
:1059580012F8011B09B10130C0B2013BDBB2FF2BC9
:10596800F6D170470523F2E7FC100020302500200F
:10597800F1B1114B1B789BB1104B93F90030002B00
:105988000EDAEF294FEAD10212D8104401F00701CC
:10599800827801238B40134214BF012000207047F6
:1059A800431C073013F8012F8A4203D08342F9D1F0
:1059B8000020704701207047FC100020302500208F
:1059C80030B50022441C4FF0FF3314F8015F8D42BC
:1059D8000BD0B3F1FF3F01D105B953B20132062A0A
:1059E800F3D15A1C01D01844817030BD10B5431C46
:1059F8000022073013F8014F8C4208BF1A70834207
:105A0800F8D110BDEF294FEAD10209D8104401F0AE
:105A18000703012202FA03F3827813438370704765
:105A2800034B1B78DB0702D50248FDF7C3BD70475F
:105A38007C12002060B40008EF294FEAD10209D88F
:105A4800104401F0070301229A40837823EA0203F5
:105A580083707047034B1B78DB0702D50248FDF7BC
:105A6800A9BD70477C1200207EB4000810B40A4C0F
:105A7800247803460A4644B1084C94F90040002CA7
:105A880003DA5DF8044BFFF7BDBF5DF8044B114620
:105A98001846FFF795BF00BFFC10002030250020F6
:105AA80010B40A4C247803460A4644B1084C94F9C9
:105AB8000040002C03DA5DF8044BFFF7BDBF5DF82A
:105AC800044B11461846FFF791BF00BFFC10002099
