:020000040800F2
:1000000000040020C9020008CB020008CB0200084F
:10001000CB020008CB020008CB020008CB0200088C
:10002000CB020008CB020008CB020008D56D000807
:10003000CB020008CB020008CB020008CB0200086C
:10004000CB020008CB020008CB020008CB0200085C
:10005000CB020008CB020008257A0008657A000868
:10006000A97A0008ED7A0008317B0008E9820008CF
:10007000FD820008118300082583000839830008E9
:100080004D83000861830008CB020008CB02000802
:10009000CB020008CB020008CB020008757B0008E9
:1000A000797D00088D7D0008917D0008957D000810
:1000B000298A0008958700083D8A000839850008CC
:1000C0003D860008CB020008CB020008CB020008E6
:1000D000CB020008CB020008CB020008CB020008CC
:1000E0005D7C0008CB020008CB020008CB020008B0
:1000F00089890008CB020008CB020008CB02000867
:10010000CB020008CB020008CB020008CB0200089B
:10011000CB020008CB02000861890008758900083D
:1001200075830008898300089D830008B183000857
:10013000C5830008CB020008CB020008CB020008F0
:10014000CB020008CB020008CB020008CB0200085B
:10015000CB020008CB020008CB020008CB0200084B
:10016000CB020008CB020008CB020008898A0008F5
:10017000CB020008CB020008CB020008CB0200082B
:10018000CB020008CB020008CB020008CB0200081B
:10019000CB020008CB020008CB020008CB0200080B
:0801A000D50C0008B10C0008A9
:1001A80072B6394880F30888384880F30988384897
:1001B8004EF60851CEF20001086040F20000CCF281
:1001C80000004EF63471CEF200010860BFF34F8F85
:1001D800BFF36F8F40F20000C0F2F0004EF6885176
:1001E800CEF200010860BFF34F8FBFF36F8F4FF05F
:1001F8000000E1EE100A4EF63C71CEF200010860F4
:10020800062080F31488BFF36F8F06F05FFA06F0BC
:100218000BF84FF055301F491B4A91423CBF41F83B
:10022800040BFAE71C49194A91423CBF41F8040BF8
:10023800FAE71A491A4A1B4B9A423EBF51F8040B77
:1002480042F8040BF8E700201749184A91423CBFCE
:1002580041F8040BFAE706F03DFA06F038FA144CB8
:10026800144DAC4203DA54F8041B8847F9E702F04E
:100278005FFE114C114DAC4203DA54F8041B884759
:10028800F9E706F025BA000000040020000C002061
:10029800000000080000002000040020C0B9000889
:1002A800000C002080110020801100206C2A002002
:1002B800A0010008A4010008A4010008A801000882
:1002C8006EE700F000F8FEE72DE9F04F2DED108AFB
:1002D800C1F80CD0C3689D46BDEC108ABDE8F08F0C
:1002E800002383F311882846A047002006F09CFCD1
:1002F800FEE706F030FC00DFFEE7000081F0004179
:1003080002E000BF83F0004330B54FEA41044FEAF2
:10031800430594EA050F08BF90EA020F1FBF54EA8D
:10032800000C55EA020C7FEA645C7FEA655C00F029
:10033800E2804FEA5454D4EB5555B8BF6D420CDDFA
:100348002C4480EA020281EA030382EA000083EA7D
:10035800010180EA020281EA0303362D88BF30BD1D
:1003680011F0004F4FEA01314FF4801C4CEA113173
:1003780002D0404261EB410113F0004F4FEA0333D2
:100388004CEA133302D0524263EB430394EA050F5D
:1003980000F0A780A4F10104D5F1200E0DDB02FACC
:1003A8000EFC22FA05F2801841F1000103FA0EF260
:1003B800801843FA05F359410EE0A5F120050EF126
:1003C800200E012A03FA0EFC28BF4CF0020C43FA57
:1003D80005F3C01851EBE37101F0004507D54FF064
:1003E800000EDCF1000C7EEB00006EEB0101B1F5B4
:1003F800801F1BD3B1F5001F0CD349085FEA3000FA
:100408004FEA3C0C04F101044FEA445212F5800F04
:1004180080F09A80BCF1004F08BF5FEA500C50F1A1
:10042800000041EB045141EA050130BD5FEA4C0C84
:10043800404141EB0101013C28BFB1F5801FE9D2E1
:1004480091F0000F04BF01460020B1FA81F308BF04
:100458002033A3F10B03B3F120020CDA0C3208DDD0
:1004680002F1140CC2F10C0201FA0CF021FA02F1AB
:100478000CE002F11402D8BFC2F1200C01FA02F11B
:1004880020FA0CFCDCBF41EA0C019040E41AA2BF40
:1004980001EB0451294330BD6FEA04041F3C1CDA08
:1004A8000C340EDC04F11404C4F1200220FA04F028
:1004B80001FA02F340EA030021FA04F345EA0301D2
:1004C80030BDC4F10C04C4F1200220FA02F001FA94
:1004D80004F340EA0300294630BD21FA04F0294616
:1004E80030BD94F0000F83F4801306BF81F48011AF
:1004F8000134013D4EE77FEA645C18BF7FEA655C22
:1005080029D094EA050F08BF90EA020F05D054EAF3
:10051800000C04BF1946104630BD91EA030F1EBFF8
:100528000021002030BD5FEA545C05D140004941FC
:1005380028BF41F0004130BD14F580043CBF01F5EF
:10054800801130BD01F0004545F0FE4141F47001D5
:100558004FF0000030BD7FEA645C1ABF19461046B0
:100568007FEA655C1CBF0B46024650EA013406BFB1
:1005780052EA033591EA030F41F4002130BD00BF70
:1005880090F0000F04BF0021704730B54FF480642D
:1005980004F132044FF000054FF0000150E700BFAE
:1005A80090F0000F04BF0021704730B54FF480640D
:1005B80004F1320410F0004548BF40424FF00001FA
:1005C8003EE700BF42004FEAE2014FEA31014FEA3D
:1005D80002701FBF12F07F4393F07F4F81F060518C
:1005E800704732F07F4208BF704793F07F4F04BFD7
:1005F80041F40021704730B54FF4607401F00045B4
:1006080021F000411CE700BF50EA010208BF704713
:1006180030B54FF000050AE050EA010208BF704704
:1006280030B511F0004502D5404261EB41014FF46D
:10063800806404F132045FEA915C3FF4D8AE4FF075
:1006480003025FEADC0C18BF03325FEADC0C18BF58
:10065800033202EBDC02C2F1200300FA03FC20FAA9
:1006680002F001FA03FE40EA0E0021FA02F11444F6
:10067800BDE600BF70B54FF0FF0C4CF4E06C1CEA0F
:1006880011541DBF1CEA135594EA0C0F95EA0C0F80
:1006980000F0DEF82C4481EA030621EA4C5123EAF3
:1006A8004C5350EA013518BF52EA033541F4801122
:1006B80043F4801338D0A0FB02CE4FF00005E1FBD5
:1006C80002E506F00042E0FB03E54FF00006E1FB1F
:1006D80003569CF0000F18BF4EF0010EA4F1FF0462
:1006E800B6F5007F64F5407404D25FEA4E0E6D41A2
:1006F80046EB060642EAC62141EA55514FEAC520B3
:1007080040EA5E504FEACE2EB4F1FD0C88BFBCF52E
:10071800E06F1ED8BEF1004F08BF5FEA500E50F1DF
:10072800000041EB045170BD06F0004646EA0101A5
:1007380040EA020081EA0301B4EB5C04C2BFD4EBD7
:100748000C0541EA045170BD41F480114FF0000ED0
:10075800013C00F3AB8014F1360FDEBF002001F03E
:10076800004170BDC4F10004203C35DA0C341BDCB8
:1007780004F11404C4F1200500FA05F320FA04F08A
:1007880001FA05F240EA020001F0004221F00041BE
:1007980010EBD37021FA04F642EB06015EEA430E31
:1007A80008BF20EAD37070BDC4F10C04C4F1200561
:1007B80000FA04F320FA05F001FA04F240EA020014
:1007C80001F0004110EBD37041F100015EEA430EE5
:1007D80008BF20EAD37070BDC4F1200500FA05F205
:1007E8004EEA020E20FA04F301FA05F243EA020384
:1007F80021FA04F001F0004121FA04F220EA020093
:1008080000EBD3705EEA430E08BF20EAD37070BDD8
:1008180094F0000F0FD101F00046400041EB0101B8
:1008280011F4801F08BF013CF7D041EA060195F09A
:10083800000F18BF704703F00046520043EB030354
:1008480013F4801F08BF013DF7D043EA0603704741
:1008580094EA0C0F0CEA135518BF95EA0C0F0CD04C
:1008680050EA410618BF52EA4306D1D181EA030192
:1008780001F000414FF0000070BD50EA410606BF8C
:100888001046194652EA430619D094EA0C0F02D1D1
:1008980050EA013613D195EA0C0F05D152EA033616
:1008A8001CBF104619460AD181EA030101F0004134
:1008B80041F0FE4141F470014FF0000070BD41F07D
:1008C800FE4141F4780170BD70B54FF0FF0C4CF457
:1008D800E06C1CEA11541DBF1CEA135594EA0C0F76
:1008E80095EA0C0F00F0A7F8A4EB050481EA030EC3
:1008F80052EA03354FEA013100F088804FEA0333AA
:100908004FF0805545EA131343EA12634FEA022277
:1009180045EA111545EA10654FEA00260EF0004138
:100928009D4208BF964244F1FD0404F5407402D28A
:100938005B084FEA3202B61A65EB03055B084FEA1B
:1009480032024FF480104FF4002CB6EB020E75EB18
:10095800030E22BFB61A754640EA0C005B084FEA40
:100968003202B6EB020E75EB030E22BFB61A7546BD
:1009780040EA5C005B084FEA3202B6EB020E75EB08
:10098800030E22BFB61A754640EA9C005B084FEA80
:100998003202B6EB020E75EB030E22BFB61A75468D
:1009A80040EADC0055EA060E18D04FEA051545EA7C
:1009B80016754FEA06164FEAC30343EA52734FEA25
:1009C800C2025FEA1C1CC0D111F4801F0BD141EA9E
:1009D80000014FF000004FF0004CB6E711F4801F03
:1009E80004BF01430020B4F1FD0C88BFBCF5E06FE3
:1009F8003FF6AFAEB5EB030C04BFB6EB020C5FEAF3
:100A0800500C50F1000041EB045170BD0EF0004E47
:100A18004EEA113114EB5C04C2BFD4EB0C0541EA79
:100A2800045170BD41F480114FF0000E013C90E676
:100A380045EA060E8DE60CEA135594EA0C0F08BF3A
:100A480095EA0C0F3FF43BAF94EA0C0F0AD150EA39
:100A580001347FF434AF95EA0C0F7FF425AF1046CC
:100A680019462CE795EA0C0F06D152EA03353FF4F4
:100A7800FDAE1046194622E750EA410618BF52EA71
:100A880043067FF4C5AE50EA41047FF40DAF52EA45
:100A980043057FF4EBAE12E74FF0FF3C06E000BFE2
:100AA8004FF0010C02E000BF4FF0010C4DF804CDEF
:100AB8004FEA410C7FEA6C5C4FEA430C18BF7FEAAF
:100AC8006C5C1BD001B050EA410C0CBF52EA430CDD
:100AD80091EA030F02BF90EA020F0020704710F15D
:100AE800000F91EA030F58BF994208BF90422CBFEC
:100AF800D8176FEAE37040F0010070474FEA410CE5
:100B08007FEA6C5C02D150EA013C07D14FEA430C02
:100B18007FEA6C5CD6D152EA033CD3D05DF8040B73
:100B2800704700BF8446104662468C4619466346A5
:100B380000E000BF01B5FFF7B7FF002848BF10F17C
:100B4800000F01BD4DF808EDFFF7F4FF0CBF0120C1
:100B580000205DF808FB00BF4DF808EDFFF7EAFF3D
:100B680034BF012000205DF808FB00BF4DF808EDF8
:100B7800FFF7E0FF94BF012000205DF808FB00BFED
:100B88004DF808EDFFF7CEFF94BF012000205DF877
:100B980008FB00BF4DF808EDFFF7C4FF34BF012084
:100BA80000205DF808FB00BF4FEA410C7FEA6C5C4F
:100BB80002D150EA013C0AD14FEA430C7FEA6C5C4F
:100BC80002D152EA033C02D14FF0000070474FF0C7
:100BD800010070474FEA4102B2F1E04324BFB3F588
:100BE800001CDCF1FE5C0DD901F0004C4FEAC0029C
:100BF8004CEA5070B2F1004F40EB830008BF20F080
:100C08000100704711F0804F21D113F13872BCBF39
:100C180001F00040704741F480114FEA5252C2F18E
:100C28001802C2F1200C10FA0CF320FA02F018BFD7
:100C380040F001004FEAC1234FEAD32303FA0CFC2A
:100C480040EA0C0023FA02F34FEA4303CCE77FEAB9
:100C5800625307D150EA01331EBF4FF0FE4040F403
:100C68004000704701F0004040F0FE4040F40000B2
:100C7800704700BF53B94AB9002908BF00281CBFF4
:100C88004FF0FF314FF0FF3000F00CB8ADF1080C19
:100C98006DE904CE09F0F2F9DDF804E0DDE902239C
:100CA80004B07047704700BF10B5054C237833B9BE
:100CB800044B13B10448AFF300800123237010BD27
:100CC8008011002000000000C0B9000808B5034BDF
:100CD8001BB103490348AFF3008008BD00000000C2
:100CE80084110020C0B90008082823D8DFE800F0E4
:100CF8002C05070A0F14191E200001207047134BFA
:100D080018787047124B187800F001007047104BA4
:100D18001878C0F3400070470D4B1878C0F3800076
:100D280070470B4B1878C0F3C0007047094BEAE7CF
:100D3800084BEDE7084A093812680123834013423B
:100D480014BF012000207047002070479C1100202C
:100D5800A41100209D110020A01100202DE9F041D0
:100D68002A4C2178002933D1294D2878FFF7BCFF78
:100D780080466878FFF7B8FF0746A878FFF7B4FF02
:100D88000646E878234DFFF7AFFF234B434403EBB8
:100D9800470303EB860313F830002B782BB91F4E5B
:100DA8003278013202F00302327001330322B3FBBE
:100DB800F2F202EB42029B1A194A2B7013780133A4
:100DC80003F00F031370174B1A6800EB420018600A
:100DD800013101F001012170134C2078FFF784FFE5
:100DE80001466078FFF780FF0546A078FFF77CFF93
:100DF800830003EB45000144E078FFF775FFC9B2B3
:100E080001EBC000C0B2BDE8F08100BF9C1100201A
:100E1800040C00209E110020080C00209D110020C9
:100E2800A4110020A0110020000C002001F046BFF2
:100E380003230222012100F0BFB90000A0F5BA4047
:100E4800633838B5052875D8DFE800F0030A2D5750
:100E580011238C78DCB1002000F098F9002416E00A
:100E68008C78E520002C42D000F044FBF6E78C7823
:100E7800002C5FD0304D2B781BB904F081FE2F4B2E
:100E880018802F4A01232B701378013313702046E2
:100E980038BD8C78002CFAD0E22000F02BFB2948D2
:100EA80000F0D3FADAE78C78274D5CB1012000F026
:100EB800DDFE03220221012000F08CF904F060FE1F
:100EC8002880CBE7288804F060FE63284FF00100F3
:100ED80010D81E4A137883F00103137053B100F041
:100EE800C5FE01200322022100F074F9E22000F07F
:100EF80085FBCCE700F0C4FEF3E78C78144D0CB109
:100F08000220D4E7288804F040FE63284FF002004E
:100F18000DD8104A137883F0010313703BB100F029
:100F2800A5FE03220221012000F054F9AFE700F0EA
:100F3800A7FEF6E70124AAE7A5110020AC110020BE
:100F4800AA1100200AA40008A8110020A711002057
:100F5800B4110020B2110020104B1B7810B50C46BC
:100F6800A3B1022000F06EFE40B10D4A13781CB107
:100F780001331370012010BD013BFAE7094A1388B9
:100F880014B101331380F5E7013BFBE719B1FA20EF
:100F980000F0A2FBEEE7F920FAE700BFB01100204D
:100FA800180C00201A0C002010B5024618B10128B0
:100FB80019D0012010BD0F4C237851B11BB10E4838
:100FC800062102F099FE032000F050FE0123237051
:100FD800EFE723B10A460948062102F08DFE0320F7
:100FE80000F04EFEF2E70029054B0CBF08461046FC
:100FF8001870DEE7B11100204C0C00201C0C0020FA
:10100800B011002070B52F4C23788AB0ABB12E4BAD
:10101800188804F0BAFD40F2EE2398420DD92B4D02
:101028002B78012B03D0022B43D0294800E0294814
:1010380000F00BFA00232B702370274A274D1478F1
:101048002B88002C37D04BBB254B01AA03F1200677
:1010580018685968144603C40833B3422246F7D1C6
:1010680019889B78A3702180FFF778FE00F1280388
:101078000DEB03001B4B10F8244C1B781A4E1C4434
:101088003078E4B2A04209D002F052FD02F0D4FE5A
:10109800204602F04DFD02F0AFFF3470134A2B8852
:1010A80012880133B3FBF2F102FB11332B800AB033
:1010B80070BD0F48BCE7002BF9D002F0B3FD2C80BF
:1010C800F5E700BFA5110020AC110020AA110020EF
:1010D80016A400080EA40008B0110020AE110020CC
:1010E80094A30008180C0020A61100201A0C002058
:1010F80012A40008A0F5A2400138012894BF0020DE
:10110800012070470120704708B5FFF797FE08BD1A
:10111800704708B5FFF7FCFF08BD000013B502AB28
:1011280003E903000F4B1B78B3B99DF8023073B184
:101138006AB100F019FE04460146009800F0D0FD9F
:101148000099204602B0BDE8104001F0A5BB009808
:1011580000F0EAFD0446F3E7009800F005FE009968
:10116800F0E700BFB611002003460A4600689988D8
:10117800FFF7D4BF0120704710B500210446FFF7E0
:10118800F3FF2146FFF7C5FF10BD000038B505463F
:101198000848012400EBC510AC400022102102F0E1
:1011A800ABFDE0B201F004FA2046BDE8384000F09B
:1011B8001ABD00BF7C0C002010B5012404FA01F10F
:1011C80004FA02F2114304FA03F381430CBF1843F3
:1011D800984310BD08B513460A46014603480068FF
:1011E800FFF7EAFFBDE8084000F01CBDBC11002075
:1011F80008B501F043FD00F048F902F0EFFDBDE845
:101208000840FFF713BE08B503F0B0F9002004F05A
:1012180085F8BDE8084001F052BD704710B500F0F0
:101228008EFC03F063F904F0ABFC002204460321B2
:10123800094802F061FDFFF7F0FF204604F0A5FC25
:10124800F92805D902F0EEFCBDE8104004F0AABC6C
:101258000A2005F0EEFCF0E7FC0C002038B501216F
:101268000546FFF781FF29460446FFF74DFF08B9F9
:10127800002038BD2946204602F080FC0028F7D01F
:101288002946204603F0D4F90028F1D02946204603
:1012980004F0F4F80028EBD02946204604F048F979
:1012A8000028E5D02946204604F052FA0028DFD06D
:1012B800AB787BB145F65B539C4232D00ED845F6ED
:1012C80001439C4218D045F6DF439C4226D0B4F532
:1012D800B84F0ED02846FFF715FFCAE745F65C530E
:1012E8009C4221D045F65D539C42F3D101F054F85D
:1012F800F0E7FFF793FFBBE70D4A1078C0F3000350
:1013080083F0010363F3000010F00104107003D0B0
:10131800084802F01FF9ABE70748FAE701F0C6F9F9
:10132800A6E701F045F8D5E701F045F8D2E700BF98
:10133800651200209AA50008ABA50008F8B5174B60
:1013480017491F5C174BC20800F007008D5C16494F
:101358009B5C8E5C03410541064113F0010405F0D6
:10136800010506F0010602D0E12000F0C3F815B12E
:10137800E62000F0BFF8384600F0AEF915B1E620D7
:1013880000F03CF914B1E12000F038F926B1BDE8CD
:10139800F8402C2000F0A0B9F8BD00BFDDA500087A
:1013A800BDA500085DA60008CDA500082DE9F041FF
:1013B800234F04460E464FF00A08207800283DD0F7
:1013C800012838D16378012B0ED1A078A51C00F034
:1013D80083F92C4601343546002DEED00A20013D14
:1013E80005F027FCEDB2F7E7022B04D1A078A51C85
:1013F80000F080F8EDE7032B04D1A078A51C00F0DD
:10140800FDF8E6E7042B01D00134E3E72246002586
:1014180012F8023FF95C4907144606D4002DD9D0CA
:101428000A2005F006FC013DF8E7303B08FB0535CE
:1014380012F8013FEEE7FFF781FFCBE7BDE8F08147
:1014480055B800080021FFF7B1BFFFF7FBBF030144
:10145800DBB243EA10108300801000F0330003F081
:10146800CC03034358005B1003F0550300F0AA00B7
:1014780018437047704708B5FFF7FCFF08BD012007
:10148800704708B5FFF7FBFF08BD704710B5044665
:10149800FFF7F1FF2046FFF7F4FF10BD30B587B026
:1014A8006C4684E803009DF80230BDF804500BB187
:1014B80000F0B0FF0023ADF8163094E8030004AC48
:1014C8000490ADF8141094E8030002904DB1BDF8F3
:1014D80008204FF6FF739A4203D02046FFF74AFED2
:1014E80018B194E8030000F09FFE07B030BD0088F3
:1014F80000F05ABC10B5044600287AD0822813D1CF
:1015080004F052F9810774D4392000F0F5FE00F098
:10151800C7FF4FF47A7005F08CFB392000F0F4FE19
:10152800BDE8104000F0BCBF83280ED104F03CF9A0
:10153800C2075ED4532000F0DFFE00F0B1FF4FF485
:101548007A7005F076FB5320E8E784280ED104F082
:101558002BF943074DD4472000F0CEFE00F0A0FF42
:101568004FF47A7005F065FB4720D7E7031FDBB21D
:10157800A02B12D802F084FA00283AD11D4B21463C
:10158800186804F0A3F920B1204600F0BDFE00F071
:1015980087FF204600F0B0FEC2E700F12003DBB26F
:1015A800072B07D800F007040120A040C0B200F0C4
:1015B8000BFFB5E700F15B03DBB2022B05D824383B
:1015C800BDE8104080B204F043B900F15803DBB223
:1015D800162B06D8084ABDE8104032F8130004F06C
:1015E80047B9EC2805D903F09BF9BDE8104003F092
:1015F80075BA10BD140D00206EA6000808B50028A5
:1016080058D082280FD104F0CFF8810752D539205D
:1016180000F072FE00F044FF392000F075FEBDE8CE
:10162800084000F03DBF83280AD104F0BDF8C20786
:1016380040D5532000F060FE00F032FF5320ECE765
:1016480084280AD104F0B0F8430733D5472000F0C6
:1016580053FE00F025FF4720DFE7021FD2B2A02A81
:10166800DBD900F12002D2B2072A07D800F007031D
:1016780001209840C0B200F0AFFED0E700F15B0255
:10168800D2B2022A04D8BDE80840002004F0E0B82D
:1016980000F15802D2B2162A04D8BDE8084000204A
:1016A80004F0E6B8EC2805D903F08CF9BDE8084049
:1016B80003F014BA08BD38B505460C46FFF71AFF03
:1016C80024B92846BDE83840FFF798BF0A20013CF6
:1016D80005F0AFFAA4B2F3E739280CBF5021002176
:1016E800FFF7E9BF08B528B100F06EFEBDE8084075
:1016F80000F0D6BE08BD08B528B100F06DFEBDE803
:10170800084000F0CDBE08BD2DE9F34786798578FD
:1017180080460C4600F016FE36090746A0B12F4653
:1017280095B1C4F3072303F0F003402B04D004F170
:101738002003DBB2072B1ED9022000F001FF00F0C6
:1017480001FE80F00100C7B2C4F30339B9F10F0FED
:101758003FD8DFE819F01200120063006300AF0001
:10176800C6003E003E00D0002C013C013C01910126
:101778003E003E009A010027E6E7C4F30723C4F3BE
:10178800032613F0F00F18BF3601E4B295B156B135
:1017980004F12003DBB2072B304600D93CB900F036
:1017A80013FE00F07DFE2046FFF7A4FE11E000F0D6
:1017B80021FEF6E72046FFF721FF56B104F120038A
:1017C800DBB2072B304600D92CBB00F005FE00F039
:1017D80067FEA9F10809B9F1030F03D803F0E4FF84
:1017E800FFF754FE002F00F0578100F0A3FD10F022
:1017F800010040F0518188F8020000F093FD00F0EC
:1018080035FA404600F05EF900F08CFD02B0BDE804
:10181800F04700F035BA00F0F5FDD8E7C4F3072328
:1018280003F0F003C4F3032A202BE4B218BF4FEAF5
:101838000A1A64B1012C28D07DB34EB398F806304B
:10184800D807B0D56FF3071388F8063020E095B1B4
:101858003EB900F0FBFD40EA0A00C0B2FFF742FFC4
:10186800B7E7012EF5D100F0F1FD40EA0A00C0B259
:1018780000F0F8FDADE72EB900F006FE5046FFF780
:101888003AFFA6E7012EA4D0F6E71DB1052EA0D891
:101898005046E3E7042E9CD8F0E7002EEED0392C12
:1018A8000CBF4FF44870012005F0C3F92046FFF73C
:1018B800A5FE8EE714F4406FC4F3812307D0012BF3
:1018C80087D165B1C4F3090003F0D2FF81E725B1E0
:1018D800C4F3090003F0BCFF7BE72846FAE7284673
:1018E800F2E7E0B225B103F01BF803F0F7F870E770
:1018F80003F068F8F9E714F4407F27D1002D7FF44E
:1019080068AFC4F34213E1064FEA830348BF0F25CB
:10191800DBB248BF9D4004F00F02C4F3812448BFE6
:10192800ED439A40022C45EA020009D0032C0AD064
:10193800012C02D000F062F94BE700F057F948E7B4
:1019480000F064F945E700F04EF942E7C4F30122DC
:101958000DB312F0010F3FF43CAFC4F3421314F07F
:1019680010004FEA8303DBB21CBF0F20984004F03D
:101978000F02C4F3812402FA03F214BFC3430346DF
:10198800022C43EA02000CD0032C0DD0012C05D008
:1019980000F094F91DE712F0020FDCE700F086F979
:1019A80017E700F093F914E700F03CF911E7E6B205
:1019B800C4F3032425B1204600F058F930464DE71A
:1019C8003046FFF798FE204600F05AF901E75FFA23
:1019D80084FAAAF1F003042B39D8DFE803F0030EE8
:1019E800151A23003DB1042E3FF6F3AEC4F30420CC
:1019F80000F052F9EDE6052EF6E7C4F30420002DB9
:101A0800E2D000F033F9E4E6C4F30420002DF8D066
:101A1800DAE725B1C4F3042000F022F9D9E600F092
:101A28000DF9D6E64DB1C4F30420019000F01EF97B
:101A38000198032100F060FDCBE6012000F080FD55
:101A4800012E7FF6C6AE022000F07AFDC1E62DB168
:101A58000EB15046A8E6C4F30420D2E74EB1BAF15D
:101A6800390F0CBF4FF44870012005F0E2F85046DA
:101A78001DE7C4F30420A7E7C4F30322E1B24046FC
:101A880000F006FF00F0C0F9A3E6C4F30322E1B2B8
:101A9800404600F0FFFE9CE602B0BDE8F08713B5B3
:101AA80001880446807800F08BF90146019100F026
:101AB80015F900F097F80199204602B0BDE81040EA
:101AC800FFF722BE13B504460068A3880090D3B17F
:101AD800BDF800204FF6FF739A4214D02046FFF756
:101AE800BDFB50B900F02EFC68B1A3785BB10220B1
:101AF80002B0BDE8104000F023BD2046FFF7CFFF3D
:101B08002046FFF739FB02B010BD08B5002003F0EE
:101B18009FFE002003F0ACFE00F07CFC00F090FC7F
:101B280000F0BEFC03F010F9BDE8084002F0D6BF93
:101B380008B500F0F1FBBDE80840FFF7E6BF08B5BF
:101B480000F052FCBDE80840FFF7F2BFC0F30332D3
:101B5800023AC3B20D2A1CD8DFE802F007071B1BA4
:101B6800141B1B1B0707181B1B18F02B13D004D8BA
:101B7800E72B8CBF002001207047F42B14BF0020F6
:101B880001207047E72B06D9F12BF7E7C0F3C020F7
:101B98007047002070470120704708B5008800F0A2
:101BA80003F9BDE80840FFF7D1BF82B002AB03E9F3
:101BB800030002B0704782B002AB03E9030002B031
:101BC8007047704708B5FFF7FCFF08BD08B5FFF779
:101BD800F9FF034B1860BDE80840FFF796BF00BF48
:101BE800B81100207047FFF7F1BF0000024B1B68D7
:101BF8001843FFF7EBBF00BFB8110020024B1B686A
:101C08001840FFF7E3BF00BFB8110020024B1B6864
:101C18005840FFF7DBBF00BFB811002008B5FFF739
:101C280007F908BD08B5FFF7F9FF034B1860BDE8D1
:101C38000840FFF76ABF00BFBC1100200020FFF773
:101C4800F1BF0000054B1B681BB9B0FA80F04009D2
:101C5800704723FA00F000F001007047BC11002023
:101C6800012303FA00F0FFF7DDBF0000012303FAA8
:101C780000F0024B1B681843FFF7D4BFBC110020CB
:101C8800012303FA00F0034B1B6823EA0000FFF767
:101C9800C9BF00BFBC110020012303FA00F0024BAA
:101CA8001B685840FFF7BEBFBC110020024B1B68E1
:101CB8001843FFF7B7BF00BFBC110020024B1B68D9
:101CC8001840FFF7AFBF00BFBC110020024B1B68D4
:101CD8005840FFF7A7BF00BFBC11002070470000A5
:101CE800C0F3072303EB430337B500EB430000F0D1
:101CF80007030C4A0124C0F3C40000EB80009C4099
:101D08000244E4B20020157821FA00F343F30003FB
:101D18006B40234001305D40052802F8015BF2D199
:101D280003B030BDC0110020C0F3072303EB430309
:101D380013B500EB43000B4900F00704C0F3C400DF
:101D480000EB800000220144104611F8013BE340FB
:101D580003F00103934001321843052AC0B2F4D1BD
:101D680002B010BDC01100200D4B73B51E680D4B9D
:101D7800ADF804001B681F241E4326FA04F3DB0792
:101D8800E5B205D4013CF8D20025284602B070BD62
:101D98000199284600F068FE80B20128F2D0F4E7E5
:101DA800BC110020B811002007B5ADF80400019857
:101DB800FFF7DAFF019903B05DF804EB00F054BEB9
:101DC80013B5104BADF804101B782BB1019802B075
:101DD800BDE81040FFF7E8BF70B10198FFF7C4FFF6
:101DE800044601460198FFF77BFF0199204602B09F
:101DF800BDE8104000F038BE0198FFF795FF044693
:101E0800F3E700BFB6110020F8B5034660B100251E
:101E180001261C4614F8010B74283CD00BD8022864
:101E28002AD002D8012812D0F8BD031F6F2BFBD887
:101E3800FFF760FB1AE0752837D000F17C03DBB2AE
:101E48006F2BF1D800F07F00FFF7D8FB0EE09C1C49
:101E58005B7803F12002D2B2072A0BD803F00703FC
:101E68009840C0B200F0DCFA00F01AFB2F46FFB928
:101E78002346CEE71846DBE758789C1C00F1200380
:101E8800DBB2072BE0D800F0070006FA00F0C0B27A
:101E980000F0CEFAE8E75F789C1C002FE6D00A2015
:101EA800013F04F0C6FEFFB2F7E75D789C1CDDE752
:101EB8000A20013F04F0BDFEFFB2D8E770B5094B18
:101EC800094E1C78094D3378A34200D170BD05EB4B
:101ED800C40355F8340059680134FFF76CFE04F068
:101EE8000704F0E72712002026120020E611002040
:101EF800024B18685968FFF75EBE00BFDE1100206C
:101F0800214BF7B59A7912F0F00F0AD19A7842B1BD
:101F18001E4A1F4E12781F4D4FF6FF7731789142B7
:101F280001D103B0F0BD18680090988840B3BDF89F
:101F38000010B94224D005EBC20493F801C06178BF
:101F48008C451DD193F800C015F832108C4517D177
:101F5800A178A9B9A188091A89B2C72910D899798D
:101F68000948012262F307119971A37962F30713F3
:101F7800A371FFF7A7FD03B0BDE8F040FFF79EBFD0
:101F8800013202F00702C9E7DE1100202712002003
:101F980026120020E61100202DE9F043054685B001
:101FA8009D4CAB88ADF80430A3880068ADF80C30C0
:101FB800A3880090206829786A78AF78B5F80480FB
:101FC8000290EC46002B00F0CC80BDF808E04FF6FC
:101FD800FF70864500F0C580A678002E00F0C1800D
:101FE800A8EB0303A0799BB2C72B00F0F00900F21D
:101FF8009A802B88B9F1000F64D17345B94610D186
:102008007FB9012363F30710A071FFF771FF204622
:10201800FFF758FDA379AB710026304605B0BDE83F
:10202800F0838DF808108DF80920B8F1000F23D03F
:10203800BDF808004FF6FF7398421DD0F7B97748EE
:10204800774B07781B787748BB421CD10098FFF77D
:10205800ABFEC0F30332012AC3B225D90E3202F017
:102068000F02012A29D810F4706F22D0AA7912F031
:10207800F00F1ED14E46D0E7002FCDD0A37943F004
:102088000103A371C8E700EBC30494F801C09445A9
:1020980006D110F833C08C4502D1A478002CBBD1EE
:1020A800013303F00703CFE710F4706F01D0002B62
:1020B800E0D02033DBB2072BDCD92846FFF702FD3E
:1020C800B146D7E773450BD157B9A8712846FFF732
:1020D800F9FC2B6823606B686360FFF709FF9CE7D6
:1020E8002846FFF75AFDD0B1CFB1A3791F2B0CD9E1
:1020F8002288ADF8082002A800228DF80A20ADF841
:102108000C808DF80E30FFF7DDFC2B6823606B68C0
:102118006360FFF7F5FEFFF7EBFE01267DE7284633
:10212800FFF7D0FCF9E7B9F1000F0DD19CE80300E7
:10213800FFF73BFD2046FFF7C5FCC4F80090C4F844
:102148000490FFF7D5FE95E722882B889A42C7D1DD
:10215800002FC5D1A8712846FFF7B4FC2760676037
:102168005BE72068A2880290ADF80C20002B40D0D5
:10217800BDF808104FF6FF7291423AD0A678002EAB
:1021880037D1A8EB03081FFA88F8B8F1C70F29D888
:102198003E46002FC3D022882B889A4215D1A379B6
:1021A800DA070DD413F0F0020AD0F02AAB718DD003
:1021B800DBB2C3F30312013262F30713AB7185E795
:1021C8002B6823606B68636027E72846FFF7E5FC08
:1021D80000289AD1A379284643F00103A371FFF799
:1021E80071FC1AE79CE80300FFF7DFFC26606660D5
:1021F80073E7002F93D02846FFF7CFFC0646002848
:102208008DD02B6823606B6803486360FFF76FF914
:10221800FFF776FE61E700BFDE11002026120020DE
:1022280027120020E6110020F0B587B06C4684E83C
:1022380003002046FFF7B0FE2B4FBDF804202B4EBD
:10224800054678B194E803000490ADF814103AB14B
:10225800BDF810204FF6FF739A4201D0FFF7ABFC90
:10226800234C3AE094E8030004AB83E803003C788D
:1022780031780290002AF3D0BDF808004FF6FF72BB
:102288009042EDD0621C02F007028A420BD0184D32
:102298003A7003CB05EBC40C45F83400CCF80410B5
:1022A800FFF70CFEDCE7FFF74AFC124B3D70357078
:1022B8001D605D60D4E704EBC000FFF76DFE80B1E0
:1022C800337804EBC30254F833005168FFF773FC0A
:1022D8003378013303F00703337030783B78834257
:1022E800E9D107B0F0BD00BF261200202712002058
:1022F800E6110020DE110020024B0146186803F0A9
:1023080067BB00BF140D0020024B0146186803F09C
:1023180079BB00BF140D0020014B186803F08CBB7B
:10232800140D0020024B93F90000C0F3C70070475A
:1023380049120020024B187800F00700704700BFD0
:1023480049120020034B187810F0070018BF01202D
:10235800704700BF491200200C4A5378C3F380012C
:10236800814210B504460FD060F382035370108881
:1023780000F02EF9064B1B78DB0705D521460548EA
:10238800BDE8104001F0E6B810BD00BF24250020CC
:10239800651200209CA60008044B5878C0F3800002
:1023A80080F0010000F00100FFF7D6BF24250020CF
:1023B8000120FFF7D1BF0020FFF7CEBF014B1878EF
:1023C800704700BF4B120020024B1A781043187058
:1023D800704700BF4B120020024A137823EA00001E
:1023E800107070474B120020014B00221A70704782
:1023F8004B120020024B1A7810431870704700BF28
:102408004C120020024A137823EA0000107070472B
:102418004C120020014B00221A7070474C12002009
:10242800024B1A7810431870704700BF48120020FA
:10243800024A137823EA00001070704748120020FF
:10244800014B00221A70704748120020014B18787F
:10245800704700BF4A120020704708B5FFF7FCFF1D
:1024680008BD0000064A5278520708B506D4054A46
:102478001178814202D01070FFF7EFFF08BD00BF4E
:10248800242500204A12002008B5044B1A781AB1F6
:1024980000201870FFF7E1FF08BD00BF4A120020B6
:1024A80010B50D4B0D4A1B7812780D4C13430D4A8D
:1024B8002068127813430C4A0370127832B1134320
:1024C800037003F0E5F908B1FFF7DEFF2068BDE807
:1024D800104003F071B900BF4B1200204C120020CD
:1024E800140D0020481200204A120020704708B539
:1024F800FFF7FCFF08BD00000A4A5278520710B5E2
:102508000CD4094C41EAC0012170FFF7AFFB94F9E4
:102518000000C0F3C700FFF7EAFF10BDBDE8104098
:10252800FFF7A4BB242500204912002008B5034B5F
:1025380000201870FFF7DBFF08BD00BF491200201C
:1025480008B50C4A92F9003023EA000040B2107036
:10255800420702D1DBB2834203D1074B5B785B07AA
:1025680007D5C0F3C700FFF78BFBBDE80840FFF7AE
:10257800DDBF08BD491200202425002008B502F05F
:102588000FFDBDE808404FF6FF71002002F097BD2F
:1025980008B5002002F090FD4FF6E963C31A5842CF
:1025A800584108BD022002F081BD032002F07EBD23
:1025B8000146032002F07DBD10B5042002F076FD2F
:1025C8000446222002F072FD44EA002080B210BDC9
:1025D80010B5C1B20446042002F06BFD210A222086
:1025E800BDE8104002F065BD072002F05FBD01465E
:1025F800072002F05EBD01460F2002F084BD0146AF
:10260800132002F080BD0020FFF7F9BF08B50020B5
:10261800FFF7F1FFFFF7F7FF08BD000010B502F064
:10262800BFFC4FF6E961002002F049FD00210220BD
:1026380002F03FFD00210320002402F03AFD1A4B6E
:10264800214604201C6002F034FD2146222002F0BD
:1026580030FD2146052002F02CFD2146062002F01F
:1026680028FDFF21072002F024FD2146082002F062
:102678004AFD21460D2002F01CFD2146182002F0DB
:1026880042FD2146172002F014FD21461C2002F0CD
:102698003AFD2146202002F012FD2146182002F0C2
:1026A80032FDFFF7B3FF10BDB8110020FFF7B6BF2A
:1026B80001460E2002F0FDBC08B503F035FA024BC6
:1026C8001860024B186008BD5412002058120020F0
:1026D80008B503F029FA024B1860024B186008BDD0
:1026E80054120020501200207047704708B5FFF7B9
:1026F800FCFF08BD704708B5FFF7FCFF08BD0000E8
:1027080008B5054800F094FA02F000FCFFF7ECFF6A
:10271800FFF7ECFF08BD00BFCD610008012070473E
:1027280008B5FFF7FBFF08BD7047704708B5FFF70E
:10273800FBFFFFF7FAFF08BD08B503F0F3F900F057
:1027480091FB02F07BFD02F023FEFFF7D4FF08BDEA
:1027580038B50E4D2B780446580711D5D9070FD533
:102768000B4800F0F7FE2B78DA0709D5094821460F
:1027780000F0F0FE2B78DB0702D5074800F0EAFEF0
:102788002046BDE83840FEF781BE00BF6512002034
:10279800B1A60008C4A60008D5B200082DE9F74F75
:1027A80000F076FB08B1FFF787FFDFF8DCA0DFF861
:1027B800DC8000255646EFB2384600F085FA1AF854
:1027C800014B8442814644D098F800309B0701D5DC
:1027D80000F080FA84EA0904E3B2002201242342CB
:1027E8005FFA82FB30D0FFF79BFFA8B119EA040F0C
:1027F80014BF012300238DF802308DF800B08DF846
:10280800017003F0BDF940F00100ADF8040002AB1F
:1028180013E90300FEF742FE735D6340735502F04F
:102828002BFD08B1FFF754FF164C02F0CBF902F06C
:10283800BBFF2378834222D002F0B6FF207003B09A
:10284800BDE8F04FFFF784BF01326400062AE4B206
:10285800C5D10135082DAED14FF6FF73ADF8003064
:1028680000238DF8023003F08BF940F00100ADF839
:10287800040002AB13E90300FEF710FECFE703B034
:10288800BDE8F08F5C1200205D1200206512002068
:1028980000207047704700003022C1F307235043DF
:1028A800062202FB030050FA81F1034B33F81100B2
:1028B80082B002B0704700BF1AA40008014B33F879
:1028C80010007047F8A6000810B500F0D9F8B0F568
:1028D800A04F044630D2B0F5804F80F08B80DF28BF
:1028E80012D8BF287AD8A7280AD8A42869D80128D6
:1028F80004D0031F9BB2A12B28BF0024204610BD83
:10290800BF2863D10024F9E7B0F5005F0BD2FF2898
:10291800F4D8E728F2D9A0F1ED039BB2122BF1D835
:1029280040F4A04426E0B0F5405F5DD30205C3B291
:102938005DD443F44044E1E7B0F5AA4F1CD2B0F5AA
:10294800A84FC3B276D2B0F5A64F0AD2B0F5A44FBD
:1029580066D2B0F5A24F52D34AF2F10444EA0324F6
:10296800CCE79A08012403F003039C4044EA42148C
:1029780044F40A44A4B2C1E7B0F5B44F0FD2B0F59D
:10298800B24F63D2B0F5AC4F57D3A0F5B0439BB26A
:10299800FF2BB7D84AF2F00343EA00233EE0A0F544
:1029A800C0439BB2B3F5005FACD2C0F3042000F083
:1029B800E7F80002E4B200F4F850204340F4005471
:1029C8009CE7A0F1240444F48044D3E75834254B11
:1029D800E4B233F8144044F488448FE7C03880B236
:1029E800FFF76CFF044689E7C0F30B00F8E743F4F0
:1029F800484483E7C0F30B0444F420447EE7C3F360
:102A080081025201C0F3011442EA042403F00303D3
:102A1800012202FA03F3234343F40C439CB26DE70B
:102A28009A08012403F003039C4044EA421444F446
:102A38000C449FE74AF2F40490E7C0B200F0A0F813
:102A4800040204F4F85444F4005457E700F00F006B
:102A580000F096F8C4F3031440EA042040F4104050
:102A680084B24BE7CAA6000807B5ADF8041001996F
:102A7800FFF712FF03B05DF804EBFFF725BF000076
:102A8800E7284DD8DF2807D8312861D00ED8292863
:102A980057D02A2863D07047A0F1E003072B3FD80E
:102AA800DFE803F0123E2126303E3A3F392804D0B1
:102AB800822802D035283DD07047304B1B7813F060
:102AC800030F18BFE02070472C4A1378D9074DD45C
:102AD800527812F0010F23D013F0100F08BFE32033
:102AE80018BF00207047254B1B7813F0040FF2E73E
:102AF800224A137859073BD45278D2073AD413F0B4
:102B0800100FEDE71D4B5A78910709D51B7813F084
:102B1800100F08BFE720E3E7184B1B781A07F6D415
:102B28007047164A1378190726D452789207E6D5C3
:102B3800E420F5E7114B1B7813F0200F18BF29206C
:102B480070470E4B1B7813F0200F18BF35207047C5
:102B58000A4B1B7813F0400F18BF2A207047074B09
:102B68001B7813F0400F18BF312070473920704789
:102B7800E2207047E0207047E620704724250020B7
:102B8800294A1378590707D500F01801082927D1D1
:102B980000F0F70040F00400190707D500F018010D
:102BA800182926D100F0E70040F014005278D10728
:102BB80007D500F01801082924D100F0F70040F0EB
:102BC8000100920707D500F01802182A23D100F057
:102BD800E70040F01100DB0648BF00F0E70070474F
:102BE80000F01401042904BF00F0FB0040F00800C5
:102BF800D2E700F01401142904BF00F0EB0040F004
:102C08001800D3E700F01101012904BF00F0FE000D
:102C180040F00800D5E700F01102112A04BF00F0C7
:102C2800EE0040F01800D6E7242500200020704769
:102C3800014B1860704700BF180D0020014B1B683E
:102C4800184700BF180D0020FFF798BC08B500F022
:102C58001FF9642003F0EDFF00F01AF9002000F0DE
:102C680033F8C30705D5FFF7EFFFBDE8084002F0CA
:102C780099BF08BD08B5FFF7E9FF08BD08B5FFF71C
:102C880087FC08B9FFF712FDFFF78CFC084B18709A
:102C9800FFF792FC074B1880FFF7ECFFFFF785FC66
:102CA800FEF7A1FF044B1868BDE80840FEF7B6BF61
:102CB8006512002024250020BC110020704708B5AB
:102CC800FEF7A0F908BD0000014B185C704700BF73
:102CD8002E2500202DE9F0410F48104DDFF84C80DB
:102CE8000F4F104E00F036FC00242146404600F0FD
:102CF80031FC384600F02EFC15F8010BFEF7A7FB57
:102D08000146304600F026FC0134074800F022FC5A
:102D1800082CEAD1BDE8F081F8A600082E2500208D
:102D2800C1A6000807A70008D5B20008C4A6000875
:102D3800012003F07EBF00BF00BF00BF00BF00BF7F
:102D480000BF00BF00BF00BF00BF00BF00BF00BF83
:102D580000BF00BF00BF00BF00BF704708B5FFF746
:102D6800E7FF08BD08B5202282F31188012100F091
:102D78000F03994020F00F0005F03AFB002383F37E
:102D8800118808BD38B50C4D082455F8040B421CB1
:102D980001D0FFF7E7FF013C14F0FF04F5D1074D20
:102DA800062455F8040B431C01D0FFF7DBFF013C58
:102DB80014F0FF04F5D138BD24A700080CA70008BB
:102DC8002DE9F843254F57F821300646581C0D4683
:102DD80040D0202282F311884FF0010823F00F0918
:102DE80003F00F0308FA03F4214642464846A4B20A
:102DF80005F0FEFAA9F81A40002484F31188FFF7B9
:102E08009AFF17482346A14650F8042B511C23D09B
:102E180022F00F0102F00F02096921FA02F2D2072B
:102E28001AD408FA03F464B2013349EA0404062BFD
:102E38005FFA84F9E8D157F82500431C01D0FFF761
:102E480091FFB9F1000118BF01212846FFF786FF5D
:102E580006F80590BDE8F8830024E5E724A70008F4
:102E68000CA7000808B5FFF78DFF074A0023136079
:102E78005360064A08201360536000F033F8BDE839
:102E88000840FEF7B5B900BF262500202E250020F2
:102E980037B50024CDE90044E1B268460134FFF7B4
:102EA8008FFF082CF8D10D4D22466946284607F0B9
:102EB80029FA00281DBF6A4603CA012400241CBF42
:102EC80028606960054806492346082200F00CF886
:102ED800FEF799F9204603B030BD00BF2625002033
:102EE8002E25002070470000F8B50F4C06460F4607
:102EF80015462BB10123237002F016FE0B4B186008
:102F080023782BB1094B186802F046FE042808D82C
:102F1800F8BDF25CFA5401339D42FADC00232370B9
:102F2800F6E70023F8E700BF6612002068120020C9
:102F380008B502F099FD03F085F903F085F903F06F
:102F4800A3F9FFF7F3FBFAE770472DE9F04F8BB0D1
:102F58000746149C9DF854B0169816468846DDE935
:102F680018520CB922F0100212F48061019100D0BD
:102F780014B312F0200F14BF4FF041094FF061094C
:102F8800A4460DF1080A0024A9F10A09BCFBF0FEC9
:102F980000FB1ECE5FFA8EF1BEF1090F94BF3031EF
:102FA8004944C9B284450AF8011BBCFBF0F104F19D
:102FB800010401D3202C12D112F0020A23D102F00D
:102FC800010E4DB1BEF1000F06D0BBF1000F02D1CA
:102FD80012F00C0F00D0013D4FF0300C05E08C468C
:102FE800D4E702A901F804C001341799A14201D914
:102FF800202CF6D14FF0300CBEF1000F03D0A542C3
:1030080001D91F2C45D9D10622D50199002946D1CD
:10301800002C44D01799A14201D0AC423FD1611E87
:103028003CD0102846D1023C910645D41F2C1BD811
:1030380004F128016944782001F8200C01341F2C80
:1030480012D804F128016944302001F8200C013419
:103058001F2C09D8BBF1000F35D004F128016944B1
:103068002D2001F8200C013492074DD0B146A1441F
:103078004846A9EB0402002C4AD1BAF1000F05D04A
:10308800A9EB0609A94506EB090049D30BB0BDE831
:10309800F08F02A901F804C00134ADE70C461028EE
:1030A800C2D00228CBD11F2CDED804F128016944F4
:1030B8006220C1E70C46F4E71F2CD5D804F128019B
:1030C80069445820B8E7500704D504F12801694439
:1030D8002B20C6E71107C7D504F128016944202031
:1030E800BFE7414620200193B847019B09F1010938
:1030F8004D450BEB0902F4D8A5EB0409A54238BFEE
:103108004FF00009B144B2E7A146A6EB040BEFE784
:10311800013C02A84146005D0193B847019BA7E71F
:10312800024641462020019309F10109B847019B55
:10313800A8E708B1FFF782BD704700002DE9F04FFE
:103148008DB01F46AA4B169E0029914614BF834690
:103158009B460025387858B94D452CBF09F1FF32F8
:103168002A464B460020D84728460DB0BDE8F08FC8
:10317800252807F1010706D02A466C1C4B46069104
:10318800D847254620E1002306E02D2A15D0302A0D
:103198000CD143F001030746384610F8012B2B2ABF
:1031A8000ED0F2D8202A0ED0232A0FD0A2F1300454
:1031B800092C2AD84FF0000811E043F00203EAE78F
:1031C80043F00403E7E743F00803E4E743F01003A0
:1031D800E1E70A2404FB0822A2F130080746384632
:1031E80010F8012BA2F13004092CF2D93A782E2AD2
:1031F80057D17878A0F13004092C07F1010243F483
:10320800806344D80020069017E02A2A0AD156F88D
:10321800048BB8F1000FBCBF43F00203C8F10008EB
:103228000746E3E74FF00008E0E7069C0A2202FBA6
:103238000400A0F1300206923A46174617F8010B2F
:10324800A0F1300CBCF1090FEFD917463A4612F835
:10325800010B6C282DD027D8682831D06A2838D09F
:103268003A46174617F8010B782885D8632833D8CB
:10327800622877D0632800F0BF8025283FF47CAF10
:1032880058287FF479AF43F0200310226BE02A28F6
:1032980006D156F8044B24EAE47206920237D5E7C1
:1032A800174600220692D1E77A28D9D143F48073D1
:1032B800D7E778786C28F9D143F44073BA1CD0E783
:1032C8007878682802D043F08003CAE743F0C00347
:1032D800F4E743F40073C4E7A0F1640C454C5FFACB
:1032E8008CFC012202FA0CF222401AD1732800F059
:1032F800C38070287FF440AF43F02103059308236F
:103308000493069B03931023CDE9012356F8043B4D
:1033180000932A464B4658460691FFF716FE054687
:1033280052E07828B1D06F2800F01181692823F085
:1033380010034FF00A0201D0642814D15C0548BF7D
:1033480023F00103692803F4007C01D0642822D10A
:10335800BCF1000F7FF4FEAED80506F1040A05D5CE
:10336800306806E0022223F00C03E7E75C060DD57F
:103378003078CDE90483069B0028CDE902234FEA83
:10338800D0730193B8BF4042009015E01806E7D506
:10339800B6F90000EDE7BCF1000F7FF4DBAEDC0509
:1033A80006F1040A12D5CDE90483069BCDF804C0C2
:1033B800CDE90223336800932A464B4658460691C6
:1033C800FFF7C3FD564605460699C3E6580608D5D5
:1033D8003078CDE90483069BCDE9022300230193CD
:1033E800D2E7306813F0800F18BF80B2F1E700BF52
:1033F800512F00082108120013F0020426D04FF0C4
:10340800010A6B1C0693079116F8040B4B462A46D3
:10341800D847079974B3069A544621E006914B465B
:103428002020D84706990AEB05020AF1010AD0457F
:10343800F4D8B8F1000F08F1FF3308BF002308F1F2
:10344800010A1D4408BF4FF0020ADAE7A246EAE77C
:1034580007914B462020551CD847079901342A4626
:103468004445F5D3069AA8EB0A03D04538BF002394
:103478001A440692069D6DE6324652F8046B07928E
:10348800069A002A14BF10464FF0FF3030443246E7
:1034980092F800C0BCF1000F01D0824212D1A2EB19
:1034A800060A13F48062089203D0069A924528BF50
:1034B800924613F0020309931CD1AAEB05032A468E
:1034C8001C4609E00132E3E7531C0A930B914B4673
:1034D8002020D847DDE90A21234613449845F3D82C
:1034E800A8EB0A03D04538BF00230AF101021D44A6
:1034F80003EB020AAB1B1C4605E006930A914B46F8
:103508002A46D8470A99A51916F8010B38B1089B1D
:10351800002BF3D0069B069A013B002AEDD1099BAC
:103528009BB12A46AAEB050406E006914B462020EB
:10353800561CD8470699324613194345F5D3A8EBCC
:103548000A03D04538BF00231D44079E02E608221F
:1035580009E700BF0FB41FB506AA02A952F8043B39
:103568000392009204484FF0FF32FFF7E7FD05B0E1
:103578005DF804EB04B070473B3100081FB50A4BF7
:103588000A4A1B7802930A4B0A491B7801930A4B93
:103598000A481B7800930A4B12781B780978FFF7C2
:1035A800D9FF05B05DF804FB460F0020400F00204E
:1035B800450F00203F0F0020420F002044A70008BD
:1035C800410F002010B5014604460548FFF7C2FF29
:1035D8000120A040FEF707FBBDE81040FEF7AFBA98
:1035E800C1A7000810B5431F8CB03E2B00F2148110
:1035F800DFE813F09300830099003F0012011201E5
:103608007F0012011201C2001201D100F90012015B
:10361800120112011201E20012011201E00012016E
:10362800AE00120112011001100110011001100169
:103638001001100110011001090112019300790015
:1036480012011201120112011201120112011201DA
:10365800120112010901120112017F0012010D016C
:103668000D010D010D010D010D010D010D010D01E2
:103678000901FEF79AFF01466A48FFF76BFFFEF75C
:1036880091FFC0F3C0030193C0F38003014600F02B
:1036980001020093C0F340036348FFF75BFFFEF7A6
:1036A8008BFFC0F3C0130793C0F380130693C0F3D6
:1036B80040130593C0F300130493C0F3C0030393AE
:1036C800C0F380030293C0F340230193C0F30023A7
:1036D8000146009300F00102C0F340035348FFF78E
:1036E80039FF012017E05248FFF734FFFEF7DEFFED
:1036F800F7E75048FFF72EFFF3E74F4A4F48137894
:1037080023F00F031370FFF725FF4D48FFF722FF43
:103718004C4B012018700CB010BD4B48FFF71AFF36
:10372800FDF77CFDDDE7444C2378C3F3000282F00B
:10373800010262F300032370DB0701D54348D9E790
:103748004348FFF707FF237823F00E032370C8E7E9
:10375800394C2378C3F3400282F0010262F341033B
:103768009807237006D53B48FFF7F4FE237843F00B
:103778000103EBE73848BDE72F4C2378C3F38002F9
:1037880082F0010262F382035907237001D533489E
:10379800EAE73348AEE7284C2378C3F3C00282F047
:1037A800010262F3C3031A07237001D52D48DBE732
:1037B8002D489FE72D489DE701F0F6FF2C4B0B9015
:1037C8001A782C4B2C481B780A920993047802F03B
:1037D800ABF9E409CDE90040DDE909320B99274846
:1037E800FFF7B8FE7DE7FEF7AAF923490B78C3F384
:1037F800C01282F0010262F3C7130B701B064CBFA4
:103808001F48204876E70020FFF7DCFE69E73938D3
:10381800C0B2F9E71D38FBE71B48FFF79BFE002005
:1038280079E700BFC6A70008E3A700082CA800088E
:1038380011A9000822A9000865120020D4AA0008CE
:10384800FBAA00086C120020FFAA00081BAB0008A6
:1038580027AB000834AB000841AB00084FAB0008A9
:103868005EAB00086EAB00087AAB000887AB0008B7
:10387800FC10002028240020242500206EAC00081D
:10388800F2AC0008FCAC000809AD0008292810B506
:103898005F4C51D02BD813285BD017D8072800F0DD
:1038A8008F800B2830D05B489DE00A235A4A126863
:1038B800002AF8D011781944FF2900F39F800029C5
:1038C800C0F29E80C9B25548117052E0142833D016
:1038D800A0F11E03092BE6D81D38C0B220700138AC
:1038E800052867D8DFE800F03B484E545A6038286E
:1038F8000AD0A0F14F03032BD5D850380228D4D8CA
:10390800DFE800F074777A004548FFF723FEFFF7F9
:1039180035FE444801220521FFF71CFE21780029C5
:1039280070D0414B41481A68414BBDE81040002A0D
:1039380008BF1A46FFF70EBE3E48FFF70BFE237876
:10394800002B64D0344A00231360374A2370136075
:10395800E4E73948FFF7FEFDFFF710FEDEE72E4BE0
:10396800364A1A60304B364A1A6021780029D5D079
:103978003448FFF7EFFDD1E7274B334A1A602A4B4B
:10398800324AF1E7244B324A1A60274B314AEBE7B7
:10399800214B314A1A60244B304AE5E71E4B304A26
:1039A8001A60214B2F4ADFE71B4B2F4A1A601E4B28
:1039B8002E4AD9E7002317482370FFF7CBFDD4E739
:1039C8001E4B2B481E221A701F4B32221A70204B96
:1039D8000A221A70204B14221A70214B08221A70DE
:1039E800214B28221A70FFF7B5FD97E76FF00903FE
:1039F8005CE74FF0FF3359E7012357E7FF2162E700
:103A0800002160E7BDE810401A48FFF7A3BD10BDCC
:103A18007412002051AE0008781200205EAE000833
:103A28000BAD00081BAD00087012002064AE000842
:103A380007AD0008E7AD0008EAAD00083F0F002019
:103A4800F8AD000828A80008400F002001AE0008C3
:103A5800410F00200DAE0008420F00201AAE0008EA
:103A6800450F002029AE0008460F00203CAE000894
:103A780054AE00086DAE0008002070470020704763
:103A880070B5264E3478012C054614D0022C3FD050
:103A9800002C40D1FEF792FC22280AD12846FFF7D5
:103AA800EBFF18B92846FFF79DFD00E0012000F064
:103AB8000104204670BDFEF781FC2228284605D166
:103AC800FFF7DAFF0028EDD02046F0E7FFF7D6FF32
:103AD8000028EED1142D1ED008D80B2D0AD0102D99
:103AE80010D00F48FFF736FD0024E2E7292D12D049
:103AF800382DF6D10B48FFF72DFD0B48FFF72AFDAF
:103B08000124D6E7022338203370FFF7BFFED0E741
:103B1800FFF7BCFEF4E700243470CAE76C120020FB
:103B280009AD0008D4AA0008FBAA0008000000009C
:103B3800453807EE900AF8EEE77AB2EE087AC7EE53
:103B4800877A08B517EE900AFCF73CFD9FED080B45
:103B580041EC110B05F0B8FA074B51EC100B0022A1
:103B6800FCF788FDFDF736F800EE100A08BD00BF27
:103B7800000000000000004000807B4008B545F6CA
:103B88001D43984205D18B7873B300F039FA0020B1
:103B980008BD45F61E43984204D18B7823B300F044
:103BA80045FAF4E745F61F43984206D18B78DBB116
:103BB80000F030F80028F2D1E7E745F62A439842AA
:103BC80009D18B7883B100F07BFC084800220421DE
:103BD80000F092F8DBE745F62B43984204D18B7846
:103BE80013B100F073FCF0E70120D1E71C0D0020B1
:103BF80008B5FFF79DFFBDE8084000F0FDB908B51E
:103C0800FFF796FFBDE8084000F016B900F00AB8C3
:103C180070470000024B187800F00100704700BFA1
:103C2800B025002038B50D4D2C78B4B90C4B1C705C
:103C380000F0FAFB0B4B0C491C700C4B1C700C4B26
:103C48001C800C4B22460634302C1A8059601A818D
:103C580003F10C03F7D101232B7038BD3C0D002074
:103C68007C12002085120020000080BF86120020F0
:103C780082120020502500200B4B1B7883420FD95D
:103C8800013B0A4A181A43B20C2101FB032393EDA6
:103C9800010AB5EEC00AF1EE10FA01D900F01CBC19
:103CA8009FED030A704700BF7C12002050250020BA
:103CB800000000000D4B07EE900A1B78F8EE676ACB
:103CC800DFED0B7A9B0166EEA76A07EE903AB8EE35
:103CD800E77AC6EE877A9FED077A67EE877AFCEE79
:103CE800E77A17EE903A98B2704700BF600D00204F
:103CF8000000704200007A44F8B5224B1B78DB07BD
:103D080004460E46154603D4BDE8F840FFF78ABFBF
:103D18001D4B1B780BB900F061F81C4B1B780BB1DD
:103D2800FFF780FF1A4BD4ED017A1A4F01221A705F
:103D3800194A3C6000231370184A1680184AFCEE92
:103D4800E77A1570174D2B8017EE903A98B2FFF767
:103D5800B1FF94ED000A00F0CDF801F011FF124B0D
:103D68002A8818803B6803EBC203D3ED017AFCEE86
:103D7800E77A17EE903A98B2FFF79CFF0B4B188042
:103D8800F8BD00BFB02500207D120020861200205B
:103D9800851200204C2500208412002038250020A0
:103DA800B12500207E1200208012002082120020FF
:103DB80008B5074B1B78DB0704D5002205481146D8
:103DC800FFF79AFF01F0DCFE034B188008BD00BF27
:103DD800B0250020881200208012002010B5124C57
:103DE800237803BBFEF7D4FB08B9FEF75FFCFEF7A8
:103DF800FBFB0E4B002218700D4B0E481146063285
:103E0800302A19805860198103F10C03F7D12378FF
:103E18001BB900F0C3FA01232370FFF703FFBDE8C5
:103E28001040FFF7C5BF10BD7D120020B02500204F
:103E380050250020000080BFF8B5274DB5EEC00A18
:103E48002B78F1EE10FA2DED028BB0EE408A48BFC8
:103E5800B1EE408A002B3BD0204B1B780BB9FFF703
:103E6800BDFF1F4B07241946D3ED167AF4EE487AA6
:103E7800F1EE10FA27D10C2262438B180026DFF8E6
:103E880070C08E52C3F804C01E81072C0ED1154B8A
:103E980001261E70144B1C78013CE4B21C70BCB99E
:103EA80000F0C2FA114B2C701E7011E003F10C07E0
:103EB80097E80700013483E807009E81C3F810C023
:103EC8009E823B46E1E7013C621CA3F10C03CBD187
:103ED800BDEC028BF8BD00BF861200207D120020C9
:103EE80050250020881200207C1200203C0D002064
:103EF800000080BF2DE9F041364B1B780646D807F5
:103F08002DED028BB0EE408A4CD5334B1B780BB9A4
:103F1800FFF764FFDFF8DC80304F98F80030B5EE2B
:103F2800C08AF1EE10FA48BFB1EE488A5D1E0C2235
:103F3800691C29D10133DBB2082B48D92849082349
:103F48005422A1F10C0088F8003006F0F9F9254A4E
:103F580001231370244A137098F800305C1E01F096
:103F68000FFE0C236343FA18F85282ED018A16817A
:103F780001F006FE1D4C1E4B1880237893B100F00B
:103F88007BFA002323700DE002FB0574D4ED017A5F
:103F9800F4EE487AF1EE10FA17D198F80030013BA8
:103FA8009D4203DBBDEC028BBDE8F08104F10C07F8
:103FB80097E8070084E8070001F0E2FD0135A081D9
:103FC80084ED048AA6823C46E7E7013DB0E788F81D
:103FD8000030BCE7B02500207D12002050250020CD
:103FE8005C25002088120020861200203C0D00204D
:103FF800981200207C1200204FF6FF70FFF77ABF5E
:1040080008B5084B187840F001001870FEF7EFFA71
:10401800FFF7FEFDBDE80840034800220221FFF734
:104028006BBE00BFB0250020500D002008B500224F
:1040380002210948FFF760FE4FF47A7002F0F9FD9B
:10404800FFF7F0FD054B18786FF300001870BDE816
:104058000840C0B2FEF7CBBA400D0020B0250020C2
:104068002DE9F047624F634D3B7813B92C78002C4B
:1040780071D001F085FD2D788046EDB900253B789B
:10408800002B00F0B3805C4B1C7824B95B4B1C7888
:10409800002C08BF2C465A4D5A4F00264FF6FD7883
:1040A8003B78B34200F39080574A1378002B52D0E4
:1040B800002111701C464EE0544C554E208801F0EA
:1040C80064FD33888342D9D8208801F05EFDA4F8C6
:1040D8000080DFF858813388B8F800A0C01A0AF1C8
:1040E8000103A8F800301FFA80F901F049FD494B97
:1040F8001880494B1988B8F800308B4205D3474BD4
:104108001C7834B30023A8F80030454B45481A689A
:104118000478B8F80030DB0004BB02EBCA0CD418F2
:104128009CED007AD4ED007AB4EE677AF1EE10FADD
:1041380014D1012303700220FFF7BCFD9FED3A0A5A
:10414800FFF7D8FE0220A8F800A0FFF7B3FD3080E3
:1041580095E7FFF767FD2046BDE8F0871344D3EDE8
:10416800017AFCEEE77A002417EE903A047098B2D0
:10417800FFF7A0FD01398145B8F8003001D999420F
:104188000EDC81453ABFA0EB090084B2012402EBA2
:10419800C30292ED000A2046FFF7ACFE34806EE7BA
:1041A80001339BB2A8F8003002EBC303D3ED017AC8
:1041B800FCEEE77AA9EB000017EE903A1FFA80F9B7
:1041C80098B2FFF777FDD6E72B89013B9BB24345B1
:1041D80009D8288801F0D9FC2B89834203D895EDAA
:1041E800010AFFF729FE01360C3559E72C465BE733
:1041F80086120020851200209512002094120020BB
:10420800502500207C1200208812002080120020F7
:10421800821200209812002038250020B1250020A5
:104228004C25002084120020000000007E1200208F
:1042380008B50848084903F060F80648022103F069
:104248006EF8BDE80840032210214FF0904004F0BA
:10425800CFB800BF6C290020640D002008B50748BE
:1042680003F06BF8012210214FF0904004F0C0F8E1
:104278004FF0904310221A8308BD00BF6C2900201C
:1042880008B5114B2DED028BB0EE408A83ED000A84
:10429800FFF7E4FFB5EEC08AF1EE10FA10D938EE58
:1042A800088ADFED0A7A0A4B28EE278ABCEEC88A0C
:1042B80083ED008ABDEC028BBDE80840FFF7B8BF6C
:1042C800BDEC028B08BD00BF8C12002000008043AB
:1042D800640D002008B50848084903F00EF80648A0
:1042E800022103F01CF8BDE80840032220214FF00A
:1042F800904004F07DB800BF9C290020740D002078
:1043080008B5074803F019F8012220214FF0904022
:1043180004F06EF84FF0904320221A8308BD00BFC6
:104328009C29002008B5114B2DED028BB0EE408A78
:1043380083ED000AFFF7E4FFB5EEC08AF1EE10FA4C
:1043480010D938EE088ADFED0A7A0A4B28EE278A58
:10435800BCEEC88A83ED008ABDEC028BBDE808403C
:10436800FFF7B8BFBDEC028B08BD00BF901200205C
:1043780000008043740D002008B5FFF771FE58B1A6
:104388000020FFF779FCFFF77BFF0020FFF774FCA4
:10439800BDE80840FFF7C6BF08BD000038B5184D96
:1043A800184C032210214FF0904004F021F82846C1
:1043B800154902F064FF1549154802F09EFF0322D3
:1043C80020214FF0904004F013F82046114902F0E4
:1043D80056FF1149114802F090FFAB6A10491A685C
:1043E8001048136823F002031360A36A1A6813685D
:1043F80023F400331360BDE8384002F07EBF00BFED
:10440800A8270020D827002074B20008640D0020D7
:104418006C2900207CB20008740D00209C29002023
:10442800840D00207C29002008B50E4802F085FF85
:104438000D4802F043FF40F2FF7200210A4802F0E3
:104448002CFF0A4802F079FF094802F037FF0848B4
:1044580040F2FF72002102F020FFBDE80840054845
:1044680002F06BBF6C290020A82700209C2900209F
:10447800D82700207C29002008B50A4A0A490B4899
:104488004FF4807302F00BFF09490A480A4A4FF4B7
:10449800807302F004FFBDE808400848022102F0DA
:1044A8003EBF00BF72AE000884B20008A8270020F3
:1044B80094B20008D827002072B000087C29002098
:1044C800014B00221A70704796120020014B0022FF
:1044D8001A70704796120020024B1B780BB9024ADB
:1044E800137070479612002094120020024B1B781C
:1044F8000BB1FFF78BBB70479B12002008B5FCF788
:10450800F9FD08BD08B5FFF7F1FF044B0448002288
:104518001A700821BDE80840FFF7EEBB9B12002087
:10452800B80E0020034B0448002208211A70FFF738
:10453800E3BB00BF9A120020940D002010B5FFF7CE
:10454800D5FF084A08481378013303F003031370B2
:10455800282404FB03000022BDE810400521FFF7D2
:10456800CBBB00BF140E0020180E0020F8B5174B67
:104578001B788BB1164C208840B901F001FB2080D4
:10458800144C154D227842B1531E08E001F0FDFA93
:10459800124B1B888342F0D3F8BD2B78013B10499E
:1045A800104EC85C33788F5C33B1FFF728FB337843
:1045B80013B13846FFF71CFB23782A780133B3FB85
:1045C800F2F102FB11332370E6E700BFAD120020C1
:1045D800B2120020AE120020AC1200203C0F0020C6
:1045E8009C1200209B1200207047000008B5054B64
:1045F800054801221A7008210022FFF77DFBFFF70A
:10460800F3FF08BD9B120020FC0E0020704700003D
:1046180008B5054B054801221A7008210022FFF74A
:104628006BFBFFF7F3FF08BD9A120020D40D0020A2
:104638002DE9F04145F6264398428AB0054606D151
:104648008B78002B3ED0FFF7D1FF002053E045F6D2
:104658002743984205D18B78002B33D0FFF752FFC0
:10466800F3E745F62843984206D18B7853B3654B58
:104678001B78002BF2D1E6E745F62C43984204D18B
:104688008B78FBB1FFF7C4FFDFE745F62D4398426F
:1046980004D18B78B3B1FFF745FFD6E745F62E4333
:1046A800984206D18B786BB1574B1B78002BF2D10F
:1046B800E8E745F62943984204D18B7813B1FFF710
:1046C8003DFFC2E74F4B1A7822B94F4B1B78002B9E
:1046D80000F096808E78002E3DD0E02D0ED1FFF7A9
:1046E80005FF4A4B01221A70494B00201870494BAC
:1046F8001870494B18700AB0BDE8F081E22D0BD153
:10470800FFF7F4FE414B1A7812B1414A01211170AA
:10471800002018703F4BEDE7E32D0FD13C4B1B7881
:10472800CBB1FFF7E3FE394B00201870394B01225B
:104738001A703A4B18703A4B1880DCE7522D04D1A6
:10474800384A13880A3B13807FE7512D03D1354A35
:1047580013880A33F7E74878334B0978062404FBB3
:10476800003313F801C0314B1C78314B1B682434DB
:104778001C44304B1B78E4B2BBB96444E4B2002E4D
:1047880038D012B12046FFF733FA204B1B782BB1F3
:10479800214A29491378CC54013313702846FFF76E
:1047A800ADFE80F00100C0B2A5E7244B01AF03F1D4
:1047B800200818685968BE46AEE803000833434528
:1047C8007746F6D119889B78AEF800108EF802303B
:1047D8000723BCFBF3F303EB4301C3EBC30304EB75
:1047E8008104ACEB03030AA951FA83F313F8243CC0
:1047F8001C44C3E7002AD1D02046FFF700FACDE7D2
:10480800012078E79B1200209A120020B0120020A5
:10481800AF120020AD120020AC120020AE12002012
:10482800B21200203C0F0020DAA300083E0F00203F
:10483800F80E0020140E00209C120020B7A30008D8
:10484800194B1B78D90709D5184B187800EB80004D
:1048580080087F2824D828B3C0B270479A0705D5A6
:10486800124B187800EB80004008F2E75B0704D58C
:104878000E4B187800EB8000EBE70D4B1B786BB103
:104888000C4A0A49127808789342F3D210FB03F0D5
:1048980000EB8000B0FBF2F080B2DAE70520DBE73E
:1048A8007F20704701207047BE120020410F002072
:1048B800BF120020420F0020154B1B78D90705D5E1
:1048C800144B1878800800B3C0B270479A0703D514
:1048D800104B18784008F6E75B0705D50D4B18789C
:1048E8007F28F0D97F2070470B4B1B785BB10B4AB0
:1048F800084912780878934236BF10FB03F080B25B
:10490800B0FBF2F0ECE70120DEE70120704700BFC2
:10491800BE120020450F0020C0120020460F0020C4
:1049280008B5A0F1ED03122B10D8DFE803F00A1048
:1049380013192E2E2E2E2E2E2E2E1C21252B363CD4
:104948004100FFF77DFF40421C4BD87008BDFFF7C0
:1049580077FFF9E7FFF774FF4042184B9870F5E7C7
:10496800FFF76EFFF9E7FFF7A7FF144B1871EDE7A4
:10497800FFF7A2FF4042F8E7FFF79EFF40420F4BC8
:104988005871E3E7FFF798FFF9E70C4AF1385178D7
:10499800012383400B435370D8E7094A137843F047
:1049A80001031370D2E7064A137843F00203F8E7CD
:1049B800034A137843F00403F3E700BFB81200205A
:1049C800BE12002030B5414BED2893F9035093F9FE
:1049D800024093F9041093F9052012D1002D01DA51
:1049E8000022DA70D9789A780A4351B20AB9384A5B
:1049F80011701A795B7913435AB20BB9354B1A7097
:104A080030BDEE2802D1002DEADCEBE7EF2804D117
:104A1800002CE7DA00229A70E4E7F02802D1002C93
:104A2800F8DCDFE7F92804D10029DBDD00221A7160
:104A3800D8E7FA2802D10029D4DAF7E7FB2804D10D
:104A4800002ACFDA00225A71CCE7FC2802D1002ACA
:104A5800F8DCC7E7F1380E28C4D801A252F820F0D4
:104A6800A54A0008A54A0008A54A0008A54A000862
:104A7800A54A0008A54A0008A54A0008A54A000852
:104A8800ED490008ED490008ED490008ED49000826
:104A9800B34A0008BF4A0008C94A00085A780121E9
:104AA800814022EA01025A709CE70B490A7822F0F9
:104AB80001020A7096E708490A7822F00202F8E72C
:104AC80005490A7822F00402F3E700BFB812002073
:104AD800BF120020C0120020BE1200202A4B1B78F3
:104AE80013F0080F10B5294C39D02948FEF732FDCC
:104AF80061782848FEF72EFD2748FEF72BFD94F92C
:104B080002102648FEF726FD2548FEF723FD94F9F6
:104B180003102248FEF71EFD2148FEF71BFD94F9FD
:104B280004101E48FEF716FD1D48FEF713FD94F904
:104B380005101A48FEF70EFD1A48FEF70BFD1A4B32
:104B48001A481978FEF706FD1948FEF703FD194BB8
:104B580016481978FEF7FEFC1748FEF7FBFC01F033
:104B68000FF8A378E278134318BF144B627918BF83
:104B780018802379134318BF114BBDE8104018BFA4
:104B88001880024800F05ABE65120020B8120020B2
:104B9800A4B20008C4A60008C7B20008C9B2000839
:104BA80019AB0008CCB20008BF120020CFB2000831
:104BB800D2B20008BE120020D4B20008B4120020FD
:104BC800B61200202DE9F047564C94F9028094F96A
:104BD800037094F9046094F9055094F800A094F8CF
:104BE80001900023A370E3702371637158EA0703EF
:104BF8000AD04D4B188800F0C8FF4C490B783BB3DE
:104C08004B4A127890422DDC56EA05030BD0494BEB
:104C1800188800F0BAFF48490B78002B4ED0474A55
:104C28001278904254DCE278A37813432279134334
:104C38006279134301D0FFF751FF84F800A084F88C
:104C4800019084F80280E77026716571BDE8F087ED
:104C58003B4A127802EB8202B0EB420FD4DD0133FB
:104C68000B7001E0FF2BFAD1B8F1000F08D0FFF765
:104C7800E7FDB8F1000FCCBF0123FF235843A07014
:104C88003FB1FFF7DDFD002FCCBF0123FF235843C1
:104C9800E07094F90230002BB6D094F90320002A72
:104CA800B2D0B5214B431B1208BF0123A37001FBEF
:104CB80002F31B1208BF0123E370A5E7214A12780B
:104CC80002EB8202B0EB420FADDD01330B7001E065
:104CD800FF2BFAD13EB1FFF7EFFD002ECCBF012329
:104CE800FF23584320713DB1FFF7E6FD002DCCBFEF
:104CF8000123FF235843607194F9043094F9052087
:104D0800002B90D0002A8ED0B5214B431B1208BF30
:104D18000123237101FB02F31B1208BF01236371F6
:104D280081E700BFB8120020B4120020BF12002093
:104D3800400F0020B6120020C0120020440F0020AF
:104D48003F0F0020430F0020054A00231360938083
:104D5800044A1370044A1370044A1370704700BF62
:104D6800B8120020BF120020C0120020BE1200207E
:104D780010B500F049FA094C094800F0FDF9094856
:104D880000F0FAF9204600F0F7F9074800F0F4F9C6
:104D980000F048FA054B1C6010BD00BF00F0030886
:104DA80000E0030800E8030800F80308C422002014
:104DB80020F0010038B500F1006404F578344FF6AE
:104DC800FF7123888B4282B210D10A498D5AED4374
:104DD800ADB29D420CD000F017FA2046294600F0EB
:104DE800EDF9044600F01EFA204638BD0024FBE722
:104DF8000524F9E7C2120020F8B5FFF7B9FF00F063
:104E080003FA0B4E0B4C0C4F052536F8021B39B133
:104E1800C94389B2204600F0D1F9052818BF0546D4
:104E28000234BC42F1D100F0FDF92846F8BD00BFBC
:104E3800C212002000E0030800F003081E4BF7B57B
:104E48001E5A1E4F012E98BF1D4C3A6894BF02236C
:104E58000423C3F1006394BF44EA4634803803F561
:104E6800802392BFA4B280B24FF460449A4204D91E
:104E780003B0BDE8F040FFF7BFBF44EA500101911D
:104E880000F0C2F938680199831C3B6000F096F97C
:104E9800B4F5604F054609D13868F143831C89B2DF
:104EA8003B6000F08BF9052818BF054600F0BAF9F9
:104EB800284603B0F0BD00BFC2120020C422002063
:104EC8000080FFFF37B50E4D0E4B2A689A42044604
:104ED80004D903B0BDE83040FFF78EBF00F094F965
:104EE800094B2868195D41EA0421831C89B22B60AB
:104EF80000F064F9019000F095F9019803B030BD15
:104F0800C4220020FFFF0308C21200201F4B204AC2
:104F18002048F0B51D4632F8021BC943824223F8E7
:104F2800021BF8D11C4C4FF6FF7743F6FE76138828
:104F3800BB4206D0180409D4190A6B540232A242A3
:104F4800F5D9164B4FF480501A60F0BD03F4C041F8
:104F5800B1F5C04F0FD1901CA04215D85188C94354
:104F680089B279B106EA430380330246B3F5805F1C
:104F7800E4D2E952E2E75904E0D4C3F3403106EA47
:104F88004303F3E70246D9E70246DAE7C2120020F4
:104F980000E0030800F00308FFFF0308C422002014
:104FA80008B5FFF7E5FEBDE80840FFF7AFBF000012
:104FB800B0F5805F10B5044614D20C4B1A5C8A42D7
:104FC80012D01954FFF7F4FE68B97F2C04D8204694
:104FD800BDE81040FFF776BF24F00100BDE810409F
:104FE800FFF72CBF072010BD0020FCE7C2120020ED
:104FF800B0F5805FF8B505460E4634D210F00104CE
:105008000DD0C9B2FFF7D4FF0446681C310A80B23C
:10501800FFF7CEFF052818BF04462046F8BD134BFE
:105028001F5AB942F9D01952FFF7C2FE04460028A8
:10503800F3D17F2D12D8FBB2F2B293420CD028469E
:10504800FFF740FF0446360AB6EB172FE5D0681C79
:1050580080B2FFF737FFDDE70524F4E72846BDE80F
:10506800F840FFF7EBBE0724D7E700BFC2120020C5
:10507800B0F5805F3ABF024B185CFF20704700BF55
:10508800C212002040F6FE7398420AD8064BC207A7
:1050980041BF5A1C125C185C40EA022058BF185ADB
:1050A80070474FF6FF707047C212002080B2FFF7BA
:1050B800DFBF80B2FFF77CBF80B2FFF7E3BF80B2EB
:1050C800FFF796BF38B5C3070D4684B210D5C9B2ED
:1050D8002046FFF76DFF601CC5F30F2180B2FFF774
:1050E80087FFE01C290E80B2BDE83840FFF760BF9B
:1050F80089B22046FFF77CFFA01C290C80B2BDE8CE
:105108003840FFF775BFFFF7DDBF00000B4BDA68CB
:10511800D0070CD4DA6851070BD4DA68D2060AD45F
:10512800D86800F00100C0F10500C0B27047012046
:105138007047022070470320704700BF00200240DC
:1051480073B50446FFF7E2FF0025FF2601280FD1BB
:1051580014B9062002B070BD01950196019B1BB9D8
:10516800FFF7D4FF013CF1E7019B013B0193F5E711
:10517800002C08BF0620EDE738B5054640F6FF705D
:10518800FFF7DEFF052815D10B4C236943F0020316
:1051980023616561236943F04003236140F6FF7092
:1051A800FFF7CEFF06281EBF236923F00203236101
:1051B8003423E36038BD00BF00200240104B00F1EB
:1051C80078429A4270B505460E4616D81F20FFF75A
:1051D800B7FF052810D10B4C236943F00103236165
:1051E8001F202E80FFF7ACFF06281EBF236923F07F
:1051F800010323613423E36070BD0720FCE700BF8F
:10520800FEFF070000200240044B1A69120641BF46
:10521800034A5A6002F188325A60704700200240FF
:1052280023016745024A136943F0800313617047FD
:105238000020024008B5FBF78FFE08BD10B50C4CE6
:1052480020224FF48051204603F0D2F820224FF458
:105258000051204603F0CCF8226923691B0BC2F3E6
:10526800003203F002031343024A137010BD00BF5B
:1052780000040048C92200201E4B1A691B6910B59A
:105288001B0BC2F3003203F0020313431A4A1B4CF0
:10529800117843EA8103DBB21370194A03F00F0354
:1052A800D35C227813445BB2032B237020DD154AAC
:1052B80013780021013313700846FFF7BBFF012064
:1052C80094F90030033308DA0E4A1378013B13705F
:1052D80001210020FFF7AEFF012094F900305A4267
:1052E80002F0030203F0030358BF5342237010BDBA
:1052F8000020E5E700040048C9220020C822002059
:10530800D7B20008CA22002008B5FBF74DFE08BD39
:105318000120704708B5FFF7FBFF08BD2DE9F84FDE
:10532800184F194EDFF864B00024824625462346FC
:10533800B946B0465BF8042B22F00F0102F00F02C9
:105348000969D140C94301F00102114607F8012B50
:10535800A240154316F8012B9142E0B202D1BAF1EE
:10536800000F02D0FFF7D0FF01230134042CE1D154
:1053780033B12846FFF7CEFFD9F80030C8F800301F
:10538800BDE8F88FCB220020CF220020E8B2000829
:1053980070B50B4D0424012655F8040B00F00F01DD
:1053A800202206FA01F120F00F00013C03F020F85A
:1053B80014F0FF04F0D1BDE870400120FFF7AEBF44
:1053C800E8B20008F8B5144682789DF818701D46B2
:1053D800284B92B11C7000F0D3FB274B188004F1C6
:1053E8002003DBB2072B44D804F007040120A040B7
:1053F800C0B2BDE8F840FCF775B91E78A6422ED1B8
:105408001D4B188800F0C1FBC72828D8AE4205F10B
:10541800200415D006F12003DBB2072B06D806F0CE
:1054280007060120B040C0B2FCF765F9E3B2072BCC
:1054380006D805F0070301209840C0B2FCF752F9DE
:105448003846E4B2FCF748F9072C12D805F00705EE
:105458000120A840BDE8F840C0B2FCF74CB904F1FF
:105468002003DBB2072B04D804F007040120A04076
:10547800F0E7F8BDD3220020D422002013B545F66A
:10548800F74304469C4208460FD845F6F3439C422E
:1054980012D845F6D9439C421DD045F6DA439C42C2
:1054A8003ED045F6D8439C420FD0807800283BD0A8
:1054B8001E4B00221A701CE0A4F5B944753C022C5E
:1054C8000ED8DFE804F0181F260026230093E123F6
:1054D8001A4621460AE027230093E523E522F8E748
:1054E80026230093E022E12345F6F441FFF76AFF03
:1054F800002002B010BD27230093E422E52345F6DF
:10550800F541F3E726230093E222E12345F6F6412D
:10551800ECE727230093E622E52345F6F741E5E784
:10552800282300930123D9E70120E2E7D3220020B2
:1055380038B505468878002800F0FD8045F6035305
:105548009D421BD845F6FA439D4204D8A5F5B843B9
:10555800023B132B16D8FDF72FF8784C45F6154368
:105568009D42208020D845F601439D420BD82088D3
:10557800FDF72EF8FCF7E3FA002003E045F6625346
:105588009D42E8D038BDA5F5B845033D122D2AD86F
:10559800DFE805F02E323643474B4F556B6F737774
:1055A80083878B8F95C1A50045F603539D420ED87E
:1055B80045F6FA439D42DAD9A5F5B9457C3D072D54
:1055C80022D8DFE805F026626648849BB2B645F625
:1055D80062539D42CBD12378C3F3001282F00102BB
:1055E80062F3041302E0237843F001032370BEE75B
:1055F800237843F00203F9E7237843F00403F5E73F
:10560800237843F00803F1E7637843F001036370FC
:10561800ADE7637843F00203F9E7237843F010031A
:10562800E4E7237843F02003E0E7237843F04003DE
:10563800DCE7FCF784FA237843F08003D6E7237885
:1056480023F00C0343F00C0323703D48002204218F
:10565800FEF752FB8BE7637823F0030343F0030361
:105668006370384800220421F2E723786FF30003BF
:10567800BCE723786FF34103B8E723786FF382031D
:10568800B4E723786FF3C303B0E763786FF30003DD
:10569800BDE763786FF34103B9E723786FF3041329
:1056A800A4E723786FF34513A0E723786FF38613F5
:1056B8009CE7FCF744FA23786FF3C71396E723783F
:1056C80023F00C03237000221F480221C0E76378EF
:1056D80023F00303637000221C480221B8E72278F4
:1056E800C2F3800383F00103DBB263F3820263F346
:1056F800C302227012F00802E6D0A6E76278D3430C
:1057080003F0010363F3000263F34102627012F0D5
:105718000202E1D0A5E7FCF712FA2378C3F3C0121E
:1057280082F0010262F3C71360E70120FCF7C0FFB3
:105738001DE70020FAE7012024E700BF2425002008
:10574800580F0020880F0020480F0020780F0020F5
:1057580045F61643984210B50C461BD1FCF72EFEB1
:10576800A2780D4B72B100F0AA00002815BF0122E3
:105778000022352029201A70FCF7BEFDFCF790FEA8
:10578800002010BD1B78002B14BF35202920FCF702
:10579800BBFDF3E70120F4E7D6220020014B186097
:1057A800704700BFD8220020024B186808B1036870
:1057B80018477047D8220020F8B5194B1B680446D3
:1057C800002B2CD0174A127842B1174A92F90020C0
:1057D800002ABFBF0278427005220270134D5B6831
:1057E800204698472B78580719D5D90702D510486D
:1057F800FDF7B0FE0F4F04F108062B78DA0703D542
:1058080021783846FDF7A6FE0134B442F5D12B784D
:10581800DB0704D5BDE8F8400748FDF79BBEF8BD97
:10582800D8220020FC10002024250020651200202A
:10583800F8B200080AB30008D5B20008034A126893
:105848001AB102210170936818477047D8220020C6
:10585800054A1188814205D0044B10801B680BB1A2
:10586800DB681847704700BFDE220020D8220020DE
:10587800054A1188814205D0044B10801B680BB182
:105888001B691847704700BFDC220020D82200207F
:105898000C4B1B78821C63B10B4B93F90030002B27
:1058A800ACBF06231E230020013BDBB2FF2B02D135
:1058B80070470623F7E712F8011B0029F4D00130DE
:1058C800C0B2F1E7FC10002024250020F1B1114BF3
:1058D8001B789BB1104B93F90030002B0EDAEF299F
:1058E8004FEAD10212D8104401F00701827801234F
:1058F8008B40134214BF012000207047831C0830DE
:1059080013F8012B8A4203D08342F9D10020704753
:1059180001207047FC1000202425002030B54FF0EE
:10592800FF32841C002314F8015B8D420ED0B2F1C3
:10593800FF3F02D1002D08BF1A460133DDB2062D04
:105948005BB2F0D1531C01D01044817030BD10B54A
:10595800831C0022083013F8014B8C4208BF03F85F
:10596800012C8342F7D110BDEF294FEAD10209D8A3
:10597800104401F00703012202FA03F3827813436B
:1059880083707047034B1B78DB0702D50248FDF78D
:10599800E1BD70476512002010B30008EF294FEAF7
:1059A800D10209D8104401F0070301229A408378F4
:1059B80023EA020383707047034B1B78DB0702D589
:1059C8000248FDF7C7BD7047651200202EB30008D6
:1059D80010B40A4C247803460A4644B1084C94F99A
:1059E8000040002C03DA5DF8044BFFF7BDBF5DF8FB
:1059F800044B11461846FFF791BF00BFFC1000206A
:105A08002425002010B40A4C247803460A4644B1E1
:105A1800084C94F90040002C03DA5DF8044BFFF7BA
:105A2800BDBF5DF8044B11461846FFF790BF00BF95
:105A3800FC10002024250020094A1278831C4AB152
:105A4800084A92F90020002A04DA1E22002118468A
:105A580004F090BC0022C0F802209A80704700BF72
:105A6800FC1000202425002008B501F00DFABDE83F
:105A7800084000F05DBE704708B5FFF7FCFF08BDA1
:105A880008B50020FBF702FDFEF7CCF8FFF7F4FF9E
:105A9800BDE80840AA2001F0CCB87047704710B59F
:105AA800FFF7FBFFFDF7F4F9FFF7F8FF0024E0B27A
:105AB800FDF70AF918B90134082CF8D110BD0120F6
:105AC800FCE7704708B5FFF7FCFF08BD08B5FCF711
