:020000040800F2
:1000000000040020C9020008CB020008CB0200084F
:10001000CB020008CB020008CB020008CB0200088C
:10002000CB020008CB020008CB0200089D74000838
:10003000CB020008CB020008CB020008CB0200086C
:10004000CB020008CB020008CB020008CB0200085C
:10005000CB020008CB0200082D8100086D8100084A
:10006000B1810008F581000839820008058A00087E
:10007000198A00082D8A0008418A0008558A00085C
:10008000698A00087D8A0008CB020008CB020008BC
:10009000CB020008CB020008CB0200087D820008DA
:1000A0008184000895840008998400089D840008D4
:1000B00095920008B18E0008A9920008558C00089E
:1000C000598D0008CB020008CB020008CB020008C3
:1000D000CB020008CB020008CB020008CB020008CC
:1000E00065830008CB020008CB020008CB020008A1
:1000F000A5900008CB020008CB020008CB02000844
:10010000CB020008CB020008CB020008CB0200089B
:10011000CB020008CB0200087D90000891900008F7
:10012000918A0008A58A0008B98A0008CD8A0008CB
:10013000E18A0008CB020008CB020008CB020008CD
:10014000CB020008CB020008CB020008CB0200085B
:10015000CB020008CB020008CB020008CB0200084B
:10016000CB020008CB020008CB020008F592000881
:10017000CB020008CB020008CB020008CB0200082B
:10018000CB020008CB020008CB020008CB0200081B
:10019000CB020008CB020008CB020008CB0200080B
:0801A000D50C0008B10C0008A9
:1001A80072B6394880F30888384880F30988384897
:1001B8004EF60851CEF20001086040F20000CCF281
:1001C80000004EF63471CEF200010860BFF34F8F85
:1001D800BFF36F8F40F20000C0F2F0004EF6885176
:1001E800CEF200010860BFF34F8FBFF36F8F4FF05F
:1001F8000000E1EE100A4EF63C71CEF200010860F4
:10020800062080F31488BFF36F8F06F0C3FD06F055
:100218006FFB4FF055301F491B4A91423CBF41F8D4
:10022800040BFAE71C49194A91423CBF41F8040BF8
:10023800FAE71A491A4A1B4B9A423EBF51F8040B77
:1002480042F8040BF8E700201749184A91423CBFCE
:1002580041F8040BFAE706F0A1FD06F09CFD144CEA
:10026800144DAC4203DA54F8041B8847F9E702F04E
:100278007FFD114C114DAC4203DA54F8041B88473A
:10028800F9E706F089BD000000040020000C0020FA
:1002980000000008000000200004002088C50008B5
:1002A800000C0020AC120020B01200209C3200206C
:1002B800A0010008A4010008A4010008A801000882
:1002C8006EE700F000F8FEE72DE9F04F2DED108AFB
:1002D800C1F80CD0C3689D46BDEC108ABDE8F08F0C
:1002E800002383F311882846A047002007F000F870
:1002F800FEE706F094FF00DFFEE7000081F0004112
:1003080002E000BF83F0004330B54FEA41044FEAF2
:10031800430594EA050F08BF90EA020F1FBF54EA8D
:10032800000C55EA020C7FEA645C7FEA655C00F029
:10033800E2804FEA5454D4EB5555B8BF6D420CDDFA
:100348002C4480EA020281EA030382EA000083EA7D
:10035800010180EA020281EA0303362D88BF30BD1D
:1003680011F0004F4FEA01314FF4801C4CEA113173
:1003780002D0404261EB410113F0004F4FEA0333D2
:100388004CEA133302D0524263EB430394EA050F5D
:1003980000F0A780A4F10104D5F1200E0DDB02FACC
:1003A8000EFC22FA05F2801841F1000103FA0EF260
:1003B800801843FA05F359410EE0A5F120050EF126
:1003C800200E012A03FA0EFC28BF4CF0020C43FA57
:1003D80005F3C01851EBE37101F0004507D54FF064
:1003E800000EDCF1000C7EEB00006EEB0101B1F5B4
:1003F800801F1BD3B1F5001F0CD349085FEA3000FA
:100408004FEA3C0C04F101044FEA445212F5800F04
:1004180080F09A80BCF1004F08BF5FEA500C50F1A1
:10042800000041EB045141EA050130BD5FEA4C0C84
:10043800404141EB0101013C28BFB1F5801FE9D2E1
:1004480091F0000F04BF01460020B1FA81F308BF04
:100458002033A3F10B03B3F120020CDA0C3208DDD0
:1004680002F1140CC2F10C0201FA0CF021FA02F1AB
:100478000CE002F11402D8BFC2F1200C01FA02F11B
:1004880020FA0CFCDCBF41EA0C019040E41AA2BF40
:1004980001EB0451294330BD6FEA04041F3C1CDA08
:1004A8000C340EDC04F11404C4F1200220FA04F028
:1004B80001FA02F340EA030021FA04F345EA0301D2
:1004C80030BDC4F10C04C4F1200220FA02F001FA94
:1004D80004F340EA0300294630BD21FA04F0294616
:1004E80030BD94F0000F83F4801306BF81F48011AF
:1004F8000134013D4EE77FEA645C18BF7FEA655C22
:1005080029D094EA050F08BF90EA020F05D054EAF3
:10051800000C04BF1946104630BD91EA030F1EBFF8
:100528000021002030BD5FEA545C05D140004941FC
:1005380028BF41F0004130BD14F580043CBF01F5EF
:10054800801130BD01F0004545F0FE4141F47001D5
:100558004FF0000030BD7FEA645C1ABF19461046B0
:100568007FEA655C1CBF0B46024650EA013406BFB1
:1005780052EA033591EA030F41F4002130BD00BF70
:1005880090F0000F04BF0021704730B54FF480642D
:1005980004F132044FF000054FF0000150E700BFAE
:1005A80090F0000F04BF0021704730B54FF480640D
:1005B80004F1320410F0004548BF40424FF00001FA
:1005C8003EE700BF42004FEAE2014FEA31014FEA3D
:1005D80002701FBF12F07F4393F07F4F81F060518C
:1005E800704732F07F4208BF704793F07F4F04BFD7
:1005F80041F40021704730B54FF4607401F00045B4
:1006080021F000411CE700BF50EA010208BF704713
:1006180030B54FF000050AE050EA010208BF704704
:1006280030B511F0004502D5404261EB41014FF46D
:10063800806404F132045FEA915C3FF4D8AE4FF075
:1006480003025FEADC0C18BF03325FEADC0C18BF58
:10065800033202EBDC02C2F1200300FA03FC20FAA9
:1006680002F001FA03FE40EA0E0021FA02F11444F6
:10067800BDE600BF70B54FF0FF0C4CF4E06C1CEA0F
:1006880011541DBF1CEA135594EA0C0F95EA0C0F80
:1006980000F0DEF82C4481EA030621EA4C5123EAF3
:1006A8004C5350EA013518BF52EA033541F4801122
:1006B80043F4801338D0A0FB02CE4FF00005E1FBD5
:1006C80002E506F00042E0FB03E54FF00006E1FB1F
:1006D80003569CF0000F18BF4EF0010EA4F1FF0462
:1006E800B6F5007F64F5407404D25FEA4E0E6D41A2
:1006F80046EB060642EAC62141EA55514FEAC520B3
:1007080040EA5E504FEACE2EB4F1FD0C88BFBCF52E
:10071800E06F1ED8BEF1004F08BF5FEA500E50F1DF
:10072800000041EB045170BD06F0004646EA0101A5
:1007380040EA020081EA0301B4EB5C04C2BFD4EBD7
:100748000C0541EA045170BD41F480114FF0000ED0
:10075800013C00F3AB8014F1360FDEBF002001F03E
:10076800004170BDC4F10004203C35DA0C341BDCB8
:1007780004F11404C4F1200500FA05F320FA04F08A
:1007880001FA05F240EA020001F0004221F00041BE
:1007980010EBD37021FA04F642EB06015EEA430E31
:1007A80008BF20EAD37070BDC4F10C04C4F1200561
:1007B80000FA04F320FA05F001FA04F240EA020014
:1007C80001F0004110EBD37041F100015EEA430EE5
:1007D80008BF20EAD37070BDC4F1200500FA05F205
:1007E8004EEA020E20FA04F301FA05F243EA020384
:1007F80021FA04F001F0004121FA04F220EA020093
:1008080000EBD3705EEA430E08BF20EAD37070BDD8
:1008180094F0000F0FD101F00046400041EB0101B8
:1008280011F4801F08BF013CF7D041EA060195F09A
:10083800000F18BF704703F00046520043EB030354
:1008480013F4801F08BF013DF7D043EA0603704741
:1008580094EA0C0F0CEA135518BF95EA0C0F0CD04C
:1008680050EA410618BF52EA4306D1D181EA030192
:1008780001F000414FF0000070BD50EA410606BF8C
:100888001046194652EA430619D094EA0C0F02D1D1
:1008980050EA013613D195EA0C0F05D152EA033616
:1008A8001CBF104619460AD181EA030101F0004134
:1008B80041F0FE4141F470014FF0000070BD41F07D
:1008C800FE4141F4780170BD70B54FF0FF0C4CF457
:1008D800E06C1CEA11541DBF1CEA135594EA0C0F76
:1008E80095EA0C0F00F0A7F8A4EB050481EA030EC3
:1008F80052EA03354FEA013100F088804FEA0333AA
:100908004FF0805545EA131343EA12634FEA022277
:1009180045EA111545EA10654FEA00260EF0004138
:100928009D4208BF964244F1FD0404F5407402D28A
:100938005B084FEA3202B61A65EB03055B084FEA1B
:1009480032024FF480104FF4002CB6EB020E75EB18
:10095800030E22BFB61A754640EA0C005B084FEA40
:100968003202B6EB020E75EB030E22BFB61A7546BD
:1009780040EA5C005B084FEA3202B6EB020E75EB08
:10098800030E22BFB61A754640EA9C005B084FEA80
:100998003202B6EB020E75EB030E22BFB61A75468D
:1009A80040EADC0055EA060E18D04FEA051545EA7C
:1009B80016754FEA06164FEAC30343EA52734FEA25
:1009C800C2025FEA1C1CC0D111F4801F0BD141EA9E
:1009D80000014FF000004FF0004CB6E711F4801F03
:1009E80004BF01430020B4F1FD0C88BFBCF5E06FE3
:1009F8003FF6AFAEB5EB030C04BFB6EB020C5FEAF3
:100A0800500C50F1000041EB045170BD0EF0004E47
:100A18004EEA113114EB5C04C2BFD4EB0C0541EA79
:100A2800045170BD41F480114FF0000E013C90E676
:100A380045EA060E8DE60CEA135594EA0C0F08BF3A
:100A480095EA0C0F3FF43BAF94EA0C0F0AD150EA39
:100A580001347FF434AF95EA0C0F7FF425AF1046CC
:100A680019462CE795EA0C0F06D152EA03353FF4F4
:100A7800FDAE1046194622E750EA410618BF52EA71
:100A880043067FF4C5AE50EA41047FF40DAF52EA45
:100A980043057FF4EBAE12E74FF0FF3C06E000BFE2
:100AA8004FF0010C02E000BF4FF0010C4DF804CDEF
:100AB8004FEA410C7FEA6C5C4FEA430C18BF7FEAAF
:100AC8006C5C1BD001B050EA410C0CBF52EA430CDD
:100AD80091EA030F02BF90EA020F0020704710F15D
:100AE800000F91EA030F58BF994208BF90422CBFEC
:100AF800D8176FEAE37040F0010070474FEA410CE5
:100B08007FEA6C5C02D150EA013C07D14FEA430C02
:100B18007FEA6C5CD6D152EA033CD3D05DF8040B73
:100B2800704700BF8446104662468C4619466346A5
:100B380000E000BF01B5FFF7B7FF002848BF10F17C
:100B4800000F01BD4DF808EDFFF7F4FF0CBF0120C1
:100B580000205DF808FB00BF4DF808EDFFF7EAFF3D
:100B680034BF012000205DF808FB00BF4DF808EDF8
:100B7800FFF7E0FF94BF012000205DF808FB00BFED
:100B88004DF808EDFFF7CEFF94BF012000205DF877
:100B980008FB00BF4DF808EDFFF7C4FF34BF012084
:100BA80000205DF808FB00BF4FEA410C7FEA6C5C4F
:100BB80002D150EA013C0AD14FEA430C7FEA6C5C4F
:100BC80002D152EA033C02D14FF0000070474FF0C7
:100BD800010070474FEA4102B2F1E04324BFB3F588
:100BE800001CDCF1FE5C0DD901F0004C4FEAC0029C
:100BF8004CEA5070B2F1004F40EB830008BF20F080
:100C08000100704711F0804F21D113F13872BCBF39
:100C180001F00040704741F480114FEA5252C2F18E
:100C28001802C2F1200C10FA0CF320FA02F018BFD7
:100C380040F001004FEAC1234FEAD32303FA0CFC2A
:100C480040EA0C0023FA02F34FEA4303CCE77FEAB9
:100C5800625307D150EA01331EBF4FF0FE4040F403
:100C68004000704701F0004040F0FE4040F40000B2
:100C7800704700BF53B94AB9002908BF00281CBFF4
:100C88004FF0FF314FF0FF3000F00CB8ADF1080C19
:100C98006DE904CE09F02AFEDDF804E0DDE902235F
:100CA80004B07047704700BF10B5054C237833B9BE
:100CB800044B13B10448AFF300800123237010BD27
:100CC800B01200200000000088C5000808B5034BDA
:100CD8001BB103490348AFF3008008BD00000000C2
:100CE800B412002088C50008082823D8DFE800F0DF
:100CF8002C05070A0F14191E200001207047134BFA
:100D080018787047124B187800F001007047104BA4
:100D18001878C0F3400070470D4B1878C0F3800076
:100D280070470B4B1878C0F3C0007047094BEAE7CF
:100D3800084BEDE7084A093812680123834013423B
:100D480014BF01200020704700207047CC120020FB
:100D5800D4120020CD120020D01200202DE9F0413D
:100D68002A4C2178002933D1294D2878FFF7BCFF78
:100D780080466878FFF7B8FF0746A878FFF7B4FF02
:100D88000646E878234DFFF7AFFF234B434403EBB8
:100D9800470303EB860313F830002B782BB91F4E5B
:100DA8003278013202F00302327001330322B3FBBE
:100DB800F2F202EB42029B1A194A2B7013780133A4
:100DC80003F00F031370174B1A6800EB420018600A
:100DD800013101F001012170134C2078FFF784FFE5
:100DE80001466078FFF780FF0546A078FFF77CFF93
:100DF800830003EB45000144E078FFF775FFC9B2B3
:100E080001EBC000C0B2BDE8F08100BFCC120020E9
:100E1800040C0020CE120020080C0020CD12002067
:100E2800D4120020D0120020000C002001F066BE71
:100E380006230422032100F06DB90000A0F5BA4092
:100E4800633810B5052852D8DFE800F0030D111FEC
:100E580015458C78BCB1274802F09CFA002000F0B8
:100E680043F900240FE08C786CB10120F7E78C7807
:100E78004CB10220F3E78C78E52014B100F058FA61
:100E8800EFE700F0D9FA204610BD8C78002CFAD094
:100E980002F0E8FD00220621174802F04DFE04206A
:100EA80000F00CFE032000F009FE062000F006FE0C
:100EB800052000F0F9FD01F089FA08B901F014FBEA
:100EC80001F098FA0D4B188060F07F0018701888B0
:100ED80001F09CFAC5E78C78002CD4D00848002291
:100EE800062102F029FE052000F0E8FDB9E70124FB
:100EF800C9E700BF7AAC00084C0C00202C2D00205C
:100F08001C0C0020104B1B7810B50C46A3B1042014
:100F180000F0B6FD40B10D4A13781CB101331370CF
:100F2800012010BD013BFAE7094A138814B10133C7
:100F38001380F5E7013BFBE719B1FA2000F0EAFA64
:100F4800EEE7F920FAE700BFD8120020180C0020BD
:100F58001A0C002010B5024618B1012819D001203A
:100F680010BD0F4C237851B11BB10E48062102F079
:100F7800E3FD062000F098FD01232370EFE723B17D
:100F88000A460948062102F0D7FD062000F096FD22
:100F9800F2E70029054B0CBF084610461870DEE73B
:100FA800D91200204C0C00201C0C0020D812002064
:100FB80070B5214A214D14782B888AB0002C35D081
:100FC8004BBB1F4B01AA03F1200618685968144649
:100FD80003C40833B3422246F7D119889B78A3701B
:100FE8002180FFF7BBFE00F128030DEB0300154B32
:100FF80010F8244C1B78144E1C443078E4B2A042FC
:1010080009D002F0B5FC02F037FE204602F0B0FC31
:1010180002F012FF34700D4A2B8812880133B3FB9B
:10102800F2F102FB11332B800AB070BD002BFBD00C
:1010380002F018FD2C80F7E7D8120020D612002005
:1010480004AC0008180C0020D51200201A0C00204F
:10105800A0F5A2400338012894BF00200120704762
:101068000120704708B5FFF7E9FE08BD704708B5CD
:10107800FFF7FCFF08BD000013B502AB03E903004E
:101088000F4B1B78B3B99DF8023073B16AB100F009
:1010980089FD04460146009800F040FD009920466D
:1010A80002B0BDE8104001F017BB009800F05AFDEF
:1010B8000446F3E7009800F075FD0099F0E700BFDB
:1010C800DA12002003460A4600689988FFF7D4BF61
:1010D8000120704710B500210446FFF7F3FF2146B1
:1010E800FFF7C5FF10BD000038B5054608480124C4
:1010F80000EBC510AC400022102102F01DFDE0B24B
:1011080001F074F92046BDE8384000F08ABC00BF01
:101118007C0C002010B5012404FA01F104FA02F253
:10112800114304FA03F381430CBF1843984310BDDD
:1011380008B501F0C3FC00F0C5F802F06FFDBDE88A
:101148000840FFF773BE08B503F030F9002004F03B
:1011580049FCBDE8084001F0D2BC704710B500F06A
:101168000CFC03F0E3F805F06FF8002204460321B5
:10117800094802F0E1FCFFF7F0FF204605F069F8A6
:10118800F92805D902F06EFCBDE8104005F06EB8EC
:101198000A2006F0B2F8F0E7FC0D002038B501216E
:1011A8000546FFF78FFF29460446FFF75BFF08B99E
:1011B800002038BD2946204602F000FC0028F7D060
:1011C8002946204603F054F90028F1D02946204644
:1011D80004F0B8FC0028EBD02946204604F00CFDAA
:1011E8000028E5D02946204604F016FE0028DFD066
:1011F8002946204604F092FA0028D9D0AB787BB172
:1012080045F65B539C4232D00ED845F601439C42CA
:1012180018D045F6DF439C4226D0B4F5B84F0ED01F
:101228002846FFF71DFFC4E745F65C539C4221D0D2
:1012380045F65D539C42F3D100F0CCFFF0E7FFF791
:101248008DFFB5E70D4A1078C0F3000383F0010362
:1012580063F3000010F00104107003D0084802F096
:1012680099F8A5E70748FAE701F03EF9A0E700F08A
:10127800BDFFD5E700F0BDFFD2E700BF891300200E
:1012880052AF000863AF00080301DBB243EA101055
:101298008300801000F0330003F0CC0303435800B0
:1012A8005B1003F0550300F0AA001843704770471D
:1012B80008B5FFF7FCFF08BD0120704708B5FFF728
:1012C800FBFF08BD704710B50446FFF7F1FF204645
:1012D800FFF7F4FF10BD30B587B06C4684E8030013
:1012E8009DF80230BDF804500BB100F0B1FF0023A7
:1012F800ADF8163094E8030004AC0490ADF814106F
:1013080094E8030002904DB1BDF808204FF6FF7332
:101318009A4203D02046FFF7DBFE18B194E8030099
:1013280000F0A0FE07B030BD008800F05BBC0000F4
:1013380010B5044600287AD0822813D104F098FD0D
:10134800810774D4392000F0F5FE00F0C7FF4FF490
:101358007A7005F0D2FF392000F0F4FEBDE81040A5
:1013680000F0BCBF83280ED104F082FDC2075ED412
:10137800532000F0DFFE00F0B1FF4FF47A7005F063
:10138800BCFF5320E8E784280ED104F071FD430721
:101398004DD4472000F0CEFE00F0A0FF4FF47A7045
:1013A80005F0ABFF4720D7E7031FDBB2A02B12D80D
:1013B80002F086FA00283AD11D4B2146186804F03D
:1013C800E9FD20B1204600F0BDFE00F087FF204671
:1013D80000F0B0FEC2E700F12003DBB2072B07D80C
:1013E80000F007040120A040C0B200F00BFFB5E7F1
:1013F80000F15B03DBB2022B05D82438BDE81040AE
:1014080080B204F089BD00F15803DBB2162B06D870
:10141800084ABDE8104032F8130004F08DBDEC28EE
:1014280005D903F09DF9BDE8104003F077BA10BD67
:10143800140E002076AF000808B5002858D082287E
:101448000FD104F015FD810752D5392000F072FE46
:1014580000F044FF392000F075FEBDE8084000F0B8
:101468003DBF83280AD104F003FDC20740D55320AD
:1014780000F060FE00F032FF5320ECE784280AD128
:1014880004F0F6FC430733D5472000F053FE00F084
:1014980025FF4720DFE7021FD2B2A02ADBD900F1DF
:1014A8002002D2B2072A07D800F00703012098408B
:1014B800C0B200F0AFFED0E700F15B02D2B2022A60
:1014C80004D8BDE80840002004F026BD00F1580209
:1014D800D2B2162A04D8BDE80840002004F02CBD7A
:1014E800EC2805D903F08EF9BDE8084003F016BAD8
:1014F80008BD38B505460C46FFF71AFF24B928463B
:10150800BDE83840FFF798BF0A20013C05F0F5FE1A
:10151800A4B2F3E739280CBF50210021FFF7E9BF37
:1015280008B528B100F06EFEBDE8084000F0D6BE50
:1015380008BD08B528B100F06DFEBDE8084000F010
:10154800CDBE08BD2DE9F3478679857880460C46DF
:1015580000F016FE36090746A0B12F4695B1C4F330
:10156800072303F0F003402B04D004F12003DBB27F
:10157800072B1ED9022000F001FF00F001FE80F0C9
:101588000100C7B2C4F30339B9F10F0F3FD8DFE840
:1015980019F01200120063006300AF00C6003E009D
:1015A8003E00D0002C013C013C0191013E003E0070
:1015B8009A010027E6E7C4F30723C4F3032613F0D0
:1015C800F00F18BF3601E4B295B156B104F120030B
:1015D800DBB2072B304600D93CB900F013FE00F00F
:1015E8007DFE2046FFF7A4FE11E000F021FEF6E79D
:1015F8002046FFF721FF56B104F12003DBB2072B89
:10160800304600D92CBB00F005FE00F067FEA9F1BA
:101618000809B9F1030F03D804F02AFCFFF753FEB9
:10162800002F00F0578100F0A3FD10F0010040F0FA
:10163800518188F8020000F093FD00F035FA404629
:1016480000F05EF900F08CFD02B0BDE8F04700F054
:1016580035BA00F0F5FDD8E7C4F3072303F0F0032B
:10166800C4F3032A202BE4B218BF4FEA0A1A64B164
:10167800012C28D07DB34EB398F80630D807B0D5E2
:101688006FF3071388F8063020E095B13EB900F0F3
:10169800FBFD40EA0A00C0B2FFF742FFB7E7012EA0
:1016A800F5D100F0F1FD40EA0A00C0B200F0F8FD03
:1016B800ADE72EB900F006FE5046FFF73AFFA6E761
:1016C800012EA4D0F6E71DB1052EA0D85046E3E7B9
:1016D800042E9CD8F0E7002EEED0392C0CBF4FF426
:1016E8004870012005F009FE2046FFF7A5FE8EE7A9
:1016F80014F4406FC4F3812307D0012B87D165B15F
:10170800C4F3090004F018FC81E725B1C4F309000B
:1017180004F002FC7BE72846FAE72846F2E7E0B245
:1017280025B103F01DF803F0F9F870E703F06AF843
:10173800F9E714F4407F27D1002D7FF468AFC4F394
:101748004213E1064FEA830348BF0F25DBB248BFC7
:101758009D4004F00F02C4F3812448BFED439A4032
:10176800022C45EA020009D0032C0AD0012C02D031
:1017780000F062F94BE700F057F948E700F064F928
:1017880045E700F04EF942E7C4F301220DB312F029
:10179800010F3FF43CAFC4F3421314F010004FEABA
:1017A8008303DBB21CBF0F20984004F00F02C4F380
:1017B800812402FA03F214BFC3430346022C43EA0E
:1017C80002000CD0032C0DD0012C05D000F094F9A8
:1017D8001DE712F0020FDCE700F086F917E700F0CA
:1017E80093F914E700F03CF911E7E6B2C4F30324D7
:1017F80025B1204600F058F930464DE73046FFF74E
:1018080098FE204600F05AF901E75FFA84FAAAF137
:10181800F003042B39D8DFE803F0030E151A230070
:101828003DB1042E3FF6F3AEC4F3042000F052F9A4
:10183800EDE6052EF6E7C4F30420002DE2D000F013
:1018480033F9E4E6C4F30420002DF8D0DAE725B133
:10185800C4F3042000F022F9D9E600F00DF9D6E629
:101868004DB1C4F30420019000F01EF90198032142
:1018780000F060FDCBE6012000F080FD012E7FF630
:10188800C6AE022000F07AFDC1E62DB10EB1504679
:10189800A8E6C4F30420D2E74EB1BAF1390F0CBF61
:1018A8004FF44870012005F028FD50461DE7C4F3A9
:1018B8000420A7E7C4F30322E1B2404600F008FF82
:1018C80000F0C0F9A3E6C4F30322E1B2404600F0F9
:1018D80001FF9CE602B0BDE8F08713B50188044615
:1018E800807800F08BF90146019100F015F900F0BD
:1018F80097F80199204602B0BDE81040FFF722BED4
:1019080013B504460068A3880090D3B1BDF8002041
:101918004FF6FF739A4214D02046FFF73FFC50B9A8
:1019280000F02EFC68B1A3785BB1022002B0BDE8DC
:10193800104000F023BD2046FFF7CFFF2046FFF7F9
:10194800C9FB02B010BD08B5002004F0E5FA00207C
:1019580004F0F2FA00F07CFC00F090FC00F0BEFC11
:1019680003F012F9BDE8084002F0D8BF08B500F04E
:10197800F1FBBDE80840FFF7E6BF08B500F052FCF0
:10198800BDE80840FFF7F2BFC0F30332023AC3B222
:101998000D2A1CD8DFE802F007071B1B141B1B1BB2
:1019A8000707181B1B18F02B13D004D8E72B8CBF84
:1019B800002001207047F42B14BF0020012070473D
:1019C800E72B06D9F12BF7E7C0F3C02070470020BA
:1019D80070470120704708B5008800F003F9BDE89A
:1019E8000840FFF7D1BF82B002AB03E9030002B0A1
:1019F800704782B002AB03E9030002B0704770473A
:101A080008B5FFF7FCFF08BD08B5FFF7F9FF034B62
:101A18001860BDE80840FFF796BF00BFDC12002041
:101A28007047FFF7F1BF0000024B1B681843FFF730
:101A3800EBBF00BFDC120020024B1B681840FFF709
:101A4800E3BF00BFDC120020024B1B685840FFF7C1
:101A5800DBBF00BFDC12002008B5FFF7E9F908BDBD
:101A680008B5FFF7F9FF034B1860BDE80840FFF71A
:101A78006ABF00BFE01200200020FFF7F1BF00009E
:101A8800054B1B681BB9B0FA80F04009704723FA70
:101A980000F000F001007047E0120020012303FA73
:101AA80000F0FFF7DDBF0000012303FA00F0024B4E
:101AB8001B681843FFF7D4BFE0120020012303FA84
:101AC80000F0034B1B6823EA0000FFF7C9BF00BF03
:101AD800E0120020012303FA00F0024B1B68584073
:101AE800FFF7BEBFE0120020024B1B681843FFF748
:101AF800B7BF00BFE0120020024B1B681840FFF779
:101B0800AFBF00BFE0120020024B1B685840FFF730
:101B1800A7BF00BFE012002070470000C0F30723F2
:101B280003EB430337B500EB430000F007030C4A0F
:101B38000124C0F3C40000EB80009C400244E4B2DE
:101B48000020157821FA00F343F300036B4023408B
:101B580001305D40052802F8015BF2D103B030BDC9
:101B6800E4120020C0F3072303EB430313B500EB93
:101B780043000B4900F00704C0F3C40000EB8000E9
:101B880000220144104611F8013BE34003F0010331
:101B9800934001321843052AC0B2F4D102B010BDF7
:101BA800E41200200D4B73B51E680D4BADF8040010
:101BB8001B681F241E4326FA04F3DB07E5B205D48D
:101BC800013CF8D20025284602B070BD019928468C
:101BD80000F06AFE80B20128F2D0F4E7E01200209B
:101BE800DC12002007B5ADF804000198FFF7DAFF12
:101BF800019903B05DF804EB00F056BE13B5104B25
:101C0800ADF804101B782BB1019802B0BDE8104064
:101C1800FFF7E8BF70B10198FFF7C4FF044601461B
:101C28000198FFF77BFF0199204602B0BDE81040FC
:101C380000F03ABE0198FFF795FF0446F3E700BFAE
:101C4800DA120020F8B5034660B1002501261C46CB
:101C580014F8010B74283CD00BD802282AD002D8DB
:101C6800012812D0F8BD031F6F2BFBD8FFF760FBCC
:101C78001AE0752837D000F17C03DBB26F2BF1D85E
:101C880000F07F00FFF7D8FB0EE09C1C5B7803F1A7
:101C98002002D2B2072A0BD803F007039840C0B23B
:101CA80000F0DCFA00F01AFB2F46FFB92346CEE716
:101CB8001846DBE758789C1C00F12003DBB2072BA1
:101CC800E0D800F0070006FA00F0C0B200F0CEFA43
:101CD800E8E75F789C1C002FE6D00A20013F05F05A
:101CE8000CFBFFB2F7E75D789C1CDDE70A20013F9B
:101CF80005F003FBFFB2D8E770B5094B094E1C7815
:101D0800094D3378A34200D170BD05EBC40355F8E3
:101D1800340059680134FFF76CFE04F00704F0E75B
:101D28004B1300204A1300200A130020024B1868A6
:101D38005968FFF75EBE00BF02130020214BF7B5BC
:101D48009A7912F0F00F0AD19A7842B11E4A1F4EC2
:101D580012781F4D4FF6FF773178914201D103B0C9
:101D6800F0BD18680090988840B3BDF80010B942DB
:101D780024D005EBC20493F801C061788C451DD1CD
:101D880093F800C015F832108C4517D1A178A9B97D
:101D9800A188091A89B2C72910D899790948012256
:101DA80062F307119971A37962F30713A371FFF71F
:101DB800A7FD03B0BDE8F040FFF79EBF013202F077
:101DC8000702C9E7021300204B1300204A13002022
:101DD8000A1300202DE9F043054685B09D4CAB88D9
:101DE800ADF80430A3880068ADF80C30A3880090E3
:101DF800206829786A78AF78B5F804800290EC46B4
:101E0800002B00F0CC80BDF808E04FF6FF70864547
:101E180000F0C580A678002E00F0C180A8EB03036F
:101E2800A0799BB2C72B00F0F00900F29A802B88AA
:101E3800B9F1000F64D17345B94610D17FB90123B8
:101E480063F30710A071FFF771FF2046FFF758FDF5
:101E5800A379AB710026304605B0BDE8F0838DF854
:101E680008108DF80920B8F1000F23D0BDF808003C
:101E78004FF6FF7398421DD0F7B97748774B07782C
:101E88001B787748BB421CD10098FFF7ABFEC0F324
:101E98000332012AC3B225D90E3202F00F02012AF9
:101EA80029D810F4706F22D0AA7912F0F00F1ED141
:101EB8004E46D0E7002FCDD0A37943F00103A3719C
:101EC800C8E700EBC30494F801C0944506D110F8A4
:101ED80033C08C4502D1A478002CBBD1013303F068
:101EE8000703CFE710F4706F01D0002BE0D0203348
:101EF800DBB2072BDCD92846FFF702FDB146D7E74E
:101F080073450BD157B9A8712846FFF7F9FC2B6820
:101F180023606B686360FFF709FF9CE72846FFF7BB
:101F28005AFDD0B1CFB1A3791F2B0CD92288ADF8B7
:101F3800082002A800228DF80A20ADF80C808DF840
:101F48000E30FFF7DDFC2B6823606B686360FFF7DA
:101F5800F5FEFFF7EBFE01267DE72846FFF7D0FCEC
:101F6800F9E7B9F1000F0DD19CE80300FFF73BFD3D
:101F78002046FFF7C5FCC4F80090C4F80490FFF7AA
:101F8800D5FE95E722882B889A42C7D1002FC5D164
:101F9800A8712846FFF7B4FC276067605BE72068F4
:101FA800A2880290ADF80C20002B40D0BDF8081094
:101FB8004FF6FF7291423AD0A678002E37D1A8EB9F
:101FC80003081FFA88F8B8F1C70F29D83E46002F32
:101FD800C3D022882B889A4215D1A379DA070DD469
:101FE80013F0F0020AD0F02AAB718DD0DBB2C3F344
:101FF8000312013262F30713AB7185E72B68236084
:102008006B68636027E72846FFF7E5FC00289AD14C
:10201800A379284643F00103A371FFF771FC1AE77F
:102028009CE80300FFF7DFFC2660666073E7002F7B
:1020380093D02846FFF7CFFC064600288DD02B68A2
:1020480023606B6803486360FFF76EF9FFF776FE5D
:1020580061E700BF021300204A1300204B13002041
:102068000A130020F0B587B06C4684E803002046C8
:10207800FFF7B0FE2B4FBDF804202B4E054678B174
:1020880094E803000490ADF814103AB1BDF810209C
:102098004FF6FF739A4201D0FFF7ABFC234C3AE0AE
:1020A80094E8030004AB83E803003C78317802909D
:1020B800002AF3D0BDF808004FF6FF729042EDD029
:1020C800621C02F007028A420BD0184D3A7003CB0B
:1020D80005EBC40C45F83400CCF80410FFF70CFEEF
:1020E800DCE7FFF74AFC124B3D7035701D605D6000
:1020F800D4E704EBC000FFF76DFE80B1337804EB42
:10210800C30254F833005168FFF773FC3378013386
:1021180003F00703337030783B788342E9D107B086
:10212800F0BD00BF4A1300204B1300200A13002003
:1021380002130020024B0146186803F0ADBF00BF30
:10214800140E0020024B0146186803F0BFBF00BF01
:10215800140E0020014B186803F0D2BF140E0020A3
:10216800024B93F90000C0F3C70070476D130020BD
:10217800024B187800F00700704700BF6D1300206D
:10218800034B187810F0070018BF0120704700BFF4
:102198006D1300200C4A5378C3F38001814210B5B7
:1021A80004460FD060F382035370108800F02EF9B4
:1021B800064B1B78DB0705D521460548BDE81040CE
:1021C80001F0E8B810BD00BF2C2D002089130020B5
:1021D800A4AF0008044B5878C0F3800080F00100D9
:1021E80000F00100FFF7D6BF2C2D00200120FFF7DB
:1021F800D1BF0020FFF7CEBF014B1878704700BF52
:102208006F130020024B1A7810431870704700BFF4
:102218006F130020024A137823EA000010707047F9
:102228006F130020014B00221A7070476F130020B3
:10223800024B1A7810431870704700BF70130020C3
:10224800024A137823EA00001070704770130020C8
:10225800014B00221A70704770130020024B1A7845
:1022680010431870704700BF6C130020024A13789F
:1022780023EA0000107070476C130020014B002205
:102288001A7070476C130020014B1878704700BF14
:102298006E130020704708B5FFF7FCFF08BD00006B
:1022A800064A5278520708B506D4054A1178814281
:1022B80002D01070FFF7EFFF08BD00BF2C2D0020E3
:1022C8006E13002008B5044B1A781AB10020187054
:1022D800FFF7E1FF08BD00BF6E13002010B50D4BDE
:1022E8000D4A1B7812780D4C13430D4A206812785A
:1022F80013430C4A0370127832B11343037003F08E
:102308002BFE08B1FFF7DEFF2068BDE8104003F0A0
:10231800B7BD00BF6F13002070130020140E0020FB
:102328006C1300206E130020704708B5FFF7FCFF00
:1023380008BD00000A4A5278520710B50CD4094C5F
:1023480041EAC0012170FFF7AFFB94F90000C0F328
:10235800C700FFF7EAFF10BDBDE81040FFF7A4BBB8
:102368002C2D00206D13002008B5034B0020187099
:10237800FFF7DBFF08BD00BF6D13002008B50C4A4E
:1023880092F9003023EA000040B21070420702D1EF
:10239800DBB2834203D1074B5B785B0707D5C0F3F9
:1023A800C700FFF78BFBBDE80840FFF7DDBF08BD9E
:1023B8006D1300202C2D002008B502F011FDBDE89A
:1023C80008404FF6FF71002002F099BD08B50020C3
:1023D80002F092FD4FF6E963C31A5842584108BD0E
:1023E800022002F083BD032002F080BD01460320D5
:1023F80002F07FBD10B5042002F078FD04462220CB
:1024080002F074FD44EA002080B210BD10B5C1B2DC
:102418000446042002F06DFD210A2220BDE8104088
:1024280002F067BD072002F061BD0146072002F0F7
:1024380060BD01460F2002F0A8BD0146132002F03E
:10244800A4BD0020FFF7F9BF08B50020FFF7F1FF92
:10245800FFF7F7FF08BD000010B502F0C1FC4FF60A
:10246800E961002002F04BFD0021022002F041FD4D
:1024780000210320002402F03CFD1A4B21460420D1
:102488001C6002F036FD2146222002F032FD214672
:10249800052002F02EFD2146062002F02AFDFF212C
:1024A800072002F026FD2146082002F06EFD214695
:1024B8000D2002F01EFD2146182002F066FD21467F
:1024C800172002F016FD21461C2002F05EFD214671
:1024D800202002F014FD2146182002F056FDFFF7D7
:1024E800B3FF10BDDC120020FFF7B6BF01460E2077
:1024F80002F0FFBC08B503F07BFE024B1860024BEC
:10250800186008BD781300207C13002008B503F07C
:102518006FFE024B1860024B186008BD781300204C
:10252800741300207047704708B5FFF7FCFF08BD1B
:10253800704708B5FFF7FCFF08BD000008B505485F
:1025480000F096FA02F002FCFFF7ECFFFFF7ECFF51
:1025580008BD00BF956800080120704708B5FFF75F
:10256800FBFF08BD7047704708B5FFF7FBFFFFF793
:10257800FAFF08BD08B503F039FE00F093FB03F03D
:102588007DF803F0BFF903F067FAFFF7D2FF08BD43
:1025980038B50E4D2B780446580711D5D9070FD5F5
:1025A8000B4800F0F7FE2B78DA0709D509482146D1
:1025B80000F0F0FE2B78DB0702D5074800F0EAFEB2
:1025C8002046BDE83840FEF77EBE00BF89130020D4
:1025D800B9AF0008CCAF0008E9BD00082DE9F74FF6
:1025E80000F076FB08B1FFF785FFDFF8DCA0DFF825
:1025F800DC8000255646EFB2384600F085FA1AF816
:10260800014B8442814644D098F800309B0701D59D
:1026180000F080FA84EA0904E3B20022012423428C
:102628005FFA82FB30D0FFF799FFA8B119EA040FCF
:1026380014BF012300238DF802308DF800B08DF807
:10264800017003F001FE40F00100ADF8040002AB98
:1026580013E90300FEF73FFE735D6340735503F013
:102668006FF908B1FFF752FF164C02F0CBF903F0EF
:10267800FFFB2378834222D003F0FAFB207003B0DB
:10268800BDE8F04FFFF784BF01326400062AE4B2C8
:10269800C5D10135082DAED14FF6FF73ADF8003026
:1026A80000238DF8023003F0CFFD40F00100ADF8B3
:1026B800040002AB13E90300FEF70DFECFE703B0F9
:1026C800BDE8F08F801300208113002089130020BB
:1026D80000207047704700003022C1F307235043A1
:1026E800062202FB030050FA81F1034B33F8110074
:1026F80082B002B0704700BFB2AC0008014B33F89B
:102708001000704700B0000810B500F0D9F8B0F517
:10271800A04F044630D2B0F5804F80F08B80DF2880
:1027280012D8BF287AD8A7280AD8A42869D8012897
:1027380004D0031F9BB2A12B28BF0024204610BD44
:10274800BF2863D10024F9E7B0F5005F0BD2FF285A
:10275800F4D8E728F2D9A0F1ED039BB2122BF1D8F7
:1027680040F4A04426E0B0F5405F5DD30205C3B253
:102778005DD443F44044E1E7B0F5AA4F1CD2B0F56C
:10278800A84FC3B276D2B0F5A64F0AD2B0F5A44F7F
:1027980066D2B0F5A24F52D34AF2F10444EA0324B8
:1027A800CCE79A08012403F003039C4044EA42144E
:1027B80044F40A44A4B2C1E7B0F5B44F0FD2B0F55F
:1027C800B24F63D2B0F5AC4F57D3A0F5B0439BB22C
:1027D800FF2BB7D84AF2F00343EA00233EE0A0F506
:1027E800C0439BB2B3F5005FACD2C0F3042000F045
:1027F800E7F80002E4B200F4F850204340F4005433
:102808009CE7A0F1240444F48044D3E75834254BD2
:10281800E4B233F8144044F488448FE7C03880B2F7
:10282800FFF76CFF044689E7C0F30B00F8E743F4B1
:10283800484483E7C0F30B0444F420447EE7C3F321
:1028480081025201C0F3011442EA042403F0030395
:10285800012202FA03F3234343F40C439CB26DE7CD
:102868009A08012403F003039C4044EA421444F408
:102878000C449FE74AF2F40490E7C0B200F0A0F8D5
:10288800040204F4F85444F4005457E700F00F002D
:1028980000F096F8C4F3031440EA042040F4104012
:1028A80084B24BE7D2AF000807B5ADF80410019920
:1028B800FFF712FF03B05DF804EBFFF725BF000038
:1028C800E7284DD8DF2807D8312861D00ED8292825
:1028D80057D02A2863D07047A0F1E003072B3FD8D0
:1028E800DFE803F0123E2126303E3A3F392804D073
:1028F800822802D035283DD07047304B1B7813F022
:10290800030F18BFE02070472C4A1378D9074DD41D
:10291800527812F0010F23D013F0100F08BFE320F4
:1029280018BF00207047254B1B7813F0040FF2E7FF
:10293800224A137859073BD45278D2073AD413F075
:10294800100FEDE71D4B5A78910709D51B7813F046
:10295800100F08BFE720E3E7184B1B781A07F6D4D7
:102968007047164A1378190726D452789207E6D585
:10297800E420F5E7114B1B7813F0200F18BF29202E
:1029880070470E4B1B7813F0200F18BF3520704787
:102998000A4B1B7813F0400F18BF2A207047074BCB
:1029A8001B7813F0400F18BF31207047392070474B
:1029B800E2207047E0207047E62070472C2D002069
:1029C800294A1378590707D500F01801082927D193
:1029D80000F0F70040F00400190707D500F01801CF
:1029E800182926D100F0E70040F014005278D107EA
:1029F80007D500F01801082924D100F0F70040F0AD
:102A08000100920707D500F01802182A23D100F018
:102A1800E70040F01100DB0648BF00F0E700704710
:102A280000F01401042904BF00F0FB0040F0080086
:102A3800D2E700F01401142904BF00F0EB0040F0C5
:102A48001800D3E700F01101012904BF00F0FE00CF
:102A580040F00800D5E700F01102112A04BF00F089
:102A6800EE0040F01800D6E72C2D0020002070471B
:102A7800014B1860704700BF180E0020014B1B68FF
:102A8800184700BF180E0020FFF796BC08B500F0E5
:102A98001FF9642004F031FC00F01AF9002000F05E
:102AA80033F8C30705D5FFF7EFFFBDE8084003F08B
:102AB800DDBB08BD08B5FFF7E9FF08BD08B5FFF79E
:102AC80085FC08B9FFF710FDFFF78AFC084B187062
:102AD800FFF790FC074B1880FFF7ECFFFFF783FC2C
:102AE800FEF79FFF044B1868BDE80840FEF7B4BF27
:102AF800891300202C2D0020E0120020704708B513
:102B0800FEF756FA08BD0000014B185C704700BF7D
:102B1800362D00202DE9F0410F48104DDFF84C808C
:102B28000F4F104E00F036FC00242146404600F0BE
:102B380031FC384600F02EFC15F8010BFEF7A4FB1B
:102B48000146304600F026FC0134074800F022FC1C
:102B5800082CEAD1BDE8F08100B00008362D00202D
:102B6800C9AF00080FB00008E9BD0008CCAF0008E5
:102B7800012004F0C2BB00BF00BF00BF00BF00BF00
:102B880000BF00BF00BF00BF00BF00BF00BF00BF45
:102B980000BF00BF00BF00BF00BF704708B5FFF708
:102BA800E7FF08BD08B5202282F31188012100F053
:102BB8000F03994020F00F0005F0A8FF002383F3CE
:102BC800118808BD38B50C4D082455F8040B421C73
:102BD80001D0FFF7E7FF013C14F0FF04F5D1074DE2
:102BE800062455F8040B431C01D0FFF7DBFF013C1A
:102BF80014F0FF04F5D138BD2CB0000814B000085B
:102C08002DE9F843254F57F821300646581C0D4644
:102C180040D0202282F311884FF0010823F00F09D9
:102C280003F00F0308FA03F4214642464846A4B2CB
:102C380005F06CFFA9F81A40002484F31188FFF707
:102C48009AFF17482346A14650F8042B511C23D05D
:102C580022F00F0102F00F02096921FA02F2D207ED
:102C68001AD408FA03F464B2013349EA0404062BBF
:102C78005FFA84F9E8D157F82500431C01D0FFF723
:102C880091FFB9F1000118BF01212846FFF786FF1F
:102C980006F80590BDE8F8830024E5E72CB00008A5
:102CA80014B0000808B5FFF78DFF074A002313602A
:102CB8005360064A08201360536000F033F8BDE8FB
:102CC8000840FEF735BA00BF2E2D0020362D002013
:102CD80037B50024CDE90044E1B268460134FFF776
:102CE8008FFF082CF8D10D4D22466946284607F07B
:102CF80041FF00281DBF6A4603CA012400241CBFE7
:102D080028606960054806492346082200F00CF847
:102D1800FEF719FA204603B030BD00BF2E2D002063
:102D2800362D002070470000F8B50F4C06460F46B8
:102D380015462BB10123237003F05AFA0B4B186088
:102D480023782BB1094B186803F08AFA042808D8AD
:102D5800F8BDF25CFA5401339D42FADC002323707B
:102D6800F6E70023F8E700BF8A1300208C13002041
:102D780008B503F0DDF903F0C9FD03F0C9FD03F060
:102D8800E7FDFFF7F1FBFAE770472DE9F04F8BB04D
:102D98000746149C9DF854B0169816468846DDE9F7
:102DA80018520CB922F0100212F48061019100D07F
:102DB80014B312F0200F14BF4FF041094FF061090E
:102DC800A4460DF1080A0024A9F10A09BCFBF0FE8B
:102DD80000FB1ECE5FFA8EF1BEF1090F94BF3031B1
:102DE8004944C9B284450AF8011BBCFBF0F104F15F
:102DF800010401D3202C12D112F0020A23D102F0CF
:102E0800010E4DB1BEF1000F06D0BBF1000F02D18B
:102E180012F00C0F00D0013D4FF0300C05E08C464D
:102E2800D4E702A901F804C001341799A14201D9D5
:102E3800202CF6D14FF0300CBEF1000F03D0A54284
:102E480001D91F2C45D9D10622D50199002946D18F
:102E5800002C44D01799A14201D0AC423FD1611E49
:102E68003CD0102846D1023C910645D41F2C1BD8D3
:102E780004F128016944782001F8200C01341F2C42
:102E880012D804F128016944302001F8200C0134DB
:102E98001F2C09D8BBF1000F35D004F12801694473
:102EA8002D2001F8200C013492074DD0B146A144E1
:102EB8004846A9EB0402002C4AD1BAF1000F05D00C
:102EC800A9EB0609A94506EB090049D30BB0BDE8F3
:102ED800F08F02A901F804C00134ADE70C461028B0
:102EE800C2D00228CBD11F2CDED804F128016944B6
:102EF8006220C1E70C46F4E71F2CD5D804F128015D
:102F080069445820B8E7500704D504F128016944FA
:102F18002B20C6E71107C7D504F1280169442020F2
:102F2800BFE7414620200193B847019B09F10109F9
:102F38004D450BEB0902F4D8A5EB0409A54238BFAF
:102F48004FF00009B144B2E7A146A6EB040BEFE746
:102F5800013C02A84146005D0193B847019BA7E7E1
:102F6800024641462020019309F10109B847019B17
:102F7800A8E708B1FFF782BD704700002DE9F04FC0
:102F88008DB01F46AA4B169E0029914614BF834652
:102F98009B460025387858B94D452CBF09F1FF32BA
:102FA8002A464B460020D84728460DB0BDE8F08F8A
:102FB800252807F1010706D02A466C1C4B460691C6
:102FC800D847254620E1002306E02D2A15D0302ACF
:102FD8000CD143F001030746384610F8012B2B2A81
:102FE8000ED0F2D8202A0ED0232A0FD0A2F1300416
:102FF800092C2AD84FF0000811E043F00203EAE751
:1030080043F00403E7E743F00803E4E743F0100361
:10301800E1E70A2404FB0822A2F1300807463846F3
:1030280010F8012BA2F13004092CF2D93A782E2A93
:1030380057D17878A0F13004092C07F1010243F444
:10304800806344D80020069017E02A2A0AD156F84F
:10305800048BB8F1000FBCBF43F00203C8F10008AD
:103068000746E3E74FF00008E0E7069C0A2202FB68
:103078000400A0F1300206923A46174617F8010BF1
:10308800A0F1300CBCF1090FEFD917463A4612F8F7
:10309800010B6C282DD027D8682831D06A2838D061
:1030A8003A46174617F8010B782885D8632833D88D
:1030B800622877D0632800F0BF8025283FF47CAFD2
:1030C80058287FF479AF43F0200310226BE02A28B8
:1030D80006D156F8044B24EAE47206920237D5E783
:1030E800174600220692D1E77A28D9D143F4807393
:1030F800D7E778786C28F9D143F44073BA1CD0E745
:103108007878682802D043F08003CAE743F0C00308
:10311800F4E743F40073C4E7A0F1640C454C5FFA8C
:103128008CFC012202FA0CF222401AD1732800F01A
:10313800C38070287FF440AF43F021030593082330
:103148000493069B03931023CDE9012356F8043B0F
:1031580000932A464B4658460691FFF716FE054649
:1031680052E07828B1D06F2800F01181692823F047
:1031780010034FF00A0201D0642814D15C0548BF3F
:1031880023F00103692803F4007C01D0642822D1CC
:10319800BCF1000F7FF4FEAED80506F1040A05D590
:1031A800306806E0022223F00C03E7E75C060DD541
:1031B8003078CDE90483069B0028CDE902234FEA45
:1031C800D0730193B8BF4042009015E01806E7D5C8
:1031D800B6F90000EDE7BCF1000F7FF4DBAEDC05CB
:1031E80006F1040A12D5CDE90483069BCDF804C084
:1031F800CDE90223336800932A464B465846069188
:10320800FFF7C3FD564605460699C3E6580608D596
:103218003078CDE90483069BCDE90223002301938E
:10322800D2E7306813F0800F18BF80B2F1E700BF13
:10323800912D00082108120013F0020426D04FF047
:10324800010A6B1C0693079116F8040B4B462A4695
:10325800D847079974B3069A544621E006914B461D
:103268002020D84706990AEB05020AF1010AD04541
:10327800F4D8B8F1000F08F1FF3308BF002308F1B4
:10328800010A1D4408BF4FF0020ADAE7A246EAE73E
:1032980007914B462020551CD847079901342A46E8
:1032A8004445F5D3069AA8EB0A03D04538BF002356
:1032B8001A440692069D6DE6324652F8046B079250
:1032C800069A002A14BF10464FF0FF3030443246A9
:1032D80092F800C0BCF1000F01D0824212D1A2EBDB
:1032E800060A13F48062089203D0069A924528BF12
:1032F800924613F0020309931CD1AAEB05032A4650
:103308001C4609E00132E3E7531C0A930B914B4634
:103318002020D847DDE90A21234613449845F3D8ED
:10332800A8EB0A03D04538BF00230AF101021D4467
:1033380003EB020AAB1B1C4605E006930A914B46B9
:103348002A46D8470A99A51916F8010B38B1089BDF
:10335800002BF3D0069B069A013B002AEDD1099B6E
:103368009BB12A46AAEB050406E006914B462020AD
:10337800561CD8470699324613194345F5D3A8EB8E
:103388000A03D04538BF00231D44079E02E60822E1
:1033980009E700BF0FB41FB506AA02A952F8043BFB
:1033A8000392009204484FF0FF32FFF7E7FD05B0A3
:1033B8005DF804EB04B070477B2F00081FB50A4B7B
:1033C8000A4A1B7802930A4B0A491B7801930A4B55
:1033D8000A481B7800930A4B12781B780978FFF784
:1033E800D9FF05B05DF804FB6E10002068100020BE
:1033F8006D100020671000206A1000204CB00008F3
:103408006910002010B5014604460548FFF7C2FFC1
:103418000120A040FEF705FBBDE81040FEF7ADBA5D
:10342800C9B0000810B5431F8CB03E2B00F21481C0
:10343800DFE813F09300830099003F0012011201A6
:103448007F0012011201C2001201D100F90012011D
:10345800120112011201E20012011201E000120130
:10346800AE0012011201100110011001100110012B
:1034780010011001100110010901120193007900D7
:10348800120112011201120112011201120112019C
:10349800120112010901120112017F0012010D012E
:1034A8000D010D010D010D010D010D010D010D01A4
:1034B8000901FEF798FF01466A48FFF76BFFFEF720
:1034C8008FFFC0F3C0030193C0F38003014600F0EF
:1034D80001020093C0F340036348FFF75BFFFEF768
:1034E80089FFC0F3C0130793C0F380130693C0F39A
:1034F80040130593C0F300130493C0F3C003039370
:10350800C0F380030293C0F340230193C0F3002368
:103518000146009300F00102C0F340035348FFF74F
:1035280039FF012017E05248FFF734FFFEF7DCFFB0
:10353800F7E75048FFF72EFFF3E74F4A4F48137855
:1035480023F00F031370FFF725FF4D48FFF722FF05
:103558004C4B012018700CB010BD4B48FFF71AFFF8
:10356800FDF7FCFDDDE7444C2378C3F3000282F04D
:10357800010262F300032370DB0701D54348D9E752
:103588004348FFF707FF237823F00E032370C8E7AB
:10359800394C2378C3F3400282F0010262F34103FD
:1035A8009807237006D53B48FFF7F4FE237843F0CD
:1035B8000103EBE73848BDE72F4C2378C3F38002BB
:1035C80082F0010262F382035907237001D5334860
:1035D800EAE73348AEE7284C2378C3F3C00282F009
:1035E800010262F3C3031A07237001D52D48DBE7F4
:1035F8002D489FE72D489DE702F03AFC2C4B0B9095
:103608001A782C4B2C481B780A920993047802F0FC
:10361800EFFDE409CDE90040DDE909320B992748BF
:10362800FFF7B8FE7DE7FEF7A8F923490B78C3F347
:10363800C01282F0010262F3C7130B701B064CBF65
:103648001F48204876E70020FFF7DCFE69E7393895
:10365800C0B2F9E71D38FBE71B48FFF79BFE0020C7
:1036680079E700BFCEB00008EBB0000834B100081D
:1036780019B200082AB2000889130020DCB3000838
:1036880003B400089013002007B4000823B400080E
:103698002FB400083CB4000849B4000857B4000827
:1036A80066B4000876B4000882B400088FB4000835
:1036B80028120020302C00202C2D002076B5000880
:1036C800FAB5000804B6000811B60008292810B594
:1036D8005F4C51D02BD813285BD017D8072800F09F
:1036E8008F800B2830D05B489DE00A235A4A126825
:1036F800002AF8D011781944FF2900F39F80002987
:10370800C0F29E80C9B25548117052E0142833D0D7
:10371800A0F11E03092BE6D81D38C0B2207001386D
:10372800052867D8DFE800F03B484E545A6038282F
:103738000AD0A0F14F03032BD5D850380228D4D88B
:10374800DFE800F074777A004548FFF723FEFFF7BB
:1037580035FE444801220521FFF71CFE2178002987
:1037680070D0414B41481A68414BBDE81040002ACF
:1037780008BF1A46FFF70EBE3E48FFF70BFE237838
:10378800002B64D0344A00231360374A2370136037
:10379800E4E73948FFF7FEFDFFF710FEDEE72E4BA2
:1037A800364A1A60304B364A1A6021780029D5D03B
:1037B8003448FFF7EFFDD1E7274B334A1A602A4B0D
:1037C800324AF1E7244B324A1A60274B314AEBE779
:1037D800214B314A1A60244B304AE5E71E4B304AE8
:1037E8001A60214B2F4ADFE71B4B2F4A1A601E4BEA
:1037F8002E4AD9E7002317482370FFF7CBFDD4E7FB
:103808001E4B2B481E221A701F4B32221A70204B57
:103818000A221A70204B14221A70214B08221A709F
:10382800214B28221A70FFF7B5FD97E76FF00903BF
:103838005CE74FF0FF3359E7012357E7FF2162E7C1
:10384800002160E7BDE810401A48FFF7A3BD10BD8E
:103858009813002059B700089C13002081BD000868
:1038680013B6000823B600089413002066B70008B2
:103878000FB60008EFB60008F2B60008671000207F
:1038880000B700084CBD00086810002009B7000800
:103898006910002015B700086A10002022B7000838
:1038A8006D10002031B700086E10002044B70008E2
:1038B8005CB700086FB70008002070470020704709
:1038C80070B5264E3478012C054614D0022C3FD012
:1038D800002C40D1FEF790FC22280AD12846FFF799
:1038E800EBFF18B92846FFF79DFD00E0012000F026
:1038F8000104204670BDFEF77FFC2228284605D12A
:10390800FFF7DAFF0028EDD02046F0E7FFF7D6FFF3
:103918000028EED1142D1ED008D80B2D0AD0102D5A
:1039280010D00F48FFF736FD0024E2E7292D12D00A
:10393800382DF6D10B48FFF72DFD0B48FFF72AFD70
:103948000124D6E7022338203370FFF7BFFED0E703
:10395800FFF7BCFEF4E700243470CAE79013002098
:1039680011B60008DCB3000803B40008000000002A
:10397800453807EE900AF8EEE77AB2EE087AC7EE15
:10398800877A08B517EE900AFCF71CFE9FED080B26
:1039980041EC110B05F0D0FF074B51EC100B002246
:1039A800FCF768FEFDF716F900EE100A08BD00BF27
:1039B800000000000000004000807B4008B545F68C
:1039C8001D43984205D18B7873B300F039FA002073
:1039D80008BD45F61E43984204D18B7823B300F006
:1039E80045FAF4E745F61F43984206D18B78DBB1D8
:1039F80000F030F80028F2D1E7E745F62A4398426C
:103A080009D18B7883B100F07BFC0848002204219F
:103A180000F092F8DBE745F62B43984204D18B7807
:103A280013B100F073FCF0E70120D1E71C0E002071
:103A380008B5FFF79DFFBDE8084000F0FDB908B5DF
:103A4800FFF796FFBDE8084000F016B900F00AB885
:103A580070470000024B187800F00100704700BF63
:103A6800B82D002038B50D4D2C78B4B90C4B1C700E
:103A780000F0FAFB0B4B0C491C700C4B1C700C4BE8
:103A88001C800C4B22460634302C1A8059601A814F
:103A980003F10C03F7D101232B7038BD3C0E002035
:103AA800A0130020A9130020000080BFAA13002043
:103AB800A6130020582D00200B4B1B7883420FD9EA
:103AC800013B0A4A181A43B20C2101FB032393ED68
:103AD800010AB5EEC00AF1EE10FA01D900F01CBCDB
:103AE8009FED030A704700BFA0130020582D002047
:103AF800000000000D4B07EE900A1B78F8EE676A8D
:103B0800DFED0B7A9B0166EEA76A07EE903AB8EEF6
:103B1800E77AC6EE877A9FED077A67EE877AFCEE3A
:103B2800E77A17EE903A98B2704700BF600E00200F
:103B38000000704200007A44F8B5224B1B78DB077E
:103B480004460E46154603D4BDE8F840FFF78ABF81
:103B58001D4B1B780BB900F061F81C4B1B780BB19F
:103B6800FFF780FF1A4BD4ED017A1A4F01221A7021
:103B7800194A3C6000231370184A1680184AFCEE54
:103B8800E77A1570174D2B8017EE903A98B2FFF729
:103B9800B1FF94ED000A00F0CDF802F055FB124B8E
:103BA8002A8818803B6803EBC203D3ED017AFCEE48
:103BB800E77A17EE903A98B2FFF79CFF0B4B188004
:103BC800F8BD00BFB82D0020A1130020AA130020C3
:103BD800A9130020542D0020A8130020402D0020F8
:103BE800B92D0020A2130020A4130020A613002042
:103BF80008B5074B1B78DB0704D5064800220521CA
:103C0800FFF79AFF02F020FB034B188008BD00BFA6
:103C1800B82D0020640E0020A413002010B5124C0B
:103C2800237803BBFEF7D2FB08B9FEF75DFCFEF76D
:103C3800F9FB0E4B002218700D4B0E481146063248
:103C4800302A19805860198103F10C03F7D12378C1
:103C58001BB900F0C3FA01232370FFF703FFBDE887
:103C68001040FFF7C5BF10BDA1130020B82D0020DC
:103C7800582D0020000080BFF8B5274DB5EEC00ACA
:103C88002B78F1EE10FA2DED028BB0EE408A48BF8A
:103C9800B1EE408A002B3BD0204B1B780BB9FFF7C5
:103CA800BDFF1F4B07241946D3ED167AF4EE487A68
:103CB800F1EE10FA27D10C2262438B180026DFF8A8
:103CC80070C08E52C3F804C01E81072C0ED1154B4C
:103CD80001261E70144B1C78013CE4B21C70BCB960
:103CE80000F0C2FA114B2C701E7011E003F10C07A2
:103CF80097E80700013483E807009E81C3F810C0E5
:103D08009E823B46E1E7013C621CA3F10C03CBD148
:103D1800BDEC028BF8BD00BFAA130020A113002040
:103D2800582D0020AB130020A01300203C0E0020CB
:103D3800000080BF2DE9F041364B1B780646D807B6
:103D48002DED028BB0EE408A4CD5334B1B780BB966
:103D5800FFF764FFDFF8DC80304F98F80030B5EEED
:103D6800C08AF1EE10FA48BFB1EE488A5D1E0C22F7
:103D7800691C29D10133DBB2082B48D9284908230B
:103D88005422A1F10C0088F8003006F011FF254AF2
:103D980001231370244A137098F800305C1E02F057
:103DA80053FA0C236343FA18F85282ED018A1681FC
:103DB80002F04AFA1D4C1E4B1880237893B100F08C
:103DC8007BFA002323700DE002FB0574D4ED017A21
:103DD800F4EE487AF1EE10FA17D198F80030013B6A
:103DE8009D4203DBBDEC028BBDE8F08104F10C07BA
:103DF80097E8070084E8070002F026FA0135A08159
:103E080084ED048AA6823C46E7E7013DB0E788F8DE
:103E18000030BCE7B82D0020A1130020582D002049
:103E2800642D0020AB130020AA1300203C0E0020B4
:103E3800B8130020A01300204FF6FF70FFF77ABFD9
:103E480008B5084B187840F001001870FEF7EDFA35
:103E5800FFF7FEFDBDE80840034800220221FFF7F6
:103E68006BBE00BFB82D0020500E002008B5002200
:103E780002210948FFF760FE4FF47A7003F03DFA1B
:103E8800FFF7F0FD054B18786FF300001870BDE8D8
:103E98000840C0B2FEF7C9BA400E0020B82D002075
:103EA8002DE9F047624F634D3B7813B92C78002C0D
:103EB80071D002F0C9F92D788046EDB900253B781C
:103EC800002B00F0B3805C4B1C7824B95B4B1C784A
:103ED800002C08BF2C465A4D5A4F00264FF6FD7845
:103EE8003B78B34200F39080574A1378002B52D0A6
:103EF800002111701C464EE0544C554E208802F0AB
:103F0800A8F933888342D9D8208802F0A2F9A4F806
:103F18000080DFF858813388B8F800A0C01A0AF189
:103F28000103A8F800301FFA80F902F08DF9494B17
:103F38001880494B1988B8F800308B4205D3474B95
:103F48001C7834B30023A8F80030454B45481A685C
:103F58000478B8F80030DB0004BB02EBCA0CD418B4
:103F68009CED007AD4ED007AB4EE677AF1EE10FA9F
:103F780014D1012303700220FFF7BCFD9FED3A0A1C
:103F8800FFF7D8FE0220A8F800A0FFF7B3FD3080A5
:103F980095E7FFF767FD2046BDE8F0871344D3EDAA
:103FA800017AFCEEE77A002417EE903A047098B292
:103FB800FFF7A0FD01398145B8F8003001D99942D1
:103FC8000EDC81453ABFA0EB090084B2012402EB64
:103FD800C30292ED000A2046FFF7ACFE34806EE77C
:103FE80001339BB2A8F8003002EBC303D3ED017A8A
:103FF800FCEEE77AA9EB000017EE903A1FFA80F979
:1040080098B2FFF777FDD6E72B89013B9BB2434572
:1040180009D8288802F01DF92B89834203D895ED29
:10402800010AFFF729FE01360C3559E72C465BE7F4
:10403800AA130020A9130020B5130020B4130020F0
:10404800582D0020A0130020AB130020A41300203B
:10405800A6130020B8130020402D0020B92D002001
:10406800542D0020A813002000000000A2130020F7
:1040780008B50848084903F0A4FC0648022103F0E3
:10408800B2FCBDE80840032210214FF0904004F034
:104098003DBD00BF9C3100208C0E002008B50748AC
:1040A80003F0AFFC012210214FF0904004F02EFDE8
:1040B8004FF0904310221A8308BD00BF9C310020A6
:1040C80008B5114B2DED028BB0EE408A83ED000A46
:1040D800FFF7E4FFB5EEC08AF1EE10FA10D938EE1A
:1040E800088ADFED0A7A0A4B28EE278ABCEEC88ACE
:1040F80083ED008ABDEC028BBDE80840FFF7B8BF2E
:10410800BDEC028B08BD00BFAC130020000080434B
:104118008C0E002008B50848084903F052FC0648F0
:10412800022103F060FCBDE80840032220214FF083
:10413800904004F0EBBC00BFCC3100209C0E002066
:1041480008B5074803F05DFC012220214FF090409C
:1041580004F0DCFC4FF0904320221A8308BD00BF16
:10416800CC31002008B5114B2DED028BB0EE408A02
:1041780083ED000AFFF7E4FFB5EEC08AF1EE10FA0E
:1041880010D938EE088ADFED0A7A0A4B28EE278A1A
:10419800BCEEC88A83ED008ABDEC028BBDE80840FE
:1041A800FFF7B8BFBDEC028B08BD00BFB0130020FD
:1041B800000080439C0E002008B5FFF771FE58B13F
:1041C8000020FFF779FCFFF77BFF0020FFF774FC66
:1041D800BDE80840FFF7C6BF08BD000038B5184D58
:1041E800184C032210214FF0904004F08FFC284611
:1041F800154903F0A8FB1549154803F0E2FB032213
:1042080020214FF0904004F081FC2046114903F032
:104218009AFB1149114803F0D4FBAB6A10491A689C
:104228001048136823F002031360A36A1A6813681E
:1042380023F400331360BDE8384003F0C2BB00BF6D
:10424800D82F00200830002074BB00088C0E0020F6
:104258009C3100207CBB00089C0E0020CC31002043
:10426800AC0E0020AC31002008B50E4803F0C9FBA5
:104278000D4803F087FB40F2FF7200210A4803F063
:1042880070FB0A4803F0BDFB094803F07BFB0848B4
:1042980040F2FF72002103F064FBBDE808400548C6
:1042A80003F0AFBB9C310020D82F0020CC31002078
:1042B80008300020AC31002008B50A4A0A490B48EA
:1042C8004FF4807303F04FFB09490A480A4A4FF438
:1042D800807303F048FBBDE808400848022103F05A
:1042E80082BB00BF74B7000884BB0008D82F002029
:1042F80094BB00080830002074B90008AC310020D5
:10430800014B00221A707047B6130020014B00229F
:104318001A707047B6130020024B1B780BB9024A7B
:1043280013707047B6130020B4130020024B1B789B
:104338000BB1FFF78BBB7047BB13002008B5FCF728
:1043480087FE08BD08B5FFF7F1FF044B04480022BB
:104358001A700821BDE80840FFF7EEBBBB13002028
:10436800E00F0020034B0448002208211A70FFF7D1
:10437800E3BB00BFBA130020BC0E002010B5FFF746
:10438800D5FF084A08481378013303F00303137074
:10439800282404FB03000022BDE810400521FFF794
:1043A800CBBB00BF3C0F0020400F0020F8B5174BD7
:1043B8001B788BB1164C208840B901F045FF20804E
:1043C800144C154D227842B1531E08E001F041FF0C
:1043D800124B1B888342F0D3F8BD2B78013B104960
:1043E800104EC85C33788F5C33B1FFF728FB337805
:1043F80013B13846FFF71CFB23782A780133B3FB47
:10440800F2F102FB11332370E6E700BFCD13002061
:10441800D2130020CE130020CC13002064100020FB
:10442800BC130020BB1300207047000008B5054BE3
:10443800054801221A7008210022FFF77DFBFFF7CB
:10444800F3FF08BDBB1300202410002070470000B4
:1044580008B5054B054801221A7008210022FFF70C
:104468006BFBFFF7F3FF08BDBA130020FC0E00201A
:104478002DE9F04145F6264398428AB0054606D113
:104488008B78002B3ED0FFF7D1FF002053E045F694
:104498002743984205D18B78002B33D0FFF752FF82
:1044A800F3E745F62843984206D18B7853B3654B1A
:1044B8001B78002BF2D1E6E745F62C43984204D14D
:1044C8008B78FBB1FFF7C4FFDFE745F62D43984231
:1044D80004D18B78B3B1FFF745FFD6E745F62E43F5
:1044E800984206D18B786BB1574B1B78002BF2D1D1
:1044F800E8E745F62943984204D18B7813B1FFF7D2
:104508003DFFC2E74F4B1A7822B94F4B1B78002B5F
:1045180000F096808E78002E3DD0E02D0ED1FFF76A
:1045280005FF4A4B01221A70494B00201870494B6D
:104538001870494B18700AB0BDE8F081E22D0BD114
:10454800FFF7F4FE414B1A7812B1414A012111706C
:10455800002018703F4BEDE7E32D0FD13C4B1B7843
:10456800CBB1FFF7E3FE394B00201870394B01221D
:104578001A703A4B18703A4B1880DCE7522D04D168
:10458800384A13880A3B13807FE7512D03D1354AF7
:1045980013880A33F7E74878334B0978062404FB75
:1045A800003313F801C0314B1C78314B1B6824349D
:1045B8001C44304B1B78E4B2BBB96444E4B2002E0F
:1045C80038D012B12046FFF733FA204B1B782BB1B5
:1045D800214A29491378CC54013313702846FFF730
:1045E800ADFE80F00100C0B2A5E7244B01AF03F196
:1045F800200818685968BE46AEE8030008334345EA
:104608007746F6D119889B78AEF800108EF80230FC
:104618000723BCFBF3F303EB4301C3EBC30304EB36
:104628008104ACEB03030AA951FA83F313F8243C81
:104638001C44C3E7002AD1D02046FFF700FACDE793
:10464800012078E7BB130020BA130020D013002004
:10465800CF130020CD130020CC130020CE13002050
:10466800D2130020641000204AAC00086610002015
:10467800201000203C0F0020BC13002027AC0008AD
:10468800194B1B78D90709D5184B187800EB80000F
:1046980080087F2824D828B3C0B270479A0705D568
:1046A800124B187800EB80004008F2E75B0704D54E
:1046B8000E4B187800EB8000EBE70D4B1B786BB1C5
:1046C8000C4A0A49127808789342F3D210FB03F097
:1046D80000EB8000B0FBF2F080B2DAE70520DBE700
:1046E8007F20704701207047DE13002069100020EA
:1046F800DF1300206A100020154B1B78D90705D559
:10470800144B1878800800B3C0B270479A0703D5D5
:10471800104B18784008F6E75B0705D50D4B18785D
:104728007F28F0D97F2070470B4B1B785BB10B4A71
:10473800084912780878934236BF10FB03F080B21C
:10474800B0FBF2F0ECE70120DEE70120704700BF84
:10475800DE1300206D100020E01300206E100020F2
:1047680008B5A0F1ED03122B10D8DFE803F00A100A
:1047780013192E2E2E2E2E2E2E2E1C21252B363C96
:104788004100FFF77DFF40421C4BD87008BDFFF782
:1047980077FFF9E7FFF774FF4042184B9870F5E789
:1047A800FFF76EFFF9E7FFF7A7FF144B1871EDE766
:1047B800FFF7A2FF4042F8E7FFF79EFF40420F4B8A
:1047C8005871E3E7FFF798FFF9E70C4AF138517899
:1047D800012383400B435370D8E7094A137843F009
:1047E80001031370D2E7064A137843F00203F8E78F
:1047F800034A137843F00403F3E700BFD8130020FB
:10480800DE13002030B5414BED2893F9035093F99E
:10481800024093F9041093F9052012D1002D01DA12
:104828000022DA70D9789A780A4351B20AB9384A1C
:1048380011701A795B7913435AB20BB9354B1A7058
:1048480030BDEE2802D1002DEADCEBE7EF2804D1D9
:10485800002CE7DA00229A70E4E7F02802D1002C55
:10486800F8DCDFE7F92804D10029DBDD00221A7122
:10487800D8E7FA2802D10029D4DAF7E7FB2804D1CF
:10488800002ACFDA00225A71CCE7FC2802D1002A8C
:10489800F8DCC7E7F1380E28C4D801A252F820F096
:1048A800E5480008E5480008E5480008E54800082C
:1048B800E5480008E5480008E5480008E54800081C
:1048C8002D4800082D4800082D4800082D480008EC
:1048D800F3480008FF480008094900085A780121F0
:1048E800814022EA01025A709CE70B490A7822F0BB
:1048F80001020A7096E708490A7822F00202F8E7EE
:1049080005490A7822F00402F3E700BFD813002013
:10491800DF130020E0130020DE1300202A4B1B7851
:1049280013F0080F10B5294C39D02948FEF732FD8D
:1049380061782848FEF72EFD2748FEF72BFD94F9ED
:1049480002102648FEF726FD2548FEF723FD94F9B8
:1049580003102248FEF71EFD2148FEF71BFD94F9BF
:1049680004101E48FEF716FD1D48FEF713FD94F9C6
:1049780005101A48FEF70EFD1A48FEF70BFD1A4BF4
:104988001A481978FEF706FD1948FEF703FD194B7A
:1049980016481978FEF7FEFC1748FEF7FBFC01F0F5
:1049A80053FCA378E278134318BF144B627918BFFD
:1049B80018802379134318BF114BBDE8104018BF66
:1049C8001880024801F09EBA89130020D8130020ED
:1049D800A4BB0008CCAF0008C7BB0008C9BB0008CF
:1049E80021B40008CCBB0008DF130020CFBB0008AF
:1049F800D2BB0008DE130020D4BB0008D41300206B
:104A0800D61300202DE9F047564C94F9028094F90A
:104A1800037094F9046094F9055094F800A094F890
:104A280001900023A370E3702371637158EA0703B0
:104A38000AD04D4B188801F00CFC4C490B783BB35D
:104A48004B4A127890422DDC56EA05030BD0494BAD
:104A5800188801F0FEFB48490B78002B4ED0474AD6
:104A68001278904254DCE278A378134322791343F6
:104A78006279134301D0FFF751FF84F800A084F84E
:104A8800019084F80280E77026716571BDE8F087AF
:104A98003B4A127802EB8202B0EB420FD4DD0133BD
:104AA8000B7001E0FF2BFAD1B8F1000F08D0FFF727
:104AB800E7FDB8F1000FCCBF0123FF235843A070D6
:104AC8003FB1FFF7DDFD002FCCBF0123FF23584383
:104AD800E07094F90230002BB6D094F90320002A34
:104AE800B2D0B5214B431B1208BF0123A37001FBB1
:104AF80002F31B1208BF0123E370A5E7214A1278CD
:104B080002EB8202B0EB420FADDD01330B7001E026
:104B1800FF2BFAD13EB1FFF7EFFD002ECCBF0123EA
:104B2800FF23584320713DB1FFF7E6FD002DCCBFB0
:104B38000123FF235843607194F9043094F9052048
:104B4800002B90D0002A8ED0B5214B431B1208BFF2
:104B58000123237101FB02F31B1208BF01236371B8
:104B680081E700BFD8130020D4130020DF130020F2
:104B780068100020D6130020E01300206C100020DD
:104B8800671000206B100020054A002313609380F3
:104B9800044A1370044A1370044A1370704700BF24
:104BA800D8130020DF130020E0130020DE130020BC
:104BB80010B500F06BFA094C094800F01FFA0948D3
:104BC80000F01CFA204600F019FA074800F016FA1F
:104BD80000F06AFA054B1C6010BD00BF00F0030826
:104BE80000E0030800E8030800F80308E4230020B5
:104BF80020F0010038B500F1006404F578344FF670
:104C0800FF7123888B4282B210D10A498D5AED4335
:104C1800ADB29D420CD000F039FA2046294600F08A
:104C28000FFA044600F040FA204638BD0024FBE79E
:104C38000524F9E7E2130020F8B5FFF7B9FF00F003
:104C480025FA0B4E0B4C0C4F052536F8021B39B1D3
:104C5800C94389B2204600F0F3F9052818BF054674
:104C68000234BC42F1D100F01FFA2846F8BD00BF5B
:104C7800E213002000E0030800F003081E4BF7B51C
:104C88001E5A1E4F012E98BF1D4C3A6894BF02232E
:104C98000423C3F1006394BF44EA4634803803F523
:104CA800802392BFA4B280B24FF460449A4204D9E0
:104CB80003B0BDE8F040FFF7BFBF44EA50010191DF
:104CC80000F0E4F938680199831C3B6000F0B8F9FA
:104CD800B4F5604F054609D13868F143831C89B2A1
:104CE8003B6000F0ADF9052818BF054600F0DCF977
:104CF800284603B0F0BD00BFE2130020E4230020E3
:104D08000080FFFF37B50E4D0E4B2A689A420446C5
:104D180004D903B0BDE83040FFF78EBF00F0B6F904
:104D2800094B2868195D41EA0421831C89B22B606C
:104D380000F086F9019000F0B7F9019803B030BD92
:104D4800E4230020FFFF0308E21300201F4B204A42
:104D58002048F0B51D4632F8021BC943824223F8A9
:104D6800021BF8D11C4C4FF6FF7743F6FE761388EA
:104D7800BB4206D0180409D4190A6B540232A24265
:104D8800F5D9164B4FF480501A60F0BD03F4C041BA
:104D9800B1F5C04F0FD1901CA04215D85188C94316
:104DA80089B279B106EA430380330246B3F5805FDE
:104DB800E4D2E952E2E75904E0D4C3F3403106EA09
:104DC8004303F3E70246D9E70246DAE7E213002095
:104DD80000E0030800F00308FFFF0308E4230020B5
:104DE80008B5FFF7E5FEBDE80840FFF7AFBF0000D4
:104DF800B0F5805F10B5044614D20C4B1A5C8A4299
:104E080012D01954FFF7F4FE68B97F2C04D8204655
:104E1800BDE81040FFF776BF24F00100BDE8104060
:104E2800FFF72CBF072010BD0020FCE7E21300208D
:104E3800B0F5805FF8B505460E4634D210F001048F
:104E48000DD0C9B2FFF7D4FF0446681C310A80B2FE
:104E5800FFF7CEFF052818BF04462046F8BD134BC0
:104E68001F5AB942F9D01952FFF7C2FE044600286A
:104E7800F3D17F2D12D8FBB2F2B293420CD0284660
:104E8800FFF740FF0446360AB6EB172FE5D0681C3B
:104E980080B2FFF737FFDDE70524F4E72846BDE8D1
:104EA800F840FFF7EBBE0724D7E700BFE213002066
:104EB800B0F5805F3ABF024B185CFF20704700BF17
:104EC800E213002040F6FE7398420AD8064BC20748
:104ED80041BF5A1C125C185C40EA022058BF185A9D
:104EE80070474FF6FF707047E213002080B2FFF75B
:104EF800DFBF80B2FFF77CBF80B2FFF7E3BF80B2AD
:104F0800FFF796BF10B510F0010F84B2204611D0FC
:104F1800FFF7CEFF0146601C80B2FFF7D3FF0334D2
:104F28000246A0B2FFF7C4FF030643EA022343EA9E
:104F3800010010BDFFF7C6FF0146A01C80B2FFF7B5
:104F4800C1FF41EA0040F4E738B5C3070D4684B213
:104F580010D5C9B22046FFF74BFF601CC5F30F21DF
:104F680080B2FFF765FFE01C290E80B2BDE838402B
:104F7800FFF73EBF89B22046FFF75AFFA01C290C55
:104F880080B2BDE83840FFF753BFFFF7DDBF000030
:104F98000B4BDA68D0070CD4DA6851070BD4DA68FF
:104FA800D2060AD4D86800F00100C0F10500C0B2EA
:104FB800704701207047022070470320704700BFE8
:104FC8000020024073B50446FFF7E2FF0025FF26E4
:104FD80001280FD114B9062002B070BD01950196C1
:104FE800019B1BB9FFF7D4FF013CF1E7019B013B93
:104FF8000193F5E7002C08BF0620EDE738B5054614
:1050080040F6FF70FFF7DEFF052815D10B4C23692A
:1050180043F0020323616561236943F04003236180
:1050280040F6FF70FFF7CEFF06281EBF236923F066
:10503800020323613423E36038BD00BF002002402F
:10504800104B00F178429A4270B505460E4616D8C4
:105058001F20FFF7B7FF052810D10B4C236943F039
:10506800010323611F202E80FFF7ACFF06281EBF17
:10507800236923F0010323613423E36070BD072013
:10508800FCE700BFFEFF070000200240044B1A693E
:10509800120641BF034A5A6002F188325A607047CB
:1050A8000020024023016745024A136943F0800348
:1050B800136170470020024030B585B010F47F4F6F
:1050C8000190C0F30725C0F307420DD109B12F4B5A
:1050D8009A5C11461446002061F3070064F30F2020
:1050E80062F3174005B030BD9DF80440002939D05F
:1050F800264B995C04EB4400FF234000B0FBF3F01F
:105108006FF05403434303EB440303EB4303DBB265
:1051180015FB03F4C3F1FF036B4324121B12C5F103
:10512800FF02C4F1FF04C3F1FF034A434C434B435E
:10513800C2F30722C4F30724C3F30723C9B206281E
:105148001ED801A555F820F071510008DF5000085D
:105158007B510008775100088151000889510008E7
:105168007151000891B2C5E70C461946B3E70B46E2
:10517800214614461A46AEE71C460B461146F9E787
:105188000B46114622461C46A5E700BFA4BE0008F0
:1051980084B0012104B0FFF78FBF84B004B0FFF7DB
:1051A800F7BF13B58DF802208DF800008DF80110B7
:1051B80000981C46FFF7F1FFC0F30743C0F307222E
:1051C80062702070A37002B010BD0000064B1A7800
:1051D80012F0FE0F05D11A78012161F347021A7007
:1051E8007047032AF7D87047BC2D00200820FFF726
:1051F80089BE07B50190FFF7E9FF0199082003B0C0
:105208005DF804EBFFF7C1BE034B044818600022A9
:105218001A71FFF7EEBF00BFBC2D00200300FFFF8F
:1052280038B51C4C2378D90732D51B48FEF7B2F89D
:105238002378DA072CD5194D1948297801F001018E
:10524800FEF7A8F82378DB0722D5297815484908FE
:10525800FEF7A0F82378D8071AD569781248FEF720
:1052680099F82378D90713D5A9781048FEF792F84A
:105278002378DA070CD5E9780D48FEF78BF8237800
:10528800DB0705D529790B48BDE83840FEF782B819
:1052980038BD00BF89130020D7BB0008BC2D0020F3
:1052A800F0BB00080DBC000828BC000842BC000880
:1052B8005CBC000876BC0008054A1379022B9CBF29
:1052C8000133137110B11068FFF793BF704700BF27
:1052D800BC2D00200120FFF7EFBF0000044A13791E
:1052E8000BB1013B137110B11068FFF782BF704713
:1052F800BC2D00200120FFF7F1BF00F0E1BA00004B
:10530800104B11481A7870B5104C12F001026178F0
:1053180006D0237803EB43031844FFF7EEFF70BD74
:10532800A578E67805EB45030344AE4203F1030391
:10533800EFD9013503F8022C03F8032C03F8012CEC
:10534800EDB2F2E7BC2D0020C42D00206F10002024
:1053580010B50D4C23786FF3000323702068FFF716
:1053680048FF0A4B1B78DB0705D52178084801F070
:105378000101FEF70FF84FF4FA7001F0BEFFBDE827
:105388001040FFF7BDBF00BFBC2D002089130020CF
:1053980092BC00080E4B1B78DB0770B416D50D4B7A
:1053A8000D4E9C78DD7804EB44033344AC4203F1A2
:1053B800030302D370BCFFF7A3BF013403F8020C48
:1053C80003F8031C03F8012CE4B2EFE770BC704744
:1053D800BC2D00206F100020C42D00202DE9F743BC
:1053E800204C25789946EB0706460F46904635D55A
:1053F8006B08DFF884C005F0FE051CF803C01A4BE3
:10540800022D83F800C00AD101ABFFF7CAFE9DF850
:1054180006209DF804109DF80500FFF7BBFF134D0B
:105428006670A77084F80380B9F1000F0ED0206869
:10543800FFF7DFFE2B78DA0710D5E378A2786178DA
:105448000B4803B0BDE8F043FDF7A4BF2B78DB079A
:1054580004D5084843463A463146F2E703B0BDE86A
:10546800F08300BFBC2D0020E92300208913002011
:10547800CABC0008EFBC00085CBE0008054910B4AF
:105488004C78CA78897808340346E0B25DF8044B52
:10549800FFF7A4BFBC2D00200120FFF7EFBF0000DD
:1054A800054910B44C78CA788978083C0346E0B2BC
:1054B8005DF8044BFFF792BFBC2D00200120FFF7D9
:1054C800EFBF000010B4074CA178E2781131FF2932
:1054D80028BFFF210346C9B260785DF8044BFFF787
:1054E8007DBF00BFBC2D00200120FFF7EBBF0000EF
:1054F80010B4064CA178E278113921EAE17103462B
:10550800C9B260785DF8044BFFF768BFBC2D002076
:105518000120FFF7EDBF000010B4074CE278A17836
:105528001132FF2A28BFFF220346D2B260785DF805
:10553800044BFFF753BF00BFBC2D00200120FFF72D
:10554800EBBF000010B4064CE278A178113A22EAC9
:10555800E2720346D2B260785DF8044BFFF73EBFB3
:10556800BC2D00200120FFF7EDBF0023FFF736BF59
:1055780038B5114C2378D8071DD5012262F34703AB
:105588000E4D237089B12068FFF733FE2B78DA07B8
:1055980004D521780A484908FDF7FCFEE278A1788D
:1055A8006078BDE83840FFF7E0BF2B78DB07F5D51A
:1055B80004481146F0E738BDBC2D002089130020AF
:1055C80016BD000832BD000801460120FFF7D0BF14
:1055D8000120FFF7F9BF0000054B1B78C3F3460312
:1055E800013B0146D8B2012838BF0120FFF7C0BFF0
:1055F800BC2D00200120FFF7EFBF0121FFF7B8BF46
:1056080010B5094C237843F001032370074B1B782E
:10561800DB0703D506480121FDF7BCFE2078BDE86D
:1056280010404008FFF7E9BFBC2D00208913002077
:1056380050BD00080C4B1B7813F0010F10B50B4C34
:1056480006D021780A48C94301F00101FDF7A2FEFE
:105658002378DB0703D5BDE81040FFF779BEBDE826
:105668001040FFF7CDBF00BF89130020BC2D0020DC
:1056780087BD00080021FFF77BBF000070B51E4EF4
:105688003378002B37D11D4C2378DD0708D51C480B
:10569800FDF780FE2378D80702D51A48FDF77AFE71
:1056A800FCF794FE48B92378D90702D51648FDF7C8
:1056B80071FEFCF719FFFFF7A7FDFFF797FD134DE4
:1056C80010F0FE0F28600AD12378DA0702D51048B7
:1056D800FDF760FEFFF798FDFFF788FD2860FFF7EC
:1056E80075FDFFF79DFD2878C30702D54008FFF731
:1056F800C1FF0123337070BDE82300208913002007
:10570800BEBD0008D5BD0008EBBD0008BC2D0020BB
:1057180013BE000800B110470847000038B58C7860
:105728000546002C4BD0FCF767FD45F6D6439D4255
:1057380000F0220014D845F6C2439D4215D9A5F5BC
:10574800B945443D122D12D8DFE805F0151A1D2081
:105758002326292C2F323513131313131313130075
:1057680045F65E539D4208BF0024204638BDFFF72A
:1057780061FF0024F9E7134A1349FFF7CBFFF8E765
:10578800114A1049F9E7114A1149F6E7104A0F4939
:10579800F3E7104A1049F0E70F4A0E49EDE70F4AC0
:1057A8000F49EAE70E4A0D49E7E70E4A0E49E4E7D2
:1057B8000D4A0C49E1E70120FFF71FFFD9E7012453
:1057C800D3E700BFFD550008D9550008C5540008A7
:1057D800A154000819550008F15400086D55000837
:1057E80045550008FD520008DD52000838B51B4D2C
:1057F80000232A460C210133D82B42F8041BFAD186
:105808004FF4607200211648164C05F0EBF99A2205
:1058180002214FF0904003F079F900231A460A213B
:10582800012003F08DF8104BA2695B690F493832EB
:105838009A604FF4DC72DD605A6043F6B0221A6059
:105848001A6842F001021A60204602F0F6F8204673
:105858000022BDE83840012102F000B9EC23002005
:105868004C270020DC31002094C3000860BE0008EB
:1058780030B518246043114C073004EB8004002035
:1058880041FA00F515F0010F14BF1C250C252562FF
:1058980042FA00F515F0010F14BF1C250C2544F839
:1058A800045943FA00F515F0010F00F1010014BF87
:1058B8001C250C2508286564E2D130BDEC230020A6
:1058C80070B50D4D2B7804460E461BB9FFF78EFFB9
:1058D80001232B700025B542A8B204F1030400D1BE
:1058E80070BD14F8013C14F8032C14F8021CFFF7DF
:1058F800BFFF0135EFE700BFEB23002008B5FBF73A
:1059080001FB08BD10B50C4C20224FF480512046F5
:1059180003F0FCF820224FF40051204603F0F6F87B
:10592800226923691B0BC2F3003203F002031343FD
:10593800024A137010BD00BF00040048D12A00209D
:105948001E4B1A691B6910B51B0BC2F3003203F01A
:10595800020313431A4A1B4C117843EA8103DBB252
:105968001370194A03F00F03D35C227813445BB217
:10597800032B237020DD154A13780021013313709F
:105988000846FFF7BBFF012094F90030033308DA1B
:105998000E4A1378013B137001210020FFF7AEFF78
:1059A800012094F900305A4202F0030203F0030385
:1059B80058BF5342237010BD0020E5E7000400489B
:1059C800D12A0020D02A0020A4BF0008D22A002013
:1059D80008B5FBF7BFFA08BD0120704708B5FFF707
:1059E800FBFF08BD2DE9F84F184F194EDFF864B0DA
:1059F8000024824625462346B946B0465BF8042B68
:105A080022F00F0102F00F020969D140C94301F0E9
:105A18000102114607F8012BA240154316F8012B85
:105A28009142E0B202D1BAF1000F02D0FFF7D0FFE5
:105A380001230134042CE1D133B12846FFF7CEFF0E
:105A4800D9F80030C8F80030BDE8F88FD32A002014
:105A5800D72A0020B4BF000870B50B4D04240126D6
:105A680055F8040B00F00F01202206FA01F120F08E
:105A78000F00013C03F04AF814F0FF04F0D1BDE830
:105A880070400120FFF7AEBFB4BF0008F8B5144658
:105A980082789DF818701D46284B92B11C7000F052
:105AA800D3FB274B188004F12003DBB2072B44D823
:105AB80004F007040120A040C0B2BDE8F840FBF79D
:105AC8002FBD1E78A6422ED11D4B188800F0C1FBB1
