:100000000C9482050C94C9050C94C9050C945827CE
:100010000C94C9050C94C9050C94C9050C94C90528
:100020000C94C9050C94C9050C94F52E0C94C82F9A
:100030000C94332A0C94C9050C94C9050C94C90579
:100040000C94C9050C94C9050C94C9050C94C905F8
:100050000C94C9050C94C52A0C94C9050C94C905C7
:100060000C94C9050C94C9050C94C9050C94C905D8
:100070000C94C9050C94C9050C94C9050C94C905C8
:100080000C94C9050C94C9050C94C9050C94C905B8
:100090000C94C9050C94C9050C94C9050C94C905A8
:1000A0000C94C9050C94C9050C94C90500050105FB
:1000B0000205030504050505000601060206030600
:1000C00004060506000701070207030704070507E2
:1000D00000080108020803080408050800090109CE
:1000E00002090309040905090000010002000300D8
:1000F00004000500000101010201030104010501E2
:1001000000020102020203020402050200030103CD
:1001100002030303040305030004010402040304AF
:10012000040405040101AC000101AB000101AE00B3
:1001300001012B004D6F72650A536869740A3132F0
:100140003334353637383930002057504D000A0ADD
:10015000004350534C4B000A0A0A00556E64656612
:100160000A0041444A0A004C57520A005253450AB9
:100170000047414D45520A00424153450A004C4157
:10018000594552000A0A00556E6465660047414DA4
:10019000455200517772740A0057494E004D414351
:1001A00000004D4F4445000A0A002D001E001F00AC
:1001B000200021002200165C14001A00080015001F
:1001C00017002B0004001600070009000A00E100D8
:1001D0001D001B000600190005002F00E000E300D1
:1001E0006A5D2C00A8002E002700260025002400B0
:1001F00023003100130012000C0018001C00340012
:1002000033000F000E000D000B002A0038003700ED
:1002100036001000110030004C00E200655D28003F
:10022000685D29001E001F002000210022002B0015
:1002300014001A00080015001700E0000400160062
:10024000070009000A00E1001D001B00060019005C
:100250000500645D0C001000E2000100A8002E0003
:10026000270026002500240023003100130012007F
:100270000C0018001C00340033000F000E000D00AD
:100280000B002A0038003700360010001100665DB0
:100290004C00E200655D0100685D3A003B003C00F7
:1002A0003D003E003F00350000000000000000005F
:1002B0000000695D000000000000000000003962DD
:1002C000000000000000000000000000010001002C
:1002D00001000100010045004400430042004100CC
:1002E00040000000000000000000000000000000CE
:1002F00000004F00520051005000010000000000BB
:1003000000000000000000000100010001000100E9
:1003100001000100010001000100010001003500A1
:1003200000001A140000000000000100000000009E
:10033000000000000000E1001D14000000000000AB
:1003400000000000010001000100010001000100A7
:100350000100010001000100010000000000000098
:10036000000000000000000000000F14000000006A
:1003700000002A0000000000000000000000000053
:100380000100010001000100010000000000000068
:100390000000000000000000635D0000000000009D
:1003A000000000000000015D00000000675D01002A
:1003B000000000000000000000000000010001003B
:1003C000010001000000005C0000000000000000CF
:1003D000000000000000000000000000000000001D
:1003E0000000A900A800AA00000001000000AB0066
:1003F000AE00AC000000000001000100010001009F
:10040000000000000000000000002A2B280000006F
:1004100000000000000000000000000000290000B3
:1004200000002C1E3420212224342627252E362D90
:100430003738271E1F202122232425263333362E2A
:1004400037381F0405060708090A0B0C0D0E0F109C
:100450001112131415161718191A1B1C1D2F3130E1
:10046000232D350405060708090A0B0C0D0E0F1085
:100470001112131415161718191A1B1C1D2F3130C1
:10048000354C0000000000000000000000000000EB
:10049000000000000000000000000000000000005C
:1004A0000000000000007E0F00D4FFFFFFC7000027
:1004B000007800AE00AF00DA0281FFD9F1DB20A4A2
:1004C000A62EAF00A0C000A1C800AED580A81FD343
:1004D00000408D14200007087F0807003E5B4F5B3B
:1004E0003E003E6B4F6B3E001C3E7C3E1C00183CA9
:1004F0007E3C18001C577D571C001C5E7F5E1C0054
:1005000000183C180000FFE7C3E7FF00001824189C
:100510000000FFE7DBE7FF0030483A060E0026291F
:1005200079292600407F05050700407F05253F000B
:100530005A3CE73C5A007F3E1C1C0800081C1C3E2D
:100540007F0014227F2214005F5F005F5F000609B6
:100550007F017F00006689956A00606060606000CE
:1005600094A2FFA2940008047E04080010207E20BC
:10057000100008082A1C0800081C2A0808001E1081
:10058000101010000C1E0C1E0C0030383E383000CD
:10059000060E3E0E060000000000000000005F0096
:1005A0000000000700070000147F147F1400242AB5
:1005B0007F2A120023130864620036495620500037
:1005C000000807030000001C224100000041221C1B
:1005D00000002A1C7F1C2A0008083E080800008032
:1005E0007030000008080808080000006060000083
:1005F0002010080402003E5149453E0000427F4061
:1006000000007249494946002141494D3300181400
:10061000127F10002745454539003C4A49493100C1
:1006200041211109070036494949360046494929FF
:100630001E0000001400000000403400000000080C
:100640001422410014141414140000412214080050
:100650000201590906003E415D594E007C121112FB
:100660007C007F49494936003E41414122007F419B
:1006700041413E007F49494941007F090909010084
:100680003E41415173007F0808087F0000417F41CF
:1006900000002040413F01007F08142241007F40BC
:1006A000404040007F021C027F007F0408107F0052
:1006B0003E4141413E007F09090906003E4151216A
:1006C0005E007F0919294600264949493200030185
:1006D0007F0103003F4040403F001F2040201F009B
:1006E0003F4038403F00631408146300030478045B
:1006F00003006159494D4300007F4141410002041C
:1007000008102000004141417F0004020102040062
:100710004040404040000003070800002054547847
:1007200040007F284444380038444444280038447A
:1007300044287F0038545454180000087E090200F1
:1007400018A4A49C78007F080404780000447D402D
:1007500000002040403D00007F1028440000004180
:100760007F4000007C04780478007C080404780052
:10077000384444443800FC18242418001824241851
:10078000FC007C0804040800485454542400040469
:100790003F4424003C4040207C001C2040201C00A2
:1007A0003C4030403C004428102844004C9090903D
:1007B0007C004464544C44000008364100000000B2
:1007C0007700000000413608000002010204020028
:1007D0003C2623263C00000000000000404040F082
:1007E000F8F8FF38FFF8F83FF8F8FF38FFF8F8F0AE
:1007F00040404000000000000080C0C0C0800000F9
:10080000C0C08000000080C0C000C0C0000080C028
:10081000C00000000000C0C0C0C0C000C0C00000D8
:1008200000000000000000000000000000000000C8
:1008300000000000000000000000000000000000B8
:1008400000000000000000000000000000000000A8
:100850000000000000C0F0F8FC3E1E060100000091
:100860007F4141417F007F4141417F000080C0E0E6
:100870007E5B4F5BFEC00000C000DCD7DEDEDED753
:10088000DC00C000000000000000000000000000CC
:10089000000000000000000000000000494949FF7E
:1008A000FFFFFFE0DFBFBF00BFBFDFE0FFFFFFFFD5
:1008B00049494900000000001F3F6060E0BF1F0081
:1008C0007F7F071E381E077F7F007F7F0E1F3B71D3
:1008D0006000000000007F7F0C0C0C007E7E007F1B
:1008E0007E0303007F7E03037E7E03037F7E000F73
:1008F0003E703C063C703E0F00327B49493F7E0013
:100900007F7E0303001E3F69696F26000000000020
:100910000000000000030F1F3F3C787060000000E3
:100920007F4141417F007F4141417F00307B7F78A3
:1009300030202030787F3B0003000F7F0F0F0F7FA8
:100940000F00030000000000000000000000000095
:10095000000000000000000000000000010101078D
:100960000F0F7F0F7F0F0F7E0F0F7F0F7F0F0F0770
:100970000101010000000000000000000001010072
:100980000000000000000000000000000000000067
:100990000000000000000000000000000000000057
:1009A0000000000000000000000000000000000047
:1009B0000000000000000000000000000000000037
:1009C0000000000000000000000000000000000027
:1009D0000000000000000000000000000000000017
:1009E0000000000000000000000000000000000007
:1009F00000000000000000000000000000000000F7
:100A000000000000000000000000000000000000E6
:100A10000000000000000C0353006F0066006C0033
:100A2000650000001A034A006F007300650066004D
:100A30004100640061006D00630069006B0000000C
:100A40000403090409023B00020100A0FA090400A2
:100A500000010301010009211101000122400007EA
:100A600005810308000A09040100010300000009D0
:100A700021110100012232000705820320000A1221
:100A80000100020000000832FC87020100010200A0
:100A90000105010980A101850319012AB70015018B
:100AA00026B700950175108100C0050C0901A10150
:100AB000850419012AA002150126A00295017510CE
:100AC0008100C005010906A101050719E029E71504
:100AD00000250195087501810295017508810105C0
:100AE00007190029FF150026FF00950675088100EB
:100AF00005081901290595057501910295017503F0
:100B00009101C00011241FBECFEFDAE0DEBFCDBFE0
:100B100004B603FE27C080914B0590914C05A0912F
:100B20004D05B0914E058730904BA740B04BD1F4A6
:100B300010924B0510924C0510924D0510924E05E7
:100B400014BE84B7877F84BF0FB6F894A8958091B0
:100B50006000886180936000109260000FBEE0E04A
:100B6000F8E3099511E0A0E0B1E0E8E3F9E602C09E
:100B700005900D92A63FB107D9F725E0A6EFB1E0A9
:100B800001C01D92AB34B207E1F70E94171E0C940E
:100B90005A340C94000083E00895EF92FF921F9363
:100BA000CF93DF93CDB7DEB72B970FB6F894DEBFA8
:100BB0000FBECDBF0E94581B60E0882309F491C08E
:100BC00087EA91E00E941F2260E082EA91E00E94A1
:100BD000312260E081EA91E00E9431228091160387
:100BE00060E080FF1BC08DE991E00E9431222091DE
:100BF0003C0230913D0240913E0250913F02CA01B9
:100C0000B9010E94340A882361F0813009F44BC095
:100C100060E087E891E00E941F2208C089E991E026
:100C2000E4CF60E083E991E00E94312260E084E853
:100C300091E00E941F2260E08EE791E00E94312245
:100C40008091380290913902A0913A02B0913B0212
:100C500088879987AA87BB87BC01CD010E94340A87
:100C60008230B9F120F581112CC060E088E791E075
:100C70000E941F2260E087E591E00E941F220E94EF
:100C8000EB2881FB662760F981E591E02B960FB692
:100C9000F894DEBF0FBECDBFDF91CF911F91FF90C3
:100CA000EF900C94312260E08DE891E0BDCF83306D
:100CB00061F0843091F060E08BE591E00E94312298
:100CC000D9CF60E081E791E0D3CF60E08CE691E09E
:100CD000CFCF60E087E691E0CBCF60E082E691E0A5
:100CE000C7CF8EE491E00E941F2260E089E491E08A
:100CF0000E94312287E0E9E4F1E0DE0111967D01F6
:100D000001900D928A95E1F70E94221E182F3E2D28
:100D1000843608F465C064E60E947E33292F412F93
:100D2000491B550BCA0164E670E00E949E33605D6A
:100D30006A832A3008F43FC0FE013396422F50E008
:100D4000822F6AE00E947E33292FCA01821B9109FB
:100D50006AE070E00E949E33605D6193205D2083B5
:100D600061E0163408F460E0832F9F2D0E941A2260
:100D700060E084E391E00E94312211112CC0809147
:100D8000010290910202892BD9F40E9478238823D2
:100D9000B9F00E94632A90930202809301022B967D
:100DA0000FB6F894DEBF0FBECDBFDF91CF911F917C
:100DB000FF90EF90089580E38B83FE013496CECFB1
:100DC00080910102909102020E948F2A80369A4EF1
:100DD00030F30E945D231092020210920102DFCFD5
:100DE000282FFE0132968A3008F0A8CFB7CF0F9394
:100DF0001F93CF93DF93EC018B010E943622FE01FB
:100E0000E356FD45E830F10508F08AC0E45AFB4C92
:100E1000D8011296CC910C94D13380E0C11109C055
:100E20008C2FDF91CF911F910F910895CC23C1F3A7
:100E300081E00E942E08C0E0F3CF82E0CC2309F4C9
:100E40006CC00E94001044E063E082E00E94C6088B
:100E5000F2CF83E0C111F5CF0E94311044E063E08E
:100E600082E00E94C608DCCF84E0CC2319F00E9407
:100E70000010E1CF0E943110D3CFCC2309F450C031
:100E80008091FD01811106C00E94632A9093FC01AC
:100E90008093FB0181E08093FD018091FA018F5FD7
:100EA0008093FA01BDCFCC2309F4BACF82EE0E9421
:100EB0002B0B80E391E00E94310ABDCFCC2379F067
:100EC00082E00E94001044E063E082E00E94C608D5
:100ED0000E94632A909300028093FF01ACCF80911F
:100EE000FF01909100020E948F2A84369105A0F4A0
:100EF0008091FE0191E089278093FE01882361F0B3
:100F000082E00E94001044E063E082E00E94C60894
:100F100082EE0E946F0B84CF82E00E943110F3CFEB
:100F2000C1E07ECF8091FD018823D1F08091FB014B
:100F30009091FC010E948F2A8F3E924088F0809110
:100F4000FA01813029F0823061F084E291E002C040
:100F50008CE291E00E94310A1092FA011092FD0198
:100F6000089588E291E0F6CFCF93C82F81E06827FB
:100F7000C11117C08091F801813031F48AEF6111FD
:100F800001C089EF0E94AE0BEC2FF0E0E850FE4F5D
:100F900081E09081913009F480E0808381E0CF91FD
:100FA0000895C13089F78091F901813069F789EAA4
:100FB0006111E8CF8AEAE6CF81E008950C94F70644
:100FC00008950C94E0071F93CF93DF9300D000D0D7
:100FD0000F92CDB7DEB749835A836B8330910D02F0
:100FE00089819A8131111DC06623B9F02223A9F0AD
:100FF0000E946711182F682F89819A810E94101111
:1010000069817A81812F0F900F900F900F900F9030
:10101000DF91CF911F910C9452180E943E11182F0E
:10102000EFCF0E94671169817A81EDCFFC01262FF5
:10103000408151816281738184810C94E30781E056
:101040000895CF93DF93D82FC92F60E00E94160830
:101050006D2F7C2FDF91CF910C94E1070F931F939D
:10106000CF93DF9300D000D0CDB7DEB741E050E0A2
:1010700060E070E08A019B0104C0000F111F221F75
:10108000331F8A95D2F709831A832B833C83898186
:101090000E94BE1569817A818B819C810F900F908F
:1010A0000F900F90DF91CF911F910F910C944C0FE7
:1010B0008F929F92AF92BF92CF92DF92EF92FF9268
:1010C0000F931F93CF93DF9300D000D0CDB7DEB73F
:1010D0006B017C0181E090E0A0E0B0E04C015D019B
:1010E00004C0880C991CAA1CBB1C4A95D2F7B501F8
:1010F000A4014C015D0104C0880C991CAA1CBB1CF6
:101100002A95D2F7482959296A297B2904C0880FD2
:10111000991FAA1FBB1F0A95D2F78A019B010C21B8
:101120001D212E213F210417150726073707F9F443
:101130009C01AD012C293D294E295F2929833A8341
:101140004B835C8369817A818B819C810F900F90A6
:101150000F900F90DF91CF911F910F91FF90EF9023
:10116000DF90CF90BF90AF909F908F900895809523
:101170009095A095B0954C015D018C209D20AE20EE
:10118000BF2089829A82AB82BC82DCCF0F93CF933F
:10119000DF9300D000D0CDB7DEB7262F042F4091CB
:1011A00038025091390260913A0270913B024983B2
:1011B0005A836B837C83482F69817A818B819C81E0
:1011C0000E9458080F900F900F900F90DF91CF91D1
:1011D0000F910C94CA0F0E9448190E94860A0C9421
:1011E00081190E94E51E0C94831908950E94E90E4E
:1011F0000E94F5082FEF84E39CE02150804090404E
:10120000E1F700C000000C94E92A0F931F93CF93DD
:10121000DF938C0161E00E941608EC01F8018281E5
:10122000882319F0CE010E944C1EB801CE010E9405
:10123000DE078823A9F1B801CE010E943824882353
:1012400079F1B801CE010E948D24882349F1B801BB
:10125000CE010E947625882319F1F8018281882326
:1012600061F0CB35FDE5DF0721F170F4C115ECE548
:10127000DE07A1F0CF3DDC45C9F0C801DF91CF9179
:101280001F910F910C94DC07CC358DE5D807A1F0A8
:10129000CD35DD4591F70E94EA14EFCF0E94F608A4
:1012A00080E0DF91CF911F910F9108950E94551614
:1012B000F7CF0E94F314E1CF0E94F614DECFDF9245
:1012C000EF92FF920F931F93CF93DF93E82FF0E0FD
:1012D000EE5FFB4FD490282F26952695269530E07B
:1012E000F901EE55FB4F0491877010E0082E02C003
:1012F000159507950A94E2F701701127F901EE564A
:10130000FB4FE490F12C082E02C0F594E7940A9468
:10131000E2F791E0E922FF24F901EE57FB4FC49177
:10132000D0E002C0D595C7958A95E2F7C170DD2758
:101330000115110519F081EE0E942B0BE114F10447
:1013400019F086EE0E942B0B8D2D0E94AE0BEF281C
:1013500019F086EE0E946F0B012B19F081EE0E94AE
:101360006F0BCD2B51F08CE2DF91CF911F910F913C
:10137000FF90EF90DF900C94AE0BDF91CF911F9117
:101380000F91FF90EF90DF900895EF92FF920F93EF
:101390001F93CF93DF938C01F62E8AE0E82EF8019D
:1013A0008491882309F456C0813009F04FC0E801C8
:1013B0002196FE018491813099F42196FE01849159
:1013C0000E94AE0B8E010F5F1F4F8F2D882339F3C4
:1013D000EFE9FFE03197F1F700C000008150F6CF50
:1013E000823039F4E8012296FE0184910E942B0B91
:1013F000E9CF833039F4E8012296FE0184910E94FE
:101400006F0BE0CF8430F1F6E8012296FE012491C3
:1014100080E090E0FE0131962053330B2A303105F5
:1014200050F0009779F2EFE9FFE03197F1F700C053
:1014300000000197F6CFE89EA001E99E500D11240F
:10144000C901840F951F2491EF01E4CF0E945F0929
:10145000E801B8CFDF91CF911F910F91FF90EF90EE
:10146000089560E00C94C5090F931F93462F572FE2
:10147000BC01CB01AA27BB270097A105B105E9F163
:10148000AC01BD0180E1052F162F272F3327011551
:1014900011052105310519F0885FB901A8018A01FC
:1014A0009B01F4E03695279517950795FA95D1F7A6
:1014B000011511052105310519F08C5FB901A8014D
:1014C0008A019B01E2E03695279517950795EA95E5
:1014D000D1F7011511052105310519F08E5FB9010C
:1014E000A8017695679557954795452B462B472B31
:1014F00009F08F5F1F910F91089580E0C4CF089588
:101500000C947F0A81E008950C94820A0895CF9389
:10151000C82F0E94800A8C2FCF910C94840ACF93FD
:10152000DF93EC018881598121E030E0082E01C071
:10153000220F0A94EAF7A52FB0E0AD5FBD4F4C91A2
:101540009A819923D9F090910F029923D1F090E0DC
:1015500066E0569F800D911D1124880F991FFC0194
:10156000E355FF4FE491E983FC01E455FF4FE4911B
:10157000E883422B4C93DF91CF910895942F9223CF
:10158000E4CF20954223F6CFEF92FF920F931F9363
:10159000CF93DF93CDB7DEB72B970FB6F894DEBFAE
:1015A0000FBECDBF042F4F83152F588769877A87C9
:1015B0008B87EA84FB8461110E941B15EF2819F0C8
:1015C00010231F3F79F51E8285E0FE013796DE016C
:1015D000119601900D928A95E1F789819A812C816B
:1015E0003D81232BA9F449815A816B817C818D81B6
:1015F0009E810E94F3132B960FB6F894DEBF0FBEA8
:10160000CDBFDF91CF911F910F91FF90EF90089583
:1016100089238F3F41F3CE0101960E941F0881115B
:10162000E2CFE9CFCE0107960E948F0ACCCFFC0112
:10163000808191810E94A91192959F70963051F4FA
:10164000863F41F080910F0291E0892780930F023D
:1016500090930E020895CF93C82F8823F1F18CEF59
:101660008C0F813AA0F46C2F8091000190910101C0
:101670000E943729882329F08C2F0E9494140E94FD
:101680003E158C2F0E948D14CF910C943E1580E254
:101690008C0F883048F4C77081E001C0880FCA956C
:1016A000EAF70E94FC14F0CF8BE58C0F833038F4FE
:1016B0002C2F2452330BC901CF910C94F928C85A0E
:1016C000C73158F4EC2FF0E0EE0FFF1FE05BFE4F48
:1016D00080819181CF910C940F29CF910895882317
:1016E00029F19CEF980F913A20F40E9494140C94E5
:1016F0003E1590E2980F983050F4877091E001C049
:10170000990F8A95EAF7892F0E940215F0CF9BE581
:10171000980F933020F490E080E00C94F928885AD8
:10172000873120F490E080E00C940F2908951F93F6
:10173000CF93DF93182FEB010E942B0B209731F4EE
:10174000812FDF91CF911F910C946F0B8FE99FE058
:101750000197F1F700C000002197F0CF6AE070E038
:10176000893311F460E570E00C94970B882321F025
:101770000E94FC140C943E150895882321F00E94C9
:1017800002150C943E1508956F927F928F929F924E
:10179000AF92BF92CF92DF92EF92FF920F931F937F
:1017A000CF93DF9300D000D000D0CDB7DEB76C016F
:1017B0006D837E83FC011281058102950F700E946A
:1017C000D114E82E8823B9F0112309F18E81807F8E
:1017D000803449F09D81905E9830C8F0803619F4CD
:1017E000FD81F63FA1F082E00E948F150E94D11486
:1017F00091E0E82EE9268E8182958F70A82EB12C7B
:101800008C30B8F5F501EC59FB4C0C94D133E12C3C
:10181000F2CF0E810F708E81807F11F00295007FD4
:101820001123B1F0002361F08D81805E883018F0C3
:101830006D80611009C0802F0E94FC140E943E152B
:101840008D810E942B0B15C0802F0E940D15F6CFA5
:101850008D810E946F0B002361F08D81805E883046
:1018600018F07D80711043C0802F0E9402150E94E5
:101870003E15F8E0AF1AB10824E0A216B10420F436
:101880000E94D8280E94870A112349F08E81807F08
:10189000803619F49D81963F11F00E94C414EE2009
:1018A00009F431C20E94A71480FD2DC2F6011282F4
:1018B0000E94A1140E940010C6010E94AF0E0E9457
:1018C000A11426960FB6F894DEBF0FBECDBFDF91F0
:1018D000CF911F910F91FF90EF90DF90CF90BF902D
:1018E000AF909F908F907F906F900C943110802FCD
:1018F0000E941315BCCF2E812F70F22E8E81807F17
:10190000803219F0F29480EFF8226D80662071F039
:10191000262D213049F1112391F1002351F1F601D7
:10192000858180FF8DCF8F70858323C0112381F047
:10193000011106C00E9421158F290E94B60B99CF74
:101940000130C1F70E9421158F290E94271591CFE0
:10195000011106C00E9434158F2D0E94BD0B89CF46
:10196000013009F486CFF6CF112329F0063008F0B4
:1019700080CF8F2DE2CF053008F07BCFEDCF002355
:1019800059F3FD81F93369F42FEF87EE93E021508D
:1019900080409040E1F700C000008D810E946F0BF5
:1019A00068CFEFE3FCE93197F1F7F5CF8E818695AB
:1019B0008695837069F0813009F05BCF8D819E81BF
:1019C0009370111102C090E080E00E940F2951CF66
:1019D0008D819E819370111102C090E080E00E9481
:1019E000F92847CF8E81837009F058C0111141CF7B
:1019F0002D81229526952770220F220F4D814F7041
:101A000050E070E060E0022E04C0440F551F661FD6
:101A1000771F0A94D2F76D8080E090E0DC0164FECD
:101A20000FC08FE090E0A0E0B0E004C0880F991FE5
:101A3000AA1FBB1F2A95D2F780959095A095B095C7
:101A40002E812695269523703C014D01642A752A26
:101A5000862A972A69827A828B829C82223081F040
:101A60002330A9F0213029F0C401B3010E94760F80
:101A700000CF69817A818B819C810E944E0FF9CEC3
:101A800069817A818B819C810E949E0FF2CE69814F
:101A90007A818B819C810E944C0FEBCE112309F43B
:101AA00044C07E8070FEE5CE2D812295269527705C
:101AB000220F220F4D814F7050E070E060E0022E47
:101AC00004C0440F551F661F771F0A94D2F79D80EC
:101AD00080E090E0DC0194FE0FC08FE090E0A0E099
:101AE000B0E004C0880F991FAA1FBB1F2A95D2F728
:101AF00080959095A095B0952E812695269523707A
:101B00003C014D01642A752A862A972A69827A82C5
:101B10008B829C822230A1F02330C9F0213049F021
:101B2000C401B3010E94BF10A4CE8E8081FEA1CE5D
:101B3000BBCF69817A818B819C810E94971099CE5D
:101B400069817A818B819C810E94E71092CE6981A4
:101B50007A818B819C810E94CA0F8BCE0E810F707F
:101B6000112329F0802F0E9400108D81E6CE8D81F7
:101B70000E94BD0B802F0E9431107BCE2D81223F11
:101B800099F160F4203FD9F0213F39F1112309F494
:101B900044C0011155CE8E818F7123C08D81833F4A
:101BA00041F1843F99F7112371F10E810F71802F5C
:101BB0000E94001063E0802F0E9474155ACE1123FA
:101BC00041F0053008F055CE8E818F710E9466106D
:101BD00050CE063008F04DCEF7CF8E818F71112395
:101BE00051F20E94001045CE8E818F711123C9F3EE
:101BF000C2CF112329F08E818F710E94DB0F39CE65
:101C00000E94D60F36CE81E00E948F15023008F474
:101C100030CE82E00E948F152CCE002381F09D8172
:101C2000993341F4EFEFF7EE23E0E150F04020402C
:101C3000E1F7B1CE8FE39CE90197F1F7ACCE8E814D
:101C40008F7199CFED81E05FE73090F5F0E0E059DA
:101C5000FB4C0C94D133112309F40BCE80910F026D
:101C600091E0892780930F0204CE10930F0201CEDA
:101C700081E08127F7CF1111FCCD81E0F3CF111165
:101C8000F8CD10920F02F5CD112319F00E94AB147C
:101C9000F0CD0E94B714EDCD112339F080910E02E2
:101CA0008823E1F210920E02E4CD0530B8F2E1CDC6
:101CB00080910E020023D9F0882341F080910F0219
:101CC00091E0892780930F0210920E021111B8CD76
:101CD000EFE3FCE93197F1F700C000008D810E942D
:101CE0006F0B86E0F60111928A95E9F7C2CD882341
:101CF00009F4BFCD1111BDCD80910F0291E089276C
:101D000080930F02CFCF26960FB6F894DEBF0FBE9A
:101D1000CDBFDF91CF911F910F91FF90EF90DF909A
:101D2000CF90BF90AF909F908F907F906F900895CD
:101D30000F931F93CF93DF93EC01688179818A81A0
:101D40000E94B5118C010E940F110E944B0FB80127
:101D5000CE01DF91CF911F910F910C94C40BCF93C3
:101D6000DF93EC01988189812B813C81232B19F031
:101D700089238F3F59F4DF91CF910895CE010E94BE
:101D8000980ECE01DF91CF910C942108CE010E94D4
:101D900005098111F3CF0E94D114882361F38A8150
:101DA000882349F382E0DF91CF910C948F1590E066
:101DB00080E00E94F92890E080E00E940F290E94B4
:101DC0001B150E941E150C943E150E949B140C942A
:101DD000D70E0E940A150C94E50E282F892F8295A4
:101DE0008F70903C80F48A30B0F4843020F48230DC
:101DF00090F480E008958630E1F781E0283E88F095
:101E0000213FB9F70EC08C3011F08F3091F793FB62
:101E1000882780F9089581E0203F39F018F4283EA2
:101E200040F70895243F29F7FCCF0895FC018081F5
:101E300091810E94A9110C94ED0ECF93DF9300D0F5
:101E400000D00F92CDB7DEB70F900F900F900F908C
:101E50000F90DF91CF910895CF93DF9300D000D002
:101E600000D0CDB7DEB726960FB6F894DEBF0FBE12
:101E7000CDBFDF91CF91089508950C943C0F0E943F
:101E80003D0F60933C0270933D0280933E0290931D
:101E90003F020C94D70E08950C943F0FCF93DF931D
:101EA00000D000D0CDB7DEB769837A838B839C8363
:101EB00080913C0290913D02A0913E02B0913F0280
:101EC00029813A814B815C81282B392B4A2B5B2B52
:101ED00029833A834B835C83CA01B9010F900F9029
:101EE0000F900F90DF91CF910C943F0FCF93DF9322
:101EF00000D000D0CDB7DEB769837A838B839C8313
:101F000080913C0290913D02A0913E02B0913F022F
:101F100029813A814B815C81282339234A235B2321
:101F200029833A834B835C83CA01B9010F900F90D8
:101F30000F900F90DF91CF910C943F0FCF93DF93D1
:101F400000D000D0CDB7DEB769837A838B839C83C2
:101F500080913C0290913D02A0913E02B0913F02DF
:101F600029813A814B815C81282739274A275B27C1
:101F700029833A834B835C83CA01B9010F900F9088
:101F80000F900F90DF91CF910C943F0F0C943C0F6A
:101F90000C94C60F0E94C80F6093380270933902E8
:101FA00080933A0290933B020C94D70E60E070E06D
:101FB000CB010C94CA0F0F931F93CF93DF9300D0E4
:101FC00000D0CDB7DEB741E050E060E070E08A01BC
:101FD0009B0104C0000F111F221F331F8A95D2F7E7
:101FE00009831A832B833C83C901B8010F900F909A
:101FF0000F900F90DF91CF911F910F910C94CA0F0A
:102000000F931F93CF93DF9300D000D0CDB7DEB7EF
:1020100041E050E060E070E004C0440F551F661FCF
:10202000771F8A95D2F78091380290913902A0915A
:102030003A02B0913B028A019B01082B192B2A2BF3
:102040003B2B09831A832B833C83C901B8010F9072
:102050000F900F900F90DF91CF911F910F910C94E3
:10206000CA0F0F931F93CF93DF9300D000D0CDB74B
:10207000DEB741E050E060E070E004C0440F551F5F
:10208000661F771F8A95D2F7409550956095709599
:102090008091380290913902A0913A02B0913B02AE
:1020A0008A019B01082319232A233B2309831A83CE
:1020B0002B833C83C901B8010F900F900F900F90B4
:1020C000DF91CF911F910F910C94CA0F0F931F9323
:1020D000CF93DF9300D000D0CDB7DEB741E050E022
:1020E00060E070E004C0440F551F661F771F8A959B
:1020F000D2F78091380290913902A0913A02B091C2
:102100003B028A019B01082719272A273B270983BD
:102110001A832B833C83C901B8010F900F900F9055
:102120000F90DF91CF911F910F910C94CA0FCF9315
:10213000DF9300D000D0CDB7DEB769837A838B837D
:102140009C838091380290913902A0913A02B0911B
:102150003B0229813A814B815C81282B392B4A2B08
:102160005B2B29833A834B835C83CA01B9010F90AF
:102170000F900F900F90DF91CF910C94CA0FCF93D7
:10218000DF9300D000D0CDB7DEB769837A838B832D
:102190009C838091380290913902A0913A02B091CB
:1021A0003B0229813A814B815C81282339234A23D0
:1021B0005B2329833A834B835C83CA01B9010F9067
:1021C0000F900F900F90DF91CF910C94CA0FCF9387
:1021D000DF9300D000D0CDB7DEB769837A838B83DD
:1021E0009C838091380290913902A0913A02B0917B
:1021F0003B0229813A814B815C81282739274A2774
:102200005B2729833A834B835C83CA01B9010F9012
:102210000F900F900F90DF91CF910C94CA0F0895FB
:10222000E92FEE0FE90FEE0FE80F8E2F877041E0D8
:1022300001C0440F8A95EAF7E695E695E69585E0B4
:10224000E89FF0011124E05FFD4F30E020E070E0F6
:102250005191DF011197CB01022E02C0969587950F
:102260000A94E2F7817081958527842385278C93D2
:102270002F5F3F4F2530310559F70895E92FEE0FB5
:10228000E90FEE0FE80F9E2F9770E695E695E6951D
:1022900085E0E89FF0011124E05FFD4F50E040E051
:1022A00080E0219130E0092E02C0369527950A94EE
:1022B000E2F721703327042E01C0220F0A94EAF7B7
:1022C000822B4F5F5F4F4530510559F70895BF92FC
:1022D000CF92DF92EF92FF920F931F93CF93DF93F2
:1022E0008C01C0903802D0903902E0903A02F09010
:1022F0003B0280913C0290913D02A0913E02B09140
:102300003F02C82AD92AEA2AFB2ACFE1D0E0BC2E14
:10231000D701C6010C2E04C0B695A7959795879551
:102320000A94D2F780FD0EC0219788F7B12C8B2D2F
:10233000DF91CF911F910F91FF90EF90DF90CF90A1
:10234000BF900895B8018C2F0E946618019761F321
:10235000EECFCF93DF93D82FC92F0E9467116D2F37
:102360007C2FDF91CF910C9466181F93CF93DF934E
:10237000162FD72F90910D02992339F0862F972F82
:10238000DF91CF911F910C94A911882391F0862F92
:10239000972F0E946711C82F682F812F9D2F0E94B1
:1023A0001011612F7D2F8C2FDF91CF911F910C94F5
:1023B0006618862F972F0E943E11C82FF2CF1F93C9
:1023C000CF93DF93E091400216E0809141028E139B
:1023D00004C0DF91CF911F910895CE2FD0E01E9FB2
:1023E000F0011124EE5BFD4F4081518162817381C8
:1023F000848195810E942C0F2196EC2FE770E5CF08
:102400004091720250917302609174027091750252
:1024100080917602909177020C942C0F1F93CF93AA
:10242000DF9380917702807FA9F4809174028823E2
:1024300089F080914002C0914102709172026091D6
:102440007302A0917502B0917602D62FD72316E0C1
:10245000C81304C0DF91CF911F91089590E01097A9
:1024600011F0DF3F19F401968770F2CF189F9001A9
:10247000199F300D1124F901EE5BFD4F418164136A
:10248000F2CF40814713EFCF42814111ECCF43811E
:1024900054814A1B5B0B4436510528F78091770223
:1024A0008F70806180937702F901E95BFD4F808135
:1024B0008F708061808382E792E00E94AF0EDF918F
:1024C000CF911F910C94DF11AF92BF92CF92DF9208
:1024D000EF92FF920F931F93CF93DF93CDB7DEB7A9
:1024E0002B970FB6F894DEBF0FBECDBF8C0185E0F1
:1024F000F801DE01179601900D928A95E1F7F80137
:10250000E280C380D48082E7A82E82E0B82E20919A
:1025100072029091730240917502509176024115BA
:10252000510529F0892F82238F3F09F049C1EE2000
:1025300009F455C1C8010E94160FF82E882309F42A
:102540004EC186E0F801A2E7B2E001900D928A95B3
:10255000E1F782E792E00E94170B0E940E1200C181
:1025600080917702682F607F4436510508F0A8C03B
:10257000F80131816111E0C0FE2C391325C0908132
:10258000921322C0E11020C08F7080618093770287
:102590000E94001282E792E00E94AF0E80917702C3
:1025A000F80185838F2D2B960FB6F894DEBF0FBEF2
:1025B000CDBFDF91CF911F910F91FF90EF90DF90F2
:1025C000CF90BF90AF9008952F81CD2829F0832F11
:1025D00082238F3F09F0ADC080E0F82FF170DF2E2D
:1025E000E09140024091410256E080FD1CC0EE2087
:1025F000C9F280917702816080937702F12CD2CF6B
:102600008E2F90E05E9FF0011124EE5BFD4F618103
:10261000361306C06081621303C06281E612E7CF01
:102620000196E82FE770E413EBCF8F8198850E9425
:10263000A911292F22952F70903260F0225F2F7000
:10264000223078F49F7051F0F8019581907F31F439
:10265000D12C0AC09F7011F08823D1F3805E88309E
:10266000B8F3C8010E94AF0EFD2C9CCFC8010E9498
:10267000160F882309F4B3C0EE2009F4B0C080918E
:102680007702803270F020917202309173023A83A7
:1026900029831B82DD82CC828E83CE0101960E942B
:1026A000AF0E86E0F801A2E7B2E001900D928A95A4
:1026B000E1F70E940E120E940012FF24F39472CFE1
:1026C000611151C04F81588569857A858B850E943B
:1026D0001D0F82E792E00E94AF0E86E0F501119295
:1026E0008A95E9F70E94001289CF86E0F801A2E7F7
:1026F000B2E001900D928A95E1F754CFC8010E9493
:10270000160F8111CECF809177028160809377027E
:10271000C8010E94AF0E46CF4F81588569857A85E2
:102720008B850E941D0F86E0F50111928A95E9F7CD
:1027300017C081E08E2551CF391398CFF8019081D1
:10274000921394CFE11092CF8583C8010E94AF0EFF
:1027500086E0F801A2E7B2E001900D928A95E1F7D8
:102760000E9400121FCFF801318193137FCFF8012F
:10277000908192137BCFE11079CF8583C8010E94AD
:10278000AF0E86E0F50111928A95E9F70BCFF801BB
:1027900081819813B3CFF80180818213AFCF8091EC
:1027A000770280FDA2CF982F907F09F49ECF85837A
:1027B000903F59F2982F907F905F8F70892BC4CFF4
:1027C000F0907402B601641B750BAB01F110C8CE1A
:1027D0004436510508F0A0CFFE2CE110D8CFC80137
:1027E0000E94AF0E6ACF1F93CF93DF93CDB7DEB7B2
:1027F0002C970FB6F894DEBF0FBECDBF4F8358871E
:1028000069877A878B879C87CE0107960E9464121E
:10281000882369F08A859B85892B39F058854F81FB
:10282000852F84238F3F09F071C016E05FC086E0DA
:10283000FE013796DE01119601900D928A95E1F71F
:102840008F81988520914102409140026A857B8565
:10285000672B59F389238F3F41F330E0C90101967B
:10286000877099274817190671F40E94E90E109293
:1028700041021092400286E0E2E7F2E0DF011D92A1
:102880008A95E9F7D2CF96E0929FD001939FB00D41
:102890001124AE5BBD4FFE01319601900D929A95C9
:1028A000E1F7809341020E94DF11BFCF819FC001F9
:1028B00011248E5B9D4F0E9464128823E9F0E09101
:1028C00040021E9FF0011124EE5BFD4F40815181BB
:1028D00062817381848195810E942C0F80914002D6
:1028E00090E0019687709927809340028091400282
:1028F000909141028913DACF2C960FB6F894DEBF7F
:102900000FBECDBFDF91CF911F91089569857A8564
:102910008B859C850E942C0F88CF682F80910001A9
:10292000909101010C947129682F80910001909180
:1029300001010C94732980910001909101010C9484
:102940007529809179028595859585950895809161
:1029500079028770089582E08093780281E0809305
:102960000F0208951092780210920F02089580913C
:102970007802823021F481E08093780208958330D8
:1029800011F40C94B214089580917802823021F4ED
:1029900083E0809378020895813011F40C94B2148E
:1029A000089590917902977081E009F480E008958C
:1029B0009091160392FB222720F9281751F080FBF3
:1029C00092F99093160380911503909116030C943D
:1029D000D11508958091160382FB882780F991E034
:1029E00089270C94D81481E00C94D81480E00C94BE
:1029F000D81480918502089590918502982B909328
:102A000085020895982F909580918502892380935F
:102A10008502089510928502089590918402982B62
:102A2000909384020895982F909580918402892331
:102A30008093840208951092840208951092830274
:102A4000089580917A02089508950C942415909128
:102A5000160392FD08C090917A02981721F0809396
:102A60007A020C942515089580917A02882329F022
:102A700010927A0280E00C9425150895E0910001EF
:102A8000F0910101809185028083E0910001F09135
:102A90000101808190918402892B8083E091000163
:102AA000F0910101808190918302892B8083909124
:102AB0007A02992381F0E0910001F0910101808177
:102AC000892B808380910001909101010E9425292A
:102AD00081110E94341580910001909101010C94A4
:102AE000EE2808950C9471159091160392FD10C074
:102AF00098E0899F90011124622B609379020E94D3
:102B00000010809179028595859585950C947215B4
:102B10000C9400101092790280E00C947215909140
:102B200079028095892380937902282F277039F4C0
:102B3000282F082E000C330B9217130621F49091C6
:102B4000160392FF07C08595859585950E943110E3
:102B50000C948A15089590E080E00E9420349C0136
:102B600081E0293E3E4F09F080E0089582E090E048
:102B70000C94183483E090E00C941834682F83E0B0
:102B800090E00C942634CF9384E090E00E941834B7
:102B9000C82F82E290E00E941834982F8C2FCF919A
:102BA0000895CF93682FC92F84E090E00E942634C7
:102BB0006C2F82E290E0CF910C942634AB01BC01E3
:102BC0008FE090E00C943834AB01BC0183E190E0DD
:102BD0000C94383460E070E0CB010C94E41560E0B4
:102BE00070E0CB010E94DE150C94EA1569EE7EEFD1
:102BF00090E080E00E94443460E082E090E00E9437
:102C0000263460E083E090E00E94263410923C027B
:102C100010923D0210923E0210923F0260E084E06A
:102C200090E00E94263460E082E290E00E94263428
:102C300060E085E090E00E94263460E086E090E06D
:102C40000E9426346FEF87E090E00E94263440E037
:102C500050E0BA0188E090E00E94383460E08DE0F6
:102C600090E00E94263440E050E0BA0188E190E014
:102C70000E94383460E087E190E00E94263440E012
:102C800050E0BA018CE190E00E94383470E060E0DE
:102C900080E290E00E94443440E050E0BA0188E1D4
:102CA00090E00E9438340C94EF150C94F615682FC0
:102CB0008EE090E00C9426340E946F2A6093990273
:102CC00070939A0280939B0290939C02609395026A
:102CD00070939602809397029093980208950E94B1
:102CE0006F2A6093990270939A0280939B0290934B
:102CF0009C0260939102709392028093930290934E
:102D00009402089585B7806885BF85B7806885BFC0
:102D10000895089508950C94891608950C948D16BD
:102D20000E94821685E499E10E94FA2A0E948A167E
:102D30000C948B160C94581B089508950E949C16B1
:102D40000C949D160E945A2A0E947D290E94361AD0
:102D50000E946E2080E00E94CA200E945B1F0C949B
:102D60008E169F92AF92BF92CF92DF92EF92FF9218
:102D70000F931F93CF93DF9300D000D00F92CDB766
:102D8000DEB70E94C51AD82E81110E945C1687E812
:102D9000A82E82E0B82E10E000E0902E802F0E9436
:102DA0008519F82EF501E1905F01E81609F459C084
:102DB00080919D0281FD0E948B198E2D8F25C12C43
:102DC000EE24E394982F9E2109F446C00E949A169F
:102DD000882399F0C9829A82FE2081E009F480E07C
:102DE0008B830E94632A8160782F9D838C83498125
:102DF0005A816B81892F0E94C40AF801E957FD4F5F
:102E000080818E2580830E94C01F182F81110E940F
:102E10006F160E947B23D11001C011110E9436222F
:102E20000E94D82890918602891791F10E94D82893
:102E3000809386020F900F900F900F900F90DF916C
:102E4000CF911F910F91FF90EF90DF90CF90BF90A7
:102E5000AF909F900C94870AC394EE0CF6E0CF12CB
:102E6000B1CF0F5F1F4F0A30110509F096CF8FEFDA
:102E700089838A831B820E94632A8160782F9D83C5
:102E80008C8349815A816B81892F0E94C40ABBCFF0
:102E90000F900F900F900F900F90DF91CF911F9197
:102EA0000F91FF90EF90DF90CF90BF90AF909F90E9
:102EB0000895CF93DF930E946A18EC01811523E5F2
:102EC000920708F044C0811532E5930708F0C1C0AD
:102ED000883E9105E8F4803E910570F4883A9105AA
:102EE00078F4853A910508F089C08130910521F088
:102EF0000497813A910548F4CE01DF91CF9108956E
:102F0000885A9109479708F47CC0D0E0C0E0F4CF1C
:102F1000C11581E5D807B0F4C11520E5D20708F046
:102F20007BC0C11530E2D30728F4CF3FD10569F348
:102F300060F3E2CFCE0190548115904130F7DF70FD
:102F4000D06ADACFDC2FCC27C16FD06AD5CF8115FC
:102F500037E5930768F5C11586E5D80708F09FC0E7
:102F6000C11525E5D207C8F4C11534E5D30708F02B
:102F700083C09E012370332781E090E002C0880F58
:102F8000991F2A95E2F7C695C69520E2C29FE001F7
:102F90001124C82BD92BDA68AFCF8C2F0E940219CD
:102FA000C82FD0E0DC2FCC27CC27DF71D062A4CF94
:102FB00081153AE5930788F4C11589E5D80708F02B
:102FC00060C0CE0198558F3F910511F008F09DCF5C
:102FD000DC2FCC27C06FD06A8FCF905681159042DE
:102FE00008F093CF8D2F8F710E94021990E0982FD7
:102FF000882788279F718C2BEC01D8CFA497D064A9
:103000007BCFC85AD0E0CC0FDD1FC258DE4F0990ED
:10301000D881C02DD46470CF9E0164E03695279589
:103020006A95E1F723708C2F86958695837030E240
:10303000839FC0011124922BC37021E030E002C0B5
:10304000220F331FCA95E2F7822B932BEC01DC6829
:1030500053CF9C012370332781E090E002C0880F9A
:10306000991F2A95E2F7C695C69520E2C29FE00116
:103070001124C82BD92BEBCFDC2FCC27C46FD06AFF
:103080003BCF8C2F8F700E94021934E0D695C795E4
:103090003A95E1F7CF709C2FEC01D0692DCFDD2759
:1030A000D0662ACF972F70E026E0929F600D711DA9
:1030B0001124FB019CE3899FE00DF11D1124EE0F0B
:1030C000FF1FE655FE4F8591949108950E94521876
:1030D0000C945917803E910599F1C8F481339105FC
:1030E00009F476C048F48932910509F46AC08A323D
:1030F000910509F474C0089589339105D1F082389F
:103100009105B9F08533910509F454C00895843EC2
:10311000910599F138F4823E9105F9F0833E9105CD
:1031200009F10895863E910599F1873E9105B9F11F
:103130000895209115032370A1F080EE90E008958A
:103140002091150320FD52C03091160330FF09C0B5
:1031500024FF4FC090E080E004C02091150322FDC1
:10316000F7CF08952091150322FD46C03091160334
:1031700030FDE3CF24FFF5CFEDCF2091160321FFE3
:10318000F0CF8091150384FDE5CF87EE90E00895A0
:103190002091150323FFE5CF24FDDCCFF6CF20914E
:1031A000150323FD2CC03091160331FFE3CF84EECD
:1031B00090E008952091150325FFD3CF89E290E098
:1031C00008952091150325FFCCCF85E390E0089565
:1031D0002091150326FFC5CF8AE290E00895209143
:1031E000150326FFBECF81E390E0089589E390E0C8
:1031F000089583EE90E0089582EE90E0089586EEC3
:1032000090E008959091150392FF06C0282F287131
:103210002830F9F4877F846093FF06C0282F287137
:103220002831F1F4877E84612091160320FF06C0C7
:10323000382F38713830D9F4877F816021FF06C07C
:10324000282F28712831D1F4877E816194FD877EF3
:103250000895282F24712430F9F68B7F8860DCCF05
:10326000282F2471243101F78B7E8861DDCF382F20
:103270003171313019F78E7F8860E0CF282F2171AE
:10328000213121F78E7E8861E1CF80E00895089595
:10329000CF93DF9300D000D0CDB7DEB70E94AB153F
:1032A000811102C00E9455160E94B61580939D029E
:1032B0000E94C31590931603809315030E9447192B
:1032C0000E94BA15282F30E050E040E0CA01B90151
:1032D0000E944C0F8091380290913902A0913A02DD
:1032E000B0913B0289839A83AB83BC83BC01CD013F
:1032F0000F900F900F900F90DF91CF910C94C80F0B
:1033000008950C9480190C949207E82FF0E0EF5D7B
:10331000FC4F80810895089580EA8A95F1F7089519
:1033200000C008950C948C19F894E82FE295EF7082
:10333000F0E041A18F7021E030E0B90102C0660FDA
:10334000771F8A95E2F7CB01962F9095942391A34E
:1033500092A1892B82A37894089508950C94AD19B5
:10336000CF93DF93C2EBD1E089918F3F11F00E94A0
:10337000941981E0C73BD807B9F7CCEAD1E089912D
:103380008F3F11F00E94941981E0C23BD807B9F732
:10339000DF91CF910895CF92DF92EF92FF920F933A
:1033A0001F93CF93DF93EC01D62E062F10E0C801B8
:1033B0008E549E4F7C01FC0180818F3F09F44BC0ED
:1033C000F894E82FE295EF70F0E091A18F7021E082
:1033D00030E001C0220F8A95EAF7892F822B81A362
:1033E00082A12095282322A378940E949019ECEAC8
:1033F000F1E030E020E0C12C51E041914F3FA1F1DC
:10340000A42FA295AF70A05EB0E08C9190E04F70B9
:1034100002C0959587954A95E2F780FD25C0952FC6
:10342000022E01C0990F0A94EAF7C92A2F5F3F4F75
:103430002630310511F7F70180818F3F11F00E948E
:10344000941961E0C11001C060E08D2D0E949219B5
:10345000C00FD11FC882DF91CF911F910F91FF90B4
:10346000EF90DF90CF90089590E0DFCF0E94721B25
:10347000809102018091020195E0811190E090938A
:103480002C0385E0891B80932B030E94B0198AE0EE
:10349000E7E1F3E0DF01982F1D929A95E9F7E1E269
:1034A000F3E0DF011D928A95E9F785E00E94211B78
:1034B0000E94EB080C947C1BFF920F931F93CF93F9
:1034C000DF9300D000D00F92CDB7DEB70E94581B1B
:1034D000F82E60912C03882309F44AC01A821982BD
:1034E000FE01339683E0DF011D928A95E9F7862F6E
:1034F00090E08E010F5F1F4FB8018F5D9C4F0E94BF
:103500008A1BE0912B03F0E0882329F1BF016F5D56
:103510007C4FD8019E012A5F3F4FF12CFB01419166
:10352000BF019D91491731F0AF0141505109FA0196
:103530009083F82EA217B30789F70E94F1088F2D08
:103540000F900F900F900F900F90DF91CF911F91E0
:103550000F91FF900895EF5DFC4F85E0DF01982FFC
:103560001D929A95E9F7D8011D928A95E9F7E5CF62
:1035700070E06F5D7C4F80912B0390E08F5D9C4FDE
:103580000E94201C0E94AE19DACFDF92EF92FF92C8
:103590000F931F93CF93DF93CDB7DEB72A970FB664
:1035A000F894DEBF0FBECDBF1A821982FE0133969A
:1035B00088E0DF011D928A95E9F7F12C8E010F5FFB
:1035C0001F4F6F2DC8010E94CB19F394D02EE12E0E
:1035D000B5E0FB12F6CF4AE050E0B80187E193E096
:1035E0000E9402348C0121E0892B09F420E00115AE
:1035F000110549F08AE0ED2DFE2DA7E1B3E0019021
:103600000D928A95E1F760912C0370E06F5D7C4F1D
:1036100045E087E193E00E94221B81E090E0012BCE
:1036200011F40E945C1A2A960FB6F894DEBF0FBE02
:10363000CDBFDF91CF911F910F91FF90EF90DF9061
:1036400008950895FF920F931F93CF93DF93F82E61
:10365000092F162FD72FC42F222349F081E0809302
:10366000A0020E94632A90939F0280939E02809101
:10367000A0028823A1F080919E0290919F020E9457
:103680008F2A059760F0EF2DF02FA12FBD2FCF01CE
:103690008C0F911DE817F90741F41092A002DF91F9
:1036A000CF911F910F91FF90089521912D93F2CF0B
:1036B0008091A302811107C00E948231882351F0BA
:1036C00081E08093A30281E09091A302913009F000
:1036D00080E0089582E08093A3020E947D31F3CFC1
:1036E0000C94581B0E94701B809302010E94581B6F
:1036F00081110C94C21B08950E94581B811102C0B5
:103700000C94C41B089581E09091A4029A3008F0B3
:1037100080E008950F931F93CF93DF93EC01162F52
:10372000072F8091A4028A30C0F4612F702FCE0140
:103730000E941E1CC82F811122C08091A4028F3FBD
:10374000B9F40E94632A9093A2028093A1028C2F65
:10375000DF91CF911F910F9108958091A1029091D7
:10376000A2020E948F2A843F9140F8F6C0E0EFCF7A
:103770008F5F8093A4028A3020F7C1E0E8CF1092D7
:10378000A402E5CF0C9411270C941427CF92DF925A
:10379000EF92FF920F931F93CF93DF93FA0169018A
:1037A0007801C82F880FDD0B3097B9F08AE08C9F25
:1037B000D0018D9FB00D1124AD5FBE4F13968D913A
:1037C0009C9114978B559D4F12964C9150E0E417A5
:1037D000F50708F4AF010E940F34CE010E941F28A4
:1037E000892B11F5E114F104E9F08AE08C9FF001D6
:1037F0008D9FF00D1124ED5FFE4F458150E0E416E2
:10380000F50608F4A7018AE08C9FF0018D9FF00D6A
:103810001124ED5FFE4F668177816B557D4FC601A8
:103820000E940F3481E001C080E0DF91CF911F91B1
:103830000F91FF90EF90DF90CF9008950C949A1D18
:103840000C94C71D0F931F93CF93DF93CDB7DEB7B3
:1038500028970FB6F894DEBF0FBECDBF8091C2028D
:103860009091C302A091C402B091C502BC01CD01E8
:103870000E949E2A11E0643671058105910520F1B0
:103880000E94AF29DC01CB010296A11DB11D8983E5
:103890009A83AB83BC8310E000E030E020E044E09A
:1038A00050E0BE016F5F7F4F84E00E94C61B182F5F
:1038B000882351F00E946F2A6093C2027093C30262
:1038C0008093C4029093C502812F28960FB6F89476
:1038D000DEBF0FBECDBFDF91CF911F910F91089535
:1038E000AF92BF92CF92DF92EF92FF920F931F930E
:1038F000CF93DF93F82EE92ED62EC72E89010E9492
:10390000831BAA24A394B12C882319F08AE0A82E43
:10391000B12CC1E0D0E0F8946D2D7C2D8F2D9E2D23
:10392000F80109957894811104C02196AC16BD0662
:103930005CF4DF91CF911F910F91FF90EF90DF909A
:10394000CF90BF90AF900895CC9F9001CD9F300D48
:10395000300D112490E080E045E34A95F1F7000036
:10396000019628173907C1F7D6CF6F927F928F92B1
:103970009F92AF92BF92CF92DF92EF92FF920F93FE
:103980001F93CF93DF9300D000D00F92CDB7DEB757
:10399000662E5A01722E832E902EC12E01E010E069
:1039A0009E012F5F3F4F50E040E070E060E00E94DA
:1039B000C61BD82E882309F449C0D5018D919D914D
:1039C0000D90BC91A02DBC01CD010E949E2A6436B1
:1039D00071058105910590F18701272D382D50E063
:1039E00040E070E060E0862D0E94C61BD82EB70133
:1039F000892D9C2D0E946F2091E02981281390E051
:103A0000D92239F00E946F2AF50160837183828385
:103A100093838D2D0F900F900F900F900F90DF914B
:103A2000CF911F910F91FF90EF90DF90CF90BF90BB
:103A3000AF909F908F907F906F900895B701892DE0
:103A40009C2D0E946F2099818913C6CFA701692DF3
:103A50007C2D872D982D0E940F34DBCFEF92FF92A3
:103A60000F931F93CF93DF930F92CDB7DEB70091E3
:103A7000BC011091BD01095F1F4FEE24E394F12CAE
:103A80009E012F5F3F4F4EEB52E063E082E00E94C9
:103A9000B51C182F882321F0CE0101960E942F20FB
:103AA000812F0F90DF91CF911F910F91FF90EF9099
:103AB0000895CF92DF92EF92FF920F931F93CF93CF
:103AC000DF9300D000D00F92CDB7DEB76B0100912D
:103AD000BC011091BD010F5F1F4F85E0E82EF12C56
:103AE0009E012F5F3F4F4AEB52E061E080E00E9471
:103AF000B51C882349F095E0FE013196A5EBB2E0B4
:103B000001900D929A95E1F795E0E5EBF2E0D60190
:103B100001900D929A95E1F70F900F900F900F90F2
:103B20000F90DF91CF911F910F91FF90EF90DF9059
:103B3000CF9008950F931F93CF93DF93D82FC92F62
:103B40008B0129E53DE14EEB51E00E94701C88237A
:103B5000C1F02EE23DE14BEC51E0B8018D2F9C2FDE
:103B60000E94701C882369F022E23CE143ED51E0A1
:103B7000B8018D2F9C2FDF91CF911F910F910C9445
:103B8000701C80E0DF91CF911F910F9108950F93EA
:103B90001F93CF93DF930F92CDB7DEB7FB01F8945D
:103BA0000091BC011091BD01C801019625E0DC0126
:103BB00001900D922A95E1F765E070E00E946F2078
:103BC000F80180837894F894CE0101960E94262013
:103BD0008981F801878361E070E0CE0101960E943F
:103BE0006F20F80186837894F894608571858285CA
:103BF00093850091B1021091B2022091B3023091ED
:103C0000B402601771078207930751F06093B10205
:103C10007093B2028093B3029093B4020E948629FB
:103C200078940F90DF91CF911F910F9108950E948A
:103C3000E0290E943A2C0E94532C0E94652C0E947D
:103C40009E16FBCF8091C80208959C019056811565
:103C500040E2940748F0905E811540E1940720F01F
:103C6000915C81159F4168F43327C90104978497BB
:103C700078F02B52310981E02E30310550F080E090
:103C800008952F3F310589F380F330E020E0EDCF38
:103C900081E008950C94251EEF92FF920F931F93DD
:103CA000CF93DF9300D000D000D00F92CDB7DEB716
:103CB0000E944A1E882309F47BC08091C60290911D
:103CC000C702009709F46EC00E948F2A2091C80293
:103CD0002D839C0150E040E060E67AEE80E090E0C9
:103CE0000E94B233CA01B90127E030E040E050E061
:103CF0000E94B2332F3F310519F010F02FEF30E062
:103D00009D81892F90E09F838E83281B390BC901E9
:103D1000B0E0A0E089839A83AB83BC83B901CD0175
:103D20000E94423227EA39E747E45DE369837A83F8
:103D30008B839C8369817A818B819C810E94113362
:103D400069837A838B839C8369817A818B819C814F
:103D50000E94FC317B018C018E819F81092E000C19
:103D6000AA0BBB0B89839A83AB83BC83BC01CD01B7
:103D70000E9444329701A80169837A838B839C83D4
:103D800069817A818B819C810E94903169837A83D9
:103D90008B839C8369817A818B819C810E94133201
:103DA0006093C8020E94632A9093C7028093C60260
:103DB00027960FB6F894DEBF0FBECDBFDF91CF912F
:103DC0001F910F91FF90EF900895EF92FF920F9344
:103DD0001F93CF93DF9300D000D000D0CDB7DEB7D4
:103DE0008091C6029091C7020E948F2A893E93401B
:103DF00008F452C03091C802432F50E05E834D83D7
:103E0000CA019195819591099C01990F440B550B1D
:103E100029833A834B835C83CA01B9010E944432EF
:103E200027EA39E747E45DE369837A838B839C83E0
:103E300069817A818B819C810E9411337B018C0185
:103E40008D819E81092E000CAA0BBB0B89839A835E
:103E5000AB83BC83BC01CD010E9444329B01AC0109
:103E6000E982FA820B831C8369817A818B819C8130
:103E70000E94903169837A838B839C8369817A81E4
:103E80008B819C810E9413326093C8020E94632A36
:103E90009093C7028093C60226960FB6F894DEBFB1
:103EA0000FBECDBFDF91CF911F910F91FF90EF908B
:103EB00008950C94B407CF93DF9380910201811190
:103EC00006C084EF8093360185EF809335014091E1
:103ED0003601A42FA295AF70E1E2EA0FF0E0308145
:103EE0004F7081E090E0BC01042E01C0660F0A947F
:103EF000EAF7262F209523232083E2E2EA0FF0E061
:103F00002081262B208330913501E32FE295EF703D
:103F1000C1E2CE0FD0E028813F70032E01C0880F90
:103F20000A94EAF7982F909592239883C2E2CE0FD5
:103F3000D0E09881892B8883A05EB0E02C91E05E70
:103F4000F0E0808190E002C0959587953A95E2F780
:103F50008170880F30E002C0359527954A95E2F7C9
:103F60002170822B8093CE029091020181E09827EC
:103F70009093CA02891B8093C902DF91CF91089563
:103F8000CF9340913601E42FE295EF70E05EF0E0D0
:103F9000208130913501E32FE295EF70E05EF0E093
:103FA000808190E03F7002C0959587953A95E2F741
:103FB000880F991F8270992730E04F7002C03595A5
:103FC00027954A95E2F721703327822BE091CE02A4
:103FD000EE0FEE0FE82BE093CE02C091CA02EF7015
:103FE000F0E0E252FE4F80819091CD02890F8093E4
:103FF000CD0220E0823064F0EC2FF0E0E553FD4F7D
:1040000080818F5F808360E08C2F0E94591F21E0A8
:104010008091CD028F3F64F4EC2FF0E0E553FD4F2B
:1040200080818150808361E08C2F0E94591F21E0A4
:104030008091CD02082E000C990B62E070E00E9486
:104040009E338093CD02822FCF910895E091CA02D2
:10405000F0E0E553FD4F2081FC0120830895FF929D
:104060000F931F93CF93DF93D091C9020D2F10E0D0
:1040700005531D4FFC01C081F8018081C81BFC2E37
:1040800080E01F147CF09C2FC7FD90E0C91BC1117C
:1040900014C08823E9F0DF91CF911F910F91FF9019
:1040A0000C946F16FA94F80180818F5F808360E032
:1040B0008D2F0E94591F81E0E4CFCF5FF8018081EE
:1040C0008150808361E08D2F0E94591F81E0DFCFF6
:1040D000DF91CF911F910F91FF9008950895FC01FA
:1040E000680F791F8FEF91E36E177F0709F408952A
:1040F0002191822728E030E087FF06C0880F8927BA
:1041000021503109C9F7F0CF880FFACFCF92DF9253
:10411000EF92FF920F931F93CF93DF936C017B017C
:1041200064E670E088E70E94A625EC018601EC0CAD
:10413000FD1C97FD0EC0F801849164E670E00E94BA
:104140001F26EC01892B29F40F5F1F4FE016F106A3
:1041500091F70E94AC26CE01DF91CF911F910F9174
:10416000FF90EF90DF90CF900895EEE2F3E080E0D3
:1041700092E0DF019C011D9221503040E1F7F09365
:104180003505E09334058FEF9FEF9093FB0280930A
:10419000FA020895CF93DF9300D000D0CDB7DEB7F9
:1041A0000E94CB0590E280FF90E88093F602909306
:1041B000F5020E94A0256DE070E089EC94E00E9479
:1041C0008620892B41F080E00F900F900F900F9088
:1041D000DF91CF9108958091F60263E070E081FD58
:1041E00028C086EC94E00E948620892B61F76DE060
:1041F00070E086EB94E00E948620892B21F70E94D4
:104200006F2ADC01CB01805A9541AF4FBF4F80939D
:10421000300590933105A0933205B09333050E9489
:10422000B52081E08093F9028093F8021092F702A2
:10423000CBCF83EC94E0D7CF2091F50236E0839F7B
:10424000C0011124629F800D911D1124811522E06F
:10425000920714F090E080E0825D9C4F90933505CA
:104260008093340508952091340530913505285206
:1042700033404091F502642F70E0C9010E948A33F7
:10428000481B463010F4240F311D211582E03807F9
:1042900010F030E020E0225D3C4F30933505209354
:1042A000340508951F93CF93DF93982F162F81E045
:1042B0009A3019F09D3031F480E0DF91CF911F9159
:1042C0000C94CC21C0913405D091350586E0FE01D7
:1042D000AFECB2E001900D928A95E1F7903EC8F004
:1042E00086E0FE0111928A95E9F711111EC0C09176
:1042F0003405D091350546E050E0BE018FEC92E0E8
:104300000E940234892BF9F4DF91CF911F910C9414
:104310003321F6E09F9FB00111246A527B4F46E0A3
:1043200050E0CE010E94F933E0CFE0913405F091E6
:1043300035059F012A5F3F4F2E173F07C1F280814D
:1043400080958193F9CFCE52D340CE0125E096954A
:1043500087952A95E1F721E030E0A90102C0440FDA
:10436000551F8A95E2F7CA014091FA025091FB026B
:10437000842B952B259645E0D695C7954A95E1F770
:1043800002C0220F331FCA95E2F7822B932B909322
:10439000FB028093FA02B8CFCF93E82F2091340527
:1043A000309135052E5233404091F502642F70E074
:1043B000C9010E948A33481B842FEE2369F066E00E
:1043C0000E947E33C82FC15010F4CF91089560E051
:1043D00080E20E945221F7CFA901480F511D4115DB
:1043E000524018F080E030E020E0280F311D225DBF
:1043F0003C4F3093350520933405E7CFFF920F9360
:104400001F93CF93DF93EC01F62EFC010190002067
:10441000E9F78F0101501109C017D10730F0DF9182
:10442000CF911F910F91FF9008956F2D89910E9458
:104430005221F2CF0E94FE2181E00C94CC211F93E7
:10444000CF93DF93EC01162FFE018491811104C0FC
:10445000DF91CF911F910895612F0E9452212196E3
:10446000F3CF0E941F2281E00C94CC21CF93DF93E5
:1044700000D000D0CDB7DEB78091F902811109C01C
:104480008091F8020F900F900F900F90DF91CF91D5
:1044900008950E946F2ADC01CB01805A9541AF4FED
:1044A000BF4F8093300590933105A0933205B093B0
:1044B00033058091F8028111E3CF62E070E084EB74
:1044C00094E00E948620892BD9F681E08093F8023F
:1044D000D7CF2F923F925F926F927F928F929F924F
:1044E000AF92BF92CF92DF92EF92FF920F931F9302
:1044F000CF93DF938091F902882369F02091FA022B
:104500003091FB022115310531F08091F70261E015
:1045100070E0882399F0DF91CF911F910F91FF9068
:10452000EF90DF90CF90BF90AF909F908F907F9053
:104530006F905F903F902F9008958F5F082F10E04D
:104540001B01082E02C0220C331C0A94E2F7A901B9
:1045500042215321452B89F32091F602922F91702D
:1045600020FD45C09801369527953695279582956B
:10457000880F80763FE1380F8093390120933C010A
:1045800030933A0190933D0124E630E047E050E05B
:1045900067E371E088E70E944E26892B09F0BBCFC4
:1045A000A80125E0440F551F2A95E1F78091F602F6
:1045B00080FD25C0425D5C4F04E610E020E230E063
:1045C00060E488E70E947B26892B09F0A4CF0E9433
:1045D0003622E101C095D0958091FA029091FB02BC
:1045E000C823D923D093FB02C093FA0294CF880F3B
:1045F000880F880F37E0380F20E093E0BDCFE5ED5E
:10460000F2E080E2DF011D928A95E9F7A2EFB1E0C6
:104610000EEE11E086EFC82E81E0D82E97E0592EDD
:10462000772473949D91E80189918E01BA01680FF6
:10463000711D625D7C4FE92FF0E0EB52FD4F90E081
:1046400080E0652C681A872C082E01C0880C0A941B
:10465000EAF77B01A12CE701B9907E01B820262D55
:104660002A192770922E022E000C330BDB2D01C06D
:10467000DD0F9A94EAF79D2E319521953109277027
:10468000332701C0B6942A95EAF79B282081922A05
:104690009082A39428E0A212DECF01963196883052
:1046A000910579F6CA16DB0609F0BCCF04E610E0E6
:1046B00020E230E045ED52E083CF8091F802909106
:1046C000F902911103C091E089270895882369F0C8
:1046D00062E070E082EB94E00E948620892B19F062
:1046E0008091F80208951092F8028091F802EBCFC1
:1046F0008091F8020895CF93DF9300D000D0CDB71A
:10470000DEB78091F902882309F43FC080912E051D
:1047100090912F050E948F2AC29760F00E94632A11
:1047200090932F0580932E0560E080E00E941C216D
:104730000E94CD050E9469228091F802882329F108
:104740000E946F2A69837A838B839C8380913005D2
:1047500090913105A0913205B091330529813A81BC
:104760004B815C81281B390B4A0B5B0BDA01C901B9
:104770008F3F9F4FAF4FBF4740F40F900F900F9068
:104780000F90DF91CF910C945D230F900F900F90BD
:104790000F90DF91CF9108950F931F93CF93DF93E5
:1047A000C42FD22FFC0182818823C9F04093FE02DE
:1047B0000E94632A9093FD028093FC0280E28C0F9A
:1047C000883008F050C0C77081E001C0880FCA95DA
:1047D000EAF7DF91CF911F910F910C94B60B1091D6
:1047E000FE02141335C08091FC029091FD020E94DC
:1047F0008F2A8436910560F5C0E2CD0F1D17B9F000
:1048000080E2810F883040F4177081E001C0880F8A
:104810001A95EAF70E94BD0BC83048F481E09D2F3D
:10482000977001C0880F9A95EAF70E94B60B802F07
:104830000E94AE0BC830B8F4D77081E001C0880F79
:10484000DA95EAF7DF91CF911F910F910C94BD0B90
:1048500080E28C0F883038F4C77081E001C0880F87
:10486000CA95EAF7EFCFDF91CF911F910F9108958D
:104870000F939C01CB01243F4CE53407A1F190F448
:10488000293DFCE53F0749F12A3D4CE53407E9F1B4
:10489000283D3C45C1F0FC0182818823E1F1109262
:1048A000FE0219C0263FFCE53F0719F1273F4CE502
:1048B000340729F1253F3C4571F707E225EE44EE28
:1048C00065EF7CE505C006E221EE41EE68ED7CE592
:1048D0000E94CC2380E00F91089507E225EE45EE7B
:1048E00069ED7CE5F5CF06E221EE40EE64EF7CE574
:1048F000EFCF06E221EE42EE66EF7CE5E9CF07E27C
:1049000025EE46EE67EF7CE5E3CF08E221E045EED9
:104910006AED7CE5DDCF81E0DECFCF93DF93EC0164
:10492000FB018281882309F4DFC0C430FDE5DF0785
:1049300010F5CB3F9CE5D90730F49E0122503C4551
:1049400024313105E0F40E94C3159093160380933F
:104950001503C631FCE5DF0710F5C2308CE5D8073A
:1049600088F480911503909116030E94D1150E943E
:10497000E90E80E004C0C236EDE5DE0721F3DF91E9
:10498000CF910895FE01E350FC45809115038160AD
:10499000E331F10518F5E958FB4C0C94D133C430E0
:1049A0009DE5D90770F4CB3FECE5DE07D0F2FE01C0
:1049B000EC5FFC45E830F105E0F4E657FB4C0C9465
:1049C000D133C236DD4569F690911503892F8F7E6C
:1049D00094FF806103C0809115038260809315036A
:1049E000C0CF809115038460F9CF80911503886052
:1049F000F5CF80911603816080931603B2CF80912A
:104A000016038260F9CF809115038061E7CF809112
:104A100015038062E3CF809115038064DFCF0E948D
:104A2000E90E809115038068D9CF809115038C60C1
:104A3000D5CF809116038360DFCF809115038E7FE1
:104A4000CDCF809115038D7FC9CF809115038B7FCA
:104A5000C5CF80911503877FC1CF809116038E7FCC
:104A6000CBCF809116038D7FC7CF809115038F7EAA
:104A7000B5CF809115038F7DB1CF809115038F7BCA
:104A8000ADCF0E94E90E809115038F77A7CF80915B
:104A90001503837FA3CF809116038C7FADCF8091C8
:104AA000150382FB992790F921E0922790FB82F968
:104AB00090FB83F993CF80911603982F9095917076
:104AC0008E7F892B90FB81F997CF0E94E90E909100
:104AD0001503892F97FB87F9805880CF81E00E94CA
:104AE00057163FCF80E0FBCF81E049CFCF93DF93D4
:104AF000EB0186319C4511F50E94F9149A819923A6
:104B000099F08A7A91E009F490E09093FF02811184
:104B100009C089E20E948D140E943E1580E0DF9159
:104B2000CF91089585E3F6CF8091FF02811104C0F3
:104B300089E20E949414F0CF85E3FBCF81E0EFCFB0
:104B40001092B9008CE08093B80008959F92AF92C4
:104B5000BF92CF92DF92EF92FF920F931F93CF936A
:104B6000DF93B82EEB010E94632A6C01EE24E394DC
:104B7000F12CC431D10560F025E0E22EF12CCF3FBD
:104B8000DC0731F0CE0164E170E00E948A337B01E2
:104B900084EAA82E94E8992E1092BC00A092BC0042
:104BA0000E94632A8C018091BC0087FF0CC0809119
:104BB000B900887F883031F18091B900887F8031D9
:104BC00009F10FEF08C00E94632A801B910B8E151C
:104BD0009F0548F30EEF1FEFCF3FDC07E9F2C60158
:104BE0000E948F2A8C179D07B8F2C801DF91CF91E0
:104BF0001F910F91FF90EF90DF90CF90BF90AF90FB
:104C00009F900895B092BB009092BC000E94632ACE
:104C10008C018091BC0087FF0AC02091B900287FD9
:104C2000283111F0203469F600E010E0DECF0E9458
:104C3000632A801B910B8E159F0558F3CBCF0F93E2
:104C40001F93CF93DF93EB018093BB0084E88093A5
:104C5000BC000E94632A8C018091BC0087FF11C0B8
:104C60002091B900287F81E090E0283211F490E093
:104C700080E0919581959109DF91CF911F910F91DE
:104C80000895CF3FDC0741F30E94632A801B910BFC
:104C90008C179D0708F38EEF9FEFEECFCF92DF9238
:104CA000EF92FF920F931F93CF93DF936B018A01D3
:104CB000F22EE32E622F732F0E94A625AC01E6018F
:104CC0000C0D1D1DC017D10711F057FF0DC084E951
:104CD0008093BC00CA01DF91CF911F910F91FF908B
:104CE000EF90DF90CF9008956F2D7E2D89910E94D7
:104CF0001F26AC01E7CFCF92DF92EF92FF920F9386
:104D00001F93CF93DF93C62F6A017901B8010E94E8
:104D1000A6259C0197FD0DC0B8018C2F0E941F266F
:104D20009C01E601EC0CFD1CCE15DF0511F037FFF0
:104D30000DC084E98093BC00C901DF91CF911F9120
:104D40000F91FF90EF90DF90CF900895B801899177
:104D50000E941F269C01E8CF84E98093BC0008953F
:104D60008EE14A9B02C08150E1F74A9BFECF089535
:104D70005A9880E28A95F1F75A9A0895FC013BE02F
:104D80003A95F1F798E020E080E031E040E14A9583
:104D9000F1F7880F4A9B02C08160232742E04A95C1
:104DA000F1F7000040E14A95F1F7915079F790E171
:104DB0009A95F1F799B132E03A95F1F7000040E1A8
:104DC0004A95F1F792FB992790F992272081920F4B
:104DD00090830895EF92FF920F931F93CF93DF93E9
:104DE0000F92CDB7DEB719828C017C01E60EF11C63
:104DF0000E151F0561F481E09981911180E00F90FB
:104E0000DF91CF911F910F91FF90EF9008950E9435
:104E1000B026CE0101960E94BE26F80181938F0133
:104E2000E7CF529A5A9A089552985A9AEA9AE9E61E
:104E3000F0E080818F7C808308956150770B91E052
:104E400001C0990F6A95EAF720E031E0911108C09E
:104E5000222391F05A9A80E28A95F1F75A980895A0
:104E6000492F482339F05A9A232740E24A95F1F70F
:104E70009695ECCF5A98F9CF5A98EDCFFF920F93B1
:104E80001F93CF93DF93EC018C01060F111DC01708
:104E9000D10731F4DF91CF911F910F91FF900895C9
:104EA000F9900E94B82668E08F2D0E941D27EFCF51
:104EB0001F920F920FB60F921124EF92FF920F9351
:104EC0001F932F933F934F935F936F937F938F9392
:104ED0009F93AF93BF93EF93FF93CF93DF930F9283
:104EE000CDB7DEB719820E94B026CE0101960E948E
:104EF000BE26282FA82FA695A695A695982F929501
:104F000095708A2F8570980F892F83709695969546
:104F1000890F822787709981892B09F075C0A63087
:104F200008F072C080E18A95F1F75A9A529AB2E07D
:104F3000BA95F1F700C0EA2EF12C5A98EAE0AE9F3C
:104F4000D0011124AD5FBE4F1896ED91FC911997D9
:104F50003097B1F06091BC017091BD0116962D9112
:104F60003C911797260F371F13968D919C9114979C
:104F7000680F791F15964C91159712968C9109958B
:104F80008AE08E9DF0018F9DF00D1124ED5FFE4FA4
:104F90006581662351F02091BC013091BD0186816D
:104FA0009781820F931F0E943E270E94B826F0E14E
:104FB000FA95F1F75A9852985A9A80E18A95F1F742
:104FC0008AE08E9D80018F9D100D11240D5F1E4F74
:104FD000D80112966C911297662371F12091BC0151
:104FE0003091BD0113968D919C91820F931F0E9469
:104FF000EA26D801ED91FC91882311F088E001C0E8
:1050000082E080830E94B0260F90DF91CF91FF91C4
:10501000EF91BF91AF919F918F917F916F915F9130
:105020004F913F912F911F910F91FF90EF900F9013
:105030000FBE0F901F901895ED91FC91DFCF0F934D
:105040001F93CF93DF93EC0106970CF0A9C08AE081
:105050008C9FF0018D9FF00D1124ED5FFE4F80813C
:105060009181892B09F49CC0F894529A5A9885E052
:105070008A95F1F700008C2F869585709C2F95708E
:10508000890F982F937086958695890F8E0193E0EE
:10509000000F111F9A95E1F7082B0E94B82600C057
:1050A00068E0802F0E941D27A0E1AA95F1F7529891
:1050B0005A9A4A9B27C087E090E04A9925C08AE027
:1050C0008C9F80018D9F100D11240D5F1E4FF801E4
:1050D00065816623A1F12091BC013091BD018681DB
:1050E0009781820F931F0E94EA26811128C0529A4D
:1050F0005A9AD801ED91FC9182E08083789482E005
:1051000090E016C000C0D5CF0197B9F4529A5A9AD0
:105110008AE08C9FF0018D9FF00D1124ED5FFE4F12
:105120000190F081E02D81E08083789481E090E02F
:10513000DF91CF911F910F91089500C0BECF0E94C3
:10514000B026B0E2BA95F1F75A98529AE0E1EA95A2
:10515000F1F78AE08C9FF0018D9FF00D1124ED5F37
:10516000FE4F6281662351F02091BC013091BD0158
:1051700083819481820F931F0E943E270E94B8264C
:105180008AE08C9FF0018D9FF00D1124ED5FFE4FA2
:105190000190F081E02D1082789490E080E0C8CFFB
:1051A00084E090E0C5CF90930603809305030895B3
:1051B0000E94581B811103C0809100030895E09163
:1051C0000503F0910603309721F00190F081E02D66
:1051D000099480E008950E94D8280895E09105037D
:1051E000F0910603309721F00280F381E02D0994BD
:1051F000089520910303309104032817390771F0B3
:105200009093040380930303E0910503F091060358
:10521000309721F00680F781E02D099408952091C0
:105220000103309102032817390771F090930203AC
:1052300080930103E0910503F0910603309721F07C
:105240000084F185E02D09940895AC019C012E5F46
:105250003F4F485F5F4F80E02417350709F40895FA
:10526000F90191919F019923B9F38F5FF5CF9C01CB
:10527000662351F0FC013296285F3F4F81918617DB
:1052800029F0E217F307D1F780E0089581E008954F
:105290009C01FC0132968FEF90E04191461751F04E
:1052A0008F3F19F4411101C0892F9F5F9630A9F7F4
:1052B0008F3F09F40895280F311D87FD3A95F901B4
:1052C000628308959C01FC013296285F3F4F8191D3
:1052D000861303C0DF0111971C92E217F307B9F799
:1052E00008950C9448290C946229FC01329686E0BA
:1052F000DF011D928A95E9F7089510923605109204
:10530000370510923805109239050895CF92DF9233
:10531000EF92FF92CF93DF9300D000D0CDB7DEB7EE
:105320006B017C010E94581B81110EC00E946F2AE4
:10533000C61AD70AE80AF90AC0923605D09237058C
:10534000E0923805F09239050F900F900F900F9072
:10535000DF91CF91FF90EF90DF90CF900895CF93A2
:10536000DF9300D000D0CDB7DEB70E94581B882352
:1053700041F00F900F900F900F90DF91CF910C9410
:105380006F2A0E946F2A69837A838B839C83809122
:10539000360590913705A0913805B09139052981DE
:1053A0003A814B815C81280F391F4A1F5B1FCA015C
:1053B000B9010F900F900F900F90DF91CF9108954A
:1053C0000895089508950C94E2298091420584304F
:1053D00049F10E94E32980E00E94870A10920703A6
:1053E00088E190E020E40FB6F894A89580936000DF
:1053F0000FBE2093600083B7817F846083BF83B733
:10540000816083BF7894889583B78E7F83BF0FB602
:10541000F894A89580916000886180936000109254
:1054200060000FBE08950895CF930E94E1290E9465
:10543000C51A0E94132AC0E08C2F0E948519811181
:1054400005C0CF5FCA30C1F7CF91089581E0FCCF8E
:1054500008950C94282A0E94E90E0E94D8280E94E0
:10546000870A0C94292A1F921FB61F9211248F932A
:105470009F93AF93BF9380910703811113C08091D5
:105480003A0590913B05A0913C05B0913D054196B0
:10549000A11DB11D80933A0590933B05A0933C0557
:1054A000B0933D05BF91AF919F918F911F901FBE0B
:1054B0001F90189582E084BD93E095BD9AEF97BD4B
:1054C00080936E0008952FB7F89480913A059091DB
:1054D0003B05A0913C05B0913D052FBF0895CF93AA
:1054E000DF9300D000D0CDB7DEB78FB7F89420910E
:1054F0003A0530913B0540913C0550913D0529838B
:105500003A834B835C838FBF69817A818B819C81D5
:105510000F900F900F900F90DF91CF9108959C0105
:105520004FB7F89480913A0590913B05A0913C05C6
:10553000B0913D054FBF821B930B08950F931F93AE
:10554000CF93DF9300D000D0CDB7DEB7462F572FD3
:10555000BC012FB7F89480913A0590913B05A0913A
:105560003C05B0913D052FBF8C019D01041B150B1F
:10557000260B370BC901B8010F900F900F900F90B9
:10558000DF91CF911F910F91089578941F921FB6CC
:105590001F9211248F939F93AF93BF9380913A05ED
:1055A00090913B05A0913C05B0913D050196A11D50
:1055B000B11D80933A0590933B05A0933C05B093B1
:1055C0003D05BF91AF919F918F911F901FBE1F907E
:1055D000189587E797E7909301088093000888E182
:1055E0009AE00FB6F894A895809360000FBE909350
:1055F0006000FFCF9093F7018093F60108958091AA
:105600001303089590914205943031F58093080377
:105610006093090370930A0382E08093E9008FEF9F
:105620009091E800815095FD06C095ED9A95F1F7AF
:1056300000008111F5CF8091E80085FF0DC050E09A
:1056400040E063E070E088E093E00E94F22C8091FB
:10565000E8008E778093E8000895BC0184E00C9404
:10566000022BBC0183E00C94022BCF93DF93D82F45
:10567000C92F81E08093E9008FEF9091E80081507D
:1056800095FD06C095ED9A95F1F700008111F5CFD3
:105690008091E80085FF16C050E040E068E070E0CF
:1056A0008D2F9C2F0E94F22C8091E8008E778093A2
:1056B000E80088E0ED2FFC2FABE0B3E001900D9205
:1056C0008A95E1F7DF91CF91089508958091410582
:1056D000811109C00E947A2E0E94D72E8091E2008B
:1056E00084608093E2000895109241050895089522
:1056F0000895089542E061EC81E00E94F62D42E2B7
:1057000061EC82E00C94F62D80914405893089F19A
:1057100048F4823009F49DC0833009F458C08130C8
:1057200041F008958A3009F484C08B3009F46AC0CE
:10573000089580914305813A09F048C08091E800BE
:10574000877F8093E8008091470590914805892BD9
:1057500061F468E08BE093E070E00E94412D80915D
:10576000E8008B778093E800089560E090E080E0A7
:10577000F3CF80914305813249F58091470590919F
:105780004805029718F58091E800877F8093E8002C
:105790008091E80082FF16C09091F3008091F200A2
:1057A000029729F48091F1008B7F813021F4809160
:1057B000F100809313038091E8008B778093E800D9
:1057C0000C942A2E809142058111E2CF0895809198
:1057D0004305813AD9F78091470590914805892B77
:1057E000A9F78091E800877F8093E8008091E80026
:1057F00080FFFCCF809148018093F1008091E80008
:105800008E77DCCF80914305813201F78091470587
:1058100090914805892BD1F68091E800877F80938D
:10582000E8000E942A2E80914505809348010C943F
:10583000E90E80914305813249F68091E800877F27
:105840008093E8000E942A2E8091460580931403DD
:10585000089580914305813A09F0B8CF8091E8001E
:10586000877F8093E8008091E80080FFFCCF8091E3
:105870001403C2CF84B7877F84BF0FB6F894A8956E
:1058800080916000886180936000109260000FBE7C
:1058900080E890E00FB6F8948093610090936100E7
:1058A0000FBE0C9490160E947A2E0E94D72EE2EE24
:1058B000F0E080818460808378940E9463310E944C
:1058C000A2168EE391E00C94D32880914205853096
:1058D00031F480914205853021F00E942B2A0C94EE
:1058E000B1160E94E52980914005882391F30E941A
:1058F000142A882371F30E94DC2C0E94E90EE9CF60
:105900000C94822CFC01CB01DA012F2F332723309A
:105910003105D1F070F42130310509F43EC0223058
:10592000310569F48BE390E024E43AE02D933C9355
:10593000089521323105E9F02232310521F190E05C
:1059400080E030E020E0F2CFCF019927E13059F03C
:105950008230910559F0E0E4FAE0892B81F78491D7
:1059600090E09F01E3CFE4E2FAE0F9CFE6E1FAE06C
:10597000F6CF892BB9F06130710509F789E090E025
:105980002FE63AE0D3CF892B91F061307105B9F65B
:1059900082E390E021E93AE0C9CF82E190E02FE78D
:1059A0003AE0C4CF89E090E026E53AE0BFCF80E45A
:1059B00090E023EC3AE0BACF80E189BD82E189BD75
:1059C00009B400FEFDCF8091D8008F7D8093D80070
:1059D0008091E00082608093E0008091E00081FD92
:1059E000FCCF0895AF92BF92CF92DF92FF920F93B8
:1059F0001F93CF93DF936C01EB018A010E94492E24
:105A0000F82E811123C00115110539F0F8018081AC
:105A10009181C81BD90BC80ED91EB12CA12C20977F
:105A2000A9F08091E80085FD22C08091E8008E7782
:105A30008093E80001151105A1F0F80180819181A2
:105A40008A0D9B1D9183808385E0F82E8F2DDF9139
:105A5000CF911F910F91FF90DF90CF90BF90AF90AB
:105A600008950E94492E8823D1F2F82EEFCFF60137
:105A700081916F018093F1002197FFEFAF1ABF0A68
:105A8000CECFFC01CB012091490530914A05261764
:105A9000370790F0009729F42091E8002E772093A3
:105AA000E80040E0009751F4411108C08091E800FF
:105AB00082FF31C080E00895C901F3CF20914205F3
:105AC0002223A9F12530A9F12091E80023FD2DC062
:105AD0002091E80022FDEACF2091E80020FFE2CFEC
